{
  "_format": "hh-sol-artifact-1",
  "contractName": "PropertyEscrow",
  "sourceName": "contracts/PropertyEscrow.sol",
  "abi": [
    {
      "inputs": [
        {
          "internalType": "address",
          "name": "_platformWallet",
          "type": "address"
        },
        {
          "internalType": "uint256",
          "name": "_platformFeePercentage",
          "type": "uint256"
        }
      ],
      "stateMutability": "nonpayable",
      "type": "constructor"
    },
    {
      "anonymous": false,
      "inputs": [
        {
          "indexed": true,
          "internalType": "uint256",
          "name": "escrowId",
          "type": "uint256"
        },
        {
          "indexed": true,
          "internalType": "address",
          "name": "approver",
          "type": "address"
        },
        {
          "indexed": false,
          "internalType": "enum EscrowStructs.Role",
          "name": "role",
          "type": "uint8"
        }
      ],
      "name": "ApprovalGiven",
      "type": "event"
    },
    {
      "anonymous": false,
      "inputs": [
        {
          "indexed": true,
          "internalType": "uint256",
          "name": "escrowId",
          "type": "uint256"
        },
        {
          "indexed": true,
          "internalType": "address",
          "name": "initiator",
          "type": "address"
        },
        {
          "indexed": false,
          "internalType": "string",
          "name": "reason",
          "type": "string"
        }
      ],
      "name": "DisputeRaised",
      "type": "event"
    },
    {
      "anonymous": false,
      "inputs": [
        {
          "indexed": true,
          "internalType": "uint256",
          "name": "escrowId",
          "type": "uint256"
        },
        {
          "indexed": true,
          "internalType": "address",
          "name": "resolver",
          "type": "address"
        },
        {
          "indexed": false,
          "internalType": "string",
          "name": "resolution",
          "type": "string"
        }
      ],
      "name": "DisputeResolved",
      "type": "event"
    },
    {
      "anonymous": false,
      "inputs": [
        {
          "indexed": true,
          "internalType": "uint256",
          "name": "escrowId",
          "type": "uint256"
        },
        {
          "indexed": true,
          "internalType": "address",
          "name": "canceller",
          "type": "address"
        }
      ],
      "name": "EscrowCancelled",
      "type": "event"
    },
    {
      "anonymous": false,
      "inputs": [
        {
          "indexed": true,
          "internalType": "uint256",
          "name": "escrowId",
          "type": "uint256"
        },
        {
          "indexed": true,
          "internalType": "address",
          "name": "buyer",
          "type": "address"
        },
        {
          "indexed": true,
          "internalType": "address",
          "name": "seller",
          "type": "address"
        },
        {
          "indexed": false,
          "internalType": "uint256",
          "name": "depositAmount",
          "type": "uint256"
        }
      ],
      "name": "EscrowCreated",
      "type": "event"
    },
    {
      "anonymous": false,
      "inputs": [
        {
          "indexed": true,
          "internalType": "uint256",
          "name": "escrowId",
          "type": "uint256"
        },
        {
          "indexed": true,
          "internalType": "address",
          "name": "buyer",
          "type": "address"
        },
        {
          "indexed": false,
          "internalType": "uint256",
          "name": "amount",
          "type": "uint256"
        }
      ],
      "name": "FundsDeposited",
      "type": "event"
    },
    {
      "anonymous": false,
      "inputs": [
        {
          "indexed": true,
          "internalType": "uint256",
          "name": "escrowId",
          "type": "uint256"
        },
        {
          "indexed": true,
          "internalType": "address",
          "name": "buyer",
          "type": "address"
        },
        {
          "indexed": false,
          "internalType": "uint256",
          "name": "amount",
          "type": "uint256"
        }
      ],
      "name": "FundsRefunded",
      "type": "event"
    },
    {
      "anonymous": false,
      "inputs": [
        {
          "indexed": true,
          "internalType": "uint256",
          "name": "escrowId",
          "type": "uint256"
        },
        {
          "indexed": true,
          "internalType": "address",
          "name": "seller",
          "type": "address"
        },
        {
          "indexed": false,
          "internalType": "uint256",
          "name": "amount",
          "type": "uint256"
        }
      ],
      "name": "FundsReleased",
      "type": "event"
    },
    {
      "anonymous": false,
      "inputs": [
        {
          "indexed": false,
          "internalType": "address",
          "name": "account",
          "type": "address"
        }
      ],
      "name": "Paused",
      "type": "event"
    },
    {
      "anonymous": false,
      "inputs": [
        {
          "indexed": true,
          "internalType": "bytes32",
          "name": "role",
          "type": "bytes32"
        },
        {
          "indexed": true,
          "internalType": "bytes32",
          "name": "previousAdminRole",
          "type": "bytes32"
        },
        {
          "indexed": true,
          "internalType": "bytes32",
          "name": "newAdminRole",
          "type": "bytes32"
        }
      ],
      "name": "RoleAdminChanged",
      "type": "event"
    },
    {
      "anonymous": false,
      "inputs": [
        {
          "indexed": true,
          "internalType": "bytes32",
          "name": "role",
          "type": "bytes32"
        },
        {
          "indexed": true,
          "internalType": "address",
          "name": "account",
          "type": "address"
        },
        {
          "indexed": true,
          "internalType": "address",
          "name": "sender",
          "type": "address"
        }
      ],
      "name": "RoleGranted",
      "type": "event"
    },
    {
      "anonymous": false,
      "inputs": [
        {
          "indexed": true,
          "internalType": "bytes32",
          "name": "role",
          "type": "bytes32"
        },
        {
          "indexed": true,
          "internalType": "address",
          "name": "account",
          "type": "address"
        },
        {
          "indexed": true,
          "internalType": "address",
          "name": "sender",
          "type": "address"
        }
      ],
      "name": "RoleRevoked",
      "type": "event"
    },
    {
      "anonymous": false,
      "inputs": [
        {
          "indexed": false,
          "internalType": "address",
          "name": "account",
          "type": "address"
        }
      ],
      "name": "Unpaused",
      "type": "event"
    },
    {
      "anonymous": false,
      "inputs": [
        {
          "indexed": true,
          "internalType": "uint256",
          "name": "escrowId",
          "type": "uint256"
        },
        {
          "indexed": true,
          "internalType": "address",
          "name": "verifier",
          "type": "address"
        }
      ],
      "name": "VerificationCompleted",
      "type": "event"
    },
    {
      "inputs": [],
      "name": "ADMIN_ROLE",
      "outputs": [
        {
          "internalType": "bytes32",
          "name": "",
          "type": "bytes32"
        }
      ],
      "stateMutability": "view",
      "type": "function"
    },
    {
      "inputs": [],
      "name": "AGENT_ROLE",
      "outputs": [
        {
          "internalType": "bytes32",
          "name": "",
          "type": "bytes32"
        }
      ],
      "stateMutability": "view",
      "type": "function"
    },
    {
      "inputs": [],
      "name": "ARBITER_ROLE",
      "outputs": [
        {
          "internalType": "bytes32",
          "name": "",
          "type": "bytes32"
        }
      ],
      "stateMutability": "view",
      "type": "function"
    },
    {
      "inputs": [],
      "name": "BASIS_POINTS",
      "outputs": [
        {
          "internalType": "uint256",
          "name": "",
          "type": "uint256"
        }
      ],
      "stateMutability": "view",
      "type": "function"
    },
    {
      "inputs": [],
      "name": "DEFAULT_ADMIN_ROLE",
      "outputs": [
        {
          "internalType": "bytes32",
          "name": "",
          "type": "bytes32"
        }
      ],
      "stateMutability": "view",
      "type": "function"
    },
    {
      "inputs": [],
      "name": "MAX_PLATFORM_FEE",
      "outputs": [
        {
          "internalType": "uint256",
          "name": "",
          "type": "uint256"
        }
      ],
      "stateMutability": "view",
      "type": "function"
    },
    {
      "inputs": [
        {
          "internalType": "uint256",
          "name": "escrowId",
          "type": "uint256"
        }
      ],
      "name": "canReleaseFunds",
      "outputs": [
        {
          "internalType": "bool",
          "name": "",
          "type": "bool"
        }
      ],
      "stateMutability": "view",
      "type": "function"
    },
    {
      "inputs": [
        {
          "internalType": "uint256",
          "name": "escrowId",
          "type": "uint256"
        }
      ],
      "name": "cancelEscrow",
      "outputs": [],
      "stateMutability": "nonpayable",
      "type": "function"
    },
    {
      "inputs": [
        {
          "internalType": "uint256",
          "name": "escrowId",
          "type": "uint256"
        }
      ],
      "name": "completeVerification",
      "outputs": [],
      "stateMutability": "nonpayable",
      "type": "function"
    },
    {
      "inputs": [
        {
          "components": [
            {
              "internalType": "address",
              "name": "buyer",
              "type": "address"
            },
            {
              "internalType": "address",
              "name": "seller",
              "type": "address"
            },
            {
              "internalType": "address",
              "name": "agent",
              "type": "address"
            },
            {
              "internalType": "address",
              "name": "arbiter",
              "type": "address"
            },
            {
              "internalType": "address",
              "name": "tokenAddress",
              "type": "address"
            },
            {
              "internalType": "uint256",
              "name": "depositAmount",
              "type": "uint256"
            },
            {
              "internalType": "uint256",
              "name": "agentFee",
              "type": "uint256"
            },
            {
              "internalType": "uint256",
              "name": "platformFee",
              "type": "uint256"
            },
            {
              "components": [
                {
                  "internalType": "string",
                  "name": "propertyId",
                  "type": "string"
                },
                {
                  "internalType": "string",
                  "name": "description",
                  "type": "string"
                },
                {
                  "internalType": "uint256",
                  "name": "salePrice",
                  "type": "uint256"
                },
                {
                  "internalType": "string",
                  "name": "documentHash",
                  "type": "string"
                },
                {
                  "internalType": "bool",
                  "name": "verified",
                  "type": "bool"
                }
              ],
              "internalType": "struct EscrowStructs.Property",
              "name": "property",
              "type": "tuple"
            },
            {
              "internalType": "uint256",
              "name": "depositDeadline",
              "type": "uint256"
            },
            {
              "internalType": "uint256",
              "name": "verificationDeadline",
              "type": "uint256"
            }
          ],
          "internalType": "struct EscrowStructs.CreateEscrowParams",
          "name": "params",
          "type": "tuple"
        }
      ],
      "name": "createEscrow",
      "outputs": [
        {
          "internalType": "uint256",
          "name": "",
          "type": "uint256"
        }
      ],
      "stateMutability": "nonpayable",
      "type": "function"
    },
    {
      "inputs": [
        {
          "internalType": "uint256",
          "name": "escrowId",
          "type": "uint256"
        }
      ],
      "name": "depositFunds",
      "outputs": [],
      "stateMutability": "nonpayable",
      "type": "function"
    },
    {
      "inputs": [
        {
          "internalType": "address",
          "name": "token",
          "type": "address"
        },
        {
          "internalType": "uint256",
          "name": "amount",
          "type": "uint256"
        }
      ],
      "name": "emergencyTokenRecovery",
      "outputs": [],
      "stateMutability": "nonpayable",
      "type": "function"
    },
    {
      "inputs": [
        {
          "internalType": "uint256",
          "name": "escrowId",
          "type": "uint256"
        }
      ],
      "name": "getEscrow",
      "outputs": [
        {
          "components": [
            {
              "internalType": "uint256",
              "name": "id",
              "type": "uint256"
            },
            {
              "internalType": "address",
              "name": "buyer",
              "type": "address"
            },
            {
              "internalType": "address",
              "name": "seller",
              "type": "address"
            },
            {
              "internalType": "address",
              "name": "agent",
              "type": "address"
            },
            {
              "internalType": "address",
              "name": "arbiter",
              "type": "address"
            },
            {
              "internalType": "address",
              "name": "tokenAddress",
              "type": "address"
            },
            {
              "internalType": "uint256",
              "name": "depositAmount",
              "type": "uint256"
            },
            {
              "internalType": "uint256",
              "name": "agentFee",
              "type": "uint256"
            },
            {
              "internalType": "uint256",
              "name": "platformFee",
              "type": "uint256"
            },
            {
              "internalType": "enum EscrowStructs.EscrowState",
              "name": "state",
              "type": "uint8"
            },
            {
              "components": [
                {
                  "internalType": "string",
                  "name": "propertyId",
                  "type": "string"
                },
                {
                  "internalType": "string",
                  "name": "description",
                  "type": "string"
                },
                {
                  "internalType": "uint256",
                  "name": "salePrice",
                  "type": "uint256"
                },
                {
                  "internalType": "string",
                  "name": "documentHash",
                  "type": "string"
                },
                {
                  "internalType": "bool",
                  "name": "verified",
                  "type": "bool"
                }
              ],
              "internalType": "struct EscrowStructs.Property",
              "name": "property",
              "type": "tuple"
            },
            {
              "internalType": "uint256",
              "name": "createdAt",
              "type": "uint256"
            },
            {
              "internalType": "uint256",
              "name": "depositDeadline",
              "type": "uint256"
            },
            {
              "internalType": "uint256",
              "name": "verificationDeadline",
              "type": "uint256"
            },
            {
              "internalType": "bool",
              "name": "buyerApproval",
              "type": "bool"
            },
            {
              "internalType": "bool",
              "name": "sellerApproval",
              "type": "bool"
            },
            {
              "internalType": "bool",
              "name": "agentApproval",
              "type": "bool"
            },
            {
              "internalType": "string",
              "name": "disputeReason",
              "type": "string"
            }
          ],
          "internalType": "struct EscrowStructs.Escrow",
          "name": "",
          "type": "tuple"
        }
      ],
      "stateMutability": "view",
      "type": "function"
    },
    {
      "inputs": [
        {
          "internalType": "uint256",
          "name": "escrowId",
          "type": "uint256"
        }
      ],
      "name": "getEscrowState",
      "outputs": [
        {
          "internalType": "enum EscrowStructs.EscrowState",
          "name": "",
          "type": "uint8"
        }
      ],
      "stateMutability": "view",
      "type": "function"
    },
    {
      "inputs": [
        {
          "internalType": "bytes32",
          "name": "role",
          "type": "bytes32"
        }
      ],
      "name": "getRoleAdmin",
      "outputs": [
        {
          "internalType": "bytes32",
          "name": "",
          "type": "bytes32"
        }
      ],
      "stateMutability": "view",
      "type": "function"
    },
    {
      "inputs": [],
      "name": "getTotalEscrows",
      "outputs": [
        {
          "internalType": "uint256",
          "name": "",
          "type": "uint256"
        }
      ],
      "stateMutability": "view",
      "type": "function"
    },
    {
      "inputs": [
        {
          "internalType": "uint256",
          "name": "escrowId",
          "type": "uint256"
        }
      ],
      "name": "giveApproval",
      "outputs": [],
      "stateMutability": "nonpayable",
      "type": "function"
    },
    {
      "inputs": [
        {
          "internalType": "bytes32",
          "name": "role",
          "type": "bytes32"
        },
        {
          "internalType": "address",
          "name": "account",
          "type": "address"
        }
      ],
      "name": "grantRole",
      "outputs": [],
      "stateMutability": "nonpayable",
      "type": "function"
    },
    {
      "inputs": [
        {
          "internalType": "bytes32",
          "name": "role",
          "type": "bytes32"
        },
        {
          "internalType": "address",
          "name": "account",
          "type": "address"
        }
      ],
      "name": "hasRole",
      "outputs": [
        {
          "internalType": "bool",
          "name": "",
          "type": "bool"
        }
      ],
      "stateMutability": "view",
      "type": "function"
    },
    {
      "inputs": [],
      "name": "pause",
      "outputs": [],
      "stateMutability": "nonpayable",
      "type": "function"
    },
    {
      "inputs": [],
      "name": "paused",
      "outputs": [
        {
          "internalType": "bool",
          "name": "",
          "type": "bool"
        }
      ],
      "stateMutability": "view",
      "type": "function"
    },
    {
      "inputs": [],
      "name": "platformFeePercentage",
      "outputs": [
        {
          "internalType": "uint256",
          "name": "",
          "type": "uint256"
        }
      ],
      "stateMutability": "view",
      "type": "function"
    },
    {
      "inputs": [],
      "name": "platformWallet",
      "outputs": [
        {
          "internalType": "address",
          "name": "",
          "type": "address"
        }
      ],
      "stateMutability": "view",
      "type": "function"
    },
    {
      "inputs": [
        {
          "internalType": "uint256",
          "name": "escrowId",
          "type": "uint256"
        },
        {
          "internalType": "string",
          "name": "reason",
          "type": "string"
        }
      ],
      "name": "raiseDispute",
      "outputs": [],
      "stateMutability": "nonpayable",
      "type": "function"
    },
    {
      "inputs": [
        {
          "internalType": "uint256",
          "name": "escrowId",
          "type": "uint256"
        }
      ],
      "name": "refundBuyer",
      "outputs": [],
      "stateMutability": "nonpayable",
      "type": "function"
    },
    {
      "inputs": [
        {
          "internalType": "uint256",
          "name": "escrowId",
          "type": "uint256"
        }
      ],
      "name": "releaseFunds",
      "outputs": [],
      "stateMutability": "nonpayable",
      "type": "function"
    },
    {
      "inputs": [
        {
          "internalType": "bytes32",
          "name": "role",
          "type": "bytes32"
        },
        {
          "internalType": "address",
          "name": "account",
          "type": "address"
        }
      ],
      "name": "renounceRole",
      "outputs": [],
      "stateMutability": "nonpayable",
      "type": "function"
    },
    {
      "inputs": [
        {
          "internalType": "uint256",
          "name": "escrowId",
          "type": "uint256"
        },
        {
          "internalType": "bool",
          "name": "favorBuyer",
          "type": "bool"
        },
        {
          "internalType": "string",
          "name": "resolution",
          "type": "string"
        }
      ],
      "name": "resolveDispute",
      "outputs": [],
      "stateMutability": "nonpayable",
      "type": "function"
    },
    {
      "inputs": [
        {
          "internalType": "bytes32",
          "name": "role",
          "type": "bytes32"
        },
        {
          "internalType": "address",
          "name": "account",
          "type": "address"
        }
      ],
      "name": "revokeRole",
      "outputs": [],
      "stateMutability": "nonpayable",
      "type": "function"
    },
    {
      "inputs": [
        {
          "internalType": "uint256",
          "name": "fee",
          "type": "uint256"
        }
      ],
      "name": "setPlatformFee",
      "outputs": [],
      "stateMutability": "nonpayable",
      "type": "function"
    },
    {
      "inputs": [
        {
          "internalType": "bytes4",
          "name": "interfaceId",
          "type": "bytes4"
        }
      ],
      "name": "supportsInterface",
      "outputs": [
        {
          "internalType": "bool",
          "name": "",
          "type": "bool"
        }
      ],
      "stateMutability": "view",
      "type": "function"
    },
    {
      "inputs": [],
      "name": "unpause",
      "outputs": [],
      "stateMutability": "nonpayable",
      "type": "function"
    },
    {
      "inputs": [
        {
          "internalType": "address",
          "name": "token",
          "type": "address"
        },
        {
          "internalType": "bool",
          "name": "whitelisted",
          "type": "bool"
        }
      ],
      "name": "whitelistToken",
      "outputs": [],
      "stateMutability": "nonpayable",
      "type": "function"
    },
    {
      "inputs": [
        {
          "internalType": "address",
          "name": "",
          "type": "address"
        }
      ],
      "name": "whitelistedTokens",
      "outputs": [
        {
          "internalType": "bool",
          "name": "",
          "type": "bool"
        }
      ],
      "stateMutability": "view",
      "type": "function"
    }
  ],
  "bytecode": "0x60806040523480156200001157600080fd5b5060405162004245380380620042458339810160408190526200003491620001f9565b60016000819055805460ff191690556001600160a01b0382166200009f5760405162461bcd60e51b815260206004820152601760248201527f496e76616c696420706c6174666f726d2077616c6c657400000000000000000060448201526064015b60405180910390fd5b6101f4811115620000f35760405162461bcd60e51b815260206004820152601560248201527f506c6174666f726d2066656520746f6f20686967680000000000000000000000604482015260640162000096565b600880546001600160a01b0319166001600160a01b03841617905560078190556200012060003362000154565b6200014c7fa49807205ce4d355092ef5a8a18f56e8913cf4a201fbe287825b095693c217753362000154565b505062000235565b60008281526002602090815260408083206001600160a01b038516845290915290205460ff16620001f55760008281526002602090815260408083206001600160a01b03851684529091529020805460ff19166001179055620001b43390565b6001600160a01b0316816001600160a01b0316837f2f8788117e7eff1d82e926ec794901d17c78024a50270940304540a733656f0d60405160405180910390a45b5050565b600080604083850312156200020d57600080fd5b82516001600160a01b03811681146200022557600080fd5b6020939093015192949293505050565b61400080620002456000396000f3fe608060405234801561001057600080fd5b50600436106102065760003560e01c80634d68282f1161011a578063a217fddf116100ad578063d547741f1161007c578063d547741f14610463578063daf9c21014610476578063e018243614610499578063e1f1c4a7146104ac578063fa2af9da146104b557600080fd5b8063a217fddf1461042c578063b138821e14610434578063b49b0cb314610447578063cdd78cfc1461045a57600080fd5b80637d19e596116100e95780637d19e596146103de5780638456cb59146103fe57806391d14854146104065780639d5e05511461041957600080fd5b80634d68282f146103985780635aef573c146103ab5780635c975abb146103be57806375b238fc146103c957600080fd5b806336568abe1161019d5780633b76594d1161016c5780633b76594d1461033b5780633f4ba83a1461034e5780633f4dbda21461035657806346b6cfd31461035e5780634d104adf1461037157600080fd5b806336568abe146102ec57806339292763146102ff5780633998a681146103125780633a49995b1461031b57600080fd5b806322459e18116101d957806322459e181461026e578063248a9ca3146102a35780632840662d146102c65780632f2ff15d146102d957600080fd5b806301ffc9a71461020b57806308b88af1146102335780630ffb1d8b1461024657806312e8e2c31461025b575b600080fd5b61021e61021936600461353e565b6104e0565b60405190151581526020015b60405180910390f35b61021e610241366004613568565b610517565b6102596102543660046135a6565b610950565b005b610259610269366004613568565b610994565b6102957fcab5a0bfe0b79d2c4b1c2e02599fa044d115b7511f9659307cb427695096770981565b60405190815260200161022a565b6102956102b1366004613568565b60009081526002602052604090206001015490565b6102596102d4366004613626565b6109f3565b6102596102e7366004613682565b610bcd565b6102596102fa366004613682565b610bf7565b61025961030d366004613568565b610c75565b6102956101f481565b61032e610329366004613568565b610d1a565b60405161022a91906136d8565b610259610349366004613568565b610d58565b610259610f04565b600654610295565b61025961036c366004613568565b610f24565b6102957fbb08418a67729a078f87bbc8d02a770929bb68f5bfdf134ae2ead6ed38e2f4ae81565b6102596103a6366004613568565b6110d6565b6102596103b93660046136e6565b6112ef565b60015460ff1661021e565b610295600080516020613fab83398151915281565b6103f16103ec366004613568565b6119fc565b60405161022a91906137ed565b610259611dae565b61021e610414366004613682565b611dce565b61029561042736600461394f565b611df9565b610295600081565b610259610442366004613568565b61238b565b61025961045536600461398b565b612631565b61029560075481565b610259610471366004613682565b61265d565b61021e6104843660046139b5565b60056020526000908152604090205460ff1681565b6102596104a7366004613568565b612682565b61029561271081565b6008546104c8906001600160a01b031681565b6040516001600160a01b03909116815260200161022a565b60006001600160e01b03198216637965db0b60e01b148061051157506301ffc9a760e01b6001600160e01b03198316145b92915050565b60008160065481106105445760405162461bcd60e51b815260040161053b906139d0565b60405180910390fd5b60008381526003602081815260408084208151610240810183528154815260018201546001600160a01b039081169482019490945260028201548416928101929092529283015482166060820152600483015482166080820152600583015490911660a082015260068083015460c0830152600783015460e08301526008830154610100830152600983015491929161012084019160ff909116908111156105ee576105ee6136ae565b60068111156105ff576105ff6136ae565b8152602001600a82016040518060a0016040529081600082018054610623906139fb565b80601f016020809104026020016040519081016040528092919081815260200182805461064f906139fb565b801561069c5780601f106106715761010080835404028352916020019161069c565b820191906000526020600020905b81548152906001019060200180831161067f57829003601f168201915b505050505081526020016001820180546106b5906139fb565b80601f01602080910402602001604051908101604052809291908181526020018280546106e1906139fb565b801561072e5780601f106107035761010080835404028352916020019161072e565b820191906000526020600020905b81548152906001019060200180831161071157829003601f168201915b5050505050815260200160028201548152602001600382018054610751906139fb565b80601f016020809104026020016040519081016040528092919081815260200182805461077d906139fb565b80156107ca5780601f1061079f576101008083540402835291602001916107ca565b820191906000526020600020905b8154815290600101906020018083116107ad57829003601f168201915b50505091835250506004919091015460ff9081161515602092830152918352600f84015490830152601083015460408301526011830154606083015260128301548082161515608084015261010081048216151560a084015262010000900416151560c082015260138201805460e090920191610846906139fb565b80601f0160208091040260200160405190810160405280929190818152602001828054610872906139fb565b80156108bf5780601f10610894576101008083540402835291602001916108bf565b820191906000526020600020905b8154815290600101906020018083116108a257829003601f168201915b5050505050815250509050600260068111156108dd576108dd6136ae565b81610120015160068111156108f4576108f46136ae565b1480156109075750806101400151608001515b80156109155750806101c001515b80156109235750806101e001515b8015610946575060608101516001600160a01b0316158061094657508061020001515b9250505b50919050565b600080516020613fab83398151915261096881612bb8565b506001600160a01b03919091166000908152600560205260409020805460ff1916911515919091179055565b600080516020613fab8339815191526109ac81612bb8565b6101f48211156109ed5760405162461bcd60e51b815260206004820152600c60248201526b08ccaca40e8dede40d0d2ced60a31b604482015260640161053b565b50600755565b6109fb612bc2565b610a03612c1b565b836006548110610a255760405162461bcd60e51b815260040161053b906139d0565b8460048060008381526003602052604090206009015460ff166006811115610a4f57610a4f6136ae565b14610a6c5760405162461bcd60e51b815260040161053b90613a2f565b600087815260036020526040902060048101546001600160a01b0316331480610aa85750610aa8600080516020613fab83398151915233611dce565b610afe5760405162461bcd60e51b815260206004820152602160248201527f4f6e6c792061726269746572206f722061646d696e2063616e207265736f6c766044820152606560f81b606482015260840161053b565b600088815260046020819052604090912060038101805433610100026001600160a81b0319909116176001179055908101610b3a878983613ad8565b508715610b4f57610b4a89612c63565b610b74565b60098201805460ff191660021790556012820180546201010162ffffff199091161790555b336001600160a01b0316897f7b71d2e00379bd165b2750d54298da2414376699827edca2bce2a096c491d2e98989604051610bb0929190613b93565b60405180910390a35050505050610bc76001600055565b50505050565b600082815260026020526040902060010154610be881612bb8565b610bf28383612da8565b505050565b6001600160a01b0381163314610c675760405162461bcd60e51b815260206004820152602f60248201527f416363657373436f6e74726f6c3a2063616e206f6e6c792072656e6f756e636560448201526e103937b632b9903337b91039b2b63360891b606482015260840161053b565b610c718282612e2e565b5050565b610c7d612bc2565b610c85612c1b565b806006548110610ca75760405162461bcd60e51b815260040161053b906139d0565b610cbf600080516020613fab83398151915233611dce565b610d035760405162461bcd60e51b815260206004820152601560248201527413db9b1e4818591b5a5b8818d85b881c99599d5b99605a1b604482015260640161053b565b610d0c82612c63565b50610d176001600055565b50565b6000816006548110610d3e5760405162461bcd60e51b815260040161053b906139d0565b505060009081526003602052604090206009015460ff1690565b610d60612bc2565b610d68612c1b565b806006548110610d8a5760405162461bcd60e51b815260040161053b906139d0565b8160008060008381526003602052604090206009015460ff166006811115610db457610db46136ae565b14610dd15760405162461bcd60e51b815260040161053b90613a2f565b600084815260036020526040902060018101546001600160a01b03163314610e345760405162461bcd60e51b815260206004820152601660248201527513db9b1e48189d5e595c8818d85b8819195c1bdcda5d60521b604482015260640161053b565b8060100154421115610e885760405162461bcd60e51b815260206004820152601760248201527f4465706f73697420646561646c696e6520706173736564000000000000000000604482015260640161053b565b60068101546005820154610eab916001600160a01b039091169033903090612e95565b60098101805460ff191660011790556006810154604051908152339086907fe030e47e27825a2ad1b19e4cf2e70bfbfb3124af275c7727a82b114ba7b29a859060200160405180910390a350505050610d176001600055565b600080516020613fab833981519152610f1c81612bb8565b610d17612f00565b610f2c612bc2565b610f34612c1b565b806006548110610f565760405162461bcd60e51b815260040161053b906139d0565b8160018060008381526003602052604090206009015460ff166006811115610f8057610f806136ae565b14610f9d5760405162461bcd60e51b815260040161053b90613a2f565b6000848152600360208190526040909120908101546001600160a01b0316331480610fdb5750610fdb600080516020613fab83398151915233611dce565b6110275760405162461bcd60e51b815260206004820152601e60248201527f4f6e6c79206167656e74206f722061646d696e2063616e207665726966790000604482015260640161053b565b806011015442111561107b5760405162461bcd60e51b815260206004820152601c60248201527f566572696669636174696f6e20646561646c696e652070617373656400000000604482015260640161053b565b60098101805460ff19908116600217909155600e820180549091166001179055604051339086907f0229702661bd522f80cf22e71a80e376c2ac20ea2ecd8e680f1a8e8285738a1c90600090a350505050610d176001600055565b6110de612bc2565b6110e6612c1b565b8060065481106111085760405162461bcd60e51b815260040161053b906139d0565b8160028060008381526003602052604090206009015460ff166006811115611132576111326136ae565b1461114f5760405162461bcd60e51b815260040161053b90613a2f565b61115884610517565b6111a45760405162461bcd60e51b815260206004820152601a60248201527f52656c6561736520636f6e646974696f6e73206e6f74206d6574000000000000604482015260640161053b565b600084815260036020526040812060088101546006820154919291612710916111cc91613bd8565b6111d69190613bef565b90506000826007015490506000818385600601546111f49190613c11565b6111fe9190613c11565b60098501805460ff1916600317905560058501549091506001600160a01b0316831561123e5760085461123e906001600160a01b03838116911686612f52565b60008311801561125a575060038501546001600160a01b031615155b1561127b57600385015461127b906001600160a01b03838116911685612f52565b6002850154611297906001600160a01b03838116911684612f52565b60028501546040518381526001600160a01b03909116908a907f6e3c6096795c8298a218b2cfb8bde42726ff7c9a3d27b4d3ba41ab7f74feb5fb9060200160405180910390a35050505050505050610d176001600055565b6112f7612bc2565b6112ff612c1b565b8260065481106113215760405162461bcd60e51b815260040161053b906139d0565b60008481526003602081815260408084208151610240810183528154815260018201546001600160a01b039081169482019490945260028201548416928101929092529283015482166060820152600483015482166080820152600583015490911660a082015260068083015460c0830152600783015460e0830152600883015461010083015260098301548894939161012084019160ff16908111156113ca576113ca6136ae565b60068111156113db576113db6136ae565b8152602001600a82016040518060a00160405290816000820180546113ff906139fb565b80601f016020809104026020016040519081016040528092919081815260200182805461142b906139fb565b80156114785780601f1061144d57610100808354040283529160200191611478565b820191906000526020600020905b81548152906001019060200180831161145b57829003601f168201915b50505050508152602001600182018054611491906139fb565b80601f01602080910402602001604051908101604052809291908181526020018280546114bd906139fb565b801561150a5780601f106114df5761010080835404028352916020019161150a565b820191906000526020600020905b8154815290600101906020018083116114ed57829003601f168201915b505050505081526020016002820154815260200160038201805461152d906139fb565b80601f0160208091040260200160405190810160405280929190818152602001828054611559906139fb565b80156115a65780601f1061157b576101008083540402835291602001916115a6565b820191906000526020600020905b81548152906001019060200180831161158957829003601f168201915b50505091835250506004919091015460ff9081161515602092830152918352600f84015490830152601083015460408301526011830154606083015260128301548082161515608084015261010081048216151560a084015262010000900416151560c082015260138201805460e090920191611622906139fb565b80601f016020809104026020016040519081016040528092919081815260200182805461164e906139fb565b801561169b5780601f106116705761010080835404028352916020019161169b565b820191906000526020600020905b81548152906001019060200180831161167e57829003601f168201915b505050505081525050905080602001516001600160a01b0316336001600160a01b031614806116df575080604001516001600160a01b0316336001600160a01b0316145b806116ff575080606001516001600160a01b0316336001600160a01b0316145b8061171f575080608001516001600160a01b0316336001600160a01b0316145b8061173d575061173d600080516020613fab83398151915233611dce565b6117895760405162461bcd60e51b815260206004820152601e60248201527f4e6f7420617574686f72697a656420666f72207468697320657363726f770000604482015260640161053b565b60008681526003602052604090206001600982015460ff1660068111156117b2576117b26136ae565b14806117d657506002600982015460ff1660068111156117d4576117d46136ae565b145b6118225760405162461bcd60e51b815260206004820152601f60248201527f43616e6e6f74206469737075746520696e2063757272656e7420737461746500604482015260640161053b565b8461186f5760405162461bcd60e51b815260206004820152601760248201527f4469737075746520726561736f6e207265717569726564000000000000000000604482015260640161053b565b60098101805460ff191660041790556013810161188d868883613ad8565b506040518060c00160405280336001600160a01b0316815260200187878080601f0160208091040260200160405190810160405280939291908181526020018383808284376000920182905250938552505042602080850191909152604080850184905260608501849052805180830182528481526080909501949094528b83526004815292909120835181546001600160a01b0319166001600160a01b03909116178155918301516001830191506119469082613c24565b5060408201516002820155606082015160038201805460808501516001600160a01b031661010002610100600160a81b0319931515939093166001600160a81b03199091161791909117905560a082015160048201906119a69082613c24565b50905050336001600160a01b0316877f1b84372106d77c6daea0dda35bbc0229d10a83f58ec89909288492519368234188886040516119e6929190613b93565b60405180910390a350505050610bf26001600055565b611a04613479565b816006548110611a265760405162461bcd60e51b815260040161053b906139d0565b6000838152600360208181526040928390208351610240810185528154815260018201546001600160a01b03908116938201939093526002820154831694810194909452918201548116606084015260048201548116608084015260058201541660a083015260068082015460c0840152600782015460e08401526008820154610100840152600982015461012084019160ff90911690811115611acc57611acc6136ae565b6006811115611add57611add6136ae565b8152602001600a82016040518060a0016040529081600082018054611b01906139fb565b80601f0160208091040260200160405190810160405280929190818152602001828054611b2d906139fb565b8015611b7a5780601f10611b4f57610100808354040283529160200191611b7a565b820191906000526020600020905b815481529060010190602001808311611b5d57829003601f168201915b50505050508152602001600182018054611b93906139fb565b80601f0160208091040260200160405190810160405280929190818152602001828054611bbf906139fb565b8015611c0c5780601f10611be157610100808354040283529160200191611c0c565b820191906000526020600020905b815481529060010190602001808311611bef57829003601f168201915b5050505050815260200160028201548152602001600382018054611c2f906139fb565b80601f0160208091040260200160405190810160405280929190818152602001828054611c5b906139fb565b8015611ca85780601f10611c7d57610100808354040283529160200191611ca8565b820191906000526020600020905b815481529060010190602001808311611c8b57829003601f168201915b50505091835250506004919091015460ff9081161515602092830152918352600f84015490830152601083015460408301526011830154606083015260128301548082161515608084015261010081048216151560a084015262010000900416151560c082015260138201805460e090920191611d24906139fb565b80601f0160208091040260200160405190810160405280929190818152602001828054611d50906139fb565b8015611d9d5780601f10611d7257610100808354040283529160200191611d9d565b820191906000526020600020905b815481529060010190602001808311611d8057829003601f168201915b505050505081525050915050919050565b600080516020613fab833981519152611dc681612bb8565b610d17612f82565b60009182526002602090815260408084206001600160a01b0393909316845291905290205460ff1690565b6000611e03612bc2565b611e0b612c1b565b6000611e1a60208401846139b5565b6001600160a01b031603611e685760405162461bcd60e51b8152602060048201526015602482015274496e76616c6964206275796572206164647265737360581b604482015260640161053b565b6000611e7a60408401602085016139b5565b6001600160a01b031603611ec95760405162461bcd60e51b8152602060048201526016602482015275496e76616c69642073656c6c6572206164647265737360501b604482015260640161053b565b611ed960408301602084016139b5565b6001600160a01b0316611eef60208401846139b5565b6001600160a01b031603611f505760405162461bcd60e51b815260206004820152602260248201527f427579657220616e642073656c6c6572206d75737420626520646966666572656044820152611b9d60f21b606482015260840161053b565b6000611f6260a08401608085016139b5565b6001600160a01b031603611fb05760405162461bcd60e51b8152602060048201526015602482015274496e76616c696420746f6b656e206164647265737360581b604482015260640161053b565b60056000611fc460a08501608086016139b5565b6001600160a01b0316815260208101919091526040016000205460ff166120255760405162461bcd60e51b8152602060048201526015602482015274151bdad95b881b9bdd081dda1a5d195b1a5cdd1959605a1b604482015260640161053b565b60008260a00135116120795760405162461bcd60e51b815260206004820152601f60248201527f4465706f73697420616d6f756e74206d75737420626520706f73697469766500604482015260640161053b565b42826101200135116120cd5760405162461bcd60e51b815260206004820152601860248201527f496e76616c6964206465706f73697420646561646c696e650000000000000000604482015260640161053b565b816101200135826101400135116121265760405162461bcd60e51b815260206004820152601d60248201527f496e76616c696420766572696669636174696f6e20646561646c696e65000000604482015260640161053b565b6000612136610100840184613cde565b6121409080613cfe565b9050116121865760405162461bcd60e51b8152602060048201526014602482015273141c9bdc195c9d1e481251081c995c5d5a5c995960621b604482015260640161053b565b600680546000918261219783613d45565b9091555060008181526003602090815260409091208281559192506121be908501856139b5565b6001820180546001600160a01b0319166001600160a01b03929092169190911790556121f060408501602086016139b5565b6002820180546001600160a01b0319166001600160a01b039290921691909117905561222260608501604086016139b5565b6003820180546001600160a01b0319166001600160a01b039290921691909117905561225460808501606086016139b5565b6004820180546001600160a01b0319166001600160a01b039290921691909117905561228660a08501608086016139b5565b6005820180546001600160a01b0319166001600160a01b039290921691909117905560a0840135600682015560c0840135600782015560e0840135600882015560098101805460ff191690556122e0610100850185613cde565b600a82016122ee8282613d6b565b505042600f8201556101208401356010820155610140840135601182015561231c60408501602086016139b5565b6001600160a01b031661233260208601866139b5565b6001600160a01b0316837f9405ad0a6208539879349284d71265479b1623846f70303da1f9890d6e8c10a78760a0013560405161237191815260200190565b60405180910390a45090506123866001600055565b919050565b612393612bc2565b61239b612c1b565b8060065481106123bd5760405162461bcd60e51b815260040161053b906139d0565b8160028060008381526003602052604090206009015460ff1660068111156123e7576123e76136ae565b146124045760405162461bcd60e51b815260040161053b90613a2f565b600084815260036020526040812060018101549091906001600160a01b0316330361248e57601282015460ff16156124775760405162461bcd60e51b8152602060048201526016602482015275109d5e595c88185b1c9958591e48185c1c1c9bdd995960521b604482015260640161053b565b5060128101805460ff1916600117905560006125e0565b60028201546001600160a01b03163303612515576012820154610100900460ff16156124fc5760405162461bcd60e51b815260206004820152601760248201527f53656c6c657220616c726561647920617070726f766564000000000000000000604482015260640161053b565b5060128101805461ff00191661010017905560016125e0565b60038201546001600160a01b0316330361259857601282015462010000900460ff161561257d5760405162461bcd60e51b81526020600482015260166024820152751059d95b9d08185b1c9958591e48185c1c1c9bdd995960521b604482015260640161053b565b5060128101805462ff000019166201000017905560026125e0565b60405162461bcd60e51b815260206004820152601960248201527f4e6f7420617574686f72697a656420746f20617070726f766500000000000000604482015260640161053b565b336001600160a01b0316867f8c76bb4d0d0276699b16a2e9464b50cad045b0200b9bc632ae3a5d57077fa2648360405161261a9190613e99565b60405180910390a35050505050610d176001600055565b600080516020613fab83398151915261264981612bb8565b610bf26001600160a01b0384163384612f52565b60008281526002602052604090206001015461267881612bb8565b610bf28383612e2e565b61268a612bc2565b612692612c1b565b8060065481106126b45760405162461bcd60e51b815260040161053b906139d0565b8160008060008381526003602052604090206009015460ff1660068111156126de576126de6136ae565b146126fb5760405162461bcd60e51b815260040161053b90613a2f565b60008481526003602081815260408084208151610240810183528154815260018201546001600160a01b039081169482019490945260028201548416928101929092529283015482166060820152600483015482166080820152600583015490911660a082015260068083015460c0830152600783015460e0830152600883015461010083015260098301548894939161012084019160ff16908111156127a4576127a46136ae565b60068111156127b5576127b56136ae565b8152602001600a82016040518060a00160405290816000820180546127d9906139fb565b80601f0160208091040260200160405190810160405280929190818152602001828054612805906139fb565b80156128525780601f1061282757610100808354040283529160200191612852565b820191906000526020600020905b81548152906001019060200180831161283557829003601f168201915b5050505050815260200160018201805461286b906139fb565b80601f0160208091040260200160405190810160405280929190818152602001828054612897906139fb565b80156128e45780601f106128b9576101008083540402835291602001916128e4565b820191906000526020600020905b8154815290600101906020018083116128c757829003601f168201915b5050505050815260200160028201548152602001600382018054612907906139fb565b80601f0160208091040260200160405190810160405280929190818152602001828054612933906139fb565b80156129805780601f1061295557610100808354040283529160200191612980565b820191906000526020600020905b81548152906001019060200180831161296357829003601f168201915b50505091835250506004919091015460ff9081161515602092830152918352600f84015490830152601083015460408301526011830154606083015260128301548082161515608084015261010081048216151560a084015262010000900416151560c082015260138201805460e0909201916129fc906139fb565b80601f0160208091040260200160405190810160405280929190818152602001828054612a28906139fb565b8015612a755780601f10612a4a57610100808354040283529160200191612a75565b820191906000526020600020905b815481529060010190602001808311612a5857829003601f168201915b505050505081525050905080602001516001600160a01b0316336001600160a01b03161480612ab9575080604001516001600160a01b0316336001600160a01b0316145b80612ad9575080606001516001600160a01b0316336001600160a01b0316145b80612af9575080608001516001600160a01b0316336001600160a01b0316145b80612b175750612b17600080516020613fab83398151915233611dce565b612b635760405162461bcd60e51b815260206004820152601e60248201527f4e6f7420617574686f72697a656420666f72207468697320657363726f770000604482015260640161053b565b600086815260036020526040808220600901805460ff1916600617905551339188917f6f44c80719cb2f74bdbd68b7af10147acb9b52e2675ad02f9c87f098599599389190a35050505050610d176001600055565b610d178133612fbd565b600260005403612c145760405162461bcd60e51b815260206004820152601f60248201527f5265656e7472616e637947756172643a207265656e7472616e742063616c6c00604482015260640161053b565b6002600055565b60015460ff1615612c615760405162461bcd60e51b815260206004820152601060248201526f14185d5cd8589b194e881c185d5cd95960821b604482015260640161053b565b565b60008181526003602052604090206001600982015460ff166006811115612c8c57612c8c6136ae565b1480612cb057506004600982015460ff166006811115612cae57612cae6136ae565b145b80612cd357506002600982015460ff166006811115612cd157612cd16136ae565b145b612d1f5760405162461bcd60e51b815260206004820152601e60248201527f43616e6e6f7420726566756e6420696e2063757272656e742073746174650000604482015260640161053b565b60098101805460ff191660059081179091556001820154600683015491830154612d59926001600160a01b03918216929190911690612f52565b600181015460068201546040519081526001600160a01b039091169083907f80b577b4fc190ab86d963549e29f496afd079c5d81a2480d61217d4b5060a28c9060200160405180910390a35050565b612db28282611dce565b610c715760008281526002602090815260408083206001600160a01b03851684529091529020805460ff19166001179055612dea3390565b6001600160a01b0316816001600160a01b0316837f2f8788117e7eff1d82e926ec794901d17c78024a50270940304540a733656f0d60405160405180910390a45050565b612e388282611dce565b15610c715760008281526002602090815260408083206001600160a01b0385168085529252808320805460ff1916905551339285917ff6391f5c32d9c69d2a47ea670b442974b53935d1edc7fd64eb21e047a839171b9190a45050565b6040516001600160a01b0380851660248301528316604482015260648101829052610bc79085906323b872dd60e01b906084015b60408051601f198184030181529190526020810180516001600160e01b03166001600160e01b031990931692909217909152613016565b612f086130eb565b6001805460ff191690557f5db9ee0a495bf2e6ff9c91a7834c1ba4fdd244a5e8aa4e537bd38aeae4b073aa335b6040516001600160a01b03909116815260200160405180910390a1565b6040516001600160a01b038316602482015260448101829052610bf290849063a9059cbb60e01b90606401612ec9565b612f8a612c1b565b6001805460ff1916811790557f62e78cea01bee320cd4e420270b5ea74000d11b0c9f74754ebdbfc544b05a25833612f35565b612fc78282611dce565b610c7157612fd481613134565b612fdf836020613146565b604051602001612ff0929190613eb3565b60408051601f198184030181529082905262461bcd60e51b825261053b91600401613f28565b600061306b826040518060400160405280602081526020017f5361666545524332303a206c6f772d6c6576656c2063616c6c206661696c6564815250856001600160a01b03166132e99092919063ffffffff16565b905080516000148061308c57508080602001905181019061308c9190613f3b565b610bf25760405162461bcd60e51b815260206004820152602a60248201527f5361666545524332303a204552433230206f7065726174696f6e20646964206e6044820152691bdd081cdd58d8d9595960b21b606482015260840161053b565b60015460ff16612c615760405162461bcd60e51b815260206004820152601460248201527314185d5cd8589b194e881b9bdd081c185d5cd95960621b604482015260640161053b565b60606105116001600160a01b03831660145b60606000613155836002613bd8565b613160906002613f58565b67ffffffffffffffff81111561317857613178613a5d565b6040519080825280601f01601f1916602001820160405280156131a2576020820181803683370190505b509050600360fc1b816000815181106131bd576131bd613f6b565b60200101906001600160f81b031916908160001a905350600f60fb1b816001815181106131ec576131ec613f6b565b60200101906001600160f81b031916908160001a9053506000613210846002613bd8565b61321b906001613f58565b90505b6001811115613293576f181899199a1a9b1b9c1cb0b131b232b360811b85600f166010811061324f5761324f613f6b565b1a60f81b82828151811061326557613265613f6b565b60200101906001600160f81b031916908160001a90535060049490941c9361328c81613f81565b905061321e565b5083156132e25760405162461bcd60e51b815260206004820181905260248201527f537472696e67733a20686578206c656e67746820696e73756666696369656e74604482015260640161053b565b9392505050565b60606132f88484600085613300565b949350505050565b6060824710156133615760405162461bcd60e51b815260206004820152602660248201527f416464726573733a20696e73756666696369656e742062616c616e636520666f6044820152651c8818d85b1b60d21b606482015260840161053b565b600080866001600160a01b0316858760405161337d9190613f98565b60006040518083038185875af1925050503d80600081146133ba576040519150601f19603f3d011682016040523d82523d6000602084013e6133bf565b606091505b50915091506133d0878383876133db565b979650505050505050565b6060831561344a578251600003613443576001600160a01b0385163b6134435760405162461bcd60e51b815260206004820152601d60248201527f416464726573733a2063616c6c20746f206e6f6e2d636f6e7472616374000000604482015260640161053b565b50816132f8565b6132f8838381511561345f5781518083602001fd5b8060405162461bcd60e51b815260040161053b9190613f28565b6040805161024081018252600080825260208201819052918101829052606081018290526080810182905260a0810182905260c0810182905260e0810182905261010081018290529061012082019081526020016135016040518060a00160405280606081526020016060815260200160008152602001606081526020016000151581525090565b8152602001600081526020016000815260200160008152602001600015158152602001600015158152602001600015158152602001606081525090565b60006020828403121561355057600080fd5b81356001600160e01b0319811681146132e257600080fd5b60006020828403121561357a57600080fd5b5035919050565b80356001600160a01b038116811461238657600080fd5b8015158114610d1757600080fd5b600080604083850312156135b957600080fd5b6135c283613581565b915060208301356135d281613598565b809150509250929050565b60008083601f8401126135ef57600080fd5b50813567ffffffffffffffff81111561360757600080fd5b60208301915083602082850101111561361f57600080fd5b9250929050565b6000806000806060858703121561363c57600080fd5b84359350602085013561364e81613598565b9250604085013567ffffffffffffffff81111561366a57600080fd5b613676878288016135dd565b95989497509550505050565b6000806040838503121561369557600080fd5b823591506136a560208401613581565b90509250929050565b634e487b7160e01b600052602160045260246000fd5b600781106136d4576136d46136ae565b9052565b6020810161051182846136c4565b6000806000604084860312156136fb57600080fd5b83359250602084013567ffffffffffffffff81111561371957600080fd5b613725868287016135dd565b9497909650939450505050565b60005b8381101561374d578181015183820152602001613735565b50506000910152565b6000815180845261376e816020860160208601613732565b601f01601f19169290920160200192915050565b6000815160a0845261379760a0850182613756565b9050602083015184820360208601526137b08282613756565b91505060408301516040850152606083015184820360608601526137d48282613756565b9150506080830151151560808501528091505092915050565b60208152815160208201526000602083015161381460408401826001600160a01b03169052565b5060408301516001600160a01b03811660608401525060608301516001600160a01b03811660808401525060808301516001600160a01b03811660a08401525060a08301516001600160a01b03811660c08401525060c083015160e08381019190915283015161010080840191909152830151610120808401919091528301516101406138a3818501836136c4565b8085015191505061024061016081818601526138c3610260860184613782565b90860151610180868101919091528601516101a0808701919091528601516101c0808701919091528601519092506101e06139018187018315159052565b86015190506102006139168682018315159052565b860151905061022061392b8682018315159052565b860151858403601f19018387015290506139458382613756565b9695505050505050565b60006020828403121561396157600080fd5b813567ffffffffffffffff81111561397857600080fd5b820161016081850312156132e257600080fd5b6000806040838503121561399e57600080fd5b6139a783613581565b946020939093013593505050565b6000602082840312156139c757600080fd5b6132e282613581565b602080825260119082015270125b9d985b1a5908195cd8dc9bddc81251607a1b604082015260600190565b600181811c90821680613a0f57607f821691505b60208210810361094a57634e487b7160e01b600052602260045260246000fd5b602080825260149082015273496e76616c696420657363726f7720737461746560601b604082015260600190565b634e487b7160e01b600052604160045260246000fd5b601f821115610bf2576000816000526020600020601f850160051c81016020861015613a9c5750805b601f850160051c820191505b81811015613abb57828155600101613aa8565b505050505050565b600019600383901b1c191660019190911b1790565b67ffffffffffffffff831115613af057613af0613a5d565b613b0483613afe83546139fb565b83613a73565b6000601f841160018114613b325760008515613b205750838201355b613b2a8682613ac3565b845550613b8c565b600083815260209020601f19861690835b82811015613b635786850135825560209485019460019092019101613b43565b5086821015613b805760001960f88860031b161c19848701351681555b505060018560011b0183555b5050505050565b60208152816020820152818360408301376000818301604090810191909152601f909201601f19160101919050565b634e487b7160e01b600052601160045260246000fd5b808202811582820484141761051157610511613bc2565b600082613c0c57634e487b7160e01b600052601260045260246000fd5b500490565b8181038181111561051157610511613bc2565b815167ffffffffffffffff811115613c3e57613c3e613a5d565b613c5281613c4c84546139fb565b84613a73565b602080601f831160018114613c815760008415613c6f5750858301515b613c798582613ac3565b865550613abb565b600085815260208120601f198616915b82811015613cb057888601518255948401946001909101908401613c91565b5085821015613cce5787850151600019600388901b60f8161c191681555b5050505050600190811b01905550565b60008235609e19833603018112613cf457600080fd5b9190910192915050565b6000808335601e19843603018112613d1557600080fd5b83018035915067ffffffffffffffff821115613d3057600080fd5b60200191503681900382131561361f57600080fd5b600060018201613d5757613d57613bc2565b5060010190565b6000813561051181613598565b613d758283613cfe565b67ffffffffffffffff811115613d8d57613d8d613a5d565b613da181613d9b85546139fb565b85613a73565b6000601f821160018114613dcf5760008315613dbd5750838201355b613dc78482613ac3565b865550613e29565b600085815260209020601f19841690835b82811015613e005786850135825560209485019460019092019101613de0565b5084821015613e1d5760001960f88660031b161c19848701351681555b505060018360011b0185555b50505050613e3a6020830183613cfe565b613e48818360018601613ad8565b505060408201356002820155613e616060830183613cfe565b613e6f818360038601613ad8565b5050610c71613e8060808401613d5e565b6004830160ff1981541660ff8315151681178255505050565b6020810160058310613ead57613ead6136ae565b91905290565b7f416363657373436f6e74726f6c3a206163636f756e7420000000000000000000815260008351613eeb816017850160208801613732565b7001034b99036b4b9b9b4b733903937b6329607d1b6017918401918201528351613f1c816028840160208801613732565b01602801949350505050565b6020815260006132e26020830184613756565b600060208284031215613f4d57600080fd5b81516132e281613598565b8082018082111561051157610511613bc2565b634e487b7160e01b600052603260045260246000fd5b600081613f9057613f90613bc2565b506000190190565b60008251613cf481846020870161373256fea49807205ce4d355092ef5a8a18f56e8913cf4a201fbe287825b095693c21775a26469706673582212207c6eec570021faf8cb8c4280108a2dcdb18849bee57d01f420a53f18abf047cc64736f6c63430008160033",
  "linkReferences": {},
  "deployedLinkReferences": {}
}