{"contracts/PropertyEscrow.sol":{"PropertyEscrow":{"abi":[{"inputs":[{"internalType":"address","name":"_platformWallet","type":"address"},{"internalType":"uint256","name":"_platformFeePercentage","type":"uint256"}],"stateMutability":"nonpayable","type":"constructor"},{"inputs":[],"name":"AccessControlBadConfirmation","type":"error"},{"inputs":[{"internalType":"address","name":"account","type":"address"},{"internalType":"bytes32","name":"neededRole","type":"bytes32"}],"name":"AccessControlUnauthorizedAccount","type":"error"},{"inputs":[],"name":"EnforcedPause","type":"error"},{"inputs":[],"name":"ExpectedPause","type":"error"},{"inputs":[],"name":"ReentrancyGuardReentrantCall","type":"error"},{"inputs":[{"internalType":"address","name":"token","type":"address"}],"name":"SafeERC20FailedOperation","type":"error"},{"anonymous":false,"inputs":[{"indexed":true,"internalType":"uint256","name":"escrowId","type":"uint256"},{"indexed":true,"internalType":"address","name":"approver","type":"address"},{"indexed":false,"internalType":"enum EscrowStructs.Role","name":"role","type":"uint8"}],"name":"ApprovalGiven","type":"event"},{"anonymous":false,"inputs":[{"indexed":true,"internalType":"uint256","name":"escrowId","type":"uint256"},{"indexed":true,"internalType":"address","name":"initiator","type":"address"},{"indexed":false,"internalType":"string","name":"reason","type":"string"}],"name":"DisputeRaised","type":"event"},{"anonymous":false,"inputs":[{"indexed":true,"internalType":"uint256","name":"escrowId","type":"uint256"},{"indexed":true,"internalType":"address","name":"resolver","type":"address"},{"indexed":false,"internalType":"string","name":"resolution","type":"string"}],"name":"DisputeResolved","type":"event"},{"anonymous":false,"inputs":[{"indexed":true,"internalType":"uint256","name":"escrowId","type":"uint256"},{"indexed":true,"internalType":"address","name":"canceller","type":"address"}],"name":"EscrowCancelled","type":"event"},{"anonymous":false,"inputs":[{"indexed":true,"internalType":"uint256","name":"escrowId","type":"uint256"},{"indexed":true,"internalType":"address","name":"buyer","type":"address"},{"indexed":true,"internalType":"address","name":"seller","type":"address"},{"indexed":false,"internalType":"uint256","name":"depositAmount","type":"uint256"}],"name":"EscrowCreated","type":"event"},{"anonymous":false,"inputs":[{"indexed":true,"internalType":"uint256","name":"escrowId","type":"uint256"},{"indexed":true,"internalType":"address","name":"buyer","type":"address"},{"indexed":false,"internalType":"uint256","name":"amount","type":"uint256"}],"name":"FundsDeposited","type":"event"},{"anonymous":false,"inputs":[{"indexed":true,"internalType":"uint256","name":"escrowId","type":"uint256"},{"indexed":true,"internalType":"address","name":"buyer","type":"address"},{"indexed":false,"internalType":"uint256","name":"amount","type":"uint256"}],"name":"FundsRefunded","type":"event"},{"anonymous":false,"inputs":[{"indexed":true,"internalType":"uint256","name":"escrowId","type":"uint256"},{"indexed":true,"internalType":"address","name":"seller","type":"address"},{"indexed":false,"internalType":"uint256","name":"amount","type":"uint256"}],"name":"FundsReleased","type":"event"},{"anonymous":false,"inputs":[{"indexed":false,"internalType":"address","name":"account","type":"address"}],"name":"Paused","type":"event"},{"anonymous":false,"inputs":[{"indexed":true,"internalType":"bytes32","name":"role","type":"bytes32"},{"indexed":true,"internalType":"bytes32","name":"previousAdminRole","type":"bytes32"},{"indexed":true,"internalType":"bytes32","name":"newAdminRole","type":"bytes32"}],"name":"RoleAdminChanged","type":"event"},{"anonymous":false,"inputs":[{"indexed":true,"internalType":"bytes32","name":"role","type":"bytes32"},{"indexed":true,"internalType":"address","name":"account","type":"address"},{"indexed":true,"internalType":"address","name":"sender","type":"address"}],"name":"RoleGranted","type":"event"},{"anonymous":false,"inputs":[{"indexed":true,"internalType":"bytes32","name":"role","type":"bytes32"},{"indexed":true,"internalType":"address","name":"account","type":"address"},{"indexed":true,"internalType":"address","name":"sender","type":"address"}],"name":"RoleRevoked","type":"event"},{"anonymous":false,"inputs":[{"indexed":false,"internalType":"address","name":"account","type":"address"}],"name":"Unpaused","type":"event"},{"anonymous":false,"inputs":[{"indexed":true,"internalType":"uint256","name":"escrowId","type":"uint256"},{"indexed":true,"internalType":"address","name":"verifier","type":"address"}],"name":"VerificationCompleted","type":"event"},{"inputs":[],"name":"ADMIN_ROLE","outputs":[{"internalType":"bytes32","name":"","type":"bytes32"}],"stateMutability":"view","type":"function"},{"inputs":[],"name":"AGENT_ROLE","outputs":[{"internalType":"bytes32","name":"","type":"bytes32"}],"stateMutability":"view","type":"function"},{"inputs":[],"name":"ARBITER_ROLE","outputs":[{"internalType":"bytes32","name":"","type":"bytes32"}],"stateMutability":"view","type":"function"},{"inputs":[],"name":"BASIS_POINTS","outputs":[{"internalType":"uint256","name":"","type":"uint256"}],"stateMutability":"view","type":"function"},{"inputs":[],"name":"DEFAULT_ADMIN_ROLE","outputs":[{"internalType":"bytes32","name":"","type":"bytes32"}],"stateMutability":"view","type":"function"},{"inputs":[],"name":"MAX_PLATFORM_FEE","outputs":[{"internalType":"uint256","name":"","type":"uint256"}],"stateMutability":"view","type":"function"},{"inputs":[{"internalType":"uint256","name":"escrowId","type":"uint256"}],"name":"canReleaseFunds","outputs":[{"internalType":"bool","name":"","type":"bool"}],"stateMutability":"view","type":"function"},{"inputs":[{"internalType":"uint256","name":"escrowId","type":"uint256"}],"name":"cancelEscrow","outputs":[],"stateMutability":"nonpayable","type":"function"},{"inputs":[{"internalType":"uint256","name":"escrowId","type":"uint256"}],"name":"completeVerification","outputs":[],"stateMutability":"nonpayable","type":"function"},{"inputs":[{"components":[{"internalType":"address","name":"buyer","type":"address"},{"internalType":"address","name":"seller","type":"address"},{"internalType":"address","name":"agent","type":"address"},{"internalType":"address","name":"arbiter","type":"address"},{"internalType":"address","name":"tokenAddress","type":"address"},{"internalType":"uint256","name":"depositAmount","type":"uint256"},{"internalType":"uint256","name":"agentFee","type":"uint256"},{"internalType":"uint256","name":"platformFee","type":"uint256"},{"components":[{"internalType":"string","name":"propertyId","type":"string"},{"internalType":"string","name":"description","type":"string"},{"internalType":"uint256","name":"salePrice","type":"uint256"},{"internalType":"string","name":"documentHash","type":"string"},{"internalType":"bool","name":"verified","type":"bool"}],"internalType":"struct EscrowStructs.Property","name":"property","type":"tuple"},{"internalType":"uint256","name":"depositDeadline","type":"uint256"},{"internalType":"uint256","name":"verificationDeadline","type":"uint256"}],"internalType":"struct EscrowStructs.CreateEscrowParams","name":"params","type":"tuple"}],"name":"createEscrow","outputs":[{"internalType":"uint256","name":"","type":"uint256"}],"stateMutability":"nonpayable","type":"function"},{"inputs":[{"internalType":"uint256","name":"escrowId","type":"uint256"}],"name":"depositFunds","outputs":[],"stateMutability":"nonpayable","type":"function"},{"inputs":[{"internalType":"address","name":"token","type":"address"},{"internalType":"uint256","name":"amount","type":"uint256"}],"name":"emergencyTokenRecovery","outputs":[],"stateMutability":"nonpayable","type":"function"},{"inputs":[{"internalType":"uint256","name":"escrowId","type":"uint256"}],"name":"getEscrow","outputs":[{"components":[{"internalType":"uint256","name":"id","type":"uint256"},{"internalType":"address","name":"buyer","type":"address"},{"internalType":"address","name":"seller","type":"address"},{"internalType":"address","name":"agent","type":"address"},{"internalType":"address","name":"arbiter","type":"address"},{"internalType":"address","name":"tokenAddress","type":"address"},{"internalType":"uint256","name":"depositAmount","type":"uint256"},{"internalType":"uint256","name":"agentFee","type":"uint256"},{"internalType":"uint256","name":"platformFee","type":"uint256"},{"internalType":"enum EscrowStructs.EscrowState","name":"state","type":"uint8"},{"components":[{"internalType":"string","name":"propertyId","type":"string"},{"internalType":"string","name":"description","type":"string"},{"internalType":"uint256","name":"salePrice","type":"uint256"},{"internalType":"string","name":"documentHash","type":"string"},{"internalType":"bool","name":"verified","type":"bool"}],"internalType":"struct EscrowStructs.Property","name":"property","type":"tuple"},{"internalType":"uint256","name":"createdAt","type":"uint256"},{"internalType":"uint256","name":"depositDeadline","type":"uint256"},{"internalType":"uint256","name":"verificationDeadline","type":"uint256"},{"internalType":"bool","name":"buyerApproval","type":"bool"},{"internalType":"bool","name":"sellerApproval","type":"bool"},{"internalType":"bool","name":"agentApproval","type":"bool"},{"internalType":"string","name":"disputeReason","type":"string"}],"internalType":"struct EscrowStructs.Escrow","name":"","type":"tuple"}],"stateMutability":"view","type":"function"},{"inputs":[{"internalType":"uint256","name":"escrowId","type":"uint256"}],"name":"getEscrowState","outputs":[{"internalType":"enum EscrowStructs.EscrowState","name":"","type":"uint8"}],"stateMutability":"view","type":"function"},{"inputs":[{"internalType":"bytes32","name":"role","type":"bytes32"}],"name":"getRoleAdmin","outputs":[{"internalType":"bytes32","name":"","type":"bytes32"}],"stateMutability":"view","type":"function"},{"inputs":[],"name":"getTotalEscrows","outputs":[{"internalType":"uint256","name":"","type":"uint256"}],"stateMutability":"view","type":"function"},{"inputs":[{"internalType":"uint256","name":"escrowId","type":"uint256"}],"name":"giveApproval","outputs":[],"stateMutability":"nonpayable","type":"function"},{"inputs":[{"internalType":"bytes32","name":"role","type":"bytes32"},{"internalType":"address","name":"account","type":"address"}],"name":"grantRole","outputs":[],"stateMutability":"nonpayable","type":"function"},{"inputs":[{"internalType":"bytes32","name":"role","type":"bytes32"},{"internalType":"address","name":"account","type":"address"}],"name":"hasRole","outputs":[{"internalType":"bool","name":"","type":"bool"}],"stateMutability":"view","type":"function"},{"inputs":[],"name":"pause","outputs":[],"stateMutability":"nonpayable","type":"function"},{"inputs":[],"name":"paused","outputs":[{"internalType":"bool","name":"","type":"bool"}],"stateMutability":"view","type":"function"},{"inputs":[],"name":"platformFeePercentage","outputs":[{"internalType":"uint256","name":"","type":"uint256"}],"stateMutability":"view","type":"function"},{"inputs":[],"name":"platformWallet","outputs":[{"internalType":"address","name":"","type":"address"}],"stateMutability":"view","type":"function"},{"inputs":[{"internalType":"uint256","name":"escrowId","type":"uint256"},{"internalType":"string","name":"reason","type":"string"}],"name":"raiseDispute","outputs":[],"stateMutability":"nonpayable","type":"function"},{"inputs":[{"internalType":"uint256","name":"escrowId","type":"uint256"}],"name":"refundBuyer","outputs":[],"stateMutability":"nonpayable","type":"function"},{"inputs":[{"internalType":"uint256","name":"escrowId","type":"uint256"}],"name":"releaseFunds","outputs":[],"stateMutability":"nonpayable","type":"function"},{"inputs":[{"internalType":"bytes32","name":"role","type":"bytes32"},{"internalType":"address","name":"callerConfirmation","type":"address"}],"name":"renounceRole","outputs":[],"stateMutability":"nonpayable","type":"function"},{"inputs":[{"internalType":"uint256","name":"escrowId","type":"uint256"},{"internalType":"bool","name":"favorBuyer","type":"bool"},{"internalType":"string","name":"resolution","type":"string"}],"name":"resolveDispute","outputs":[],"stateMutability":"nonpayable","type":"function"},{"inputs":[{"internalType":"bytes32","name":"role","type":"bytes32"},{"internalType":"address","name":"account","type":"address"}],"name":"revokeRole","outputs":[],"stateMutability":"nonpayable","type":"function"},{"inputs":[{"internalType":"uint256","name":"fee","type":"uint256"}],"name":"setPlatformFee","outputs":[],"stateMutability":"nonpayable","type":"function"},{"inputs":[{"internalType":"bytes4","name":"interfaceId","type":"bytes4"}],"name":"supportsInterface","outputs":[{"internalType":"bool","name":"","type":"bool"}],"stateMutability":"view","type":"function"},{"inputs":[],"name":"unpause","outputs":[],"stateMutability":"nonpayable","type":"function"},{"inputs":[{"internalType":"address","name":"token","type":"address"},{"internalType":"bool","name":"whitelisted","type":"bool"}],"name":"whitelistToken","outputs":[],"stateMutability":"nonpayable","type":"function"},{"inputs":[{"internalType":"address","name":"","type":"address"}],"name":"whitelistedTokens","outputs":[{"internalType":"bool","name":"","type":"bool"}],"stateMutability":"view","type":"function"}],"evm":{"bytecode":{"linkReferences":{},"object":"60806040523480156200001157600080fd5b5060405162003cd938038062003cd98339810160408190526200003491620001ff565b60016000556001600160a01b038216620000955760405162461bcd60e51b815260206004820152601760248201527f496e76616c696420706c6174666f726d2077616c6c657400000000000000000060448201526064015b60405180910390fd5b6101f4811115620000e95760405162461bcd60e51b815260206004820152601560248201527f506c6174666f726d2066656520746f6f2068696768000000000000000000000060448201526064016200008c565b600880546001600160a01b0319166001600160a01b0384161790556007819055620001166000336200014c565b50620001437fa49807205ce4d355092ef5a8a18f56e8913cf4a201fbe287825b095693c21775336200014c565b5050506200023b565b60008281526002602090815260408083206001600160a01b038516845290915281205460ff16620001f55760008381526002602090815260408083206001600160a01b03861684529091529020805460ff19166001179055620001ac3390565b6001600160a01b0316826001600160a01b0316847f2f8788117e7eff1d82e926ec794901d17c78024a50270940304540a733656f0d60405160405180910390a4506001620001f9565b5060005b92915050565b600080604083850312156200021357600080fd5b82516001600160a01b03811681146200022b57600080fd5b6020939093015192949293505050565b613a8e806200024b6000396000f3fe608060405234801561001057600080fd5b50600436106102065760003560e01c80634d68282f1161011a578063a217fddf116100ad578063d547741f1161007c578063d547741f14610463578063daf9c21014610476578063e018243614610499578063e1f1c4a7146104ac578063fa2af9da146104b557600080fd5b8063a217fddf1461042c578063b138821e14610434578063b49b0cb314610447578063cdd78cfc1461045a57600080fd5b80637d19e596116100e95780637d19e596146103de5780638456cb59146103fe57806391d14854146104065780639d5e05511461041957600080fd5b80634d68282f146103985780635aef573c146103ab5780635c975abb146103be57806375b238fc146103c957600080fd5b806336568abe1161019d5780633b76594d1161016c5780633b76594d1461033b5780633f4ba83a1461034e5780633f4dbda21461035657806346b6cfd31461035e5780634d104adf1461037157600080fd5b806336568abe146102ec57806339292763146102ff5780633998a681146103125780633a49995b1461031b57600080fd5b806322459e18116101d957806322459e181461026e578063248a9ca3146102a35780632840662d146102c65780632f2ff15d146102d957600080fd5b806301ffc9a71461020b57806308b88af1146102335780630ffb1d8b1461024657806312e8e2c31461025b575b600080fd5b61021e6102193660046130c8565b6104e0565b60405190151581526020015b60405180910390f35b61021e6102413660046130f9565b610517565b610259610254366004613137565b610950565b005b6102596102693660046130f9565b610994565b6102957fcab5a0bfe0b79d2c4b1c2e02599fa044d115b7511f9659307cb427695096770981565b60405190815260200161022a565b6102956102b13660046130f9565b60009081526002602052604090206001015490565b6102596102d43660046131b7565b6109f3565b6102596102e7366004613213565b610bcd565b6102596102fa366004613213565b610bf2565b61025961030d3660046130f9565b610c2a565b6102956101f481565b61032e6103293660046130f9565b610ccf565b60405161022a9190613269565b6102596103493660046130f9565b610d0d565b610259610eb9565b600654610295565b61025961036c3660046130f9565b610ed9565b6102957fbb08418a67729a078f87bbc8d02a770929bb68f5bfdf134ae2ead6ed38e2f4ae81565b6102596103a63660046130f9565b61108b565b6102596103b9366004613277565b6112a4565b60015460ff1661021e565b610295600080516020613a3983398151915281565b6103f16103ec3660046130f9565b6119b1565b60405161022a9190613374565b610259611d63565b61021e610414366004613213565b611d83565b6102956104273660046134d6565b611dae565b610295600081565b6102596104423660046130f9565b612340565b610259610455366004613512565b6125e6565b61029560075481565b610259610471366004613213565b612612565b61021e61048436600461353c565b60056020526000908152604090205460ff1681565b6102596104a73660046130f9565b612637565b61029561271081565b6008546104c8906001600160a01b031681565b6040516001600160a01b03909116815260200161022a565b60006001600160e01b03198216637965db0b60e01b148061051157506301ffc9a760e01b6001600160e01b03198316145b92915050565b60008160065481106105445760405162461bcd60e51b815260040161053b90613557565b60405180910390fd5b60008381526003602081815260408084208151610240810183528154815260018201546001600160a01b039081169482019490945260028201548416928101929092529283015482166060820152600483015482166080820152600583015490911660a082015260068083015460c0830152600783015460e08301526008830154610100830152600983015491929161012084019160ff909116908111156105ee576105ee61323f565b60068111156105ff576105ff61323f565b8152602001600a82016040518060a001604052908160008201805461062390613582565b80601f016020809104026020016040519081016040528092919081815260200182805461064f90613582565b801561069c5780601f106106715761010080835404028352916020019161069c565b820191906000526020600020905b81548152906001019060200180831161067f57829003601f168201915b505050505081526020016001820180546106b590613582565b80601f01602080910402602001604051908101604052809291908181526020018280546106e190613582565b801561072e5780601f106107035761010080835404028352916020019161072e565b820191906000526020600020905b81548152906001019060200180831161071157829003601f168201915b505050505081526020016002820154815260200160038201805461075190613582565b80601f016020809104026020016040519081016040528092919081815260200182805461077d90613582565b80156107ca5780601f1061079f576101008083540402835291602001916107ca565b820191906000526020600020905b8154815290600101906020018083116107ad57829003601f168201915b50505091835250506004919091015460ff9081161515602092830152918352600f84015490830152601083015460408301526011830154606083015260128301548082161515608084015261010081048216151560a084015262010000900416151560c082015260138201805460e09092019161084690613582565b80601f016020809104026020016040519081016040528092919081815260200182805461087290613582565b80156108bf5780601f10610894576101008083540402835291602001916108bf565b820191906000526020600020905b8154815290600101906020018083116108a257829003601f168201915b5050505050815250509050600260068111156108dd576108dd61323f565b81610120015160068111156108f4576108f461323f565b1480156109075750806101400151608001515b80156109155750806101c001515b80156109235750806101e001515b8015610946575060608101516001600160a01b0316158061094657508061020001515b9250505b50919050565b600080516020613a3983398151915261096881612b6d565b506001600160a01b03919091166000908152600560205260409020805460ff1916911515919091179055565b600080516020613a398339815191526109ac81612b6d565b6101f48211156109ed5760405162461bcd60e51b815260206004820152600c60248201526b08ccaca40e8dede40d0d2ced60a31b604482015260640161053b565b50600755565b6109fb612b77565b610a03612ba1565b836006548110610a255760405162461bcd60e51b815260040161053b90613557565b8460048060008381526003602052604090206009015460ff166006811115610a4f57610a4f61323f565b14610a6c5760405162461bcd60e51b815260040161053b906135b6565b600087815260036020526040902060048101546001600160a01b0316331480610aa85750610aa8600080516020613a3983398151915233611d83565b610afe5760405162461bcd60e51b815260206004820152602160248201527f4f6e6c792061726269746572206f722061646d696e2063616e207265736f6c766044820152606560f81b606482015260840161053b565b600088815260046020819052604090912060038101805433610100026001600160a81b0319909116176001179055908101610b3a87898361365d565b508715610b4f57610b4a89612bc7565b610b74565b60098201805460ff191660021790556012820180546201010162ffffff199091161790555b336001600160a01b0316897f7b71d2e00379bd165b2750d54298da2414376699827edca2bce2a096c491d2e98989604051610bb0929190613718565b60405180910390a35050505050610bc76001600055565b50505050565b600082815260026020526040902060010154610be881612b6d565b610bc78383612d0c565b6001600160a01b0381163314610c1b5760405163334bd91960e11b815260040160405180910390fd5b610c258282612da0565b505050565b610c32612b77565b610c3a612ba1565b806006548110610c5c5760405162461bcd60e51b815260040161053b90613557565b610c74600080516020613a3983398151915233611d83565b610cb85760405162461bcd60e51b815260206004820152601560248201527413db9b1e4818591b5a5b8818d85b881c99599d5b99605a1b604482015260640161053b565b610cc182612bc7565b50610ccc6001600055565b50565b6000816006548110610cf35760405162461bcd60e51b815260040161053b90613557565b505060009081526003602052604090206009015460ff1690565b610d15612b77565b610d1d612ba1565b806006548110610d3f5760405162461bcd60e51b815260040161053b90613557565b8160008060008381526003602052604090206009015460ff166006811115610d6957610d6961323f565b14610d865760405162461bcd60e51b815260040161053b906135b6565b600084815260036020526040902060018101546001600160a01b03163314610de95760405162461bcd60e51b815260206004820152601660248201527513db9b1e48189d5e595c8818d85b8819195c1bdcda5d60521b604482015260640161053b565b8060100154421115610e3d5760405162461bcd60e51b815260206004820152601760248201527f4465706f73697420646561646c696e6520706173736564000000000000000000604482015260640161053b565b60068101546005820154610e60916001600160a01b039091169033903090612e0d565b60098101805460ff191660011790556006810154604051908152339086907fe030e47e27825a2ad1b19e4cf2e70bfbfb3124af275c7727a82b114ba7b29a859060200160405180910390a350505050610ccc6001600055565b600080516020613a39833981519152610ed181612b6d565b610ccc612e74565b610ee1612b77565b610ee9612ba1565b806006548110610f0b5760405162461bcd60e51b815260040161053b90613557565b8160018060008381526003602052604090206009015460ff166006811115610f3557610f3561323f565b14610f525760405162461bcd60e51b815260040161053b906135b6565b6000848152600360208190526040909120908101546001600160a01b0316331480610f905750610f90600080516020613a3983398151915233611d83565b610fdc5760405162461bcd60e51b815260206004820152601e60248201527f4f6e6c79206167656e74206f722061646d696e2063616e207665726966790000604482015260640161053b565b80601101544211156110305760405162461bcd60e51b815260206004820152601c60248201527f566572696669636174696f6e20646561646c696e652070617373656400000000604482015260640161053b565b60098101805460ff19908116600217909155600e820180549091166001179055604051339086907f0229702661bd522f80cf22e71a80e376c2ac20ea2ecd8e680f1a8e8285738a1c90600090a350505050610ccc6001600055565b611093612b77565b61109b612ba1565b8060065481106110bd5760405162461bcd60e51b815260040161053b90613557565b8160028060008381526003602052604090206009015460ff1660068111156110e7576110e761323f565b146111045760405162461bcd60e51b815260040161053b906135b6565b61110d84610517565b6111595760405162461bcd60e51b815260206004820152601a60248201527f52656c6561736520636f6e646974696f6e73206e6f74206d6574000000000000604482015260640161053b565b600084815260036020526040812060088101546006820154919291612710916111819161375d565b61118b9190613774565b90506000826007015490506000818385600601546111a99190613796565b6111b39190613796565b60098501805460ff1916600317905560058501549091506001600160a01b031683156111f3576008546111f3906001600160a01b03838116911686612ec6565b60008311801561120f575060038501546001600160a01b031615155b15611230576003850154611230906001600160a01b03838116911685612ec6565b600285015461124c906001600160a01b03838116911684612ec6565b60028501546040518381526001600160a01b03909116908a907f6e3c6096795c8298a218b2cfb8bde42726ff7c9a3d27b4d3ba41ab7f74feb5fb9060200160405180910390a35050505050505050610ccc6001600055565b6112ac612b77565b6112b4612ba1565b8260065481106112d65760405162461bcd60e51b815260040161053b90613557565b60008481526003602081815260408084208151610240810183528154815260018201546001600160a01b039081169482019490945260028201548416928101929092529283015482166060820152600483015482166080820152600583015490911660a082015260068083015460c0830152600783015460e0830152600883015461010083015260098301548894939161012084019160ff169081111561137f5761137f61323f565b60068111156113905761139061323f565b8152602001600a82016040518060a00160405290816000820180546113b490613582565b80601f01602080910402602001604051908101604052809291908181526020018280546113e090613582565b801561142d5780601f106114025761010080835404028352916020019161142d565b820191906000526020600020905b81548152906001019060200180831161141057829003601f168201915b5050505050815260200160018201805461144690613582565b80601f016020809104026020016040519081016040528092919081815260200182805461147290613582565b80156114bf5780601f10611494576101008083540402835291602001916114bf565b820191906000526020600020905b8154815290600101906020018083116114a257829003601f168201915b50505050508152602001600282015481526020016003820180546114e290613582565b80601f016020809104026020016040519081016040528092919081815260200182805461150e90613582565b801561155b5780601f106115305761010080835404028352916020019161155b565b820191906000526020600020905b81548152906001019060200180831161153e57829003601f168201915b50505091835250506004919091015460ff9081161515602092830152918352600f84015490830152601083015460408301526011830154606083015260128301548082161515608084015261010081048216151560a084015262010000900416151560c082015260138201805460e0909201916115d790613582565b80601f016020809104026020016040519081016040528092919081815260200182805461160390613582565b80156116505780601f1061162557610100808354040283529160200191611650565b820191906000526020600020905b81548152906001019060200180831161163357829003601f168201915b505050505081525050905080602001516001600160a01b0316336001600160a01b03161480611694575080604001516001600160a01b0316336001600160a01b0316145b806116b4575080606001516001600160a01b0316336001600160a01b0316145b806116d4575080608001516001600160a01b0316336001600160a01b0316145b806116f257506116f2600080516020613a3983398151915233611d83565b61173e5760405162461bcd60e51b815260206004820152601e60248201527f4e6f7420617574686f72697a656420666f72207468697320657363726f770000604482015260640161053b565b60008681526003602052604090206001600982015460ff1660068111156117675761176761323f565b148061178b57506002600982015460ff1660068111156117895761178961323f565b145b6117d75760405162461bcd60e51b815260206004820152601f60248201527f43616e6e6f74206469737075746520696e2063757272656e7420737461746500604482015260640161053b565b846118245760405162461bcd60e51b815260206004820152601760248201527f4469737075746520726561736f6e207265717569726564000000000000000000604482015260640161053b565b60098101805460ff191660041790556013810161184286888361365d565b506040518060c00160405280336001600160a01b0316815260200187878080601f0160208091040260200160405190810160405280939291908181526020018383808284376000920182905250938552505042602080850191909152604080850184905260608501849052805180830182528481526080909501949094528b83526004815292909120835181546001600160a01b0319166001600160a01b03909116178155918301516001830191506118fb90826137a9565b5060408201516002820155606082015160038201805460808501516001600160a01b031661010002610100600160a81b0319931515939093166001600160a81b03199091161791909117905560a0820151600482019061195b90826137a9565b50905050336001600160a01b0316877f1b84372106d77c6daea0dda35bbc0229d10a83f58ec899092884925193682341888860405161199b929190613718565b60405180910390a350505050610c256001600055565b6119b9613003565b8160065481106119db5760405162461bcd60e51b815260040161053b90613557565b6000838152600360208181526040928390208351610240810185528154815260018201546001600160a01b03908116938201939093526002820154831694810194909452918201548116606084015260048201548116608084015260058201541660a083015260068082015460c0840152600782015460e08401526008820154610100840152600982015461012084019160ff90911690811115611a8157611a8161323f565b6006811115611a9257611a9261323f565b8152602001600a82016040518060a0016040529081600082018054611ab690613582565b80601f0160208091040260200160405190810160405280929190818152602001828054611ae290613582565b8015611b2f5780601f10611b0457610100808354040283529160200191611b2f565b820191906000526020600020905b815481529060010190602001808311611b1257829003601f168201915b50505050508152602001600182018054611b4890613582565b80601f0160208091040260200160405190810160405280929190818152602001828054611b7490613582565b8015611bc15780601f10611b9657610100808354040283529160200191611bc1565b820191906000526020600020905b815481529060010190602001808311611ba457829003601f168201915b5050505050815260200160028201548152602001600382018054611be490613582565b80601f0160208091040260200160405190810160405280929190818152602001828054611c1090613582565b8015611c5d5780601f10611c3257610100808354040283529160200191611c5d565b820191906000526020600020905b815481529060010190602001808311611c4057829003601f168201915b50505091835250506004919091015460ff9081161515602092830152918352600f84015490830152601083015460408301526011830154606083015260128301548082161515608084015261010081048216151560a084015262010000900416151560c082015260138201805460e090920191611cd990613582565b80601f0160208091040260200160405190810160405280929190818152602001828054611d0590613582565b8015611d525780601f10611d2757610100808354040283529160200191611d52565b820191906000526020600020905b815481529060010190602001808311611d3557829003601f168201915b505050505081525050915050919050565b600080516020613a39833981519152611d7b81612b6d565b610ccc612ef7565b60009182526002602090815260408084206001600160a01b0393909316845291905290205460ff1690565b6000611db8612b77565b611dc0612ba1565b6000611dcf602084018461353c565b6001600160a01b031603611e1d5760405162461bcd60e51b8152602060048201526015602482015274496e76616c6964206275796572206164647265737360581b604482015260640161053b565b6000611e2f604084016020850161353c565b6001600160a01b031603611e7e5760405162461bcd60e51b8152602060048201526016602482015275496e76616c69642073656c6c6572206164647265737360501b604482015260640161053b565b611e8e604083016020840161353c565b6001600160a01b0316611ea4602084018461353c565b6001600160a01b031603611f055760405162461bcd60e51b815260206004820152602260248201527f427579657220616e642073656c6c6572206d75737420626520646966666572656044820152611b9d60f21b606482015260840161053b565b6000611f1760a084016080850161353c565b6001600160a01b031603611f655760405162461bcd60e51b8152602060048201526015602482015274496e76616c696420746f6b656e206164647265737360581b604482015260640161053b565b60056000611f7960a085016080860161353c565b6001600160a01b0316815260208101919091526040016000205460ff16611fda5760405162461bcd60e51b8152602060048201526015602482015274151bdad95b881b9bdd081dda1a5d195b1a5cdd1959605a1b604482015260640161053b565b60008260a001351161202e5760405162461bcd60e51b815260206004820152601f60248201527f4465706f73697420616d6f756e74206d75737420626520706f73697469766500604482015260640161053b565b42826101200135116120825760405162461bcd60e51b815260206004820152601860248201527f496e76616c6964206465706f73697420646561646c696e650000000000000000604482015260640161053b565b816101200135826101400135116120db5760405162461bcd60e51b815260206004820152601d60248201527f496e76616c696420766572696669636174696f6e20646561646c696e65000000604482015260640161053b565b60006120eb610100840184613863565b6120f59080613883565b90501161213b5760405162461bcd60e51b8152602060048201526014602482015273141c9bdc195c9d1e481251081c995c5d5a5c995960621b604482015260640161053b565b600680546000918261214c836138ca565b9091555060008181526003602090815260409091208281559192506121739085018561353c565b6001820180546001600160a01b0319166001600160a01b03929092169190911790556121a5604085016020860161353c565b6002820180546001600160a01b0319166001600160a01b03929092169190911790556121d7606085016040860161353c565b6003820180546001600160a01b0319166001600160a01b0392909216919091179055612209608085016060860161353c565b6004820180546001600160a01b0319166001600160a01b039290921691909117905561223b60a085016080860161353c565b6005820180546001600160a01b0319166001600160a01b039290921691909117905560a0840135600682015560c0840135600782015560e0840135600882015560098101805460ff19169055612295610100850185613863565b600a82016122a382826138f0565b505042600f820155610120840135601082015561014084013560118201556122d1604085016020860161353c565b6001600160a01b03166122e7602086018661353c565b6001600160a01b0316837f9405ad0a6208539879349284d71265479b1623846f70303da1f9890d6e8c10a78760a0013560405161232691815260200190565b60405180910390a450905061233b6001600055565b919050565b612348612b77565b612350612ba1565b8060065481106123725760405162461bcd60e51b815260040161053b90613557565b8160028060008381526003602052604090206009015460ff16600681111561239c5761239c61323f565b146123b95760405162461bcd60e51b815260040161053b906135b6565b600084815260036020526040812060018101549091906001600160a01b0316330361244357601282015460ff161561242c5760405162461bcd60e51b8152602060048201526016602482015275109d5e595c88185b1c9958591e48185c1c1c9bdd995960521b604482015260640161053b565b5060128101805460ff191660011790556000612595565b60028201546001600160a01b031633036124ca576012820154610100900460ff16156124b15760405162461bcd60e51b815260206004820152601760248201527f53656c6c657220616c726561647920617070726f766564000000000000000000604482015260640161053b565b5060128101805461ff0019166101001790556001612595565b60038201546001600160a01b0316330361254d57601282015462010000900460ff16156125325760405162461bcd60e51b81526020600482015260166024820152751059d95b9d08185b1c9958591e48185c1c1c9bdd995960521b604482015260640161053b565b5060128101805462ff00001916620100001790556002612595565b60405162461bcd60e51b815260206004820152601960248201527f4e6f7420617574686f72697a656420746f20617070726f766500000000000000604482015260640161053b565b336001600160a01b0316867f8c76bb4d0d0276699b16a2e9464b50cad045b0200b9bc632ae3a5d57077fa264836040516125cf9190613a1e565b60405180910390a35050505050610ccc6001600055565b600080516020613a398339815191526125fe81612b6d565b610c256001600160a01b0384163384612ec6565b60008281526002602052604090206001015461262d81612b6d565b610bc78383612da0565b61263f612b77565b612647612ba1565b8060065481106126695760405162461bcd60e51b815260040161053b90613557565b8160008060008381526003602052604090206009015460ff1660068111156126935761269361323f565b146126b05760405162461bcd60e51b815260040161053b906135b6565b60008481526003602081815260408084208151610240810183528154815260018201546001600160a01b039081169482019490945260028201548416928101929092529283015482166060820152600483015482166080820152600583015490911660a082015260068083015460c0830152600783015460e0830152600883015461010083015260098301548894939161012084019160ff16908111156127595761275961323f565b600681111561276a5761276a61323f565b8152602001600a82016040518060a001604052908160008201805461278e90613582565b80601f01602080910402602001604051908101604052809291908181526020018280546127ba90613582565b80156128075780601f106127dc57610100808354040283529160200191612807565b820191906000526020600020905b8154815290600101906020018083116127ea57829003601f168201915b5050505050815260200160018201805461282090613582565b80601f016020809104026020016040519081016040528092919081815260200182805461284c90613582565b80156128995780601f1061286e57610100808354040283529160200191612899565b820191906000526020600020905b81548152906001019060200180831161287c57829003601f168201915b50505050508152602001600282015481526020016003820180546128bc90613582565b80601f01602080910402602001604051908101604052809291908181526020018280546128e890613582565b80156129355780601f1061290a57610100808354040283529160200191612935565b820191906000526020600020905b81548152906001019060200180831161291857829003601f168201915b50505091835250506004919091015460ff9081161515602092830152918352600f84015490830152601083015460408301526011830154606083015260128301548082161515608084015261010081048216151560a084015262010000900416151560c082015260138201805460e0909201916129b190613582565b80601f01602080910402602001604051908101604052809291908181526020018280546129dd90613582565b8015612a2a5780601f106129ff57610100808354040283529160200191612a2a565b820191906000526020600020905b815481529060010190602001808311612a0d57829003601f168201915b505050505081525050905080602001516001600160a01b0316336001600160a01b03161480612a6e575080604001516001600160a01b0316336001600160a01b0316145b80612a8e575080606001516001600160a01b0316336001600160a01b0316145b80612aae575080608001516001600160a01b0316336001600160a01b0316145b80612acc5750612acc600080516020613a3983398151915233611d83565b612b185760405162461bcd60e51b815260206004820152601e60248201527f4e6f7420617574686f72697a656420666f72207468697320657363726f770000604482015260640161053b565b600086815260036020526040808220600901805460ff1916600617905551339188917f6f44c80719cb2f74bdbd68b7af10147acb9b52e2675ad02f9c87f098599599389190a35050505050610ccc6001600055565b610ccc8133612f32565b600260005403612b9a57604051633ee5aeb560e01b815260040160405180910390fd5b6002600055565b60015460ff1615612bc55760405163d93c066560e01b815260040160405180910390fd5b565b60008181526003602052604090206001600982015460ff166006811115612bf057612bf061323f565b1480612c1457506004600982015460ff166006811115612c1257612c1261323f565b145b80612c3757506002600982015460ff166006811115612c3557612c3561323f565b145b612c835760405162461bcd60e51b815260206004820152601e60248201527f43616e6e6f7420726566756e6420696e2063757272656e742073746174650000604482015260640161053b565b60098101805460ff191660059081179091556001820154600683015491830154612cbd926001600160a01b03918216929190911690612ec6565b600181015460068201546040519081526001600160a01b039091169083907f80b577b4fc190ab86d963549e29f496afd079c5d81a2480d61217d4b5060a28c9060200160405180910390a35050565b6000612d188383611d83565b612d985760008381526002602090815260408083206001600160a01b03861684529091529020805460ff19166001179055612d503390565b6001600160a01b0316826001600160a01b0316847f2f8788117e7eff1d82e926ec794901d17c78024a50270940304540a733656f0d60405160405180910390a4506001610511565b506000610511565b6000612dac8383611d83565b15612d985760008381526002602090815260408083206001600160a01b0386168085529252808320805460ff1916905551339286917ff6391f5c32d9c69d2a47ea670b442974b53935d1edc7fd64eb21e047a839171b9190a4506001610511565b6040516001600160a01b038481166024830152838116604483015260648201839052610bc79186918216906323b872dd906084015b604051602081830303815290604052915060e01b6020820180516001600160e01b038381831617835250505050612f6f565b612e7c612fe0565b6001805460ff191690557f5db9ee0a495bf2e6ff9c91a7834c1ba4fdd244a5e8aa4e537bd38aeae4b073aa335b6040516001600160a01b03909116815260200160405180910390a1565b6040516001600160a01b03838116602483015260448201839052610c2591859182169063a9059cbb90606401612e42565b612eff612ba1565b6001805460ff1916811790557f62e78cea01bee320cd4e420270b5ea74000d11b0c9f74754ebdbfc544b05a25833612ea9565b612f3c8282611d83565b612f6b5760405163e2517d3f60e01b81526001600160a01b03821660048201526024810183905260440161053b565b5050565b600080602060008451602086016000885af180612f92576040513d6000823e3d81fd5b50506000513d91508115612faa578060011415612fb7565b6001600160a01b0384163b155b15610bc757604051635274afe760e01b81526001600160a01b038516600482015260240161053b565b60015460ff16612bc557604051638dfc202b60e01b815260040160405180910390fd5b6040805161024081018252600080825260208201819052918101829052606081018290526080810182905260a0810182905260c0810182905260e08101829052610100810182905290610120820190815260200161308b6040518060a00160405280606081526020016060815260200160008152602001606081526020016000151581525090565b8152602001600081526020016000815260200160008152602001600015158152602001600015158152602001600015158152602001606081525090565b6000602082840312156130da57600080fd5b81356001600160e01b0319811681146130f257600080fd5b9392505050565b60006020828403121561310b57600080fd5b5035919050565b80356001600160a01b038116811461233b57600080fd5b8015158114610ccc57600080fd5b6000806040838503121561314a57600080fd5b61315383613112565b9150602083013561316381613129565b809150509250929050565b60008083601f84011261318057600080fd5b50813567ffffffffffffffff81111561319857600080fd5b6020830191508360208285010111156131b057600080fd5b9250929050565b600080600080606085870312156131cd57600080fd5b8435935060208501356131df81613129565b9250604085013567ffffffffffffffff8111156131fb57600080fd5b6132078782880161316e565b95989497509550505050565b6000806040838503121561322657600080fd5b8235915061323660208401613112565b90509250929050565b634e487b7160e01b600052602160045260246000fd5b600781106132655761326561323f565b9052565b602081016105118284613255565b60008060006040848603121561328c57600080fd5b83359250602084013567ffffffffffffffff8111156132aa57600080fd5b6132b68682870161316e565b9497909650939450505050565b6000815180845260005b818110156132e9576020818501810151868301820152016132cd565b506000602082860101526020601f19601f83011685010191505092915050565b6000815160a0845261331e60a08501826132c3565b90506020830151848203602086015261333782826132c3565b915050604083015160408501526060830151848203606086015261335b82826132c3565b9150506080830151151560808501528091505092915050565b60208152815160208201526000602083015161339b60408401826001600160a01b03169052565b5060408301516001600160a01b03811660608401525060608301516001600160a01b03811660808401525060808301516001600160a01b03811660a08401525060a08301516001600160a01b03811660c08401525060c083015160e083810191909152830151610100808401919091528301516101208084019190915283015161014061342a81850183613255565b80850151915050610240610160818186015261344a610260860184613309565b90860151610180868101919091528601516101a0808701919091528601516101c0808701919091528601519092506101e06134888187018315159052565b860151905061020061349d8682018315159052565b86015190506102206134b28682018315159052565b860151858403601f19018387015290506134cc83826132c3565b9695505050505050565b6000602082840312156134e857600080fd5b813567ffffffffffffffff8111156134ff57600080fd5b820161016081850312156130f257600080fd5b6000806040838503121561352557600080fd5b61352e83613112565b946020939093013593505050565b60006020828403121561354e57600080fd5b6130f282613112565b602080825260119082015270125b9d985b1a5908195cd8dc9bddc81251607a1b604082015260600190565b600181811c9082168061359657607f821691505b60208210810361094a57634e487b7160e01b600052602260045260246000fd5b602080825260149082015273496e76616c696420657363726f7720737461746560601b604082015260600190565b634e487b7160e01b600052604160045260246000fd5b601f821115610c2557600081815260208120601f850160051c810160208610156136215750805b601f850160051c820191505b818110156136405782815560010161362d565b505050505050565b600019600383901b1c191660019190911b1790565b67ffffffffffffffff831115613675576136756135e4565b613689836136838354613582565b836135fa565b6000601f8411600181146136b757600085156136a55750838201355b6136af8682613648565b845550613711565b600083815260209020601f19861690835b828110156136e857868501358255602094850194600190920191016136c8565b50868210156137055760001960f88860031b161c19848701351681555b505060018560011b0183555b5050505050565b60208152816020820152818360408301376000818301604090810191909152601f909201601f19160101919050565b634e487b7160e01b600052601160045260246000fd5b808202811582820484141761051157610511613747565b60008261379157634e487b7160e01b600052601260045260246000fd5b500490565b8181038181111561051157610511613747565b815167ffffffffffffffff8111156137c3576137c36135e4565b6137d7816137d18454613582565b846135fa565b602080601f83116001811461380657600084156137f45750858301515b6137fe8582613648565b865550613640565b600085815260208120601f198616915b8281101561383557888601518255948401946001909101908401613816565b50858210156138535787850151600019600388901b60f8161c191681555b5050505050600190811b01905550565b60008235609e1983360301811261387957600080fd5b9190910192915050565b6000808335601e1984360301811261389a57600080fd5b83018035915067ffffffffffffffff8211156138b557600080fd5b6020019150368190038213156131b057600080fd5b6000600182016138dc576138dc613747565b5060010190565b6000813561051181613129565b6138fa8283613883565b67ffffffffffffffff811115613912576139126135e4565b613926816139208554613582565b856135fa565b6000601f82116001811461395457600083156139425750838201355b61394c8482613648565b8655506139ae565b600085815260209020601f19841690835b828110156139855786850135825560209485019460019092019101613965565b50848210156139a25760001960f88660031b161c19848701351681555b505060018360011b0185555b505050506139bf6020830183613883565b6139cd81836001860161365d565b5050604082013560028201556139e66060830183613883565b6139f481836003860161365d565b5050612f6b613a05608084016138e3565b6004830160ff1981541660ff8315151681178255505050565b6020810160058310613a3257613a3261323f565b9190529056fea49807205ce4d355092ef5a8a18f56e8913cf4a201fbe287825b095693c21775a2646970667358221220d5e57611dee5b25b31fef315ab14fb7cf38dc4ed1f85418263ac7a643d0b058364736f6c63430008140033","opcodes":"PUSH1 0x80 PUSH1 0x40 MSTORE CALLVALUE DUP1 ISZERO PUSH3 0x11 JUMPI PUSH1 0x0 DUP1 REVERT JUMPDEST POP PUSH1 0x40 MLOAD PUSH3 0x3CD9 CODESIZE SUB DUP1 PUSH3 0x3CD9 DUP4 CODECOPY DUP2 ADD PUSH1 0x40 DUP2 SWAP1 MSTORE PUSH3 0x34 SWAP2 PUSH3 0x1FF JUMP JUMPDEST PUSH1 0x1 PUSH1 0x0 SSTORE PUSH1 0x1 PUSH1 0x1 PUSH1 0xA0 SHL SUB DUP3 AND PUSH3 0x95 JUMPI PUSH1 0x40 MLOAD PUSH3 0x461BCD PUSH1 0xE5 SHL DUP2 MSTORE PUSH1 0x20 PUSH1 0x4 DUP3 ADD MSTORE PUSH1 0x17 PUSH1 0x24 DUP3 ADD MSTORE PUSH32 0x496E76616C696420706C6174666F726D2077616C6C6574000000000000000000 PUSH1 0x44 DUP3 ADD MSTORE PUSH1 0x64 ADD JUMPDEST PUSH1 0x40 MLOAD DUP1 SWAP2 SUB SWAP1 REVERT JUMPDEST PUSH2 0x1F4 DUP2 GT ISZERO PUSH3 0xE9 JUMPI PUSH1 0x40 MLOAD PUSH3 0x461BCD PUSH1 0xE5 SHL DUP2 MSTORE PUSH1 0x20 PUSH1 0x4 DUP3 ADD MSTORE PUSH1 0x15 PUSH1 0x24 DUP3 ADD MSTORE PUSH32 0x506C6174666F726D2066656520746F6F20686967680000000000000000000000 PUSH1 0x44 DUP3 ADD MSTORE PUSH1 0x64 ADD PUSH3 0x8C JUMP JUMPDEST PUSH1 0x8 DUP1 SLOAD PUSH1 0x1 PUSH1 0x1 PUSH1 0xA0 SHL SUB NOT AND PUSH1 0x1 PUSH1 0x1 PUSH1 0xA0 SHL SUB DUP5 AND OR SWAP1 SSTORE PUSH1 0x7 DUP2 SWAP1 SSTORE PUSH3 0x116 PUSH1 0x0 CALLER PUSH3 0x14C JUMP JUMPDEST POP PUSH3 0x143 PUSH32 0xA49807205CE4D355092EF5A8A18F56E8913CF4A201FBE287825B095693C21775 CALLER PUSH3 0x14C JUMP JUMPDEST POP POP POP PUSH3 0x23B JUMP JUMPDEST PUSH1 0x0 DUP3 DUP2 MSTORE PUSH1 0x2 PUSH1 0x20 SWAP1 DUP2 MSTORE PUSH1 0x40 DUP1 DUP4 KECCAK256 PUSH1 0x1 PUSH1 0x1 PUSH1 0xA0 SHL SUB DUP6 AND DUP5 MSTORE SWAP1 SWAP2 MSTORE DUP2 KECCAK256 SLOAD PUSH1 0xFF AND PUSH3 0x1F5 JUMPI PUSH1 0x0 DUP4 DUP2 MSTORE PUSH1 0x2 PUSH1 0x20 SWAP1 DUP2 MSTORE PUSH1 0x40 DUP1 DUP4 KECCAK256 PUSH1 0x1 PUSH1 0x1 PUSH1 0xA0 SHL SUB DUP7 AND DUP5 MSTORE SWAP1 SWAP2 MSTORE SWAP1 KECCAK256 DUP1 SLOAD PUSH1 0xFF NOT AND PUSH1 0x1 OR SWAP1 SSTORE PUSH3 0x1AC CALLER SWAP1 JUMP JUMPDEST PUSH1 0x1 PUSH1 0x1 PUSH1 0xA0 SHL SUB AND DUP3 PUSH1 0x1 PUSH1 0x1 PUSH1 0xA0 SHL SUB AND DUP5 PUSH32 0x2F8788117E7EFF1D82E926EC794901D17C78024A50270940304540A733656F0D PUSH1 0x40 MLOAD PUSH1 0x40 MLOAD DUP1 SWAP2 SUB SWAP1 LOG4 POP PUSH1 0x1 PUSH3 0x1F9 JUMP JUMPDEST POP PUSH1 0x0 JUMPDEST SWAP3 SWAP2 POP POP JUMP JUMPDEST PUSH1 0x0 DUP1 PUSH1 0x40 DUP4 DUP6 SUB SLT ISZERO PUSH3 0x213 JUMPI PUSH1 0x0 DUP1 REVERT JUMPDEST DUP3 MLOAD PUSH1 0x1 PUSH1 0x1 PUSH1 0xA0 SHL SUB DUP2 AND DUP2 EQ PUSH3 0x22B JUMPI PUSH1 0x0 DUP1 REVERT JUMPDEST PUSH1 0x20 SWAP4 SWAP1 SWAP4 ADD MLOAD SWAP3 SWAP5 SWAP3 SWAP4 POP POP POP JUMP JUMPDEST PUSH2 0x3A8E DUP1 PUSH3 0x24B PUSH1 0x0 CODECOPY PUSH1 0x0 RETURN INVALID PUSH1 0x80 PUSH1 0x40 MSTORE CALLVALUE DUP1 ISZERO PUSH2 0x10 JUMPI PUSH1 0x0 DUP1 REVERT JUMPDEST POP PUSH1 0x4 CALLDATASIZE LT PUSH2 0x206 JUMPI PUSH1 0x0 CALLDATALOAD PUSH1 0xE0 SHR DUP1 PUSH4 0x4D68282F GT PUSH2 0x11A JUMPI DUP1 PUSH4 0xA217FDDF GT PUSH2 0xAD JUMPI DUP1 PUSH4 0xD547741F GT PUSH2 0x7C JUMPI DUP1 PUSH4 0xD547741F EQ PUSH2 0x463 JUMPI DUP1 PUSH4 0xDAF9C210 EQ PUSH2 0x476 JUMPI DUP1 PUSH4 0xE0182436 EQ PUSH2 0x499 JUMPI DUP1 PUSH4 0xE1F1C4A7 EQ PUSH2 0x4AC JUMPI DUP1 PUSH4 0xFA2AF9DA EQ PUSH2 0x4B5 JUMPI PUSH1 0x0 DUP1 REVERT JUMPDEST DUP1 PUSH4 0xA217FDDF EQ PUSH2 0x42C JUMPI DUP1 PUSH4 0xB138821E EQ PUSH2 0x434 JUMPI DUP1 PUSH4 0xB49B0CB3 EQ PUSH2 0x447 JUMPI DUP1 PUSH4 0xCDD78CFC EQ PUSH2 0x45A JUMPI PUSH1 0x0 DUP1 REVERT JUMPDEST DUP1 PUSH4 0x7D19E596 GT PUSH2 0xE9 JUMPI DUP1 PUSH4 0x7D19E596 EQ PUSH2 0x3DE JUMPI DUP1 PUSH4 0x8456CB59 EQ PUSH2 0x3FE JUMPI DUP1 PUSH4 0x91D14854 EQ PUSH2 0x406 JUMPI DUP1 PUSH4 0x9D5E0551 EQ PUSH2 0x419 JUMPI PUSH1 0x0 DUP1 REVERT JUMPDEST DUP1 PUSH4 0x4D68282F EQ PUSH2 0x398 JUMPI DUP1 PUSH4 0x5AEF573C EQ PUSH2 0x3AB JUMPI DUP1 PUSH4 0x5C975ABB EQ PUSH2 0x3BE JUMPI DUP1 PUSH4 0x75B238FC EQ PUSH2 0x3C9 JUMPI PUSH1 0x0 DUP1 REVERT JUMPDEST DUP1 PUSH4 0x36568ABE GT PUSH2 0x19D JUMPI DUP1 PUSH4 0x3B76594D GT PUSH2 0x16C JUMPI DUP1 PUSH4 0x3B76594D EQ PUSH2 0x33B JUMPI DUP1 PUSH4 0x3F4BA83A EQ PUSH2 0x34E JUMPI DUP1 PUSH4 0x3F4DBDA2 EQ PUSH2 0x356 JUMPI DUP1 PUSH4 0x46B6CFD3 EQ PUSH2 0x35E JUMPI DUP1 PUSH4 0x4D104ADF EQ PUSH2 0x371 JUMPI PUSH1 0x0 DUP1 REVERT JUMPDEST DUP1 PUSH4 0x36568ABE EQ PUSH2 0x2EC JUMPI DUP1 PUSH4 0x39292763 EQ PUSH2 0x2FF JUMPI DUP1 PUSH4 0x3998A681 EQ PUSH2 0x312 JUMPI DUP1 PUSH4 0x3A49995B EQ PUSH2 0x31B JUMPI PUSH1 0x0 DUP1 REVERT JUMPDEST DUP1 PUSH4 0x22459E18 GT PUSH2 0x1D9 JUMPI DUP1 PUSH4 0x22459E18 EQ PUSH2 0x26E JUMPI DUP1 PUSH4 0x248A9CA3 EQ PUSH2 0x2A3 JUMPI DUP1 PUSH4 0x2840662D EQ PUSH2 0x2C6 JUMPI DUP1 PUSH4 0x2F2FF15D EQ PUSH2 0x2D9 JUMPI PUSH1 0x0 DUP1 REVERT JUMPDEST DUP1 PUSH4 0x1FFC9A7 EQ PUSH2 0x20B JUMPI DUP1 PUSH4 0x8B88AF1 EQ PUSH2 0x233 JUMPI DUP1 PUSH4 0xFFB1D8B EQ PUSH2 0x246 JUMPI DUP1 PUSH4 0x12E8E2C3 EQ PUSH2 0x25B JUMPI JUMPDEST PUSH1 0x0 DUP1 REVERT JUMPDEST PUSH2 0x21E PUSH2 0x219 CALLDATASIZE PUSH1 0x4 PUSH2 0x30C8 JUMP JUMPDEST PUSH2 0x4E0 JUMP JUMPDEST PUSH1 0x40 MLOAD SWAP1 ISZERO ISZERO DUP2 MSTORE PUSH1 0x20 ADD JUMPDEST PUSH1 0x40 MLOAD DUP1 SWAP2 SUB SWAP1 RETURN JUMPDEST PUSH2 0x21E PUSH2 0x241 CALLDATASIZE PUSH1 0x4 PUSH2 0x30F9 JUMP JUMPDEST PUSH2 0x517 JUMP JUMPDEST PUSH2 0x259 PUSH2 0x254 CALLDATASIZE PUSH1 0x4 PUSH2 0x3137 JUMP JUMPDEST PUSH2 0x950 JUMP JUMPDEST STOP JUMPDEST PUSH2 0x259 PUSH2 0x269 CALLDATASIZE PUSH1 0x4 PUSH2 0x30F9 JUMP JUMPDEST PUSH2 0x994 JUMP JUMPDEST PUSH2 0x295 PUSH32 0xCAB5A0BFE0B79D2C4B1C2E02599FA044D115B7511F9659307CB4276950967709 DUP2 JUMP JUMPDEST PUSH1 0x40 MLOAD SWAP1 DUP2 MSTORE PUSH1 0x20 ADD PUSH2 0x22A JUMP JUMPDEST PUSH2 0x295 PUSH2 0x2B1 CALLDATASIZE PUSH1 0x4 PUSH2 0x30F9 JUMP JUMPDEST PUSH1 0x0 SWAP1 DUP2 MSTORE PUSH1 0x2 PUSH1 0x20 MSTORE PUSH1 0x40 SWAP1 KECCAK256 PUSH1 0x1 ADD SLOAD SWAP1 JUMP JUMPDEST PUSH2 0x259 PUSH2 0x2D4 CALLDATASIZE PUSH1 0x4 PUSH2 0x31B7 JUMP JUMPDEST PUSH2 0x9F3 JUMP JUMPDEST PUSH2 0x259 PUSH2 0x2E7 CALLDATASIZE PUSH1 0x4 PUSH2 0x3213 JUMP JUMPDEST PUSH2 0xBCD JUMP JUMPDEST PUSH2 0x259 PUSH2 0x2FA CALLDATASIZE PUSH1 0x4 PUSH2 0x3213 JUMP JUMPDEST PUSH2 0xBF2 JUMP JUMPDEST PUSH2 0x259 PUSH2 0x30D CALLDATASIZE PUSH1 0x4 PUSH2 0x30F9 JUMP JUMPDEST PUSH2 0xC2A JUMP JUMPDEST PUSH2 0x295 PUSH2 0x1F4 DUP2 JUMP JUMPDEST PUSH2 0x32E PUSH2 0x329 CALLDATASIZE PUSH1 0x4 PUSH2 0x30F9 JUMP JUMPDEST PUSH2 0xCCF JUMP JUMPDEST PUSH1 0x40 MLOAD PUSH2 0x22A SWAP2 SWAP1 PUSH2 0x3269 JUMP JUMPDEST PUSH2 0x259 PUSH2 0x349 CALLDATASIZE PUSH1 0x4 PUSH2 0x30F9 JUMP JUMPDEST PUSH2 0xD0D JUMP JUMPDEST PUSH2 0x259 PUSH2 0xEB9 JUMP JUMPDEST PUSH1 0x6 SLOAD PUSH2 0x295 JUMP JUMPDEST PUSH2 0x259 PUSH2 0x36C CALLDATASIZE PUSH1 0x4 PUSH2 0x30F9 JUMP JUMPDEST PUSH2 0xED9 JUMP JUMPDEST PUSH2 0x295 PUSH32 0xBB08418A67729A078F87BBC8D02A770929BB68F5BFDF134AE2EAD6ED38E2F4AE DUP2 JUMP JUMPDEST PUSH2 0x259 PUSH2 0x3A6 CALLDATASIZE PUSH1 0x4 PUSH2 0x30F9 JUMP JUMPDEST PUSH2 0x108B JUMP JUMPDEST PUSH2 0x259 PUSH2 0x3B9 CALLDATASIZE PUSH1 0x4 PUSH2 0x3277 JUMP JUMPDEST PUSH2 0x12A4 JUMP JUMPDEST PUSH1 0x1 SLOAD PUSH1 0xFF AND PUSH2 0x21E JUMP JUMPDEST PUSH2 0x295 PUSH1 0x0 DUP1 MLOAD PUSH1 0x20 PUSH2 0x3A39 DUP4 CODECOPY DUP2 MLOAD SWAP2 MSTORE DUP2 JUMP JUMPDEST PUSH2 0x3F1 PUSH2 0x3EC CALLDATASIZE PUSH1 0x4 PUSH2 0x30F9 JUMP JUMPDEST PUSH2 0x19B1 JUMP JUMPDEST PUSH1 0x40 MLOAD PUSH2 0x22A SWAP2 SWAP1 PUSH2 0x3374 JUMP JUMPDEST PUSH2 0x259 PUSH2 0x1D63 JUMP JUMPDEST PUSH2 0x21E PUSH2 0x414 CALLDATASIZE PUSH1 0x4 PUSH2 0x3213 JUMP JUMPDEST PUSH2 0x1D83 JUMP JUMPDEST PUSH2 0x295 PUSH2 0x427 CALLDATASIZE PUSH1 0x4 PUSH2 0x34D6 JUMP JUMPDEST PUSH2 0x1DAE JUMP JUMPDEST PUSH2 0x295 PUSH1 0x0 DUP2 JUMP JUMPDEST PUSH2 0x259 PUSH2 0x442 CALLDATASIZE PUSH1 0x4 PUSH2 0x30F9 JUMP JUMPDEST PUSH2 0x2340 JUMP JUMPDEST PUSH2 0x259 PUSH2 0x455 CALLDATASIZE PUSH1 0x4 PUSH2 0x3512 JUMP JUMPDEST PUSH2 0x25E6 JUMP JUMPDEST PUSH2 0x295 PUSH1 0x7 SLOAD DUP2 JUMP JUMPDEST PUSH2 0x259 PUSH2 0x471 CALLDATASIZE PUSH1 0x4 PUSH2 0x3213 JUMP JUMPDEST PUSH2 0x2612 JUMP JUMPDEST PUSH2 0x21E PUSH2 0x484 CALLDATASIZE PUSH1 0x4 PUSH2 0x353C JUMP JUMPDEST PUSH1 0x5 PUSH1 0x20 MSTORE PUSH1 0x0 SWAP1 DUP2 MSTORE PUSH1 0x40 SWAP1 KECCAK256 SLOAD PUSH1 0xFF AND DUP2 JUMP JUMPDEST PUSH2 0x259 PUSH2 0x4A7 CALLDATASIZE PUSH1 0x4 PUSH2 0x30F9 JUMP JUMPDEST PUSH2 0x2637 JUMP JUMPDEST PUSH2 0x295 PUSH2 0x2710 DUP2 JUMP JUMPDEST PUSH1 0x8 SLOAD PUSH2 0x4C8 SWAP1 PUSH1 0x1 PUSH1 0x1 PUSH1 0xA0 SHL SUB AND DUP2 JUMP JUMPDEST PUSH1 0x40 MLOAD PUSH1 0x1 PUSH1 0x1 PUSH1 0xA0 SHL SUB SWAP1 SWAP2 AND DUP2 MSTORE PUSH1 0x20 ADD PUSH2 0x22A JUMP JUMPDEST PUSH1 0x0 PUSH1 0x1 PUSH1 0x1 PUSH1 0xE0 SHL SUB NOT DUP3 AND PUSH4 0x7965DB0B PUSH1 0xE0 SHL EQ DUP1 PUSH2 0x511 JUMPI POP PUSH4 0x1FFC9A7 PUSH1 0xE0 SHL PUSH1 0x1 PUSH1 0x1 PUSH1 0xE0 SHL SUB NOT DUP4 AND EQ JUMPDEST SWAP3 SWAP2 POP POP JUMP JUMPDEST PUSH1 0x0 DUP2 PUSH1 0x6 SLOAD DUP2 LT PUSH2 0x544 JUMPI PUSH1 0x40 MLOAD PUSH3 0x461BCD PUSH1 0xE5 SHL DUP2 MSTORE PUSH1 0x4 ADD PUSH2 0x53B SWAP1 PUSH2 0x3557 JUMP JUMPDEST PUSH1 0x40 MLOAD DUP1 SWAP2 SUB SWAP1 REVERT JUMPDEST PUSH1 0x0 DUP4 DUP2 MSTORE PUSH1 0x3 PUSH1 0x20 DUP2 DUP2 MSTORE PUSH1 0x40 DUP1 DUP5 KECCAK256 DUP2 MLOAD PUSH2 0x240 DUP2 ADD DUP4 MSTORE DUP2 SLOAD DUP2 MSTORE PUSH1 0x1 DUP3 ADD SLOAD PUSH1 0x1 PUSH1 0x1 PUSH1 0xA0 SHL SUB SWAP1 DUP2 AND SWAP5 DUP3 ADD SWAP5 SWAP1 SWAP5 MSTORE PUSH1 0x2 DUP3 ADD SLOAD DUP5 AND SWAP3 DUP2 ADD SWAP3 SWAP1 SWAP3 MSTORE SWAP3 DUP4 ADD SLOAD DUP3 AND PUSH1 0x60 DUP3 ADD MSTORE PUSH1 0x4 DUP4 ADD SLOAD DUP3 AND PUSH1 0x80 DUP3 ADD MSTORE PUSH1 0x5 DUP4 ADD SLOAD SWAP1 SWAP2 AND PUSH1 0xA0 DUP3 ADD MSTORE PUSH1 0x6 DUP1 DUP4 ADD SLOAD PUSH1 0xC0 DUP4 ADD MSTORE PUSH1 0x7 DUP4 ADD SLOAD PUSH1 0xE0 DUP4 ADD MSTORE PUSH1 0x8 DUP4 ADD SLOAD PUSH2 0x100 DUP4 ADD MSTORE PUSH1 0x9 DUP4 ADD SLOAD SWAP2 SWAP3 SWAP2 PUSH2 0x120 DUP5 ADD SWAP2 PUSH1 0xFF SWAP1 SWAP2 AND SWAP1 DUP2 GT ISZERO PUSH2 0x5EE JUMPI PUSH2 0x5EE PUSH2 0x323F JUMP JUMPDEST PUSH1 0x6 DUP2 GT ISZERO PUSH2 0x5FF JUMPI PUSH2 0x5FF PUSH2 0x323F JUMP JUMPDEST DUP2 MSTORE PUSH1 0x20 ADD PUSH1 0xA DUP3 ADD PUSH1 0x40 MLOAD DUP1 PUSH1 0xA0 ADD PUSH1 0x40 MSTORE SWAP1 DUP2 PUSH1 0x0 DUP3 ADD DUP1 SLOAD PUSH2 0x623 SWAP1 PUSH2 0x3582 JUMP JUMPDEST DUP1 PUSH1 0x1F ADD PUSH1 0x20 DUP1 SWAP2 DIV MUL PUSH1 0x20 ADD PUSH1 0x40 MLOAD SWAP1 DUP2 ADD PUSH1 0x40 MSTORE DUP1 SWAP3 SWAP2 SWAP1 DUP2 DUP2 MSTORE PUSH1 0x20 ADD DUP3 DUP1 SLOAD PUSH2 0x64F SWAP1 PUSH2 0x3582 JUMP JUMPDEST DUP1 ISZERO PUSH2 0x69C JUMPI DUP1 PUSH1 0x1F LT PUSH2 0x671 JUMPI PUSH2 0x100 DUP1 DUP4 SLOAD DIV MUL DUP4 MSTORE SWAP2 PUSH1 0x20 ADD SWAP2 PUSH2 0x69C JUMP JUMPDEST DUP3 ADD SWAP2 SWAP1 PUSH1 0x0 MSTORE PUSH1 0x20 PUSH1 0x0 KECCAK256 SWAP1 JUMPDEST DUP2 SLOAD DUP2 MSTORE SWAP1 PUSH1 0x1 ADD SWAP1 PUSH1 0x20 ADD DUP1 DUP4 GT PUSH2 0x67F JUMPI DUP3 SWAP1 SUB PUSH1 0x1F AND DUP3 ADD SWAP2 JUMPDEST POP POP POP POP POP DUP2 MSTORE PUSH1 0x20 ADD PUSH1 0x1 DUP3 ADD DUP1 SLOAD PUSH2 0x6B5 SWAP1 PUSH2 0x3582 JUMP JUMPDEST DUP1 PUSH1 0x1F ADD PUSH1 0x20 DUP1 SWAP2 DIV MUL PUSH1 0x20 ADD PUSH1 0x40 MLOAD SWAP1 DUP2 ADD PUSH1 0x40 MSTORE DUP1 SWAP3 SWAP2 SWAP1 DUP2 DUP2 MSTORE PUSH1 0x20 ADD DUP3 DUP1 SLOAD PUSH2 0x6E1 SWAP1 PUSH2 0x3582 JUMP JUMPDEST DUP1 ISZERO PUSH2 0x72E JUMPI DUP1 PUSH1 0x1F LT PUSH2 0x703 JUMPI PUSH2 0x100 DUP1 DUP4 SLOAD DIV MUL DUP4 MSTORE SWAP2 PUSH1 0x20 ADD SWAP2 PUSH2 0x72E JUMP JUMPDEST DUP3 ADD SWAP2 SWAP1 PUSH1 0x0 MSTORE PUSH1 0x20 PUSH1 0x0 KECCAK256 SWAP1 JUMPDEST DUP2 SLOAD DUP2 MSTORE SWAP1 PUSH1 0x1 ADD SWAP1 PUSH1 0x20 ADD DUP1 DUP4 GT PUSH2 0x711 JUMPI DUP3 SWAP1 SUB PUSH1 0x1F AND DUP3 ADD SWAP2 JUMPDEST POP POP POP POP POP DUP2 MSTORE PUSH1 0x20 ADD PUSH1 0x2 DUP3 ADD SLOAD DUP2 MSTORE PUSH1 0x20 ADD PUSH1 0x3 DUP3 ADD DUP1 SLOAD PUSH2 0x751 SWAP1 PUSH2 0x3582 JUMP JUMPDEST DUP1 PUSH1 0x1F ADD PUSH1 0x20 DUP1 SWAP2 DIV MUL PUSH1 0x20 ADD PUSH1 0x40 MLOAD SWAP1 DUP2 ADD PUSH1 0x40 MSTORE DUP1 SWAP3 SWAP2 SWAP1 DUP2 DUP2 MSTORE PUSH1 0x20 ADD DUP3 DUP1 SLOAD PUSH2 0x77D SWAP1 PUSH2 0x3582 JUMP JUMPDEST DUP1 ISZERO PUSH2 0x7CA JUMPI DUP1 PUSH1 0x1F LT PUSH2 0x79F JUMPI PUSH2 0x100 DUP1 DUP4 SLOAD DIV MUL DUP4 MSTORE SWAP2 PUSH1 0x20 ADD SWAP2 PUSH2 0x7CA JUMP JUMPDEST DUP3 ADD SWAP2 SWAP1 PUSH1 0x0 MSTORE PUSH1 0x20 PUSH1 0x0 KECCAK256 SWAP1 JUMPDEST DUP2 SLOAD DUP2 MSTORE SWAP1 PUSH1 0x1 ADD SWAP1 PUSH1 0x20 ADD DUP1 DUP4 GT PUSH2 0x7AD JUMPI DUP3 SWAP1 SUB PUSH1 0x1F AND DUP3 ADD SWAP2 JUMPDEST POP POP POP SWAP2 DUP4 MSTORE POP POP PUSH1 0x4 SWAP2 SWAP1 SWAP2 ADD SLOAD PUSH1 0xFF SWAP1 DUP2 AND ISZERO ISZERO PUSH1 0x20 SWAP3 DUP4 ADD MSTORE SWAP2 DUP4 MSTORE PUSH1 0xF DUP5 ADD SLOAD SWAP1 DUP4 ADD MSTORE PUSH1 0x10 DUP4 ADD SLOAD PUSH1 0x40 DUP4 ADD MSTORE PUSH1 0x11 DUP4 ADD SLOAD PUSH1 0x60 DUP4 ADD MSTORE PUSH1 0x12 DUP4 ADD SLOAD DUP1 DUP3 AND ISZERO ISZERO PUSH1 0x80 DUP5 ADD MSTORE PUSH2 0x100 DUP2 DIV DUP3 AND ISZERO ISZERO PUSH1 0xA0 DUP5 ADD MSTORE PUSH3 0x10000 SWAP1 DIV AND ISZERO ISZERO PUSH1 0xC0 DUP3 ADD MSTORE PUSH1 0x13 DUP3 ADD DUP1 SLOAD PUSH1 0xE0 SWAP1 SWAP3 ADD SWAP2 PUSH2 0x846 SWAP1 PUSH2 0x3582 JUMP JUMPDEST DUP1 PUSH1 0x1F ADD PUSH1 0x20 DUP1 SWAP2 DIV MUL PUSH1 0x20 ADD PUSH1 0x40 MLOAD SWAP1 DUP2 ADD PUSH1 0x40 MSTORE DUP1 SWAP3 SWAP2 SWAP1 DUP2 DUP2 MSTORE PUSH1 0x20 ADD DUP3 DUP1 SLOAD PUSH2 0x872 SWAP1 PUSH2 0x3582 JUMP JUMPDEST DUP1 ISZERO PUSH2 0x8BF JUMPI DUP1 PUSH1 0x1F LT PUSH2 0x894 JUMPI PUSH2 0x100 DUP1 DUP4 SLOAD DIV MUL DUP4 MSTORE SWAP2 PUSH1 0x20 ADD SWAP2 PUSH2 0x8BF JUMP JUMPDEST DUP3 ADD SWAP2 SWAP1 PUSH1 0x0 MSTORE PUSH1 0x20 PUSH1 0x0 KECCAK256 SWAP1 JUMPDEST DUP2 SLOAD DUP2 MSTORE SWAP1 PUSH1 0x1 ADD SWAP1 PUSH1 0x20 ADD DUP1 DUP4 GT PUSH2 0x8A2 JUMPI DUP3 SWAP1 SUB PUSH1 0x1F AND DUP3 ADD SWAP2 JUMPDEST POP POP POP POP POP DUP2 MSTORE POP POP SWAP1 POP PUSH1 0x2 PUSH1 0x6 DUP2 GT ISZERO PUSH2 0x8DD JUMPI PUSH2 0x8DD PUSH2 0x323F JUMP JUMPDEST DUP2 PUSH2 0x120 ADD MLOAD PUSH1 0x6 DUP2 GT ISZERO PUSH2 0x8F4 JUMPI PUSH2 0x8F4 PUSH2 0x323F JUMP JUMPDEST EQ DUP1 ISZERO PUSH2 0x907 JUMPI POP DUP1 PUSH2 0x140 ADD MLOAD PUSH1 0x80 ADD MLOAD JUMPDEST DUP1 ISZERO PUSH2 0x915 JUMPI POP DUP1 PUSH2 0x1C0 ADD MLOAD JUMPDEST DUP1 ISZERO PUSH2 0x923 JUMPI POP DUP1 PUSH2 0x1E0 ADD MLOAD JUMPDEST DUP1 ISZERO PUSH2 0x946 JUMPI POP PUSH1 0x60 DUP2 ADD MLOAD PUSH1 0x1 PUSH1 0x1 PUSH1 0xA0 SHL SUB AND ISZERO DUP1 PUSH2 0x946 JUMPI POP DUP1 PUSH2 0x200 ADD MLOAD JUMPDEST SWAP3 POP POP JUMPDEST POP SWAP2 SWAP1 POP JUMP JUMPDEST PUSH1 0x0 DUP1 MLOAD PUSH1 0x20 PUSH2 0x3A39 DUP4 CODECOPY DUP2 MLOAD SWAP2 MSTORE PUSH2 0x968 DUP2 PUSH2 0x2B6D JUMP JUMPDEST POP PUSH1 0x1 PUSH1 0x1 PUSH1 0xA0 SHL SUB SWAP2 SWAP1 SWAP2 AND PUSH1 0x0 SWAP1 DUP2 MSTORE PUSH1 0x5 PUSH1 0x20 MSTORE PUSH1 0x40 SWAP1 KECCAK256 DUP1 SLOAD PUSH1 0xFF NOT AND SWAP2 ISZERO ISZERO SWAP2 SWAP1 SWAP2 OR SWAP1 SSTORE JUMP JUMPDEST PUSH1 0x0 DUP1 MLOAD PUSH1 0x20 PUSH2 0x3A39 DUP4 CODECOPY DUP2 MLOAD SWAP2 MSTORE PUSH2 0x9AC DUP2 PUSH2 0x2B6D JUMP JUMPDEST PUSH2 0x1F4 DUP3 GT ISZERO PUSH2 0x9ED JUMPI PUSH1 0x40 MLOAD PUSH3 0x461BCD PUSH1 0xE5 SHL DUP2 MSTORE PUSH1 0x20 PUSH1 0x4 DUP3 ADD MSTORE PUSH1 0xC PUSH1 0x24 DUP3 ADD MSTORE PUSH12 0x8CCACA40E8DEDE40D0D2CED PUSH1 0xA3 SHL PUSH1 0x44 DUP3 ADD MSTORE PUSH1 0x64 ADD PUSH2 0x53B JUMP JUMPDEST POP PUSH1 0x7 SSTORE JUMP JUMPDEST PUSH2 0x9FB PUSH2 0x2B77 JUMP JUMPDEST PUSH2 0xA03 PUSH2 0x2BA1 JUMP JUMPDEST DUP4 PUSH1 0x6 SLOAD DUP2 LT PUSH2 0xA25 JUMPI PUSH1 0x40 MLOAD PUSH3 0x461BCD PUSH1 0xE5 SHL DUP2 MSTORE PUSH1 0x4 ADD PUSH2 0x53B SWAP1 PUSH2 0x3557 JUMP JUMPDEST DUP5 PUSH1 0x4 DUP1 PUSH1 0x0 DUP4 DUP2 MSTORE PUSH1 0x3 PUSH1 0x20 MSTORE PUSH1 0x40 SWAP1 KECCAK256 PUSH1 0x9 ADD SLOAD PUSH1 0xFF AND PUSH1 0x6 DUP2 GT ISZERO PUSH2 0xA4F JUMPI PUSH2 0xA4F PUSH2 0x323F JUMP JUMPDEST EQ PUSH2 0xA6C JUMPI PUSH1 0x40 MLOAD PUSH3 0x461BCD PUSH1 0xE5 SHL DUP2 MSTORE PUSH1 0x4 ADD PUSH2 0x53B SWAP1 PUSH2 0x35B6 JUMP JUMPDEST PUSH1 0x0 DUP8 DUP2 MSTORE PUSH1 0x3 PUSH1 0x20 MSTORE PUSH1 0x40 SWAP1 KECCAK256 PUSH1 0x4 DUP2 ADD SLOAD PUSH1 0x1 PUSH1 0x1 PUSH1 0xA0 SHL SUB AND CALLER EQ DUP1 PUSH2 0xAA8 JUMPI POP PUSH2 0xAA8 PUSH1 0x0 DUP1 MLOAD PUSH1 0x20 PUSH2 0x3A39 DUP4 CODECOPY DUP2 MLOAD SWAP2 MSTORE CALLER PUSH2 0x1D83 JUMP JUMPDEST PUSH2 0xAFE JUMPI PUSH1 0x40 MLOAD PUSH3 0x461BCD PUSH1 0xE5 SHL DUP2 MSTORE PUSH1 0x20 PUSH1 0x4 DUP3 ADD MSTORE PUSH1 0x21 PUSH1 0x24 DUP3 ADD MSTORE PUSH32 0x4F6E6C792061726269746572206F722061646D696E2063616E207265736F6C76 PUSH1 0x44 DUP3 ADD MSTORE PUSH1 0x65 PUSH1 0xF8 SHL PUSH1 0x64 DUP3 ADD MSTORE PUSH1 0x84 ADD PUSH2 0x53B JUMP JUMPDEST PUSH1 0x0 DUP9 DUP2 MSTORE PUSH1 0x4 PUSH1 0x20 DUP2 SWAP1 MSTORE PUSH1 0x40 SWAP1 SWAP2 KECCAK256 PUSH1 0x3 DUP2 ADD DUP1 SLOAD CALLER PUSH2 0x100 MUL PUSH1 0x1 PUSH1 0x1 PUSH1 0xA8 SHL SUB NOT SWAP1 SWAP2 AND OR PUSH1 0x1 OR SWAP1 SSTORE SWAP1 DUP2 ADD PUSH2 0xB3A DUP8 DUP10 DUP4 PUSH2 0x365D JUMP JUMPDEST POP DUP8 ISZERO PUSH2 0xB4F JUMPI PUSH2 0xB4A DUP10 PUSH2 0x2BC7 JUMP JUMPDEST PUSH2 0xB74 JUMP JUMPDEST PUSH1 0x9 DUP3 ADD DUP1 SLOAD PUSH1 0xFF NOT AND PUSH1 0x2 OR SWAP1 SSTORE PUSH1 0x12 DUP3 ADD DUP1 SLOAD PUSH3 0x10101 PUSH3 0xFFFFFF NOT SWAP1 SWAP2 AND OR SWAP1 SSTORE JUMPDEST CALLER PUSH1 0x1 PUSH1 0x1 PUSH1 0xA0 SHL SUB AND DUP10 PUSH32 0x7B71D2E00379BD165B2750D54298DA2414376699827EDCA2BCE2A096C491D2E9 DUP10 DUP10 PUSH1 0x40 MLOAD PUSH2 0xBB0 SWAP3 SWAP2 SWAP1 PUSH2 0x3718 JUMP JUMPDEST PUSH1 0x40 MLOAD DUP1 SWAP2 SUB SWAP1 LOG3 POP POP POP POP POP PUSH2 0xBC7 PUSH1 0x1 PUSH1 0x0 SSTORE JUMP JUMPDEST POP POP POP POP JUMP JUMPDEST PUSH1 0x0 DUP3 DUP2 MSTORE PUSH1 0x2 PUSH1 0x20 MSTORE PUSH1 0x40 SWAP1 KECCAK256 PUSH1 0x1 ADD SLOAD PUSH2 0xBE8 DUP2 PUSH2 0x2B6D JUMP JUMPDEST PUSH2 0xBC7 DUP4 DUP4 PUSH2 0x2D0C JUMP JUMPDEST PUSH1 0x1 PUSH1 0x1 PUSH1 0xA0 SHL SUB DUP2 AND CALLER EQ PUSH2 0xC1B JUMPI PUSH1 0x40 MLOAD PUSH4 0x334BD919 PUSH1 0xE1 SHL DUP2 MSTORE PUSH1 0x4 ADD PUSH1 0x40 MLOAD DUP1 SWAP2 SUB SWAP1 REVERT JUMPDEST PUSH2 0xC25 DUP3 DUP3 PUSH2 0x2DA0 JUMP JUMPDEST POP POP POP JUMP JUMPDEST PUSH2 0xC32 PUSH2 0x2B77 JUMP JUMPDEST PUSH2 0xC3A PUSH2 0x2BA1 JUMP JUMPDEST DUP1 PUSH1 0x6 SLOAD DUP2 LT PUSH2 0xC5C JUMPI PUSH1 0x40 MLOAD PUSH3 0x461BCD PUSH1 0xE5 SHL DUP2 MSTORE PUSH1 0x4 ADD PUSH2 0x53B SWAP1 PUSH2 0x3557 JUMP JUMPDEST PUSH2 0xC74 PUSH1 0x0 DUP1 MLOAD PUSH1 0x20 PUSH2 0x3A39 DUP4 CODECOPY DUP2 MLOAD SWAP2 MSTORE CALLER PUSH2 0x1D83 JUMP JUMPDEST PUSH2 0xCB8 JUMPI PUSH1 0x40 MLOAD PUSH3 0x461BCD PUSH1 0xE5 SHL DUP2 MSTORE PUSH1 0x20 PUSH1 0x4 DUP3 ADD MSTORE PUSH1 0x15 PUSH1 0x24 DUP3 ADD MSTORE PUSH21 0x13DB9B1E4818591B5A5B8818D85B881C99599D5B99 PUSH1 0x5A SHL PUSH1 0x44 DUP3 ADD MSTORE PUSH1 0x64 ADD PUSH2 0x53B JUMP JUMPDEST PUSH2 0xCC1 DUP3 PUSH2 0x2BC7 JUMP JUMPDEST POP PUSH2 0xCCC PUSH1 0x1 PUSH1 0x0 SSTORE JUMP JUMPDEST POP JUMP JUMPDEST PUSH1 0x0 DUP2 PUSH1 0x6 SLOAD DUP2 LT PUSH2 0xCF3 JUMPI PUSH1 0x40 MLOAD PUSH3 0x461BCD PUSH1 0xE5 SHL DUP2 MSTORE PUSH1 0x4 ADD PUSH2 0x53B SWAP1 PUSH2 0x3557 JUMP JUMPDEST POP POP PUSH1 0x0 SWAP1 DUP2 MSTORE PUSH1 0x3 PUSH1 0x20 MSTORE PUSH1 0x40 SWAP1 KECCAK256 PUSH1 0x9 ADD SLOAD PUSH1 0xFF AND SWAP1 JUMP JUMPDEST PUSH2 0xD15 PUSH2 0x2B77 JUMP JUMPDEST PUSH2 0xD1D PUSH2 0x2BA1 JUMP JUMPDEST DUP1 PUSH1 0x6 SLOAD DUP2 LT PUSH2 0xD3F JUMPI PUSH1 0x40 MLOAD PUSH3 0x461BCD PUSH1 0xE5 SHL DUP2 MSTORE PUSH1 0x4 ADD PUSH2 0x53B SWAP1 PUSH2 0x3557 JUMP JUMPDEST DUP2 PUSH1 0x0 DUP1 PUSH1 0x0 DUP4 DUP2 MSTORE PUSH1 0x3 PUSH1 0x20 MSTORE PUSH1 0x40 SWAP1 KECCAK256 PUSH1 0x9 ADD SLOAD PUSH1 0xFF AND PUSH1 0x6 DUP2 GT ISZERO PUSH2 0xD69 JUMPI PUSH2 0xD69 PUSH2 0x323F JUMP JUMPDEST EQ PUSH2 0xD86 JUMPI PUSH1 0x40 MLOAD PUSH3 0x461BCD PUSH1 0xE5 SHL DUP2 MSTORE PUSH1 0x4 ADD PUSH2 0x53B SWAP1 PUSH2 0x35B6 JUMP JUMPDEST PUSH1 0x0 DUP5 DUP2 MSTORE PUSH1 0x3 PUSH1 0x20 MSTORE PUSH1 0x40 SWAP1 KECCAK256 PUSH1 0x1 DUP2 ADD SLOAD PUSH1 0x1 PUSH1 0x1 PUSH1 0xA0 SHL SUB AND CALLER EQ PUSH2 0xDE9 JUMPI PUSH1 0x40 MLOAD PUSH3 0x461BCD PUSH1 0xE5 SHL DUP2 MSTORE PUSH1 0x20 PUSH1 0x4 DUP3 ADD MSTORE PUSH1 0x16 PUSH1 0x24 DUP3 ADD MSTORE PUSH22 0x13DB9B1E48189D5E595C8818D85B8819195C1BDCDA5D PUSH1 0x52 SHL PUSH1 0x44 DUP3 ADD MSTORE PUSH1 0x64 ADD PUSH2 0x53B JUMP JUMPDEST DUP1 PUSH1 0x10 ADD SLOAD TIMESTAMP GT ISZERO PUSH2 0xE3D JUMPI PUSH1 0x40 MLOAD PUSH3 0x461BCD PUSH1 0xE5 SHL DUP2 MSTORE PUSH1 0x20 PUSH1 0x4 DUP3 ADD MSTORE PUSH1 0x17 PUSH1 0x24 DUP3 ADD MSTORE PUSH32 0x4465706F73697420646561646C696E6520706173736564000000000000000000 PUSH1 0x44 DUP3 ADD MSTORE PUSH1 0x64 ADD PUSH2 0x53B JUMP JUMPDEST PUSH1 0x6 DUP2 ADD SLOAD PUSH1 0x5 DUP3 ADD SLOAD PUSH2 0xE60 SWAP2 PUSH1 0x1 PUSH1 0x1 PUSH1 0xA0 SHL SUB SWAP1 SWAP2 AND SWAP1 CALLER SWAP1 ADDRESS SWAP1 PUSH2 0x2E0D JUMP JUMPDEST PUSH1 0x9 DUP2 ADD DUP1 SLOAD PUSH1 0xFF NOT AND PUSH1 0x1 OR SWAP1 SSTORE PUSH1 0x6 DUP2 ADD SLOAD PUSH1 0x40 MLOAD SWAP1 DUP2 MSTORE CALLER SWAP1 DUP7 SWAP1 PUSH32 0xE030E47E27825A2AD1B19E4CF2E70BFBFB3124AF275C7727A82B114BA7B29A85 SWAP1 PUSH1 0x20 ADD PUSH1 0x40 MLOAD DUP1 SWAP2 SUB SWAP1 LOG3 POP POP POP POP PUSH2 0xCCC PUSH1 0x1 PUSH1 0x0 SSTORE JUMP JUMPDEST PUSH1 0x0 DUP1 MLOAD PUSH1 0x20 PUSH2 0x3A39 DUP4 CODECOPY DUP2 MLOAD SWAP2 MSTORE PUSH2 0xED1 DUP2 PUSH2 0x2B6D JUMP JUMPDEST PUSH2 0xCCC PUSH2 0x2E74 JUMP JUMPDEST PUSH2 0xEE1 PUSH2 0x2B77 JUMP JUMPDEST PUSH2 0xEE9 PUSH2 0x2BA1 JUMP JUMPDEST DUP1 PUSH1 0x6 SLOAD DUP2 LT PUSH2 0xF0B JUMPI PUSH1 0x40 MLOAD PUSH3 0x461BCD PUSH1 0xE5 SHL DUP2 MSTORE PUSH1 0x4 ADD PUSH2 0x53B SWAP1 PUSH2 0x3557 JUMP JUMPDEST DUP2 PUSH1 0x1 DUP1 PUSH1 0x0 DUP4 DUP2 MSTORE PUSH1 0x3 PUSH1 0x20 MSTORE PUSH1 0x40 SWAP1 KECCAK256 PUSH1 0x9 ADD SLOAD PUSH1 0xFF AND PUSH1 0x6 DUP2 GT ISZERO PUSH2 0xF35 JUMPI PUSH2 0xF35 PUSH2 0x323F JUMP JUMPDEST EQ PUSH2 0xF52 JUMPI PUSH1 0x40 MLOAD PUSH3 0x461BCD PUSH1 0xE5 SHL DUP2 MSTORE PUSH1 0x4 ADD PUSH2 0x53B SWAP1 PUSH2 0x35B6 JUMP JUMPDEST PUSH1 0x0 DUP5 DUP2 MSTORE PUSH1 0x3 PUSH1 0x20 DUP2 SWAP1 MSTORE PUSH1 0x40 SWAP1 SWAP2 KECCAK256 SWAP1 DUP2 ADD SLOAD PUSH1 0x1 PUSH1 0x1 PUSH1 0xA0 SHL SUB AND CALLER EQ DUP1 PUSH2 0xF90 JUMPI POP PUSH2 0xF90 PUSH1 0x0 DUP1 MLOAD PUSH1 0x20 PUSH2 0x3A39 DUP4 CODECOPY DUP2 MLOAD SWAP2 MSTORE CALLER PUSH2 0x1D83 JUMP JUMPDEST PUSH2 0xFDC JUMPI PUSH1 0x40 MLOAD PUSH3 0x461BCD PUSH1 0xE5 SHL DUP2 MSTORE PUSH1 0x20 PUSH1 0x4 DUP3 ADD MSTORE PUSH1 0x1E PUSH1 0x24 DUP3 ADD MSTORE PUSH32 0x4F6E6C79206167656E74206F722061646D696E2063616E207665726966790000 PUSH1 0x44 DUP3 ADD MSTORE PUSH1 0x64 ADD PUSH2 0x53B JUMP JUMPDEST DUP1 PUSH1 0x11 ADD SLOAD TIMESTAMP GT ISZERO PUSH2 0x1030 JUMPI PUSH1 0x40 MLOAD PUSH3 0x461BCD PUSH1 0xE5 SHL DUP2 MSTORE PUSH1 0x20 PUSH1 0x4 DUP3 ADD MSTORE PUSH1 0x1C PUSH1 0x24 DUP3 ADD MSTORE PUSH32 0x566572696669636174696F6E20646561646C696E652070617373656400000000 PUSH1 0x44 DUP3 ADD MSTORE PUSH1 0x64 ADD PUSH2 0x53B JUMP JUMPDEST PUSH1 0x9 DUP2 ADD DUP1 SLOAD PUSH1 0xFF NOT SWAP1 DUP2 AND PUSH1 0x2 OR SWAP1 SWAP2 SSTORE PUSH1 0xE DUP3 ADD DUP1 SLOAD SWAP1 SWAP2 AND PUSH1 0x1 OR SWAP1 SSTORE PUSH1 0x40 MLOAD CALLER SWAP1 DUP7 SWAP1 PUSH32 0x229702661BD522F80CF22E71A80E376C2AC20EA2ECD8E680F1A8E8285738A1C SWAP1 PUSH1 0x0 SWAP1 LOG3 POP POP POP POP PUSH2 0xCCC PUSH1 0x1 PUSH1 0x0 SSTORE JUMP JUMPDEST PUSH2 0x1093 PUSH2 0x2B77 JUMP JUMPDEST PUSH2 0x109B PUSH2 0x2BA1 JUMP JUMPDEST DUP1 PUSH1 0x6 SLOAD DUP2 LT PUSH2 0x10BD JUMPI PUSH1 0x40 MLOAD PUSH3 0x461BCD PUSH1 0xE5 SHL DUP2 MSTORE PUSH1 0x4 ADD PUSH2 0x53B SWAP1 PUSH2 0x3557 JUMP JUMPDEST DUP2 PUSH1 0x2 DUP1 PUSH1 0x0 DUP4 DUP2 MSTORE PUSH1 0x3 PUSH1 0x20 MSTORE PUSH1 0x40 SWAP1 KECCAK256 PUSH1 0x9 ADD SLOAD PUSH1 0xFF AND PUSH1 0x6 DUP2 GT ISZERO PUSH2 0x10E7 JUMPI PUSH2 0x10E7 PUSH2 0x323F JUMP JUMPDEST EQ PUSH2 0x1104 JUMPI PUSH1 0x40 MLOAD PUSH3 0x461BCD PUSH1 0xE5 SHL DUP2 MSTORE PUSH1 0x4 ADD PUSH2 0x53B SWAP1 PUSH2 0x35B6 JUMP JUMPDEST PUSH2 0x110D DUP5 PUSH2 0x517 JUMP JUMPDEST PUSH2 0x1159 JUMPI PUSH1 0x40 MLOAD PUSH3 0x461BCD PUSH1 0xE5 SHL DUP2 MSTORE PUSH1 0x20 PUSH1 0x4 DUP3 ADD MSTORE PUSH1 0x1A PUSH1 0x24 DUP3 ADD MSTORE PUSH32 0x52656C6561736520636F6E646974696F6E73206E6F74206D6574000000000000 PUSH1 0x44 DUP3 ADD MSTORE PUSH1 0x64 ADD PUSH2 0x53B JUMP JUMPDEST PUSH1 0x0 DUP5 DUP2 MSTORE PUSH1 0x3 PUSH1 0x20 MSTORE PUSH1 0x40 DUP2 KECCAK256 PUSH1 0x8 DUP2 ADD SLOAD PUSH1 0x6 DUP3 ADD SLOAD SWAP2 SWAP3 SWAP2 PUSH2 0x2710 SWAP2 PUSH2 0x1181 SWAP2 PUSH2 0x375D JUMP JUMPDEST PUSH2 0x118B SWAP2 SWAP1 PUSH2 0x3774 JUMP JUMPDEST SWAP1 POP PUSH1 0x0 DUP3 PUSH1 0x7 ADD SLOAD SWAP1 POP PUSH1 0x0 DUP2 DUP4 DUP6 PUSH1 0x6 ADD SLOAD PUSH2 0x11A9 SWAP2 SWAP1 PUSH2 0x3796 JUMP JUMPDEST PUSH2 0x11B3 SWAP2 SWAP1 PUSH2 0x3796 JUMP JUMPDEST PUSH1 0x9 DUP6 ADD DUP1 SLOAD PUSH1 0xFF NOT AND PUSH1 0x3 OR SWAP1 SSTORE PUSH1 0x5 DUP6 ADD SLOAD SWAP1 SWAP2 POP PUSH1 0x1 PUSH1 0x1 PUSH1 0xA0 SHL SUB AND DUP4 ISZERO PUSH2 0x11F3 JUMPI PUSH1 0x8 SLOAD PUSH2 0x11F3 SWAP1 PUSH1 0x1 PUSH1 0x1 PUSH1 0xA0 SHL SUB DUP4 DUP2 AND SWAP2 AND DUP7 PUSH2 0x2EC6 JUMP JUMPDEST PUSH1 0x0 DUP4 GT DUP1 ISZERO PUSH2 0x120F JUMPI POP PUSH1 0x3 DUP6 ADD SLOAD PUSH1 0x1 PUSH1 0x1 PUSH1 0xA0 SHL SUB AND ISZERO ISZERO JUMPDEST ISZERO PUSH2 0x1230 JUMPI PUSH1 0x3 DUP6 ADD SLOAD PUSH2 0x1230 SWAP1 PUSH1 0x1 PUSH1 0x1 PUSH1 0xA0 SHL SUB DUP4 DUP2 AND SWAP2 AND DUP6 PUSH2 0x2EC6 JUMP JUMPDEST PUSH1 0x2 DUP6 ADD SLOAD PUSH2 0x124C SWAP1 PUSH1 0x1 PUSH1 0x1 PUSH1 0xA0 SHL SUB DUP4 DUP2 AND SWAP2 AND DUP5 PUSH2 0x2EC6 JUMP JUMPDEST PUSH1 0x2 DUP6 ADD SLOAD PUSH1 0x40 MLOAD DUP4 DUP2 MSTORE PUSH1 0x1 PUSH1 0x1 PUSH1 0xA0 SHL SUB SWAP1 SWAP2 AND SWAP1 DUP11 SWAP1 PUSH32 0x6E3C6096795C8298A218B2CFB8BDE42726FF7C9A3D27B4D3BA41AB7F74FEB5FB SWAP1 PUSH1 0x20 ADD PUSH1 0x40 MLOAD DUP1 SWAP2 SUB SWAP1 LOG3 POP POP POP POP POP POP POP POP PUSH2 0xCCC PUSH1 0x1 PUSH1 0x0 SSTORE JUMP JUMPDEST PUSH2 0x12AC PUSH2 0x2B77 JUMP JUMPDEST PUSH2 0x12B4 PUSH2 0x2BA1 JUMP JUMPDEST DUP3 PUSH1 0x6 SLOAD DUP2 LT PUSH2 0x12D6 JUMPI PUSH1 0x40 MLOAD PUSH3 0x461BCD PUSH1 0xE5 SHL DUP2 MSTORE PUSH1 0x4 ADD PUSH2 0x53B SWAP1 PUSH2 0x3557 JUMP JUMPDEST PUSH1 0x0 DUP5 DUP2 MSTORE PUSH1 0x3 PUSH1 0x20 DUP2 DUP2 MSTORE PUSH1 0x40 DUP1 DUP5 KECCAK256 DUP2 MLOAD PUSH2 0x240 DUP2 ADD DUP4 MSTORE DUP2 SLOAD DUP2 MSTORE PUSH1 0x1 DUP3 ADD SLOAD PUSH1 0x1 PUSH1 0x1 PUSH1 0xA0 SHL SUB SWAP1 DUP2 AND SWAP5 DUP3 ADD SWAP5 SWAP1 SWAP5 MSTORE PUSH1 0x2 DUP3 ADD SLOAD DUP5 AND SWAP3 DUP2 ADD SWAP3 SWAP1 SWAP3 MSTORE SWAP3 DUP4 ADD SLOAD DUP3 AND PUSH1 0x60 DUP3 ADD MSTORE PUSH1 0x4 DUP4 ADD SLOAD DUP3 AND PUSH1 0x80 DUP3 ADD MSTORE PUSH1 0x5 DUP4 ADD SLOAD SWAP1 SWAP2 AND PUSH1 0xA0 DUP3 ADD MSTORE PUSH1 0x6 DUP1 DUP4 ADD SLOAD PUSH1 0xC0 DUP4 ADD MSTORE PUSH1 0x7 DUP4 ADD SLOAD PUSH1 0xE0 DUP4 ADD MSTORE PUSH1 0x8 DUP4 ADD SLOAD PUSH2 0x100 DUP4 ADD MSTORE PUSH1 0x9 DUP4 ADD SLOAD DUP9 SWAP5 SWAP4 SWAP2 PUSH2 0x120 DUP5 ADD SWAP2 PUSH1 0xFF AND SWAP1 DUP2 GT ISZERO PUSH2 0x137F JUMPI PUSH2 0x137F PUSH2 0x323F JUMP JUMPDEST PUSH1 0x6 DUP2 GT ISZERO PUSH2 0x1390 JUMPI PUSH2 0x1390 PUSH2 0x323F JUMP JUMPDEST DUP2 MSTORE PUSH1 0x20 ADD PUSH1 0xA DUP3 ADD PUSH1 0x40 MLOAD DUP1 PUSH1 0xA0 ADD PUSH1 0x40 MSTORE SWAP1 DUP2 PUSH1 0x0 DUP3 ADD DUP1 SLOAD PUSH2 0x13B4 SWAP1 PUSH2 0x3582 JUMP JUMPDEST DUP1 PUSH1 0x1F ADD PUSH1 0x20 DUP1 SWAP2 DIV MUL PUSH1 0x20 ADD PUSH1 0x40 MLOAD SWAP1 DUP2 ADD PUSH1 0x40 MSTORE DUP1 SWAP3 SWAP2 SWAP1 DUP2 DUP2 MSTORE PUSH1 0x20 ADD DUP3 DUP1 SLOAD PUSH2 0x13E0 SWAP1 PUSH2 0x3582 JUMP JUMPDEST DUP1 ISZERO PUSH2 0x142D JUMPI DUP1 PUSH1 0x1F LT PUSH2 0x1402 JUMPI PUSH2 0x100 DUP1 DUP4 SLOAD DIV MUL DUP4 MSTORE SWAP2 PUSH1 0x20 ADD SWAP2 PUSH2 0x142D JUMP JUMPDEST DUP3 ADD SWAP2 SWAP1 PUSH1 0x0 MSTORE PUSH1 0x20 PUSH1 0x0 KECCAK256 SWAP1 JUMPDEST DUP2 SLOAD DUP2 MSTORE SWAP1 PUSH1 0x1 ADD SWAP1 PUSH1 0x20 ADD DUP1 DUP4 GT PUSH2 0x1410 JUMPI DUP3 SWAP1 SUB PUSH1 0x1F AND DUP3 ADD SWAP2 JUMPDEST POP POP POP POP POP DUP2 MSTORE PUSH1 0x20 ADD PUSH1 0x1 DUP3 ADD DUP1 SLOAD PUSH2 0x1446 SWAP1 PUSH2 0x3582 JUMP JUMPDEST DUP1 PUSH1 0x1F ADD PUSH1 0x20 DUP1 SWAP2 DIV MUL PUSH1 0x20 ADD PUSH1 0x40 MLOAD SWAP1 DUP2 ADD PUSH1 0x40 MSTORE DUP1 SWAP3 SWAP2 SWAP1 DUP2 DUP2 MSTORE PUSH1 0x20 ADD DUP3 DUP1 SLOAD PUSH2 0x1472 SWAP1 PUSH2 0x3582 JUMP JUMPDEST DUP1 ISZERO PUSH2 0x14BF JUMPI DUP1 PUSH1 0x1F LT PUSH2 0x1494 JUMPI PUSH2 0x100 DUP1 DUP4 SLOAD DIV MUL DUP4 MSTORE SWAP2 PUSH1 0x20 ADD SWAP2 PUSH2 0x14BF JUMP JUMPDEST DUP3 ADD SWAP2 SWAP1 PUSH1 0x0 MSTORE PUSH1 0x20 PUSH1 0x0 KECCAK256 SWAP1 JUMPDEST DUP2 SLOAD DUP2 MSTORE SWAP1 PUSH1 0x1 ADD SWAP1 PUSH1 0x20 ADD DUP1 DUP4 GT PUSH2 0x14A2 JUMPI DUP3 SWAP1 SUB PUSH1 0x1F AND DUP3 ADD SWAP2 JUMPDEST POP POP POP POP POP DUP2 MSTORE PUSH1 0x20 ADD PUSH1 0x2 DUP3 ADD SLOAD DUP2 MSTORE PUSH1 0x20 ADD PUSH1 0x3 DUP3 ADD DUP1 SLOAD PUSH2 0x14E2 SWAP1 PUSH2 0x3582 JUMP JUMPDEST DUP1 PUSH1 0x1F ADD PUSH1 0x20 DUP1 SWAP2 DIV MUL PUSH1 0x20 ADD PUSH1 0x40 MLOAD SWAP1 DUP2 ADD PUSH1 0x40 MSTORE DUP1 SWAP3 SWAP2 SWAP1 DUP2 DUP2 MSTORE PUSH1 0x20 ADD DUP3 DUP1 SLOAD PUSH2 0x150E SWAP1 PUSH2 0x3582 JUMP JUMPDEST DUP1 ISZERO PUSH2 0x155B JUMPI DUP1 PUSH1 0x1F LT PUSH2 0x1530 JUMPI PUSH2 0x100 DUP1 DUP4 SLOAD DIV MUL DUP4 MSTORE SWAP2 PUSH1 0x20 ADD SWAP2 PUSH2 0x155B JUMP JUMPDEST DUP3 ADD SWAP2 SWAP1 PUSH1 0x0 MSTORE PUSH1 0x20 PUSH1 0x0 KECCAK256 SWAP1 JUMPDEST DUP2 SLOAD DUP2 MSTORE SWAP1 PUSH1 0x1 ADD SWAP1 PUSH1 0x20 ADD DUP1 DUP4 GT PUSH2 0x153E JUMPI DUP3 SWAP1 SUB PUSH1 0x1F AND DUP3 ADD SWAP2 JUMPDEST POP POP POP SWAP2 DUP4 MSTORE POP POP PUSH1 0x4 SWAP2 SWAP1 SWAP2 ADD SLOAD PUSH1 0xFF SWAP1 DUP2 AND ISZERO ISZERO PUSH1 0x20 SWAP3 DUP4 ADD MSTORE SWAP2 DUP4 MSTORE PUSH1 0xF DUP5 ADD SLOAD SWAP1 DUP4 ADD MSTORE PUSH1 0x10 DUP4 ADD SLOAD PUSH1 0x40 DUP4 ADD MSTORE PUSH1 0x11 DUP4 ADD SLOAD PUSH1 0x60 DUP4 ADD MSTORE PUSH1 0x12 DUP4 ADD SLOAD DUP1 DUP3 AND ISZERO ISZERO PUSH1 0x80 DUP5 ADD MSTORE PUSH2 0x100 DUP2 DIV DUP3 AND ISZERO ISZERO PUSH1 0xA0 DUP5 ADD MSTORE PUSH3 0x10000 SWAP1 DIV AND ISZERO ISZERO PUSH1 0xC0 DUP3 ADD MSTORE PUSH1 0x13 DUP3 ADD DUP1 SLOAD PUSH1 0xE0 SWAP1 SWAP3 ADD SWAP2 PUSH2 0x15D7 SWAP1 PUSH2 0x3582 JUMP JUMPDEST DUP1 PUSH1 0x1F ADD PUSH1 0x20 DUP1 SWAP2 DIV MUL PUSH1 0x20 ADD PUSH1 0x40 MLOAD SWAP1 DUP2 ADD PUSH1 0x40 MSTORE DUP1 SWAP3 SWAP2 SWAP1 DUP2 DUP2 MSTORE PUSH1 0x20 ADD DUP3 DUP1 SLOAD PUSH2 0x1603 SWAP1 PUSH2 0x3582 JUMP JUMPDEST DUP1 ISZERO PUSH2 0x1650 JUMPI DUP1 PUSH1 0x1F LT PUSH2 0x1625 JUMPI PUSH2 0x100 DUP1 DUP4 SLOAD DIV MUL DUP4 MSTORE SWAP2 PUSH1 0x20 ADD SWAP2 PUSH2 0x1650 JUMP JUMPDEST DUP3 ADD SWAP2 SWAP1 PUSH1 0x0 MSTORE PUSH1 0x20 PUSH1 0x0 KECCAK256 SWAP1 JUMPDEST DUP2 SLOAD DUP2 MSTORE SWAP1 PUSH1 0x1 ADD SWAP1 PUSH1 0x20 ADD DUP1 DUP4 GT PUSH2 0x1633 JUMPI DUP3 SWAP1 SUB PUSH1 0x1F AND DUP3 ADD SWAP2 JUMPDEST POP POP POP POP POP DUP2 MSTORE POP POP SWAP1 POP DUP1 PUSH1 0x20 ADD MLOAD PUSH1 0x1 PUSH1 0x1 PUSH1 0xA0 SHL SUB AND CALLER PUSH1 0x1 PUSH1 0x1 PUSH1 0xA0 SHL SUB AND EQ DUP1 PUSH2 0x1694 JUMPI POP DUP1 PUSH1 0x40 ADD MLOAD PUSH1 0x1 PUSH1 0x1 PUSH1 0xA0 SHL SUB AND CALLER PUSH1 0x1 PUSH1 0x1 PUSH1 0xA0 SHL SUB AND EQ JUMPDEST DUP1 PUSH2 0x16B4 JUMPI POP DUP1 PUSH1 0x60 ADD MLOAD PUSH1 0x1 PUSH1 0x1 PUSH1 0xA0 SHL SUB AND CALLER PUSH1 0x1 PUSH1 0x1 PUSH1 0xA0 SHL SUB AND EQ JUMPDEST DUP1 PUSH2 0x16D4 JUMPI POP DUP1 PUSH1 0x80 ADD MLOAD PUSH1 0x1 PUSH1 0x1 PUSH1 0xA0 SHL SUB AND CALLER PUSH1 0x1 PUSH1 0x1 PUSH1 0xA0 SHL SUB AND EQ JUMPDEST DUP1 PUSH2 0x16F2 JUMPI POP PUSH2 0x16F2 PUSH1 0x0 DUP1 MLOAD PUSH1 0x20 PUSH2 0x3A39 DUP4 CODECOPY DUP2 MLOAD SWAP2 MSTORE CALLER PUSH2 0x1D83 JUMP JUMPDEST PUSH2 0x173E JUMPI PUSH1 0x40 MLOAD PUSH3 0x461BCD PUSH1 0xE5 SHL DUP2 MSTORE PUSH1 0x20 PUSH1 0x4 DUP3 ADD MSTORE PUSH1 0x1E PUSH1 0x24 DUP3 ADD MSTORE PUSH32 0x4E6F7420617574686F72697A656420666F72207468697320657363726F770000 PUSH1 0x44 DUP3 ADD MSTORE PUSH1 0x64 ADD PUSH2 0x53B JUMP JUMPDEST PUSH1 0x0 DUP7 DUP2 MSTORE PUSH1 0x3 PUSH1 0x20 MSTORE PUSH1 0x40 SWAP1 KECCAK256 PUSH1 0x1 PUSH1 0x9 DUP3 ADD SLOAD PUSH1 0xFF AND PUSH1 0x6 DUP2 GT ISZERO PUSH2 0x1767 JUMPI PUSH2 0x1767 PUSH2 0x323F JUMP JUMPDEST EQ DUP1 PUSH2 0x178B JUMPI POP PUSH1 0x2 PUSH1 0x9 DUP3 ADD SLOAD PUSH1 0xFF AND PUSH1 0x6 DUP2 GT ISZERO PUSH2 0x1789 JUMPI PUSH2 0x1789 PUSH2 0x323F JUMP JUMPDEST EQ JUMPDEST PUSH2 0x17D7 JUMPI PUSH1 0x40 MLOAD PUSH3 0x461BCD PUSH1 0xE5 SHL DUP2 MSTORE PUSH1 0x20 PUSH1 0x4 DUP3 ADD MSTORE PUSH1 0x1F PUSH1 0x24 DUP3 ADD MSTORE PUSH32 0x43616E6E6F74206469737075746520696E2063757272656E7420737461746500 PUSH1 0x44 DUP3 ADD MSTORE PUSH1 0x64 ADD PUSH2 0x53B JUMP JUMPDEST DUP5 PUSH2 0x1824 JUMPI PUSH1 0x40 MLOAD PUSH3 0x461BCD PUSH1 0xE5 SHL DUP2 MSTORE PUSH1 0x20 PUSH1 0x4 DUP3 ADD MSTORE PUSH1 0x17 PUSH1 0x24 DUP3 ADD MSTORE PUSH32 0x4469737075746520726561736F6E207265717569726564000000000000000000 PUSH1 0x44 DUP3 ADD MSTORE PUSH1 0x64 ADD PUSH2 0x53B JUMP JUMPDEST PUSH1 0x9 DUP2 ADD DUP1 SLOAD PUSH1 0xFF NOT AND PUSH1 0x4 OR SWAP1 SSTORE PUSH1 0x13 DUP2 ADD PUSH2 0x1842 DUP7 DUP9 DUP4 PUSH2 0x365D JUMP JUMPDEST POP PUSH1 0x40 MLOAD DUP1 PUSH1 0xC0 ADD PUSH1 0x40 MSTORE DUP1 CALLER PUSH1 0x1 PUSH1 0x1 PUSH1 0xA0 SHL SUB AND DUP2 MSTORE PUSH1 0x20 ADD DUP8 DUP8 DUP1 DUP1 PUSH1 0x1F ADD PUSH1 0x20 DUP1 SWAP2 DIV MUL PUSH1 0x20 ADD PUSH1 0x40 MLOAD SWAP1 DUP2 ADD PUSH1 0x40 MSTORE DUP1 SWAP4 SWAP3 SWAP2 SWAP1 DUP2 DUP2 MSTORE PUSH1 0x20 ADD DUP4 DUP4 DUP1 DUP3 DUP5 CALLDATACOPY PUSH1 0x0 SWAP3 ADD DUP3 SWAP1 MSTORE POP SWAP4 DUP6 MSTORE POP POP TIMESTAMP PUSH1 0x20 DUP1 DUP6 ADD SWAP2 SWAP1 SWAP2 MSTORE PUSH1 0x40 DUP1 DUP6 ADD DUP5 SWAP1 MSTORE PUSH1 0x60 DUP6 ADD DUP5 SWAP1 MSTORE DUP1 MLOAD DUP1 DUP4 ADD DUP3 MSTORE DUP5 DUP2 MSTORE PUSH1 0x80 SWAP1 SWAP6 ADD SWAP5 SWAP1 SWAP5 MSTORE DUP12 DUP4 MSTORE PUSH1 0x4 DUP2 MSTORE SWAP3 SWAP1 SWAP2 KECCAK256 DUP4 MLOAD DUP2 SLOAD PUSH1 0x1 PUSH1 0x1 PUSH1 0xA0 SHL SUB NOT AND PUSH1 0x1 PUSH1 0x1 PUSH1 0xA0 SHL SUB SWAP1 SWAP2 AND OR DUP2 SSTORE SWAP2 DUP4 ADD MLOAD PUSH1 0x1 DUP4 ADD SWAP2 POP PUSH2 0x18FB SWAP1 DUP3 PUSH2 0x37A9 JUMP JUMPDEST POP PUSH1 0x40 DUP3 ADD MLOAD PUSH1 0x2 DUP3 ADD SSTORE PUSH1 0x60 DUP3 ADD MLOAD PUSH1 0x3 DUP3 ADD DUP1 SLOAD PUSH1 0x80 DUP6 ADD MLOAD PUSH1 0x1 PUSH1 0x1 PUSH1 0xA0 SHL SUB AND PUSH2 0x100 MUL PUSH2 0x100 PUSH1 0x1 PUSH1 0xA8 SHL SUB NOT SWAP4 ISZERO ISZERO SWAP4 SWAP1 SWAP4 AND PUSH1 0x1 PUSH1 0x1 PUSH1 0xA8 SHL SUB NOT SWAP1 SWAP2 AND OR SWAP2 SWAP1 SWAP2 OR SWAP1 SSTORE PUSH1 0xA0 DUP3 ADD MLOAD PUSH1 0x4 DUP3 ADD SWAP1 PUSH2 0x195B SWAP1 DUP3 PUSH2 0x37A9 JUMP JUMPDEST POP SWAP1 POP POP CALLER PUSH1 0x1 PUSH1 0x1 PUSH1 0xA0 SHL SUB AND DUP8 PUSH32 0x1B84372106D77C6DAEA0DDA35BBC0229D10A83F58EC899092884925193682341 DUP9 DUP9 PUSH1 0x40 MLOAD PUSH2 0x199B SWAP3 SWAP2 SWAP1 PUSH2 0x3718 JUMP JUMPDEST PUSH1 0x40 MLOAD DUP1 SWAP2 SUB SWAP1 LOG3 POP POP POP POP PUSH2 0xC25 PUSH1 0x1 PUSH1 0x0 SSTORE JUMP JUMPDEST PUSH2 0x19B9 PUSH2 0x3003 JUMP JUMPDEST DUP2 PUSH1 0x6 SLOAD DUP2 LT PUSH2 0x19DB JUMPI PUSH1 0x40 MLOAD PUSH3 0x461BCD PUSH1 0xE5 SHL DUP2 MSTORE PUSH1 0x4 ADD PUSH2 0x53B SWAP1 PUSH2 0x3557 JUMP JUMPDEST PUSH1 0x0 DUP4 DUP2 MSTORE PUSH1 0x3 PUSH1 0x20 DUP2 DUP2 MSTORE PUSH1 0x40 SWAP3 DUP4 SWAP1 KECCAK256 DUP4 MLOAD PUSH2 0x240 DUP2 ADD DUP6 MSTORE DUP2 SLOAD DUP2 MSTORE PUSH1 0x1 DUP3 ADD SLOAD PUSH1 0x1 PUSH1 0x1 PUSH1 0xA0 SHL SUB SWAP1 DUP2 AND SWAP4 DUP3 ADD SWAP4 SWAP1 SWAP4 MSTORE PUSH1 0x2 DUP3 ADD SLOAD DUP4 AND SWAP5 DUP2 ADD SWAP5 SWAP1 SWAP5 MSTORE SWAP2 DUP3 ADD SLOAD DUP2 AND PUSH1 0x60 DUP5 ADD MSTORE PUSH1 0x4 DUP3 ADD SLOAD DUP2 AND PUSH1 0x80 DUP5 ADD MSTORE PUSH1 0x5 DUP3 ADD SLOAD AND PUSH1 0xA0 DUP4 ADD MSTORE PUSH1 0x6 DUP1 DUP3 ADD SLOAD PUSH1 0xC0 DUP5 ADD MSTORE PUSH1 0x7 DUP3 ADD SLOAD PUSH1 0xE0 DUP5 ADD MSTORE PUSH1 0x8 DUP3 ADD SLOAD PUSH2 0x100 DUP5 ADD MSTORE PUSH1 0x9 DUP3 ADD SLOAD PUSH2 0x120 DUP5 ADD SWAP2 PUSH1 0xFF SWAP1 SWAP2 AND SWAP1 DUP2 GT ISZERO PUSH2 0x1A81 JUMPI PUSH2 0x1A81 PUSH2 0x323F JUMP JUMPDEST PUSH1 0x6 DUP2 GT ISZERO PUSH2 0x1A92 JUMPI PUSH2 0x1A92 PUSH2 0x323F JUMP JUMPDEST DUP2 MSTORE PUSH1 0x20 ADD PUSH1 0xA DUP3 ADD PUSH1 0x40 MLOAD DUP1 PUSH1 0xA0 ADD PUSH1 0x40 MSTORE SWAP1 DUP2 PUSH1 0x0 DUP3 ADD DUP1 SLOAD PUSH2 0x1AB6 SWAP1 PUSH2 0x3582 JUMP JUMPDEST DUP1 PUSH1 0x1F ADD PUSH1 0x20 DUP1 SWAP2 DIV MUL PUSH1 0x20 ADD PUSH1 0x40 MLOAD SWAP1 DUP2 ADD PUSH1 0x40 MSTORE DUP1 SWAP3 SWAP2 SWAP1 DUP2 DUP2 MSTORE PUSH1 0x20 ADD DUP3 DUP1 SLOAD PUSH2 0x1AE2 SWAP1 PUSH2 0x3582 JUMP JUMPDEST DUP1 ISZERO PUSH2 0x1B2F JUMPI DUP1 PUSH1 0x1F LT PUSH2 0x1B04 JUMPI PUSH2 0x100 DUP1 DUP4 SLOAD DIV MUL DUP4 MSTORE SWAP2 PUSH1 0x20 ADD SWAP2 PUSH2 0x1B2F JUMP JUMPDEST DUP3 ADD SWAP2 SWAP1 PUSH1 0x0 MSTORE PUSH1 0x20 PUSH1 0x0 KECCAK256 SWAP1 JUMPDEST DUP2 SLOAD DUP2 MSTORE SWAP1 PUSH1 0x1 ADD SWAP1 PUSH1 0x20 ADD DUP1 DUP4 GT PUSH2 0x1B12 JUMPI DUP3 SWAP1 SUB PUSH1 0x1F AND DUP3 ADD SWAP2 JUMPDEST POP POP POP POP POP DUP2 MSTORE PUSH1 0x20 ADD PUSH1 0x1 DUP3 ADD DUP1 SLOAD PUSH2 0x1B48 SWAP1 PUSH2 0x3582 JUMP JUMPDEST DUP1 PUSH1 0x1F ADD PUSH1 0x20 DUP1 SWAP2 DIV MUL PUSH1 0x20 ADD PUSH1 0x40 MLOAD SWAP1 DUP2 ADD PUSH1 0x40 MSTORE DUP1 SWAP3 SWAP2 SWAP1 DUP2 DUP2 MSTORE PUSH1 0x20 ADD DUP3 DUP1 SLOAD PUSH2 0x1B74 SWAP1 PUSH2 0x3582 JUMP JUMPDEST DUP1 ISZERO PUSH2 0x1BC1 JUMPI DUP1 PUSH1 0x1F LT PUSH2 0x1B96 JUMPI PUSH2 0x100 DUP1 DUP4 SLOAD DIV MUL DUP4 MSTORE SWAP2 PUSH1 0x20 ADD SWAP2 PUSH2 0x1BC1 JUMP JUMPDEST DUP3 ADD SWAP2 SWAP1 PUSH1 0x0 MSTORE PUSH1 0x20 PUSH1 0x0 KECCAK256 SWAP1 JUMPDEST DUP2 SLOAD DUP2 MSTORE SWAP1 PUSH1 0x1 ADD SWAP1 PUSH1 0x20 ADD DUP1 DUP4 GT PUSH2 0x1BA4 JUMPI DUP3 SWAP1 SUB PUSH1 0x1F AND DUP3 ADD SWAP2 JUMPDEST POP POP POP POP POP DUP2 MSTORE PUSH1 0x20 ADD PUSH1 0x2 DUP3 ADD SLOAD DUP2 MSTORE PUSH1 0x20 ADD PUSH1 0x3 DUP3 ADD DUP1 SLOAD PUSH2 0x1BE4 SWAP1 PUSH2 0x3582 JUMP JUMPDEST DUP1 PUSH1 0x1F ADD PUSH1 0x20 DUP1 SWAP2 DIV MUL PUSH1 0x20 ADD PUSH1 0x40 MLOAD SWAP1 DUP2 ADD PUSH1 0x40 MSTORE DUP1 SWAP3 SWAP2 SWAP1 DUP2 DUP2 MSTORE PUSH1 0x20 ADD DUP3 DUP1 SLOAD PUSH2 0x1C10 SWAP1 PUSH2 0x3582 JUMP JUMPDEST DUP1 ISZERO PUSH2 0x1C5D JUMPI DUP1 PUSH1 0x1F LT PUSH2 0x1C32 JUMPI PUSH2 0x100 DUP1 DUP4 SLOAD DIV MUL DUP4 MSTORE SWAP2 PUSH1 0x20 ADD SWAP2 PUSH2 0x1C5D JUMP JUMPDEST DUP3 ADD SWAP2 SWAP1 PUSH1 0x0 MSTORE PUSH1 0x20 PUSH1 0x0 KECCAK256 SWAP1 JUMPDEST DUP2 SLOAD DUP2 MSTORE SWAP1 PUSH1 0x1 ADD SWAP1 PUSH1 0x20 ADD DUP1 DUP4 GT PUSH2 0x1C40 JUMPI DUP3 SWAP1 SUB PUSH1 0x1F AND DUP3 ADD SWAP2 JUMPDEST POP POP POP SWAP2 DUP4 MSTORE POP POP PUSH1 0x4 SWAP2 SWAP1 SWAP2 ADD SLOAD PUSH1 0xFF SWAP1 DUP2 AND ISZERO ISZERO PUSH1 0x20 SWAP3 DUP4 ADD MSTORE SWAP2 DUP4 MSTORE PUSH1 0xF DUP5 ADD SLOAD SWAP1 DUP4 ADD MSTORE PUSH1 0x10 DUP4 ADD SLOAD PUSH1 0x40 DUP4 ADD MSTORE PUSH1 0x11 DUP4 ADD SLOAD PUSH1 0x60 DUP4 ADD MSTORE PUSH1 0x12 DUP4 ADD SLOAD DUP1 DUP3 AND ISZERO ISZERO PUSH1 0x80 DUP5 ADD MSTORE PUSH2 0x100 DUP2 DIV DUP3 AND ISZERO ISZERO PUSH1 0xA0 DUP5 ADD MSTORE PUSH3 0x10000 SWAP1 DIV AND ISZERO ISZERO PUSH1 0xC0 DUP3 ADD MSTORE PUSH1 0x13 DUP3 ADD DUP1 SLOAD PUSH1 0xE0 SWAP1 SWAP3 ADD SWAP2 PUSH2 0x1CD9 SWAP1 PUSH2 0x3582 JUMP JUMPDEST DUP1 PUSH1 0x1F ADD PUSH1 0x20 DUP1 SWAP2 DIV MUL PUSH1 0x20 ADD PUSH1 0x40 MLOAD SWAP1 DUP2 ADD PUSH1 0x40 MSTORE DUP1 SWAP3 SWAP2 SWAP1 DUP2 DUP2 MSTORE PUSH1 0x20 ADD DUP3 DUP1 SLOAD PUSH2 0x1D05 SWAP1 PUSH2 0x3582 JUMP JUMPDEST DUP1 ISZERO PUSH2 0x1D52 JUMPI DUP1 PUSH1 0x1F LT PUSH2 0x1D27 JUMPI PUSH2 0x100 DUP1 DUP4 SLOAD DIV MUL DUP4 MSTORE SWAP2 PUSH1 0x20 ADD SWAP2 PUSH2 0x1D52 JUMP JUMPDEST DUP3 ADD SWAP2 SWAP1 PUSH1 0x0 MSTORE PUSH1 0x20 PUSH1 0x0 KECCAK256 SWAP1 JUMPDEST DUP2 SLOAD DUP2 MSTORE SWAP1 PUSH1 0x1 ADD SWAP1 PUSH1 0x20 ADD DUP1 DUP4 GT PUSH2 0x1D35 JUMPI DUP3 SWAP1 SUB PUSH1 0x1F AND DUP3 ADD SWAP2 JUMPDEST POP POP POP POP POP DUP2 MSTORE POP POP SWAP2 POP POP SWAP2 SWAP1 POP JUMP JUMPDEST PUSH1 0x0 DUP1 MLOAD PUSH1 0x20 PUSH2 0x3A39 DUP4 CODECOPY DUP2 MLOAD SWAP2 MSTORE PUSH2 0x1D7B DUP2 PUSH2 0x2B6D JUMP JUMPDEST PUSH2 0xCCC PUSH2 0x2EF7 JUMP JUMPDEST PUSH1 0x0 SWAP2 DUP3 MSTORE PUSH1 0x2 PUSH1 0x20 SWAP1 DUP2 MSTORE PUSH1 0x40 DUP1 DUP5 KECCAK256 PUSH1 0x1 PUSH1 0x1 PUSH1 0xA0 SHL SUB SWAP4 SWAP1 SWAP4 AND DUP5 MSTORE SWAP2 SWAP1 MSTORE SWAP1 KECCAK256 SLOAD PUSH1 0xFF AND SWAP1 JUMP JUMPDEST PUSH1 0x0 PUSH2 0x1DB8 PUSH2 0x2B77 JUMP JUMPDEST PUSH2 0x1DC0 PUSH2 0x2BA1 JUMP JUMPDEST PUSH1 0x0 PUSH2 0x1DCF PUSH1 0x20 DUP5 ADD DUP5 PUSH2 0x353C JUMP JUMPDEST PUSH1 0x1 PUSH1 0x1 PUSH1 0xA0 SHL SUB AND SUB PUSH2 0x1E1D JUMPI PUSH1 0x40 MLOAD PUSH3 0x461BCD PUSH1 0xE5 SHL DUP2 MSTORE PUSH1 0x20 PUSH1 0x4 DUP3 ADD MSTORE PUSH1 0x15 PUSH1 0x24 DUP3 ADD MSTORE PUSH21 0x496E76616C69642062757965722061646472657373 PUSH1 0x58 SHL PUSH1 0x44 DUP3 ADD MSTORE PUSH1 0x64 ADD PUSH2 0x53B JUMP JUMPDEST PUSH1 0x0 PUSH2 0x1E2F PUSH1 0x40 DUP5 ADD PUSH1 0x20 DUP6 ADD PUSH2 0x353C JUMP JUMPDEST PUSH1 0x1 PUSH1 0x1 PUSH1 0xA0 SHL SUB AND SUB PUSH2 0x1E7E JUMPI PUSH1 0x40 MLOAD PUSH3 0x461BCD PUSH1 0xE5 SHL DUP2 MSTORE PUSH1 0x20 PUSH1 0x4 DUP3 ADD MSTORE PUSH1 0x16 PUSH1 0x24 DUP3 ADD MSTORE PUSH22 0x496E76616C69642073656C6C65722061646472657373 PUSH1 0x50 SHL PUSH1 0x44 DUP3 ADD MSTORE PUSH1 0x64 ADD PUSH2 0x53B JUMP JUMPDEST PUSH2 0x1E8E PUSH1 0x40 DUP4 ADD PUSH1 0x20 DUP5 ADD PUSH2 0x353C JUMP JUMPDEST PUSH1 0x1 PUSH1 0x1 PUSH1 0xA0 SHL SUB AND PUSH2 0x1EA4 PUSH1 0x20 DUP5 ADD DUP5 PUSH2 0x353C JUMP JUMPDEST PUSH1 0x1 PUSH1 0x1 PUSH1 0xA0 SHL SUB AND SUB PUSH2 0x1F05 JUMPI PUSH1 0x40 MLOAD PUSH3 0x461BCD PUSH1 0xE5 SHL DUP2 MSTORE PUSH1 0x20 PUSH1 0x4 DUP3 ADD MSTORE PUSH1 0x22 PUSH1 0x24 DUP3 ADD MSTORE PUSH32 0x427579657220616E642073656C6C6572206D7573742062652064696666657265 PUSH1 0x44 DUP3 ADD MSTORE PUSH2 0x1B9D PUSH1 0xF2 SHL PUSH1 0x64 DUP3 ADD MSTORE PUSH1 0x84 ADD PUSH2 0x53B JUMP JUMPDEST PUSH1 0x0 PUSH2 0x1F17 PUSH1 0xA0 DUP5 ADD PUSH1 0x80 DUP6 ADD PUSH2 0x353C JUMP JUMPDEST PUSH1 0x1 PUSH1 0x1 PUSH1 0xA0 SHL SUB AND SUB PUSH2 0x1F65 JUMPI PUSH1 0x40 MLOAD PUSH3 0x461BCD PUSH1 0xE5 SHL DUP2 MSTORE PUSH1 0x20 PUSH1 0x4 DUP3 ADD MSTORE PUSH1 0x15 PUSH1 0x24 DUP3 ADD MSTORE PUSH21 0x496E76616C696420746F6B656E2061646472657373 PUSH1 0x58 SHL PUSH1 0x44 DUP3 ADD MSTORE PUSH1 0x64 ADD PUSH2 0x53B JUMP JUMPDEST PUSH1 0x5 PUSH1 0x0 PUSH2 0x1F79 PUSH1 0xA0 DUP6 ADD PUSH1 0x80 DUP7 ADD PUSH2 0x353C JUMP JUMPDEST PUSH1 0x1 PUSH1 0x1 PUSH1 0xA0 SHL SUB AND DUP2 MSTORE PUSH1 0x20 DUP2 ADD SWAP2 SWAP1 SWAP2 MSTORE PUSH1 0x40 ADD PUSH1 0x0 KECCAK256 SLOAD PUSH1 0xFF AND PUSH2 0x1FDA JUMPI PUSH1 0x40 MLOAD PUSH3 0x461BCD PUSH1 0xE5 SHL DUP2 MSTORE PUSH1 0x20 PUSH1 0x4 DUP3 ADD MSTORE PUSH1 0x15 PUSH1 0x24 DUP3 ADD MSTORE PUSH21 0x151BDAD95B881B9BDD081DDA1A5D195B1A5CDD1959 PUSH1 0x5A SHL PUSH1 0x44 DUP3 ADD MSTORE PUSH1 0x64 ADD PUSH2 0x53B JUMP JUMPDEST PUSH1 0x0 DUP3 PUSH1 0xA0 ADD CALLDATALOAD GT PUSH2 0x202E JUMPI PUSH1 0x40 MLOAD PUSH3 0x461BCD PUSH1 0xE5 SHL DUP2 MSTORE PUSH1 0x20 PUSH1 0x4 DUP3 ADD MSTORE PUSH1 0x1F PUSH1 0x24 DUP3 ADD MSTORE PUSH32 0x4465706F73697420616D6F756E74206D75737420626520706F73697469766500 PUSH1 0x44 DUP3 ADD MSTORE PUSH1 0x64 ADD PUSH2 0x53B JUMP JUMPDEST TIMESTAMP DUP3 PUSH2 0x120 ADD CALLDATALOAD GT PUSH2 0x2082 JUMPI PUSH1 0x40 MLOAD PUSH3 0x461BCD PUSH1 0xE5 SHL DUP2 MSTORE PUSH1 0x20 PUSH1 0x4 DUP3 ADD MSTORE PUSH1 0x18 PUSH1 0x24 DUP3 ADD MSTORE PUSH32 0x496E76616C6964206465706F73697420646561646C696E650000000000000000 PUSH1 0x44 DUP3 ADD MSTORE PUSH1 0x64 ADD PUSH2 0x53B JUMP JUMPDEST DUP2 PUSH2 0x120 ADD CALLDATALOAD DUP3 PUSH2 0x140 ADD CALLDATALOAD GT PUSH2 0x20DB JUMPI PUSH1 0x40 MLOAD PUSH3 0x461BCD PUSH1 0xE5 SHL DUP2 MSTORE PUSH1 0x20 PUSH1 0x4 DUP3 ADD MSTORE PUSH1 0x1D PUSH1 0x24 DUP3 ADD MSTORE PUSH32 0x496E76616C696420766572696669636174696F6E20646561646C696E65000000 PUSH1 0x44 DUP3 ADD MSTORE PUSH1 0x64 ADD PUSH2 0x53B JUMP JUMPDEST PUSH1 0x0 PUSH2 0x20EB PUSH2 0x100 DUP5 ADD DUP5 PUSH2 0x3863 JUMP JUMPDEST PUSH2 0x20F5 SWAP1 DUP1 PUSH2 0x3883 JUMP JUMPDEST SWAP1 POP GT PUSH2 0x213B JUMPI PUSH1 0x40 MLOAD PUSH3 0x461BCD PUSH1 0xE5 SHL DUP2 MSTORE PUSH1 0x20 PUSH1 0x4 DUP3 ADD MSTORE PUSH1 0x14 PUSH1 0x24 DUP3 ADD MSTORE PUSH20 0x141C9BDC195C9D1E481251081C995C5D5A5C9959 PUSH1 0x62 SHL PUSH1 0x44 DUP3 ADD MSTORE PUSH1 0x64 ADD PUSH2 0x53B JUMP JUMPDEST PUSH1 0x6 DUP1 SLOAD PUSH1 0x0 SWAP2 DUP3 PUSH2 0x214C DUP4 PUSH2 0x38CA JUMP JUMPDEST SWAP1 SWAP2 SSTORE POP PUSH1 0x0 DUP2 DUP2 MSTORE PUSH1 0x3 PUSH1 0x20 SWAP1 DUP2 MSTORE PUSH1 0x40 SWAP1 SWAP2 KECCAK256 DUP3 DUP2 SSTORE SWAP2 SWAP3 POP PUSH2 0x2173 SWAP1 DUP6 ADD DUP6 PUSH2 0x353C JUMP JUMPDEST PUSH1 0x1 DUP3 ADD DUP1 SLOAD PUSH1 0x1 PUSH1 0x1 PUSH1 0xA0 SHL SUB NOT AND PUSH1 0x1 PUSH1 0x1 PUSH1 0xA0 SHL SUB SWAP3 SWAP1 SWAP3 AND SWAP2 SWAP1 SWAP2 OR SWAP1 SSTORE PUSH2 0x21A5 PUSH1 0x40 DUP6 ADD PUSH1 0x20 DUP7 ADD PUSH2 0x353C JUMP JUMPDEST PUSH1 0x2 DUP3 ADD DUP1 SLOAD PUSH1 0x1 PUSH1 0x1 PUSH1 0xA0 SHL SUB NOT AND PUSH1 0x1 PUSH1 0x1 PUSH1 0xA0 SHL SUB SWAP3 SWAP1 SWAP3 AND SWAP2 SWAP1 SWAP2 OR SWAP1 SSTORE PUSH2 0x21D7 PUSH1 0x60 DUP6 ADD PUSH1 0x40 DUP7 ADD PUSH2 0x353C JUMP JUMPDEST PUSH1 0x3 DUP3 ADD DUP1 SLOAD PUSH1 0x1 PUSH1 0x1 PUSH1 0xA0 SHL SUB NOT AND PUSH1 0x1 PUSH1 0x1 PUSH1 0xA0 SHL SUB SWAP3 SWAP1 SWAP3 AND SWAP2 SWAP1 SWAP2 OR SWAP1 SSTORE PUSH2 0x2209 PUSH1 0x80 DUP6 ADD PUSH1 0x60 DUP7 ADD PUSH2 0x353C JUMP JUMPDEST PUSH1 0x4 DUP3 ADD DUP1 SLOAD PUSH1 0x1 PUSH1 0x1 PUSH1 0xA0 SHL SUB NOT AND PUSH1 0x1 PUSH1 0x1 PUSH1 0xA0 SHL SUB SWAP3 SWAP1 SWAP3 AND SWAP2 SWAP1 SWAP2 OR SWAP1 SSTORE PUSH2 0x223B PUSH1 0xA0 DUP6 ADD PUSH1 0x80 DUP7 ADD PUSH2 0x353C JUMP JUMPDEST PUSH1 0x5 DUP3 ADD DUP1 SLOAD PUSH1 0x1 PUSH1 0x1 PUSH1 0xA0 SHL SUB NOT AND PUSH1 0x1 PUSH1 0x1 PUSH1 0xA0 SHL SUB SWAP3 SWAP1 SWAP3 AND SWAP2 SWAP1 SWAP2 OR SWAP1 SSTORE PUSH1 0xA0 DUP5 ADD CALLDATALOAD PUSH1 0x6 DUP3 ADD SSTORE PUSH1 0xC0 DUP5 ADD CALLDATALOAD PUSH1 0x7 DUP3 ADD SSTORE PUSH1 0xE0 DUP5 ADD CALLDATALOAD PUSH1 0x8 DUP3 ADD SSTORE PUSH1 0x9 DUP2 ADD DUP1 SLOAD PUSH1 0xFF NOT AND SWAP1 SSTORE PUSH2 0x2295 PUSH2 0x100 DUP6 ADD DUP6 PUSH2 0x3863 JUMP JUMPDEST PUSH1 0xA DUP3 ADD PUSH2 0x22A3 DUP3 DUP3 PUSH2 0x38F0 JUMP JUMPDEST POP POP TIMESTAMP PUSH1 0xF DUP3 ADD SSTORE PUSH2 0x120 DUP5 ADD CALLDATALOAD PUSH1 0x10 DUP3 ADD SSTORE PUSH2 0x140 DUP5 ADD CALLDATALOAD PUSH1 0x11 DUP3 ADD SSTORE PUSH2 0x22D1 PUSH1 0x40 DUP6 ADD PUSH1 0x20 DUP7 ADD PUSH2 0x353C JUMP JUMPDEST PUSH1 0x1 PUSH1 0x1 PUSH1 0xA0 SHL SUB AND PUSH2 0x22E7 PUSH1 0x20 DUP7 ADD DUP7 PUSH2 0x353C JUMP JUMPDEST PUSH1 0x1 PUSH1 0x1 PUSH1 0xA0 SHL SUB AND DUP4 PUSH32 0x9405AD0A6208539879349284D71265479B1623846F70303DA1F9890D6E8C10A7 DUP8 PUSH1 0xA0 ADD CALLDATALOAD PUSH1 0x40 MLOAD PUSH2 0x2326 SWAP2 DUP2 MSTORE PUSH1 0x20 ADD SWAP1 JUMP JUMPDEST PUSH1 0x40 MLOAD DUP1 SWAP2 SUB SWAP1 LOG4 POP SWAP1 POP PUSH2 0x233B PUSH1 0x1 PUSH1 0x0 SSTORE JUMP JUMPDEST SWAP2 SWAP1 POP JUMP JUMPDEST PUSH2 0x2348 PUSH2 0x2B77 JUMP JUMPDEST PUSH2 0x2350 PUSH2 0x2BA1 JUMP JUMPDEST DUP1 PUSH1 0x6 SLOAD DUP2 LT PUSH2 0x2372 JUMPI PUSH1 0x40 MLOAD PUSH3 0x461BCD PUSH1 0xE5 SHL DUP2 MSTORE PUSH1 0x4 ADD PUSH2 0x53B SWAP1 PUSH2 0x3557 JUMP JUMPDEST DUP2 PUSH1 0x2 DUP1 PUSH1 0x0 DUP4 DUP2 MSTORE PUSH1 0x3 PUSH1 0x20 MSTORE PUSH1 0x40 SWAP1 KECCAK256 PUSH1 0x9 ADD SLOAD PUSH1 0xFF AND PUSH1 0x6 DUP2 GT ISZERO PUSH2 0x239C JUMPI PUSH2 0x239C PUSH2 0x323F JUMP JUMPDEST EQ PUSH2 0x23B9 JUMPI PUSH1 0x40 MLOAD PUSH3 0x461BCD PUSH1 0xE5 SHL DUP2 MSTORE PUSH1 0x4 ADD PUSH2 0x53B SWAP1 PUSH2 0x35B6 JUMP JUMPDEST PUSH1 0x0 DUP5 DUP2 MSTORE PUSH1 0x3 PUSH1 0x20 MSTORE PUSH1 0x40 DUP2 KECCAK256 PUSH1 0x1 DUP2 ADD SLOAD SWAP1 SWAP2 SWAP1 PUSH1 0x1 PUSH1 0x1 PUSH1 0xA0 SHL SUB AND CALLER SUB PUSH2 0x2443 JUMPI PUSH1 0x12 DUP3 ADD SLOAD PUSH1 0xFF AND ISZERO PUSH2 0x242C JUMPI PUSH1 0x40 MLOAD PUSH3 0x461BCD PUSH1 0xE5 SHL DUP2 MSTORE PUSH1 0x20 PUSH1 0x4 DUP3 ADD MSTORE PUSH1 0x16 PUSH1 0x24 DUP3 ADD MSTORE PUSH22 0x109D5E595C88185B1C9958591E48185C1C1C9BDD9959 PUSH1 0x52 SHL PUSH1 0x44 DUP3 ADD MSTORE PUSH1 0x64 ADD PUSH2 0x53B JUMP JUMPDEST POP PUSH1 0x12 DUP2 ADD DUP1 SLOAD PUSH1 0xFF NOT AND PUSH1 0x1 OR SWAP1 SSTORE PUSH1 0x0 PUSH2 0x2595 JUMP JUMPDEST PUSH1 0x2 DUP3 ADD SLOAD PUSH1 0x1 PUSH1 0x1 PUSH1 0xA0 SHL SUB AND CALLER SUB PUSH2 0x24CA JUMPI PUSH1 0x12 DUP3 ADD SLOAD PUSH2 0x100 SWAP1 DIV PUSH1 0xFF AND ISZERO PUSH2 0x24B1 JUMPI PUSH1 0x40 MLOAD PUSH3 0x461BCD PUSH1 0xE5 SHL DUP2 MSTORE PUSH1 0x20 PUSH1 0x4 DUP3 ADD MSTORE PUSH1 0x17 PUSH1 0x24 DUP3 ADD MSTORE PUSH32 0x53656C6C657220616C726561647920617070726F766564000000000000000000 PUSH1 0x44 DUP3 ADD MSTORE PUSH1 0x64 ADD PUSH2 0x53B JUMP JUMPDEST POP PUSH1 0x12 DUP2 ADD DUP1 SLOAD PUSH2 0xFF00 NOT AND PUSH2 0x100 OR SWAP1 SSTORE PUSH1 0x1 PUSH2 0x2595 JUMP JUMPDEST PUSH1 0x3 DUP3 ADD SLOAD PUSH1 0x1 PUSH1 0x1 PUSH1 0xA0 SHL SUB AND CALLER SUB PUSH2 0x254D JUMPI PUSH1 0x12 DUP3 ADD SLOAD PUSH3 0x10000 SWAP1 DIV PUSH1 0xFF AND ISZERO PUSH2 0x2532 JUMPI PUSH1 0x40 MLOAD PUSH3 0x461BCD PUSH1 0xE5 SHL DUP2 MSTORE PUSH1 0x20 PUSH1 0x4 DUP3 ADD MSTORE PUSH1 0x16 PUSH1 0x24 DUP3 ADD MSTORE PUSH22 0x1059D95B9D08185B1C9958591E48185C1C1C9BDD9959 PUSH1 0x52 SHL PUSH1 0x44 DUP3 ADD MSTORE PUSH1 0x64 ADD PUSH2 0x53B JUMP JUMPDEST POP PUSH1 0x12 DUP2 ADD DUP1 SLOAD PUSH3 0xFF0000 NOT AND PUSH3 0x10000 OR SWAP1 SSTORE PUSH1 0x2 PUSH2 0x2595 JUMP JUMPDEST PUSH1 0x40 MLOAD PUSH3 0x461BCD PUSH1 0xE5 SHL DUP2 MSTORE PUSH1 0x20 PUSH1 0x4 DUP3 ADD MSTORE PUSH1 0x19 PUSH1 0x24 DUP3 ADD MSTORE PUSH32 0x4E6F7420617574686F72697A656420746F20617070726F766500000000000000 PUSH1 0x44 DUP3 ADD MSTORE PUSH1 0x64 ADD PUSH2 0x53B JUMP JUMPDEST CALLER PUSH1 0x1 PUSH1 0x1 PUSH1 0xA0 SHL SUB AND DUP7 PUSH32 0x8C76BB4D0D0276699B16A2E9464B50CAD045B0200B9BC632AE3A5D57077FA264 DUP4 PUSH1 0x40 MLOAD PUSH2 0x25CF SWAP2 SWAP1 PUSH2 0x3A1E JUMP JUMPDEST PUSH1 0x40 MLOAD DUP1 SWAP2 SUB SWAP1 LOG3 POP POP POP POP POP PUSH2 0xCCC PUSH1 0x1 PUSH1 0x0 SSTORE JUMP JUMPDEST PUSH1 0x0 DUP1 MLOAD PUSH1 0x20 PUSH2 0x3A39 DUP4 CODECOPY DUP2 MLOAD SWAP2 MSTORE PUSH2 0x25FE DUP2 PUSH2 0x2B6D JUMP JUMPDEST PUSH2 0xC25 PUSH1 0x1 PUSH1 0x1 PUSH1 0xA0 SHL SUB DUP5 AND CALLER DUP5 PUSH2 0x2EC6 JUMP JUMPDEST PUSH1 0x0 DUP3 DUP2 MSTORE PUSH1 0x2 PUSH1 0x20 MSTORE PUSH1 0x40 SWAP1 KECCAK256 PUSH1 0x1 ADD SLOAD PUSH2 0x262D DUP2 PUSH2 0x2B6D JUMP JUMPDEST PUSH2 0xBC7 DUP4 DUP4 PUSH2 0x2DA0 JUMP JUMPDEST PUSH2 0x263F PUSH2 0x2B77 JUMP JUMPDEST PUSH2 0x2647 PUSH2 0x2BA1 JUMP JUMPDEST DUP1 PUSH1 0x6 SLOAD DUP2 LT PUSH2 0x2669 JUMPI PUSH1 0x40 MLOAD PUSH3 0x461BCD PUSH1 0xE5 SHL DUP2 MSTORE PUSH1 0x4 ADD PUSH2 0x53B SWAP1 PUSH2 0x3557 JUMP JUMPDEST DUP2 PUSH1 0x0 DUP1 PUSH1 0x0 DUP4 DUP2 MSTORE PUSH1 0x3 PUSH1 0x20 MSTORE PUSH1 0x40 SWAP1 KECCAK256 PUSH1 0x9 ADD SLOAD PUSH1 0xFF AND PUSH1 0x6 DUP2 GT ISZERO PUSH2 0x2693 JUMPI PUSH2 0x2693 PUSH2 0x323F JUMP JUMPDEST EQ PUSH2 0x26B0 JUMPI PUSH1 0x40 MLOAD PUSH3 0x461BCD PUSH1 0xE5 SHL DUP2 MSTORE PUSH1 0x4 ADD PUSH2 0x53B SWAP1 PUSH2 0x35B6 JUMP JUMPDEST PUSH1 0x0 DUP5 DUP2 MSTORE PUSH1 0x3 PUSH1 0x20 DUP2 DUP2 MSTORE PUSH1 0x40 DUP1 DUP5 KECCAK256 DUP2 MLOAD PUSH2 0x240 DUP2 ADD DUP4 MSTORE DUP2 SLOAD DUP2 MSTORE PUSH1 0x1 DUP3 ADD SLOAD PUSH1 0x1 PUSH1 0x1 PUSH1 0xA0 SHL SUB SWAP1 DUP2 AND SWAP5 DUP3 ADD SWAP5 SWAP1 SWAP5 MSTORE PUSH1 0x2 DUP3 ADD SLOAD DUP5 AND SWAP3 DUP2 ADD SWAP3 SWAP1 SWAP3 MSTORE SWAP3 DUP4 ADD SLOAD DUP3 AND PUSH1 0x60 DUP3 ADD MSTORE PUSH1 0x4 DUP4 ADD SLOAD DUP3 AND PUSH1 0x80 DUP3 ADD MSTORE PUSH1 0x5 DUP4 ADD SLOAD SWAP1 SWAP2 AND PUSH1 0xA0 DUP3 ADD MSTORE PUSH1 0x6 DUP1 DUP4 ADD SLOAD PUSH1 0xC0 DUP4 ADD MSTORE PUSH1 0x7 DUP4 ADD SLOAD PUSH1 0xE0 DUP4 ADD MSTORE PUSH1 0x8 DUP4 ADD SLOAD PUSH2 0x100 DUP4 ADD MSTORE PUSH1 0x9 DUP4 ADD SLOAD DUP9 SWAP5 SWAP4 SWAP2 PUSH2 0x120 DUP5 ADD SWAP2 PUSH1 0xFF AND SWAP1 DUP2 GT ISZERO PUSH2 0x2759 JUMPI PUSH2 0x2759 PUSH2 0x323F JUMP JUMPDEST PUSH1 0x6 DUP2 GT ISZERO PUSH2 0x276A JUMPI PUSH2 0x276A PUSH2 0x323F JUMP JUMPDEST DUP2 MSTORE PUSH1 0x20 ADD PUSH1 0xA DUP3 ADD PUSH1 0x40 MLOAD DUP1 PUSH1 0xA0 ADD PUSH1 0x40 MSTORE SWAP1 DUP2 PUSH1 0x0 DUP3 ADD DUP1 SLOAD PUSH2 0x278E SWAP1 PUSH2 0x3582 JUMP JUMPDEST DUP1 PUSH1 0x1F ADD PUSH1 0x20 DUP1 SWAP2 DIV MUL PUSH1 0x20 ADD PUSH1 0x40 MLOAD SWAP1 DUP2 ADD PUSH1 0x40 MSTORE DUP1 SWAP3 SWAP2 SWAP1 DUP2 DUP2 MSTORE PUSH1 0x20 ADD DUP3 DUP1 SLOAD PUSH2 0x27BA SWAP1 PUSH2 0x3582 JUMP JUMPDEST DUP1 ISZERO PUSH2 0x2807 JUMPI DUP1 PUSH1 0x1F LT PUSH2 0x27DC JUMPI PUSH2 0x100 DUP1 DUP4 SLOAD DIV MUL DUP4 MSTORE SWAP2 PUSH1 0x20 ADD SWAP2 PUSH2 0x2807 JUMP JUMPDEST DUP3 ADD SWAP2 SWAP1 PUSH1 0x0 MSTORE PUSH1 0x20 PUSH1 0x0 KECCAK256 SWAP1 JUMPDEST DUP2 SLOAD DUP2 MSTORE SWAP1 PUSH1 0x1 ADD SWAP1 PUSH1 0x20 ADD DUP1 DUP4 GT PUSH2 0x27EA JUMPI DUP3 SWAP1 SUB PUSH1 0x1F AND DUP3 ADD SWAP2 JUMPDEST POP POP POP POP POP DUP2 MSTORE PUSH1 0x20 ADD PUSH1 0x1 DUP3 ADD DUP1 SLOAD PUSH2 0x2820 SWAP1 PUSH2 0x3582 JUMP JUMPDEST DUP1 PUSH1 0x1F ADD PUSH1 0x20 DUP1 SWAP2 DIV MUL PUSH1 0x20 ADD PUSH1 0x40 MLOAD SWAP1 DUP2 ADD PUSH1 0x40 MSTORE DUP1 SWAP3 SWAP2 SWAP1 DUP2 DUP2 MSTORE PUSH1 0x20 ADD DUP3 DUP1 SLOAD PUSH2 0x284C SWAP1 PUSH2 0x3582 JUMP JUMPDEST DUP1 ISZERO PUSH2 0x2899 JUMPI DUP1 PUSH1 0x1F LT PUSH2 0x286E JUMPI PUSH2 0x100 DUP1 DUP4 SLOAD DIV MUL DUP4 MSTORE SWAP2 PUSH1 0x20 ADD SWAP2 PUSH2 0x2899 JUMP JUMPDEST DUP3 ADD SWAP2 SWAP1 PUSH1 0x0 MSTORE PUSH1 0x20 PUSH1 0x0 KECCAK256 SWAP1 JUMPDEST DUP2 SLOAD DUP2 MSTORE SWAP1 PUSH1 0x1 ADD SWAP1 PUSH1 0x20 ADD DUP1 DUP4 GT PUSH2 0x287C JUMPI DUP3 SWAP1 SUB PUSH1 0x1F AND DUP3 ADD SWAP2 JUMPDEST POP POP POP POP POP DUP2 MSTORE PUSH1 0x20 ADD PUSH1 0x2 DUP3 ADD SLOAD DUP2 MSTORE PUSH1 0x20 ADD PUSH1 0x3 DUP3 ADD DUP1 SLOAD PUSH2 0x28BC SWAP1 PUSH2 0x3582 JUMP JUMPDEST DUP1 PUSH1 0x1F ADD PUSH1 0x20 DUP1 SWAP2 DIV MUL PUSH1 0x20 ADD PUSH1 0x40 MLOAD SWAP1 DUP2 ADD PUSH1 0x40 MSTORE DUP1 SWAP3 SWAP2 SWAP1 DUP2 DUP2 MSTORE PUSH1 0x20 ADD DUP3 DUP1 SLOAD PUSH2 0x28E8 SWAP1 PUSH2 0x3582 JUMP JUMPDEST DUP1 ISZERO PUSH2 0x2935 JUMPI DUP1 PUSH1 0x1F LT PUSH2 0x290A JUMPI PUSH2 0x100 DUP1 DUP4 SLOAD DIV MUL DUP4 MSTORE SWAP2 PUSH1 0x20 ADD SWAP2 PUSH2 0x2935 JUMP JUMPDEST DUP3 ADD SWAP2 SWAP1 PUSH1 0x0 MSTORE PUSH1 0x20 PUSH1 0x0 KECCAK256 SWAP1 JUMPDEST DUP2 SLOAD DUP2 MSTORE SWAP1 PUSH1 0x1 ADD SWAP1 PUSH1 0x20 ADD DUP1 DUP4 GT PUSH2 0x2918 JUMPI DUP3 SWAP1 SUB PUSH1 0x1F AND DUP3 ADD SWAP2 JUMPDEST POP POP POP SWAP2 DUP4 MSTORE POP POP PUSH1 0x4 SWAP2 SWAP1 SWAP2 ADD SLOAD PUSH1 0xFF SWAP1 DUP2 AND ISZERO ISZERO PUSH1 0x20 SWAP3 DUP4 ADD MSTORE SWAP2 DUP4 MSTORE PUSH1 0xF DUP5 ADD SLOAD SWAP1 DUP4 ADD MSTORE PUSH1 0x10 DUP4 ADD SLOAD PUSH1 0x40 DUP4 ADD MSTORE PUSH1 0x11 DUP4 ADD SLOAD PUSH1 0x60 DUP4 ADD MSTORE PUSH1 0x12 DUP4 ADD SLOAD DUP1 DUP3 AND ISZERO ISZERO PUSH1 0x80 DUP5 ADD MSTORE PUSH2 0x100 DUP2 DIV DUP3 AND ISZERO ISZERO PUSH1 0xA0 DUP5 ADD MSTORE PUSH3 0x10000 SWAP1 DIV AND ISZERO ISZERO PUSH1 0xC0 DUP3 ADD MSTORE PUSH1 0x13 DUP3 ADD DUP1 SLOAD PUSH1 0xE0 SWAP1 SWAP3 ADD SWAP2 PUSH2 0x29B1 SWAP1 PUSH2 0x3582 JUMP JUMPDEST DUP1 PUSH1 0x1F ADD PUSH1 0x20 DUP1 SWAP2 DIV MUL PUSH1 0x20 ADD PUSH1 0x40 MLOAD SWAP1 DUP2 ADD PUSH1 0x40 MSTORE DUP1 SWAP3 SWAP2 SWAP1 DUP2 DUP2 MSTORE PUSH1 0x20 ADD DUP3 DUP1 SLOAD PUSH2 0x29DD SWAP1 PUSH2 0x3582 JUMP JUMPDEST DUP1 ISZERO PUSH2 0x2A2A JUMPI DUP1 PUSH1 0x1F LT PUSH2 0x29FF JUMPI PUSH2 0x100 DUP1 DUP4 SLOAD DIV MUL DUP4 MSTORE SWAP2 PUSH1 0x20 ADD SWAP2 PUSH2 0x2A2A JUMP JUMPDEST DUP3 ADD SWAP2 SWAP1 PUSH1 0x0 MSTORE PUSH1 0x20 PUSH1 0x0 KECCAK256 SWAP1 JUMPDEST DUP2 SLOAD DUP2 MSTORE SWAP1 PUSH1 0x1 ADD SWAP1 PUSH1 0x20 ADD DUP1 DUP4 GT PUSH2 0x2A0D JUMPI DUP3 SWAP1 SUB PUSH1 0x1F AND DUP3 ADD SWAP2 JUMPDEST POP POP POP POP POP DUP2 MSTORE POP POP SWAP1 POP DUP1 PUSH1 0x20 ADD MLOAD PUSH1 0x1 PUSH1 0x1 PUSH1 0xA0 SHL SUB AND CALLER PUSH1 0x1 PUSH1 0x1 PUSH1 0xA0 SHL SUB AND EQ DUP1 PUSH2 0x2A6E JUMPI POP DUP1 PUSH1 0x40 ADD MLOAD PUSH1 0x1 PUSH1 0x1 PUSH1 0xA0 SHL SUB AND CALLER PUSH1 0x1 PUSH1 0x1 PUSH1 0xA0 SHL SUB AND EQ JUMPDEST DUP1 PUSH2 0x2A8E JUMPI POP DUP1 PUSH1 0x60 ADD MLOAD PUSH1 0x1 PUSH1 0x1 PUSH1 0xA0 SHL SUB AND CALLER PUSH1 0x1 PUSH1 0x1 PUSH1 0xA0 SHL SUB AND EQ JUMPDEST DUP1 PUSH2 0x2AAE JUMPI POP DUP1 PUSH1 0x80 ADD MLOAD PUSH1 0x1 PUSH1 0x1 PUSH1 0xA0 SHL SUB AND CALLER PUSH1 0x1 PUSH1 0x1 PUSH1 0xA0 SHL SUB AND EQ JUMPDEST DUP1 PUSH2 0x2ACC JUMPI POP PUSH2 0x2ACC PUSH1 0x0 DUP1 MLOAD PUSH1 0x20 PUSH2 0x3A39 DUP4 CODECOPY DUP2 MLOAD SWAP2 MSTORE CALLER PUSH2 0x1D83 JUMP JUMPDEST PUSH2 0x2B18 JUMPI PUSH1 0x40 MLOAD PUSH3 0x461BCD PUSH1 0xE5 SHL DUP2 MSTORE PUSH1 0x20 PUSH1 0x4 DUP3 ADD MSTORE PUSH1 0x1E PUSH1 0x24 DUP3 ADD MSTORE PUSH32 0x4E6F7420617574686F72697A656420666F72207468697320657363726F770000 PUSH1 0x44 DUP3 ADD MSTORE PUSH1 0x64 ADD PUSH2 0x53B JUMP JUMPDEST PUSH1 0x0 DUP7 DUP2 MSTORE PUSH1 0x3 PUSH1 0x20 MSTORE PUSH1 0x40 DUP1 DUP3 KECCAK256 PUSH1 0x9 ADD DUP1 SLOAD PUSH1 0xFF NOT AND PUSH1 0x6 OR SWAP1 SSTORE MLOAD CALLER SWAP2 DUP9 SWAP2 PUSH32 0x6F44C80719CB2F74BDBD68B7AF10147ACB9B52E2675AD02F9C87F09859959938 SWAP2 SWAP1 LOG3 POP POP POP POP POP PUSH2 0xCCC PUSH1 0x1 PUSH1 0x0 SSTORE JUMP JUMPDEST PUSH2 0xCCC DUP2 CALLER PUSH2 0x2F32 JUMP JUMPDEST PUSH1 0x2 PUSH1 0x0 SLOAD SUB PUSH2 0x2B9A JUMPI PUSH1 0x40 MLOAD PUSH4 0x3EE5AEB5 PUSH1 0xE0 SHL DUP2 MSTORE PUSH1 0x4 ADD PUSH1 0x40 MLOAD DUP1 SWAP2 SUB SWAP1 REVERT JUMPDEST PUSH1 0x2 PUSH1 0x0 SSTORE JUMP JUMPDEST PUSH1 0x1 SLOAD PUSH1 0xFF AND ISZERO PUSH2 0x2BC5 JUMPI PUSH1 0x40 MLOAD PUSH4 0xD93C0665 PUSH1 0xE0 SHL DUP2 MSTORE PUSH1 0x4 ADD PUSH1 0x40 MLOAD DUP1 SWAP2 SUB SWAP1 REVERT JUMPDEST JUMP JUMPDEST PUSH1 0x0 DUP2 DUP2 MSTORE PUSH1 0x3 PUSH1 0x20 MSTORE PUSH1 0x40 SWAP1 KECCAK256 PUSH1 0x1 PUSH1 0x9 DUP3 ADD SLOAD PUSH1 0xFF AND PUSH1 0x6 DUP2 GT ISZERO PUSH2 0x2BF0 JUMPI PUSH2 0x2BF0 PUSH2 0x323F JUMP JUMPDEST EQ DUP1 PUSH2 0x2C14 JUMPI POP PUSH1 0x4 PUSH1 0x9 DUP3 ADD SLOAD PUSH1 0xFF AND PUSH1 0x6 DUP2 GT ISZERO PUSH2 0x2C12 JUMPI PUSH2 0x2C12 PUSH2 0x323F JUMP JUMPDEST EQ JUMPDEST DUP1 PUSH2 0x2C37 JUMPI POP PUSH1 0x2 PUSH1 0x9 DUP3 ADD SLOAD PUSH1 0xFF AND PUSH1 0x6 DUP2 GT ISZERO PUSH2 0x2C35 JUMPI PUSH2 0x2C35 PUSH2 0x323F JUMP JUMPDEST EQ JUMPDEST PUSH2 0x2C83 JUMPI PUSH1 0x40 MLOAD PUSH3 0x461BCD PUSH1 0xE5 SHL DUP2 MSTORE PUSH1 0x20 PUSH1 0x4 DUP3 ADD MSTORE PUSH1 0x1E PUSH1 0x24 DUP3 ADD MSTORE PUSH32 0x43616E6E6F7420726566756E6420696E2063757272656E742073746174650000 PUSH1 0x44 DUP3 ADD MSTORE PUSH1 0x64 ADD PUSH2 0x53B JUMP JUMPDEST PUSH1 0x9 DUP2 ADD DUP1 SLOAD PUSH1 0xFF NOT AND PUSH1 0x5 SWAP1 DUP2 OR SWAP1 SWAP2 SSTORE PUSH1 0x1 DUP3 ADD SLOAD PUSH1 0x6 DUP4 ADD SLOAD SWAP2 DUP4 ADD SLOAD PUSH2 0x2CBD SWAP3 PUSH1 0x1 PUSH1 0x1 PUSH1 0xA0 SHL SUB SWAP2 DUP3 AND SWAP3 SWAP2 SWAP1 SWAP2 AND SWAP1 PUSH2 0x2EC6 JUMP JUMPDEST PUSH1 0x1 DUP2 ADD SLOAD PUSH1 0x6 DUP3 ADD SLOAD PUSH1 0x40 MLOAD SWAP1 DUP2 MSTORE PUSH1 0x1 PUSH1 0x1 PUSH1 0xA0 SHL SUB SWAP1 SWAP2 AND SWAP1 DUP4 SWAP1 PUSH32 0x80B577B4FC190AB86D963549E29F496AFD079C5D81A2480D61217D4B5060A28C SWAP1 PUSH1 0x20 ADD PUSH1 0x40 MLOAD DUP1 SWAP2 SUB SWAP1 LOG3 POP POP JUMP JUMPDEST PUSH1 0x0 PUSH2 0x2D18 DUP4 DUP4 PUSH2 0x1D83 JUMP JUMPDEST PUSH2 0x2D98 JUMPI PUSH1 0x0 DUP4 DUP2 MSTORE PUSH1 0x2 PUSH1 0x20 SWAP1 DUP2 MSTORE PUSH1 0x40 DUP1 DUP4 KECCAK256 PUSH1 0x1 PUSH1 0x1 PUSH1 0xA0 SHL SUB DUP7 AND DUP5 MSTORE SWAP1 SWAP2 MSTORE SWAP1 KECCAK256 DUP1 SLOAD PUSH1 0xFF NOT AND PUSH1 0x1 OR SWAP1 SSTORE PUSH2 0x2D50 CALLER SWAP1 JUMP JUMPDEST PUSH1 0x1 PUSH1 0x1 PUSH1 0xA0 SHL SUB AND DUP3 PUSH1 0x1 PUSH1 0x1 PUSH1 0xA0 SHL SUB AND DUP5 PUSH32 0x2F8788117E7EFF1D82E926EC794901D17C78024A50270940304540A733656F0D PUSH1 0x40 MLOAD PUSH1 0x40 MLOAD DUP1 SWAP2 SUB SWAP1 LOG4 POP PUSH1 0x1 PUSH2 0x511 JUMP JUMPDEST POP PUSH1 0x0 PUSH2 0x511 JUMP JUMPDEST PUSH1 0x0 PUSH2 0x2DAC DUP4 DUP4 PUSH2 0x1D83 JUMP JUMPDEST ISZERO PUSH2 0x2D98 JUMPI PUSH1 0x0 DUP4 DUP2 MSTORE PUSH1 0x2 PUSH1 0x20 SWAP1 DUP2 MSTORE PUSH1 0x40 DUP1 DUP4 KECCAK256 PUSH1 0x1 PUSH1 0x1 PUSH1 0xA0 SHL SUB DUP7 AND DUP1 DUP6 MSTORE SWAP3 MSTORE DUP1 DUP4 KECCAK256 DUP1 SLOAD PUSH1 0xFF NOT AND SWAP1 SSTORE MLOAD CALLER SWAP3 DUP7 SWAP2 PUSH32 0xF6391F5C32D9C69D2A47EA670B442974B53935D1EDC7FD64EB21E047A839171B SWAP2 SWAP1 LOG4 POP PUSH1 0x1 PUSH2 0x511 JUMP JUMPDEST PUSH1 0x40 MLOAD PUSH1 0x1 PUSH1 0x1 PUSH1 0xA0 SHL SUB DUP5 DUP2 AND PUSH1 0x24 DUP4 ADD MSTORE DUP4 DUP2 AND PUSH1 0x44 DUP4 ADD MSTORE PUSH1 0x64 DUP3 ADD DUP4 SWAP1 MSTORE PUSH2 0xBC7 SWAP2 DUP7 SWAP2 DUP3 AND SWAP1 PUSH4 0x23B872DD SWAP1 PUSH1 0x84 ADD JUMPDEST PUSH1 0x40 MLOAD PUSH1 0x20 DUP2 DUP4 SUB SUB DUP2 MSTORE SWAP1 PUSH1 0x40 MSTORE SWAP2 POP PUSH1 0xE0 SHL PUSH1 0x20 DUP3 ADD DUP1 MLOAD PUSH1 0x1 PUSH1 0x1 PUSH1 0xE0 SHL SUB DUP4 DUP2 DUP4 AND OR DUP4 MSTORE POP POP POP POP PUSH2 0x2F6F JUMP JUMPDEST PUSH2 0x2E7C PUSH2 0x2FE0 JUMP JUMPDEST PUSH1 0x1 DUP1 SLOAD PUSH1 0xFF NOT AND SWAP1 SSTORE PUSH32 0x5DB9EE0A495BF2E6FF9C91A7834C1BA4FDD244A5E8AA4E537BD38AEAE4B073AA CALLER JUMPDEST PUSH1 0x40 MLOAD PUSH1 0x1 PUSH1 0x1 PUSH1 0xA0 SHL SUB SWAP1 SWAP2 AND DUP2 MSTORE PUSH1 0x20 ADD PUSH1 0x40 MLOAD DUP1 SWAP2 SUB SWAP1 LOG1 JUMP JUMPDEST PUSH1 0x40 MLOAD PUSH1 0x1 PUSH1 0x1 PUSH1 0xA0 SHL SUB DUP4 DUP2 AND PUSH1 0x24 DUP4 ADD MSTORE PUSH1 0x44 DUP3 ADD DUP4 SWAP1 MSTORE PUSH2 0xC25 SWAP2 DUP6 SWAP2 DUP3 AND SWAP1 PUSH4 0xA9059CBB SWAP1 PUSH1 0x64 ADD PUSH2 0x2E42 JUMP JUMPDEST PUSH2 0x2EFF PUSH2 0x2BA1 JUMP JUMPDEST PUSH1 0x1 DUP1 SLOAD PUSH1 0xFF NOT AND DUP2 OR SWAP1 SSTORE PUSH32 0x62E78CEA01BEE320CD4E420270B5EA74000D11B0C9F74754EBDBFC544B05A258 CALLER PUSH2 0x2EA9 JUMP JUMPDEST PUSH2 0x2F3C DUP3 DUP3 PUSH2 0x1D83 JUMP JUMPDEST PUSH2 0x2F6B JUMPI PUSH1 0x40 MLOAD PUSH4 0xE2517D3F PUSH1 0xE0 SHL DUP2 MSTORE PUSH1 0x1 PUSH1 0x1 PUSH1 0xA0 SHL SUB DUP3 AND PUSH1 0x4 DUP3 ADD MSTORE PUSH1 0x24 DUP2 ADD DUP4 SWAP1 MSTORE PUSH1 0x44 ADD PUSH2 0x53B JUMP JUMPDEST POP POP JUMP JUMPDEST PUSH1 0x0 DUP1 PUSH1 0x20 PUSH1 0x0 DUP5 MLOAD PUSH1 0x20 DUP7 ADD PUSH1 0x0 DUP9 GAS CALL DUP1 PUSH2 0x2F92 JUMPI PUSH1 0x40 MLOAD RETURNDATASIZE PUSH1 0x0 DUP3 RETURNDATACOPY RETURNDATASIZE DUP2 REVERT JUMPDEST POP POP PUSH1 0x0 MLOAD RETURNDATASIZE SWAP2 POP DUP2 ISZERO PUSH2 0x2FAA JUMPI DUP1 PUSH1 0x1 EQ ISZERO PUSH2 0x2FB7 JUMP JUMPDEST PUSH1 0x1 PUSH1 0x1 PUSH1 0xA0 SHL SUB DUP5 AND EXTCODESIZE ISZERO JUMPDEST ISZERO PUSH2 0xBC7 JUMPI PUSH1 0x40 MLOAD PUSH4 0x5274AFE7 PUSH1 0xE0 SHL DUP2 MSTORE PUSH1 0x1 PUSH1 0x1 PUSH1 0xA0 SHL SUB DUP6 AND PUSH1 0x4 DUP3 ADD MSTORE PUSH1 0x24 ADD PUSH2 0x53B JUMP JUMPDEST PUSH1 0x1 SLOAD PUSH1 0xFF AND PUSH2 0x2BC5 JUMPI PUSH1 0x40 MLOAD PUSH4 0x8DFC202B PUSH1 0xE0 SHL DUP2 MSTORE PUSH1 0x4 ADD PUSH1 0x40 MLOAD DUP1 SWAP2 SUB SWAP1 REVERT JUMPDEST PUSH1 0x40 DUP1 MLOAD PUSH2 0x240 DUP2 ADD DUP3 MSTORE PUSH1 0x0 DUP1 DUP3 MSTORE PUSH1 0x20 DUP3 ADD DUP2 SWAP1 MSTORE SWAP2 DUP2 ADD DUP3 SWAP1 MSTORE PUSH1 0x60 DUP2 ADD DUP3 SWAP1 MSTORE PUSH1 0x80 DUP2 ADD DUP3 SWAP1 MSTORE PUSH1 0xA0 DUP2 ADD DUP3 SWAP1 MSTORE PUSH1 0xC0 DUP2 ADD DUP3 SWAP1 MSTORE PUSH1 0xE0 DUP2 ADD DUP3 SWAP1 MSTORE PUSH2 0x100 DUP2 ADD DUP3 SWAP1 MSTORE SWAP1 PUSH2 0x120 DUP3 ADD SWAP1 DUP2 MSTORE PUSH1 0x20 ADD PUSH2 0x308B PUSH1 0x40 MLOAD DUP1 PUSH1 0xA0 ADD PUSH1 0x40 MSTORE DUP1 PUSH1 0x60 DUP2 MSTORE PUSH1 0x20 ADD PUSH1 0x60 DUP2 MSTORE PUSH1 0x20 ADD PUSH1 0x0 DUP2 MSTORE PUSH1 0x20 ADD PUSH1 0x60 DUP2 MSTORE PUSH1 0x20 ADD PUSH1 0x0 ISZERO ISZERO DUP2 MSTORE POP SWAP1 JUMP JUMPDEST DUP2 MSTORE PUSH1 0x20 ADD PUSH1 0x0 DUP2 MSTORE PUSH1 0x20 ADD PUSH1 0x0 DUP2 MSTORE PUSH1 0x20 ADD PUSH1 0x0 DUP2 MSTORE PUSH1 0x20 ADD PUSH1 0x0 ISZERO ISZERO DUP2 MSTORE PUSH1 0x20 ADD PUSH1 0x0 ISZERO ISZERO DUP2 MSTORE PUSH1 0x20 ADD PUSH1 0x0 ISZERO ISZERO DUP2 MSTORE PUSH1 0x20 ADD PUSH1 0x60 DUP2 MSTORE POP SWAP1 JUMP JUMPDEST PUSH1 0x0 PUSH1 0x20 DUP3 DUP5 SUB SLT ISZERO PUSH2 0x30DA JUMPI PUSH1 0x0 DUP1 REVERT JUMPDEST DUP2 CALLDATALOAD PUSH1 0x1 PUSH1 0x1 PUSH1 0xE0 SHL SUB NOT DUP2 AND DUP2 EQ PUSH2 0x30F2 JUMPI PUSH1 0x0 DUP1 REVERT JUMPDEST SWAP4 SWAP3 POP POP POP JUMP JUMPDEST PUSH1 0x0 PUSH1 0x20 DUP3 DUP5 SUB SLT ISZERO PUSH2 0x310B JUMPI PUSH1 0x0 DUP1 REVERT JUMPDEST POP CALLDATALOAD SWAP2 SWAP1 POP JUMP JUMPDEST DUP1 CALLDATALOAD PUSH1 0x1 PUSH1 0x1 PUSH1 0xA0 SHL SUB DUP2 AND DUP2 EQ PUSH2 0x233B JUMPI PUSH1 0x0 DUP1 REVERT JUMPDEST DUP1 ISZERO ISZERO DUP2 EQ PUSH2 0xCCC JUMPI PUSH1 0x0 DUP1 REVERT JUMPDEST PUSH1 0x0 DUP1 PUSH1 0x40 DUP4 DUP6 SUB SLT ISZERO PUSH2 0x314A JUMPI PUSH1 0x0 DUP1 REVERT JUMPDEST PUSH2 0x3153 DUP4 PUSH2 0x3112 JUMP JUMPDEST SWAP2 POP PUSH1 0x20 DUP4 ADD CALLDATALOAD PUSH2 0x3163 DUP2 PUSH2 0x3129 JUMP JUMPDEST DUP1 SWAP2 POP POP SWAP3 POP SWAP3 SWAP1 POP JUMP JUMPDEST PUSH1 0x0 DUP1 DUP4 PUSH1 0x1F DUP5 ADD SLT PUSH2 0x3180 JUMPI PUSH1 0x0 DUP1 REVERT JUMPDEST POP DUP2 CALLDATALOAD PUSH8 0xFFFFFFFFFFFFFFFF DUP2 GT ISZERO PUSH2 0x3198 JUMPI PUSH1 0x0 DUP1 REVERT JUMPDEST PUSH1 0x20 DUP4 ADD SWAP2 POP DUP4 PUSH1 0x20 DUP3 DUP6 ADD ADD GT ISZERO PUSH2 0x31B0 JUMPI PUSH1 0x0 DUP1 REVERT JUMPDEST SWAP3 POP SWAP3 SWAP1 POP JUMP JUMPDEST PUSH1 0x0 DUP1 PUSH1 0x0 DUP1 PUSH1 0x60 DUP6 DUP8 SUB SLT ISZERO PUSH2 0x31CD JUMPI PUSH1 0x0 DUP1 REVERT JUMPDEST DUP5 CALLDATALOAD SWAP4 POP PUSH1 0x20 DUP6 ADD CALLDATALOAD PUSH2 0x31DF DUP2 PUSH2 0x3129 JUMP JUMPDEST SWAP3 POP PUSH1 0x40 DUP6 ADD CALLDATALOAD PUSH8 0xFFFFFFFFFFFFFFFF DUP2 GT ISZERO PUSH2 0x31FB JUMPI PUSH1 0x0 DUP1 REVERT JUMPDEST PUSH2 0x3207 DUP8 DUP3 DUP9 ADD PUSH2 0x316E JUMP JUMPDEST SWAP6 SWAP9 SWAP5 SWAP8 POP SWAP6 POP POP POP POP JUMP JUMPDEST PUSH1 0x0 DUP1 PUSH1 0x40 DUP4 DUP6 SUB SLT ISZERO PUSH2 0x3226 JUMPI PUSH1 0x0 DUP1 REVERT JUMPDEST DUP3 CALLDATALOAD SWAP2 POP PUSH2 0x3236 PUSH1 0x20 DUP5 ADD PUSH2 0x3112 JUMP JUMPDEST SWAP1 POP SWAP3 POP SWAP3 SWAP1 POP JUMP JUMPDEST PUSH4 0x4E487B71 PUSH1 0xE0 SHL PUSH1 0x0 MSTORE PUSH1 0x21 PUSH1 0x4 MSTORE PUSH1 0x24 PUSH1 0x0 REVERT JUMPDEST PUSH1 0x7 DUP2 LT PUSH2 0x3265 JUMPI PUSH2 0x3265 PUSH2 0x323F JUMP JUMPDEST SWAP1 MSTORE JUMP JUMPDEST PUSH1 0x20 DUP2 ADD PUSH2 0x511 DUP3 DUP5 PUSH2 0x3255 JUMP JUMPDEST PUSH1 0x0 DUP1 PUSH1 0x0 PUSH1 0x40 DUP5 DUP7 SUB SLT ISZERO PUSH2 0x328C JUMPI PUSH1 0x0 DUP1 REVERT JUMPDEST DUP4 CALLDATALOAD SWAP3 POP PUSH1 0x20 DUP5 ADD CALLDATALOAD PUSH8 0xFFFFFFFFFFFFFFFF DUP2 GT ISZERO PUSH2 0x32AA JUMPI PUSH1 0x0 DUP1 REVERT JUMPDEST PUSH2 0x32B6 DUP7 DUP3 DUP8 ADD PUSH2 0x316E JUMP JUMPDEST SWAP5 SWAP8 SWAP1 SWAP7 POP SWAP4 SWAP5 POP POP POP POP JUMP JUMPDEST PUSH1 0x0 DUP2 MLOAD DUP1 DUP5 MSTORE PUSH1 0x0 JUMPDEST DUP2 DUP2 LT ISZERO PUSH2 0x32E9 JUMPI PUSH1 0x20 DUP2 DUP6 ADD DUP2 ADD MLOAD DUP7 DUP4 ADD DUP3 ADD MSTORE ADD PUSH2 0x32CD JUMP JUMPDEST POP PUSH1 0x0 PUSH1 0x20 DUP3 DUP7 ADD ADD MSTORE PUSH1 0x20 PUSH1 0x1F NOT PUSH1 0x1F DUP4 ADD AND DUP6 ADD ADD SWAP2 POP POP SWAP3 SWAP2 POP POP JUMP JUMPDEST PUSH1 0x0 DUP2 MLOAD PUSH1 0xA0 DUP5 MSTORE PUSH2 0x331E PUSH1 0xA0 DUP6 ADD DUP3 PUSH2 0x32C3 JUMP JUMPDEST SWAP1 POP PUSH1 0x20 DUP4 ADD MLOAD DUP5 DUP3 SUB PUSH1 0x20 DUP7 ADD MSTORE PUSH2 0x3337 DUP3 DUP3 PUSH2 0x32C3 JUMP JUMPDEST SWAP2 POP POP PUSH1 0x40 DUP4 ADD MLOAD PUSH1 0x40 DUP6 ADD MSTORE PUSH1 0x60 DUP4 ADD MLOAD DUP5 DUP3 SUB PUSH1 0x60 DUP7 ADD MSTORE PUSH2 0x335B DUP3 DUP3 PUSH2 0x32C3 JUMP JUMPDEST SWAP2 POP POP PUSH1 0x80 DUP4 ADD MLOAD ISZERO ISZERO PUSH1 0x80 DUP6 ADD MSTORE DUP1 SWAP2 POP POP SWAP3 SWAP2 POP POP JUMP JUMPDEST PUSH1 0x20 DUP2 MSTORE DUP2 MLOAD PUSH1 0x20 DUP3 ADD MSTORE PUSH1 0x0 PUSH1 0x20 DUP4 ADD MLOAD PUSH2 0x339B PUSH1 0x40 DUP5 ADD DUP3 PUSH1 0x1 PUSH1 0x1 PUSH1 0xA0 SHL SUB AND SWAP1 MSTORE JUMP JUMPDEST POP PUSH1 0x40 DUP4 ADD MLOAD PUSH1 0x1 PUSH1 0x1 PUSH1 0xA0 SHL SUB DUP2 AND PUSH1 0x60 DUP5 ADD MSTORE POP PUSH1 0x60 DUP4 ADD MLOAD PUSH1 0x1 PUSH1 0x1 PUSH1 0xA0 SHL SUB DUP2 AND PUSH1 0x80 DUP5 ADD MSTORE POP PUSH1 0x80 DUP4 ADD MLOAD PUSH1 0x1 PUSH1 0x1 PUSH1 0xA0 SHL SUB DUP2 AND PUSH1 0xA0 DUP5 ADD MSTORE POP PUSH1 0xA0 DUP4 ADD MLOAD PUSH1 0x1 PUSH1 0x1 PUSH1 0xA0 SHL SUB DUP2 AND PUSH1 0xC0 DUP5 ADD MSTORE POP PUSH1 0xC0 DUP4 ADD MLOAD PUSH1 0xE0 DUP4 DUP2 ADD SWAP2 SWAP1 SWAP2 MSTORE DUP4 ADD MLOAD PUSH2 0x100 DUP1 DUP5 ADD SWAP2 SWAP1 SWAP2 MSTORE DUP4 ADD MLOAD PUSH2 0x120 DUP1 DUP5 ADD SWAP2 SWAP1 SWAP2 MSTORE DUP4 ADD MLOAD PUSH2 0x140 PUSH2 0x342A DUP2 DUP6 ADD DUP4 PUSH2 0x3255 JUMP JUMPDEST DUP1 DUP6 ADD MLOAD SWAP2 POP POP PUSH2 0x240 PUSH2 0x160 DUP2 DUP2 DUP7 ADD MSTORE PUSH2 0x344A PUSH2 0x260 DUP7 ADD DUP5 PUSH2 0x3309 JUMP JUMPDEST SWAP1 DUP7 ADD MLOAD PUSH2 0x180 DUP7 DUP2 ADD SWAP2 SWAP1 SWAP2 MSTORE DUP7 ADD MLOAD PUSH2 0x1A0 DUP1 DUP8 ADD SWAP2 SWAP1 SWAP2 MSTORE DUP7 ADD MLOAD PUSH2 0x1C0 DUP1 DUP8 ADD SWAP2 SWAP1 SWAP2 MSTORE DUP7 ADD MLOAD SWAP1 SWAP3 POP PUSH2 0x1E0 PUSH2 0x3488 DUP2 DUP8 ADD DUP4 ISZERO ISZERO SWAP1 MSTORE JUMP JUMPDEST DUP7 ADD MLOAD SWAP1 POP PUSH2 0x200 PUSH2 0x349D DUP7 DUP3 ADD DUP4 ISZERO ISZERO SWAP1 MSTORE JUMP JUMPDEST DUP7 ADD MLOAD SWAP1 POP PUSH2 0x220 PUSH2 0x34B2 DUP7 DUP3 ADD DUP4 ISZERO ISZERO SWAP1 MSTORE JUMP JUMPDEST DUP7 ADD MLOAD DUP6 DUP5 SUB PUSH1 0x1F NOT ADD DUP4 DUP8 ADD MSTORE SWAP1 POP PUSH2 0x34CC DUP4 DUP3 PUSH2 0x32C3 JUMP JUMPDEST SWAP7 SWAP6 POP POP POP POP POP POP JUMP JUMPDEST PUSH1 0x0 PUSH1 0x20 DUP3 DUP5 SUB SLT ISZERO PUSH2 0x34E8 JUMPI PUSH1 0x0 DUP1 REVERT JUMPDEST DUP2 CALLDATALOAD PUSH8 0xFFFFFFFFFFFFFFFF DUP2 GT ISZERO PUSH2 0x34FF JUMPI PUSH1 0x0 DUP1 REVERT JUMPDEST DUP3 ADD PUSH2 0x160 DUP2 DUP6 SUB SLT ISZERO PUSH2 0x30F2 JUMPI PUSH1 0x0 DUP1 REVERT JUMPDEST PUSH1 0x0 DUP1 PUSH1 0x40 DUP4 DUP6 SUB SLT ISZERO PUSH2 0x3525 JUMPI PUSH1 0x0 DUP1 REVERT JUMPDEST PUSH2 0x352E DUP4 PUSH2 0x3112 JUMP JUMPDEST SWAP5 PUSH1 0x20 SWAP4 SWAP1 SWAP4 ADD CALLDATALOAD SWAP4 POP POP POP JUMP JUMPDEST PUSH1 0x0 PUSH1 0x20 DUP3 DUP5 SUB SLT ISZERO PUSH2 0x354E JUMPI PUSH1 0x0 DUP1 REVERT JUMPDEST PUSH2 0x30F2 DUP3 PUSH2 0x3112 JUMP JUMPDEST PUSH1 0x20 DUP1 DUP3 MSTORE PUSH1 0x11 SWAP1 DUP3 ADD MSTORE PUSH17 0x125B9D985B1A5908195CD8DC9BDDC81251 PUSH1 0x7A SHL PUSH1 0x40 DUP3 ADD MSTORE PUSH1 0x60 ADD SWAP1 JUMP JUMPDEST PUSH1 0x1 DUP2 DUP2 SHR SWAP1 DUP3 AND DUP1 PUSH2 0x3596 JUMPI PUSH1 0x7F DUP3 AND SWAP2 POP JUMPDEST PUSH1 0x20 DUP3 LT DUP2 SUB PUSH2 0x94A JUMPI PUSH4 0x4E487B71 PUSH1 0xE0 SHL PUSH1 0x0 MSTORE PUSH1 0x22 PUSH1 0x4 MSTORE PUSH1 0x24 PUSH1 0x0 REVERT JUMPDEST PUSH1 0x20 DUP1 DUP3 MSTORE PUSH1 0x14 SWAP1 DUP3 ADD MSTORE PUSH20 0x496E76616C696420657363726F77207374617465 PUSH1 0x60 SHL PUSH1 0x40 DUP3 ADD MSTORE PUSH1 0x60 ADD SWAP1 JUMP JUMPDEST PUSH4 0x4E487B71 PUSH1 0xE0 SHL PUSH1 0x0 MSTORE PUSH1 0x41 PUSH1 0x4 MSTORE PUSH1 0x24 PUSH1 0x0 REVERT JUMPDEST PUSH1 0x1F DUP3 GT ISZERO PUSH2 0xC25 JUMPI PUSH1 0x0 DUP2 DUP2 MSTORE PUSH1 0x20 DUP2 KECCAK256 PUSH1 0x1F DUP6 ADD PUSH1 0x5 SHR DUP2 ADD PUSH1 0x20 DUP7 LT ISZERO PUSH2 0x3621 JUMPI POP DUP1 JUMPDEST PUSH1 0x1F DUP6 ADD PUSH1 0x5 SHR DUP3 ADD SWAP2 POP JUMPDEST DUP2 DUP2 LT ISZERO PUSH2 0x3640 JUMPI DUP3 DUP2 SSTORE PUSH1 0x1 ADD PUSH2 0x362D JUMP JUMPDEST POP POP POP POP POP POP JUMP JUMPDEST PUSH1 0x0 NOT PUSH1 0x3 DUP4 SWAP1 SHL SHR NOT AND PUSH1 0x1 SWAP2 SWAP1 SWAP2 SHL OR SWAP1 JUMP JUMPDEST PUSH8 0xFFFFFFFFFFFFFFFF DUP4 GT ISZERO PUSH2 0x3675 JUMPI PUSH2 0x3675 PUSH2 0x35E4 JUMP JUMPDEST PUSH2 0x3689 DUP4 PUSH2 0x3683 DUP4 SLOAD PUSH2 0x3582 JUMP JUMPDEST DUP4 PUSH2 0x35FA JUMP JUMPDEST PUSH1 0x0 PUSH1 0x1F DUP5 GT PUSH1 0x1 DUP2 EQ PUSH2 0x36B7 JUMPI PUSH1 0x0 DUP6 ISZERO PUSH2 0x36A5 JUMPI POP DUP4 DUP3 ADD CALLDATALOAD JUMPDEST PUSH2 0x36AF DUP7 DUP3 PUSH2 0x3648 JUMP JUMPDEST DUP5 SSTORE POP PUSH2 0x3711 JUMP JUMPDEST PUSH1 0x0 DUP4 DUP2 MSTORE PUSH1 0x20 SWAP1 KECCAK256 PUSH1 0x1F NOT DUP7 AND SWAP1 DUP4 JUMPDEST DUP3 DUP2 LT ISZERO PUSH2 0x36E8 JUMPI DUP7 DUP6 ADD CALLDATALOAD DUP3 SSTORE PUSH1 0x20 SWAP5 DUP6 ADD SWAP5 PUSH1 0x1 SWAP1 SWAP3 ADD SWAP2 ADD PUSH2 0x36C8 JUMP JUMPDEST POP DUP7 DUP3 LT ISZERO PUSH2 0x3705 JUMPI PUSH1 0x0 NOT PUSH1 0xF8 DUP9 PUSH1 0x3 SHL AND SHR NOT DUP5 DUP8 ADD CALLDATALOAD AND DUP2 SSTORE JUMPDEST POP POP PUSH1 0x1 DUP6 PUSH1 0x1 SHL ADD DUP4 SSTORE JUMPDEST POP POP POP POP POP JUMP JUMPDEST PUSH1 0x20 DUP2 MSTORE DUP2 PUSH1 0x20 DUP3 ADD MSTORE DUP2 DUP4 PUSH1 0x40 DUP4 ADD CALLDATACOPY PUSH1 0x0 DUP2 DUP4 ADD PUSH1 0x40 SWAP1 DUP2 ADD SWAP2 SWAP1 SWAP2 MSTORE PUSH1 0x1F SWAP1 SWAP3 ADD PUSH1 0x1F NOT AND ADD ADD SWAP2 SWAP1 POP JUMP JUMPDEST PUSH4 0x4E487B71 PUSH1 0xE0 SHL PUSH1 0x0 MSTORE PUSH1 0x11 PUSH1 0x4 MSTORE PUSH1 0x24 PUSH1 0x0 REVERT JUMPDEST DUP1 DUP3 MUL DUP2 ISZERO DUP3 DUP3 DIV DUP5 EQ OR PUSH2 0x511 JUMPI PUSH2 0x511 PUSH2 0x3747 JUMP JUMPDEST PUSH1 0x0 DUP3 PUSH2 0x3791 JUMPI PUSH4 0x4E487B71 PUSH1 0xE0 SHL PUSH1 0x0 MSTORE PUSH1 0x12 PUSH1 0x4 MSTORE PUSH1 0x24 PUSH1 0x0 REVERT JUMPDEST POP DIV SWAP1 JUMP JUMPDEST DUP2 DUP2 SUB DUP2 DUP2 GT ISZERO PUSH2 0x511 JUMPI PUSH2 0x511 PUSH2 0x3747 JUMP JUMPDEST DUP2 MLOAD PUSH8 0xFFFFFFFFFFFFFFFF DUP2 GT ISZERO PUSH2 0x37C3 JUMPI PUSH2 0x37C3 PUSH2 0x35E4 JUMP JUMPDEST PUSH2 0x37D7 DUP2 PUSH2 0x37D1 DUP5 SLOAD PUSH2 0x3582 JUMP JUMPDEST DUP5 PUSH2 0x35FA JUMP JUMPDEST PUSH1 0x20 DUP1 PUSH1 0x1F DUP4 GT PUSH1 0x1 DUP2 EQ PUSH2 0x3806 JUMPI PUSH1 0x0 DUP5 ISZERO PUSH2 0x37F4 JUMPI POP DUP6 DUP4 ADD MLOAD JUMPDEST PUSH2 0x37FE DUP6 DUP3 PUSH2 0x3648 JUMP JUMPDEST DUP7 SSTORE POP PUSH2 0x3640 JUMP JUMPDEST PUSH1 0x0 DUP6 DUP2 MSTORE PUSH1 0x20 DUP2 KECCAK256 PUSH1 0x1F NOT DUP7 AND SWAP2 JUMPDEST DUP3 DUP2 LT ISZERO PUSH2 0x3835 JUMPI DUP9 DUP7 ADD MLOAD DUP3 SSTORE SWAP5 DUP5 ADD SWAP5 PUSH1 0x1 SWAP1 SWAP2 ADD SWAP1 DUP5 ADD PUSH2 0x3816 JUMP JUMPDEST POP DUP6 DUP3 LT ISZERO PUSH2 0x3853 JUMPI DUP8 DUP6 ADD MLOAD PUSH1 0x0 NOT PUSH1 0x3 DUP9 SWAP1 SHL PUSH1 0xF8 AND SHR NOT AND DUP2 SSTORE JUMPDEST POP POP POP POP POP PUSH1 0x1 SWAP1 DUP2 SHL ADD SWAP1 SSTORE POP JUMP JUMPDEST PUSH1 0x0 DUP3 CALLDATALOAD PUSH1 0x9E NOT DUP4 CALLDATASIZE SUB ADD DUP2 SLT PUSH2 0x3879 JUMPI PUSH1 0x0 DUP1 REVERT JUMPDEST SWAP2 SWAP1 SWAP2 ADD SWAP3 SWAP2 POP POP JUMP JUMPDEST PUSH1 0x0 DUP1 DUP4 CALLDATALOAD PUSH1 0x1E NOT DUP5 CALLDATASIZE SUB ADD DUP2 SLT PUSH2 0x389A JUMPI PUSH1 0x0 DUP1 REVERT JUMPDEST DUP4 ADD DUP1 CALLDATALOAD SWAP2 POP PUSH8 0xFFFFFFFFFFFFFFFF DUP3 GT ISZERO PUSH2 0x38B5 JUMPI PUSH1 0x0 DUP1 REVERT JUMPDEST PUSH1 0x20 ADD SWAP2 POP CALLDATASIZE DUP2 SWAP1 SUB DUP3 SGT ISZERO PUSH2 0x31B0 JUMPI PUSH1 0x0 DUP1 REVERT JUMPDEST PUSH1 0x0 PUSH1 0x1 DUP3 ADD PUSH2 0x38DC JUMPI PUSH2 0x38DC PUSH2 0x3747 JUMP JUMPDEST POP PUSH1 0x1 ADD SWAP1 JUMP JUMPDEST PUSH1 0x0 DUP2 CALLDATALOAD PUSH2 0x511 DUP2 PUSH2 0x3129 JUMP JUMPDEST PUSH2 0x38FA DUP3 DUP4 PUSH2 0x3883 JUMP JUMPDEST PUSH8 0xFFFFFFFFFFFFFFFF DUP2 GT ISZERO PUSH2 0x3912 JUMPI PUSH2 0x3912 PUSH2 0x35E4 JUMP JUMPDEST PUSH2 0x3926 DUP2 PUSH2 0x3920 DUP6 SLOAD PUSH2 0x3582 JUMP JUMPDEST DUP6 PUSH2 0x35FA JUMP JUMPDEST PUSH1 0x0 PUSH1 0x1F DUP3 GT PUSH1 0x1 DUP2 EQ PUSH2 0x3954 JUMPI PUSH1 0x0 DUP4 ISZERO PUSH2 0x3942 JUMPI POP DUP4 DUP3 ADD CALLDATALOAD JUMPDEST PUSH2 0x394C DUP5 DUP3 PUSH2 0x3648 JUMP JUMPDEST DUP7 SSTORE POP PUSH2 0x39AE JUMP JUMPDEST PUSH1 0x0 DUP6 DUP2 MSTORE PUSH1 0x20 SWAP1 KECCAK256 PUSH1 0x1F NOT DUP5 AND SWAP1 DUP4 JUMPDEST DUP3 DUP2 LT ISZERO PUSH2 0x3985 JUMPI DUP7 DUP6 ADD CALLDATALOAD DUP3 SSTORE PUSH1 0x20 SWAP5 DUP6 ADD SWAP5 PUSH1 0x1 SWAP1 SWAP3 ADD SWAP2 ADD PUSH2 0x3965 JUMP JUMPDEST POP DUP5 DUP3 LT ISZERO PUSH2 0x39A2 JUMPI PUSH1 0x0 NOT PUSH1 0xF8 DUP7 PUSH1 0x3 SHL AND SHR NOT DUP5 DUP8 ADD CALLDATALOAD AND DUP2 SSTORE JUMPDEST POP POP PUSH1 0x1 DUP4 PUSH1 0x1 SHL ADD DUP6 SSTORE JUMPDEST POP POP POP POP PUSH2 0x39BF PUSH1 0x20 DUP4 ADD DUP4 PUSH2 0x3883 JUMP JUMPDEST PUSH2 0x39CD DUP2 DUP4 PUSH1 0x1 DUP7 ADD PUSH2 0x365D JUMP JUMPDEST POP POP PUSH1 0x40 DUP3 ADD CALLDATALOAD PUSH1 0x2 DUP3 ADD SSTORE PUSH2 0x39E6 PUSH1 0x60 DUP4 ADD DUP4 PUSH2 0x3883 JUMP JUMPDEST PUSH2 0x39F4 DUP2 DUP4 PUSH1 0x3 DUP7 ADD PUSH2 0x365D JUMP JUMPDEST POP POP PUSH2 0x2F6B PUSH2 0x3A05 PUSH1 0x80 DUP5 ADD PUSH2 0x38E3 JUMP JUMPDEST PUSH1 0x4 DUP4 ADD PUSH1 0xFF NOT DUP2 SLOAD AND PUSH1 0xFF DUP4 ISZERO ISZERO AND DUP2 OR DUP3 SSTORE POP POP POP JUMP JUMPDEST PUSH1 0x20 DUP2 ADD PUSH1 0x5 DUP4 LT PUSH2 0x3A32 JUMPI PUSH2 0x3A32 PUSH2 0x323F JUMP JUMPDEST SWAP2 SWAP1 MSTORE SWAP1 JUMP INVALID LOG4 SWAP9 SMOD KECCAK256 0x5C 0xE4 0xD3 SSTORE MULMOD 0x2E CREATE2 0xA8 LOG1 DUP16 JUMP 0xE8 SWAP2 EXTCODECOPY DELEGATECALL LOG2 ADD 0xFB 0xE2 DUP8 DUP3 JUMPDEST MULMOD JUMP SWAP4 0xC2 OR PUSH22 0xA2646970667358221220D5E57611DEE5B25B31FEF315 0xAB EQ 0xFB PUSH29 0xF38DC4ED1F85418263AC7A643D0B058364736F6C634300081400330000 "},"methodIdentifiers":{"ADMIN_ROLE()":"75b238fc","AGENT_ROLE()":"22459e18","ARBITER_ROLE()":"4d104adf","BASIS_POINTS()":"e1f1c4a7","DEFAULT_ADMIN_ROLE()":"a217fddf","MAX_PLATFORM_FEE()":"3998a681","canReleaseFunds(uint256)":"08b88af1","cancelEscrow(uint256)":"e0182436","completeVerification(uint256)":"46b6cfd3","createEscrow((address,address,address,address,address,uint256,uint256,uint256,(string,string,uint256,string,bool),uint256,uint256))":"9d5e0551","depositFunds(uint256)":"3b76594d","emergencyTokenRecovery(address,uint256)":"b49b0cb3","getEscrow(uint256)":"7d19e596","getEscrowState(uint256)":"3a49995b","getRoleAdmin(bytes32)":"248a9ca3","getTotalEscrows()":"3f4dbda2","giveApproval(uint256)":"b138821e","grantRole(bytes32,address)":"2f2ff15d","hasRole(bytes32,address)":"91d14854","pause()":"8456cb59","paused()":"5c975abb","platformFeePercentage()":"cdd78cfc","platformWallet()":"fa2af9da","raiseDispute(uint256,string)":"5aef573c","refundBuyer(uint256)":"39292763","releaseFunds(uint256)":"4d68282f","renounceRole(bytes32,address)":"36568abe","resolveDispute(uint256,bool,string)":"2840662d","revokeRole(bytes32,address)":"d547741f","setPlatformFee(uint256)":"12e8e2c3","supportsInterface(bytes4)":"01ffc9a7","unpause()":"3f4ba83a","whitelistToken(address,bool)":"0ffb1d8b","whitelistedTokens(address)":"daf9c210"}}}}}