{"contracts/compliance/ComplianceManager.sol":{"ComplianceManager":{"abi":[{"inputs":[{"internalType":"address","name":"admin","type":"address"}],"stateMutability":"nonpayable","type":"constructor"},{"anonymous":false,"inputs":[{"indexed":false,"internalType":"uint256","name":"kycExpiryPeriod","type":"uint256"},{"indexed":false,"internalType":"uint256","name":"amlExpiryPeriod","type":"uint256"},{"indexed":false,"internalType":"uint256","name":"minimumKYCLevel","type":"uint256"}],"name":"ComplianceConfigUpdated","type":"event"},{"anonymous":false,"inputs":[{"indexed":true,"internalType":"address","name":"user","type":"address"},{"indexed":false,"internalType":"enum ComplianceManager.KYCLevel","name":"kycLevel","type":"uint8"},{"indexed":false,"internalType":"enum ComplianceManager.AMLRisk","name":"amlRisk","type":"uint8"},{"indexed":false,"internalType":"string","name":"jurisdiction","type":"string"}],"name":"ComplianceRecordCreated","type":"event"},{"anonymous":false,"inputs":[{"indexed":true,"internalType":"address","name":"user","type":"address"},{"indexed":false,"internalType":"enum ComplianceManager.ComplianceStatus","name":"oldStatus","type":"uint8"},{"indexed":false,"internalType":"enum ComplianceManager.ComplianceStatus","name":"newStatus","type":"uint8"}],"name":"ComplianceStatusUpdated","type":"event"},{"anonymous":false,"inputs":[{"indexed":true,"internalType":"address","name":"user","type":"address"},{"indexed":false,"internalType":"string","name":"reason","type":"string"},{"indexed":false,"internalType":"uint256","name":"timestamp","type":"uint256"}],"name":"ComplianceViolation","type":"event"},{"anonymous":false,"inputs":[{"indexed":true,"internalType":"string","name":"jurisdiction","type":"string"},{"indexed":false,"internalType":"bool","name":"approved","type":"bool"}],"name":"JurisdictionUpdated","type":"event"},{"anonymous":false,"inputs":[{"indexed":false,"internalType":"address","name":"account","type":"address"}],"name":"Paused","type":"event"},{"anonymous":false,"inputs":[{"indexed":true,"internalType":"bytes32","name":"role","type":"bytes32"},{"indexed":true,"internalType":"bytes32","name":"previousAdminRole","type":"bytes32"},{"indexed":true,"internalType":"bytes32","name":"newAdminRole","type":"bytes32"}],"name":"RoleAdminChanged","type":"event"},{"anonymous":false,"inputs":[{"indexed":true,"internalType":"bytes32","name":"role","type":"bytes32"},{"indexed":true,"internalType":"address","name":"account","type":"address"},{"indexed":true,"internalType":"address","name":"sender","type":"address"}],"name":"RoleGranted","type":"event"},{"anonymous":false,"inputs":[{"indexed":true,"internalType":"bytes32","name":"role","type":"bytes32"},{"indexed":true,"internalType":"address","name":"account","type":"address"},{"indexed":true,"internalType":"address","name":"sender","type":"address"}],"name":"RoleRevoked","type":"event"},{"anonymous":false,"inputs":[{"indexed":false,"internalType":"address","name":"account","type":"address"}],"name":"Unpaused","type":"event"},{"inputs":[],"name":"AML_PROVIDER_ROLE","outputs":[{"internalType":"bytes32","name":"","type":"bytes32"}],"stateMutability":"view","type":"function"},{"inputs":[],"name":"COMPLIANCE_OFFICER_ROLE","outputs":[{"internalType":"bytes32","name":"","type":"bytes32"}],"stateMutability":"view","type":"function"},{"inputs":[],"name":"DEFAULT_ADMIN_ROLE","outputs":[{"internalType":"bytes32","name":"","type":"bytes32"}],"stateMutability":"view","type":"function"},{"inputs":[],"name":"KYC_PROVIDER_ROLE","outputs":[{"internalType":"bytes32","name":"","type":"bytes32"}],"stateMutability":"view","type":"function"},{"inputs":[],"name":"amlExpiryPeriod","outputs":[{"internalType":"uint256","name":"","type":"uint256"}],"stateMutability":"view","type":"function"},{"inputs":[{"internalType":"string","name":"","type":"string"}],"name":"approvedJurisdictions","outputs":[{"internalType":"bool","name":"","type":"bool"}],"stateMutability":"view","type":"function"},{"inputs":[{"internalType":"address","name":"","type":"address"}],"name":"complianceRecords","outputs":[{"internalType":"address","name":"user","type":"address"},{"internalType":"enum ComplianceManager.KYCLevel","name":"kycLevel","type":"uint8"},{"internalType":"enum ComplianceManager.AMLRisk","name":"amlRisk","type":"uint8"},{"internalType":"enum ComplianceManager.ComplianceStatus","name":"status","type":"uint8"},{"internalType":"uint256","name":"approvedAt","type":"uint256"},{"internalType":"uint256","name":"expiresAt","type":"uint256"},{"internalType":"string","name":"jurisdiction","type":"string"},{"internalType":"string","name":"providerRef","type":"string"},{"internalType":"bool","name":"sanctionsCheck","type":"bool"},{"internalType":"bool","name":"pepCheck","type":"bool"}],"stateMutability":"view","type":"function"},{"inputs":[],"name":"complianceRequired","outputs":[{"internalType":"bool","name":"","type":"bool"}],"stateMutability":"view","type":"function"},{"inputs":[{"internalType":"address","name":"user","type":"address"},{"internalType":"enum ComplianceManager.KYCLevel","name":"kycLevel","type":"uint8"},{"internalType":"enum ComplianceManager.AMLRisk","name":"amlRisk","type":"uint8"},{"internalType":"string","name":"jurisdiction","type":"string"},{"internalType":"string","name":"providerRef","type":"string"},{"internalType":"bool","name":"sanctionsCheck","type":"bool"},{"internalType":"bool","name":"pepCheck","type":"bool"}],"name":"createComplianceRecord","outputs":[],"stateMutability":"nonpayable","type":"function"},{"inputs":[{"internalType":"bytes32","name":"role","type":"bytes32"}],"name":"getRoleAdmin","outputs":[{"internalType":"bytes32","name":"","type":"bytes32"}],"stateMutability":"view","type":"function"},{"inputs":[{"internalType":"bytes32","name":"role","type":"bytes32"},{"internalType":"address","name":"account","type":"address"}],"name":"grantRole","outputs":[],"stateMutability":"nonpayable","type":"function"},{"inputs":[{"internalType":"bytes32","name":"role","type":"bytes32"},{"internalType":"address","name":"account","type":"address"}],"name":"hasRole","outputs":[{"internalType":"bool","name":"","type":"bool"}],"stateMutability":"view","type":"function"},{"inputs":[{"internalType":"address","name":"user","type":"address"}],"name":"isCompliant","outputs":[{"internalType":"bool","name":"","type":"bool"}],"stateMutability":"view","type":"function"},{"inputs":[],"name":"kycExpiryPeriod","outputs":[{"internalType":"uint256","name":"","type":"uint256"}],"stateMutability":"view","type":"function"},{"inputs":[],"name":"minimumKYCLevel","outputs":[{"internalType":"uint256","name":"","type":"uint256"}],"stateMutability":"view","type":"function"},{"inputs":[],"name":"paused","outputs":[{"internalType":"bool","name":"","type":"bool"}],"stateMutability":"view","type":"function"},{"inputs":[{"internalType":"bytes32","name":"role","type":"bytes32"},{"internalType":"address","name":"account","type":"address"}],"name":"renounceRole","outputs":[],"stateMutability":"nonpayable","type":"function"},{"inputs":[{"internalType":"string","name":"","type":"string"}],"name":"restrictedJurisdictions","outputs":[{"internalType":"bool","name":"","type":"bool"}],"stateMutability":"view","type":"function"},{"inputs":[{"internalType":"bytes32","name":"role","type":"bytes32"},{"internalType":"address","name":"account","type":"address"}],"name":"revokeRole","outputs":[],"stateMutability":"nonpayable","type":"function"},{"inputs":[{"internalType":"bytes4","name":"interfaceId","type":"bytes4"}],"name":"supportsInterface","outputs":[{"internalType":"bool","name":"","type":"bool"}],"stateMutability":"view","type":"function"},{"inputs":[{"internalType":"address","name":"user","type":"address"},{"internalType":"enum ComplianceManager.ComplianceStatus","name":"newStatus","type":"uint8"},{"internalType":"string","name":"reason","type":"string"}],"name":"updateComplianceStatus","outputs":[],"stateMutability":"nonpayable","type":"function"},{"inputs":[{"internalType":"address","name":"buyer","type":"address"},{"internalType":"address","name":"seller","type":"address"},{"internalType":"uint256","name":"amount","type":"uint256"}],"name":"validateTransaction","outputs":[{"internalType":"bool","name":"valid","type":"bool"},{"internalType":"string","name":"reason","type":"string"}],"stateMutability":"view","type":"function"}],"evm":{"bytecode":{"linkReferences":{},"object":"60806040526301e133806006556276a70060075560016008556009805460ff191660011790553480156200003257600080fd5b5060405162001e6e38038062001e6e833981016040819052620000559162000207565b6001805460ff191681556002556200006f60008262000166565b6200009b7fb6f0283bd1ed00c6aa7e988a7516070240f3610a34d167391359b648eb37cefc8262000166565b60016004604051620000b59061555360f01b815260020190565b90815260408051918290036020018220805493151560ff1994851617905561554b60f01b8252600460028084018290528251938490036022908101852080548716600190811790915561455560f01b865285830184905284519586900382018620805488168217905561434160f01b865285830184905284519586900382018620805488168217905561415560f01b8652918501929092529151928390030190912080549092161790555062000239565b6000828152602081815260408083206001600160a01b038516845290915290205460ff1662000203576000828152602081815260408083206001600160a01b03851684529091529020805460ff19166001179055620001c23390565b6001600160a01b0316816001600160a01b0316837f2f8788117e7eff1d82e926ec794901d17c78024a50270940304540a733656f0d60405160405180910390a45b5050565b6000602082840312156200021a57600080fd5b81516001600160a01b03811681146200023257600080fd5b9392505050565b611c2580620002496000396000f3fe608060405234801561001057600080fd5b50600436106101425760003560e01c80635c975abb116100b8578063b0b04e331161007c578063b0b04e33146102e9578063c22397ff14610310578063c3bb386114610331578063d547741f1461033a578063d9e1063d1461034d578063dc2b50601461037457600080fd5b80635c975abb146102a757806391d14854146102b2578063a200e5d0146102c5578063a217fddf146102d8578063a250d107146102e057600080fd5b8063248a9ca31161010a578063248a9ca3146101d95780632b85fc99146101fc5780632f2ff15d1461022557806336568abe146102385780633f454a961461024b578063551bece61461027957600080fd5b806301ffc9a714610147578063186458311461016f578063198596b5146101845780631be3ef2d146101b957806321af2540146101c6575b600080fd5b61015a610155366004611449565b61037d565b60405190151581526020015b60405180910390f35b61018261017d3660046114d8565b6103b4565b005b6101ab7fb6f0283bd1ed00c6aa7e988a7516070240f3610a34d167391359b648eb37cefc81565b604051908152602001610166565b60095461015a9060ff1681565b6101826101d436600461155a565b610546565b6101ab6101e7366004611625565b60009081526020819052604090206001015490565b61020f61020a36600461163e565b6108a4565b6040516101669a999897969594939291906116e3565b610182610233366004611772565b610a24565b610182610246366004611772565b610a4e565b61015a6102593660046117b4565b805160208183018101805160048252928201919093012091525460ff1681565b61015a6102873660046117b4565b805160208183018101805160058252928201919093012091525460ff1681565b60015460ff1661015a565b61015a6102c0366004611772565b610acc565b61015a6102d336600461163e565b610af5565b6101ab600081565b6101ab60085481565b6101ab7f33e26563bb47f6c58011d77bcac0c19f2fbb8ba8738a01d2a759e466fa0d916a81565b61032361031e366004611865565b610de1565b6040516101669291906118a1565b6101ab60065481565b610182610348366004611772565b610ff0565b6101ab7f6c4079fcac94e7142d8c209744c998efe53a188aadb7e55958f7ad3ea8a1d65281565b6101ab60075481565b60006001600160e01b03198216637965db0b60e01b14806103ae57506301ffc9a760e01b6001600160e01b03198316145b92915050565b7fb6f0283bd1ed00c6aa7e988a7516070240f3610a34d167391359b648eb37cefc6103de81611015565b6001600160a01b038086166000908152600360205260409020805490911661044d5760405162461bcd60e51b815260206004820152601b60248201527f436f6d706c69616e6365207265636f7264206e6f7420666f756e64000000000060448201526064015b60405180910390fd5b8054600160b01b80820460ff16918791849160ff60b01b19169083600481111561047957610479611659565b0217905550866001600160a01b03167f0649951c1b4f143bec0c7f26bb14f3a2e6b0b0157e47e9f8c647e29b852022e682886040516104b99291906118bc565b60405180910390a260028660048111156104d5576104d5611659565b14806104f2575060048660048111156104f0576104f0611659565b145b1561053d57866001600160a01b03167fe9aec22c81d6532fbe3b197ee399a3c37023ba155f7477efb8a88f2153eb066686864260405161053493929190611900565b60405180910390a25b50505050505050565b7fb6f0283bd1ed00c6aa7e988a7516070240f3610a34d167391359b648eb37cefc61057081611015565b6001600160a01b038a166105bd5760405162461bcd60e51b8152602060048201526014602482015273496e76616c69642075736572206164647265737360601b6044820152606401610444565b600487876040516105cf929190611924565b9081526040519081900360200190205460ff1661062e5760405162461bcd60e51b815260206004820152601960248201527f4a7572697364696374696f6e206e6f7420617070726f766564000000000000006044820152606401610444565b60058787604051610640929190611924565b9081526040519081900360200190205460ff16156106a05760405162461bcd60e51b815260206004820152601760248201527f4a7572697364696374696f6e20726573747269637465640000000000000000006044820152606401610444565b6001600160a01b038a16600081815260036020819052604090912080546001600160a01b0319811684178255909260ff600160b01b8304169242928e9286926001600160a81b03199092161790600160a01b90849081111561070457610704611659565b021790555082548b90849060ff60a81b1916600160a81b83600381111561072d5761072d611659565b021790555061073e8c8c8888611022565b8354849060ff60b01b1916600160b01b83600481111561076057610760611659565b0217905550600183018190556107768c8c6110c6565b610780908261194a565b6002840155600383016107948a8c836119e7565b50600483016107a4888a836119e7565b5060058301805461ffff191687151561ff00191617610100871515021790556040516001600160a01b038e16907f83a3249343aaf012ccb591e1438c530837d255b80cb6747a658a5aa12ca8544990610804908f908f908f908f90611aa8565b60405180910390a28254600160b01b900460ff16600481111561082957610829611659565b82600481111561083b5761083b611659565b14610895578c6001600160a01b03167f0649951c1b4f143bec0c7f26bb14f3a2e6b0b0157e47e9f8c647e29b852022e6838560000160169054906101000a900460ff1660405161088c9291906118bc565b60405180910390a25b50505050505050505050505050565b600360208190526000918252604090912080546001820154600283015493830180546001600160a01b0384169560ff600160a01b8604811696600160a81b8704821696600160b01b9004909116949391929091906109019061195d565b80601f016020809104026020016040519081016040528092919081815260200182805461092d9061195d565b801561097a5780601f1061094f5761010080835404028352916020019161097a565b820191906000526020600020905b81548152906001019060200180831161095d57829003601f168201915b50505050509080600401805461098f9061195d565b80601f01602080910402602001604051908101604052809291908181526020018280546109bb9061195d565b8015610a085780601f106109dd57610100808354040283529160200191610a08565b820191906000526020600020905b8154815290600101906020018083116109eb57829003601f168201915b5050506005909301549192505060ff808216916101009004168a565b600082815260208190526040902060010154610a3f81611015565b610a498383611159565b505050565b6001600160a01b0381163314610abe5760405162461bcd60e51b815260206004820152602f60248201527f416363657373436f6e74726f6c3a2063616e206f6e6c792072656e6f756e636560448201526e103937b632b9903337b91039b2b63360891b6064820152608401610444565b610ac882826111dd565b5050565b6000918252602082815260408084206001600160a01b0393909316845291905290205460ff1690565b60095460009060ff16610b0a57506001919050565b6001600160a01b0382811660009081526003602081815260408084208151610140810190925280549586168252939490939291840191600160a01b90910460ff1690811115610b5b57610b5b611659565b6003811115610b6c57610b6c611659565b81528154602090910190600160a81b900460ff166003811115610b9157610b91611659565b6003811115610ba257610ba2611659565b81528154602090910190600160b01b900460ff166004811115610bc757610bc7611659565b6004811115610bd857610bd8611659565b81526020016001820154815260200160028201548152602001600382018054610c009061195d565b80601f0160208091040260200160405190810160405280929190818152602001828054610c2c9061195d565b8015610c795780601f10610c4e57610100808354040283529160200191610c79565b820191906000526020600020905b815481529060010190602001808311610c5c57829003601f168201915b50505050508152602001600482018054610c929061195d565b80601f0160208091040260200160405190810160405280929190818152602001828054610cbe9061195d565b8015610d0b5780601f10610ce057610100808354040283529160200191610d0b565b820191906000526020600020905b815481529060010190602001808311610cee57829003601f168201915b50505091835250506005919091015460ff8082161515602084015261010090910416151560409091015280519091506001600160a01b0316610d505750600092915050565b600181606001516004811115610d6857610d68611659565b14610d765750600092915050565b428160a0015111610d8a5750600092915050565b60085481602001516003811115610da357610da3611659565b1015610db25750600092915050565b600381604001516003811115610dca57610dca611659565b03610dd85750600092915050565b50600192915050565b60095460009060609060ff16610e2f57505060408051808201909152601781527f436f6d706c69616e6365206e6f742072657175697265640000000000000000006020820152600190610fe8565b82600003610e7557505060408051808201909152601a81527f496e76616c6964207472616e73616374696f6e20616d6f756e740000000000006020820152600090610fe8565b604051630a200e5d60e41b81526001600160a01b0386166004820152309063a200e5d090602401602060405180830381865afa158015610eb9573d6000803e3d6000fd5b505050506040513d601f19601f82011682018060405250810190610edd9190611ae4565b610f15575050604080518082019091526013815272109d5e595c881b9bdd0818dbdb5c1b1a585b9d606a1b6020820152600090610fe8565b604051630a200e5d60e41b81526001600160a01b0385166004820152309063a200e5d090602401602060405180830381865afa158015610f59573d6000803e3d6000fd5b505050506040513d601f19601f82011682018060405250810190610f7d9190611ae4565b610fb657505060408051808201909152601481527314d95b1b195c881b9bdd0818dbdb5c1b1a585b9d60621b6020820152600090610fe8565b5050604080518082019091526015815274151c985b9cd858dd1a5bdb8818dbdb5c1b1a585b9d605a1b60208201526001905b935093915050565b60008281526020819052604090206001015461100b81611015565b610a4983836111dd565b61101f8133611242565b50565b6000600384600381111561103857611038611659565b1480611042575082155b1561104f575060026110be565b600284600381111561106357611063611659565b148061106c5750815b15611079575060006110be565b600185600381111561108d5761108d611659565b101580156110ad575060018460038111156110aa576110aa611659565b11155b156110ba575060016110be565b5060005b949350505050565b600060028260038111156110dc576110dc611659565b036110f75760026007546110f09190611b01565b90506103ae565b600283600381111561110b5761110b611659565b14806111285750600383600381111561112657611126611659565b145b1561113657506006546103ae565b6002600754600654611148919061194a565b6111529190611b01565b9392505050565b6111638282610acc565b610ac8576000828152602081815260408083206001600160a01b03851684529091529020805460ff191660011790556111993390565b6001600160a01b0316816001600160a01b0316837f2f8788117e7eff1d82e926ec794901d17c78024a50270940304540a733656f0d60405160405180910390a45050565b6111e78282610acc565b15610ac8576000828152602081815260408083206001600160a01b0385168085529252808320805460ff1916905551339285917ff6391f5c32d9c69d2a47ea670b442974b53935d1edc7fd64eb21e047a839171b9190a45050565b61124c8282610acc565b610ac8576112598161129b565b6112648360206112ad565b604051602001611275929190611b23565b60408051601f198184030181529082905262461bcd60e51b825261044491600401611b98565b60606103ae6001600160a01b03831660145b606060006112bc836002611bab565b6112c790600261194a565b67ffffffffffffffff8111156112df576112df61179e565b6040519080825280601f01601f191660200182016040528015611309576020820181803683370190505b509050600360fc1b8160008151811061132457611324611bc2565b60200101906001600160f81b031916908160001a905350600f60fb1b8160018151811061135357611353611bc2565b60200101906001600160f81b031916908160001a9053506000611377846002611bab565b61138290600161194a565b90505b60018111156113fa576f181899199a1a9b1b9c1cb0b131b232b360811b85600f16601081106113b6576113b6611bc2565b1a60f81b8282815181106113cc576113cc611bc2565b60200101906001600160f81b031916908160001a90535060049490941c936113f381611bd8565b9050611385565b5083156111525760405162461bcd60e51b815260206004820181905260248201527f537472696e67733a20686578206c656e67746820696e73756666696369656e746044820152606401610444565b60006020828403121561145b57600080fd5b81356001600160e01b03198116811461115257600080fd5b80356001600160a01b038116811461148a57600080fd5b919050565b60008083601f8401126114a157600080fd5b50813567ffffffffffffffff8111156114b957600080fd5b6020830191508360208285010111156114d157600080fd5b9250929050565b600080600080606085870312156114ee57600080fd5b6114f785611473565b935060208501356005811061150b57600080fd5b9250604085013567ffffffffffffffff81111561152757600080fd5b6115338782880161148f565b95989497509550505050565b6004811061101f57600080fd5b801515811461101f57600080fd5b600080600080600080600080600060e08a8c03121561157857600080fd5b6115818a611473565b985060208a01356115918161153f565b975060408a01356115a18161153f565b965060608a013567ffffffffffffffff808211156115be57600080fd5b6115ca8d838e0161148f565b909850965060808c01359150808211156115e357600080fd5b506115f08c828d0161148f565b90955093505060a08a01356116048161154c565b915060c08a01356116148161154c565b809150509295985092959850929598565b60006020828403121561163757600080fd5b5035919050565b60006020828403121561165057600080fd5b61115282611473565b634e487b7160e01b600052602160045260246000fd5b6004811061101f5761101f611659565b6005811061168f5761168f611659565b9052565b60005b838110156116ae578181015183820152602001611696565b50506000910152565b600081518084526116cf816020860160208601611693565b601f01601f19169290920160200192915050565b6001600160a01b038b16815260006101406116fd8c61166f565b8b602084015261170c8b61166f565b8a604084015261171f606084018b61167f565b8860808401528760a08401528060c084015261173d818401886116b7565b905082810360e084015261175181876116b7565b94151561010084015250509015156101209091015298975050505050505050565b6000806040838503121561178557600080fd5b8235915061179560208401611473565b90509250929050565b634e487b7160e01b600052604160045260246000fd5b6000602082840312156117c657600080fd5b813567ffffffffffffffff808211156117de57600080fd5b818401915084601f8301126117f257600080fd5b8135818111156118045761180461179e565b604051601f8201601f19908116603f0116810190838211818310171561182c5761182c61179e565b8160405282815287602084870101111561184557600080fd5b826020860160208301376000928101602001929092525095945050505050565b60008060006060848603121561187a57600080fd5b61188384611473565b925061189160208501611473565b9150604084013590509250925092565b82151581526040602082015260006110be60408301846116b7565b604081016118ca828561167f565b611152602083018461167f565b81835281816020850137506000828201602090810191909152601f909101601f19169091010190565b6040815260006119146040830185876118d7565b9050826020830152949350505050565b8183823760009101908152919050565b634e487b7160e01b600052601160045260246000fd5b808201808211156103ae576103ae611934565b600181811c9082168061197157607f821691505b60208210810361199157634e487b7160e01b600052602260045260246000fd5b50919050565b601f821115610a49576000816000526020600020601f850160051c810160208610156119c05750805b601f850160051c820191505b818110156119df578281556001016119cc565b505050505050565b67ffffffffffffffff8311156119ff576119ff61179e565b611a1383611a0d835461195d565b83611997565b6000601f841160018114611a475760008515611a2f5750838201355b600019600387901b1c1916600186901b178355611aa1565b600083815260209020601f19861690835b82811015611a785786850135825560209485019460019092019101611a58565b5086821015611a955760001960f88860031b161c19848701351681555b505060018560011b0183555b5050505050565b611ab18561166f565b848152611abd8461166f565b836020820152606060408201526000611ada6060830184866118d7565b9695505050505050565b600060208284031215611af657600080fd5b81516111528161154c565b600082611b1e57634e487b7160e01b600052601260045260246000fd5b500490565b7f416363657373436f6e74726f6c3a206163636f756e7420000000000000000000815260008351611b5b816017850160208801611693565b7001034b99036b4b9b9b4b733903937b6329607d1b6017918401918201528351611b8c816028840160208801611693565b01602801949350505050565b60208152600061115260208301846116b7565b80820281158282048414176103ae576103ae611934565b634e487b7160e01b600052603260045260246000fd5b600081611be757611be7611934565b50600019019056fea2646970667358221220bdac68bf317d31dd989b1011850448b1b8731baa13b03c06b8b32f1195c809c764736f6c63430008160033","opcodes":"PUSH1 0x80 PUSH1 0x40 MSTORE PUSH4 0x1E13380 PUSH1 0x6 SSTORE PUSH3 0x76A700 PUSH1 0x7 SSTORE PUSH1 0x1 PUSH1 0x8 SSTORE PUSH1 0x9 DUP1 SLOAD PUSH1 0xFF NOT AND PUSH1 0x1 OR SWAP1 SSTORE CALLVALUE DUP1 ISZERO PUSH3 0x32 JUMPI PUSH1 0x0 DUP1 REVERT JUMPDEST POP PUSH1 0x40 MLOAD PUSH3 0x1E6E CODESIZE SUB DUP1 PUSH3 0x1E6E DUP4 CODECOPY DUP2 ADD PUSH1 0x40 DUP2 SWAP1 MSTORE PUSH3 0x55 SWAP2 PUSH3 0x207 JUMP JUMPDEST PUSH1 0x1 DUP1 SLOAD PUSH1 0xFF NOT AND DUP2 SSTORE PUSH1 0x2 SSTORE PUSH3 0x6F PUSH1 0x0 DUP3 PUSH3 0x166 JUMP JUMPDEST PUSH3 0x9B PUSH32 0xB6F0283BD1ED00C6AA7E988A7516070240F3610A34D167391359B648EB37CEFC DUP3 PUSH3 0x166 JUMP JUMPDEST PUSH1 0x1 PUSH1 0x4 PUSH1 0x40 MLOAD PUSH3 0xB5 SWAP1 PUSH2 0x5553 PUSH1 0xF0 SHL DUP2 MSTORE PUSH1 0x2 ADD SWAP1 JUMP JUMPDEST SWAP1 DUP2 MSTORE PUSH1 0x40 DUP1 MLOAD SWAP2 DUP3 SWAP1 SUB PUSH1 0x20 ADD DUP3 KECCAK256 DUP1 SLOAD SWAP4 ISZERO ISZERO PUSH1 0xFF NOT SWAP5 DUP6 AND OR SWAP1 SSTORE PUSH2 0x554B PUSH1 0xF0 SHL DUP3 MSTORE PUSH1 0x4 PUSH1 0x2 DUP1 DUP5 ADD DUP3 SWAP1 MSTORE DUP3 MLOAD SWAP4 DUP5 SWAP1 SUB PUSH1 0x22 SWAP1 DUP2 ADD DUP6 KECCAK256 DUP1 SLOAD DUP8 AND PUSH1 0x1 SWAP1 DUP2 OR SWAP1 SWAP2 SSTORE PUSH2 0x4555 PUSH1 0xF0 SHL DUP7 MSTORE DUP6 DUP4 ADD DUP5 SWAP1 MSTORE DUP5 MLOAD SWAP6 DUP7 SWAP1 SUB DUP3 ADD DUP7 KECCAK256 DUP1 SLOAD DUP9 AND DUP3 OR SWAP1 SSTORE PUSH2 0x4341 PUSH1 0xF0 SHL DUP7 MSTORE DUP6 DUP4 ADD DUP5 SWAP1 MSTORE DUP5 MLOAD SWAP6 DUP7 SWAP1 SUB DUP3 ADD DUP7 KECCAK256 DUP1 SLOAD DUP9 AND DUP3 OR SWAP1 SSTORE PUSH2 0x4155 PUSH1 0xF0 SHL DUP7 MSTORE SWAP2 DUP6 ADD SWAP3 SWAP1 SWAP3 MSTORE SWAP2 MLOAD SWAP3 DUP4 SWAP1 SUB ADD SWAP1 SWAP2 KECCAK256 DUP1 SLOAD SWAP1 SWAP3 AND OR SWAP1 SSTORE POP PUSH3 0x239 JUMP JUMPDEST PUSH1 0x0 DUP3 DUP2 MSTORE PUSH1 0x20 DUP2 DUP2 MSTORE PUSH1 0x40 DUP1 DUP4 KECCAK256 PUSH1 0x1 PUSH1 0x1 PUSH1 0xA0 SHL SUB DUP6 AND DUP5 MSTORE SWAP1 SWAP2 MSTORE SWAP1 KECCAK256 SLOAD PUSH1 0xFF AND PUSH3 0x203 JUMPI PUSH1 0x0 DUP3 DUP2 MSTORE PUSH1 0x20 DUP2 DUP2 MSTORE PUSH1 0x40 DUP1 DUP4 KECCAK256 PUSH1 0x1 PUSH1 0x1 PUSH1 0xA0 SHL SUB DUP6 AND DUP5 MSTORE SWAP1 SWAP2 MSTORE SWAP1 KECCAK256 DUP1 SLOAD PUSH1 0xFF NOT AND PUSH1 0x1 OR SWAP1 SSTORE PUSH3 0x1C2 CALLER SWAP1 JUMP JUMPDEST PUSH1 0x1 PUSH1 0x1 PUSH1 0xA0 SHL SUB AND DUP2 PUSH1 0x1 PUSH1 0x1 PUSH1 0xA0 SHL SUB AND DUP4 PUSH32 0x2F8788117E7EFF1D82E926EC794901D17C78024A50270940304540A733656F0D PUSH1 0x40 MLOAD PUSH1 0x40 MLOAD DUP1 SWAP2 SUB SWAP1 LOG4 JUMPDEST POP POP JUMP JUMPDEST PUSH1 0x0 PUSH1 0x20 DUP3 DUP5 SUB SLT ISZERO PUSH3 0x21A JUMPI PUSH1 0x0 DUP1 REVERT JUMPDEST DUP2 MLOAD PUSH1 0x1 PUSH1 0x1 PUSH1 0xA0 SHL SUB DUP2 AND DUP2 EQ PUSH3 0x232 JUMPI PUSH1 0x0 DUP1 REVERT JUMPDEST SWAP4 SWAP3 POP POP POP JUMP JUMPDEST PUSH2 0x1C25 DUP1 PUSH3 0x249 PUSH1 0x0 CODECOPY PUSH1 0x0 RETURN INVALID PUSH1 0x80 PUSH1 0x40 MSTORE CALLVALUE DUP1 ISZERO PUSH2 0x10 JUMPI PUSH1 0x0 DUP1 REVERT JUMPDEST POP PUSH1 0x4 CALLDATASIZE LT PUSH2 0x142 JUMPI PUSH1 0x0 CALLDATALOAD PUSH1 0xE0 SHR DUP1 PUSH4 0x5C975ABB GT PUSH2 0xB8 JUMPI DUP1 PUSH4 0xB0B04E33 GT PUSH2 0x7C JUMPI DUP1 PUSH4 0xB0B04E33 EQ PUSH2 0x2E9 JUMPI DUP1 PUSH4 0xC22397FF EQ PUSH2 0x310 JUMPI DUP1 PUSH4 0xC3BB3861 EQ PUSH2 0x331 JUMPI DUP1 PUSH4 0xD547741F EQ PUSH2 0x33A JUMPI DUP1 PUSH4 0xD9E1063D EQ PUSH2 0x34D JUMPI DUP1 PUSH4 0xDC2B5060 EQ PUSH2 0x374 JUMPI PUSH1 0x0 DUP1 REVERT JUMPDEST DUP1 PUSH4 0x5C975ABB EQ PUSH2 0x2A7 JUMPI DUP1 PUSH4 0x91D14854 EQ PUSH2 0x2B2 JUMPI DUP1 PUSH4 0xA200E5D0 EQ PUSH2 0x2C5 JUMPI DUP1 PUSH4 0xA217FDDF EQ PUSH2 0x2D8 JUMPI DUP1 PUSH4 0xA250D107 EQ PUSH2 0x2E0 JUMPI PUSH1 0x0 DUP1 REVERT JUMPDEST DUP1 PUSH4 0x248A9CA3 GT PUSH2 0x10A JUMPI DUP1 PUSH4 0x248A9CA3 EQ PUSH2 0x1D9 JUMPI DUP1 PUSH4 0x2B85FC99 EQ PUSH2 0x1FC JUMPI DUP1 PUSH4 0x2F2FF15D EQ PUSH2 0x225 JUMPI DUP1 PUSH4 0x36568ABE EQ PUSH2 0x238 JUMPI DUP1 PUSH4 0x3F454A96 EQ PUSH2 0x24B JUMPI DUP1 PUSH4 0x551BECE6 EQ PUSH2 0x279 JUMPI PUSH1 0x0 DUP1 REVERT JUMPDEST DUP1 PUSH4 0x1FFC9A7 EQ PUSH2 0x147 JUMPI DUP1 PUSH4 0x18645831 EQ PUSH2 0x16F JUMPI DUP1 PUSH4 0x198596B5 EQ PUSH2 0x184 JUMPI DUP1 PUSH4 0x1BE3EF2D EQ PUSH2 0x1B9 JUMPI DUP1 PUSH4 0x21AF2540 EQ PUSH2 0x1C6 JUMPI JUMPDEST PUSH1 0x0 DUP1 REVERT JUMPDEST PUSH2 0x15A PUSH2 0x155 CALLDATASIZE PUSH1 0x4 PUSH2 0x1449 JUMP JUMPDEST PUSH2 0x37D JUMP JUMPDEST PUSH1 0x40 MLOAD SWAP1 ISZERO ISZERO DUP2 MSTORE PUSH1 0x20 ADD JUMPDEST PUSH1 0x40 MLOAD DUP1 SWAP2 SUB SWAP1 RETURN JUMPDEST PUSH2 0x182 PUSH2 0x17D CALLDATASIZE PUSH1 0x4 PUSH2 0x14D8 JUMP JUMPDEST PUSH2 0x3B4 JUMP JUMPDEST STOP JUMPDEST PUSH2 0x1AB PUSH32 0xB6F0283BD1ED00C6AA7E988A7516070240F3610A34D167391359B648EB37CEFC DUP2 JUMP JUMPDEST PUSH1 0x40 MLOAD SWAP1 DUP2 MSTORE PUSH1 0x20 ADD PUSH2 0x166 JUMP JUMPDEST PUSH1 0x9 SLOAD PUSH2 0x15A SWAP1 PUSH1 0xFF AND DUP2 JUMP JUMPDEST PUSH2 0x182 PUSH2 0x1D4 CALLDATASIZE PUSH1 0x4 PUSH2 0x155A JUMP JUMPDEST PUSH2 0x546 JUMP JUMPDEST PUSH2 0x1AB PUSH2 0x1E7 CALLDATASIZE PUSH1 0x4 PUSH2 0x1625 JUMP JUMPDEST PUSH1 0x0 SWAP1 DUP2 MSTORE PUSH1 0x20 DUP2 SWAP1 MSTORE PUSH1 0x40 SWAP1 KECCAK256 PUSH1 0x1 ADD SLOAD SWAP1 JUMP JUMPDEST PUSH2 0x20F PUSH2 0x20A CALLDATASIZE PUSH1 0x4 PUSH2 0x163E JUMP JUMPDEST PUSH2 0x8A4 JUMP JUMPDEST PUSH1 0x40 MLOAD PUSH2 0x166 SWAP11 SWAP10 SWAP9 SWAP8 SWAP7 SWAP6 SWAP5 SWAP4 SWAP3 SWAP2 SWAP1 PUSH2 0x16E3 JUMP JUMPDEST PUSH2 0x182 PUSH2 0x233 CALLDATASIZE PUSH1 0x4 PUSH2 0x1772 JUMP JUMPDEST PUSH2 0xA24 JUMP JUMPDEST PUSH2 0x182 PUSH2 0x246 CALLDATASIZE PUSH1 0x4 PUSH2 0x1772 JUMP JUMPDEST PUSH2 0xA4E JUMP JUMPDEST PUSH2 0x15A PUSH2 0x259 CALLDATASIZE PUSH1 0x4 PUSH2 0x17B4 JUMP JUMPDEST DUP1 MLOAD PUSH1 0x20 DUP2 DUP4 ADD DUP2 ADD DUP1 MLOAD PUSH1 0x4 DUP3 MSTORE SWAP3 DUP3 ADD SWAP2 SWAP1 SWAP4 ADD KECCAK256 SWAP2 MSTORE SLOAD PUSH1 0xFF AND DUP2 JUMP JUMPDEST PUSH2 0x15A PUSH2 0x287 CALLDATASIZE PUSH1 0x4 PUSH2 0x17B4 JUMP JUMPDEST DUP1 MLOAD PUSH1 0x20 DUP2 DUP4 ADD DUP2 ADD DUP1 MLOAD PUSH1 0x5 DUP3 MSTORE SWAP3 DUP3 ADD SWAP2 SWAP1 SWAP4 ADD KECCAK256 SWAP2 MSTORE SLOAD PUSH1 0xFF AND DUP2 JUMP JUMPDEST PUSH1 0x1 SLOAD PUSH1 0xFF AND PUSH2 0x15A JUMP JUMPDEST PUSH2 0x15A PUSH2 0x2C0 CALLDATASIZE PUSH1 0x4 PUSH2 0x1772 JUMP JUMPDEST PUSH2 0xACC JUMP JUMPDEST PUSH2 0x15A PUSH2 0x2D3 CALLDATASIZE PUSH1 0x4 PUSH2 0x163E JUMP JUMPDEST PUSH2 0xAF5 JUMP JUMPDEST PUSH2 0x1AB PUSH1 0x0 DUP2 JUMP JUMPDEST PUSH2 0x1AB PUSH1 0x8 SLOAD DUP2 JUMP JUMPDEST PUSH2 0x1AB PUSH32 0x33E26563BB47F6C58011D77BCAC0C19F2FBB8BA8738A01D2A759E466FA0D916A DUP2 JUMP JUMPDEST PUSH2 0x323 PUSH2 0x31E CALLDATASIZE PUSH1 0x4 PUSH2 0x1865 JUMP JUMPDEST PUSH2 0xDE1 JUMP JUMPDEST PUSH1 0x40 MLOAD PUSH2 0x166 SWAP3 SWAP2 SWAP1 PUSH2 0x18A1 JUMP JUMPDEST PUSH2 0x1AB PUSH1 0x6 SLOAD DUP2 JUMP JUMPDEST PUSH2 0x182 PUSH2 0x348 CALLDATASIZE PUSH1 0x4 PUSH2 0x1772 JUMP JUMPDEST PUSH2 0xFF0 JUMP JUMPDEST PUSH2 0x1AB PUSH32 0x6C4079FCAC94E7142D8C209744C998EFE53A188AADB7E55958F7AD3EA8A1D652 DUP2 JUMP JUMPDEST PUSH2 0x1AB PUSH1 0x7 SLOAD DUP2 JUMP JUMPDEST PUSH1 0x0 PUSH1 0x1 PUSH1 0x1 PUSH1 0xE0 SHL SUB NOT DUP3 AND PUSH4 0x7965DB0B PUSH1 0xE0 SHL EQ DUP1 PUSH2 0x3AE JUMPI POP PUSH4 0x1FFC9A7 PUSH1 0xE0 SHL PUSH1 0x1 PUSH1 0x1 PUSH1 0xE0 SHL SUB NOT DUP4 AND EQ JUMPDEST SWAP3 SWAP2 POP POP JUMP JUMPDEST PUSH32 0xB6F0283BD1ED00C6AA7E988A7516070240F3610A34D167391359B648EB37CEFC PUSH2 0x3DE DUP2 PUSH2 0x1015 JUMP JUMPDEST PUSH1 0x1 PUSH1 0x1 PUSH1 0xA0 SHL SUB DUP1 DUP7 AND PUSH1 0x0 SWAP1 DUP2 MSTORE PUSH1 0x3 PUSH1 0x20 MSTORE PUSH1 0x40 SWAP1 KECCAK256 DUP1 SLOAD SWAP1 SWAP2 AND PUSH2 0x44D JUMPI PUSH1 0x40 MLOAD PUSH3 0x461BCD PUSH1 0xE5 SHL DUP2 MSTORE PUSH1 0x20 PUSH1 0x4 DUP3 ADD MSTORE PUSH1 0x1B PUSH1 0x24 DUP3 ADD MSTORE PUSH32 0x436F6D706C69616E6365207265636F7264206E6F7420666F756E640000000000 PUSH1 0x44 DUP3 ADD MSTORE PUSH1 0x64 ADD JUMPDEST PUSH1 0x40 MLOAD DUP1 SWAP2 SUB SWAP1 REVERT JUMPDEST DUP1 SLOAD PUSH1 0x1 PUSH1 0xB0 SHL DUP1 DUP3 DIV PUSH1 0xFF AND SWAP2 DUP8 SWAP2 DUP5 SWAP2 PUSH1 0xFF PUSH1 0xB0 SHL NOT AND SWAP1 DUP4 PUSH1 0x4 DUP2 GT ISZERO PUSH2 0x479 JUMPI PUSH2 0x479 PUSH2 0x1659 JUMP JUMPDEST MUL OR SWAP1 SSTORE POP DUP7 PUSH1 0x1 PUSH1 0x1 PUSH1 0xA0 SHL SUB AND PUSH32 0x649951C1B4F143BEC0C7F26BB14F3A2E6B0B0157E47E9F8C647E29B852022E6 DUP3 DUP9 PUSH1 0x40 MLOAD PUSH2 0x4B9 SWAP3 SWAP2 SWAP1 PUSH2 0x18BC JUMP JUMPDEST PUSH1 0x40 MLOAD DUP1 SWAP2 SUB SWAP1 LOG2 PUSH1 0x2 DUP7 PUSH1 0x4 DUP2 GT ISZERO PUSH2 0x4D5 JUMPI PUSH2 0x4D5 PUSH2 0x1659 JUMP JUMPDEST EQ DUP1 PUSH2 0x4F2 JUMPI POP PUSH1 0x4 DUP7 PUSH1 0x4 DUP2 GT ISZERO PUSH2 0x4F0 JUMPI PUSH2 0x4F0 PUSH2 0x1659 JUMP JUMPDEST EQ JUMPDEST ISZERO PUSH2 0x53D JUMPI DUP7 PUSH1 0x1 PUSH1 0x1 PUSH1 0xA0 SHL SUB AND PUSH32 0xE9AEC22C81D6532FBE3B197EE399A3C37023BA155F7477EFB8A88F2153EB0666 DUP7 DUP7 TIMESTAMP PUSH1 0x40 MLOAD PUSH2 0x534 SWAP4 SWAP3 SWAP2 SWAP1 PUSH2 0x1900 JUMP JUMPDEST PUSH1 0x40 MLOAD DUP1 SWAP2 SUB SWAP1 LOG2 JUMPDEST POP POP POP POP POP POP POP JUMP JUMPDEST PUSH32 0xB6F0283BD1ED00C6AA7E988A7516070240F3610A34D167391359B648EB37CEFC PUSH2 0x570 DUP2 PUSH2 0x1015 JUMP JUMPDEST PUSH1 0x1 PUSH1 0x1 PUSH1 0xA0 SHL SUB DUP11 AND PUSH2 0x5BD JUMPI PUSH1 0x40 MLOAD PUSH3 0x461BCD PUSH1 0xE5 SHL DUP2 MSTORE PUSH1 0x20 PUSH1 0x4 DUP3 ADD MSTORE PUSH1 0x14 PUSH1 0x24 DUP3 ADD MSTORE PUSH20 0x496E76616C696420757365722061646472657373 PUSH1 0x60 SHL PUSH1 0x44 DUP3 ADD MSTORE PUSH1 0x64 ADD PUSH2 0x444 JUMP JUMPDEST PUSH1 0x4 DUP8 DUP8 PUSH1 0x40 MLOAD PUSH2 0x5CF SWAP3 SWAP2 SWAP1 PUSH2 0x1924 JUMP JUMPDEST SWAP1 DUP2 MSTORE PUSH1 0x40 MLOAD SWAP1 DUP2 SWAP1 SUB PUSH1 0x20 ADD SWAP1 KECCAK256 SLOAD PUSH1 0xFF AND PUSH2 0x62E JUMPI PUSH1 0x40 MLOAD PUSH3 0x461BCD PUSH1 0xE5 SHL DUP2 MSTORE PUSH1 0x20 PUSH1 0x4 DUP3 ADD MSTORE PUSH1 0x19 PUSH1 0x24 DUP3 ADD MSTORE PUSH32 0x4A7572697364696374696F6E206E6F7420617070726F76656400000000000000 PUSH1 0x44 DUP3 ADD MSTORE PUSH1 0x64 ADD PUSH2 0x444 JUMP JUMPDEST PUSH1 0x5 DUP8 DUP8 PUSH1 0x40 MLOAD PUSH2 0x640 SWAP3 SWAP2 SWAP1 PUSH2 0x1924 JUMP JUMPDEST SWAP1 DUP2 MSTORE PUSH1 0x40 MLOAD SWAP1 DUP2 SWAP1 SUB PUSH1 0x20 ADD SWAP1 KECCAK256 SLOAD PUSH1 0xFF AND ISZERO PUSH2 0x6A0 JUMPI PUSH1 0x40 MLOAD PUSH3 0x461BCD PUSH1 0xE5 SHL DUP2 MSTORE PUSH1 0x20 PUSH1 0x4 DUP3 ADD MSTORE PUSH1 0x17 PUSH1 0x24 DUP3 ADD MSTORE PUSH32 0x4A7572697364696374696F6E2072657374726963746564000000000000000000 PUSH1 0x44 DUP3 ADD MSTORE PUSH1 0x64 ADD PUSH2 0x444 JUMP JUMPDEST PUSH1 0x1 PUSH1 0x1 PUSH1 0xA0 SHL SUB DUP11 AND PUSH1 0x0 DUP2 DUP2 MSTORE PUSH1 0x3 PUSH1 0x20 DUP2 SWAP1 MSTORE PUSH1 0x40 SWAP1 SWAP2 KECCAK256 DUP1 SLOAD PUSH1 0x1 PUSH1 0x1 PUSH1 0xA0 SHL SUB NOT DUP2 AND DUP5 OR DUP3 SSTORE SWAP1 SWAP3 PUSH1 0xFF PUSH1 0x1 PUSH1 0xB0 SHL DUP4 DIV AND SWAP3 TIMESTAMP SWAP3 DUP15 SWAP3 DUP7 SWAP3 PUSH1 0x1 PUSH1 0x1 PUSH1 0xA8 SHL SUB NOT SWAP1 SWAP3 AND OR SWAP1 PUSH1 0x1 PUSH1 0xA0 SHL SWAP1 DUP5 SWAP1 DUP2 GT ISZERO PUSH2 0x704 JUMPI PUSH2 0x704 PUSH2 0x1659 JUMP JUMPDEST MUL OR SWAP1 SSTORE POP DUP3 SLOAD DUP12 SWAP1 DUP5 SWAP1 PUSH1 0xFF PUSH1 0xA8 SHL NOT AND PUSH1 0x1 PUSH1 0xA8 SHL DUP4 PUSH1 0x3 DUP2 GT ISZERO PUSH2 0x72D JUMPI PUSH2 0x72D PUSH2 0x1659 JUMP JUMPDEST MUL OR SWAP1 SSTORE POP PUSH2 0x73E DUP13 DUP13 DUP9 DUP9 PUSH2 0x1022 JUMP JUMPDEST DUP4 SLOAD DUP5 SWAP1 PUSH1 0xFF PUSH1 0xB0 SHL NOT AND PUSH1 0x1 PUSH1 0xB0 SHL DUP4 PUSH1 0x4 DUP2 GT ISZERO PUSH2 0x760 JUMPI PUSH2 0x760 PUSH2 0x1659 JUMP JUMPDEST MUL OR SWAP1 SSTORE POP PUSH1 0x1 DUP4 ADD DUP2 SWAP1 SSTORE PUSH2 0x776 DUP13 DUP13 PUSH2 0x10C6 JUMP JUMPDEST PUSH2 0x780 SWAP1 DUP3 PUSH2 0x194A JUMP JUMPDEST PUSH1 0x2 DUP5 ADD SSTORE PUSH1 0x3 DUP4 ADD PUSH2 0x794 DUP11 DUP13 DUP4 PUSH2 0x19E7 JUMP JUMPDEST POP PUSH1 0x4 DUP4 ADD PUSH2 0x7A4 DUP9 DUP11 DUP4 PUSH2 0x19E7 JUMP JUMPDEST POP PUSH1 0x5 DUP4 ADD DUP1 SLOAD PUSH2 0xFFFF NOT AND DUP8 ISZERO ISZERO PUSH2 0xFF00 NOT AND OR PUSH2 0x100 DUP8 ISZERO ISZERO MUL OR SWAP1 SSTORE PUSH1 0x40 MLOAD PUSH1 0x1 PUSH1 0x1 PUSH1 0xA0 SHL SUB DUP15 AND SWAP1 PUSH32 0x83A3249343AAF012CCB591E1438C530837D255B80CB6747A658A5AA12CA85449 SWAP1 PUSH2 0x804 SWAP1 DUP16 SWAP1 DUP16 SWAP1 DUP16 SWAP1 DUP16 SWAP1 PUSH2 0x1AA8 JUMP JUMPDEST PUSH1 0x40 MLOAD DUP1 SWAP2 SUB SWAP1 LOG2 DUP3 SLOAD PUSH1 0x1 PUSH1 0xB0 SHL SWAP1 DIV PUSH1 0xFF AND PUSH1 0x4 DUP2 GT ISZERO PUSH2 0x829 JUMPI PUSH2 0x829 PUSH2 0x1659 JUMP JUMPDEST DUP3 PUSH1 0x4 DUP2 GT ISZERO PUSH2 0x83B JUMPI PUSH2 0x83B PUSH2 0x1659 JUMP JUMPDEST EQ PUSH2 0x895 JUMPI DUP13 PUSH1 0x1 PUSH1 0x1 PUSH1 0xA0 SHL SUB AND PUSH32 0x649951C1B4F143BEC0C7F26BB14F3A2E6B0B0157E47E9F8C647E29B852022E6 DUP4 DUP6 PUSH1 0x0 ADD PUSH1 0x16 SWAP1 SLOAD SWAP1 PUSH2 0x100 EXP SWAP1 DIV PUSH1 0xFF AND PUSH1 0x40 MLOAD PUSH2 0x88C SWAP3 SWAP2 SWAP1 PUSH2 0x18BC JUMP JUMPDEST PUSH1 0x40 MLOAD DUP1 SWAP2 SUB SWAP1 LOG2 JUMPDEST POP POP POP POP POP POP POP POP POP POP POP POP POP JUMP JUMPDEST PUSH1 0x3 PUSH1 0x20 DUP2 SWAP1 MSTORE PUSH1 0x0 SWAP2 DUP3 MSTORE PUSH1 0x40 SWAP1 SWAP2 KECCAK256 DUP1 SLOAD PUSH1 0x1 DUP3 ADD SLOAD PUSH1 0x2 DUP4 ADD SLOAD SWAP4 DUP4 ADD DUP1 SLOAD PUSH1 0x1 PUSH1 0x1 PUSH1 0xA0 SHL SUB DUP5 AND SWAP6 PUSH1 0xFF PUSH1 0x1 PUSH1 0xA0 SHL DUP7 DIV DUP2 AND SWAP7 PUSH1 0x1 PUSH1 0xA8 SHL DUP8 DIV DUP3 AND SWAP7 PUSH1 0x1 PUSH1 0xB0 SHL SWAP1 DIV SWAP1 SWAP2 AND SWAP5 SWAP4 SWAP2 SWAP3 SWAP1 SWAP2 SWAP1 PUSH2 0x901 SWAP1 PUSH2 0x195D JUMP JUMPDEST DUP1 PUSH1 0x1F ADD PUSH1 0x20 DUP1 SWAP2 DIV MUL PUSH1 0x20 ADD PUSH1 0x40 MLOAD SWAP1 DUP2 ADD PUSH1 0x40 MSTORE DUP1 SWAP3 SWAP2 SWAP1 DUP2 DUP2 MSTORE PUSH1 0x20 ADD DUP3 DUP1 SLOAD PUSH2 0x92D SWAP1 PUSH2 0x195D JUMP JUMPDEST DUP1 ISZERO PUSH2 0x97A JUMPI DUP1 PUSH1 0x1F LT PUSH2 0x94F JUMPI PUSH2 0x100 DUP1 DUP4 SLOAD DIV MUL DUP4 MSTORE SWAP2 PUSH1 0x20 ADD SWAP2 PUSH2 0x97A JUMP JUMPDEST DUP3 ADD SWAP2 SWAP1 PUSH1 0x0 MSTORE PUSH1 0x20 PUSH1 0x0 KECCAK256 SWAP1 JUMPDEST DUP2 SLOAD DUP2 MSTORE SWAP1 PUSH1 0x1 ADD SWAP1 PUSH1 0x20 ADD DUP1 DUP4 GT PUSH2 0x95D JUMPI DUP3 SWAP1 SUB PUSH1 0x1F AND DUP3 ADD SWAP2 JUMPDEST POP POP POP POP POP SWAP1 DUP1 PUSH1 0x4 ADD DUP1 SLOAD PUSH2 0x98F SWAP1 PUSH2 0x195D JUMP JUMPDEST DUP1 PUSH1 0x1F ADD PUSH1 0x20 DUP1 SWAP2 DIV MUL PUSH1 0x20 ADD PUSH1 0x40 MLOAD SWAP1 DUP2 ADD PUSH1 0x40 MSTORE DUP1 SWAP3 SWAP2 SWAP1 DUP2 DUP2 MSTORE PUSH1 0x20 ADD DUP3 DUP1 SLOAD PUSH2 0x9BB SWAP1 PUSH2 0x195D JUMP JUMPDEST DUP1 ISZERO PUSH2 0xA08 JUMPI DUP1 PUSH1 0x1F LT PUSH2 0x9DD JUMPI PUSH2 0x100 DUP1 DUP4 SLOAD DIV MUL DUP4 MSTORE SWAP2 PUSH1 0x20 ADD SWAP2 PUSH2 0xA08 JUMP JUMPDEST DUP3 ADD SWAP2 SWAP1 PUSH1 0x0 MSTORE PUSH1 0x20 PUSH1 0x0 KECCAK256 SWAP1 JUMPDEST DUP2 SLOAD DUP2 MSTORE SWAP1 PUSH1 0x1 ADD SWAP1 PUSH1 0x20 ADD DUP1 DUP4 GT PUSH2 0x9EB JUMPI DUP3 SWAP1 SUB PUSH1 0x1F AND DUP3 ADD SWAP2 JUMPDEST POP POP POP PUSH1 0x5 SWAP1 SWAP4 ADD SLOAD SWAP2 SWAP3 POP POP PUSH1 0xFF DUP1 DUP3 AND SWAP2 PUSH2 0x100 SWAP1 DIV AND DUP11 JUMP JUMPDEST PUSH1 0x0 DUP3 DUP2 MSTORE PUSH1 0x20 DUP2 SWAP1 MSTORE PUSH1 0x40 SWAP1 KECCAK256 PUSH1 0x1 ADD SLOAD PUSH2 0xA3F DUP2 PUSH2 0x1015 JUMP JUMPDEST PUSH2 0xA49 DUP4 DUP4 PUSH2 0x1159 JUMP JUMPDEST POP POP POP JUMP JUMPDEST PUSH1 0x1 PUSH1 0x1 PUSH1 0xA0 SHL SUB DUP2 AND CALLER EQ PUSH2 0xABE JUMPI PUSH1 0x40 MLOAD PUSH3 0x461BCD PUSH1 0xE5 SHL DUP2 MSTORE PUSH1 0x20 PUSH1 0x4 DUP3 ADD MSTORE PUSH1 0x2F PUSH1 0x24 DUP3 ADD MSTORE PUSH32 0x416363657373436F6E74726F6C3A2063616E206F6E6C792072656E6F756E6365 PUSH1 0x44 DUP3 ADD MSTORE PUSH15 0x103937B632B9903337B91039B2B633 PUSH1 0x89 SHL PUSH1 0x64 DUP3 ADD MSTORE PUSH1 0x84 ADD PUSH2 0x444 JUMP JUMPDEST PUSH2 0xAC8 DUP3 DUP3 PUSH2 0x11DD JUMP JUMPDEST POP POP JUMP JUMPDEST PUSH1 0x0 SWAP2 DUP3 MSTORE PUSH1 0x20 DUP3 DUP2 MSTORE PUSH1 0x40 DUP1 DUP5 KECCAK256 PUSH1 0x1 PUSH1 0x1 PUSH1 0xA0 SHL SUB SWAP4 SWAP1 SWAP4 AND DUP5 MSTORE SWAP2 SWAP1 MSTORE SWAP1 KECCAK256 SLOAD PUSH1 0xFF AND SWAP1 JUMP JUMPDEST PUSH1 0x9 SLOAD PUSH1 0x0 SWAP1 PUSH1 0xFF AND PUSH2 0xB0A JUMPI POP PUSH1 0x1 SWAP2 SWAP1 POP JUMP JUMPDEST PUSH1 0x1 PUSH1 0x1 PUSH1 0xA0 SHL SUB DUP3 DUP2 AND PUSH1 0x0 SWAP1 DUP2 MSTORE PUSH1 0x3 PUSH1 0x20 DUP2 DUP2 MSTORE PUSH1 0x40 DUP1 DUP5 KECCAK256 DUP2 MLOAD PUSH2 0x140 DUP2 ADD SWAP1 SWAP3 MSTORE DUP1 SLOAD SWAP6 DUP7 AND DUP3 MSTORE SWAP4 SWAP5 SWAP1 SWAP4 SWAP3 SWAP2 DUP5 ADD SWAP2 PUSH1 0x1 PUSH1 0xA0 SHL SWAP1 SWAP2 DIV PUSH1 0xFF AND SWAP1 DUP2 GT ISZERO PUSH2 0xB5B JUMPI PUSH2 0xB5B PUSH2 0x1659 JUMP JUMPDEST PUSH1 0x3 DUP2 GT ISZERO PUSH2 0xB6C JUMPI PUSH2 0xB6C PUSH2 0x1659 JUMP JUMPDEST DUP2 MSTORE DUP2 SLOAD PUSH1 0x20 SWAP1 SWAP2 ADD SWAP1 PUSH1 0x1 PUSH1 0xA8 SHL SWAP1 DIV PUSH1 0xFF AND PUSH1 0x3 DUP2 GT ISZERO PUSH2 0xB91 JUMPI PUSH2 0xB91 PUSH2 0x1659 JUMP JUMPDEST PUSH1 0x3 DUP2 GT ISZERO PUSH2 0xBA2 JUMPI PUSH2 0xBA2 PUSH2 0x1659 JUMP JUMPDEST DUP2 MSTORE DUP2 SLOAD PUSH1 0x20 SWAP1 SWAP2 ADD SWAP1 PUSH1 0x1 PUSH1 0xB0 SHL SWAP1 DIV PUSH1 0xFF AND PUSH1 0x4 DUP2 GT ISZERO PUSH2 0xBC7 JUMPI PUSH2 0xBC7 PUSH2 0x1659 JUMP JUMPDEST PUSH1 0x4 DUP2 GT ISZERO PUSH2 0xBD8 JUMPI PUSH2 0xBD8 PUSH2 0x1659 JUMP JUMPDEST DUP2 MSTORE PUSH1 0x20 ADD PUSH1 0x1 DUP3 ADD SLOAD DUP2 MSTORE PUSH1 0x20 ADD PUSH1 0x2 DUP3 ADD SLOAD DUP2 MSTORE PUSH1 0x20 ADD PUSH1 0x3 DUP3 ADD DUP1 SLOAD PUSH2 0xC00 SWAP1 PUSH2 0x195D JUMP JUMPDEST DUP1 PUSH1 0x1F ADD PUSH1 0x20 DUP1 SWAP2 DIV MUL PUSH1 0x20 ADD PUSH1 0x40 MLOAD SWAP1 DUP2 ADD PUSH1 0x40 MSTORE DUP1 SWAP3 SWAP2 SWAP1 DUP2 DUP2 MSTORE PUSH1 0x20 ADD DUP3 DUP1 SLOAD PUSH2 0xC2C SWAP1 PUSH2 0x195D JUMP JUMPDEST DUP1 ISZERO PUSH2 0xC79 JUMPI DUP1 PUSH1 0x1F LT PUSH2 0xC4E JUMPI PUSH2 0x100 DUP1 DUP4 SLOAD DIV MUL DUP4 MSTORE SWAP2 PUSH1 0x20 ADD SWAP2 PUSH2 0xC79 JUMP JUMPDEST DUP3 ADD SWAP2 SWAP1 PUSH1 0x0 MSTORE PUSH1 0x20 PUSH1 0x0 KECCAK256 SWAP1 JUMPDEST DUP2 SLOAD DUP2 MSTORE SWAP1 PUSH1 0x1 ADD SWAP1 PUSH1 0x20 ADD DUP1 DUP4 GT PUSH2 0xC5C JUMPI DUP3 SWAP1 SUB PUSH1 0x1F AND DUP3 ADD SWAP2 JUMPDEST POP POP POP POP POP DUP2 MSTORE PUSH1 0x20 ADD PUSH1 0x4 DUP3 ADD DUP1 SLOAD PUSH2 0xC92 SWAP1 PUSH2 0x195D JUMP JUMPDEST DUP1 PUSH1 0x1F ADD PUSH1 0x20 DUP1 SWAP2 DIV MUL PUSH1 0x20 ADD PUSH1 0x40 MLOAD SWAP1 DUP2 ADD PUSH1 0x40 MSTORE DUP1 SWAP3 SWAP2 SWAP1 DUP2 DUP2 MSTORE PUSH1 0x20 ADD DUP3 DUP1 SLOAD PUSH2 0xCBE SWAP1 PUSH2 0x195D JUMP JUMPDEST DUP1 ISZERO PUSH2 0xD0B JUMPI DUP1 PUSH1 0x1F LT PUSH2 0xCE0 JUMPI PUSH2 0x100 DUP1 DUP4 SLOAD DIV MUL DUP4 MSTORE SWAP2 PUSH1 0x20 ADD SWAP2 PUSH2 0xD0B JUMP JUMPDEST DUP3 ADD SWAP2 SWAP1 PUSH1 0x0 MSTORE PUSH1 0x20 PUSH1 0x0 KECCAK256 SWAP1 JUMPDEST DUP2 SLOAD DUP2 MSTORE SWAP1 PUSH1 0x1 ADD SWAP1 PUSH1 0x20 ADD DUP1 DUP4 GT PUSH2 0xCEE JUMPI DUP3 SWAP1 SUB PUSH1 0x1F AND DUP3 ADD SWAP2 JUMPDEST POP POP POP SWAP2 DUP4 MSTORE POP POP PUSH1 0x5 SWAP2 SWAP1 SWAP2 ADD SLOAD PUSH1 0xFF DUP1 DUP3 AND ISZERO ISZERO PUSH1 0x20 DUP5 ADD MSTORE PUSH2 0x100 SWAP1 SWAP2 DIV AND ISZERO ISZERO PUSH1 0x40 SWAP1 SWAP2 ADD MSTORE DUP1 MLOAD SWAP1 SWAP2 POP PUSH1 0x1 PUSH1 0x1 PUSH1 0xA0 SHL SUB AND PUSH2 0xD50 JUMPI POP PUSH1 0x0 SWAP3 SWAP2 POP POP JUMP JUMPDEST PUSH1 0x1 DUP2 PUSH1 0x60 ADD MLOAD PUSH1 0x4 DUP2 GT ISZERO PUSH2 0xD68 JUMPI PUSH2 0xD68 PUSH2 0x1659 JUMP JUMPDEST EQ PUSH2 0xD76 JUMPI POP PUSH1 0x0 SWAP3 SWAP2 POP POP JUMP JUMPDEST TIMESTAMP DUP2 PUSH1 0xA0 ADD MLOAD GT PUSH2 0xD8A JUMPI POP PUSH1 0x0 SWAP3 SWAP2 POP POP JUMP JUMPDEST PUSH1 0x8 SLOAD DUP2 PUSH1 0x20 ADD MLOAD PUSH1 0x3 DUP2 GT ISZERO PUSH2 0xDA3 JUMPI PUSH2 0xDA3 PUSH2 0x1659 JUMP JUMPDEST LT ISZERO PUSH2 0xDB2 JUMPI POP PUSH1 0x0 SWAP3 SWAP2 POP POP JUMP JUMPDEST PUSH1 0x3 DUP2 PUSH1 0x40 ADD MLOAD PUSH1 0x3 DUP2 GT ISZERO PUSH2 0xDCA JUMPI PUSH2 0xDCA PUSH2 0x1659 JUMP JUMPDEST SUB PUSH2 0xDD8 JUMPI POP PUSH1 0x0 SWAP3 SWAP2 POP POP JUMP JUMPDEST POP PUSH1 0x1 SWAP3 SWAP2 POP POP JUMP JUMPDEST PUSH1 0x9 SLOAD PUSH1 0x0 SWAP1 PUSH1 0x60 SWAP1 PUSH1 0xFF AND PUSH2 0xE2F JUMPI POP POP PUSH1 0x40 DUP1 MLOAD DUP1 DUP3 ADD SWAP1 SWAP2 MSTORE PUSH1 0x17 DUP2 MSTORE PUSH32 0x436F6D706C69616E6365206E6F74207265717569726564000000000000000000 PUSH1 0x20 DUP3 ADD MSTORE PUSH1 0x1 SWAP1 PUSH2 0xFE8 JUMP JUMPDEST DUP3 PUSH1 0x0 SUB PUSH2 0xE75 JUMPI POP POP PUSH1 0x40 DUP1 MLOAD DUP1 DUP3 ADD SWAP1 SWAP2 MSTORE PUSH1 0x1A DUP2 MSTORE PUSH32 0x496E76616C6964207472616E73616374696F6E20616D6F756E74000000000000 PUSH1 0x20 DUP3 ADD MSTORE PUSH1 0x0 SWAP1 PUSH2 0xFE8 JUMP JUMPDEST PUSH1 0x40 MLOAD PUSH4 0xA200E5D PUSH1 0xE4 SHL DUP2 MSTORE PUSH1 0x1 PUSH1 0x1 PUSH1 0xA0 SHL SUB DUP7 AND PUSH1 0x4 DUP3 ADD MSTORE ADDRESS SWAP1 PUSH4 0xA200E5D0 SWAP1 PUSH1 0x24 ADD PUSH1 0x20 PUSH1 0x40 MLOAD DUP1 DUP4 SUB DUP2 DUP7 GAS STATICCALL ISZERO DUP1 ISZERO PUSH2 0xEB9 JUMPI RETURNDATASIZE PUSH1 0x0 DUP1 RETURNDATACOPY RETURNDATASIZE PUSH1 0x0 REVERT JUMPDEST POP POP POP POP PUSH1 0x40 MLOAD RETURNDATASIZE PUSH1 0x1F NOT PUSH1 0x1F DUP3 ADD AND DUP3 ADD DUP1 PUSH1 0x40 MSTORE POP DUP2 ADD SWAP1 PUSH2 0xEDD SWAP2 SWAP1 PUSH2 0x1AE4 JUMP JUMPDEST PUSH2 0xF15 JUMPI POP POP PUSH1 0x40 DUP1 MLOAD DUP1 DUP3 ADD SWAP1 SWAP2 MSTORE PUSH1 0x13 DUP2 MSTORE PUSH19 0x109D5E595C881B9BDD0818DBDB5C1B1A585B9D PUSH1 0x6A SHL PUSH1 0x20 DUP3 ADD MSTORE PUSH1 0x0 SWAP1 PUSH2 0xFE8 JUMP JUMPDEST PUSH1 0x40 MLOAD PUSH4 0xA200E5D PUSH1 0xE4 SHL DUP2 MSTORE PUSH1 0x1 PUSH1 0x1 PUSH1 0xA0 SHL SUB DUP6 AND PUSH1 0x4 DUP3 ADD MSTORE ADDRESS SWAP1 PUSH4 0xA200E5D0 SWAP1 PUSH1 0x24 ADD PUSH1 0x20 PUSH1 0x40 MLOAD DUP1 DUP4 SUB DUP2 DUP7 GAS STATICCALL ISZERO DUP1 ISZERO PUSH2 0xF59 JUMPI RETURNDATASIZE PUSH1 0x0 DUP1 RETURNDATACOPY RETURNDATASIZE PUSH1 0x0 REVERT JUMPDEST POP POP POP POP PUSH1 0x40 MLOAD RETURNDATASIZE PUSH1 0x1F NOT PUSH1 0x1F DUP3 ADD AND DUP3 ADD DUP1 PUSH1 0x40 MSTORE POP DUP2 ADD SWAP1 PUSH2 0xF7D SWAP2 SWAP1 PUSH2 0x1AE4 JUMP JUMPDEST PUSH2 0xFB6 JUMPI POP POP PUSH1 0x40 DUP1 MLOAD DUP1 DUP3 ADD SWAP1 SWAP2 MSTORE PUSH1 0x14 DUP2 MSTORE PUSH20 0x14D95B1B195C881B9BDD0818DBDB5C1B1A585B9D PUSH1 0x62 SHL PUSH1 0x20 DUP3 ADD MSTORE PUSH1 0x0 SWAP1 PUSH2 0xFE8 JUMP JUMPDEST POP POP PUSH1 0x40 DUP1 MLOAD DUP1 DUP3 ADD SWAP1 SWAP2 MSTORE PUSH1 0x15 DUP2 MSTORE PUSH21 0x151C985B9CD858DD1A5BDB8818DBDB5C1B1A585B9D PUSH1 0x5A SHL PUSH1 0x20 DUP3 ADD MSTORE PUSH1 0x1 SWAP1 JUMPDEST SWAP4 POP SWAP4 SWAP2 POP POP JUMP JUMPDEST PUSH1 0x0 DUP3 DUP2 MSTORE PUSH1 0x20 DUP2 SWAP1 MSTORE PUSH1 0x40 SWAP1 KECCAK256 PUSH1 0x1 ADD SLOAD PUSH2 0x100B DUP2 PUSH2 0x1015 JUMP JUMPDEST PUSH2 0xA49 DUP4 DUP4 PUSH2 0x11DD JUMP JUMPDEST PUSH2 0x101F DUP2 CALLER PUSH2 0x1242 JUMP JUMPDEST POP JUMP JUMPDEST PUSH1 0x0 PUSH1 0x3 DUP5 PUSH1 0x3 DUP2 GT ISZERO PUSH2 0x1038 JUMPI PUSH2 0x1038 PUSH2 0x1659 JUMP JUMPDEST EQ DUP1 PUSH2 0x1042 JUMPI POP DUP3 ISZERO JUMPDEST ISZERO PUSH2 0x104F JUMPI POP PUSH1 0x2 PUSH2 0x10BE JUMP JUMPDEST PUSH1 0x2 DUP5 PUSH1 0x3 DUP2 GT ISZERO PUSH2 0x1063 JUMPI PUSH2 0x1063 PUSH2 0x1659 JUMP JUMPDEST EQ DUP1 PUSH2 0x106C JUMPI POP DUP2 JUMPDEST ISZERO PUSH2 0x1079 JUMPI POP PUSH1 0x0 PUSH2 0x10BE JUMP JUMPDEST PUSH1 0x1 DUP6 PUSH1 0x3 DUP2 GT ISZERO PUSH2 0x108D JUMPI PUSH2 0x108D PUSH2 0x1659 JUMP JUMPDEST LT ISZERO DUP1 ISZERO PUSH2 0x10AD JUMPI POP PUSH1 0x1 DUP5 PUSH1 0x3 DUP2 GT ISZERO PUSH2 0x10AA JUMPI PUSH2 0x10AA PUSH2 0x1659 JUMP JUMPDEST GT ISZERO JUMPDEST ISZERO PUSH2 0x10BA JUMPI POP PUSH1 0x1 PUSH2 0x10BE JUMP JUMPDEST POP PUSH1 0x0 JUMPDEST SWAP5 SWAP4 POP POP POP POP JUMP JUMPDEST PUSH1 0x0 PUSH1 0x2 DUP3 PUSH1 0x3 DUP2 GT ISZERO PUSH2 0x10DC JUMPI PUSH2 0x10DC PUSH2 0x1659 JUMP JUMPDEST SUB PUSH2 0x10F7 JUMPI PUSH1 0x2 PUSH1 0x7 SLOAD PUSH2 0x10F0 SWAP2 SWAP1 PUSH2 0x1B01 JUMP JUMPDEST SWAP1 POP PUSH2 0x3AE JUMP JUMPDEST PUSH1 0x2 DUP4 PUSH1 0x3 DUP2 GT ISZERO PUSH2 0x110B JUMPI PUSH2 0x110B PUSH2 0x1659 JUMP JUMPDEST EQ DUP1 PUSH2 0x1128 JUMPI POP PUSH1 0x3 DUP4 PUSH1 0x3 DUP2 GT ISZERO PUSH2 0x1126 JUMPI PUSH2 0x1126 PUSH2 0x1659 JUMP JUMPDEST EQ JUMPDEST ISZERO PUSH2 0x1136 JUMPI POP PUSH1 0x6 SLOAD PUSH2 0x3AE JUMP JUMPDEST PUSH1 0x2 PUSH1 0x7 SLOAD PUSH1 0x6 SLOAD PUSH2 0x1148 SWAP2 SWAP1 PUSH2 0x194A JUMP JUMPDEST PUSH2 0x1152 SWAP2 SWAP1 PUSH2 0x1B01 JUMP JUMPDEST SWAP4 SWAP3 POP POP POP JUMP JUMPDEST PUSH2 0x1163 DUP3 DUP3 PUSH2 0xACC JUMP JUMPDEST PUSH2 0xAC8 JUMPI PUSH1 0x0 DUP3 DUP2 MSTORE PUSH1 0x20 DUP2 DUP2 MSTORE PUSH1 0x40 DUP1 DUP4 KECCAK256 PUSH1 0x1 PUSH1 0x1 PUSH1 0xA0 SHL SUB DUP6 AND DUP5 MSTORE SWAP1 SWAP2 MSTORE SWAP1 KECCAK256 DUP1 SLOAD PUSH1 0xFF NOT AND PUSH1 0x1 OR SWAP1 SSTORE PUSH2 0x1199 CALLER SWAP1 JUMP JUMPDEST PUSH1 0x1 PUSH1 0x1 PUSH1 0xA0 SHL SUB AND DUP2 PUSH1 0x1 PUSH1 0x1 PUSH1 0xA0 SHL SUB AND DUP4 PUSH32 0x2F8788117E7EFF1D82E926EC794901D17C78024A50270940304540A733656F0D PUSH1 0x40 MLOAD PUSH1 0x40 MLOAD DUP1 SWAP2 SUB SWAP1 LOG4 POP POP JUMP JUMPDEST PUSH2 0x11E7 DUP3 DUP3 PUSH2 0xACC JUMP JUMPDEST ISZERO PUSH2 0xAC8 JUMPI PUSH1 0x0 DUP3 DUP2 MSTORE PUSH1 0x20 DUP2 DUP2 MSTORE PUSH1 0x40 DUP1 DUP4 KECCAK256 PUSH1 0x1 PUSH1 0x1 PUSH1 0xA0 SHL SUB DUP6 AND DUP1 DUP6 MSTORE SWAP3 MSTORE DUP1 DUP4 KECCAK256 DUP1 SLOAD PUSH1 0xFF NOT AND SWAP1 SSTORE MLOAD CALLER SWAP3 DUP6 SWAP2 PUSH32 0xF6391F5C32D9C69D2A47EA670B442974B53935D1EDC7FD64EB21E047A839171B SWAP2 SWAP1 LOG4 POP POP JUMP JUMPDEST PUSH2 0x124C DUP3 DUP3 PUSH2 0xACC JUMP JUMPDEST PUSH2 0xAC8 JUMPI PUSH2 0x1259 DUP2 PUSH2 0x129B JUMP JUMPDEST PUSH2 0x1264 DUP4 PUSH1 0x20 PUSH2 0x12AD JUMP JUMPDEST PUSH1 0x40 MLOAD PUSH1 0x20 ADD PUSH2 0x1275 SWAP3 SWAP2 SWAP1 PUSH2 0x1B23 JUMP JUMPDEST PUSH1 0x40 DUP1 MLOAD PUSH1 0x1F NOT DUP2 DUP5 SUB ADD DUP2 MSTORE SWAP1 DUP3 SWAP1 MSTORE PUSH3 0x461BCD PUSH1 0xE5 SHL DUP3 MSTORE PUSH2 0x444 SWAP2 PUSH1 0x4 ADD PUSH2 0x1B98 JUMP JUMPDEST PUSH1 0x60 PUSH2 0x3AE PUSH1 0x1 PUSH1 0x1 PUSH1 0xA0 SHL SUB DUP4 AND PUSH1 0x14 JUMPDEST PUSH1 0x60 PUSH1 0x0 PUSH2 0x12BC DUP4 PUSH1 0x2 PUSH2 0x1BAB JUMP JUMPDEST PUSH2 0x12C7 SWAP1 PUSH1 0x2 PUSH2 0x194A JUMP JUMPDEST PUSH8 0xFFFFFFFFFFFFFFFF DUP2 GT ISZERO PUSH2 0x12DF JUMPI PUSH2 0x12DF PUSH2 0x179E JUMP JUMPDEST PUSH1 0x40 MLOAD SWAP1 DUP1 DUP3 MSTORE DUP1 PUSH1 0x1F ADD PUSH1 0x1F NOT AND PUSH1 0x20 ADD DUP3 ADD PUSH1 0x40 MSTORE DUP1 ISZERO PUSH2 0x1309 JUMPI PUSH1 0x20 DUP3 ADD DUP2 DUP1 CALLDATASIZE DUP4 CALLDATACOPY ADD SWAP1 POP JUMPDEST POP SWAP1 POP PUSH1 0x3 PUSH1 0xFC SHL DUP2 PUSH1 0x0 DUP2 MLOAD DUP2 LT PUSH2 0x1324 JUMPI PUSH2 0x1324 PUSH2 0x1BC2 JUMP JUMPDEST PUSH1 0x20 ADD ADD SWAP1 PUSH1 0x1 PUSH1 0x1 PUSH1 0xF8 SHL SUB NOT AND SWAP1 DUP2 PUSH1 0x0 BYTE SWAP1 MSTORE8 POP PUSH1 0xF PUSH1 0xFB SHL DUP2 PUSH1 0x1 DUP2 MLOAD DUP2 LT PUSH2 0x1353 JUMPI PUSH2 0x1353 PUSH2 0x1BC2 JUMP JUMPDEST PUSH1 0x20 ADD ADD SWAP1 PUSH1 0x1 PUSH1 0x1 PUSH1 0xF8 SHL SUB NOT AND SWAP1 DUP2 PUSH1 0x0 BYTE SWAP1 MSTORE8 POP PUSH1 0x0 PUSH2 0x1377 DUP5 PUSH1 0x2 PUSH2 0x1BAB JUMP JUMPDEST PUSH2 0x1382 SWAP1 PUSH1 0x1 PUSH2 0x194A JUMP JUMPDEST SWAP1 POP JUMPDEST PUSH1 0x1 DUP2 GT ISZERO PUSH2 0x13FA JUMPI PUSH16 0x181899199A1A9B1B9C1CB0B131B232B3 PUSH1 0x81 SHL DUP6 PUSH1 0xF AND PUSH1 0x10 DUP2 LT PUSH2 0x13B6 JUMPI PUSH2 0x13B6 PUSH2 0x1BC2 JUMP JUMPDEST BYTE PUSH1 0xF8 SHL DUP3 DUP3 DUP2 MLOAD DUP2 LT PUSH2 0x13CC JUMPI PUSH2 0x13CC PUSH2 0x1BC2 JUMP JUMPDEST PUSH1 0x20 ADD ADD SWAP1 PUSH1 0x1 PUSH1 0x1 PUSH1 0xF8 SHL SUB NOT AND SWAP1 DUP2 PUSH1 0x0 BYTE SWAP1 MSTORE8 POP PUSH1 0x4 SWAP5 SWAP1 SWAP5 SHR SWAP4 PUSH2 0x13F3 DUP2 PUSH2 0x1BD8 JUMP JUMPDEST SWAP1 POP PUSH2 0x1385 JUMP JUMPDEST POP DUP4 ISZERO PUSH2 0x1152 JUMPI PUSH1 0x40 MLOAD PUSH3 0x461BCD PUSH1 0xE5 SHL DUP2 MSTORE PUSH1 0x20 PUSH1 0x4 DUP3 ADD DUP2 SWAP1 MSTORE PUSH1 0x24 DUP3 ADD MSTORE PUSH32 0x537472696E67733A20686578206C656E67746820696E73756666696369656E74 PUSH1 0x44 DUP3 ADD MSTORE PUSH1 0x64 ADD PUSH2 0x444 JUMP JUMPDEST PUSH1 0x0 PUSH1 0x20 DUP3 DUP5 SUB SLT ISZERO PUSH2 0x145B JUMPI PUSH1 0x0 DUP1 REVERT JUMPDEST DUP2 CALLDATALOAD PUSH1 0x1 PUSH1 0x1 PUSH1 0xE0 SHL SUB NOT DUP2 AND DUP2 EQ PUSH2 0x1152 JUMPI PUSH1 0x0 DUP1 REVERT JUMPDEST DUP1 CALLDATALOAD PUSH1 0x1 PUSH1 0x1 PUSH1 0xA0 SHL SUB DUP2 AND DUP2 EQ PUSH2 0x148A JUMPI PUSH1 0x0 DUP1 REVERT JUMPDEST SWAP2 SWAP1 POP JUMP JUMPDEST PUSH1 0x0 DUP1 DUP4 PUSH1 0x1F DUP5 ADD SLT PUSH2 0x14A1 JUMPI PUSH1 0x0 DUP1 REVERT JUMPDEST POP DUP2 CALLDATALOAD PUSH8 0xFFFFFFFFFFFFFFFF DUP2 GT ISZERO PUSH2 0x14B9 JUMPI PUSH1 0x0 DUP1 REVERT JUMPDEST PUSH1 0x20 DUP4 ADD SWAP2 POP DUP4 PUSH1 0x20 DUP3 DUP6 ADD ADD GT ISZERO PUSH2 0x14D1 JUMPI PUSH1 0x0 DUP1 REVERT JUMPDEST SWAP3 POP SWAP3 SWAP1 POP JUMP JUMPDEST PUSH1 0x0 DUP1 PUSH1 0x0 DUP1 PUSH1 0x60 DUP6 DUP8 SUB SLT ISZERO PUSH2 0x14EE JUMPI PUSH1 0x0 DUP1 REVERT JUMPDEST PUSH2 0x14F7 DUP6 PUSH2 0x1473 JUMP JUMPDEST SWAP4 POP PUSH1 0x20 DUP6 ADD CALLDATALOAD PUSH1 0x5 DUP2 LT PUSH2 0x150B JUMPI PUSH1 0x0 DUP1 REVERT JUMPDEST SWAP3 POP PUSH1 0x40 DUP6 ADD CALLDATALOAD PUSH8 0xFFFFFFFFFFFFFFFF DUP2 GT ISZERO PUSH2 0x1527 JUMPI PUSH1 0x0 DUP1 REVERT JUMPDEST PUSH2 0x1533 DUP8 DUP3 DUP9 ADD PUSH2 0x148F JUMP JUMPDEST SWAP6 SWAP9 SWAP5 SWAP8 POP SWAP6 POP POP POP POP JUMP JUMPDEST PUSH1 0x4 DUP2 LT PUSH2 0x101F JUMPI PUSH1 0x0 DUP1 REVERT JUMPDEST DUP1 ISZERO ISZERO DUP2 EQ PUSH2 0x101F JUMPI PUSH1 0x0 DUP1 REVERT JUMPDEST PUSH1 0x0 DUP1 PUSH1 0x0 DUP1 PUSH1 0x0 DUP1 PUSH1 0x0 DUP1 PUSH1 0x0 PUSH1 0xE0 DUP11 DUP13 SUB SLT ISZERO PUSH2 0x1578 JUMPI PUSH1 0x0 DUP1 REVERT JUMPDEST PUSH2 0x1581 DUP11 PUSH2 0x1473 JUMP JUMPDEST SWAP9 POP PUSH1 0x20 DUP11 ADD CALLDATALOAD PUSH2 0x1591 DUP2 PUSH2 0x153F JUMP JUMPDEST SWAP8 POP PUSH1 0x40 DUP11 ADD CALLDATALOAD PUSH2 0x15A1 DUP2 PUSH2 0x153F JUMP JUMPDEST SWAP7 POP PUSH1 0x60 DUP11 ADD CALLDATALOAD PUSH8 0xFFFFFFFFFFFFFFFF DUP1 DUP3 GT ISZERO PUSH2 0x15BE JUMPI PUSH1 0x0 DUP1 REVERT JUMPDEST PUSH2 0x15CA DUP14 DUP4 DUP15 ADD PUSH2 0x148F JUMP JUMPDEST SWAP1 SWAP9 POP SWAP7 POP PUSH1 0x80 DUP13 ADD CALLDATALOAD SWAP2 POP DUP1 DUP3 GT ISZERO PUSH2 0x15E3 JUMPI PUSH1 0x0 DUP1 REVERT JUMPDEST POP PUSH2 0x15F0 DUP13 DUP3 DUP14 ADD PUSH2 0x148F JUMP JUMPDEST SWAP1 SWAP6 POP SWAP4 POP POP PUSH1 0xA0 DUP11 ADD CALLDATALOAD PUSH2 0x1604 DUP2 PUSH2 0x154C JUMP JUMPDEST SWAP2 POP PUSH1 0xC0 DUP11 ADD CALLDATALOAD PUSH2 0x1614 DUP2 PUSH2 0x154C JUMP JUMPDEST DUP1 SWAP2 POP POP SWAP3 SWAP6 SWAP9 POP SWAP3 SWAP6 SWAP9 POP SWAP3 SWAP6 SWAP9 JUMP JUMPDEST PUSH1 0x0 PUSH1 0x20 DUP3 DUP5 SUB SLT ISZERO PUSH2 0x1637 JUMPI PUSH1 0x0 DUP1 REVERT JUMPDEST POP CALLDATALOAD SWAP2 SWAP1 POP JUMP JUMPDEST PUSH1 0x0 PUSH1 0x20 DUP3 DUP5 SUB SLT ISZERO PUSH2 0x1650 JUMPI PUSH1 0x0 DUP1 REVERT JUMPDEST PUSH2 0x1152 DUP3 PUSH2 0x1473 JUMP JUMPDEST PUSH4 0x4E487B71 PUSH1 0xE0 SHL PUSH1 0x0 MSTORE PUSH1 0x21 PUSH1 0x4 MSTORE PUSH1 0x24 PUSH1 0x0 REVERT JUMPDEST PUSH1 0x4 DUP2 LT PUSH2 0x101F JUMPI PUSH2 0x101F PUSH2 0x1659 JUMP JUMPDEST PUSH1 0x5 DUP2 LT PUSH2 0x168F JUMPI PUSH2 0x168F PUSH2 0x1659 JUMP JUMPDEST SWAP1 MSTORE JUMP JUMPDEST PUSH1 0x0 JUMPDEST DUP4 DUP2 LT ISZERO PUSH2 0x16AE JUMPI DUP2 DUP2 ADD MLOAD DUP4 DUP3 ADD MSTORE PUSH1 0x20 ADD PUSH2 0x1696 JUMP JUMPDEST POP POP PUSH1 0x0 SWAP2 ADD MSTORE JUMP JUMPDEST PUSH1 0x0 DUP2 MLOAD DUP1 DUP5 MSTORE PUSH2 0x16CF DUP2 PUSH1 0x20 DUP7 ADD PUSH1 0x20 DUP7 ADD PUSH2 0x1693 JUMP JUMPDEST PUSH1 0x1F ADD PUSH1 0x1F NOT AND SWAP3 SWAP1 SWAP3 ADD PUSH1 0x20 ADD SWAP3 SWAP2 POP POP JUMP JUMPDEST PUSH1 0x1 PUSH1 0x1 PUSH1 0xA0 SHL SUB DUP12 AND DUP2 MSTORE PUSH1 0x0 PUSH2 0x140 PUSH2 0x16FD DUP13 PUSH2 0x166F JUMP JUMPDEST DUP12 PUSH1 0x20 DUP5 ADD MSTORE PUSH2 0x170C DUP12 PUSH2 0x166F JUMP JUMPDEST DUP11 PUSH1 0x40 DUP5 ADD MSTORE PUSH2 0x171F PUSH1 0x60 DUP5 ADD DUP12 PUSH2 0x167F JUMP JUMPDEST DUP9 PUSH1 0x80 DUP5 ADD MSTORE DUP8 PUSH1 0xA0 DUP5 ADD MSTORE DUP1 PUSH1 0xC0 DUP5 ADD MSTORE PUSH2 0x173D DUP2 DUP5 ADD DUP9 PUSH2 0x16B7 JUMP JUMPDEST SWAP1 POP DUP3 DUP2 SUB PUSH1 0xE0 DUP5 ADD MSTORE PUSH2 0x1751 DUP2 DUP8 PUSH2 0x16B7 JUMP JUMPDEST SWAP5 ISZERO ISZERO PUSH2 0x100 DUP5 ADD MSTORE POP POP SWAP1 ISZERO ISZERO PUSH2 0x120 SWAP1 SWAP2 ADD MSTORE SWAP9 SWAP8 POP POP POP POP POP POP POP POP JUMP JUMPDEST PUSH1 0x0 DUP1 PUSH1 0x40 DUP4 DUP6 SUB SLT ISZERO PUSH2 0x1785 JUMPI PUSH1 0x0 DUP1 REVERT JUMPDEST DUP3 CALLDATALOAD SWAP2 POP PUSH2 0x1795 PUSH1 0x20 DUP5 ADD PUSH2 0x1473 JUMP JUMPDEST SWAP1 POP SWAP3 POP SWAP3 SWAP1 POP JUMP JUMPDEST PUSH4 0x4E487B71 PUSH1 0xE0 SHL PUSH1 0x0 MSTORE PUSH1 0x41 PUSH1 0x4 MSTORE PUSH1 0x24 PUSH1 0x0 REVERT JUMPDEST PUSH1 0x0 PUSH1 0x20 DUP3 DUP5 SUB SLT ISZERO PUSH2 0x17C6 JUMPI PUSH1 0x0 DUP1 REVERT JUMPDEST DUP2 CALLDATALOAD PUSH8 0xFFFFFFFFFFFFFFFF DUP1 DUP3 GT ISZERO PUSH2 0x17DE JUMPI PUSH1 0x0 DUP1 REVERT JUMPDEST DUP2 DUP5 ADD SWAP2 POP DUP5 PUSH1 0x1F DUP4 ADD SLT PUSH2 0x17F2 JUMPI PUSH1 0x0 DUP1 REVERT JUMPDEST DUP2 CALLDATALOAD DUP2 DUP2 GT ISZERO PUSH2 0x1804 JUMPI PUSH2 0x1804 PUSH2 0x179E JUMP JUMPDEST PUSH1 0x40 MLOAD PUSH1 0x1F DUP3 ADD PUSH1 0x1F NOT SWAP1 DUP2 AND PUSH1 0x3F ADD AND DUP2 ADD SWAP1 DUP4 DUP3 GT DUP2 DUP4 LT OR ISZERO PUSH2 0x182C JUMPI PUSH2 0x182C PUSH2 0x179E JUMP JUMPDEST DUP2 PUSH1 0x40 MSTORE DUP3 DUP2 MSTORE DUP8 PUSH1 0x20 DUP5 DUP8 ADD ADD GT ISZERO PUSH2 0x1845 JUMPI PUSH1 0x0 DUP1 REVERT JUMPDEST DUP3 PUSH1 0x20 DUP7 ADD PUSH1 0x20 DUP4 ADD CALLDATACOPY PUSH1 0x0 SWAP3 DUP2 ADD PUSH1 0x20 ADD SWAP3 SWAP1 SWAP3 MSTORE POP SWAP6 SWAP5 POP POP POP POP POP JUMP JUMPDEST PUSH1 0x0 DUP1 PUSH1 0x0 PUSH1 0x60 DUP5 DUP7 SUB SLT ISZERO PUSH2 0x187A JUMPI PUSH1 0x0 DUP1 REVERT JUMPDEST PUSH2 0x1883 DUP5 PUSH2 0x1473 JUMP JUMPDEST SWAP3 POP PUSH2 0x1891 PUSH1 0x20 DUP6 ADD PUSH2 0x1473 JUMP JUMPDEST SWAP2 POP PUSH1 0x40 DUP5 ADD CALLDATALOAD SWAP1 POP SWAP3 POP SWAP3 POP SWAP3 JUMP JUMPDEST DUP3 ISZERO ISZERO DUP2 MSTORE PUSH1 0x40 PUSH1 0x20 DUP3 ADD MSTORE PUSH1 0x0 PUSH2 0x10BE PUSH1 0x40 DUP4 ADD DUP5 PUSH2 0x16B7 JUMP JUMPDEST PUSH1 0x40 DUP2 ADD PUSH2 0x18CA DUP3 DUP6 PUSH2 0x167F JUMP JUMPDEST PUSH2 0x1152 PUSH1 0x20 DUP4 ADD DUP5 PUSH2 0x167F JUMP JUMPDEST DUP2 DUP4 MSTORE DUP2 DUP2 PUSH1 0x20 DUP6 ADD CALLDATACOPY POP PUSH1 0x0 DUP3 DUP3 ADD PUSH1 0x20 SWAP1 DUP2 ADD SWAP2 SWAP1 SWAP2 MSTORE PUSH1 0x1F SWAP1 SWAP2 ADD PUSH1 0x1F NOT AND SWAP1 SWAP2 ADD ADD SWAP1 JUMP JUMPDEST PUSH1 0x40 DUP2 MSTORE PUSH1 0x0 PUSH2 0x1914 PUSH1 0x40 DUP4 ADD DUP6 DUP8 PUSH2 0x18D7 JUMP JUMPDEST SWAP1 POP DUP3 PUSH1 0x20 DUP4 ADD MSTORE SWAP5 SWAP4 POP POP POP POP JUMP JUMPDEST DUP2 DUP4 DUP3 CALLDATACOPY PUSH1 0x0 SWAP2 ADD SWAP1 DUP2 MSTORE SWAP2 SWAP1 POP JUMP JUMPDEST PUSH4 0x4E487B71 PUSH1 0xE0 SHL PUSH1 0x0 MSTORE PUSH1 0x11 PUSH1 0x4 MSTORE PUSH1 0x24 PUSH1 0x0 REVERT JUMPDEST DUP1 DUP3 ADD DUP1 DUP3 GT ISZERO PUSH2 0x3AE JUMPI PUSH2 0x3AE PUSH2 0x1934 JUMP JUMPDEST PUSH1 0x1 DUP2 DUP2 SHR SWAP1 DUP3 AND DUP1 PUSH2 0x1971 JUMPI PUSH1 0x7F DUP3 AND SWAP2 POP JUMPDEST PUSH1 0x20 DUP3 LT DUP2 SUB PUSH2 0x1991 JUMPI PUSH4 0x4E487B71 PUSH1 0xE0 SHL PUSH1 0x0 MSTORE PUSH1 0x22 PUSH1 0x4 MSTORE PUSH1 0x24 PUSH1 0x0 REVERT JUMPDEST POP SWAP2 SWAP1 POP JUMP JUMPDEST PUSH1 0x1F DUP3 GT ISZERO PUSH2 0xA49 JUMPI PUSH1 0x0 DUP2 PUSH1 0x0 MSTORE PUSH1 0x20 PUSH1 0x0 KECCAK256 PUSH1 0x1F DUP6 ADD PUSH1 0x5 SHR DUP2 ADD PUSH1 0x20 DUP7 LT ISZERO PUSH2 0x19C0 JUMPI POP DUP1 JUMPDEST PUSH1 0x1F DUP6 ADD PUSH1 0x5 SHR DUP3 ADD SWAP2 POP JUMPDEST DUP2 DUP2 LT ISZERO PUSH2 0x19DF JUMPI DUP3 DUP2 SSTORE PUSH1 0x1 ADD PUSH2 0x19CC JUMP JUMPDEST POP POP POP POP POP POP JUMP JUMPDEST PUSH8 0xFFFFFFFFFFFFFFFF DUP4 GT ISZERO PUSH2 0x19FF JUMPI PUSH2 0x19FF PUSH2 0x179E JUMP JUMPDEST PUSH2 0x1A13 DUP4 PUSH2 0x1A0D DUP4 SLOAD PUSH2 0x195D JUMP JUMPDEST DUP4 PUSH2 0x1997 JUMP JUMPDEST PUSH1 0x0 PUSH1 0x1F DUP5 GT PUSH1 0x1 DUP2 EQ PUSH2 0x1A47 JUMPI PUSH1 0x0 DUP6 ISZERO PUSH2 0x1A2F JUMPI POP DUP4 DUP3 ADD CALLDATALOAD JUMPDEST PUSH1 0x0 NOT PUSH1 0x3 DUP8 SWAP1 SHL SHR NOT AND PUSH1 0x1 DUP7 SWAP1 SHL OR DUP4 SSTORE PUSH2 0x1AA1 JUMP JUMPDEST PUSH1 0x0 DUP4 DUP2 MSTORE PUSH1 0x20 SWAP1 KECCAK256 PUSH1 0x1F NOT DUP7 AND SWAP1 DUP4 JUMPDEST DUP3 DUP2 LT ISZERO PUSH2 0x1A78 JUMPI DUP7 DUP6 ADD CALLDATALOAD DUP3 SSTORE PUSH1 0x20 SWAP5 DUP6 ADD SWAP5 PUSH1 0x1 SWAP1 SWAP3 ADD SWAP2 ADD PUSH2 0x1A58 JUMP JUMPDEST POP DUP7 DUP3 LT ISZERO PUSH2 0x1A95 JUMPI PUSH1 0x0 NOT PUSH1 0xF8 DUP9 PUSH1 0x3 SHL AND SHR NOT DUP5 DUP8 ADD CALLDATALOAD AND DUP2 SSTORE JUMPDEST POP POP PUSH1 0x1 DUP6 PUSH1 0x1 SHL ADD DUP4 SSTORE JUMPDEST POP POP POP POP POP JUMP JUMPDEST PUSH2 0x1AB1 DUP6 PUSH2 0x166F JUMP JUMPDEST DUP5 DUP2 MSTORE PUSH2 0x1ABD DUP5 PUSH2 0x166F JUMP JUMPDEST DUP4 PUSH1 0x20 DUP3 ADD MSTORE PUSH1 0x60 PUSH1 0x40 DUP3 ADD MSTORE PUSH1 0x0 PUSH2 0x1ADA PUSH1 0x60 DUP4 ADD DUP5 DUP7 PUSH2 0x18D7 JUMP JUMPDEST SWAP7 SWAP6 POP POP POP POP POP POP JUMP JUMPDEST PUSH1 0x0 PUSH1 0x20 DUP3 DUP5 SUB SLT ISZERO PUSH2 0x1AF6 JUMPI PUSH1 0x0 DUP1 REVERT JUMPDEST DUP2 MLOAD PUSH2 0x1152 DUP2 PUSH2 0x154C JUMP JUMPDEST PUSH1 0x0 DUP3 PUSH2 0x1B1E JUMPI PUSH4 0x4E487B71 PUSH1 0xE0 SHL PUSH1 0x0 MSTORE PUSH1 0x12 PUSH1 0x4 MSTORE PUSH1 0x24 PUSH1 0x0 REVERT JUMPDEST POP DIV SWAP1 JUMP JUMPDEST PUSH32 0x416363657373436F6E74726F6C3A206163636F756E7420000000000000000000 DUP2 MSTORE PUSH1 0x0 DUP4 MLOAD PUSH2 0x1B5B DUP2 PUSH1 0x17 DUP6 ADD PUSH1 0x20 DUP9 ADD PUSH2 0x1693 JUMP JUMPDEST PUSH17 0x1034B99036B4B9B9B4B733903937B6329 PUSH1 0x7D SHL PUSH1 0x17 SWAP2 DUP5 ADD SWAP2 DUP3 ADD MSTORE DUP4 MLOAD PUSH2 0x1B8C DUP2 PUSH1 0x28 DUP5 ADD PUSH1 0x20 DUP9 ADD PUSH2 0x1693 JUMP JUMPDEST ADD PUSH1 0x28 ADD SWAP5 SWAP4 POP POP POP POP JUMP JUMPDEST PUSH1 0x20 DUP2 MSTORE PUSH1 0x0 PUSH2 0x1152 PUSH1 0x20 DUP4 ADD DUP5 PUSH2 0x16B7 JUMP JUMPDEST DUP1 DUP3 MUL DUP2 ISZERO DUP3 DUP3 DIV DUP5 EQ OR PUSH2 0x3AE JUMPI PUSH2 0x3AE PUSH2 0x1934 JUMP JUMPDEST PUSH4 0x4E487B71 PUSH1 0xE0 SHL PUSH1 0x0 MSTORE PUSH1 0x32 PUSH1 0x4 MSTORE PUSH1 0x24 PUSH1 0x0 REVERT JUMPDEST PUSH1 0x0 DUP2 PUSH2 0x1BE7 JUMPI PUSH2 0x1BE7 PUSH2 0x1934 JUMP JUMPDEST POP PUSH1 0x0 NOT ADD SWAP1 JUMP INVALID LOG2 PUSH5 0x6970667358 0x22 SLT KECCAK256 0xBD 0xAC PUSH9 0xBF317D31DD989B1011 DUP6 DIV BASEFEE 0xB1 0xB8 PUSH20 0x1BAA13B03C06B8B32F1195C809C764736F6C6343 STOP ADDMOD AND STOP CALLER "},"methodIdentifiers":{"AML_PROVIDER_ROLE()":"b0b04e33","COMPLIANCE_OFFICER_ROLE()":"198596b5","DEFAULT_ADMIN_ROLE()":"a217fddf","KYC_PROVIDER_ROLE()":"d9e1063d","amlExpiryPeriod()":"dc2b5060","approvedJurisdictions(string)":"3f454a96","complianceRecords(address)":"2b85fc99","complianceRequired()":"1be3ef2d","createComplianceRecord(address,uint8,uint8,string,string,bool,bool)":"21af2540","getRoleAdmin(bytes32)":"248a9ca3","grantRole(bytes32,address)":"2f2ff15d","hasRole(bytes32,address)":"91d14854","isCompliant(address)":"a200e5d0","kycExpiryPeriod()":"c3bb3861","minimumKYCLevel()":"a250d107","paused()":"5c975abb","renounceRole(bytes32,address)":"36568abe","restrictedJurisdictions(string)":"551bece6","revokeRole(bytes32,address)":"d547741f","supportsInterface(bytes4)":"01ffc9a7","updateComplianceStatus(address,uint8,string)":"18645831","validateTransaction(address,address,uint256)":"c22397ff"}},"storageLayout":{"storage":[{"astId":24,"contract":"contracts/compliance/ComplianceManager.sol:ComplianceManager","label":"_roles","offset":0,"slot":"0","type":"t_mapping(t_bytes32,t_struct(RoleData)19_storage)"},{"astId":406,"contract":"contracts/compliance/ComplianceManager.sol:ComplianceManager","label":"_paused","offset":0,"slot":"1","type":"t_bool"},{"astId":507,"contract":"contracts/compliance/ComplianceManager.sol:ComplianceManager","label":"_status","offset":0,"slot":"2","type":"t_uint256"},{"astId":1891,"contract":"contracts/compliance/ComplianceManager.sol:ComplianceManager","label":"complianceRecords","offset":0,"slot":"3","type":"t_mapping(t_address,t_struct(ComplianceRecord)1886_storage)"},{"astId":1895,"contract":"contracts/compliance/ComplianceManager.sol:ComplianceManager","label":"approvedJurisdictions","offset":0,"slot":"4","type":"t_mapping(t_string_memory_ptr,t_bool)"},{"astId":1899,"contract":"contracts/compliance/ComplianceManager.sol:ComplianceManager","label":"restrictedJurisdictions","offset":0,"slot":"5","type":"t_mapping(t_string_memory_ptr,t_bool)"},{"astId":1902,"contract":"contracts/compliance/ComplianceManager.sol:ComplianceManager","label":"kycExpiryPeriod","offset":0,"slot":"6","type":"t_uint256"},{"astId":1905,"contract":"contracts/compliance/ComplianceManager.sol:ComplianceManager","label":"amlExpiryPeriod","offset":0,"slot":"7","type":"t_uint256"},{"astId":1912,"contract":"contracts/compliance/ComplianceManager.sol:ComplianceManager","label":"minimumKYCLevel","offset":0,"slot":"8","type":"t_uint256"},{"astId":1915,"contract":"contracts/compliance/ComplianceManager.sol:ComplianceManager","label":"complianceRequired","offset":0,"slot":"9","type":"t_bool"}],"types":{"t_address":{"encoding":"inplace","label":"address","numberOfBytes":"20"},"t_bool":{"encoding":"inplace","label":"bool","numberOfBytes":"1"},"t_bytes32":{"encoding":"inplace","label":"bytes32","numberOfBytes":"32"},"t_enum(AMLRisk)1862":{"encoding":"inplace","label":"enum ComplianceManager.AMLRisk","numberOfBytes":"1"},"t_enum(ComplianceStatus)1852":{"encoding":"inplace","label":"enum ComplianceManager.ComplianceStatus","numberOfBytes":"1"},"t_enum(KYCLevel)1857":{"encoding":"inplace","label":"enum ComplianceManager.KYCLevel","numberOfBytes":"1"},"t_mapping(t_address,t_bool)":{"encoding":"mapping","key":"t_address","label":"mapping(address => bool)","numberOfBytes":"32","value":"t_bool"},"t_mapping(t_address,t_struct(ComplianceRecord)1886_storage)":{"encoding":"mapping","key":"t_address","label":"mapping(address => struct ComplianceManager.ComplianceRecord)","numberOfBytes":"32","value":"t_struct(ComplianceRecord)1886_storage"},"t_mapping(t_bytes32,t_struct(RoleData)19_storage)":{"encoding":"mapping","key":"t_bytes32","label":"mapping(bytes32 => struct AccessControl.RoleData)","numberOfBytes":"32","value":"t_struct(RoleData)19_storage"},"t_mapping(t_string_memory_ptr,t_bool)":{"encoding":"mapping","key":"t_string_memory_ptr","label":"mapping(string => bool)","numberOfBytes":"32","value":"t_bool"},"t_string_memory_ptr":{"encoding":"bytes","label":"string","numberOfBytes":"32"},"t_string_storage":{"encoding":"bytes","label":"string","numberOfBytes":"32"},"t_struct(ComplianceRecord)1886_storage":{"encoding":"inplace","label":"struct ComplianceManager.ComplianceRecord","members":[{"astId":1864,"contract":"contracts/compliance/ComplianceManager.sol:ComplianceManager","label":"user","offset":0,"slot":"0","type":"t_address"},{"astId":1867,"contract":"contracts/compliance/ComplianceManager.sol:ComplianceManager","label":"kycLevel","offset":20,"slot":"0","type":"t_enum(KYCLevel)1857"},{"astId":1870,"contract":"contracts/compliance/ComplianceManager.sol:ComplianceManager","label":"amlRisk","offset":21,"slot":"0","type":"t_enum(AMLRisk)1862"},{"astId":1873,"contract":"contracts/compliance/ComplianceManager.sol:ComplianceManager","label":"status","offset":22,"slot":"0","type":"t_enum(ComplianceStatus)1852"},{"astId":1875,"contract":"contracts/compliance/ComplianceManager.sol:ComplianceManager","label":"approvedAt","offset":0,"slot":"1","type":"t_uint256"},{"astId":1877,"contract":"contracts/compliance/ComplianceManager.sol:ComplianceManager","label":"expiresAt","offset":0,"slot":"2","type":"t_uint256"},{"astId":1879,"contract":"contracts/compliance/ComplianceManager.sol:ComplianceManager","label":"jurisdiction","offset":0,"slot":"3","type":"t_string_storage"},{"astId":1881,"contract":"contracts/compliance/ComplianceManager.sol:ComplianceManager","label":"providerRef","offset":0,"slot":"4","type":"t_string_storage"},{"astId":1883,"contract":"contracts/compliance/ComplianceManager.sol:ComplianceManager","label":"sanctionsCheck","offset":0,"slot":"5","type":"t_bool"},{"astId":1885,"contract":"contracts/compliance/ComplianceManager.sol:ComplianceManager","label":"pepCheck","offset":1,"slot":"5","type":"t_bool"}],"numberOfBytes":"192"},"t_struct(RoleData)19_storage":{"encoding":"inplace","label":"struct AccessControl.RoleData","members":[{"astId":16,"contract":"contracts/compliance/ComplianceManager.sol:ComplianceManager","label":"members","offset":0,"slot":"0","type":"t_mapping(t_address,t_bool)"},{"astId":18,"contract":"contracts/compliance/ComplianceManager.sol:ComplianceManager","label":"adminRole","offset":0,"slot":"1","type":"t_bytes32"}],"numberOfBytes":"64"},"t_uint256":{"encoding":"inplace","label":"uint256","numberOfBytes":"32"}}}}}}