{"contracts/adapters/PaymentAdapterRegistry.sol":{"PaymentAdapterRegistry":{"abi":[{"anonymous":false,"inputs":[{"indexed":true,"internalType":"address","name":"adapter","type":"address"},{"indexed":false,"internalType":"bool","name":"authorized","type":"bool"}],"name":"AdapterAuthorized","type":"event"},{"anonymous":false,"inputs":[{"indexed":true,"internalType":"string","name":"name","type":"string"},{"indexed":true,"internalType":"address","name":"adapter","type":"address"}],"name":"AdapterRegistered","type":"event"},{"anonymous":false,"inputs":[{"indexed":true,"internalType":"string","name":"name","type":"string"},{"indexed":true,"internalType":"address","name":"adapter","type":"address"}],"name":"AdapterRemoved","type":"event"},{"anonymous":false,"inputs":[{"indexed":true,"internalType":"address","name":"previousOwner","type":"address"},{"indexed":true,"internalType":"address","name":"newOwner","type":"address"}],"name":"OwnershipTransferred","type":"event"},{"inputs":[{"internalType":"uint256","name":"","type":"uint256"}],"name":"adapterNames","outputs":[{"internalType":"string","name":"","type":"string"}],"stateMutability":"view","type":"function"},{"inputs":[{"internalType":"string","name":"","type":"string"}],"name":"adapters","outputs":[{"internalType":"address","name":"","type":"address"}],"stateMutability":"view","type":"function"},{"inputs":[{"internalType":"address","name":"","type":"address"}],"name":"authorizedAdapters","outputs":[{"internalType":"bool","name":"","type":"bool"}],"stateMutability":"view","type":"function"},{"inputs":[{"internalType":"string","name":"name","type":"string"}],"name":"getAdapter","outputs":[{"internalType":"address","name":"","type":"address"}],"stateMutability":"view","type":"function"},{"inputs":[],"name":"getAdapterCount","outputs":[{"internalType":"uint256","name":"","type":"uint256"}],"stateMutability":"view","type":"function"},{"inputs":[],"name":"getAllAdapterNames","outputs":[{"internalType":"string[]","name":"","type":"string[]"}],"stateMutability":"view","type":"function"},{"inputs":[{"internalType":"address","name":"adapter","type":"address"}],"name":"isAuthorized","outputs":[{"internalType":"bool","name":"","type":"bool"}],"stateMutability":"view","type":"function"},{"inputs":[],"name":"owner","outputs":[{"internalType":"address","name":"","type":"address"}],"stateMutability":"view","type":"function"},{"inputs":[{"internalType":"string","name":"name","type":"string"},{"internalType":"address","name":"adapter","type":"address"}],"name":"registerAdapter","outputs":[],"stateMutability":"nonpayable","type":"function"},{"inputs":[{"internalType":"string","name":"name","type":"string"}],"name":"removeAdapter","outputs":[],"stateMutability":"nonpayable","type":"function"},{"inputs":[],"name":"renounceOwnership","outputs":[],"stateMutability":"nonpayable","type":"function"},{"inputs":[{"internalType":"address","name":"newOwner","type":"address"}],"name":"transferOwnership","outputs":[],"stateMutability":"nonpayable","type":"function"}],"evm":{"bytecode":{"linkReferences":{},"object":"608060405234801561001057600080fd5b5061001a3361001f565b61006f565b600080546001600160a01b038381166001600160a01b0319831681178455604051919092169283917f8be0079c531659141344cd1fd0a4f28419497f9722a3daafe3b4186f6b6457e09190a35050565b6110b88061007e6000396000f3fe608060405234801561001057600080fd5b50600436106100a45760003560e01c80633ef11fd7146100a9578063645aea61146100be578063715018a6146100e757806379be938d146100ef5780638a12fad9146101025780638da5cb5b14610112578063b84f5d1e14610127578063bc4c22121461015b578063e2dc12f71461016e578063f2fde38b14610183578063f5a4e0a314610196578063fe9fbb80146101c6575b600080fd5b6100bc6100b7366004610955565b6101f2565b005b6100d16100cc3660046109b5565b6103f1565b6040516100de9190610a2c565b60405180910390f35b6100bc61049d565b6100bc6100fd366004610a62565b6104b1565b6003546040516100de9190610abe565b61011a610633565b6040516100de9190610ad5565b61011a610135366004610955565b80516020818301810180516001825292820191909301209152546001600160a01b031681565b61011a610169366004610955565b610642565b610176610673565b6040516100de9190610b59565b6100bc610191366004610b6a565b61074c565b6101b96101a4366004610b6a565b60026020526000908152604090205460ff1681565b6040516100de9190610b91565b6101b96101d4366004610b6a565b6001600160a01b031660009081526002602052604090205460ff1690565b6101fa610786565b600060018260405161020c9190610bc1565b908152604051908190036020019020546001600160a01b031690508061024d5760405162461bcd60e51b815260040161024490610bf1565b60405180910390fd5b60018260405161025d9190610bc1565b908152604080516020928190038301902080546001600160a01b03191690556001600160a01b038316600090815260029092528120805460ff191690555b600354811015610374578280519060200120600382815481106102c0576102c0610c01565b906000526020600020016040516102d79190610ccb565b60405180910390200361036c57600380546102f490600190610ceb565b8154811061030457610304610c01565b906000526020600020016003828154811061032157610321610c01565b9060005260206000200190816103379190610dd6565b50600380548061034957610349610ea9565b6001900381819060005260206000200160006103659190610805565b9055610374565b60010161029b565b50806001600160a01b03168260405161038d9190610bc1565b604051908190038120907ffe0915a7361ac4ac35bd55624eb527825606ade46276e28c8bd5497c5bb299a890600090a3806001600160a01b031660008051602061106383398151915260006040516103e59190610b91565b60405180910390a25050565b6003818154811061040157600080fd5b90600052602060002001600091509050805461041c90610c2d565b80601f016020809104026020016040519081016040528092919081815260200182805461044890610c2d565b80156104955780601f1061046a57610100808354040283529160200191610495565b820191906000526020600020905b81548152906001019060200180831161047857829003601f168201915b505050505081565b6104a5610786565b6104af60006107b5565b565b6104b9610786565b6001600160a01b0381166104df5760405162461bcd60e51b815260040161024490610eeb565b60006001600160a01b03166001836040516104fa9190610bc1565b908152604051908190036020019020546001600160a01b0316146105305760405162461bcd60e51b815260040161024490610f2a565b806001836040516105419190610bc1565b908152604080516020928190038301902080546001600160a01b0319166001600160a01b0394851617905591831660009081526002909152908120805460ff191660019081179091556003805491820181559091527fc2575a0e9e593c00f959f8c92f12db2869c3395a3b0502d05e2516446f71f85b016105c28382610f3a565b50806001600160a01b0316826040516105db9190610bc1565b604051908190038120907fb40573981f6088c2c6d55252227055ccde57ef96fdc623d5665bee381adf6c0990600090a3806001600160a01b031660008051602061106383398151915260016040516103e59190610b91565b6000546001600160a01b031690565b60006001826040516106549190610bc1565b908152604051908190036020019020546001600160a01b031692915050565b60606003805480602002602001604051908101604052809291908181526020016000905b828210156107435783829060005260206000200180546106b690610c2d565b80601f01602080910402602001604051908101604052809291908181526020018280546106e290610c2d565b801561072f5780601f106107045761010080835404028352916020019161072f565b820191906000526020600020905b81548152906001019060200180831161071257829003601f168201915b505050505081526020019060010190610697565b50505050905090565b610754610786565b6001600160a01b03811661077a5760405162461bcd60e51b815260040161024490610fd8565b610783816107b5565b50565b3361078f610633565b6001600160a01b0316146104af5760405162461bcd60e51b815260040161024490611052565b600080546001600160a01b038381166001600160a01b0319831681178455604051919092169283917f8be0079c531659141344cd1fd0a4f28419497f9722a3daafe3b4186f6b6457e09190a35050565b50805461081190610c2d565b6000825580601f10610821575050565b601f01602090049060005260206000209081019061078391905b8082111561084f576000815560010161083b565b5090565b601f01601f191690565b634e487b7160e01b600052604160045260246000fd5b61087c82610853565b81016001600160401b03811182821017156108995761089961085d565b6040525050565b60006108ab60405190565b90506108b78282610873565b919050565b60006001600160401b038211156108d5576108d561085d565b6108de82610853565b60200192915050565b82818337506000910152565b6000610906610901846108bc565b6108a0565b905082815283838301111561091d5761091d600080fd5b61092b8360208301846108e7565b9392505050565b600082601f83011261094657610946600080fd5b61092b838335602085016108f3565b60006020828403121561096a5761096a600080fd5b81356001600160401b0381111561098357610983600080fd5b61098f84828501610932565b949350505050565b805b811461078357600080fd5b80356109af81610997565b92915050565b6000602082840312156109ca576109ca600080fd5b61092b83836109a4565b60005b838110156109ef5781810151838201526020016109d7565b50506000910152565b6000610a02825190565b808452602084019350610a198185602086016109d4565b610a2281610853565b9093019392505050565b6020808252810161092b81846109f8565b60006001600160a01b0382166109af565b61099981610a3d565b80356109af81610a4e565b60008060408385031215610a7857610a78600080fd5b82356001600160401b03811115610a9157610a91600080fd5b610a9d85828601610932565b925050610aad8460208501610a57565b90509250929050565b805b82525050565b602081016109af8284610ab6565b610ab881610a3d565b602081016109af8284610acc565b600061092b83836109f8565b60200190565b6000610aff825190565b80845260208401935083602082028501610b198560200190565b60005b84811015610b4d5783830388528151610b358482610ae3565b93505060208201602098909801979150600101610b1c565b50909695505050505050565b6020808252810161092b8184610af5565b600060208284031215610b7f57610b7f600080fd5b61092b8383610a57565b801515610ab8565b602081016109af8284610b89565b6000610ba9825190565b610bb78185602086016109d4565b9290920192915050565b6109af8183610b9f565b6011815260208101701059185c1d195c881b9bdd08199bdd5b99607a1b81529050610aef565b602080825281016109af81610bcb565b634e487b7160e01b600052603260045260246000fd5b634e487b7160e01b600052602260045260246000fd5b600281046001821680610c4157607f821691505b602082108103610c5357610c53610c17565b50919050565b60008154610c6681610c2d565b600182168015610c7d5760018114610c9257610cc2565b60ff1983168652811515820286019350610cc2565b60008581526020902060005b83811015610cba57815488820152600190910190602001610c9e565b505081860193505b50505092915050565b6109af8183610c59565b634e487b7160e01b600052601160045260246000fd5b818103818111156109af576109af610cd5565b80546109af81610c2d565b60006109af610d158381565b90565b610d2183610d09565b815460001960089490940293841b1916921b91909117905550565b6000610d49818484610d18565b505050565b81811015610d6957610d61600082610d3c565b600101610d4e565b5050565b601f821115610d49576000818152602090206020601f85010481016020851015610d945750805b610da66020601f860104830182610d4e565b5050505050565b6000196008929092029190911c191690565b610dc98282610dad565b6002909202909117919050565b818103610de1575050565b610dea82610cfe565b6001600160401b03811115610e0157610e0161085d565b610e0b8254610c2d565b610e16828285610d6d565b506000601f821160018114610e455760008315610e335750848201545b610e3d8482610dbf565b855550610da6565b600094855260208086208587529520601f19841690835b82811015610e7c5787850154825560019485019490910190602001610e5c565b5084821015610e9a5783870154610e96601f871682610dad565b8255505b50505050600202600101905550565b634e487b7160e01b600052603160045260246000fd5b601781526020810176496e76616c69642061646170746572206164647265737360481b81529050610aef565b602080825281016109af81610ebf565b601a815260208101791059185c1d195c88185b1c9958591e481c9959da5cdd195c995960321b81529050610aef565b602080825281016109af81610efb565b81516001600160401b03811115610f5357610f5361085d565b610f5d8254610c2d565b610f68828285610d6d565b506020601f821160018114610f8e5760008315610e33575084820151610e3d8482610dbf565b600084815260208120601f198516915b82811015610fbe5787850151825560209485019460019092019101610f9e565b5084821015610e9a5783870151610e96601f871682610dad565b602080825281016109af81602681527f4f776e61626c653a206e6577206f776e657220697320746865207a65726f206160208201526564647265737360d01b604082015260600190565b60208082527f4f776e61626c653a2063616c6c6572206973206e6f7420746865206f776e65729101908152610aef565b602080825281016109af8161102256fe8fc6e4a5571e5bf9b3d11332c56d2c2690eef70ae1a328bda2035657116f4988a2646970667358221220a64568fc8fdf4a7203d4289fb6cb2a63724d1b431872b38489a10fbc0f99b8cb64736f6c63430008160033","opcodes":"PUSH1 0x80 PUSH1 0x40 MSTORE CALLVALUE DUP1 ISZERO PUSH2 0x10 JUMPI PUSH1 0x0 DUP1 REVERT JUMPDEST POP PUSH2 0x1A CALLER PUSH2 0x1F JUMP JUMPDEST PUSH2 0x6F JUMP JUMPDEST PUSH1 0x0 DUP1 SLOAD PUSH1 0x1 PUSH1 0x1 PUSH1 0xA0 SHL SUB DUP4 DUP2 AND PUSH1 0x1 PUSH1 0x1 PUSH1 0xA0 SHL SUB NOT DUP4 AND DUP2 OR DUP5 SSTORE PUSH1 0x40 MLOAD SWAP2 SWAP1 SWAP3 AND SWAP3 DUP4 SWAP2 PUSH32 0x8BE0079C531659141344CD1FD0A4F28419497F9722A3DAAFE3B4186F6B6457E0 SWAP2 SWAP1 LOG3 POP POP JUMP JUMPDEST PUSH2 0x10B8 DUP1 PUSH2 0x7E PUSH1 0x0 CODECOPY PUSH1 0x0 RETURN INVALID PUSH1 0x80 PUSH1 0x40 MSTORE CALLVALUE DUP1 ISZERO PUSH2 0x10 JUMPI PUSH1 0x0 DUP1 REVERT JUMPDEST POP PUSH1 0x4 CALLDATASIZE LT PUSH2 0xA4 JUMPI PUSH1 0x0 CALLDATALOAD PUSH1 0xE0 SHR DUP1 PUSH4 0x3EF11FD7 EQ PUSH2 0xA9 JUMPI DUP1 PUSH4 0x645AEA61 EQ PUSH2 0xBE JUMPI DUP1 PUSH4 0x715018A6 EQ PUSH2 0xE7 JUMPI DUP1 PUSH4 0x79BE938D EQ PUSH2 0xEF JUMPI DUP1 PUSH4 0x8A12FAD9 EQ PUSH2 0x102 JUMPI DUP1 PUSH4 0x8DA5CB5B EQ PUSH2 0x112 JUMPI DUP1 PUSH4 0xB84F5D1E EQ PUSH2 0x127 JUMPI DUP1 PUSH4 0xBC4C2212 EQ PUSH2 0x15B JUMPI DUP1 PUSH4 0xE2DC12F7 EQ PUSH2 0x16E JUMPI DUP1 PUSH4 0xF2FDE38B EQ PUSH2 0x183 JUMPI DUP1 PUSH4 0xF5A4E0A3 EQ PUSH2 0x196 JUMPI DUP1 PUSH4 0xFE9FBB80 EQ PUSH2 0x1C6 JUMPI JUMPDEST PUSH1 0x0 DUP1 REVERT JUMPDEST PUSH2 0xBC PUSH2 0xB7 CALLDATASIZE PUSH1 0x4 PUSH2 0x955 JUMP JUMPDEST PUSH2 0x1F2 JUMP JUMPDEST STOP JUMPDEST PUSH2 0xD1 PUSH2 0xCC CALLDATASIZE PUSH1 0x4 PUSH2 0x9B5 JUMP JUMPDEST PUSH2 0x3F1 JUMP JUMPDEST PUSH1 0x40 MLOAD PUSH2 0xDE SWAP2 SWAP1 PUSH2 0xA2C JUMP JUMPDEST PUSH1 0x40 MLOAD DUP1 SWAP2 SUB SWAP1 RETURN JUMPDEST PUSH2 0xBC PUSH2 0x49D JUMP JUMPDEST PUSH2 0xBC PUSH2 0xFD CALLDATASIZE PUSH1 0x4 PUSH2 0xA62 JUMP JUMPDEST PUSH2 0x4B1 JUMP JUMPDEST PUSH1 0x3 SLOAD PUSH1 0x40 MLOAD PUSH2 0xDE SWAP2 SWAP1 PUSH2 0xABE JUMP JUMPDEST PUSH2 0x11A PUSH2 0x633 JUMP JUMPDEST PUSH1 0x40 MLOAD PUSH2 0xDE SWAP2 SWAP1 PUSH2 0xAD5 JUMP JUMPDEST PUSH2 0x11A PUSH2 0x135 CALLDATASIZE PUSH1 0x4 PUSH2 0x955 JUMP JUMPDEST DUP1 MLOAD PUSH1 0x20 DUP2 DUP4 ADD DUP2 ADD DUP1 MLOAD PUSH1 0x1 DUP3 MSTORE SWAP3 DUP3 ADD SWAP2 SWAP1 SWAP4 ADD KECCAK256 SWAP2 MSTORE SLOAD PUSH1 0x1 PUSH1 0x1 PUSH1 0xA0 SHL SUB AND DUP2 JUMP JUMPDEST PUSH2 0x11A PUSH2 0x169 CALLDATASIZE PUSH1 0x4 PUSH2 0x955 JUMP JUMPDEST PUSH2 0x642 JUMP JUMPDEST PUSH2 0x176 PUSH2 0x673 JUMP JUMPDEST PUSH1 0x40 MLOAD PUSH2 0xDE SWAP2 SWAP1 PUSH2 0xB59 JUMP JUMPDEST PUSH2 0xBC PUSH2 0x191 CALLDATASIZE PUSH1 0x4 PUSH2 0xB6A JUMP JUMPDEST PUSH2 0x74C JUMP JUMPDEST PUSH2 0x1B9 PUSH2 0x1A4 CALLDATASIZE PUSH1 0x4 PUSH2 0xB6A JUMP JUMPDEST PUSH1 0x2 PUSH1 0x20 MSTORE PUSH1 0x0 SWAP1 DUP2 MSTORE PUSH1 0x40 SWAP1 KECCAK256 SLOAD PUSH1 0xFF AND DUP2 JUMP JUMPDEST PUSH1 0x40 MLOAD PUSH2 0xDE SWAP2 SWAP1 PUSH2 0xB91 JUMP JUMPDEST PUSH2 0x1B9 PUSH2 0x1D4 CALLDATASIZE PUSH1 0x4 PUSH2 0xB6A JUMP JUMPDEST PUSH1 0x1 PUSH1 0x1 PUSH1 0xA0 SHL SUB AND PUSH1 0x0 SWAP1 DUP2 MSTORE PUSH1 0x2 PUSH1 0x20 MSTORE PUSH1 0x40 SWAP1 KECCAK256 SLOAD PUSH1 0xFF AND SWAP1 JUMP JUMPDEST PUSH2 0x1FA PUSH2 0x786 JUMP JUMPDEST PUSH1 0x0 PUSH1 0x1 DUP3 PUSH1 0x40 MLOAD PUSH2 0x20C SWAP2 SWAP1 PUSH2 0xBC1 JUMP JUMPDEST SWAP1 DUP2 MSTORE PUSH1 0x40 MLOAD SWAP1 DUP2 SWAP1 SUB PUSH1 0x20 ADD SWAP1 KECCAK256 SLOAD PUSH1 0x1 PUSH1 0x1 PUSH1 0xA0 SHL SUB AND SWAP1 POP DUP1 PUSH2 0x24D JUMPI PUSH1 0x40 MLOAD PUSH3 0x461BCD PUSH1 0xE5 SHL DUP2 MSTORE PUSH1 0x4 ADD PUSH2 0x244 SWAP1 PUSH2 0xBF1 JUMP JUMPDEST PUSH1 0x40 MLOAD DUP1 SWAP2 SUB SWAP1 REVERT JUMPDEST PUSH1 0x1 DUP3 PUSH1 0x40 MLOAD PUSH2 0x25D SWAP2 SWAP1 PUSH2 0xBC1 JUMP JUMPDEST SWAP1 DUP2 MSTORE PUSH1 0x40 DUP1 MLOAD PUSH1 0x20 SWAP3 DUP2 SWAP1 SUB DUP4 ADD SWAP1 KECCAK256 DUP1 SLOAD PUSH1 0x1 PUSH1 0x1 PUSH1 0xA0 SHL SUB NOT AND SWAP1 SSTORE PUSH1 0x1 PUSH1 0x1 PUSH1 0xA0 SHL SUB DUP4 AND PUSH1 0x0 SWAP1 DUP2 MSTORE PUSH1 0x2 SWAP1 SWAP3 MSTORE DUP2 KECCAK256 DUP1 SLOAD PUSH1 0xFF NOT AND SWAP1 SSTORE JUMPDEST PUSH1 0x3 SLOAD DUP2 LT ISZERO PUSH2 0x374 JUMPI DUP3 DUP1 MLOAD SWAP1 PUSH1 0x20 ADD KECCAK256 PUSH1 0x3 DUP3 DUP2 SLOAD DUP2 LT PUSH2 0x2C0 JUMPI PUSH2 0x2C0 PUSH2 0xC01 JUMP JUMPDEST SWAP1 PUSH1 0x0 MSTORE PUSH1 0x20 PUSH1 0x0 KECCAK256 ADD PUSH1 0x40 MLOAD PUSH2 0x2D7 SWAP2 SWAP1 PUSH2 0xCCB JUMP JUMPDEST PUSH1 0x40 MLOAD DUP1 SWAP2 SUB SWAP1 KECCAK256 SUB PUSH2 0x36C JUMPI PUSH1 0x3 DUP1 SLOAD PUSH2 0x2F4 SWAP1 PUSH1 0x1 SWAP1 PUSH2 0xCEB JUMP JUMPDEST DUP2 SLOAD DUP2 LT PUSH2 0x304 JUMPI PUSH2 0x304 PUSH2 0xC01 JUMP JUMPDEST SWAP1 PUSH1 0x0 MSTORE PUSH1 0x20 PUSH1 0x0 KECCAK256 ADD PUSH1 0x3 DUP3 DUP2 SLOAD DUP2 LT PUSH2 0x321 JUMPI PUSH2 0x321 PUSH2 0xC01 JUMP JUMPDEST SWAP1 PUSH1 0x0 MSTORE PUSH1 0x20 PUSH1 0x0 KECCAK256 ADD SWAP1 DUP2 PUSH2 0x337 SWAP2 SWAP1 PUSH2 0xDD6 JUMP JUMPDEST POP PUSH1 0x3 DUP1 SLOAD DUP1 PUSH2 0x349 JUMPI PUSH2 0x349 PUSH2 0xEA9 JUMP JUMPDEST PUSH1 0x1 SWAP1 SUB DUP2 DUP2 SWAP1 PUSH1 0x0 MSTORE PUSH1 0x20 PUSH1 0x0 KECCAK256 ADD PUSH1 0x0 PUSH2 0x365 SWAP2 SWAP1 PUSH2 0x805 JUMP JUMPDEST SWAP1 SSTORE PUSH2 0x374 JUMP JUMPDEST PUSH1 0x1 ADD PUSH2 0x29B JUMP JUMPDEST POP DUP1 PUSH1 0x1 PUSH1 0x1 PUSH1 0xA0 SHL SUB AND DUP3 PUSH1 0x40 MLOAD PUSH2 0x38D SWAP2 SWAP1 PUSH2 0xBC1 JUMP JUMPDEST PUSH1 0x40 MLOAD SWAP1 DUP2 SWAP1 SUB DUP2 KECCAK256 SWAP1 PUSH32 0xFE0915A7361AC4AC35BD55624EB527825606ADE46276E28C8BD5497C5BB299A8 SWAP1 PUSH1 0x0 SWAP1 LOG3 DUP1 PUSH1 0x1 PUSH1 0x1 PUSH1 0xA0 SHL SUB AND PUSH1 0x0 DUP1 MLOAD PUSH1 0x20 PUSH2 0x1063 DUP4 CODECOPY DUP2 MLOAD SWAP2 MSTORE PUSH1 0x0 PUSH1 0x40 MLOAD PUSH2 0x3E5 SWAP2 SWAP1 PUSH2 0xB91 JUMP JUMPDEST PUSH1 0x40 MLOAD DUP1 SWAP2 SUB SWAP1 LOG2 POP POP JUMP JUMPDEST PUSH1 0x3 DUP2 DUP2 SLOAD DUP2 LT PUSH2 0x401 JUMPI PUSH1 0x0 DUP1 REVERT JUMPDEST SWAP1 PUSH1 0x0 MSTORE PUSH1 0x20 PUSH1 0x0 KECCAK256 ADD PUSH1 0x0 SWAP2 POP SWAP1 POP DUP1 SLOAD PUSH2 0x41C SWAP1 PUSH2 0xC2D JUMP JUMPDEST DUP1 PUSH1 0x1F ADD PUSH1 0x20 DUP1 SWAP2 DIV MUL PUSH1 0x20 ADD PUSH1 0x40 MLOAD SWAP1 DUP2 ADD PUSH1 0x40 MSTORE DUP1 SWAP3 SWAP2 SWAP1 DUP2 DUP2 MSTORE PUSH1 0x20 ADD DUP3 DUP1 SLOAD PUSH2 0x448 SWAP1 PUSH2 0xC2D JUMP JUMPDEST DUP1 ISZERO PUSH2 0x495 JUMPI DUP1 PUSH1 0x1F LT PUSH2 0x46A JUMPI PUSH2 0x100 DUP1 DUP4 SLOAD DIV MUL DUP4 MSTORE SWAP2 PUSH1 0x20 ADD SWAP2 PUSH2 0x495 JUMP JUMPDEST DUP3 ADD SWAP2 SWAP1 PUSH1 0x0 MSTORE PUSH1 0x20 PUSH1 0x0 KECCAK256 SWAP1 JUMPDEST DUP2 SLOAD DUP2 MSTORE SWAP1 PUSH1 0x1 ADD SWAP1 PUSH1 0x20 ADD DUP1 DUP4 GT PUSH2 0x478 JUMPI DUP3 SWAP1 SUB PUSH1 0x1F AND DUP3 ADD SWAP2 JUMPDEST POP POP POP POP POP DUP2 JUMP JUMPDEST PUSH2 0x4A5 PUSH2 0x786 JUMP JUMPDEST PUSH2 0x4AF PUSH1 0x0 PUSH2 0x7B5 JUMP JUMPDEST JUMP JUMPDEST PUSH2 0x4B9 PUSH2 0x786 JUMP JUMPDEST PUSH1 0x1 PUSH1 0x1 PUSH1 0xA0 SHL SUB DUP2 AND PUSH2 0x4DF JUMPI PUSH1 0x40 MLOAD PUSH3 0x461BCD PUSH1 0xE5 SHL DUP2 MSTORE PUSH1 0x4 ADD PUSH2 0x244 SWAP1 PUSH2 0xEEB JUMP JUMPDEST PUSH1 0x0 PUSH1 0x1 PUSH1 0x1 PUSH1 0xA0 SHL SUB AND PUSH1 0x1 DUP4 PUSH1 0x40 MLOAD PUSH2 0x4FA SWAP2 SWAP1 PUSH2 0xBC1 JUMP JUMPDEST SWAP1 DUP2 MSTORE PUSH1 0x40 MLOAD SWAP1 DUP2 SWAP1 SUB PUSH1 0x20 ADD SWAP1 KECCAK256 SLOAD PUSH1 0x1 PUSH1 0x1 PUSH1 0xA0 SHL SUB AND EQ PUSH2 0x530 JUMPI PUSH1 0x40 MLOAD PUSH3 0x461BCD PUSH1 0xE5 SHL DUP2 MSTORE PUSH1 0x4 ADD PUSH2 0x244 SWAP1 PUSH2 0xF2A JUMP JUMPDEST DUP1 PUSH1 0x1 DUP4 PUSH1 0x40 MLOAD PUSH2 0x541 SWAP2 SWAP1 PUSH2 0xBC1 JUMP JUMPDEST SWAP1 DUP2 MSTORE PUSH1 0x40 DUP1 MLOAD PUSH1 0x20 SWAP3 DUP2 SWAP1 SUB DUP4 ADD SWAP1 KECCAK256 DUP1 SLOAD PUSH1 0x1 PUSH1 0x1 PUSH1 0xA0 SHL SUB NOT AND PUSH1 0x1 PUSH1 0x1 PUSH1 0xA0 SHL SUB SWAP5 DUP6 AND OR SWAP1 SSTORE SWAP2 DUP4 AND PUSH1 0x0 SWAP1 DUP2 MSTORE PUSH1 0x2 SWAP1 SWAP2 MSTORE SWAP1 DUP2 KECCAK256 DUP1 SLOAD PUSH1 0xFF NOT AND PUSH1 0x1 SWAP1 DUP2 OR SWAP1 SWAP2 SSTORE PUSH1 0x3 DUP1 SLOAD SWAP2 DUP3 ADD DUP2 SSTORE SWAP1 SWAP2 MSTORE PUSH32 0xC2575A0E9E593C00F959F8C92F12DB2869C3395A3B0502D05E2516446F71F85B ADD PUSH2 0x5C2 DUP4 DUP3 PUSH2 0xF3A JUMP JUMPDEST POP DUP1 PUSH1 0x1 PUSH1 0x1 PUSH1 0xA0 SHL SUB AND DUP3 PUSH1 0x40 MLOAD PUSH2 0x5DB SWAP2 SWAP1 PUSH2 0xBC1 JUMP JUMPDEST PUSH1 0x40 MLOAD SWAP1 DUP2 SWAP1 SUB DUP2 KECCAK256 SWAP1 PUSH32 0xB40573981F6088C2C6D55252227055CCDE57EF96FDC623D5665BEE381ADF6C09 SWAP1 PUSH1 0x0 SWAP1 LOG3 DUP1 PUSH1 0x1 PUSH1 0x1 PUSH1 0xA0 SHL SUB AND PUSH1 0x0 DUP1 MLOAD PUSH1 0x20 PUSH2 0x1063 DUP4 CODECOPY DUP2 MLOAD SWAP2 MSTORE PUSH1 0x1 PUSH1 0x40 MLOAD PUSH2 0x3E5 SWAP2 SWAP1 PUSH2 0xB91 JUMP JUMPDEST PUSH1 0x0 SLOAD PUSH1 0x1 PUSH1 0x1 PUSH1 0xA0 SHL SUB AND SWAP1 JUMP JUMPDEST PUSH1 0x0 PUSH1 0x1 DUP3 PUSH1 0x40 MLOAD PUSH2 0x654 SWAP2 SWAP1 PUSH2 0xBC1 JUMP JUMPDEST SWAP1 DUP2 MSTORE PUSH1 0x40 MLOAD SWAP1 DUP2 SWAP1 SUB PUSH1 0x20 ADD SWAP1 KECCAK256 SLOAD PUSH1 0x1 PUSH1 0x1 PUSH1 0xA0 SHL SUB AND SWAP3 SWAP2 POP POP JUMP JUMPDEST PUSH1 0x60 PUSH1 0x3 DUP1 SLOAD DUP1 PUSH1 0x20 MUL PUSH1 0x20 ADD PUSH1 0x40 MLOAD SWAP1 DUP2 ADD PUSH1 0x40 MSTORE DUP1 SWAP3 SWAP2 SWAP1 DUP2 DUP2 MSTORE PUSH1 0x20 ADD PUSH1 0x0 SWAP1 JUMPDEST DUP3 DUP3 LT ISZERO PUSH2 0x743 JUMPI DUP4 DUP3 SWAP1 PUSH1 0x0 MSTORE PUSH1 0x20 PUSH1 0x0 KECCAK256 ADD DUP1 SLOAD PUSH2 0x6B6 SWAP1 PUSH2 0xC2D JUMP JUMPDEST DUP1 PUSH1 0x1F ADD PUSH1 0x20 DUP1 SWAP2 DIV MUL PUSH1 0x20 ADD PUSH1 0x40 MLOAD SWAP1 DUP2 ADD PUSH1 0x40 MSTORE DUP1 SWAP3 SWAP2 SWAP1 DUP2 DUP2 MSTORE PUSH1 0x20 ADD DUP3 DUP1 SLOAD PUSH2 0x6E2 SWAP1 PUSH2 0xC2D JUMP JUMPDEST DUP1 ISZERO PUSH2 0x72F JUMPI DUP1 PUSH1 0x1F LT PUSH2 0x704 JUMPI PUSH2 0x100 DUP1 DUP4 SLOAD DIV MUL DUP4 MSTORE SWAP2 PUSH1 0x20 ADD SWAP2 PUSH2 0x72F JUMP JUMPDEST DUP3 ADD SWAP2 SWAP1 PUSH1 0x0 MSTORE PUSH1 0x20 PUSH1 0x0 KECCAK256 SWAP1 JUMPDEST DUP2 SLOAD DUP2 MSTORE SWAP1 PUSH1 0x1 ADD SWAP1 PUSH1 0x20 ADD DUP1 DUP4 GT PUSH2 0x712 JUMPI DUP3 SWAP1 SUB PUSH1 0x1F AND DUP3 ADD SWAP2 JUMPDEST POP POP POP POP POP DUP2 MSTORE PUSH1 0x20 ADD SWAP1 PUSH1 0x1 ADD SWAP1 PUSH2 0x697 JUMP JUMPDEST POP POP POP POP SWAP1 POP SWAP1 JUMP JUMPDEST PUSH2 0x754 PUSH2 0x786 JUMP JUMPDEST PUSH1 0x1 PUSH1 0x1 PUSH1 0xA0 SHL SUB DUP2 AND PUSH2 0x77A JUMPI PUSH1 0x40 MLOAD PUSH3 0x461BCD PUSH1 0xE5 SHL DUP2 MSTORE PUSH1 0x4 ADD PUSH2 0x244 SWAP1 PUSH2 0xFD8 JUMP JUMPDEST PUSH2 0x783 DUP2 PUSH2 0x7B5 JUMP JUMPDEST POP JUMP JUMPDEST CALLER PUSH2 0x78F PUSH2 0x633 JUMP JUMPDEST PUSH1 0x1 PUSH1 0x1 PUSH1 0xA0 SHL SUB AND EQ PUSH2 0x4AF JUMPI PUSH1 0x40 MLOAD PUSH3 0x461BCD PUSH1 0xE5 SHL DUP2 MSTORE PUSH1 0x4 ADD PUSH2 0x244 SWAP1 PUSH2 0x1052 JUMP JUMPDEST PUSH1 0x0 DUP1 SLOAD PUSH1 0x1 PUSH1 0x1 PUSH1 0xA0 SHL SUB DUP4 DUP2 AND PUSH1 0x1 PUSH1 0x1 PUSH1 0xA0 SHL SUB NOT DUP4 AND DUP2 OR DUP5 SSTORE PUSH1 0x40 MLOAD SWAP2 SWAP1 SWAP3 AND SWAP3 DUP4 SWAP2 PUSH32 0x8BE0079C531659141344CD1FD0A4F28419497F9722A3DAAFE3B4186F6B6457E0 SWAP2 SWAP1 LOG3 POP POP JUMP JUMPDEST POP DUP1 SLOAD PUSH2 0x811 SWAP1 PUSH2 0xC2D JUMP JUMPDEST PUSH1 0x0 DUP3 SSTORE DUP1 PUSH1 0x1F LT PUSH2 0x821 JUMPI POP POP JUMP JUMPDEST PUSH1 0x1F ADD PUSH1 0x20 SWAP1 DIV SWAP1 PUSH1 0x0 MSTORE PUSH1 0x20 PUSH1 0x0 KECCAK256 SWAP1 DUP2 ADD SWAP1 PUSH2 0x783 SWAP2 SWAP1 JUMPDEST DUP1 DUP3 GT ISZERO PUSH2 0x84F JUMPI PUSH1 0x0 DUP2 SSTORE PUSH1 0x1 ADD PUSH2 0x83B JUMP JUMPDEST POP SWAP1 JUMP JUMPDEST PUSH1 0x1F ADD PUSH1 0x1F NOT AND SWAP1 JUMP JUMPDEST PUSH4 0x4E487B71 PUSH1 0xE0 SHL PUSH1 0x0 MSTORE PUSH1 0x41 PUSH1 0x4 MSTORE PUSH1 0x24 PUSH1 0x0 REVERT JUMPDEST PUSH2 0x87C DUP3 PUSH2 0x853 JUMP JUMPDEST DUP2 ADD PUSH1 0x1 PUSH1 0x1 PUSH1 0x40 SHL SUB DUP2 GT DUP3 DUP3 LT OR ISZERO PUSH2 0x899 JUMPI PUSH2 0x899 PUSH2 0x85D JUMP JUMPDEST PUSH1 0x40 MSTORE POP POP JUMP JUMPDEST PUSH1 0x0 PUSH2 0x8AB PUSH1 0x40 MLOAD SWAP1 JUMP JUMPDEST SWAP1 POP PUSH2 0x8B7 DUP3 DUP3 PUSH2 0x873 JUMP JUMPDEST SWAP2 SWAP1 POP JUMP JUMPDEST PUSH1 0x0 PUSH1 0x1 PUSH1 0x1 PUSH1 0x40 SHL SUB DUP3 GT ISZERO PUSH2 0x8D5 JUMPI PUSH2 0x8D5 PUSH2 0x85D JUMP JUMPDEST PUSH2 0x8DE DUP3 PUSH2 0x853 JUMP JUMPDEST PUSH1 0x20 ADD SWAP3 SWAP2 POP POP JUMP JUMPDEST DUP3 DUP2 DUP4 CALLDATACOPY POP PUSH1 0x0 SWAP2 ADD MSTORE JUMP JUMPDEST PUSH1 0x0 PUSH2 0x906 PUSH2 0x901 DUP5 PUSH2 0x8BC JUMP JUMPDEST PUSH2 0x8A0 JUMP JUMPDEST SWAP1 POP DUP3 DUP2 MSTORE DUP4 DUP4 DUP4 ADD GT ISZERO PUSH2 0x91D JUMPI PUSH2 0x91D PUSH1 0x0 DUP1 REVERT JUMPDEST PUSH2 0x92B DUP4 PUSH1 0x20 DUP4 ADD DUP5 PUSH2 0x8E7 JUMP JUMPDEST SWAP4 SWAP3 POP POP POP JUMP JUMPDEST PUSH1 0x0 DUP3 PUSH1 0x1F DUP4 ADD SLT PUSH2 0x946 JUMPI PUSH2 0x946 PUSH1 0x0 DUP1 REVERT JUMPDEST PUSH2 0x92B DUP4 DUP4 CALLDATALOAD PUSH1 0x20 DUP6 ADD PUSH2 0x8F3 JUMP JUMPDEST PUSH1 0x0 PUSH1 0x20 DUP3 DUP5 SUB SLT ISZERO PUSH2 0x96A JUMPI PUSH2 0x96A PUSH1 0x0 DUP1 REVERT JUMPDEST DUP2 CALLDATALOAD PUSH1 0x1 PUSH1 0x1 PUSH1 0x40 SHL SUB DUP2 GT ISZERO PUSH2 0x983 JUMPI PUSH2 0x983 PUSH1 0x0 DUP1 REVERT JUMPDEST PUSH2 0x98F DUP5 DUP3 DUP6 ADD PUSH2 0x932 JUMP JUMPDEST SWAP5 SWAP4 POP POP POP POP JUMP JUMPDEST DUP1 JUMPDEST DUP2 EQ PUSH2 0x783 JUMPI PUSH1 0x0 DUP1 REVERT JUMPDEST DUP1 CALLDATALOAD PUSH2 0x9AF DUP2 PUSH2 0x997 JUMP JUMPDEST SWAP3 SWAP2 POP POP JUMP JUMPDEST PUSH1 0x0 PUSH1 0x20 DUP3 DUP5 SUB SLT ISZERO PUSH2 0x9CA JUMPI PUSH2 0x9CA PUSH1 0x0 DUP1 REVERT JUMPDEST PUSH2 0x92B DUP4 DUP4 PUSH2 0x9A4 JUMP JUMPDEST PUSH1 0x0 JUMPDEST DUP4 DUP2 LT ISZERO PUSH2 0x9EF JUMPI DUP2 DUP2 ADD MLOAD DUP4 DUP3 ADD MSTORE PUSH1 0x20 ADD PUSH2 0x9D7 JUMP JUMPDEST POP POP PUSH1 0x0 SWAP2 ADD MSTORE JUMP JUMPDEST PUSH1 0x0 PUSH2 0xA02 DUP3 MLOAD SWAP1 JUMP JUMPDEST DUP1 DUP5 MSTORE PUSH1 0x20 DUP5 ADD SWAP4 POP PUSH2 0xA19 DUP2 DUP6 PUSH1 0x20 DUP7 ADD PUSH2 0x9D4 JUMP JUMPDEST PUSH2 0xA22 DUP2 PUSH2 0x853 JUMP JUMPDEST SWAP1 SWAP4 ADD SWAP4 SWAP3 POP POP POP JUMP JUMPDEST PUSH1 0x20 DUP1 DUP3 MSTORE DUP2 ADD PUSH2 0x92B DUP2 DUP5 PUSH2 0x9F8 JUMP JUMPDEST PUSH1 0x0 PUSH1 0x1 PUSH1 0x1 PUSH1 0xA0 SHL SUB DUP3 AND PUSH2 0x9AF JUMP JUMPDEST PUSH2 0x999 DUP2 PUSH2 0xA3D JUMP JUMPDEST DUP1 CALLDATALOAD PUSH2 0x9AF DUP2 PUSH2 0xA4E JUMP JUMPDEST PUSH1 0x0 DUP1 PUSH1 0x40 DUP4 DUP6 SUB SLT ISZERO PUSH2 0xA78 JUMPI PUSH2 0xA78 PUSH1 0x0 DUP1 REVERT JUMPDEST DUP3 CALLDATALOAD PUSH1 0x1 PUSH1 0x1 PUSH1 0x40 SHL SUB DUP2 GT ISZERO PUSH2 0xA91 JUMPI PUSH2 0xA91 PUSH1 0x0 DUP1 REVERT JUMPDEST PUSH2 0xA9D DUP6 DUP3 DUP7 ADD PUSH2 0x932 JUMP JUMPDEST SWAP3 POP POP PUSH2 0xAAD DUP5 PUSH1 0x20 DUP6 ADD PUSH2 0xA57 JUMP JUMPDEST SWAP1 POP SWAP3 POP SWAP3 SWAP1 POP JUMP JUMPDEST DUP1 JUMPDEST DUP3 MSTORE POP POP JUMP JUMPDEST PUSH1 0x20 DUP2 ADD PUSH2 0x9AF DUP3 DUP5 PUSH2 0xAB6 JUMP JUMPDEST PUSH2 0xAB8 DUP2 PUSH2 0xA3D JUMP JUMPDEST PUSH1 0x20 DUP2 ADD PUSH2 0x9AF DUP3 DUP5 PUSH2 0xACC JUMP JUMPDEST PUSH1 0x0 PUSH2 0x92B DUP4 DUP4 PUSH2 0x9F8 JUMP JUMPDEST PUSH1 0x20 ADD SWAP1 JUMP JUMPDEST PUSH1 0x0 PUSH2 0xAFF DUP3 MLOAD SWAP1 JUMP JUMPDEST DUP1 DUP5 MSTORE PUSH1 0x20 DUP5 ADD SWAP4 POP DUP4 PUSH1 0x20 DUP3 MUL DUP6 ADD PUSH2 0xB19 DUP6 PUSH1 0x20 ADD SWAP1 JUMP JUMPDEST PUSH1 0x0 JUMPDEST DUP5 DUP2 LT ISZERO PUSH2 0xB4D JUMPI DUP4 DUP4 SUB DUP9 MSTORE DUP2 MLOAD PUSH2 0xB35 DUP5 DUP3 PUSH2 0xAE3 JUMP JUMPDEST SWAP4 POP POP PUSH1 0x20 DUP3 ADD PUSH1 0x20 SWAP9 SWAP1 SWAP9 ADD SWAP8 SWAP2 POP PUSH1 0x1 ADD PUSH2 0xB1C JUMP JUMPDEST POP SWAP1 SWAP7 SWAP6 POP POP POP POP POP POP JUMP JUMPDEST PUSH1 0x20 DUP1 DUP3 MSTORE DUP2 ADD PUSH2 0x92B DUP2 DUP5 PUSH2 0xAF5 JUMP JUMPDEST PUSH1 0x0 PUSH1 0x20 DUP3 DUP5 SUB SLT ISZERO PUSH2 0xB7F JUMPI PUSH2 0xB7F PUSH1 0x0 DUP1 REVERT JUMPDEST PUSH2 0x92B DUP4 DUP4 PUSH2 0xA57 JUMP JUMPDEST DUP1 ISZERO ISZERO PUSH2 0xAB8 JUMP JUMPDEST PUSH1 0x20 DUP2 ADD PUSH2 0x9AF DUP3 DUP5 PUSH2 0xB89 JUMP JUMPDEST PUSH1 0x0 PUSH2 0xBA9 DUP3 MLOAD SWAP1 JUMP JUMPDEST PUSH2 0xBB7 DUP2 DUP6 PUSH1 0x20 DUP7 ADD PUSH2 0x9D4 JUMP JUMPDEST SWAP3 SWAP1 SWAP3 ADD SWAP3 SWAP2 POP POP JUMP JUMPDEST PUSH2 0x9AF DUP2 DUP4 PUSH2 0xB9F JUMP JUMPDEST PUSH1 0x11 DUP2 MSTORE PUSH1 0x20 DUP2 ADD PUSH17 0x1059185C1D195C881B9BDD08199BDD5B99 PUSH1 0x7A SHL DUP2 MSTORE SWAP1 POP PUSH2 0xAEF JUMP JUMPDEST PUSH1 0x20 DUP1 DUP3 MSTORE DUP2 ADD PUSH2 0x9AF DUP2 PUSH2 0xBCB JUMP JUMPDEST PUSH4 0x4E487B71 PUSH1 0xE0 SHL PUSH1 0x0 MSTORE PUSH1 0x32 PUSH1 0x4 MSTORE PUSH1 0x24 PUSH1 0x0 REVERT JUMPDEST PUSH4 0x4E487B71 PUSH1 0xE0 SHL PUSH1 0x0 MSTORE PUSH1 0x22 PUSH1 0x4 MSTORE PUSH1 0x24 PUSH1 0x0 REVERT JUMPDEST PUSH1 0x2 DUP2 DIV PUSH1 0x1 DUP3 AND DUP1 PUSH2 0xC41 JUMPI PUSH1 0x7F DUP3 AND SWAP2 POP JUMPDEST PUSH1 0x20 DUP3 LT DUP2 SUB PUSH2 0xC53 JUMPI PUSH2 0xC53 PUSH2 0xC17 JUMP JUMPDEST POP SWAP2 SWAP1 POP JUMP JUMPDEST PUSH1 0x0 DUP2 SLOAD PUSH2 0xC66 DUP2 PUSH2 0xC2D JUMP JUMPDEST PUSH1 0x1 DUP3 AND DUP1 ISZERO PUSH2 0xC7D JUMPI PUSH1 0x1 DUP2 EQ PUSH2 0xC92 JUMPI PUSH2 0xCC2 JUMP JUMPDEST PUSH1 0xFF NOT DUP4 AND DUP7 MSTORE DUP2 ISZERO ISZERO DUP3 MUL DUP7 ADD SWAP4 POP PUSH2 0xCC2 JUMP JUMPDEST PUSH1 0x0 DUP6 DUP2 MSTORE PUSH1 0x20 SWAP1 KECCAK256 PUSH1 0x0 JUMPDEST DUP4 DUP2 LT ISZERO PUSH2 0xCBA JUMPI DUP2 SLOAD DUP9 DUP3 ADD MSTORE PUSH1 0x1 SWAP1 SWAP2 ADD SWAP1 PUSH1 0x20 ADD PUSH2 0xC9E JUMP JUMPDEST POP POP DUP2 DUP7 ADD SWAP4 POP JUMPDEST POP POP POP SWAP3 SWAP2 POP POP JUMP JUMPDEST PUSH2 0x9AF DUP2 DUP4 PUSH2 0xC59 JUMP JUMPDEST PUSH4 0x4E487B71 PUSH1 0xE0 SHL PUSH1 0x0 MSTORE PUSH1 0x11 PUSH1 0x4 MSTORE PUSH1 0x24 PUSH1 0x0 REVERT JUMPDEST DUP2 DUP2 SUB DUP2 DUP2 GT ISZERO PUSH2 0x9AF JUMPI PUSH2 0x9AF PUSH2 0xCD5 JUMP JUMPDEST DUP1 SLOAD PUSH2 0x9AF DUP2 PUSH2 0xC2D JUMP JUMPDEST PUSH1 0x0 PUSH2 0x9AF PUSH2 0xD15 DUP4 DUP2 JUMP JUMPDEST SWAP1 JUMP JUMPDEST PUSH2 0xD21 DUP4 PUSH2 0xD09 JUMP JUMPDEST DUP2 SLOAD PUSH1 0x0 NOT PUSH1 0x8 SWAP5 SWAP1 SWAP5 MUL SWAP4 DUP5 SHL NOT AND SWAP3 SHL SWAP2 SWAP1 SWAP2 OR SWAP1 SSTORE POP JUMP JUMPDEST PUSH1 0x0 PUSH2 0xD49 DUP2 DUP5 DUP5 PUSH2 0xD18 JUMP JUMPDEST POP POP POP JUMP JUMPDEST DUP2 DUP2 LT ISZERO PUSH2 0xD69 JUMPI PUSH2 0xD61 PUSH1 0x0 DUP3 PUSH2 0xD3C JUMP JUMPDEST PUSH1 0x1 ADD PUSH2 0xD4E JUMP JUMPDEST POP POP JUMP JUMPDEST PUSH1 0x1F DUP3 GT ISZERO PUSH2 0xD49 JUMPI PUSH1 0x0 DUP2 DUP2 MSTORE PUSH1 0x20 SWAP1 KECCAK256 PUSH1 0x20 PUSH1 0x1F DUP6 ADD DIV DUP2 ADD PUSH1 0x20 DUP6 LT ISZERO PUSH2 0xD94 JUMPI POP DUP1 JUMPDEST PUSH2 0xDA6 PUSH1 0x20 PUSH1 0x1F DUP7 ADD DIV DUP4 ADD DUP3 PUSH2 0xD4E JUMP JUMPDEST POP POP POP POP POP JUMP JUMPDEST PUSH1 0x0 NOT PUSH1 0x8 SWAP3 SWAP1 SWAP3 MUL SWAP2 SWAP1 SWAP2 SHR NOT AND SWAP1 JUMP JUMPDEST PUSH2 0xDC9 DUP3 DUP3 PUSH2 0xDAD JUMP JUMPDEST PUSH1 0x2 SWAP1 SWAP3 MUL SWAP1 SWAP2 OR SWAP2 SWAP1 POP JUMP JUMPDEST DUP2 DUP2 SUB PUSH2 0xDE1 JUMPI POP POP JUMP JUMPDEST PUSH2 0xDEA DUP3 PUSH2 0xCFE JUMP JUMPDEST PUSH1 0x1 PUSH1 0x1 PUSH1 0x40 SHL SUB DUP2 GT ISZERO PUSH2 0xE01 JUMPI PUSH2 0xE01 PUSH2 0x85D JUMP JUMPDEST PUSH2 0xE0B DUP3 SLOAD PUSH2 0xC2D JUMP JUMPDEST PUSH2 0xE16 DUP3 DUP3 DUP6 PUSH2 0xD6D JUMP JUMPDEST POP PUSH1 0x0 PUSH1 0x1F DUP3 GT PUSH1 0x1 DUP2 EQ PUSH2 0xE45 JUMPI PUSH1 0x0 DUP4 ISZERO PUSH2 0xE33 JUMPI POP DUP5 DUP3 ADD SLOAD JUMPDEST PUSH2 0xE3D DUP5 DUP3 PUSH2 0xDBF JUMP JUMPDEST DUP6 SSTORE POP PUSH2 0xDA6 JUMP JUMPDEST PUSH1 0x0 SWAP5 DUP6 MSTORE PUSH1 0x20 DUP1 DUP7 KECCAK256 DUP6 DUP8 MSTORE SWAP6 KECCAK256 PUSH1 0x1F NOT DUP5 AND SWAP1 DUP4 JUMPDEST DUP3 DUP2 LT ISZERO PUSH2 0xE7C JUMPI DUP8 DUP6 ADD SLOAD DUP3 SSTORE PUSH1 0x1 SWAP5 DUP6 ADD SWAP5 SWAP1 SWAP2 ADD SWAP1 PUSH1 0x20 ADD PUSH2 0xE5C JUMP JUMPDEST POP DUP5 DUP3 LT ISZERO PUSH2 0xE9A JUMPI DUP4 DUP8 ADD SLOAD PUSH2 0xE96 PUSH1 0x1F DUP8 AND DUP3 PUSH2 0xDAD JUMP JUMPDEST DUP3 SSTORE POP JUMPDEST POP POP POP POP PUSH1 0x2 MUL PUSH1 0x1 ADD SWAP1 SSTORE POP JUMP JUMPDEST PUSH4 0x4E487B71 PUSH1 0xE0 SHL PUSH1 0x0 MSTORE PUSH1 0x31 PUSH1 0x4 MSTORE PUSH1 0x24 PUSH1 0x0 REVERT JUMPDEST PUSH1 0x17 DUP2 MSTORE PUSH1 0x20 DUP2 ADD PUSH23 0x496E76616C696420616461707465722061646472657373 PUSH1 0x48 SHL DUP2 MSTORE SWAP1 POP PUSH2 0xAEF JUMP JUMPDEST PUSH1 0x20 DUP1 DUP3 MSTORE DUP2 ADD PUSH2 0x9AF DUP2 PUSH2 0xEBF JUMP JUMPDEST PUSH1 0x1A DUP2 MSTORE PUSH1 0x20 DUP2 ADD PUSH26 0x1059185C1D195C88185B1C9958591E481C9959DA5CDD195C9959 PUSH1 0x32 SHL DUP2 MSTORE SWAP1 POP PUSH2 0xAEF JUMP JUMPDEST PUSH1 0x20 DUP1 DUP3 MSTORE DUP2 ADD PUSH2 0x9AF DUP2 PUSH2 0xEFB JUMP JUMPDEST DUP2 MLOAD PUSH1 0x1 PUSH1 0x1 PUSH1 0x40 SHL SUB DUP2 GT ISZERO PUSH2 0xF53 JUMPI PUSH2 0xF53 PUSH2 0x85D JUMP JUMPDEST PUSH2 0xF5D DUP3 SLOAD PUSH2 0xC2D JUMP JUMPDEST PUSH2 0xF68 DUP3 DUP3 DUP6 PUSH2 0xD6D JUMP JUMPDEST POP PUSH1 0x20 PUSH1 0x1F DUP3 GT PUSH1 0x1 DUP2 EQ PUSH2 0xF8E JUMPI PUSH1 0x0 DUP4 ISZERO PUSH2 0xE33 JUMPI POP DUP5 DUP3 ADD MLOAD PUSH2 0xE3D DUP5 DUP3 PUSH2 0xDBF JUMP JUMPDEST PUSH1 0x0 DUP5 DUP2 MSTORE PUSH1 0x20 DUP2 KECCAK256 PUSH1 0x1F NOT DUP6 AND SWAP2 JUMPDEST DUP3 DUP2 LT ISZERO PUSH2 0xFBE JUMPI DUP8 DUP6 ADD MLOAD DUP3 SSTORE PUSH1 0x20 SWAP5 DUP6 ADD SWAP5 PUSH1 0x1 SWAP1 SWAP3 ADD SWAP2 ADD PUSH2 0xF9E JUMP JUMPDEST POP DUP5 DUP3 LT ISZERO PUSH2 0xE9A JUMPI DUP4 DUP8 ADD MLOAD PUSH2 0xE96 PUSH1 0x1F DUP8 AND DUP3 PUSH2 0xDAD JUMP JUMPDEST PUSH1 0x20 DUP1 DUP3 MSTORE DUP2 ADD PUSH2 0x9AF DUP2 PUSH1 0x26 DUP2 MSTORE PUSH32 0x4F776E61626C653A206E6577206F776E657220697320746865207A65726F2061 PUSH1 0x20 DUP3 ADD MSTORE PUSH6 0x646472657373 PUSH1 0xD0 SHL PUSH1 0x40 DUP3 ADD MSTORE PUSH1 0x60 ADD SWAP1 JUMP JUMPDEST PUSH1 0x20 DUP1 DUP3 MSTORE PUSH32 0x4F776E61626C653A2063616C6C6572206973206E6F7420746865206F776E6572 SWAP2 ADD SWAP1 DUP2 MSTORE PUSH2 0xAEF JUMP JUMPDEST PUSH1 0x20 DUP1 DUP3 MSTORE DUP2 ADD PUSH2 0x9AF DUP2 PUSH2 0x1022 JUMP INVALID DUP16 0xC6 0xE4 0xA5 JUMPI 0x1E JUMPDEST 0xF9 0xB3 0xD1 SGT ORIGIN 0xC5 PUSH14 0x2C2690EEF70AE1A328BDA2035657 GT PUSH16 0x4988A2646970667358221220A64568FC DUP16 0xDF 0x4A PUSH19 0x3D4289FB6CB2A63724D1B431872B38489A10F 0xBC 0xF SWAP10 0xB8 0xCB PUSH5 0x736F6C6343 STOP ADDMOD AND STOP CALLER "},"methodIdentifiers":{"adapterNames(uint256)":"645aea61","adapters(string)":"b84f5d1e","authorizedAdapters(address)":"f5a4e0a3","getAdapter(string)":"bc4c2212","getAdapterCount()":"8a12fad9","getAllAdapterNames()":"e2dc12f7","isAuthorized(address)":"fe9fbb80","owner()":"8da5cb5b","registerAdapter(string,address)":"79be938d","removeAdapter(string)":"3ef11fd7","renounceOwnership()":"715018a6","transferOwnership(address)":"f2fde38b"}},"storageLayout":{"storage":[{"astId":7,"contract":"contracts/adapters/PaymentAdapterRegistry.sol:PaymentAdapterRegistry","label":"_owner","offset":0,"slot":"0","type":"t_address"},{"astId":1320,"contract":"contracts/adapters/PaymentAdapterRegistry.sol:PaymentAdapterRegistry","label":"adapters","offset":0,"slot":"1","type":"t_mapping(t_string_memory_ptr,t_address)"},{"astId":1324,"contract":"contracts/adapters/PaymentAdapterRegistry.sol:PaymentAdapterRegistry","label":"authorizedAdapters","offset":0,"slot":"2","type":"t_mapping(t_address,t_bool)"},{"astId":1327,"contract":"contracts/adapters/PaymentAdapterRegistry.sol:PaymentAdapterRegistry","label":"adapterNames","offset":0,"slot":"3","type":"t_array(t_string_storage)dyn_storage"}],"types":{"t_address":{"encoding":"inplace","label":"address","numberOfBytes":"20"},"t_array(t_string_storage)dyn_storage":{"base":"t_string_storage","encoding":"dynamic_array","label":"string[]","numberOfBytes":"32"},"t_bool":{"encoding":"inplace","label":"bool","numberOfBytes":"1"},"t_mapping(t_address,t_bool)":{"encoding":"mapping","key":"t_address","label":"mapping(address => bool)","numberOfBytes":"32","value":"t_bool"},"t_mapping(t_string_memory_ptr,t_address)":{"encoding":"mapping","key":"t_string_memory_ptr","label":"mapping(string => address)","numberOfBytes":"32","value":"t_address"},"t_string_memory_ptr":{"encoding":"bytes","label":"string","numberOfBytes":"32"},"t_string_storage":{"encoding":"bytes","label":"string","numberOfBytes":"32"}}}}}}