{"contracts/adapters/ERC20PaymentAdapter.sol":{"ERC20PaymentAdapter":{"abi":[{"inputs":[],"stateMutability":"nonpayable","type":"constructor"},{"anonymous":false,"inputs":[{"indexed":true,"internalType":"address","name":"previousOwner","type":"address"},{"indexed":true,"internalType":"address","name":"newOwner","type":"address"}],"name":"OwnershipTransferred","type":"event"},{"anonymous":false,"inputs":[{"indexed":true,"internalType":"address","name":"from","type":"address"},{"indexed":true,"internalType":"address","name":"to","type":"address"},{"indexed":false,"internalType":"uint256","name":"amount","type":"uint256"},{"indexed":true,"internalType":"address","name":"token","type":"address"},{"indexed":false,"internalType":"bytes","name":"metadata","type":"bytes"}],"name":"PaymentProcessed","type":"event"},{"inputs":[{"internalType":"address","name":"token","type":"address"},{"internalType":"uint256","name":"minimumAmount","type":"uint256"}],"name":"addSupportedToken","outputs":[],"stateMutability":"nonpayable","type":"function"},{"inputs":[],"name":"getAdapterInfo","outputs":[{"internalType":"string","name":"name","type":"string"},{"internalType":"string","name":"version","type":"string"},{"internalType":"string[]","name":"supportedFeatures","type":"string[]"}],"stateMutability":"pure","type":"function"},{"inputs":[{"internalType":"address","name":"token","type":"address"}],"name":"isTokenSupported","outputs":[{"internalType":"bool","name":"supported","type":"bool"}],"stateMutability":"view","type":"function"},{"inputs":[{"internalType":"address","name":"","type":"address"}],"name":"minimumAmounts","outputs":[{"internalType":"uint256","name":"","type":"uint256"}],"stateMutability":"view","type":"function"},{"inputs":[],"name":"owner","outputs":[{"internalType":"address","name":"","type":"address"}],"stateMutability":"view","type":"function"},{"inputs":[{"internalType":"address","name":"from","type":"address"},{"internalType":"address","name":"to","type":"address"},{"internalType":"uint256","name":"amount","type":"uint256"},{"internalType":"address","name":"token","type":"address"},{"internalType":"bytes","name":"metadata","type":"bytes"}],"name":"processPayment","outputs":[{"internalType":"bool","name":"success","type":"bool"}],"stateMutability":"nonpayable","type":"function"},{"inputs":[{"internalType":"address","name":"token","type":"address"}],"name":"removeSupportedToken","outputs":[],"stateMutability":"nonpayable","type":"function"},{"inputs":[],"name":"renounceOwnership","outputs":[],"stateMutability":"nonpayable","type":"function"},{"inputs":[{"internalType":"address","name":"","type":"address"}],"name":"supportedTokens","outputs":[{"internalType":"bool","name":"","type":"bool"}],"stateMutability":"view","type":"function"},{"inputs":[{"internalType":"address","name":"newOwner","type":"address"}],"name":"transferOwnership","outputs":[],"stateMutability":"nonpayable","type":"function"},{"inputs":[{"internalType":"address","name":"from","type":"address"},{"internalType":"address","name":"to","type":"address"},{"internalType":"uint256","name":"amount","type":"uint256"},{"internalType":"address","name":"token","type":"address"}],"name":"validatePayment","outputs":[{"internalType":"bool","name":"isValid","type":"bool"},{"internalType":"string","name":"reason","type":"string"}],"stateMutability":"view","type":"function"}],"evm":{"bytecode":{"linkReferences":{},"object":"608060405234801561001057600080fd5b5061001a3361001f565b61006f565b600080546001600160a01b038381166001600160a01b0319831681178455604051919092169283917f8be0079c531659141344cd1fd0a4f28419497f9722a3daafe3b4186f6b6457e09190a35050565b610fb58061007e6000396000f3fe608060405234801561001057600080fd5b50600436106100995760003560e01c80630b7cf9b51461009e5780633afca64b146100c75780634d8e3d3b146100f457806357cdb6b51461010957806368c4ac2614610120578063715018a61461014357806375151b631461014b57806376319190146101775780638da5cb5b1461018a578063e56921fa1461019f578063f2fde38b146101c0575b600080fd5b6100b16100ac366004610a15565b6101d3565b6040516100be9190610aab565b60405180910390f35b6100e76100d5366004610ab9565b60026020526000908152604090205481565b6040516100be9190610ae5565b610107610102366004610af3565b61028f565b005b6101116102c8565b6040516100be93929190610c03565b6100b161012e366004610ab9565b60016020526000908152604090205460ff1681565b61010761042d565b6100b1610159366004610ab9565b6001600160a01b031660009081526001602052604090205460ff1690565b610107610185366004610ab9565b610441565b610192610475565b6040516100be9190610c4e565b6101b26101ad366004610c5c565b610484565b6040516100be929190610cb7565b6101076101ce366004610ab9565b6104a2565b60008060006101e4898989896104dc565b915091508181906102115760405162461bcd60e51b81526004016102089190610cd7565b60405180910390fd5b506102276001600160a01b0387168a8a8a6106ec565b856001600160a01b0316886001600160a01b03168a6001600160a01b03167f3de34cac5441dc2dd43c510eacfe4b0a57a1cde29a360b813d87bf01ae118df78a898960405161027893929190610d1d565b60405180910390a450600198975050505050505050565b61029761074a565b6001600160a01b039091166000908152600160208181526040808420805460ff191690931790925560029052902055565b604080516003808252608082019092526060918291829160009190816020015b60608152602001906001900390816102e85790505090506040518060400160405280600f81526020016e45524332305f5452414e534645525360881b8152508160008151811061033a5761033a610d3e565b6020026020010181905250604051806040016040528060128152602001712120a620a721a2afab20a624a220aa24a7a760711b8152508160018151811061038357610383610d3e565b60200260200101819052506040518060400160405280600f81526020016e4d494e494d554d5f414d4f554e545360881b815250816002815181106103c9576103c9610d3e565b6020026020010181905250806040518060400160405280601381526020017222a92199182830bcb6b2b73a20b230b83a32b960691b81525090604051806040016040528060058152602001640312e302e360dc1b8152509093509350935050909192565b61043561074a565b61043f6000610779565b565b61044961074a565b6001600160a01b03166000908152600160209081526040808320805460ff191690556002909152812055565b6000546001600160a01b031690565b60006060610494868686866104dc565b915091505b94509492505050565b6104aa61074a565b6001600160a01b0381166104d05760405162461bcd60e51b815260040161020890610d97565b6104d981610779565b50565b6001600160a01b03811660009081526001602052604081205460609060ff16610533575050604080518082019091526013815272151bdad95b881b9bdd081cdd5c1c1bdc9d1959606a1b6020820152600090610499565b6001600160a01b038616158061055057506001600160a01b038516155b15610587575050604080518082019091526011815270496e76616c69642061646472657373657360781b6020820152600090610499565b836000036105d05760006040518060400160405280602081526020017f416d6f756e74206d7573742062652067726561746572207468616e207a65726f81525091509150610499565b6001600160a01b038316600090815260026020526040902054841015610625575050604080518082019091526014815273416d6f756e742062656c6f77206d696e696d756d60601b6020820152600090610499565b6040516370a0823160e01b815284906001600160a01b038516906370a0823190610653908a90600401610c4e565b602060405180830381865afa158015610670573d6000803e3d6000fd5b505050506040513d601f19601f820116820180604052508101906106949190610db2565b10156106cf575050604080518082019091526014815273496e73756666696369656e742062616c616e636560601b6020820152600090610499565b505060408051602081019091526000815260019094509492505050565b610744846323b872dd60e01b85858560405160240161070d93929190610dd1565b60408051601f198184030181529190526020810180516001600160e01b03166001600160e01b0319909316929092179091526107c9565b50505050565b33610753610475565b6001600160a01b03161461043f5760405162461bcd60e51b815260040161020890610e29565b600080546001600160a01b038381166001600160a01b0319831681178455604051919092169283917f8be0079c531659141344cd1fd0a4f28419497f9722a3daafe3b4186f6b6457e09190a35050565b600061081e826040518060400160405280602081526020017f5361666545524332303a206c6f772d6c6576656c2063616c6c206661696c6564815250856001600160a01b03166108609092919063ffffffff16565b905080516000148061083f57508080602001905181019061083f9190610e4c565b61085b5760405162461bcd60e51b815260040161020890610eb0565b505050565b606061086f8484600085610877565b949350505050565b6060824710156108995760405162461bcd60e51b815260040161020890610f01565b600080866001600160a01b031685876040516108b59190610f33565b60006040518083038185875af1925050503d80600081146108f2576040519150601f19603f3d011682016040523d82523d6000602084013e6108f7565b606091505b509150915061090887838387610913565b979650505050505050565b6060831561095257825160000361094b576001600160a01b0385163b61094b5760405162461bcd60e51b815260040161020890610f6f565b508161086f565b61086f83838151156109675781518083602001fd5b8060405162461bcd60e51b81526004016102089190610cd7565b60006001600160a01b0382165b92915050565b61099d81610981565b81146104d957600080fd5b803561098e81610994565b8061099d565b803561098e816109b3565b60008083601f8401126109d9576109d9600080fd5b5081356001600160401b038111156109f3576109f3600080fd5b602083019150836001820283011115610a0e57610a0e600080fd5b9250929050565b60008060008060008060a08789031215610a3157610a31600080fd5b610a3b88886109a8565b9550610a4a88602089016109a8565b9450610a5988604089016109b9565b9350610a6888606089016109a8565b925060808701356001600160401b03811115610a8657610a86600080fd5b610a9289828a016109c4565b92509250509295509295509295565b8015155b82525050565b6020810161098e8284610aa1565b600060208284031215610ace57610ace600080fd5b610ad883836109a8565b9392505050565b80610aa5565b6020810161098e8284610adf565b60008060408385031215610b0957610b09600080fd5b610b1384846109a8565b9150610b2284602085016109b9565b90509250929050565b60005b83811015610b46578181015183820152602001610b2e565b50506000910152565b601f01601f191690565b6000610b63825190565b808452602084019350610b7a818560208601610b2b565b610b8381610b4f565b9093019392505050565b6000610ad88383610b59565b60200190565b6000610ba9825190565b80845260208401935083602082028501610bc38560200190565b60005b84811015610bf75783830388528151610bdf8482610b8d565b93505060208201602098909801979150600101610bc6565b50909695505050505050565b60608082528101610c148186610b59565b90508181036020830152610c288185610b59565b90508181036040830152610c3c8184610b9f565b95945050505050565b610aa581610981565b6020810161098e8284610c45565b60008060008060808587031215610c7557610c75600080fd5b610c7f86866109a8565b9350610c8e86602087016109a8565b9250610c9d86604087016109b9565b9150610cac86606087016109a8565b905092959194509250565b60408101610cc58285610aa1565b818103602083015261086f8184610b59565b60208082528101610ad88184610b59565b82818337506000910152565b818352602083019250610d08828483610ce8565b506000610d1482610b4f565b90920192915050565b60408101610d2b8286610adf565b8181036020830152610c3c818486610cf4565b634e487b7160e01b600052603260045260246000fd5b60268152602081017f4f776e61626c653a206e6577206f776e657220697320746865207a65726f206181526564647265737360d01b602082015290505b60400190565b6020808252810161098e81610d54565b805161098e816109b3565b600060208284031215610dc757610dc7600080fd5b610ad88383610da7565b60608101610ddf8286610c45565b610dec6020830185610c45565b61086f6040830184610adf565b60208082527f4f776e61626c653a2063616c6c6572206973206e6f7420746865206f776e65729101908152610b99565b6020808252810161098e81610df9565b80151561099d565b805161098e81610e39565b600060208284031215610e6157610e61600080fd5b610ad88383610e41565b602a8152602081017f5361666545524332303a204552433230206f7065726174696f6e20646964206e8152691bdd081cdd58d8d9595960b21b60208201529050610d91565b6020808252810161098e81610e6b565b60268152602081017f416464726573733a20696e73756666696369656e742062616c616e636520666f8152651c8818d85b1b60d21b60208201529050610d91565b6020808252810161098e81610ec0565b6000610f1b825190565b610f29818560208601610b2b565b9290920192915050565b61098e8183610f11565b601d8152602081017f416464726573733a2063616c6c20746f206e6f6e2d636f6e747261637400000081529050610b99565b6020808252810161098e81610f3d56fea2646970667358221220504bf5c16ca98f780659f3afcd67f3c3742677b4b7185013c7f1597d57bc3ee564736f6c63430008160033","opcodes":"PUSH1 0x80 PUSH1 0x40 MSTORE CALLVALUE DUP1 ISZERO PUSH2 0x10 JUMPI PUSH1 0x0 DUP1 REVERT JUMPDEST POP PUSH2 0x1A CALLER PUSH2 0x1F JUMP JUMPDEST PUSH2 0x6F JUMP JUMPDEST PUSH1 0x0 DUP1 SLOAD PUSH1 0x1 PUSH1 0x1 PUSH1 0xA0 SHL SUB DUP4 DUP2 AND PUSH1 0x1 PUSH1 0x1 PUSH1 0xA0 SHL SUB NOT DUP4 AND DUP2 OR DUP5 SSTORE PUSH1 0x40 MLOAD SWAP2 SWAP1 SWAP3 AND SWAP3 DUP4 SWAP2 PUSH32 0x8BE0079C531659141344CD1FD0A4F28419497F9722A3DAAFE3B4186F6B6457E0 SWAP2 SWAP1 LOG3 POP POP JUMP JUMPDEST PUSH2 0xFB5 DUP1 PUSH2 0x7E PUSH1 0x0 CODECOPY PUSH1 0x0 RETURN INVALID PUSH1 0x80 PUSH1 0x40 MSTORE CALLVALUE DUP1 ISZERO PUSH2 0x10 JUMPI PUSH1 0x0 DUP1 REVERT JUMPDEST POP PUSH1 0x4 CALLDATASIZE LT PUSH2 0x99 JUMPI PUSH1 0x0 CALLDATALOAD PUSH1 0xE0 SHR DUP1 PUSH4 0xB7CF9B5 EQ PUSH2 0x9E JUMPI DUP1 PUSH4 0x3AFCA64B EQ PUSH2 0xC7 JUMPI DUP1 PUSH4 0x4D8E3D3B EQ PUSH2 0xF4 JUMPI DUP1 PUSH4 0x57CDB6B5 EQ PUSH2 0x109 JUMPI DUP1 PUSH4 0x68C4AC26 EQ PUSH2 0x120 JUMPI DUP1 PUSH4 0x715018A6 EQ PUSH2 0x143 JUMPI DUP1 PUSH4 0x75151B63 EQ PUSH2 0x14B JUMPI DUP1 PUSH4 0x76319190 EQ PUSH2 0x177 JUMPI DUP1 PUSH4 0x8DA5CB5B EQ PUSH2 0x18A JUMPI DUP1 PUSH4 0xE56921FA EQ PUSH2 0x19F JUMPI DUP1 PUSH4 0xF2FDE38B EQ PUSH2 0x1C0 JUMPI JUMPDEST PUSH1 0x0 DUP1 REVERT JUMPDEST PUSH2 0xB1 PUSH2 0xAC CALLDATASIZE PUSH1 0x4 PUSH2 0xA15 JUMP JUMPDEST PUSH2 0x1D3 JUMP JUMPDEST PUSH1 0x40 MLOAD PUSH2 0xBE SWAP2 SWAP1 PUSH2 0xAAB JUMP JUMPDEST PUSH1 0x40 MLOAD DUP1 SWAP2 SUB SWAP1 RETURN JUMPDEST PUSH2 0xE7 PUSH2 0xD5 CALLDATASIZE PUSH1 0x4 PUSH2 0xAB9 JUMP JUMPDEST PUSH1 0x2 PUSH1 0x20 MSTORE PUSH1 0x0 SWAP1 DUP2 MSTORE PUSH1 0x40 SWAP1 KECCAK256 SLOAD DUP2 JUMP JUMPDEST PUSH1 0x40 MLOAD PUSH2 0xBE SWAP2 SWAP1 PUSH2 0xAE5 JUMP JUMPDEST PUSH2 0x107 PUSH2 0x102 CALLDATASIZE PUSH1 0x4 PUSH2 0xAF3 JUMP JUMPDEST PUSH2 0x28F JUMP JUMPDEST STOP JUMPDEST PUSH2 0x111 PUSH2 0x2C8 JUMP JUMPDEST PUSH1 0x40 MLOAD PUSH2 0xBE SWAP4 SWAP3 SWAP2 SWAP1 PUSH2 0xC03 JUMP JUMPDEST PUSH2 0xB1 PUSH2 0x12E CALLDATASIZE PUSH1 0x4 PUSH2 0xAB9 JUMP JUMPDEST PUSH1 0x1 PUSH1 0x20 MSTORE PUSH1 0x0 SWAP1 DUP2 MSTORE PUSH1 0x40 SWAP1 KECCAK256 SLOAD PUSH1 0xFF AND DUP2 JUMP JUMPDEST PUSH2 0x107 PUSH2 0x42D JUMP JUMPDEST PUSH2 0xB1 PUSH2 0x159 CALLDATASIZE PUSH1 0x4 PUSH2 0xAB9 JUMP JUMPDEST PUSH1 0x1 PUSH1 0x1 PUSH1 0xA0 SHL SUB AND PUSH1 0x0 SWAP1 DUP2 MSTORE PUSH1 0x1 PUSH1 0x20 MSTORE PUSH1 0x40 SWAP1 KECCAK256 SLOAD PUSH1 0xFF AND SWAP1 JUMP JUMPDEST PUSH2 0x107 PUSH2 0x185 CALLDATASIZE PUSH1 0x4 PUSH2 0xAB9 JUMP JUMPDEST PUSH2 0x441 JUMP JUMPDEST PUSH2 0x192 PUSH2 0x475 JUMP JUMPDEST PUSH1 0x40 MLOAD PUSH2 0xBE SWAP2 SWAP1 PUSH2 0xC4E JUMP JUMPDEST PUSH2 0x1B2 PUSH2 0x1AD CALLDATASIZE PUSH1 0x4 PUSH2 0xC5C JUMP JUMPDEST PUSH2 0x484 JUMP JUMPDEST PUSH1 0x40 MLOAD PUSH2 0xBE SWAP3 SWAP2 SWAP1 PUSH2 0xCB7 JUMP JUMPDEST PUSH2 0x107 PUSH2 0x1CE CALLDATASIZE PUSH1 0x4 PUSH2 0xAB9 JUMP JUMPDEST PUSH2 0x4A2 JUMP JUMPDEST PUSH1 0x0 DUP1 PUSH1 0x0 PUSH2 0x1E4 DUP10 DUP10 DUP10 DUP10 PUSH2 0x4DC JUMP JUMPDEST SWAP2 POP SWAP2 POP DUP2 DUP2 SWAP1 PUSH2 0x211 JUMPI PUSH1 0x40 MLOAD PUSH3 0x461BCD PUSH1 0xE5 SHL DUP2 MSTORE PUSH1 0x4 ADD PUSH2 0x208 SWAP2 SWAP1 PUSH2 0xCD7 JUMP JUMPDEST PUSH1 0x40 MLOAD DUP1 SWAP2 SUB SWAP1 REVERT JUMPDEST POP PUSH2 0x227 PUSH1 0x1 PUSH1 0x1 PUSH1 0xA0 SHL SUB DUP8 AND DUP11 DUP11 DUP11 PUSH2 0x6EC JUMP JUMPDEST DUP6 PUSH1 0x1 PUSH1 0x1 PUSH1 0xA0 SHL SUB AND DUP9 PUSH1 0x1 PUSH1 0x1 PUSH1 0xA0 SHL SUB AND DUP11 PUSH1 0x1 PUSH1 0x1 PUSH1 0xA0 SHL SUB AND PUSH32 0x3DE34CAC5441DC2DD43C510EACFE4B0A57A1CDE29A360B813D87BF01AE118DF7 DUP11 DUP10 DUP10 PUSH1 0x40 MLOAD PUSH2 0x278 SWAP4 SWAP3 SWAP2 SWAP1 PUSH2 0xD1D JUMP JUMPDEST PUSH1 0x40 MLOAD DUP1 SWAP2 SUB SWAP1 LOG4 POP PUSH1 0x1 SWAP9 SWAP8 POP POP POP POP POP POP POP POP JUMP JUMPDEST PUSH2 0x297 PUSH2 0x74A JUMP JUMPDEST PUSH1 0x1 PUSH1 0x1 PUSH1 0xA0 SHL SUB SWAP1 SWAP2 AND PUSH1 0x0 SWAP1 DUP2 MSTORE PUSH1 0x1 PUSH1 0x20 DUP2 DUP2 MSTORE PUSH1 0x40 DUP1 DUP5 KECCAK256 DUP1 SLOAD PUSH1 0xFF NOT AND SWAP1 SWAP4 OR SWAP1 SWAP3 SSTORE PUSH1 0x2 SWAP1 MSTORE SWAP1 KECCAK256 SSTORE JUMP JUMPDEST PUSH1 0x40 DUP1 MLOAD PUSH1 0x3 DUP1 DUP3 MSTORE PUSH1 0x80 DUP3 ADD SWAP1 SWAP3 MSTORE PUSH1 0x60 SWAP2 DUP3 SWAP2 DUP3 SWAP2 PUSH1 0x0 SWAP2 SWAP1 DUP2 PUSH1 0x20 ADD JUMPDEST PUSH1 0x60 DUP2 MSTORE PUSH1 0x20 ADD SWAP1 PUSH1 0x1 SWAP1 SUB SWAP1 DUP2 PUSH2 0x2E8 JUMPI SWAP1 POP POP SWAP1 POP PUSH1 0x40 MLOAD DUP1 PUSH1 0x40 ADD PUSH1 0x40 MSTORE DUP1 PUSH1 0xF DUP2 MSTORE PUSH1 0x20 ADD PUSH15 0x45524332305F5452414E5346455253 PUSH1 0x88 SHL DUP2 MSTORE POP DUP2 PUSH1 0x0 DUP2 MLOAD DUP2 LT PUSH2 0x33A JUMPI PUSH2 0x33A PUSH2 0xD3E JUMP JUMPDEST PUSH1 0x20 MUL PUSH1 0x20 ADD ADD DUP2 SWAP1 MSTORE POP PUSH1 0x40 MLOAD DUP1 PUSH1 0x40 ADD PUSH1 0x40 MSTORE DUP1 PUSH1 0x12 DUP2 MSTORE PUSH1 0x20 ADD PUSH18 0x2120A620A721A2AFAB20A624A220AA24A7A7 PUSH1 0x71 SHL DUP2 MSTORE POP DUP2 PUSH1 0x1 DUP2 MLOAD DUP2 LT PUSH2 0x383 JUMPI PUSH2 0x383 PUSH2 0xD3E JUMP JUMPDEST PUSH1 0x20 MUL PUSH1 0x20 ADD ADD DUP2 SWAP1 MSTORE POP PUSH1 0x40 MLOAD DUP1 PUSH1 0x40 ADD PUSH1 0x40 MSTORE DUP1 PUSH1 0xF DUP2 MSTORE PUSH1 0x20 ADD PUSH15 0x4D494E494D554D5F414D4F554E5453 PUSH1 0x88 SHL DUP2 MSTORE POP DUP2 PUSH1 0x2 DUP2 MLOAD DUP2 LT PUSH2 0x3C9 JUMPI PUSH2 0x3C9 PUSH2 0xD3E JUMP JUMPDEST PUSH1 0x20 MUL PUSH1 0x20 ADD ADD DUP2 SWAP1 MSTORE POP DUP1 PUSH1 0x40 MLOAD DUP1 PUSH1 0x40 ADD PUSH1 0x40 MSTORE DUP1 PUSH1 0x13 DUP2 MSTORE PUSH1 0x20 ADD PUSH19 0x22A92199182830BCB6B2B73A20B230B83A32B9 PUSH1 0x69 SHL DUP2 MSTORE POP SWAP1 PUSH1 0x40 MLOAD DUP1 PUSH1 0x40 ADD PUSH1 0x40 MSTORE DUP1 PUSH1 0x5 DUP2 MSTORE PUSH1 0x20 ADD PUSH5 0x312E302E3 PUSH1 0xDC SHL DUP2 MSTORE POP SWAP1 SWAP4 POP SWAP4 POP SWAP4 POP POP SWAP1 SWAP2 SWAP3 JUMP JUMPDEST PUSH2 0x435 PUSH2 0x74A JUMP JUMPDEST PUSH2 0x43F PUSH1 0x0 PUSH2 0x779 JUMP JUMPDEST JUMP JUMPDEST PUSH2 0x449 PUSH2 0x74A JUMP JUMPDEST PUSH1 0x1 PUSH1 0x1 PUSH1 0xA0 SHL SUB AND PUSH1 0x0 SWAP1 DUP2 MSTORE PUSH1 0x1 PUSH1 0x20 SWAP1 DUP2 MSTORE PUSH1 0x40 DUP1 DUP4 KECCAK256 DUP1 SLOAD PUSH1 0xFF NOT AND SWAP1 SSTORE PUSH1 0x2 SWAP1 SWAP2 MSTORE DUP2 KECCAK256 SSTORE JUMP JUMPDEST PUSH1 0x0 SLOAD PUSH1 0x1 PUSH1 0x1 PUSH1 0xA0 SHL SUB AND SWAP1 JUMP JUMPDEST PUSH1 0x0 PUSH1 0x60 PUSH2 0x494 DUP7 DUP7 DUP7 DUP7 PUSH2 0x4DC JUMP JUMPDEST SWAP2 POP SWAP2 POP JUMPDEST SWAP5 POP SWAP5 SWAP3 POP POP POP JUMP JUMPDEST PUSH2 0x4AA PUSH2 0x74A JUMP JUMPDEST PUSH1 0x1 PUSH1 0x1 PUSH1 0xA0 SHL SUB DUP2 AND PUSH2 0x4D0 JUMPI PUSH1 0x40 MLOAD PUSH3 0x461BCD PUSH1 0xE5 SHL DUP2 MSTORE PUSH1 0x4 ADD PUSH2 0x208 SWAP1 PUSH2 0xD97 JUMP JUMPDEST PUSH2 0x4D9 DUP2 PUSH2 0x779 JUMP JUMPDEST POP JUMP JUMPDEST PUSH1 0x1 PUSH1 0x1 PUSH1 0xA0 SHL SUB DUP2 AND PUSH1 0x0 SWAP1 DUP2 MSTORE PUSH1 0x1 PUSH1 0x20 MSTORE PUSH1 0x40 DUP2 KECCAK256 SLOAD PUSH1 0x60 SWAP1 PUSH1 0xFF AND PUSH2 0x533 JUMPI POP POP PUSH1 0x40 DUP1 MLOAD DUP1 DUP3 ADD SWAP1 SWAP2 MSTORE PUSH1 0x13 DUP2 MSTORE PUSH19 0x151BDAD95B881B9BDD081CDD5C1C1BDC9D1959 PUSH1 0x6A SHL PUSH1 0x20 DUP3 ADD MSTORE PUSH1 0x0 SWAP1 PUSH2 0x499 JUMP JUMPDEST PUSH1 0x1 PUSH1 0x1 PUSH1 0xA0 SHL SUB DUP7 AND ISZERO DUP1 PUSH2 0x550 JUMPI POP PUSH1 0x1 PUSH1 0x1 PUSH1 0xA0 SHL SUB DUP6 AND ISZERO JUMPDEST ISZERO PUSH2 0x587 JUMPI POP POP PUSH1 0x40 DUP1 MLOAD DUP1 DUP3 ADD SWAP1 SWAP2 MSTORE PUSH1 0x11 DUP2 MSTORE PUSH17 0x496E76616C696420616464726573736573 PUSH1 0x78 SHL PUSH1 0x20 DUP3 ADD MSTORE PUSH1 0x0 SWAP1 PUSH2 0x499 JUMP JUMPDEST DUP4 PUSH1 0x0 SUB PUSH2 0x5D0 JUMPI PUSH1 0x0 PUSH1 0x40 MLOAD DUP1 PUSH1 0x40 ADD PUSH1 0x40 MSTORE DUP1 PUSH1 0x20 DUP2 MSTORE PUSH1 0x20 ADD PUSH32 0x416D6F756E74206D7573742062652067726561746572207468616E207A65726F DUP2 MSTORE POP SWAP2 POP SWAP2 POP PUSH2 0x499 JUMP JUMPDEST PUSH1 0x1 PUSH1 0x1 PUSH1 0xA0 SHL SUB DUP4 AND PUSH1 0x0 SWAP1 DUP2 MSTORE PUSH1 0x2 PUSH1 0x20 MSTORE PUSH1 0x40 SWAP1 KECCAK256 SLOAD DUP5 LT ISZERO PUSH2 0x625 JUMPI POP POP PUSH1 0x40 DUP1 MLOAD DUP1 DUP3 ADD SWAP1 SWAP2 MSTORE PUSH1 0x14 DUP2 MSTORE PUSH20 0x416D6F756E742062656C6F77206D696E696D756D PUSH1 0x60 SHL PUSH1 0x20 DUP3 ADD MSTORE PUSH1 0x0 SWAP1 PUSH2 0x499 JUMP JUMPDEST PUSH1 0x40 MLOAD PUSH4 0x70A08231 PUSH1 0xE0 SHL DUP2 MSTORE DUP5 SWAP1 PUSH1 0x1 PUSH1 0x1 PUSH1 0xA0 SHL SUB DUP6 AND SWAP1 PUSH4 0x70A08231 SWAP1 PUSH2 0x653 SWAP1 DUP11 SWAP1 PUSH1 0x4 ADD PUSH2 0xC4E JUMP JUMPDEST PUSH1 0x20 PUSH1 0x40 MLOAD DUP1 DUP4 SUB DUP2 DUP7 GAS STATICCALL ISZERO DUP1 ISZERO PUSH2 0x670 JUMPI RETURNDATASIZE PUSH1 0x0 DUP1 RETURNDATACOPY RETURNDATASIZE PUSH1 0x0 REVERT JUMPDEST POP POP POP POP PUSH1 0x40 MLOAD RETURNDATASIZE PUSH1 0x1F NOT PUSH1 0x1F DUP3 ADD AND DUP3 ADD DUP1 PUSH1 0x40 MSTORE POP DUP2 ADD SWAP1 PUSH2 0x694 SWAP2 SWAP1 PUSH2 0xDB2 JUMP JUMPDEST LT ISZERO PUSH2 0x6CF JUMPI POP POP PUSH1 0x40 DUP1 MLOAD DUP1 DUP3 ADD SWAP1 SWAP2 MSTORE PUSH1 0x14 DUP2 MSTORE PUSH20 0x496E73756666696369656E742062616C616E6365 PUSH1 0x60 SHL PUSH1 0x20 DUP3 ADD MSTORE PUSH1 0x0 SWAP1 PUSH2 0x499 JUMP JUMPDEST POP POP PUSH1 0x40 DUP1 MLOAD PUSH1 0x20 DUP2 ADD SWAP1 SWAP2 MSTORE PUSH1 0x0 DUP2 MSTORE PUSH1 0x1 SWAP1 SWAP5 POP SWAP5 SWAP3 POP POP POP JUMP JUMPDEST PUSH2 0x744 DUP5 PUSH4 0x23B872DD PUSH1 0xE0 SHL DUP6 DUP6 DUP6 PUSH1 0x40 MLOAD PUSH1 0x24 ADD PUSH2 0x70D SWAP4 SWAP3 SWAP2 SWAP1 PUSH2 0xDD1 JUMP JUMPDEST PUSH1 0x40 DUP1 MLOAD PUSH1 0x1F NOT DUP2 DUP5 SUB ADD DUP2 MSTORE SWAP2 SWAP1 MSTORE PUSH1 0x20 DUP2 ADD DUP1 MLOAD PUSH1 0x1 PUSH1 0x1 PUSH1 0xE0 SHL SUB AND PUSH1 0x1 PUSH1 0x1 PUSH1 0xE0 SHL SUB NOT SWAP1 SWAP4 AND SWAP3 SWAP1 SWAP3 OR SWAP1 SWAP2 MSTORE PUSH2 0x7C9 JUMP JUMPDEST POP POP POP POP JUMP JUMPDEST CALLER PUSH2 0x753 PUSH2 0x475 JUMP JUMPDEST PUSH1 0x1 PUSH1 0x1 PUSH1 0xA0 SHL SUB AND EQ PUSH2 0x43F JUMPI PUSH1 0x40 MLOAD PUSH3 0x461BCD PUSH1 0xE5 SHL DUP2 MSTORE PUSH1 0x4 ADD PUSH2 0x208 SWAP1 PUSH2 0xE29 JUMP JUMPDEST PUSH1 0x0 DUP1 SLOAD PUSH1 0x1 PUSH1 0x1 PUSH1 0xA0 SHL SUB DUP4 DUP2 AND PUSH1 0x1 PUSH1 0x1 PUSH1 0xA0 SHL SUB NOT DUP4 AND DUP2 OR DUP5 SSTORE PUSH1 0x40 MLOAD SWAP2 SWAP1 SWAP3 AND SWAP3 DUP4 SWAP2 PUSH32 0x8BE0079C531659141344CD1FD0A4F28419497F9722A3DAAFE3B4186F6B6457E0 SWAP2 SWAP1 LOG3 POP POP JUMP JUMPDEST PUSH1 0x0 PUSH2 0x81E DUP3 PUSH1 0x40 MLOAD DUP1 PUSH1 0x40 ADD PUSH1 0x40 MSTORE DUP1 PUSH1 0x20 DUP2 MSTORE PUSH1 0x20 ADD PUSH32 0x5361666545524332303A206C6F772D6C6576656C2063616C6C206661696C6564 DUP2 MSTORE POP DUP6 PUSH1 0x1 PUSH1 0x1 PUSH1 0xA0 SHL SUB AND PUSH2 0x860 SWAP1 SWAP3 SWAP2 SWAP1 PUSH4 0xFFFFFFFF AND JUMP JUMPDEST SWAP1 POP DUP1 MLOAD PUSH1 0x0 EQ DUP1 PUSH2 0x83F JUMPI POP DUP1 DUP1 PUSH1 0x20 ADD SWAP1 MLOAD DUP2 ADD SWAP1 PUSH2 0x83F SWAP2 SWAP1 PUSH2 0xE4C JUMP JUMPDEST PUSH2 0x85B JUMPI PUSH1 0x40 MLOAD PUSH3 0x461BCD PUSH1 0xE5 SHL DUP2 MSTORE PUSH1 0x4 ADD PUSH2 0x208 SWAP1 PUSH2 0xEB0 JUMP JUMPDEST POP POP POP JUMP JUMPDEST PUSH1 0x60 PUSH2 0x86F DUP5 DUP5 PUSH1 0x0 DUP6 PUSH2 0x877 JUMP JUMPDEST SWAP5 SWAP4 POP POP POP POP JUMP JUMPDEST PUSH1 0x60 DUP3 SELFBALANCE LT ISZERO PUSH2 0x899 JUMPI PUSH1 0x40 MLOAD PUSH3 0x461BCD PUSH1 0xE5 SHL DUP2 MSTORE PUSH1 0x4 ADD PUSH2 0x208 SWAP1 PUSH2 0xF01 JUMP JUMPDEST PUSH1 0x0 DUP1 DUP7 PUSH1 0x1 PUSH1 0x1 PUSH1 0xA0 SHL SUB AND DUP6 DUP8 PUSH1 0x40 MLOAD PUSH2 0x8B5 SWAP2 SWAP1 PUSH2 0xF33 JUMP JUMPDEST PUSH1 0x0 PUSH1 0x40 MLOAD DUP1 DUP4 SUB DUP2 DUP6 DUP8 GAS CALL SWAP3 POP POP POP RETURNDATASIZE DUP1 PUSH1 0x0 DUP2 EQ PUSH2 0x8F2 JUMPI PUSH1 0x40 MLOAD SWAP2 POP PUSH1 0x1F NOT PUSH1 0x3F RETURNDATASIZE ADD AND DUP3 ADD PUSH1 0x40 MSTORE RETURNDATASIZE DUP3 MSTORE RETURNDATASIZE PUSH1 0x0 PUSH1 0x20 DUP5 ADD RETURNDATACOPY PUSH2 0x8F7 JUMP JUMPDEST PUSH1 0x60 SWAP2 POP JUMPDEST POP SWAP2 POP SWAP2 POP PUSH2 0x908 DUP8 DUP4 DUP4 DUP8 PUSH2 0x913 JUMP JUMPDEST SWAP8 SWAP7 POP POP POP POP POP POP POP JUMP JUMPDEST PUSH1 0x60 DUP4 ISZERO PUSH2 0x952 JUMPI DUP3 MLOAD PUSH1 0x0 SUB PUSH2 0x94B JUMPI PUSH1 0x1 PUSH1 0x1 PUSH1 0xA0 SHL SUB DUP6 AND EXTCODESIZE PUSH2 0x94B JUMPI PUSH1 0x40 MLOAD PUSH3 0x461BCD PUSH1 0xE5 SHL DUP2 MSTORE PUSH1 0x4 ADD PUSH2 0x208 SWAP1 PUSH2 0xF6F JUMP JUMPDEST POP DUP2 PUSH2 0x86F JUMP JUMPDEST PUSH2 0x86F DUP4 DUP4 DUP2 MLOAD ISZERO PUSH2 0x967 JUMPI DUP2 MLOAD DUP1 DUP4 PUSH1 0x20 ADD REVERT JUMPDEST DUP1 PUSH1 0x40 MLOAD PUSH3 0x461BCD PUSH1 0xE5 SHL DUP2 MSTORE PUSH1 0x4 ADD PUSH2 0x208 SWAP2 SWAP1 PUSH2 0xCD7 JUMP JUMPDEST PUSH1 0x0 PUSH1 0x1 PUSH1 0x1 PUSH1 0xA0 SHL SUB DUP3 AND JUMPDEST SWAP3 SWAP2 POP POP JUMP JUMPDEST PUSH2 0x99D DUP2 PUSH2 0x981 JUMP JUMPDEST DUP2 EQ PUSH2 0x4D9 JUMPI PUSH1 0x0 DUP1 REVERT JUMPDEST DUP1 CALLDATALOAD PUSH2 0x98E DUP2 PUSH2 0x994 JUMP JUMPDEST DUP1 PUSH2 0x99D JUMP JUMPDEST DUP1 CALLDATALOAD PUSH2 0x98E DUP2 PUSH2 0x9B3 JUMP JUMPDEST PUSH1 0x0 DUP1 DUP4 PUSH1 0x1F DUP5 ADD SLT PUSH2 0x9D9 JUMPI PUSH2 0x9D9 PUSH1 0x0 DUP1 REVERT JUMPDEST POP DUP2 CALLDATALOAD PUSH1 0x1 PUSH1 0x1 PUSH1 0x40 SHL SUB DUP2 GT ISZERO PUSH2 0x9F3 JUMPI PUSH2 0x9F3 PUSH1 0x0 DUP1 REVERT JUMPDEST PUSH1 0x20 DUP4 ADD SWAP2 POP DUP4 PUSH1 0x1 DUP3 MUL DUP4 ADD GT ISZERO PUSH2 0xA0E JUMPI PUSH2 0xA0E PUSH1 0x0 DUP1 REVERT JUMPDEST SWAP3 POP SWAP3 SWAP1 POP JUMP JUMPDEST PUSH1 0x0 DUP1 PUSH1 0x0 DUP1 PUSH1 0x0 DUP1 PUSH1 0xA0 DUP8 DUP10 SUB SLT ISZERO PUSH2 0xA31 JUMPI PUSH2 0xA31 PUSH1 0x0 DUP1 REVERT JUMPDEST PUSH2 0xA3B DUP9 DUP9 PUSH2 0x9A8 JUMP JUMPDEST SWAP6 POP PUSH2 0xA4A DUP9 PUSH1 0x20 DUP10 ADD PUSH2 0x9A8 JUMP JUMPDEST SWAP5 POP PUSH2 0xA59 DUP9 PUSH1 0x40 DUP10 ADD PUSH2 0x9B9 JUMP JUMPDEST SWAP4 POP PUSH2 0xA68 DUP9 PUSH1 0x60 DUP10 ADD PUSH2 0x9A8 JUMP JUMPDEST SWAP3 POP PUSH1 0x80 DUP8 ADD CALLDATALOAD PUSH1 0x1 PUSH1 0x1 PUSH1 0x40 SHL SUB DUP2 GT ISZERO PUSH2 0xA86 JUMPI PUSH2 0xA86 PUSH1 0x0 DUP1 REVERT JUMPDEST PUSH2 0xA92 DUP10 DUP3 DUP11 ADD PUSH2 0x9C4 JUMP JUMPDEST SWAP3 POP SWAP3 POP POP SWAP3 SWAP6 POP SWAP3 SWAP6 POP SWAP3 SWAP6 JUMP JUMPDEST DUP1 ISZERO ISZERO JUMPDEST DUP3 MSTORE POP POP JUMP JUMPDEST PUSH1 0x20 DUP2 ADD PUSH2 0x98E DUP3 DUP5 PUSH2 0xAA1 JUMP JUMPDEST PUSH1 0x0 PUSH1 0x20 DUP3 DUP5 SUB SLT ISZERO PUSH2 0xACE JUMPI PUSH2 0xACE PUSH1 0x0 DUP1 REVERT JUMPDEST PUSH2 0xAD8 DUP4 DUP4 PUSH2 0x9A8 JUMP JUMPDEST SWAP4 SWAP3 POP POP POP JUMP JUMPDEST DUP1 PUSH2 0xAA5 JUMP JUMPDEST PUSH1 0x20 DUP2 ADD PUSH2 0x98E DUP3 DUP5 PUSH2 0xADF JUMP JUMPDEST PUSH1 0x0 DUP1 PUSH1 0x40 DUP4 DUP6 SUB SLT ISZERO PUSH2 0xB09 JUMPI PUSH2 0xB09 PUSH1 0x0 DUP1 REVERT JUMPDEST PUSH2 0xB13 DUP5 DUP5 PUSH2 0x9A8 JUMP JUMPDEST SWAP2 POP PUSH2 0xB22 DUP5 PUSH1 0x20 DUP6 ADD PUSH2 0x9B9 JUMP JUMPDEST SWAP1 POP SWAP3 POP SWAP3 SWAP1 POP JUMP JUMPDEST PUSH1 0x0 JUMPDEST DUP4 DUP2 LT ISZERO PUSH2 0xB46 JUMPI DUP2 DUP2 ADD MLOAD DUP4 DUP3 ADD MSTORE PUSH1 0x20 ADD PUSH2 0xB2E JUMP JUMPDEST POP POP PUSH1 0x0 SWAP2 ADD MSTORE JUMP JUMPDEST PUSH1 0x1F ADD PUSH1 0x1F NOT AND SWAP1 JUMP JUMPDEST PUSH1 0x0 PUSH2 0xB63 DUP3 MLOAD SWAP1 JUMP JUMPDEST DUP1 DUP5 MSTORE PUSH1 0x20 DUP5 ADD SWAP4 POP PUSH2 0xB7A DUP2 DUP6 PUSH1 0x20 DUP7 ADD PUSH2 0xB2B JUMP JUMPDEST PUSH2 0xB83 DUP2 PUSH2 0xB4F JUMP JUMPDEST SWAP1 SWAP4 ADD SWAP4 SWAP3 POP POP POP JUMP JUMPDEST PUSH1 0x0 PUSH2 0xAD8 DUP4 DUP4 PUSH2 0xB59 JUMP JUMPDEST PUSH1 0x20 ADD SWAP1 JUMP JUMPDEST PUSH1 0x0 PUSH2 0xBA9 DUP3 MLOAD SWAP1 JUMP JUMPDEST DUP1 DUP5 MSTORE PUSH1 0x20 DUP5 ADD SWAP4 POP DUP4 PUSH1 0x20 DUP3 MUL DUP6 ADD PUSH2 0xBC3 DUP6 PUSH1 0x20 ADD SWAP1 JUMP JUMPDEST PUSH1 0x0 JUMPDEST DUP5 DUP2 LT ISZERO PUSH2 0xBF7 JUMPI DUP4 DUP4 SUB DUP9 MSTORE DUP2 MLOAD PUSH2 0xBDF DUP5 DUP3 PUSH2 0xB8D JUMP JUMPDEST SWAP4 POP POP PUSH1 0x20 DUP3 ADD PUSH1 0x20 SWAP9 SWAP1 SWAP9 ADD SWAP8 SWAP2 POP PUSH1 0x1 ADD PUSH2 0xBC6 JUMP JUMPDEST POP SWAP1 SWAP7 SWAP6 POP POP POP POP POP POP JUMP JUMPDEST PUSH1 0x60 DUP1 DUP3 MSTORE DUP2 ADD PUSH2 0xC14 DUP2 DUP7 PUSH2 0xB59 JUMP JUMPDEST SWAP1 POP DUP2 DUP2 SUB PUSH1 0x20 DUP4 ADD MSTORE PUSH2 0xC28 DUP2 DUP6 PUSH2 0xB59 JUMP JUMPDEST SWAP1 POP DUP2 DUP2 SUB PUSH1 0x40 DUP4 ADD MSTORE PUSH2 0xC3C DUP2 DUP5 PUSH2 0xB9F JUMP JUMPDEST SWAP6 SWAP5 POP POP POP POP POP JUMP JUMPDEST PUSH2 0xAA5 DUP2 PUSH2 0x981 JUMP JUMPDEST PUSH1 0x20 DUP2 ADD PUSH2 0x98E DUP3 DUP5 PUSH2 0xC45 JUMP JUMPDEST PUSH1 0x0 DUP1 PUSH1 0x0 DUP1 PUSH1 0x80 DUP6 DUP8 SUB SLT ISZERO PUSH2 0xC75 JUMPI PUSH2 0xC75 PUSH1 0x0 DUP1 REVERT JUMPDEST PUSH2 0xC7F DUP7 DUP7 PUSH2 0x9A8 JUMP JUMPDEST SWAP4 POP PUSH2 0xC8E DUP7 PUSH1 0x20 DUP8 ADD PUSH2 0x9A8 JUMP JUMPDEST SWAP3 POP PUSH2 0xC9D DUP7 PUSH1 0x40 DUP8 ADD PUSH2 0x9B9 JUMP JUMPDEST SWAP2 POP PUSH2 0xCAC DUP7 PUSH1 0x60 DUP8 ADD PUSH2 0x9A8 JUMP JUMPDEST SWAP1 POP SWAP3 SWAP6 SWAP2 SWAP5 POP SWAP3 POP JUMP JUMPDEST PUSH1 0x40 DUP2 ADD PUSH2 0xCC5 DUP3 DUP6 PUSH2 0xAA1 JUMP JUMPDEST DUP2 DUP2 SUB PUSH1 0x20 DUP4 ADD MSTORE PUSH2 0x86F DUP2 DUP5 PUSH2 0xB59 JUMP JUMPDEST PUSH1 0x20 DUP1 DUP3 MSTORE DUP2 ADD PUSH2 0xAD8 DUP2 DUP5 PUSH2 0xB59 JUMP JUMPDEST DUP3 DUP2 DUP4 CALLDATACOPY POP PUSH1 0x0 SWAP2 ADD MSTORE JUMP JUMPDEST DUP2 DUP4 MSTORE PUSH1 0x20 DUP4 ADD SWAP3 POP PUSH2 0xD08 DUP3 DUP5 DUP4 PUSH2 0xCE8 JUMP JUMPDEST POP PUSH1 0x0 PUSH2 0xD14 DUP3 PUSH2 0xB4F JUMP JUMPDEST SWAP1 SWAP3 ADD SWAP3 SWAP2 POP POP JUMP JUMPDEST PUSH1 0x40 DUP2 ADD PUSH2 0xD2B DUP3 DUP7 PUSH2 0xADF JUMP JUMPDEST DUP2 DUP2 SUB PUSH1 0x20 DUP4 ADD MSTORE PUSH2 0xC3C DUP2 DUP5 DUP7 PUSH2 0xCF4 JUMP JUMPDEST PUSH4 0x4E487B71 PUSH1 0xE0 SHL PUSH1 0x0 MSTORE PUSH1 0x32 PUSH1 0x4 MSTORE PUSH1 0x24 PUSH1 0x0 REVERT JUMPDEST PUSH1 0x26 DUP2 MSTORE PUSH1 0x20 DUP2 ADD PUSH32 0x4F776E61626C653A206E6577206F776E657220697320746865207A65726F2061 DUP2 MSTORE PUSH6 0x646472657373 PUSH1 0xD0 SHL PUSH1 0x20 DUP3 ADD MSTORE SWAP1 POP JUMPDEST PUSH1 0x40 ADD SWAP1 JUMP JUMPDEST PUSH1 0x20 DUP1 DUP3 MSTORE DUP2 ADD PUSH2 0x98E DUP2 PUSH2 0xD54 JUMP JUMPDEST DUP1 MLOAD PUSH2 0x98E DUP2 PUSH2 0x9B3 JUMP JUMPDEST PUSH1 0x0 PUSH1 0x20 DUP3 DUP5 SUB SLT ISZERO PUSH2 0xDC7 JUMPI PUSH2 0xDC7 PUSH1 0x0 DUP1 REVERT JUMPDEST PUSH2 0xAD8 DUP4 DUP4 PUSH2 0xDA7 JUMP JUMPDEST PUSH1 0x60 DUP2 ADD PUSH2 0xDDF DUP3 DUP7 PUSH2 0xC45 JUMP JUMPDEST PUSH2 0xDEC PUSH1 0x20 DUP4 ADD DUP6 PUSH2 0xC45 JUMP JUMPDEST PUSH2 0x86F PUSH1 0x40 DUP4 ADD DUP5 PUSH2 0xADF JUMP JUMPDEST PUSH1 0x20 DUP1 DUP3 MSTORE PUSH32 0x4F776E61626C653A2063616C6C6572206973206E6F7420746865206F776E6572 SWAP2 ADD SWAP1 DUP2 MSTORE PUSH2 0xB99 JUMP JUMPDEST PUSH1 0x20 DUP1 DUP3 MSTORE DUP2 ADD PUSH2 0x98E DUP2 PUSH2 0xDF9 JUMP JUMPDEST DUP1 ISZERO ISZERO PUSH2 0x99D JUMP JUMPDEST DUP1 MLOAD PUSH2 0x98E DUP2 PUSH2 0xE39 JUMP JUMPDEST PUSH1 0x0 PUSH1 0x20 DUP3 DUP5 SUB SLT ISZERO PUSH2 0xE61 JUMPI PUSH2 0xE61 PUSH1 0x0 DUP1 REVERT JUMPDEST PUSH2 0xAD8 DUP4 DUP4 PUSH2 0xE41 JUMP JUMPDEST PUSH1 0x2A DUP2 MSTORE PUSH1 0x20 DUP2 ADD PUSH32 0x5361666545524332303A204552433230206F7065726174696F6E20646964206E DUP2 MSTORE PUSH10 0x1BDD081CDD58D8D95959 PUSH1 0xB2 SHL PUSH1 0x20 DUP3 ADD MSTORE SWAP1 POP PUSH2 0xD91 JUMP JUMPDEST PUSH1 0x20 DUP1 DUP3 MSTORE DUP2 ADD PUSH2 0x98E DUP2 PUSH2 0xE6B JUMP JUMPDEST PUSH1 0x26 DUP2 MSTORE PUSH1 0x20 DUP2 ADD PUSH32 0x416464726573733A20696E73756666696369656E742062616C616E636520666F DUP2 MSTORE PUSH6 0x1C8818D85B1B PUSH1 0xD2 SHL PUSH1 0x20 DUP3 ADD MSTORE SWAP1 POP PUSH2 0xD91 JUMP JUMPDEST PUSH1 0x20 DUP1 DUP3 MSTORE DUP2 ADD PUSH2 0x98E DUP2 PUSH2 0xEC0 JUMP JUMPDEST PUSH1 0x0 PUSH2 0xF1B DUP3 MLOAD SWAP1 JUMP JUMPDEST PUSH2 0xF29 DUP2 DUP6 PUSH1 0x20 DUP7 ADD PUSH2 0xB2B JUMP JUMPDEST SWAP3 SWAP1 SWAP3 ADD SWAP3 SWAP2 POP POP JUMP JUMPDEST PUSH2 0x98E DUP2 DUP4 PUSH2 0xF11 JUMP JUMPDEST PUSH1 0x1D DUP2 MSTORE PUSH1 0x20 DUP2 ADD PUSH32 0x416464726573733A2063616C6C20746F206E6F6E2D636F6E7472616374000000 DUP2 MSTORE SWAP1 POP PUSH2 0xB99 JUMP JUMPDEST PUSH1 0x20 DUP1 DUP3 MSTORE DUP2 ADD PUSH2 0x98E DUP2 PUSH2 0xF3D JUMP INVALID LOG2 PUSH5 0x6970667358 0x22 SLT KECCAK256 POP 0x4B CREATE2 0xC1 PUSH13 0xA98F780659F3AFCD67F3C37426 PUSH24 0xB4B7185013C7F1597D57BC3EE564736F6C63430008160033 "},"methodIdentifiers":{"addSupportedToken(address,uint256)":"4d8e3d3b","getAdapterInfo()":"57cdb6b5","isTokenSupported(address)":"75151b63","minimumAmounts(address)":"3afca64b","owner()":"8da5cb5b","processPayment(address,address,uint256,address,bytes)":"0b7cf9b5","removeSupportedToken(address)":"76319190","renounceOwnership()":"715018a6","supportedTokens(address)":"68c4ac26","transferOwnership(address)":"f2fde38b","validatePayment(address,address,uint256,address)":"e56921fa"}},"storageLayout":{"storage":[{"astId":7,"contract":"contracts/adapters/ERC20PaymentAdapter.sol:ERC20PaymentAdapter","label":"_owner","offset":0,"slot":"0","type":"t_address"},{"astId":973,"contract":"contracts/adapters/ERC20PaymentAdapter.sol:ERC20PaymentAdapter","label":"supportedTokens","offset":0,"slot":"1","type":"t_mapping(t_address,t_bool)"},{"astId":977,"contract":"contracts/adapters/ERC20PaymentAdapter.sol:ERC20PaymentAdapter","label":"minimumAmounts","offset":0,"slot":"2","type":"t_mapping(t_address,t_uint256)"}],"types":{"t_address":{"encoding":"inplace","label":"address","numberOfBytes":"20"},"t_bool":{"encoding":"inplace","label":"bool","numberOfBytes":"1"},"t_mapping(t_address,t_bool)":{"encoding":"mapping","key":"t_address","label":"mapping(address => bool)","numberOfBytes":"32","value":"t_bool"},"t_mapping(t_address,t_uint256)":{"encoding":"mapping","key":"t_address","label":"mapping(address => uint256)","numberOfBytes":"32","value":"t_uint256"},"t_uint256":{"encoding":"inplace","label":"uint256","numberOfBytes":"32"}}}}}}