{
  "_format": "hh-sol-artifact-1",
  "contractName": "PropertyEscrow",
  "sourceName": "contracts/core/PropertyEscrow.sol",
  "abi": [
    {
      "inputs": [
        {
          "internalType": "address",
          "name": "_platformWallet",
          "type": "address"
        },
        {
          "internalType": "uint256",
          "name": "_platformFeePercentage",
          "type": "uint256"
        }
      ],
      "stateMutability": "nonpayable",
      "type": "constructor"
    },
    {
      "anonymous": false,
      "inputs": [
        {
          "indexed": true,
          "internalType": "uint256",
          "name": "escrowId",
          "type": "uint256"
        },
        {
          "indexed": true,
          "internalType": "address",
          "name": "approver",
          "type": "address"
        },
        {
          "indexed": false,
          "internalType": "enum EscrowStructs.Role",
          "name": "role",
          "type": "uint8"
        }
      ],
      "name": "ApprovalGiven",
      "type": "event"
    },
    {
      "anonymous": false,
      "inputs": [
        {
          "indexed": true,
          "internalType": "uint256",
          "name": "escrowId",
          "type": "uint256"
        },
        {
          "indexed": true,
          "internalType": "address",
          "name": "initiator",
          "type": "address"
        },
        {
          "indexed": false,
          "internalType": "string",
          "name": "reason",
          "type": "string"
        }
      ],
      "name": "DisputeRaised",
      "type": "event"
    },
    {
      "anonymous": false,
      "inputs": [
        {
          "indexed": true,
          "internalType": "uint256",
          "name": "escrowId",
          "type": "uint256"
        },
        {
          "indexed": true,
          "internalType": "address",
          "name": "resolver",
          "type": "address"
        },
        {
          "indexed": false,
          "internalType": "string",
          "name": "resolution",
          "type": "string"
        }
      ],
      "name": "DisputeResolved",
      "type": "event"
    },
    {
      "anonymous": false,
      "inputs": [
        {
          "indexed": true,
          "internalType": "uint256",
          "name": "escrowId",
          "type": "uint256"
        },
        {
          "indexed": true,
          "internalType": "address",
          "name": "canceller",
          "type": "address"
        }
      ],
      "name": "EscrowCancelled",
      "type": "event"
    },
    {
      "anonymous": false,
      "inputs": [
        {
          "indexed": true,
          "internalType": "uint256",
          "name": "escrowId",
          "type": "uint256"
        },
        {
          "indexed": true,
          "internalType": "address",
          "name": "buyer",
          "type": "address"
        },
        {
          "indexed": true,
          "internalType": "address",
          "name": "seller",
          "type": "address"
        },
        {
          "indexed": false,
          "internalType": "uint256",
          "name": "depositAmount",
          "type": "uint256"
        }
      ],
      "name": "EscrowCreated",
      "type": "event"
    },
    {
      "anonymous": false,
      "inputs": [
        {
          "indexed": true,
          "internalType": "uint256",
          "name": "escrowId",
          "type": "uint256"
        },
        {
          "indexed": true,
          "internalType": "address",
          "name": "buyer",
          "type": "address"
        },
        {
          "indexed": false,
          "internalType": "uint256",
          "name": "amount",
          "type": "uint256"
        }
      ],
      "name": "FundsDeposited",
      "type": "event"
    },
    {
      "anonymous": false,
      "inputs": [
        {
          "indexed": true,
          "internalType": "uint256",
          "name": "escrowId",
          "type": "uint256"
        },
        {
          "indexed": true,
          "internalType": "address",
          "name": "buyer",
          "type": "address"
        },
        {
          "indexed": false,
          "internalType": "uint256",
          "name": "amount",
          "type": "uint256"
        }
      ],
      "name": "FundsRefunded",
      "type": "event"
    },
    {
      "anonymous": false,
      "inputs": [
        {
          "indexed": true,
          "internalType": "uint256",
          "name": "escrowId",
          "type": "uint256"
        },
        {
          "indexed": true,
          "internalType": "address",
          "name": "seller",
          "type": "address"
        },
        {
          "indexed": false,
          "internalType": "uint256",
          "name": "amount",
          "type": "uint256"
        }
      ],
      "name": "FundsReleased",
      "type": "event"
    },
    {
      "anonymous": false,
      "inputs": [
        {
          "indexed": false,
          "internalType": "address",
          "name": "account",
          "type": "address"
        }
      ],
      "name": "Paused",
      "type": "event"
    },
    {
      "anonymous": false,
      "inputs": [
        {
          "indexed": true,
          "internalType": "bytes32",
          "name": "role",
          "type": "bytes32"
        },
        {
          "indexed": true,
          "internalType": "bytes32",
          "name": "previousAdminRole",
          "type": "bytes32"
        },
        {
          "indexed": true,
          "internalType": "bytes32",
          "name": "newAdminRole",
          "type": "bytes32"
        }
      ],
      "name": "RoleAdminChanged",
      "type": "event"
    },
    {
      "anonymous": false,
      "inputs": [
        {
          "indexed": true,
          "internalType": "bytes32",
          "name": "role",
          "type": "bytes32"
        },
        {
          "indexed": true,
          "internalType": "address",
          "name": "account",
          "type": "address"
        },
        {
          "indexed": true,
          "internalType": "address",
          "name": "sender",
          "type": "address"
        }
      ],
      "name": "RoleGranted",
      "type": "event"
    },
    {
      "anonymous": false,
      "inputs": [
        {
          "indexed": true,
          "internalType": "bytes32",
          "name": "role",
          "type": "bytes32"
        },
        {
          "indexed": true,
          "internalType": "address",
          "name": "account",
          "type": "address"
        },
        {
          "indexed": true,
          "internalType": "address",
          "name": "sender",
          "type": "address"
        }
      ],
      "name": "RoleRevoked",
      "type": "event"
    },
    {
      "anonymous": false,
      "inputs": [
        {
          "indexed": false,
          "internalType": "address",
          "name": "account",
          "type": "address"
        }
      ],
      "name": "Unpaused",
      "type": "event"
    },
    {
      "anonymous": false,
      "inputs": [
        {
          "indexed": true,
          "internalType": "uint256",
          "name": "escrowId",
          "type": "uint256"
        },
        {
          "indexed": true,
          "internalType": "address",
          "name": "verifier",
          "type": "address"
        }
      ],
      "name": "VerificationCompleted",
      "type": "event"
    },
    {
      "inputs": [],
      "name": "ADMIN_ROLE",
      "outputs": [
        {
          "internalType": "bytes32",
          "name": "",
          "type": "bytes32"
        }
      ],
      "stateMutability": "view",
      "type": "function"
    },
    {
      "inputs": [],
      "name": "AGENT_ROLE",
      "outputs": [
        {
          "internalType": "bytes32",
          "name": "",
          "type": "bytes32"
        }
      ],
      "stateMutability": "view",
      "type": "function"
    },
    {
      "inputs": [],
      "name": "ARBITER_ROLE",
      "outputs": [
        {
          "internalType": "bytes32",
          "name": "",
          "type": "bytes32"
        }
      ],
      "stateMutability": "view",
      "type": "function"
    },
    {
      "inputs": [],
      "name": "BASIS_POINTS",
      "outputs": [
        {
          "internalType": "uint256",
          "name": "",
          "type": "uint256"
        }
      ],
      "stateMutability": "view",
      "type": "function"
    },
    {
      "inputs": [],
      "name": "DEFAULT_ADMIN_ROLE",
      "outputs": [
        {
          "internalType": "bytes32",
          "name": "",
          "type": "bytes32"
        }
      ],
      "stateMutability": "view",
      "type": "function"
    },
    {
      "inputs": [],
      "name": "MAX_PLATFORM_FEE",
      "outputs": [
        {
          "internalType": "uint256",
          "name": "",
          "type": "uint256"
        }
      ],
      "stateMutability": "view",
      "type": "function"
    },
    {
      "inputs": [],
      "name": "approveRelease",
      "outputs": [],
      "stateMutability": "nonpayable",
      "type": "function"
    },
    {
      "inputs": [
        {
          "internalType": "uint256",
          "name": "escrowId",
          "type": "uint256"
        }
      ],
      "name": "canReleaseFunds",
      "outputs": [
        {
          "internalType": "bool",
          "name": "",
          "type": "bool"
        }
      ],
      "stateMutability": "view",
      "type": "function"
    },
    {
      "inputs": [
        {
          "internalType": "uint256",
          "name": "escrowId",
          "type": "uint256"
        }
      ],
      "name": "cancelEscrow",
      "outputs": [],
      "stateMutability": "nonpayable",
      "type": "function"
    },
    {
      "inputs": [
        {
          "internalType": "uint256",
          "name": "escrowId",
          "type": "uint256"
        }
      ],
      "name": "completeVerification",
      "outputs": [],
      "stateMutability": "nonpayable",
      "type": "function"
    },
    {
      "inputs": [
        {
          "components": [
            {
              "internalType": "address",
              "name": "buyer",
              "type": "address"
            },
            {
              "internalType": "address",
              "name": "seller",
              "type": "address"
            },
            {
              "internalType": "address",
              "name": "agent",
              "type": "address"
            },
            {
              "internalType": "address",
              "name": "arbiter",
              "type": "address"
            },
            {
              "internalType": "address",
              "name": "tokenAddress",
              "type": "address"
            },
            {
              "internalType": "uint256",
              "name": "depositAmount",
              "type": "uint256"
            },
            {
              "internalType": "uint256",
              "name": "agentFee",
              "type": "uint256"
            },
            {
              "internalType": "uint256",
              "name": "platformFee",
              "type": "uint256"
            },
            {
              "components": [
                {
                  "internalType": "string",
                  "name": "propertyId",
                  "type": "string"
                },
                {
                  "internalType": "string",
                  "name": "description",
                  "type": "string"
                },
                {
                  "internalType": "uint256",
                  "name": "salePrice",
                  "type": "uint256"
                },
                {
                  "internalType": "string",
                  "name": "documentHash",
                  "type": "string"
                },
                {
                  "internalType": "bool",
                  "name": "verified",
                  "type": "bool"
                }
              ],
              "internalType": "struct EscrowStructs.Property",
              "name": "property",
              "type": "tuple"
            },
            {
              "internalType": "uint256",
              "name": "depositDeadline",
              "type": "uint256"
            },
            {
              "internalType": "uint256",
              "name": "verificationDeadline",
              "type": "uint256"
            }
          ],
          "internalType": "struct EscrowStructs.CreateEscrowParams",
          "name": "params",
          "type": "tuple"
        }
      ],
      "name": "createEscrow",
      "outputs": [
        {
          "internalType": "uint256",
          "name": "",
          "type": "uint256"
        }
      ],
      "stateMutability": "nonpayable",
      "type": "function"
    },
    {
      "inputs": [
        {
          "internalType": "uint256",
          "name": "escrowId",
          "type": "uint256"
        }
      ],
      "name": "depositFunds",
      "outputs": [],
      "stateMutability": "nonpayable",
      "type": "function"
    },
    {
      "inputs": [
        {
          "internalType": "address",
          "name": "token",
          "type": "address"
        },
        {
          "internalType": "uint256",
          "name": "amount",
          "type": "uint256"
        }
      ],
      "name": "emergencyTokenRecovery",
      "outputs": [],
      "stateMutability": "nonpayable",
      "type": "function"
    },
    {
      "inputs": [
        {
          "internalType": "uint256",
          "name": "escrowId",
          "type": "uint256"
        }
      ],
      "name": "getEscrow",
      "outputs": [
        {
          "components": [
            {
              "internalType": "uint256",
              "name": "id",
              "type": "uint256"
            },
            {
              "internalType": "address",
              "name": "buyer",
              "type": "address"
            },
            {
              "internalType": "address",
              "name": "seller",
              "type": "address"
            },
            {
              "internalType": "address",
              "name": "agent",
              "type": "address"
            },
            {
              "internalType": "address",
              "name": "arbiter",
              "type": "address"
            },
            {
              "internalType": "address",
              "name": "tokenAddress",
              "type": "address"
            },
            {
              "internalType": "uint256",
              "name": "depositAmount",
              "type": "uint256"
            },
            {
              "internalType": "uint256",
              "name": "agentFee",
              "type": "uint256"
            },
            {
              "internalType": "uint256",
              "name": "platformFee",
              "type": "uint256"
            },
            {
              "internalType": "enum EscrowStructs.EscrowState",
              "name": "state",
              "type": "uint8"
            },
            {
              "components": [
                {
                  "internalType": "string",
                  "name": "propertyId",
                  "type": "string"
                },
                {
                  "internalType": "string",
                  "name": "description",
                  "type": "string"
                },
                {
                  "internalType": "uint256",
                  "name": "salePrice",
                  "type": "uint256"
                },
                {
                  "internalType": "string",
                  "name": "documentHash",
                  "type": "string"
                },
                {
                  "internalType": "bool",
                  "name": "verified",
                  "type": "bool"
                }
              ],
              "internalType": "struct EscrowStructs.Property",
              "name": "property",
              "type": "tuple"
            },
            {
              "internalType": "uint256",
              "name": "createdAt",
              "type": "uint256"
            },
            {
              "internalType": "uint256",
              "name": "depositDeadline",
              "type": "uint256"
            },
            {
              "internalType": "uint256",
              "name": "verificationDeadline",
              "type": "uint256"
            },
            {
              "internalType": "bool",
              "name": "buyerApproval",
              "type": "bool"
            },
            {
              "internalType": "bool",
              "name": "sellerApproval",
              "type": "bool"
            },
            {
              "internalType": "bool",
              "name": "agentApproval",
              "type": "bool"
            },
            {
              "internalType": "string",
              "name": "disputeReason",
              "type": "string"
            }
          ],
          "internalType": "struct EscrowStructs.Escrow",
          "name": "",
          "type": "tuple"
        }
      ],
      "stateMutability": "view",
      "type": "function"
    },
    {
      "inputs": [
        {
          "internalType": "uint256",
          "name": "escrowId",
          "type": "uint256"
        }
      ],
      "name": "getEscrowState",
      "outputs": [
        {
          "internalType": "enum EscrowStructs.EscrowState",
          "name": "",
          "type": "uint8"
        }
      ],
      "stateMutability": "view",
      "type": "function"
    },
    {
      "inputs": [
        {
          "internalType": "bytes32",
          "name": "role",
          "type": "bytes32"
        }
      ],
      "name": "getRoleAdmin",
      "outputs": [
        {
          "internalType": "bytes32",
          "name": "",
          "type": "bytes32"
        }
      ],
      "stateMutability": "view",
      "type": "function"
    },
    {
      "inputs": [],
      "name": "getTotalEscrows",
      "outputs": [
        {
          "internalType": "uint256",
          "name": "",
          "type": "uint256"
        }
      ],
      "stateMutability": "view",
      "type": "function"
    },
    {
      "inputs": [
        {
          "internalType": "uint256",
          "name": "escrowId",
          "type": "uint256"
        }
      ],
      "name": "giveApproval",
      "outputs": [],
      "stateMutability": "nonpayable",
      "type": "function"
    },
    {
      "inputs": [
        {
          "internalType": "bytes32",
          "name": "role",
          "type": "bytes32"
        },
        {
          "internalType": "address",
          "name": "account",
          "type": "address"
        }
      ],
      "name": "grantRole",
      "outputs": [],
      "stateMutability": "nonpayable",
      "type": "function"
    },
    {
      "inputs": [
        {
          "internalType": "bytes32",
          "name": "role",
          "type": "bytes32"
        },
        {
          "internalType": "address",
          "name": "account",
          "type": "address"
        }
      ],
      "name": "hasRole",
      "outputs": [
        {
          "internalType": "bool",
          "name": "",
          "type": "bool"
        }
      ],
      "stateMutability": "view",
      "type": "function"
    },
    {
      "inputs": [],
      "name": "pause",
      "outputs": [],
      "stateMutability": "nonpayable",
      "type": "function"
    },
    {
      "inputs": [],
      "name": "paused",
      "outputs": [
        {
          "internalType": "bool",
          "name": "",
          "type": "bool"
        }
      ],
      "stateMutability": "view",
      "type": "function"
    },
    {
      "inputs": [],
      "name": "platformFeePercentage",
      "outputs": [
        {
          "internalType": "uint256",
          "name": "",
          "type": "uint256"
        }
      ],
      "stateMutability": "view",
      "type": "function"
    },
    {
      "inputs": [],
      "name": "platformWallet",
      "outputs": [
        {
          "internalType": "address",
          "name": "",
          "type": "address"
        }
      ],
      "stateMutability": "view",
      "type": "function"
    },
    {
      "inputs": [
        {
          "internalType": "uint256",
          "name": "escrowId",
          "type": "uint256"
        },
        {
          "internalType": "string",
          "name": "reason",
          "type": "string"
        }
      ],
      "name": "raiseDispute",
      "outputs": [],
      "stateMutability": "nonpayable",
      "type": "function"
    },
    {
      "inputs": [
        {
          "internalType": "uint256",
          "name": "escrowId",
          "type": "uint256"
        }
      ],
      "name": "refundBuyer",
      "outputs": [],
      "stateMutability": "nonpayable",
      "type": "function"
    },
    {
      "inputs": [
        {
          "internalType": "uint256",
          "name": "escrowId",
          "type": "uint256"
        }
      ],
      "name": "releaseFunds",
      "outputs": [],
      "stateMutability": "nonpayable",
      "type": "function"
    },
    {
      "inputs": [
        {
          "internalType": "bytes32",
          "name": "role",
          "type": "bytes32"
        },
        {
          "internalType": "address",
          "name": "account",
          "type": "address"
        }
      ],
      "name": "renounceRole",
      "outputs": [],
      "stateMutability": "nonpayable",
      "type": "function"
    },
    {
      "inputs": [
        {
          "internalType": "uint256",
          "name": "escrowId",
          "type": "uint256"
        },
        {
          "internalType": "bool",
          "name": "favorBuyer",
          "type": "bool"
        },
        {
          "internalType": "string",
          "name": "resolution",
          "type": "string"
        }
      ],
      "name": "resolveDispute",
      "outputs": [],
      "stateMutability": "nonpayable",
      "type": "function"
    },
    {
      "inputs": [
        {
          "internalType": "bytes32",
          "name": "role",
          "type": "bytes32"
        },
        {
          "internalType": "address",
          "name": "account",
          "type": "address"
        }
      ],
      "name": "revokeRole",
      "outputs": [],
      "stateMutability": "nonpayable",
      "type": "function"
    },
    {
      "inputs": [
        {
          "internalType": "uint256",
          "name": "fee",
          "type": "uint256"
        }
      ],
      "name": "setPlatformFee",
      "outputs": [],
      "stateMutability": "nonpayable",
      "type": "function"
    },
    {
      "inputs": [
        {
          "internalType": "bytes4",
          "name": "interfaceId",
          "type": "bytes4"
        }
      ],
      "name": "supportsInterface",
      "outputs": [
        {
          "internalType": "bool",
          "name": "",
          "type": "bool"
        }
      ],
      "stateMutability": "view",
      "type": "function"
    },
    {
      "inputs": [],
      "name": "unpause",
      "outputs": [],
      "stateMutability": "nonpayable",
      "type": "function"
    },
    {
      "inputs": [
        {
          "internalType": "address",
          "name": "token",
          "type": "address"
        },
        {
          "internalType": "bool",
          "name": "whitelisted",
          "type": "bool"
        }
      ],
      "name": "whitelistToken",
      "outputs": [],
      "stateMutability": "nonpayable",
      "type": "function"
    },
    {
      "inputs": [
        {
          "internalType": "address",
          "name": "",
          "type": "address"
        }
      ],
      "name": "whitelistedTokens",
      "outputs": [
        {
          "internalType": "bool",
          "name": "",
          "type": "bool"
        }
      ],
      "stateMutability": "view",
      "type": "function"
    }
  ],
  "bytecode": "0x60806040523480156200001157600080fd5b5060405162004455380380620044558339810160408190526200003491620001f9565b60016000819055805460ff191690556001600160a01b0382166200009f5760405162461bcd60e51b815260206004820152601760248201527f496e76616c696420706c6174666f726d2077616c6c657400000000000000000060448201526064015b60405180910390fd5b6101f4811115620000f35760405162461bcd60e51b815260206004820152601560248201527f506c6174666f726d2066656520746f6f20686967680000000000000000000000604482015260640162000096565b600880546001600160a01b0319166001600160a01b03841617905560078190556200012060003362000154565b6200014c7fa49807205ce4d355092ef5a8a18f56e8913cf4a201fbe287825b095693c217753362000154565b505062000235565b60008281526002602090815260408083206001600160a01b038516845290915290205460ff16620001f55760008281526002602090815260408083206001600160a01b03851684529091529020805460ff19166001179055620001b43390565b6001600160a01b0316816001600160a01b0316837f2f8788117e7eff1d82e926ec794901d17c78024a50270940304540a733656f0d60405160405180910390a45b5050565b600080604083850312156200020d57600080fd5b82516001600160a01b03811681146200022557600080fd5b6020939093015192949293505050565b61421080620002456000396000f3fe608060405234801561001057600080fd5b50600436106102115760003560e01c80634d104adf11610125578063a217fddf116100ad578063d547741f1161007c578063d547741f14610476578063daf9c21014610489578063e0182436146104ac578063e1f1c4a7146104bf578063fa2af9da146104c857600080fd5b8063a217fddf1461043f578063b138821e14610447578063b49b0cb31461045a578063cdd78cfc1461046d57600080fd5b806375b238fc116100f457806375b238fc146103dc5780637d19e596146103f15780638456cb591461041157806391d14854146104195780639d5e05511461042c57600080fd5b80634d104adf146103845780634d68282f146103ab5780635aef573c146103be5780635c975abb146103d157600080fd5b80632f2ff15d116101a85780633a49995b116101775780633a49995b1461032e5780633b76594d1461034e5780633f4ba83a146103615780633f4dbda21461036957806346b6cfd31461037157600080fd5b80632f2ff15d146102ec57806336568abe146102ff57806339292763146103125780633998a6811461032557600080fd5b80631e31a6dd116101e45780631e31a6dd1461027957806322459e1814610281578063248a9ca3146102b65780632840662d146102d957600080fd5b806301ffc9a71461021657806308b88af11461023e5780630ffb1d8b1461025157806312e8e2c314610266575b600080fd5b61022961022436600461374e565b6104f3565b60405190151581526020015b60405180910390f35b61022961024c366004613778565b61052a565b61026461025f3660046137b6565b610963565b005b610264610274366004613778565b6109a7565b610264610a06565b6102a87fcab5a0bfe0b79d2c4b1c2e02599fa044d115b7511f9659307cb427695096770981565b604051908152602001610235565b6102a86102c4366004613778565b60009081526002602052604090206001015490565b6102646102e7366004613836565b610c5c565b6102646102fa366004613892565b610e36565b61026461030d366004613892565b610e60565b610264610320366004613778565b610ede565b6102a86101f481565b61034161033c366004613778565b610f83565b60405161023591906138e8565b61026461035c366004613778565b610fc1565b61026461116d565b6006546102a8565b61026461037f366004613778565b61118d565b6102a87fbb08418a67729a078f87bbc8d02a770929bb68f5bfdf134ae2ead6ed38e2f4ae81565b6102646103b9366004613778565b61133f565b6102646103cc3660046138f6565b611558565b60015460ff16610229565b6102a86000805160206141bb83398151915281565b6104046103ff366004613778565b611c65565b60405161023591906139fd565b610264612017565b610229610427366004613892565b612037565b6102a861043a366004613b5f565b612062565b6102a8600081565b610264610455366004613778565b6125f4565b610264610468366004613b9b565b612848565b6102a860075481565b610264610484366004613892565b612874565b610229610497366004613bc5565b60056020526000908152604090205460ff1681565b6102646104ba366004613778565b612899565b6102a861271081565b6008546104db906001600160a01b031681565b6040516001600160a01b039091168152602001610235565b60006001600160e01b03198216637965db0b60e01b148061052457506301ffc9a760e01b6001600160e01b03198316145b92915050565b60008160065481106105575760405162461bcd60e51b815260040161054e90613be0565b60405180910390fd5b60008381526003602081815260408084208151610240810183528154815260018201546001600160a01b039081169482019490945260028201548416928101929092529283015482166060820152600483015482166080820152600583015490911660a082015260068083015460c0830152600783015460e08301526008830154610100830152600983015491929161012084019160ff90911690811115610601576106016138be565b6006811115610612576106126138be565b8152602001600a82016040518060a001604052908160008201805461063690613c0b565b80601f016020809104026020016040519081016040528092919081815260200182805461066290613c0b565b80156106af5780601f10610684576101008083540402835291602001916106af565b820191906000526020600020905b81548152906001019060200180831161069257829003601f168201915b505050505081526020016001820180546106c890613c0b565b80601f01602080910402602001604051908101604052809291908181526020018280546106f490613c0b565b80156107415780601f1061071657610100808354040283529160200191610741565b820191906000526020600020905b81548152906001019060200180831161072457829003601f168201915b505050505081526020016002820154815260200160038201805461076490613c0b565b80601f016020809104026020016040519081016040528092919081815260200182805461079090613c0b565b80156107dd5780601f106107b2576101008083540402835291602001916107dd565b820191906000526020600020905b8154815290600101906020018083116107c057829003601f168201915b50505091835250506004919091015460ff9081161515602092830152918352600f84015490830152601083015460408301526011830154606083015260128301548082161515608084015261010081048216151560a084015262010000900416151560c082015260138201805460e09092019161085990613c0b565b80601f016020809104026020016040519081016040528092919081815260200182805461088590613c0b565b80156108d25780601f106108a7576101008083540402835291602001916108d2565b820191906000526020600020905b8154815290600101906020018083116108b557829003601f168201915b5050505050815250509050600260068111156108f0576108f06138be565b8161012001516006811115610907576109076138be565b14801561091a5750806101400151608001515b80156109285750806101c001515b80156109365750806101e001515b8015610959575060608101516001600160a01b0316158061095957508061020001515b9250505b50919050565b6000805160206141bb83398151915261097b81612dcf565b506001600160a01b03919091166000908152600560205260409020805460ff1916911515919091179055565b6000805160206141bb8339815191526109bf81612dcf565b6101f4821115610a005760405162461bcd60e51b815260206004820152600c60248201526b08ccaca40e8dede40d0d2ced60a31b604482015260640161054e565b50600755565b600080805260036020527f3617319a054d772f909f7c479a2cebe5066e836a939412e32403c99029b92f00547f3617319a054d772f909f7c479a2cebe5066e836a939412e32403c99029b92eff91906001600160a01b03163303610ac957601282015460ff1615610ab25760405162461bcd60e51b8152602060048201526016602482015275109d5e595c88185b1c9958591e48185c1c1c9bdd995960521b604482015260640161054e565b5060128101805460ff191660011790556000610c15565b60028201546001600160a01b03163303610b4a576012820154610100900460ff1615610b315760405162461bcd60e51b815260206004820152601760248201527614d95b1b195c88185b1c9958591e48185c1c1c9bdd9959604a1b604482015260640161054e565b5060128101805461ff0019166101001790556001610c15565b60038201546001600160a01b03163303610bcd57601282015462010000900460ff1615610bb25760405162461bcd60e51b81526020600482015260166024820152751059d95b9d08185b1c9958591e48185c1c1c9bdd995960521b604482015260640161054e565b5060128101805462ff00001916620100001790556002610c15565b60405162461bcd60e51b815260206004820152601960248201527f4e6f7420617574686f72697a656420746f20617070726f766500000000000000604482015260640161054e565b336001600160a01b031660007f8c76bb4d0d0276699b16a2e9464b50cad045b0200b9bc632ae3a5d57077fa26483604051610c509190613c3f565b60405180910390a35050565b610c64612dd9565b610c6c612e32565b836006548110610c8e5760405162461bcd60e51b815260040161054e90613be0565b8460048060008381526003602052604090206009015460ff166006811115610cb857610cb86138be565b14610cd55760405162461bcd60e51b815260040161054e90613c59565b600087815260036020526040902060048101546001600160a01b0316331480610d115750610d116000805160206141bb83398151915233612037565b610d675760405162461bcd60e51b815260206004820152602160248201527f4f6e6c792061726269746572206f722061646d696e2063616e207265736f6c766044820152606560f81b606482015260840161054e565b600088815260046020819052604090912060038101805433610100026001600160a81b0319909116176001179055908101610da3878983613d02565b508715610db857610db389612e7a565b610ddd565b60098201805460ff191660021790556012820180546201010162ffffff199091161790555b336001600160a01b0316897f7b71d2e00379bd165b2750d54298da2414376699827edca2bce2a096c491d2e98989604051610e19929190613dbd565b60405180910390a35050505050610e306001600055565b50505050565b600082815260026020526040902060010154610e5181612dcf565b610e5b8383612fb8565b505050565b6001600160a01b0381163314610ed05760405162461bcd60e51b815260206004820152602f60248201527f416363657373436f6e74726f6c3a2063616e206f6e6c792072656e6f756e636560448201526e103937b632b9903337b91039b2b63360891b606482015260840161054e565b610eda828261303e565b5050565b610ee6612dd9565b610eee612e32565b806006548110610f105760405162461bcd60e51b815260040161054e90613be0565b610f286000805160206141bb83398151915233612037565b610f6c5760405162461bcd60e51b815260206004820152601560248201527413db9b1e4818591b5a5b8818d85b881c99599d5b99605a1b604482015260640161054e565b610f7582612e7a565b50610f806001600055565b50565b6000816006548110610fa75760405162461bcd60e51b815260040161054e90613be0565b505060009081526003602052604090206009015460ff1690565b610fc9612dd9565b610fd1612e32565b806006548110610ff35760405162461bcd60e51b815260040161054e90613be0565b8160008060008381526003602052604090206009015460ff16600681111561101d5761101d6138be565b1461103a5760405162461bcd60e51b815260040161054e90613c59565b600084815260036020526040902060018101546001600160a01b0316331461109d5760405162461bcd60e51b815260206004820152601660248201527513db9b1e48189d5e595c8818d85b8819195c1bdcda5d60521b604482015260640161054e565b80601001544211156110f15760405162461bcd60e51b815260206004820152601760248201527f4465706f73697420646561646c696e6520706173736564000000000000000000604482015260640161054e565b60068101546005820154611114916001600160a01b0390911690339030906130a5565b60098101805460ff191660011790556006810154604051908152339086907fe030e47e27825a2ad1b19e4cf2e70bfbfb3124af275c7727a82b114ba7b29a859060200160405180910390a350505050610f806001600055565b6000805160206141bb83398151915261118581612dcf565b610f80613110565b611195612dd9565b61119d612e32565b8060065481106111bf5760405162461bcd60e51b815260040161054e90613be0565b8160018060008381526003602052604090206009015460ff1660068111156111e9576111e96138be565b146112065760405162461bcd60e51b815260040161054e90613c59565b6000848152600360208190526040909120908101546001600160a01b031633148061124457506112446000805160206141bb83398151915233612037565b6112905760405162461bcd60e51b815260206004820152601e60248201527f4f6e6c79206167656e74206f722061646d696e2063616e207665726966790000604482015260640161054e565b80601101544211156112e45760405162461bcd60e51b815260206004820152601c60248201527f566572696669636174696f6e20646561646c696e652070617373656400000000604482015260640161054e565b60098101805460ff19908116600217909155600e820180549091166001179055604051339086907f0229702661bd522f80cf22e71a80e376c2ac20ea2ecd8e680f1a8e8285738a1c90600090a350505050610f806001600055565b611347612dd9565b61134f612e32565b8060065481106113715760405162461bcd60e51b815260040161054e90613be0565b8160028060008381526003602052604090206009015460ff16600681111561139b5761139b6138be565b146113b85760405162461bcd60e51b815260040161054e90613c59565b6113c18461052a565b61140d5760405162461bcd60e51b815260206004820152601a60248201527f52656c6561736520636f6e646974696f6e73206e6f74206d6574000000000000604482015260640161054e565b6000848152600360205260408120600881015460068201549192916127109161143591613e02565b61143f9190613e19565b905060008260070154905060008183856006015461145d9190613e3b565b6114679190613e3b565b60098501805460ff1916600317905560058501549091506001600160a01b031683156114a7576008546114a7906001600160a01b03838116911686613162565b6000831180156114c3575060038501546001600160a01b031615155b156114e45760038501546114e4906001600160a01b03838116911685613162565b6002850154611500906001600160a01b03838116911684613162565b60028501546040518381526001600160a01b03909116908a907f6e3c6096795c8298a218b2cfb8bde42726ff7c9a3d27b4d3ba41ab7f74feb5fb9060200160405180910390a35050505050505050610f806001600055565b611560612dd9565b611568612e32565b82600654811061158a5760405162461bcd60e51b815260040161054e90613be0565b60008481526003602081815260408084208151610240810183528154815260018201546001600160a01b039081169482019490945260028201548416928101929092529283015482166060820152600483015482166080820152600583015490911660a082015260068083015460c0830152600783015460e0830152600883015461010083015260098301548894939161012084019160ff1690811115611633576116336138be565b6006811115611644576116446138be565b8152602001600a82016040518060a001604052908160008201805461166890613c0b565b80601f016020809104026020016040519081016040528092919081815260200182805461169490613c0b565b80156116e15780601f106116b6576101008083540402835291602001916116e1565b820191906000526020600020905b8154815290600101906020018083116116c457829003601f168201915b505050505081526020016001820180546116fa90613c0b565b80601f016020809104026020016040519081016040528092919081815260200182805461172690613c0b565b80156117735780601f1061174857610100808354040283529160200191611773565b820191906000526020600020905b81548152906001019060200180831161175657829003601f168201915b505050505081526020016002820154815260200160038201805461179690613c0b565b80601f01602080910402602001604051908101604052809291908181526020018280546117c290613c0b565b801561180f5780601f106117e45761010080835404028352916020019161180f565b820191906000526020600020905b8154815290600101906020018083116117f257829003601f168201915b50505091835250506004919091015460ff9081161515602092830152918352600f84015490830152601083015460408301526011830154606083015260128301548082161515608084015261010081048216151560a084015262010000900416151560c082015260138201805460e09092019161188b90613c0b565b80601f01602080910402602001604051908101604052809291908181526020018280546118b790613c0b565b80156119045780601f106118d957610100808354040283529160200191611904565b820191906000526020600020905b8154815290600101906020018083116118e757829003601f168201915b505050505081525050905080602001516001600160a01b0316336001600160a01b03161480611948575080604001516001600160a01b0316336001600160a01b0316145b80611968575080606001516001600160a01b0316336001600160a01b0316145b80611988575080608001516001600160a01b0316336001600160a01b0316145b806119a657506119a66000805160206141bb83398151915233612037565b6119f25760405162461bcd60e51b815260206004820152601e60248201527f4e6f7420617574686f72697a656420666f72207468697320657363726f770000604482015260640161054e565b60008681526003602052604090206001600982015460ff166006811115611a1b57611a1b6138be565b1480611a3f57506002600982015460ff166006811115611a3d57611a3d6138be565b145b611a8b5760405162461bcd60e51b815260206004820152601f60248201527f43616e6e6f74206469737075746520696e2063757272656e7420737461746500604482015260640161054e565b84611ad85760405162461bcd60e51b815260206004820152601760248201527f4469737075746520726561736f6e207265717569726564000000000000000000604482015260640161054e565b60098101805460ff1916600417905560138101611af6868883613d02565b506040518060c00160405280336001600160a01b0316815260200187878080601f0160208091040260200160405190810160405280939291908181526020018383808284376000920182905250938552505042602080850191909152604080850184905260608501849052805180830182528481526080909501949094528b83526004815292909120835181546001600160a01b0319166001600160a01b0390911617815591830151600183019150611baf9082613e4e565b5060408201516002820155606082015160038201805460808501516001600160a01b031661010002610100600160a81b0319931515939093166001600160a81b03199091161791909117905560a08201516004820190611c0f9082613e4e565b50905050336001600160a01b0316877f1b84372106d77c6daea0dda35bbc0229d10a83f58ec8990928849251936823418888604051611c4f929190613dbd565b60405180910390a350505050610e5b6001600055565b611c6d613689565b816006548110611c8f5760405162461bcd60e51b815260040161054e90613be0565b6000838152600360208181526040928390208351610240810185528154815260018201546001600160a01b03908116938201939093526002820154831694810194909452918201548116606084015260048201548116608084015260058201541660a083015260068082015460c0840152600782015460e08401526008820154610100840152600982015461012084019160ff90911690811115611d3557611d356138be565b6006811115611d4657611d466138be565b8152602001600a82016040518060a0016040529081600082018054611d6a90613c0b565b80601f0160208091040260200160405190810160405280929190818152602001828054611d9690613c0b565b8015611de35780601f10611db857610100808354040283529160200191611de3565b820191906000526020600020905b815481529060010190602001808311611dc657829003601f168201915b50505050508152602001600182018054611dfc90613c0b565b80601f0160208091040260200160405190810160405280929190818152602001828054611e2890613c0b565b8015611e755780601f10611e4a57610100808354040283529160200191611e75565b820191906000526020600020905b815481529060010190602001808311611e5857829003601f168201915b5050505050815260200160028201548152602001600382018054611e9890613c0b565b80601f0160208091040260200160405190810160405280929190818152602001828054611ec490613c0b565b8015611f115780601f10611ee657610100808354040283529160200191611f11565b820191906000526020600020905b815481529060010190602001808311611ef457829003601f168201915b50505091835250506004919091015460ff9081161515602092830152918352600f84015490830152601083015460408301526011830154606083015260128301548082161515608084015261010081048216151560a084015262010000900416151560c082015260138201805460e090920191611f8d90613c0b565b80601f0160208091040260200160405190810160405280929190818152602001828054611fb990613c0b565b80156120065780601f10611fdb57610100808354040283529160200191612006565b820191906000526020600020905b815481529060010190602001808311611fe957829003601f168201915b505050505081525050915050919050565b6000805160206141bb83398151915261202f81612dcf565b610f80613192565b60009182526002602090815260408084206001600160a01b0393909316845291905290205460ff1690565b600061206c612dd9565b612074612e32565b60006120836020840184613bc5565b6001600160a01b0316036120d15760405162461bcd60e51b8152602060048201526015602482015274496e76616c6964206275796572206164647265737360581b604482015260640161054e565b60006120e36040840160208501613bc5565b6001600160a01b0316036121325760405162461bcd60e51b8152602060048201526016602482015275496e76616c69642073656c6c6572206164647265737360501b604482015260640161054e565b6121426040830160208401613bc5565b6001600160a01b03166121586020840184613bc5565b6001600160a01b0316036121b95760405162461bcd60e51b815260206004820152602260248201527f427579657220616e642073656c6c6572206d75737420626520646966666572656044820152611b9d60f21b606482015260840161054e565b60006121cb60a0840160808501613bc5565b6001600160a01b0316036122195760405162461bcd60e51b8152602060048201526015602482015274496e76616c696420746f6b656e206164647265737360581b604482015260640161054e565b6005600061222d60a0850160808601613bc5565b6001600160a01b0316815260208101919091526040016000205460ff1661228e5760405162461bcd60e51b8152602060048201526015602482015274151bdad95b881b9bdd081dda1a5d195b1a5cdd1959605a1b604482015260640161054e565b60008260a00135116122e25760405162461bcd60e51b815260206004820152601f60248201527f4465706f73697420616d6f756e74206d75737420626520706f73697469766500604482015260640161054e565b42826101200135116123365760405162461bcd60e51b815260206004820152601860248201527f496e76616c6964206465706f73697420646561646c696e650000000000000000604482015260640161054e565b8161012001358261014001351161238f5760405162461bcd60e51b815260206004820152601d60248201527f496e76616c696420766572696669636174696f6e20646561646c696e65000000604482015260640161054e565b600061239f610100840184613f08565b6123a99080613f28565b9050116123ef5760405162461bcd60e51b8152602060048201526014602482015273141c9bdc195c9d1e481251081c995c5d5a5c995960621b604482015260640161054e565b600680546000918261240083613f6f565b90915550600081815260036020908152604090912082815591925061242790850185613bc5565b6001820180546001600160a01b0319166001600160a01b03929092169190911790556124596040850160208601613bc5565b6002820180546001600160a01b0319166001600160a01b039290921691909117905561248b6060850160408601613bc5565b6003820180546001600160a01b0319166001600160a01b03929092169190911790556124bd6080850160608601613bc5565b6004820180546001600160a01b0319166001600160a01b03929092169190911790556124ef60a0850160808601613bc5565b6005820180546001600160a01b0319166001600160a01b039290921691909117905560a0840135600682015560c0840135600782015560e0840135600882015560098101805460ff19169055612549610100850185613f08565b600a82016125578282613f95565b505042600f820155610120840135601082015561014084013560118201556125856040850160208601613bc5565b6001600160a01b031661259b6020860186613bc5565b6001600160a01b0316837f9405ad0a6208539879349284d71265479b1623846f70303da1f9890d6e8c10a78760a001356040516125da91815260200190565b60405180910390a45090506125ef6001600055565b919050565b6125fc612dd9565b612604612e32565b8060065481106126265760405162461bcd60e51b815260040161054e90613be0565b8160028060008381526003602052604090206009015460ff166006811115612650576126506138be565b1461266d5760405162461bcd60e51b815260040161054e90613c59565b600084815260036020526040812060018101549091906001600160a01b031633036126f757601282015460ff16156126e05760405162461bcd60e51b8152602060048201526016602482015275109d5e595c88185b1c9958591e48185c1c1c9bdd995960521b604482015260640161054e565b5060128101805460ff1916600117905560006127f7565b60028201546001600160a01b03163303612778576012820154610100900460ff161561275f5760405162461bcd60e51b815260206004820152601760248201527614d95b1b195c88185b1c9958591e48185c1c1c9bdd9959604a1b604482015260640161054e565b5060128101805461ff00191661010017905560016127f7565b60038201546001600160a01b03163303610bcd57601282015462010000900460ff16156127e05760405162461bcd60e51b81526020600482015260166024820152751059d95b9d08185b1c9958591e48185c1c1c9bdd995960521b604482015260640161054e565b5060128101805462ff000019166201000017905560025b336001600160a01b0316867f8c76bb4d0d0276699b16a2e9464b50cad045b0200b9bc632ae3a5d57077fa264836040516128319190613c3f565b60405180910390a35050505050610f806001600055565b6000805160206141bb83398151915261286081612dcf565b610e5b6001600160a01b0384163384613162565b60008281526002602052604090206001015461288f81612dcf565b610e5b838361303e565b6128a1612dd9565b6128a9612e32565b8060065481106128cb5760405162461bcd60e51b815260040161054e90613be0565b8160008060008381526003602052604090206009015460ff1660068111156128f5576128f56138be565b146129125760405162461bcd60e51b815260040161054e90613c59565b60008481526003602081815260408084208151610240810183528154815260018201546001600160a01b039081169482019490945260028201548416928101929092529283015482166060820152600483015482166080820152600583015490911660a082015260068083015460c0830152600783015460e0830152600883015461010083015260098301548894939161012084019160ff16908111156129bb576129bb6138be565b60068111156129cc576129cc6138be565b8152602001600a82016040518060a00160405290816000820180546129f090613c0b565b80601f0160208091040260200160405190810160405280929190818152602001828054612a1c90613c0b565b8015612a695780601f10612a3e57610100808354040283529160200191612a69565b820191906000526020600020905b815481529060010190602001808311612a4c57829003601f168201915b50505050508152602001600182018054612a8290613c0b565b80601f0160208091040260200160405190810160405280929190818152602001828054612aae90613c0b565b8015612afb5780601f10612ad057610100808354040283529160200191612afb565b820191906000526020600020905b815481529060010190602001808311612ade57829003601f168201915b5050505050815260200160028201548152602001600382018054612b1e90613c0b565b80601f0160208091040260200160405190810160405280929190818152602001828054612b4a90613c0b565b8015612b975780601f10612b6c57610100808354040283529160200191612b97565b820191906000526020600020905b815481529060010190602001808311612b7a57829003601f168201915b50505091835250506004919091015460ff9081161515602092830152918352600f84015490830152601083015460408301526011830154606083015260128301548082161515608084015261010081048216151560a084015262010000900416151560c082015260138201805460e090920191612c1390613c0b565b80601f0160208091040260200160405190810160405280929190818152602001828054612c3f90613c0b565b8015612c8c5780601f10612c6157610100808354040283529160200191612c8c565b820191906000526020600020905b815481529060010190602001808311612c6f57829003601f168201915b505050505081525050905080602001516001600160a01b0316336001600160a01b03161480612cd0575080604001516001600160a01b0316336001600160a01b0316145b80612cf0575080606001516001600160a01b0316336001600160a01b0316145b80612d10575080608001516001600160a01b0316336001600160a01b0316145b80612d2e5750612d2e6000805160206141bb83398151915233612037565b612d7a5760405162461bcd60e51b815260206004820152601e60248201527f4e6f7420617574686f72697a656420666f72207468697320657363726f770000604482015260640161054e565b600086815260036020526040808220600901805460ff1916600617905551339188917f6f44c80719cb2f74bdbd68b7af10147acb9b52e2675ad02f9c87f098599599389190a35050505050610f806001600055565b610f8081336131cd565b600260005403612e2b5760405162461bcd60e51b815260206004820152601f60248201527f5265656e7472616e637947756172643a207265656e7472616e742063616c6c00604482015260640161054e565b6002600055565b60015460ff1615612e785760405162461bcd60e51b815260206004820152601060248201526f14185d5cd8589b194e881c185d5cd95960821b604482015260640161054e565b565b60008181526003602052604090206001600982015460ff166006811115612ea357612ea36138be565b1480612ec757506004600982015460ff166006811115612ec557612ec56138be565b145b80612eea57506002600982015460ff166006811115612ee857612ee86138be565b145b612f365760405162461bcd60e51b815260206004820152601e60248201527f43616e6e6f7420726566756e6420696e2063757272656e742073746174650000604482015260640161054e565b60098101805460ff191660059081179091556001820154600683015491830154612f70926001600160a01b03918216929190911690613162565b600181015460068201546040519081526001600160a01b039091169083907f80b577b4fc190ab86d963549e29f496afd079c5d81a2480d61217d4b5060a28c90602001610c50565b612fc28282612037565b610eda5760008281526002602090815260408083206001600160a01b03851684529091529020805460ff19166001179055612ffa3390565b6001600160a01b0316816001600160a01b0316837f2f8788117e7eff1d82e926ec794901d17c78024a50270940304540a733656f0d60405160405180910390a45050565b6130488282612037565b15610eda5760008281526002602090815260408083206001600160a01b0385168085529252808320805460ff1916905551339285917ff6391f5c32d9c69d2a47ea670b442974b53935d1edc7fd64eb21e047a839171b9190a45050565b6040516001600160a01b0380851660248301528316604482015260648101829052610e309085906323b872dd60e01b906084015b60408051601f198184030181529190526020810180516001600160e01b03166001600160e01b031990931692909217909152613226565b6131186132fb565b6001805460ff191690557f5db9ee0a495bf2e6ff9c91a7834c1ba4fdd244a5e8aa4e537bd38aeae4b073aa335b6040516001600160a01b03909116815260200160405180910390a1565b6040516001600160a01b038316602482015260448101829052610e5b90849063a9059cbb60e01b906064016130d9565b61319a612e32565b6001805460ff1916811790557f62e78cea01bee320cd4e420270b5ea74000d11b0c9f74754ebdbfc544b05a25833613145565b6131d78282612037565b610eda576131e481613344565b6131ef836020613356565b6040516020016132009291906140c3565b60408051601f198184030181529082905262461bcd60e51b825261054e91600401614138565b600061327b826040518060400160405280602081526020017f5361666545524332303a206c6f772d6c6576656c2063616c6c206661696c6564815250856001600160a01b03166134f99092919063ffffffff16565b905080516000148061329c57508080602001905181019061329c919061414b565b610e5b5760405162461bcd60e51b815260206004820152602a60248201527f5361666545524332303a204552433230206f7065726174696f6e20646964206e6044820152691bdd081cdd58d8d9595960b21b606482015260840161054e565b60015460ff16612e785760405162461bcd60e51b815260206004820152601460248201527314185d5cd8589b194e881b9bdd081c185d5cd95960621b604482015260640161054e565b60606105246001600160a01b03831660145b60606000613365836002613e02565b613370906002614168565b67ffffffffffffffff81111561338857613388613c87565b6040519080825280601f01601f1916602001820160405280156133b2576020820181803683370190505b509050600360fc1b816000815181106133cd576133cd61417b565b60200101906001600160f81b031916908160001a905350600f60fb1b816001815181106133fc576133fc61417b565b60200101906001600160f81b031916908160001a9053506000613420846002613e02565b61342b906001614168565b90505b60018111156134a3576f181899199a1a9b1b9c1cb0b131b232b360811b85600f166010811061345f5761345f61417b565b1a60f81b8282815181106134755761347561417b565b60200101906001600160f81b031916908160001a90535060049490941c9361349c81614191565b905061342e565b5083156134f25760405162461bcd60e51b815260206004820181905260248201527f537472696e67733a20686578206c656e67746820696e73756666696369656e74604482015260640161054e565b9392505050565b60606135088484600085613510565b949350505050565b6060824710156135715760405162461bcd60e51b815260206004820152602660248201527f416464726573733a20696e73756666696369656e742062616c616e636520666f6044820152651c8818d85b1b60d21b606482015260840161054e565b600080866001600160a01b0316858760405161358d91906141a8565b60006040518083038185875af1925050503d80600081146135ca576040519150601f19603f3d011682016040523d82523d6000602084013e6135cf565b606091505b50915091506135e0878383876135eb565b979650505050505050565b6060831561365a578251600003613653576001600160a01b0385163b6136535760405162461bcd60e51b815260206004820152601d60248201527f416464726573733a2063616c6c20746f206e6f6e2d636f6e7472616374000000604482015260640161054e565b5081613508565b613508838381511561366f5781518083602001fd5b8060405162461bcd60e51b815260040161054e9190614138565b6040805161024081018252600080825260208201819052918101829052606081018290526080810182905260a0810182905260c0810182905260e0810182905261010081018290529061012082019081526020016137116040518060a00160405280606081526020016060815260200160008152602001606081526020016000151581525090565b8152602001600081526020016000815260200160008152602001600015158152602001600015158152602001600015158152602001606081525090565b60006020828403121561376057600080fd5b81356001600160e01b0319811681146134f257600080fd5b60006020828403121561378a57600080fd5b5035919050565b80356001600160a01b03811681146125ef57600080fd5b8015158114610f8057600080fd5b600080604083850312156137c957600080fd5b6137d283613791565b915060208301356137e2816137a8565b809150509250929050565b60008083601f8401126137ff57600080fd5b50813567ffffffffffffffff81111561381757600080fd5b60208301915083602082850101111561382f57600080fd5b9250929050565b6000806000806060858703121561384c57600080fd5b84359350602085013561385e816137a8565b9250604085013567ffffffffffffffff81111561387a57600080fd5b613886878288016137ed565b95989497509550505050565b600080604083850312156138a557600080fd5b823591506138b560208401613791565b90509250929050565b634e487b7160e01b600052602160045260246000fd5b600781106138e4576138e46138be565b9052565b6020810161052482846138d4565b60008060006040848603121561390b57600080fd5b83359250602084013567ffffffffffffffff81111561392957600080fd5b613935868287016137ed565b9497909650939450505050565b60005b8381101561395d578181015183820152602001613945565b50506000910152565b6000815180845261397e816020860160208601613942565b601f01601f19169290920160200192915050565b6000815160a084526139a760a0850182613966565b9050602083015184820360208601526139c08282613966565b91505060408301516040850152606083015184820360608601526139e48282613966565b9150506080830151151560808501528091505092915050565b602081528151602082015260006020830151613a2460408401826001600160a01b03169052565b5060408301516001600160a01b03811660608401525060608301516001600160a01b03811660808401525060808301516001600160a01b03811660a08401525060a08301516001600160a01b03811660c08401525060c083015160e0838101919091528301516101008084019190915283015161012080840191909152830151610140613ab3818501836138d4565b808501519150506102406101608181860152613ad3610260860184613992565b90860151610180868101919091528601516101a0808701919091528601516101c0808701919091528601519092506101e0613b118187018315159052565b8601519050610200613b268682018315159052565b8601519050610220613b3b8682018315159052565b860151858403601f1901838701529050613b558382613966565b9695505050505050565b600060208284031215613b7157600080fd5b813567ffffffffffffffff811115613b8857600080fd5b820161016081850312156134f257600080fd5b60008060408385031215613bae57600080fd5b613bb783613791565b946020939093013593505050565b600060208284031215613bd757600080fd5b6134f282613791565b602080825260119082015270125b9d985b1a5908195cd8dc9bddc81251607a1b604082015260600190565b600181811c90821680613c1f57607f821691505b60208210810361095d57634e487b7160e01b600052602260045260246000fd5b6020810160058310613c5357613c536138be565b91905290565b602080825260149082015273496e76616c696420657363726f7720737461746560601b604082015260600190565b634e487b7160e01b600052604160045260246000fd5b601f821115610e5b576000816000526020600020601f850160051c81016020861015613cc65750805b601f850160051c820191505b81811015613ce557828155600101613cd2565b505050505050565b600019600383901b1c191660019190911b1790565b67ffffffffffffffff831115613d1a57613d1a613c87565b613d2e83613d288354613c0b565b83613c9d565b6000601f841160018114613d5c5760008515613d4a5750838201355b613d548682613ced565b845550613db6565b600083815260209020601f19861690835b82811015613d8d5786850135825560209485019460019092019101613d6d565b5086821015613daa5760001960f88860031b161c19848701351681555b505060018560011b0183555b5050505050565b60208152816020820152818360408301376000818301604090810191909152601f909201601f19160101919050565b634e487b7160e01b600052601160045260246000fd5b808202811582820484141761052457610524613dec565b600082613e3657634e487b7160e01b600052601260045260246000fd5b500490565b8181038181111561052457610524613dec565b815167ffffffffffffffff811115613e6857613e68613c87565b613e7c81613e768454613c0b565b84613c9d565b602080601f831160018114613eab5760008415613e995750858301515b613ea38582613ced565b865550613ce5565b600085815260208120601f198616915b82811015613eda57888601518255948401946001909101908401613ebb565b5085821015613ef85787850151600019600388901b60f8161c191681555b5050505050600190811b01905550565b60008235609e19833603018112613f1e57600080fd5b9190910192915050565b6000808335601e19843603018112613f3f57600080fd5b83018035915067ffffffffffffffff821115613f5a57600080fd5b60200191503681900382131561382f57600080fd5b600060018201613f8157613f81613dec565b5060010190565b60008135610524816137a8565b613f9f8283613f28565b67ffffffffffffffff811115613fb757613fb7613c87565b613fcb81613fc58554613c0b565b85613c9d565b6000601f821160018114613ff95760008315613fe75750838201355b613ff18482613ced565b865550614053565b600085815260209020601f19841690835b8281101561402a578685013582556020948501946001909201910161400a565b50848210156140475760001960f88660031b161c19848701351681555b505060018360011b0185555b505050506140646020830183613f28565b614072818360018601613d02565b50506040820135600282015561408b6060830183613f28565b614099818360038601613d02565b5050610eda6140aa60808401613f88565b6004830160ff1981541660ff8315151681178255505050565b7f416363657373436f6e74726f6c3a206163636f756e74200000000000000000008152600083516140fb816017850160208801613942565b7001034b99036b4b9b9b4b733903937b6329607d1b601791840191820152835161412c816028840160208801613942565b01602801949350505050565b6020815260006134f26020830184613966565b60006020828403121561415d57600080fd5b81516134f2816137a8565b8082018082111561052457610524613dec565b634e487b7160e01b600052603260045260246000fd5b6000816141a0576141a0613dec565b506000190190565b60008251613f1e81846020870161394256fea49807205ce4d355092ef5a8a18f56e8913cf4a201fbe287825b095693c21775a2646970667358221220cc8e145731531dddc326238ccc760e2c6ff5b6631d9c82c6a5fa45d017a7713964736f6c63430008160033",
  "linkReferences": {},
  "deployedLinkReferences": {}
}