{
  "_format": "hh-sol-artifact-1",
  "contractName": "EscrowFactory",
  "sourceName": "contracts/core/EscrowFactory.sol",
  "abi": [
    {
      "inputs": [
        {
          "internalType": "address",
          "name": "_platformWallet",
          "type": "address"
        },
        {
          "internalType": "uint256",
          "name": "_platformFee",
          "type": "uint256"
        },
        {
          "internalType": "address",
          "name": "_defaultAgent",
          "type": "address"
        },
        {
          "internalType": "address",
          "name": "_defaultArbiter",
          "type": "address"
        }
      ],
      "stateMutability": "nonpayable",
      "type": "constructor"
    },
    {
      "anonymous": false,
      "inputs": [
        {
          "indexed": true,
          "internalType": "address",
          "name": "agent",
          "type": "address"
        }
      ],
      "name": "DefaultAgentSet",
      "type": "event"
    },
    {
      "anonymous": false,
      "inputs": [
        {
          "indexed": true,
          "internalType": "address",
          "name": "arbiter",
          "type": "address"
        }
      ],
      "name": "DefaultArbiterSet",
      "type": "event"
    },
    {
      "anonymous": false,
      "inputs": [
        {
          "indexed": true,
          "internalType": "address",
          "name": "escrowContract",
          "type": "address"
        },
        {
          "indexed": true,
          "internalType": "address",
          "name": "creator",
          "type": "address"
        },
        {
          "indexed": true,
          "internalType": "uint256",
          "name": "escrowId",
          "type": "uint256"
        }
      ],
      "name": "EscrowContractDeployed",
      "type": "event"
    },
    {
      "anonymous": false,
      "inputs": [
        {
          "indexed": true,
          "internalType": "address",
          "name": "previousOwner",
          "type": "address"
        },
        {
          "indexed": true,
          "internalType": "address",
          "name": "newOwner",
          "type": "address"
        }
      ],
      "name": "OwnershipTransferred",
      "type": "event"
    },
    {
      "anonymous": false,
      "inputs": [
        {
          "indexed": false,
          "internalType": "uint256",
          "name": "newFee",
          "type": "uint256"
        }
      ],
      "name": "PlatformFeeUpdated",
      "type": "event"
    },
    {
      "anonymous": false,
      "inputs": [
        {
          "indexed": true,
          "internalType": "address",
          "name": "token",
          "type": "address"
        },
        {
          "indexed": false,
          "internalType": "bool",
          "name": "whitelisted",
          "type": "bool"
        }
      ],
      "name": "TokenWhitelisted",
      "type": "event"
    },
    {
      "inputs": [],
      "name": "MAX_PLATFORM_FEE",
      "outputs": [
        {
          "internalType": "uint256",
          "name": "",
          "type": "uint256"
        }
      ],
      "stateMutability": "view",
      "type": "function"
    },
    {
      "inputs": [
        {
          "components": [
            {
              "internalType": "address",
              "name": "buyer",
              "type": "address"
            },
            {
              "internalType": "address",
              "name": "seller",
              "type": "address"
            },
            {
              "internalType": "address",
              "name": "agent",
              "type": "address"
            },
            {
              "internalType": "address",
              "name": "arbiter",
              "type": "address"
            },
            {
              "internalType": "address",
              "name": "tokenAddress",
              "type": "address"
            },
            {
              "internalType": "uint256",
              "name": "depositAmount",
              "type": "uint256"
            },
            {
              "internalType": "uint256",
              "name": "agentFee",
              "type": "uint256"
            },
            {
              "internalType": "uint256",
              "name": "platformFee",
              "type": "uint256"
            },
            {
              "components": [
                {
                  "internalType": "string",
                  "name": "propertyId",
                  "type": "string"
                },
                {
                  "internalType": "string",
                  "name": "description",
                  "type": "string"
                },
                {
                  "internalType": "uint256",
                  "name": "salePrice",
                  "type": "uint256"
                },
                {
                  "internalType": "string",
                  "name": "documentHash",
                  "type": "string"
                },
                {
                  "internalType": "bool",
                  "name": "verified",
                  "type": "bool"
                }
              ],
              "internalType": "struct EscrowStructs.Property",
              "name": "property",
              "type": "tuple"
            },
            {
              "internalType": "uint256",
              "name": "depositDeadline",
              "type": "uint256"
            },
            {
              "internalType": "uint256",
              "name": "verificationDeadline",
              "type": "uint256"
            }
          ],
          "internalType": "struct EscrowStructs.CreateEscrowParams",
          "name": "params",
          "type": "tuple"
        }
      ],
      "name": "createEscrow",
      "outputs": [
        {
          "internalType": "address",
          "name": "escrowContract",
          "type": "address"
        },
        {
          "internalType": "uint256",
          "name": "escrowId",
          "type": "uint256"
        }
      ],
      "stateMutability": "nonpayable",
      "type": "function"
    },
    {
      "inputs": [],
      "name": "getDefaultAgent",
      "outputs": [
        {
          "internalType": "address",
          "name": "",
          "type": "address"
        }
      ],
      "stateMutability": "view",
      "type": "function"
    },
    {
      "inputs": [],
      "name": "getDefaultArbiter",
      "outputs": [
        {
          "internalType": "address",
          "name": "",
          "type": "address"
        }
      ],
      "stateMutability": "view",
      "type": "function"
    },
    {
      "inputs": [
        {
          "internalType": "uint256",
          "name": "escrowId",
          "type": "uint256"
        }
      ],
      "name": "getEscrowContract",
      "outputs": [
        {
          "internalType": "address",
          "name": "",
          "type": "address"
        }
      ],
      "stateMutability": "view",
      "type": "function"
    },
    {
      "inputs": [],
      "name": "getEscrowCount",
      "outputs": [
        {
          "internalType": "uint256",
          "name": "",
          "type": "uint256"
        }
      ],
      "stateMutability": "view",
      "type": "function"
    },
    {
      "inputs": [],
      "name": "getPlatformFee",
      "outputs": [
        {
          "internalType": "uint256",
          "name": "",
          "type": "uint256"
        }
      ],
      "stateMutability": "view",
      "type": "function"
    },
    {
      "inputs": [
        {
          "internalType": "address",
          "name": "token",
          "type": "address"
        }
      ],
      "name": "isTokenWhitelisted",
      "outputs": [
        {
          "internalType": "bool",
          "name": "",
          "type": "bool"
        }
      ],
      "stateMutability": "view",
      "type": "function"
    },
    {
      "inputs": [],
      "name": "owner",
      "outputs": [
        {
          "internalType": "address",
          "name": "",
          "type": "address"
        }
      ],
      "stateMutability": "view",
      "type": "function"
    },
    {
      "inputs": [],
      "name": "platformWallet",
      "outputs": [
        {
          "internalType": "address",
          "name": "",
          "type": "address"
        }
      ],
      "stateMutability": "view",
      "type": "function"
    },
    {
      "inputs": [],
      "name": "renounceOwnership",
      "outputs": [],
      "stateMutability": "nonpayable",
      "type": "function"
    },
    {
      "inputs": [
        {
          "internalType": "address",
          "name": "agent",
          "type": "address"
        }
      ],
      "name": "setDefaultAgent",
      "outputs": [],
      "stateMutability": "nonpayable",
      "type": "function"
    },
    {
      "inputs": [
        {
          "internalType": "address",
          "name": "arbiter",
          "type": "address"
        }
      ],
      "name": "setDefaultArbiter",
      "outputs": [],
      "stateMutability": "nonpayable",
      "type": "function"
    },
    {
      "inputs": [
        {
          "internalType": "uint256",
          "name": "fee",
          "type": "uint256"
        }
      ],
      "name": "setPlatformFee",
      "outputs": [],
      "stateMutability": "nonpayable",
      "type": "function"
    },
    {
      "inputs": [
        {
          "internalType": "address",
          "name": "newOwner",
          "type": "address"
        }
      ],
      "name": "transferOwnership",
      "outputs": [],
      "stateMutability": "nonpayable",
      "type": "function"
    },
    {
      "inputs": [
        {
          "internalType": "address",
          "name": "token",
          "type": "address"
        },
        {
          "internalType": "bool",
          "name": "whitelisted",
          "type": "bool"
        }
      ],
      "name": "whitelistToken",
      "outputs": [],
      "stateMutability": "nonpayable",
      "type": "function"
    },
    {
      "inputs": [
        {
          "internalType": "address",
          "name": "",
          "type": "address"
        }
      ],
      "name": "whitelistedTokens",
      "outputs": [
        {
          "internalType": "bool",
          "name": "",
          "type": "bool"
        }
      ],
      "stateMutability": "view",
      "type": "function"
    }
  ],
  "bytecode": "0x60a06040523480156200001157600080fd5b5060405162005dd538038062005dd5833981016040819052620000349162000175565b6200003f33620000d7565b600180556001600160a01b038416620000755760405162461bcd60e51b81526004016200006c906200020e565b60405180910390fd5b6101f48311156200009a5760405162461bcd60e51b81526004016200006c9062000253565b6001600160a01b03938416608052600692909255600480549184166001600160a01b03199283161790556005805492909316911617905562000265565b600080546001600160a01b038381166001600160a01b0319831681178455604051919092169283917f8be0079c531659141344cd1fd0a4f28419497f9722a3daafe3b4186f6b6457e09190a35050565b60006001600160a01b0382165b92915050565b620001458162000127565b81146200015157600080fd5b50565b805162000134816200013a565b8062000145565b8051620001348162000161565b60008060008060808587031215620001905762000190600080fd5b6200019c868662000154565b9350620001ad866020870162000168565b9250620001be866040870162000154565b9150620001cf866060870162000154565b905092959194509250565b60178152602081017f496e76616c696420706c6174666f726d2077616c6c6574000000000000000000815290505b60200190565b602080825281016200013481620001da565b60158152602081017f506c6174666f726d2066656520746f6f206869676800000000000000000000008152905062000208565b60208082528101620001348162000220565b608051615b4d620002886000396000818161028601526105470152615b4d6000f3fe60806040523480156200001157600080fd5b5060043610620000ee5760003560e01c80630ffb1d8b14620000f357806312e8e2c3146200010c57806316b1513514620001235780632eb73a88146200013f5780633998a68114620001565780634bad78db1462000160578063603c50d514620001865780636ea8bc101462000198578063715018a614620001a15780637953eec914620001ab5780638da5cb5b14620001bd5780639d5e055114620001c7578063b5af090f14620001ee578063bbdf7243146200022c578063daf9c2101462000243578063f2fde38b1462000269578063fa2af9da1462000280575b600080fd5b6200010a6200010436600462000a71565b620002a8565b005b6200010a6200011d36600462000ac3565b62000346565b6007545b60405162000136919062000af5565b60405180910390f35b6200010a6200015036600462000b05565b620003b7565b620001276101f481565b620001776200017136600462000ac3565b6200040b565b60405162000136919062000b33565b6004546001600160a01b031662000177565b60065462000127565b6200010a6200044d565b6005546001600160a01b031662000177565b6200017762000465565b620001de620001d836600462000b61565b62000474565b6040516200013692919062000ba9565b6200021d620001ff36600462000b05565b6001600160a01b031660009081526003602052604090205460ff1690565b60405162000136919062000bd1565b6200010a6200023d36600462000b05565b620008d1565b6200021d6200025436600462000b05565b60036020526000908152604090205460ff1681565b6200010a6200027a36600462000b05565b62000925565b620001777f000000000000000000000000000000000000000000000000000000000000000081565b620002b262000966565b6001600160a01b038216620002e45760405162461bcd60e51b8152600401620002db9062000c0d565b60405180910390fd5b6001600160a01b03821660008181526003602052604090819020805460ff1916841515179055517fef81a9943b96c8df4ef243401c9bf5159146166211356898b52d382086168d92906200033a90849062000bd1565b60405180910390a25050565b6200035062000966565b6101f4811115620003755760405162461bcd60e51b8152600401620002db9062000c41565b60068190556040517f45610d581145924dd7090a5017e5f2b1d6f42213bb2e95707ff86846bbfcb1ca90620003ac90839062000af5565b60405180910390a150565b620003c162000966565b600480546001600160a01b0319166001600160a01b0383169081179091556040517f9f0c49ac6da1b1d3f7b753b41ba9cdc631d714821b72e79e413399440f87181390600090a250565b60006007548210620004315760405162461bcd60e51b8152600401620002db9062000c7a565b506000908152600260205260409020546001600160a01b031690565b6200045762000966565b6200046360006200099a565b565b6000546001600160a01b031690565b60008062000481620009ea565b600360006200049760a086016080870162000b05565b6001600160a01b0316815260208101919091526040016000205460ff16620004d35760405162461bcd60e51b8152600401620002db9062000cb7565b6000620004e08462000fe5565b60408101519091506001600160a01b031662000508576004546001600160a01b031660408201525b60608101516001600160a01b03166200052d576005546001600160a01b031660608201525b8060e00151600003620005435760065460e08201525b60007f00000000000000000000000000000000000000000000000000000000000000008260e00151604051620005799062000a16565b6200058692919062000ba9565b604051809103906000f080158015620005a3573d6000803e3d6000fd5b506080830151604051630ffb1d8b60e01b81529195508592506001600160a01b03831691630ffb1d8b91620005de9160019060040162000ff3565b600060405180830381600087803b158015620005f957600080fd5b505af11580156200060e573d6000803e3d6000fd5b5050505060408201516001600160a01b031615620006f357806001600160a01b0316632f2ff15d826001600160a01b03166322459e186040518163ffffffff1660e01b8152600401602060405180830381865afa15801562000674573d6000803e3d6000fd5b505050506040513d601f19601f820116820180604052508101906200069a91906200101f565b84604001516040518363ffffffff1660e01b8152600401620006be92919062001042565b600060405180830381600087803b158015620006d957600080fd5b505af1158015620006ee573d6000803e3d6000fd5b505050505b60608201516001600160a01b031615620007d457806001600160a01b0316632f2ff15d826001600160a01b0316634d104adf6040518163ffffffff1660e01b8152600401602060405180830381865afa15801562000755573d6000803e3d6000fd5b505050506040513d601f19601f820116820180604052508101906200077b91906200101f565b84606001516040518363ffffffff1660e01b81526004016200079f92919062001042565b600060405180830381600087803b158015620007ba57600080fd5b505af1158015620007cf573d6000803e3d6000fd5b505050505b604051639d5e055160e01b81526001600160a01b03821690639d5e055190620008029085906004016200123c565b6020604051808303816000875af115801562000822573d6000803e3d6000fd5b505050506040513d601f19601f820116820180604052508101906200084891906200101f565b60078054600090815260026020526040812080546001600160a01b0319166001600160a01b0389161790558154929550620008838362001265565b9091555050604051839033906001600160a01b038716907ff04881845615a90c5228ceb3942839403fea454de5e4b34dc7266a641c5839e790600090a45050620008cc60018055565b915091565b620008db62000966565b600580546001600160a01b0319166001600160a01b0383169081179091556040517f2151be18e1a9ef97fad5998c8aa002234f4140b219f553eabf2dbdd21c23a39690600090a250565b6200092f62000966565b6001600160a01b038116620009585760405162461bcd60e51b8152600401620002db9062001281565b62000963816200099a565b50565b336200097162000465565b6001600160a01b031614620004635760405162461bcd60e51b8152600401620002db90620012fd565b600080546001600160a01b038381166001600160a01b0319831681178455604051919092169283917f8be0079c531659141344cd1fd0a4f28419497f9722a3daafe3b4186f6b6457e09190a35050565b60026001540362000a0f5760405162461bcd60e51b8152600401620002db9062001342565b6002600155565b6147c3806200135583390190565b60006001600160a01b0382165b92915050565b62000a428162000a24565b81146200096357600080fd5b803562000a318162000a37565b80151562000a42565b803562000a318162000a5b565b6000806040838503121562000a895762000a89600080fd5b62000a95848462000a4e565b915062000aa6846020850162000a64565b90509250929050565b8062000a42565b803562000a318162000aaf565b60006020828403121562000ada5762000ada600080fd5b62000ae6838362000ab6565b9392505050565b805b82525050565b6020810162000a31828462000aed565b60006020828403121562000b1c5762000b1c600080fd5b62000ae6838362000a4e565b62000aef8162000a24565b6020810162000a31828462000b28565b6000610160828403121562000b5b5762000b5b600080fd5b50919050565b60006020828403121562000b785762000b78600080fd5b81356001600160401b0381111562000b935762000b93600080fd5b62000ba18482850162000b43565b949350505050565b6040810162000bb9828562000b28565b62000ae6602083018462000aed565b80151562000aef565b6020810162000a31828462000bc8565b601581526020810174496e76616c696420746f6b656e206164647265737360581b815290505b60200190565b6020808252810162000a318162000be1565b600c8152602081016b08ccaca40e8dede40d0d2ced60a31b8152905062000c07565b6020808252810162000a318162000c1f565b601181526020810170125b9d985b1a5908195cd8dc9bddc81251607a1b8152905062000c07565b6020808252810162000a318162000c53565b601581526020810174151bdad95b881b9bdd081dda1a5d195b1a5cdd1959605a1b8152905062000c07565b6020808252810162000a318162000c8c565b601f01601f191690565b634e487b7160e01b600052604160045260246000fd5b62000cf48262000cc9565b81016001600160401b038111828210171562000d145762000d1462000cd3565b6040525050565b600062000d2760405190565b905062000d35828262000ce9565b919050565b60006001600160401b0382111562000d565762000d5662000cd3565b62000d618262000cc9565b60200192915050565b82818337506000910152565b600062000d8d62000d878462000d3a565b62000d1b565b905082815283838301111562000da65762000da6600080fd5b62000ae683602083018462000d6a565b600082601f83011262000dcc5762000dcc600080fd5b62000ae68383356020850162000d76565b600060a0828403121562000df45762000df4600080fd5b62000e0060a062000d1b565b905081356001600160401b0381111562000e1d5762000e1d600080fd5b62000e2b8482850162000db6565b82525060208201356001600160401b0381111562000e4c5762000e4c600080fd5b62000e5a8482850162000db6565b60208301525062000e6f836040840162000ab6565b604082015260608201356001600160401b0381111562000e925762000e92600080fd5b62000ea08482850162000db6565b60608301525062000eb5836080840162000a64565b608082015292915050565b6000610160828403121562000ed85762000ed8600080fd5b62000ee561016062000d1b565b905062000ef3838362000a4e565b815262000f04836020840162000a4e565b602082015262000f18836040840162000a4e565b604082015262000f2c836060840162000a4e565b606082015262000f40836080840162000a4e565b608082015262000f548360a0840162000ab6565b60a082015262000f688360c0840162000ab6565b60c082015262000f7c8360e0840162000ab6565b60e08201526101008201356001600160401b0381111562000fa05762000fa0600080fd5b62000fae8482850162000ddd565b6101008301525061012062000fc68482850162000ab6565b9082015261014062000fdb8484830162000ab6565b9082015292915050565b600062000a31368362000ec0565b6040810162001003828562000b28565b62000ae6602083018462000bc8565b805162000a318162000aaf565b600060208284031215620010365762001036600080fd5b62000ae6838362001012565b6040810162001052828562000aed565b62000ae6602083018462000b28565b60005b838110156200107e57818101518382015260200162001064565b50506000910152565b600062001092825190565b808452602084019350620010ab81856020860162001061565b620010b68162000cc9565b9093019392505050565b805160a080845260009190840190620010da828262001087565b91505060208301518482036020860152620010f6828262001087565b91505060408301516200110d604086018262000aed565b506060830151848203606086015262001127828262001087565b91505060808301516200113e608086018262000bc8565b509392505050565b80516000906101608401906200115d858262000b28565b50602083015162001172602086018262000b28565b50604083015162001187604086018262000b28565b5060608301516200119c606086018262000b28565b506080830151620011b1608086018262000b28565b5060a0830151620011c660a086018262000aed565b5060c0830151620011db60c086018262000aed565b5060e0830151620011f060e086018262000aed565b506101008301518482036101008601526200120c8282620010c0565b9150506101208301516200122561012086018262000aed565b506101408301516200113e61014086018262000aed565b6020808252810162000ae6818462001146565b634e487b7160e01b600052601160045260246000fd5b6000600182016200127a576200127a6200124f565b5060010190565b6020808252810162000a3181602681527f4f776e61626c653a206e6577206f776e657220697320746865207a65726f206160208201526564647265737360d01b604082015260600190565b60208082527f4f776e61626c653a2063616c6c6572206973206e6f7420746865206f776e6572910190815262000c07565b6020808252810162000a3181620012cc565b601f8152602081017f5265656e7472616e637947756172643a207265656e7472616e742063616c6c008152905062000c07565b6020808252810162000a31816200130f56fe60806040523480156200001157600080fd5b50604051620047c3380380620047c3833981016040819052620000349162000200565b60016000819055805460ff191690556001600160a01b038216620000755760405162461bcd60e51b81526004016200006c9062000272565b60405180910390fd5b6101f48111156200009a5760405162461bcd60e51b81526004016200006c90620002b7565b600880546001600160a01b0319166001600160a01b0384161790556007819055620000c7600033620000fb565b620000f37fa49807205ce4d355092ef5a8a18f56e8913cf4a201fbe287825b095693c2177533620000fb565b5050620002c9565b62000107828262000186565b620001825760008281526002602090815260408083206001600160a01b03851684529091529020805460ff19166001179055620001413390565b6001600160a01b0316816001600160a01b0316837f2f8788117e7eff1d82e926ec794901d17c78024a50270940304540a733656f0d60405160405180910390a45b5050565b60008281526002602090815260408083206001600160a01b038516845290915290205460ff165b92915050565b60006001600160a01b038216620001ad565b620001d081620001b3565b8114620001dc57600080fd5b50565b8051620001ad81620001c5565b80620001d0565b8051620001ad81620001ec565b60008060408385031215620002185762000218600080fd5b620002248484620001df565b9150620002358460208501620001f3565b90509250929050565b60178152602081017f496e76616c696420706c6174666f726d2077616c6c6574000000000000000000815290505b60200190565b60208082528101620001ad816200023e565b60158152602081017f506c6174666f726d2066656520746f6f20686967680000000000000000000000815290506200026c565b60208082528101620001ad8162000284565b6144ea80620002d96000396000f3fe608060405234801561001057600080fd5b50600436106101a15760003560e01c806301ffc9a7146101a657806308b88af1146101cf5780630ffb1d8b146101e257806312e8e2c3146101f75780631e31a6dd1461020a57806322459e1814610212578063248a9ca3146102465780632840662d146102595780632f2ff15d1461026c57806336568abe1461027f57806339292763146102925780633998a681146102a55780633a49995b146102ae5780633b76594d146102ce5780633f4ba83a146102e15780633f4dbda2146102e957806346b6cfd3146102f15780634d104adf146103045780634d68282f1461032b5780635aef573c1461033e5780635c975abb1461035157806375b238fc1461035c5780637d19e596146103715780638456cb591461039157806391d14854146103995780639d5e0551146103ac578063a217fddf146103bf578063b138821e146103c7578063b49b0cb3146103da578063cdd78cfc146103ed578063d547741f146103f6578063daf9c21014610409578063e01824361461042c578063e1f1c4a71461043f578063fa2af9da14610448575b600080fd5b6101b96101b4366004612fe5565b610468565b6040516101c6919061300e565b60405180910390f35b6101b96101dd36600461302d565b61049f565b6101f56101f0366004613084565b6108d8565b005b6101f561020536600461302d565b61091c565b6101f561095c565b6102397fcab5a0bfe0b79d2c4b1c2e02599fa044d115b7511f9659307cb427695096770981565b6040516101c691906130c2565b61023961025436600461302d565b610af4565b6101f5610267366004613121565b610b09565b6101f561027a366004613189565b610ca9565b6101f561028d366004613189565b610cca565b6101f56102a036600461302d565b610d00565b6102396101f481565b6102c16102bc36600461302d565b610d7d565b6040516101c691906131fc565b6101f56102dc36600461302d565b610dbb565b6101f5610f11565b600654610239565b6101f56102ff36600461302d565b610f31565b6102397fbb08418a67729a078f87bbc8d02a770929bb68f5bfdf134ae2ead6ed38e2f4ae81565b6101f561033936600461302d565b611083565b6101f561034c36600461320a565b611271565b60015460ff166101b9565b61023960008051602061447583398151915281565b61038461037f36600461302d565b6118ee565b6040516101c691906134ca565b6101f5611ca0565b6101b96103a7366004613189565b611cc0565b6102396103ba3660046134f1565b611ceb565b610239600081565b6101f56103d536600461302d565b6120e8565b6101f56103e836600461352b565b6122ae565b61023960075481565b6101f5610404366004613189565b6122da565b6101b961041736600461355a565b60056020526000908152604090205460ff1681565b6101f561043a36600461302d565b6122f6565b61023961271081565b60085461045b906001600160a01b031681565b6040516101c69190613579565b60006001600160e01b03198216637965db0b60e01b148061049957506301ffc9a760e01b6001600160e01b03198316145b92915050565b60008160065481106104cc5760405162461bcd60e51b81526004016104c3906135af565b60405180910390fd5b60008381526003602081815260408084208151610240810183528154815260018201546001600160a01b039081169482019490945260028201548416928101929092529283015482166060820152600483015482166080820152600583015490911660a082015260068083015460c0830152600783015460e08301526008830154610100830152600983015491929161012084019160ff90911690811115610576576105766131b8565b6006811115610587576105876131b8565b8152602001600a82016040518060a00160405290816000820180546105ab906135d5565b80601f01602080910402602001604051908101604052809291908181526020018280546105d7906135d5565b80156106245780601f106105f957610100808354040283529160200191610624565b820191906000526020600020905b81548152906001019060200180831161060757829003601f168201915b5050505050815260200160018201805461063d906135d5565b80601f0160208091040260200160405190810160405280929190818152602001828054610669906135d5565b80156106b65780601f1061068b576101008083540402835291602001916106b6565b820191906000526020600020905b81548152906001019060200180831161069957829003601f168201915b50505050508152602001600282015481526020016003820180546106d9906135d5565b80601f0160208091040260200160405190810160405280929190818152602001828054610705906135d5565b80156107525780601f1061072757610100808354040283529160200191610752565b820191906000526020600020905b81548152906001019060200180831161073557829003601f168201915b50505091835250506004919091015460ff9081161515602092830152918352600f84015490830152601083015460408301526011830154606083015260128301548082161515608084015261010081048216151560a084015262010000900416151560c082015260138201805460e0909201916107ce906135d5565b80601f01602080910402602001604051908101604052809291908181526020018280546107fa906135d5565b80156108475780601f1061081c57610100808354040283529160200191610847565b820191906000526020600020905b81548152906001019060200180831161082a57829003601f168201915b505050505081525050905060026006811115610865576108656131b8565b816101200151600681111561087c5761087c6131b8565b14801561088f5750806101400151608001515b801561089d5750806101c001515b80156108ab5750806101e001515b80156108ce575060608101516001600160a01b031615806108ce57508061020001515b9250505b50919050565b6000805160206144758339815191526108f0816127fc565b506001600160a01b03919091166000908152600560205260409020805460ff1916911515919091179055565b600080516020614475833981519152610934816127fc565b6101f48211156109565760405162461bcd60e51b81526004016104c39061361c565b50600755565b600080805260036020527f3617319a054d772f909f7c479a2cebe5066e836a939412e32403c99029b92f00547f3617319a054d772f909f7c479a2cebe5066e836a939412e32403c99029b92eff91906001600160a01b031633036109f657601282015460ff16156109df5760405162461bcd60e51b81526004016104c390613657565b5060128101805460ff191660011790556000610abf565b60028201546001600160a01b03163303610a4d576012820154610100900460ff1615610a345760405162461bcd60e51b81526004016104c390613693565b5060128101805461ff0019166101001790556001610abf565b60038201546001600160a01b03163303610aa757601282015462010000900460ff1615610a8c5760405162461bcd60e51b81526004016104c3906136ce565b5060128101805462ff00001916620100001790556002610abf565b60405162461bcd60e51b81526004016104c39061370c565b336001600160a01b0316600060008051602061449583398151915283604051610ae8919061374a565b60405180910390a35050565b60009081526002602052604090206001015490565b610b11612806565b610b1961282f565b836006548110610b3b5760405162461bcd60e51b81526004016104c3906135af565b8460048060008381526003602052604090206009015460ff166006811115610b6557610b656131b8565b14610b825760405162461bcd60e51b81526004016104c390613781565b600087815260036020526040902060048101546001600160a01b0316331480610bbe5750610bbe60008051602061447583398151915233611cc0565b610bda5760405162461bcd60e51b81526004016104c3906137cf565b600088815260046020819052604090912060038101805433610100026001600160a81b0319909116176001179055908101610c168789836138b9565b508715610c2b57610c2689612854565b610c50565b60098201805460ff191660021790556012820180546201010162ffffff199091161790555b336001600160a01b0316897f7b71d2e00379bd165b2750d54298da2414376699827edca2bce2a096c491d2e98989604051610c8c9291906139ab565b60405180910390a35050505050610ca36001600055565b50505050565b610cb282610af4565b610cbb816127fc565b610cc58383612961565b505050565b6001600160a01b0381163314610cf25760405162461bcd60e51b81526004016104c390613a07565b610cfc82826129e7565b5050565b610d08612806565b610d1061282f565b806006548110610d325760405162461bcd60e51b81526004016104c3906135af565b610d4a60008051602061447583398151915233611cc0565b610d665760405162461bcd60e51b81526004016104c390613a41565b610d6f82612854565b50610d7a6001600055565b50565b6000816006548110610da15760405162461bcd60e51b81526004016104c3906135af565b505060009081526003602052604090206009015460ff1690565b610dc3612806565b610dcb61282f565b806006548110610ded5760405162461bcd60e51b81526004016104c3906135af565b8160008060008381526003602052604090206009015460ff166006811115610e1757610e176131b8565b14610e345760405162461bcd60e51b81526004016104c390613781565b600084815260036020526040902060018101546001600160a01b03163314610e6e5760405162461bcd60e51b81526004016104c390613a7c565b8060100154421115610e925760405162461bcd60e51b81526004016104c390613ab8565b60068101546005820154610eb5916001600160a01b039091169033903090612a4e565b60098101805460ff191660011790556006810154604051339187917fe030e47e27825a2ad1b19e4cf2e70bfbfb3124af275c7727a82b114ba7b29a8591610efb916130c2565b60405180910390a350505050610d7a6001600055565b600080516020614475833981519152610f29816127fc565b610d7a612aa6565b610f39612806565b610f4161282f565b806006548110610f635760405162461bcd60e51b81526004016104c3906135af565b8160018060008381526003602052604090206009015460ff166006811115610f8d57610f8d6131b8565b14610faa5760405162461bcd60e51b81526004016104c390613781565b6000848152600360208190526040909120908101546001600160a01b0316331480610fe85750610fe860008051602061447583398151915233611cc0565b6110045760405162461bcd60e51b81526004016104c390613afa565b80601101544211156110285760405162461bcd60e51b81526004016104c390613b3b565b60098101805460ff19908116600217909155600e820180549091166001179055604051339086907f0229702661bd522f80cf22e71a80e376c2ac20ea2ecd8e680f1a8e8285738a1c90600090a350505050610d7a6001600055565b61108b612806565b61109361282f565b8060065481106110b55760405162461bcd60e51b81526004016104c3906135af565b8160028060008381526003602052604090206009015460ff1660068111156110df576110df6131b8565b146110fc5760405162461bcd60e51b81526004016104c390613781565b6111058461049f565b6111215760405162461bcd60e51b81526004016104c390613b7a565b6000848152600360205260408120600881015460068201549192916127109161114991613ba0565b6111539190613bcd565b90506000826007015490506000818385600601546111719190613be1565b61117b9190613be1565b60098501805460ff1916600317905560058501549091506001600160a01b031683156111bb576008546111bb906001600160a01b03838116911686612af2565b6000831180156111d7575060038501546001600160a01b031615155b156111f85760038501546111f8906001600160a01b03838116911685612af2565b6002850154611214906001600160a01b03838116911684612af2565b60028501546040516001600160a01b03909116908a907f6e3c6096795c8298a218b2cfb8bde42726ff7c9a3d27b4d3ba41ab7f74feb5fb906112579086906130c2565b60405180910390a35050505050505050610d7a6001600055565b611279612806565b61128161282f565b8260065481106112a35760405162461bcd60e51b81526004016104c3906135af565b60008481526003602081815260408084208151610240810183528154815260018201546001600160a01b039081169482019490945260028201548416928101929092529283015482166060820152600483015482166080820152600583015490911660a082015260068083015460c0830152600783015460e0830152600883015461010083015260098301548894939161012084019160ff169081111561134c5761134c6131b8565b600681111561135d5761135d6131b8565b8152602001600a82016040518060a0016040529081600082018054611381906135d5565b80601f01602080910402602001604051908101604052809291908181526020018280546113ad906135d5565b80156113fa5780601f106113cf576101008083540402835291602001916113fa565b820191906000526020600020905b8154815290600101906020018083116113dd57829003601f168201915b50505050508152602001600182018054611413906135d5565b80601f016020809104026020016040519081016040528092919081815260200182805461143f906135d5565b801561148c5780601f106114615761010080835404028352916020019161148c565b820191906000526020600020905b81548152906001019060200180831161146f57829003601f168201915b50505050508152602001600282015481526020016003820180546114af906135d5565b80601f01602080910402602001604051908101604052809291908181526020018280546114db906135d5565b80156115285780601f106114fd57610100808354040283529160200191611528565b820191906000526020600020905b81548152906001019060200180831161150b57829003601f168201915b50505091835250506004919091015460ff9081161515602092830152918352600f84015490830152601083015460408301526011830154606083015260128301548082161515608084015261010081048216151560a084015262010000900416151560c082015260138201805460e0909201916115a4906135d5565b80601f01602080910402602001604051908101604052809291908181526020018280546115d0906135d5565b801561161d5780601f106115f25761010080835404028352916020019161161d565b820191906000526020600020905b81548152906001019060200180831161160057829003601f168201915b505050505081525050905080602001516001600160a01b0316336001600160a01b03161480611661575080604001516001600160a01b0316336001600160a01b0316145b80611681575080606001516001600160a01b0316336001600160a01b0316145b806116a1575080608001516001600160a01b0316336001600160a01b0316145b806116bf57506116bf60008051602061447583398151915233611cc0565b6116db5760405162461bcd60e51b81526004016104c390613c26565b60008681526003602052604090206001600982015460ff166006811115611704576117046131b8565b148061172857506002600982015460ff166006811115611726576117266131b8565b145b6117445760405162461bcd60e51b81526004016104c390613c68565b846117615760405162461bcd60e51b81526004016104c390613ca4565b60098101805460ff191660041790556013810161177f8688836138b9565b506040518060c00160405280336001600160a01b0316815260200187878080601f0160208091040260200160405190810160405280939291908181526020018383808284376000920182905250938552505042602080850191909152604080850184905260608501849052805180830182528481526080909501949094528b83526004815292909120835181546001600160a01b0319166001600160a01b03909116178155918301516001830191506118389082613cb4565b5060408201516002820155606082015160038201805460808501516001600160a01b031661010002610100600160a81b0319931515939093166001600160a81b03199091161791909117905560a082015160048201906118989082613cb4565b50905050336001600160a01b0316877f1b84372106d77c6daea0dda35bbc0229d10a83f58ec89909288492519368234188886040516118d89291906139ab565b60405180910390a350505050610cc56001600055565b6118f6612efe565b8160065481106119185760405162461bcd60e51b81526004016104c3906135af565b6000838152600360208181526040928390208351610240810185528154815260018201546001600160a01b03908116938201939093526002820154831694810194909452918201548116606084015260048201548116608084015260058201541660a083015260068082015460c0840152600782015460e08401526008820154610100840152600982015461012084019160ff909116908111156119be576119be6131b8565b60068111156119cf576119cf6131b8565b8152602001600a82016040518060a00160405290816000820180546119f3906135d5565b80601f0160208091040260200160405190810160405280929190818152602001828054611a1f906135d5565b8015611a6c5780601f10611a4157610100808354040283529160200191611a6c565b820191906000526020600020905b815481529060010190602001808311611a4f57829003601f168201915b50505050508152602001600182018054611a85906135d5565b80601f0160208091040260200160405190810160405280929190818152602001828054611ab1906135d5565b8015611afe5780601f10611ad357610100808354040283529160200191611afe565b820191906000526020600020905b815481529060010190602001808311611ae157829003601f168201915b5050505050815260200160028201548152602001600382018054611b21906135d5565b80601f0160208091040260200160405190810160405280929190818152602001828054611b4d906135d5565b8015611b9a5780601f10611b6f57610100808354040283529160200191611b9a565b820191906000526020600020905b815481529060010190602001808311611b7d57829003601f168201915b50505091835250506004919091015460ff9081161515602092830152918352600f84015490830152601083015460408301526011830154606083015260128301548082161515608084015261010081048216151560a084015262010000900416151560c082015260138201805460e090920191611c16906135d5565b80601f0160208091040260200160405190810160405280929190818152602001828054611c42906135d5565b8015611c8f5780601f10611c6457610100808354040283529160200191611c8f565b820191906000526020600020905b815481529060010190602001808311611c7257829003601f168201915b505050505081525050915050919050565b600080516020614475833981519152611cb8816127fc565b610d7a612b11565b60009182526002602090815260408084206001600160a01b0393909316845291905290205460ff1690565b6000611cf5612806565b611cfd61282f565b6000611d0c602084018461355a565b6001600160a01b031603611d325760405162461bcd60e51b81526004016104c390613d98565b6000611d44604084016020850161355a565b6001600160a01b031603611d6a5760405162461bcd60e51b81526004016104c390613dd3565b611d7a604083016020840161355a565b6001600160a01b0316611d90602084018461355a565b6001600160a01b031603611db65760405162461bcd60e51b81526004016104c390613e20565b6000611dc860a084016080850161355a565b6001600160a01b031603611dee5760405162461bcd60e51b81526004016104c390613e5a565b60056000611e0260a085016080860161355a565b6001600160a01b0316815260208101919091526040016000205460ff16611e3b5760405162461bcd60e51b81526004016104c390613e94565b60008260a0013511611e5f5760405162461bcd60e51b81526004016104c390613ed6565b4282610120013511611e835760405162461bcd60e51b81526004016104c390613f13565b81610120013582610140013511611eac5760405162461bcd60e51b81526004016104c390613f55565b6000611ebc610100840184613f65565b611ec69080613f89565b905011611ee55760405162461bcd60e51b81526004016104c390614006565b6006805460009182611ef683614016565b909155506000818152600360209081526040909120828155919250611f1d9085018561355a565b6001820180546001600160a01b0319166001600160a01b0392909216919091179055611f4f604085016020860161355a565b6002820180546001600160a01b0319166001600160a01b0392909216919091179055611f81606085016040860161355a565b6003820180546001600160a01b0319166001600160a01b0392909216919091179055611fb3608085016060860161355a565b6004820180546001600160a01b0319166001600160a01b0392909216919091179055611fe560a085016080860161355a565b6005820180546001600160a01b0319166001600160a01b039290921691909117905560a0840135600682015560c0840135600782015560e0840135600882015560098101805460ff1916905561203f610100850185613f65565b600a820161204d8282614116565b505042600f8201556101208401356010820155610140840135601182015561207b604085016020860161355a565b6001600160a01b0316612091602086018661355a565b6001600160a01b0316837f9405ad0a6208539879349284d71265479b1623846f70303da1f9890d6e8c10a78760a001356040516120ce91906130c2565b60405180910390a45090506120e36001600055565b919050565b6120f0612806565b6120f861282f565b80600654811061211a5760405162461bcd60e51b81526004016104c3906135af565b8160028060008381526003602052604090206009015460ff166006811115612144576121446131b8565b146121615760405162461bcd60e51b81526004016104c390613781565b600084815260036020526040812060018101549091906001600160a01b031633036121c257601282015460ff16156121ab5760405162461bcd60e51b81526004016104c390613657565b5060128101805460ff19166001179055600061226f565b60028201546001600160a01b03163303612219576012820154610100900460ff16156122005760405162461bcd60e51b81526004016104c390613693565b5060128101805461ff001916610100179055600161226f565b60038201546001600160a01b03163303610aa757601282015462010000900460ff16156122585760405162461bcd60e51b81526004016104c3906136ce565b5060128101805462ff000019166201000017905560025b336001600160a01b03168660008051602061449583398151915283604051612297919061374a565b60405180910390a35050505050610d7a6001600055565b6000805160206144758339815191526122c6816127fc565b610cc56001600160a01b0384163384612af2565b6122e382610af4565b6122ec816127fc565b610cc583836129e7565b6122fe612806565b61230661282f565b8060065481106123285760405162461bcd60e51b81526004016104c3906135af565b8160008060008381526003602052604090206009015460ff166006811115612352576123526131b8565b1461236f5760405162461bcd60e51b81526004016104c390613781565b60008481526003602081815260408084208151610240810183528154815260018201546001600160a01b039081169482019490945260028201548416928101929092529283015482166060820152600483015482166080820152600583015490911660a082015260068083015460c0830152600783015460e0830152600883015461010083015260098301548894939161012084019160ff1690811115612418576124186131b8565b6006811115612429576124296131b8565b8152602001600a82016040518060a001604052908160008201805461244d906135d5565b80601f0160208091040260200160405190810160405280929190818152602001828054612479906135d5565b80156124c65780601f1061249b576101008083540402835291602001916124c6565b820191906000526020600020905b8154815290600101906020018083116124a957829003601f168201915b505050505081526020016001820180546124df906135d5565b80601f016020809104026020016040519081016040528092919081815260200182805461250b906135d5565b80156125585780601f1061252d57610100808354040283529160200191612558565b820191906000526020600020905b81548152906001019060200180831161253b57829003601f168201915b505050505081526020016002820154815260200160038201805461257b906135d5565b80601f01602080910402602001604051908101604052809291908181526020018280546125a7906135d5565b80156125f45780601f106125c9576101008083540402835291602001916125f4565b820191906000526020600020905b8154815290600101906020018083116125d757829003601f168201915b50505091835250506004919091015460ff9081161515602092830152918352600f84015490830152601083015460408301526011830154606083015260128301548082161515608084015261010081048216151560a084015262010000900416151560c082015260138201805460e090920191612670906135d5565b80601f016020809104026020016040519081016040528092919081815260200182805461269c906135d5565b80156126e95780601f106126be576101008083540402835291602001916126e9565b820191906000526020600020905b8154815290600101906020018083116126cc57829003601f168201915b505050505081525050905080602001516001600160a01b0316336001600160a01b0316148061272d575080604001516001600160a01b0316336001600160a01b0316145b8061274d575080606001516001600160a01b0316336001600160a01b0316145b8061276d575080608001516001600160a01b0316336001600160a01b0316145b8061278b575061278b60008051602061447583398151915233611cc0565b6127a75760405162461bcd60e51b81526004016104c390613c26565b600086815260036020526040808220600901805460ff1916600617905551339188917f6f44c80719cb2f74bdbd68b7af10147acb9b52e2675ad02f9c87f098599599389190a35050505050610d7a6001600055565b610d7a8133612b4c565b6002600054036128285760405162461bcd60e51b81526004016104c390614152565b6002600055565b60015460ff16156128525760405162461bcd60e51b81526004016104c390614187565b565b60008181526003602052604090206001600982015460ff16600681111561287d5761287d6131b8565b14806128a157506004600982015460ff16600681111561289f5761289f6131b8565b145b806128c457506002600982015460ff1660068111156128c2576128c26131b8565b145b6128e05760405162461bcd60e51b81526004016104c3906141c9565b60098101805460ff19166005908117909155600182015460068301549183015461291a926001600160a01b03918216929190911690612af2565b600181015460068201546040516001600160a01b039092169184917f80b577b4fc190ab86d963549e29f496afd079c5d81a2480d61217d4b5060a28c91610ae891906130c2565b61296b8282611cc0565b610cfc5760008281526002602090815260408083206001600160a01b03851684529091529020805460ff191660011790556129a33390565b6001600160a01b0316816001600160a01b0316837f2f8788117e7eff1d82e926ec794901d17c78024a50270940304540a733656f0d60405160405180910390a45050565b6129f18282611cc0565b15610cfc5760008281526002602090815260408083206001600160a01b0385168085529252808320805460ff1916905551339285917ff6391f5c32d9c69d2a47ea670b442974b53935d1edc7fd64eb21e047a839171b9190a45050565b610ca3846323b872dd60e01b858585604051602401612a6f939291906141d9565b60408051601f198184030181529190526020810180516001600160e01b03166001600160e01b031990931692909217909152612ba5565b612aae612c37565b6001805460ff191690557f5db9ee0a495bf2e6ff9c91a7834c1ba4fdd244a5e8aa4e537bd38aeae4b073aa335b604051612ae89190613579565b60405180910390a1565b610cc58363a9059cbb60e01b8484604051602401612a6f929190614201565b612b1961282f565b6001805460ff1916811790557f62e78cea01bee320cd4e420270b5ea74000d11b0c9f74754ebdbfc544b05a25833612adb565b612b568282611cc0565b610cfc57612b6381612c59565b612b6e836020612c6b565b604051602001612b7f92919061423e565b60408051601f198184030181529082905262461bcd60e51b82526104c39160040161428e565b6000612bfa826040518060400160405280602081526020017f5361666545524332303a206c6f772d6c6576656c2063616c6c206661696c6564815250856001600160a01b0316612ddd9092919063ffffffff16565b9050805160001480612c1b575080806020019051810190612c1b91906142aa565b610cc55760405162461bcd60e51b81526004016104c39061430e565b60015460ff166128525760405162461bcd60e51b81526004016104c390614347565b60606104996001600160a01b03831660145b60606000612c7a836002613ba0565b612c85906002614357565b6001600160401b03811115612c9c57612c9c6137df565b6040519080825280601f01601f191660200182016040528015612cc6576020820181803683370190505b509050600360fc1b81600081518110612ce157612ce161436a565b60200101906001600160f81b031916908160001a905350600f60fb1b81600181518110612d1057612d1061436a565b60200101906001600160f81b031916908160001a9053506000612d34846002613ba0565b612d3f906001614357565b90505b6001811115612db7576f181899199a1a9b1b9c1cb0b131b232b360811b85600f1660108110612d7357612d7361436a565b1a60f81b828281518110612d8957612d8961436a565b60200101906001600160f81b031916908160001a90535060049490941c93612db081614380565b9050612d42565b508315612dd65760405162461bcd60e51b81526004016104c3906143c7565b9392505050565b6060612dec8484600085612df4565b949350505050565b606082471015612e165760405162461bcd60e51b81526004016104c390614418565b600080866001600160a01b03168587604051612e329190614428565b60006040518083038185875af1925050503d8060008114612e6f576040519150601f19603f3d011682016040523d82523d6000602084013e612e74565b606091505b5091509150612e8587838387612e90565b979650505050505050565b60608315612ecf578251600003612ec8576001600160a01b0385163b612ec85760405162461bcd60e51b81526004016104c390614464565b5081612dec565b612dec8383815115612ee45781518083602001fd5b8060405162461bcd60e51b81526004016104c3919061428e565b6040805161024081018252600080825260208201819052918101829052606081018290526080810182905260a0810182905260c0810182905260e081018290526101008101829052906101208201908152602001612f866040518060a00160405280606081526020016060815260200160008152602001606081526020016000151581525090565b8152602001600081526020016000815260200160008152602001600015158152602001600015158152602001600015158152602001606081525090565b6001600160e01b031981165b8114610d7a57600080fd5b803561049981612fc3565b600060208284031215612ffa57612ffa600080fd5b612dd68383612fda565b8015155b82525050565b602081016104998284613004565b80612fcf565b80356104998161301c565b60006020828403121561304257613042600080fd5b612dd68383613022565b60006001600160a01b038216610499565b612fcf8161304c565b80356104998161305d565b801515612fcf565b803561049981613071565b6000806040838503121561309a5761309a600080fd5b6130a48484613066565b91506130b38460208501613079565b90509250929050565b80613008565b6020810161049982846130bc565b60008083601f8401126130e5576130e5600080fd5b5081356001600160401b038111156130ff576130ff600080fd5b60208301915083600182028301111561311a5761311a600080fd5b9250929050565b6000806000806060858703121561313a5761313a600080fd5b6131448686613022565b93506131538660208701613079565b925060408501356001600160401b0381111561317157613171600080fd5b61317d878288016130d0565b95989497509550505050565b6000806040838503121561319f5761319f600080fd5b6131a98484613022565b91506130b38460208501613066565b634e487b7160e01b600052602160045260246000fd5b60078110610d7a57610d7a6131b8565b806120e3816131ce565b6000610499826131de565b613008816131e8565b6020810161049982846131f3565b60008060006040848603121561322257613222600080fd5b61322c8585613022565b925060208401356001600160401b0381111561324a5761324a600080fd5b613256868287016130d0565b92509250509250925092565b6130088161304c565b60005b8381101561328657818101518382015260200161326e565b50506000910152565b601f01601f191690565b60006132a3825190565b8084526020840193506132ba81856020860161326b565b6132c38161328f565b9093019392505050565b805160a0808452600091908401906132e58282613299565b915050602083015184820360208601526132ff8282613299565b915050604083015161331460408601826130bc565b506060830151848203606086015261332c8282613299565b91505060808301516133416080860182613004565b509392505050565b805160009061024084019061335e85826130bc565b5060208301516133716020860182613262565b5060408301516133846040860182613262565b5060608301516133976060860182613262565b5060808301516133aa6080860182613262565b5060a08301516133bd60a0860182613262565b5060c08301516133d060c08601826130bc565b5060e08301516133e360e08601826130bc565b506101008301516133f86101008601826130bc565b5061012083015161340d6101208601826131f3565b5061014083015184820361014086015261342782826132cd565b91505061016083015161343e6101608601826130bc565b506101808301516134536101808601826130bc565b506101a08301516134686101a08601826130bc565b506101c083015161347d6101c0860182613004565b506101e08301516134926101e0860182613004565b506102008301516134a7610200860182613004565b506102208301518482036102208601526134c18282613299565b95945050505050565b60208082528101612dd68184613349565b600061016082840312156108d2576108d2600080fd5b60006020828403121561350657613506600080fd5b81356001600160401b0381111561351f5761351f600080fd5b612dec848285016134db565b6000806040838503121561354157613541600080fd5b61354b8484613066565b91506130b38460208501613022565b60006020828403121561356f5761356f600080fd5b612dd68383613066565b602081016104998284613262565b601181526020810170125b9d985b1a5908195cd8dc9bddc81251607a1b815290505b60200190565b6020808252810161049981613587565b634e487b7160e01b600052602260045260246000fd5b6002810460018216806135e957607f821691505b6020821081036108d2576108d26135bf565b600c8152602081016b08ccaca40e8dede40d0d2ced60a31b815290506135a9565b60208082528101610499816135fb565b601681526020810175109d5e595c88185b1c9958591e48185c1c1c9bdd995960521b815290506135a9565b602080825281016104998161362c565b60178152602081017614d95b1b195c88185b1c9958591e48185c1c1c9bdd9959604a1b815290506135a9565b6020808252810161049981613667565b6016815260208101751059d95b9d08185b1c9958591e48185c1c1c9bdd995960521b815290506135a9565b60208082528101610499816136a3565b6019815260208101784e6f7420617574686f72697a656420746f20617070726f766560381b815290506135a9565b60208082528101610499816136de565b60058110610d7a57610d7a6131b8565b806120e38161371c565b60006104998261372c565b61300881613736565b602081016104998284613741565b601481526020810173496e76616c696420657363726f7720737461746560601b815290506135a9565b6020808252810161049981613758565b60218152602081017f4f6e6c792061726269746572206f722061646d696e2063616e207265736f6c768152606560f81b602082015290505b60400190565b6020808252810161049981613791565b634e487b7160e01b600052604160045260246000fd5b60006104996138018381565b90565b61380d836137f5565b815460001960089490940293841b1916921b91909117905550565b6000610cc5818484613804565b81811015610cfc57613848600082613828565b600101613835565b601f821115610cc5576000818152602090206020601f850104810160208510156138775750805b6138896020601f860104830182613835565b5050505050565b6000196008929092029190911c191690565b6138ac8282613890565b6002909202909117919050565b826001600160401b038111156138d1576138d16137df565b6138db82546135d5565b6138e6828285613850565b506000601f82116001811461391557600083156139035750848201355b61390d84826138a2565b85555061396e565b600084815260209020601f19841690835b828110156139465787850135825560209485019460019092019101613926565b50848210156139625761395f601f861685890135613890565b81555b50506001600284020184555b505050505050565b82818337506000910152565b818352602083019250613996828483613976565b5060006139a28261328f565b90920192915050565b60208082528101612dec818486613982565b602f8152602081017f416363657373436f6e74726f6c3a2063616e206f6e6c792072656e6f756e636581526e103937b632b9903337b91039b2b63360891b602082015290506137c9565b60208082528101610499816139bd565b60158152602081017413db9b1e4818591b5a5b8818d85b881c99599d5b99605a1b815290506135a9565b6020808252810161049981613a17565b60168152602081017513db9b1e48189d5e595c8818d85b8819195c1bdcda5d60521b815290506135a9565b6020808252810161049981613a51565b60178152602081017611195c1bdcda5d08191958591b1a5b99481c185cdcd959604a1b815290506135a9565b6020808252810161049981613a8c565b601e8152602081017f4f6e6c79206167656e74206f722061646d696e2063616e207665726966790000815290506135a9565b6020808252810161049981613ac8565b601c8152602081017b15995c9a599a58d85d1a5bdb88191958591b1a5b99481c185cdcd95960221b815290506135a9565b6020808252810161049981613b0a565b601a8152602081017914995b19585cd94818dbdb991a5d1a5bdb9cc81b9bdd081b595d60321b815290506135a9565b6020808252810161049981613b4b565b634e487b7160e01b600052601160045260246000fd5b818102811582820484141761049957610499613b8a565b634e487b7160e01b600052601260045260246000fd5b600082613bdc57613bdc613bb7565b500490565b8181038181111561049957610499613b8a565b601e8152602081017f4e6f7420617574686f72697a656420666f72207468697320657363726f770000815290506135a9565b6020808252810161049981613bf4565b601f8152602081017f43616e6e6f74206469737075746520696e2063757272656e7420737461746500815290506135a9565b6020808252810161049981613c36565b601781526020810176111a5cdc1d5d19481c99585cdbdb881c995c5d5a5c9959604a1b815290506135a9565b6020808252810161049981613c78565b81516001600160401b03811115613ccd57613ccd6137df565b613cd782546135d5565b613ce2828285613850565b506020601f821160018114613d115760008315613cff5750848201515b613d0984826138a2565b855550613889565b600084815260208120601f198516915b82811015613d415787850151825560209485019460019092019101613d21565b5084821015613d5f5783870151613d5b601f871682613890565b8255505b50505050600202600101905550565b601581526020810174496e76616c6964206275796572206164647265737360581b815290506135a9565b6020808252810161049981613d6e565b601681526020810175496e76616c69642073656c6c6572206164647265737360501b815290506135a9565b6020808252810161049981613da8565b60228152602081017f427579657220616e642073656c6c6572206d75737420626520646966666572658152611b9d60f21b602082015290506137c9565b6020808252810161049981613de3565b601581526020810174496e76616c696420746f6b656e206164647265737360581b815290506135a9565b6020808252810161049981613e30565b601581526020810174151bdad95b881b9bdd081dda1a5d195b1a5cdd1959605a1b815290506135a9565b6020808252810161049981613e6a565b601f8152602081017f4465706f73697420616d6f756e74206d75737420626520706f73697469766500815290506135a9565b6020808252810161049981613ea4565b601881526020810177496e76616c6964206465706f73697420646561646c696e6560401b815290506135a9565b6020808252810161049981613ee6565b601d8152602081017f496e76616c696420766572696669636174696f6e20646561646c696e65000000815290506135a9565b6020808252810161049981613f23565b60008235609e1936849003018112613f7f57613f7f600080fd5b9190910192915050565b6000808335601e1936859003018112613fa457613fa4600080fd5b830191505080356001600160401b03811115613fc257613fc2600080fd5b60208201915060018102360382131561311a5761311a600080fd5b601481526020810173141c9bdc195c9d1e481251081c995c5d5a5c995960621b815290506135a9565b6020808252810161049981613fdd565b60006001820161402857614028613b8a565b5060010190565b610cc58383836138b9565b600081356104998161301c565b614050826137f5565b805b8255505050565b6000813561049981613071565b6000811515610499565b61407982614066565b815460ff191660ff821617614052565b6140938280613f89565b61409e81838561402f565b50506140ad6020830183613f89565b6140bb81836001860161402f565b505060408201806140cb8261403a565b90506140da8160028501614047565b50506140e96060830183613f89565b6140f781836003860161402f565b5050608082018061410782614059565b9050610ca38160048501614070565b610cfc8282614089565b601f8152602081017f5265656e7472616e637947756172643a207265656e7472616e742063616c6c00815290506135a9565b6020808252810161049981614120565b60108152602081016f14185d5cd8589b194e881c185d5cd95960821b815290506135a9565b6020808252810161049981614162565b601e8152602081017f43616e6e6f7420726566756e6420696e2063757272656e742073746174650000815290506135a9565b6020808252810161049981614197565b606081016141e78286613262565b6141f46020830185613262565b612dec60408301846130bc565b6040810161420f8285613262565b612dd660208301846130bc565b6000614226825190565b61423481856020860161326b565b9290920192915050565b76020b1b1b2b9b9a1b7b73a3937b61d1030b1b1b7bab73a1604d1b8152601701614268818461421c565b7001034b99036b4b9b9b4b733903937b6329607d1b81526011019050612dd6818361421c565b60208082528101612dd68184613299565b805161049981613071565b6000602082840312156142bf576142bf600080fd5b612dd6838361429f565b602a8152602081017f5361666545524332303a204552433230206f7065726174696f6e20646964206e8152691bdd081cdd58d8d9595960b21b602082015290506137c9565b60208082528101610499816142c9565b60148152602081017314185d5cd8589b194e881b9bdd081c185d5cd95960621b815290506135a9565b602080825281016104998161431e565b8082018082111561049957610499613b8a565b634e487b7160e01b600052603260045260246000fd5b60008161438f5761438f613b8a565b506000190190565b60208082527f537472696e67733a20686578206c656e67746820696e73756666696369656e7491019081526135a9565b6020808252810161049981614397565b60268152602081017f416464726573733a20696e73756666696369656e742062616c616e636520666f8152651c8818d85b1b60d21b602082015290506137c9565b60208082528101610499816143d7565b610499818361421c565b601d8152602081017f416464726573733a2063616c6c20746f206e6f6e2d636f6e7472616374000000815290506135a9565b602080825281016104998161443256fea49807205ce4d355092ef5a8a18f56e8913cf4a201fbe287825b095693c217758c76bb4d0d0276699b16a2e9464b50cad045b0200b9bc632ae3a5d57077fa264a264697066735822122001f5534c91d293fbe2db77a35fe42bf97ae72b32e33a6099471f441191b1eb7c64736f6c63430008160033a26469706673582212209d2fd2f621da14c24c278ce16e6b31a8defeb6801aa4088e32b72869ba9304b664736f6c63430008160033",
  "linkReferences": {},
  "deployedLinkReferences": {}
}