{
  "_format": "hh-sol-artifact-1",
  "contractName": "EscrowFactory",
  "sourceName": "contracts/core/EscrowFactory.sol",
  "abi": [
    {
      "inputs": [
        {
          "internalType": "address",
          "name": "_platformWallet",
          "type": "address"
        },
        {
          "internalType": "uint256",
          "name": "_platformFee",
          "type": "uint256"
        },
        {
          "internalType": "address",
          "name": "_defaultAgent",
          "type": "address"
        },
        {
          "internalType": "address",
          "name": "_defaultArbiter",
          "type": "address"
        }
      ],
      "stateMutability": "nonpayable",
      "type": "constructor"
    },
    {
      "anonymous": false,
      "inputs": [
        {
          "indexed": true,
          "internalType": "address",
          "name": "agent",
          "type": "address"
        }
      ],
      "name": "DefaultAgentSet",
      "type": "event"
    },
    {
      "anonymous": false,
      "inputs": [
        {
          "indexed": true,
          "internalType": "address",
          "name": "arbiter",
          "type": "address"
        }
      ],
      "name": "DefaultArbiterSet",
      "type": "event"
    },
    {
      "anonymous": false,
      "inputs": [
        {
          "indexed": true,
          "internalType": "address",
          "name": "escrowContract",
          "type": "address"
        },
        {
          "indexed": true,
          "internalType": "address",
          "name": "creator",
          "type": "address"
        },
        {
          "indexed": true,
          "internalType": "uint256",
          "name": "escrowId",
          "type": "uint256"
        }
      ],
      "name": "EscrowContractDeployed",
      "type": "event"
    },
    {
      "anonymous": false,
      "inputs": [
        {
          "indexed": true,
          "internalType": "address",
          "name": "previousOwner",
          "type": "address"
        },
        {
          "indexed": true,
          "internalType": "address",
          "name": "newOwner",
          "type": "address"
        }
      ],
      "name": "OwnershipTransferred",
      "type": "event"
    },
    {
      "anonymous": false,
      "inputs": [
        {
          "indexed": false,
          "internalType": "uint256",
          "name": "newFee",
          "type": "uint256"
        }
      ],
      "name": "PlatformFeeUpdated",
      "type": "event"
    },
    {
      "anonymous": false,
      "inputs": [
        {
          "indexed": true,
          "internalType": "address",
          "name": "token",
          "type": "address"
        },
        {
          "indexed": false,
          "internalType": "bool",
          "name": "whitelisted",
          "type": "bool"
        }
      ],
      "name": "TokenWhitelisted",
      "type": "event"
    },
    {
      "inputs": [],
      "name": "MAX_PLATFORM_FEE",
      "outputs": [
        {
          "internalType": "uint256",
          "name": "",
          "type": "uint256"
        }
      ],
      "stateMutability": "view",
      "type": "function"
    },
    {
      "inputs": [
        {
          "components": [
            {
              "internalType": "address",
              "name": "buyer",
              "type": "address"
            },
            {
              "internalType": "address",
              "name": "seller",
              "type": "address"
            },
            {
              "internalType": "address",
              "name": "agent",
              "type": "address"
            },
            {
              "internalType": "address",
              "name": "arbiter",
              "type": "address"
            },
            {
              "internalType": "address",
              "name": "tokenAddress",
              "type": "address"
            },
            {
              "internalType": "uint256",
              "name": "depositAmount",
              "type": "uint256"
            },
            {
              "internalType": "uint256",
              "name": "agentFee",
              "type": "uint256"
            },
            {
              "internalType": "uint256",
              "name": "platformFee",
              "type": "uint256"
            },
            {
              "components": [
                {
                  "internalType": "string",
                  "name": "propertyId",
                  "type": "string"
                },
                {
                  "internalType": "string",
                  "name": "description",
                  "type": "string"
                },
                {
                  "internalType": "uint256",
                  "name": "salePrice",
                  "type": "uint256"
                },
                {
                  "internalType": "string",
                  "name": "documentHash",
                  "type": "string"
                },
                {
                  "internalType": "bool",
                  "name": "verified",
                  "type": "bool"
                }
              ],
              "internalType": "struct EscrowStructs.Property",
              "name": "property",
              "type": "tuple"
            },
            {
              "internalType": "uint256",
              "name": "depositDeadline",
              "type": "uint256"
            },
            {
              "internalType": "uint256",
              "name": "verificationDeadline",
              "type": "uint256"
            }
          ],
          "internalType": "struct EscrowStructs.CreateEscrowParams",
          "name": "params",
          "type": "tuple"
        }
      ],
      "name": "createEscrow",
      "outputs": [
        {
          "internalType": "address",
          "name": "escrowContract",
          "type": "address"
        },
        {
          "internalType": "uint256",
          "name": "escrowId",
          "type": "uint256"
        }
      ],
      "stateMutability": "nonpayable",
      "type": "function"
    },
    {
      "inputs": [],
      "name": "getDefaultAgent",
      "outputs": [
        {
          "internalType": "address",
          "name": "",
          "type": "address"
        }
      ],
      "stateMutability": "view",
      "type": "function"
    },
    {
      "inputs": [],
      "name": "getDefaultArbiter",
      "outputs": [
        {
          "internalType": "address",
          "name": "",
          "type": "address"
        }
      ],
      "stateMutability": "view",
      "type": "function"
    },
    {
      "inputs": [
        {
          "internalType": "uint256",
          "name": "escrowId",
          "type": "uint256"
        }
      ],
      "name": "getEscrowContract",
      "outputs": [
        {
          "internalType": "address",
          "name": "",
          "type": "address"
        }
      ],
      "stateMutability": "view",
      "type": "function"
    },
    {
      "inputs": [],
      "name": "getPlatformFee",
      "outputs": [
        {
          "internalType": "uint256",
          "name": "",
          "type": "uint256"
        }
      ],
      "stateMutability": "view",
      "type": "function"
    },
    {
      "inputs": [],
      "name": "getTotalEscrowContracts",
      "outputs": [
        {
          "internalType": "uint256",
          "name": "",
          "type": "uint256"
        }
      ],
      "stateMutability": "view",
      "type": "function"
    },
    {
      "inputs": [
        {
          "internalType": "address",
          "name": "token",
          "type": "address"
        }
      ],
      "name": "isTokenWhitelisted",
      "outputs": [
        {
          "internalType": "bool",
          "name": "",
          "type": "bool"
        }
      ],
      "stateMutability": "view",
      "type": "function"
    },
    {
      "inputs": [],
      "name": "owner",
      "outputs": [
        {
          "internalType": "address",
          "name": "",
          "type": "address"
        }
      ],
      "stateMutability": "view",
      "type": "function"
    },
    {
      "inputs": [],
      "name": "platformWallet",
      "outputs": [
        {
          "internalType": "address",
          "name": "",
          "type": "address"
        }
      ],
      "stateMutability": "view",
      "type": "function"
    },
    {
      "inputs": [],
      "name": "renounceOwnership",
      "outputs": [],
      "stateMutability": "nonpayable",
      "type": "function"
    },
    {
      "inputs": [
        {
          "internalType": "address",
          "name": "agent",
          "type": "address"
        }
      ],
      "name": "setDefaultAgent",
      "outputs": [],
      "stateMutability": "nonpayable",
      "type": "function"
    },
    {
      "inputs": [
        {
          "internalType": "address",
          "name": "arbiter",
          "type": "address"
        }
      ],
      "name": "setDefaultArbiter",
      "outputs": [],
      "stateMutability": "nonpayable",
      "type": "function"
    },
    {
      "inputs": [
        {
          "internalType": "uint256",
          "name": "fee",
          "type": "uint256"
        }
      ],
      "name": "setPlatformFee",
      "outputs": [],
      "stateMutability": "nonpayable",
      "type": "function"
    },
    {
      "inputs": [
        {
          "internalType": "address",
          "name": "newOwner",
          "type": "address"
        }
      ],
      "name": "transferOwnership",
      "outputs": [],
      "stateMutability": "nonpayable",
      "type": "function"
    },
    {
      "inputs": [
        {
          "internalType": "address",
          "name": "token",
          "type": "address"
        },
        {
          "internalType": "bool",
          "name": "whitelisted",
          "type": "bool"
        }
      ],
      "name": "whitelistToken",
      "outputs": [],
      "stateMutability": "nonpayable",
      "type": "function"
    },
    {
      "inputs": [
        {
          "internalType": "address",
          "name": "",
          "type": "address"
        }
      ],
      "name": "whitelistedTokens",
      "outputs": [
        {
          "internalType": "bool",
          "name": "",
          "type": "bool"
        }
      ],
      "stateMutability": "view",
      "type": "function"
    }
  ],
  "bytecode": "0x60a06040523480156200001157600080fd5b506040516200d0f33803806200d0f38339818101604052810190620000379190620004b1565b620000576200004b6200034b60201b60201c565b6200035360201b60201c565b600180819055506200007a67dbd91f4ae273ac1060c01b6200041760201b60201c565b62000096674053f651f3ca585c60c01b6200041760201b60201c565b620000b267a35319c8fd47a05660c01b6200041760201b60201c565b620000ce679da324705543f62260c01b6200041760201b60201c565b600073ffffffffffffffffffffffffffffffffffffffff168473ffffffffffffffffffffffffffffffffffffffff160362000140576040517f08c379a000000000000000000000000000000000000000000000000000000000815260040162000137906200057c565b60405180910390fd5b6200015c67be219b95c6d5bbb360c01b6200041760201b60201c565b62000178679b1078adcc48849660c01b6200041760201b60201c565b6200019467880b284601ba28cb60c01b6200041760201b60201c565b620001b067805c18f7d75ef86b60c01b6200041760201b60201c565b6101f4831115620001f8576040517f08c379a0000000000000000000000000000000000000000000000000000000008152600401620001ef90620005ee565b60405180910390fd5b620002146722b745a3308a821e60c01b6200041760201b60201c565b6200023067e0478602b44a693860c01b6200041760201b60201c565b8373ffffffffffffffffffffffffffffffffffffffff1660808173ffffffffffffffffffffffffffffffffffffffff168152505062000280676f0531ebe94d55e660c01b6200041760201b60201c565b82600681905550620002a3674650db185b70866b60c01b6200041760201b60201c565b81600460006101000a81548173ffffffffffffffffffffffffffffffffffffffff021916908373ffffffffffffffffffffffffffffffffffffffff1602179055506200030067245e9fafa41358a160c01b6200041760201b60201c565b80600560006101000a81548173ffffffffffffffffffffffffffffffffffffffff021916908373ffffffffffffffffffffffffffffffffffffffff1602179055505050505062000610565b600033905090565b60008060009054906101000a900473ffffffffffffffffffffffffffffffffffffffff169050816000806101000a81548173ffffffffffffffffffffffffffffffffffffffff021916908373ffffffffffffffffffffffffffffffffffffffff1602179055508173ffffffffffffffffffffffffffffffffffffffff168173ffffffffffffffffffffffffffffffffffffffff167f8be0079c531659141344cd1fd0a4f28419497f9722a3daafe3b4186f6b6457e060405160405180910390a35050565b50565b600080fd5b600060018060a01b0382169050919050565b60006200043e826200041f565b9050919050565b620004508162000431565b81146200045c57600080fd5b50565b600081519050620004708162000445565b92915050565b6000819050919050565b6200048b8162000476565b81146200049757600080fd5b50565b600081519050620004ab8162000480565b92915050565b60008060008060808587031215620004ce57620004cd6200041a565b5b620004dd86600087016200045f565b9350620004ee86602087016200049a565b9250620004ff86604087016200045f565b91506200051086606087016200045f565b905092959194509250565b818152600060208201905092915050565b7f496e76616c696420706c6174666f726d2077616c6c6574000000000000000000600082015250565b620005626017826200051b565b90506200056f816200052c565b6000602082019050919050565b60006020820190508181036000830152620005978162000555565b9050919050565b7f506c6174666f726d2066656520746f6f20686967680000000000000000000000600082015250565b620005d46015826200051b565b9050620005e1816200059e565b6000602082019050919050565b600060208201905081810360008301526200060981620005c7565b9050919050565b60805161cac06200063360003960008181610ecc01526117d6015261cac06000f3fe60806040523480156200001157600080fd5b5060043610620000ee5760003560e01c80630ffb1d8b14620000f357806312e8e2c314620001135780632eb73a8814620001335780633998a68114620001535780634bad78db1462000175578063603c50d514620001ab5780636ea8bc1014620001cd578063715018a614620001ef5780637953eec914620001fb5780638da5cb5b146200021d5780639d5e0551146200023f578063afa9545d1462000276578063b5af090f1462000298578063bbdf724314620002ce578063daf9c21014620002ee578063f2fde38b1462000324578063fa2af9da1462000344575b600080fd5b6200011160048036038101906200010b919062001a58565b62000366565b005b6200013160048036038101906200012b919062001ad6565b62000569565b005b6200015160048036038101906200014b919062001b06565b620006da565b005b6200015d620007ef565b6040516200016c919062001b47565b60405180910390f35b6200019360048036038101906200018d919062001ad6565b620007f5565b604051620001a2919062001b75565b60405180910390f35b620001b562000913565b604051620001c4919062001b75565b60405180910390f35b620001d76200097f565b604051620001e6919062001b47565b60405180910390f35b620001f9620009cb565b005b62000205620009e3565b60405162000214919062001b75565b60405180910390f35b6200022762000a4f565b60405162000236919062001b75565b60405180910390f35b6200025d600480360381019062000257919062001bb5565b62000a78565b6040516200026d92919062001c04565b60405180910390f35b6200028062001531565b6040516200028f919062001b47565b60405180910390f35b620002b66004803603810190620002b0919062001b06565b6200157d565b604051620002c5919062001c42565b60405180910390f35b620002ec6004803603810190620002e6919062001b06565b62001615565b005b6200030c600480360381019062000306919062001b06565b6200172a565b6040516200031b919062001c42565b60405180910390f35b6200034260048036038101906200033c919062001b06565b6200174a565b005b6200034e620017d4565b6040516200035d919062001b75565b60405180910390f35b6200037c6781a5beec189d4d8860c01b620017f8565b62000386620017fb565b6200039c6792bf975ed83cd3e460c01b620017f8565b620003b267ed62aeb4dc61748760c01b620017f8565b620003c8677ce7b685bb9c14fe60c01b620017f8565b620003de67900e288ec7ed7bdc60c01b620017f8565b620003f4670f58a04c82b269ba60c01b620017f8565b600073ffffffffffffffffffffffffffffffffffffffff168273ffffffffffffffffffffffffffffffffffffffff160362000466576040517f08c379a00000000000000000000000000000000000000000000000000000000081526004016200045d9062001cc0565b60405180910390fd5b6200047c670b553ec8099d3ec760c01b620017f8565b6200049267fcce106b0457ce5a60c01b620017f8565b80600360008473ffffffffffffffffffffffffffffffffffffffff1673ffffffffffffffffffffffffffffffffffffffff16815260200190815260200160002060006101000a81548160ff021916908315150217905550620004ff6754b22f4cf54236f360c01b620017f8565b62000515673c4c2985af9f08da60c01b620017f8565b8173ffffffffffffffffffffffffffffffffffffffff167fef81a9943b96c8df4ef243401c9bf5159146166211356898b52d382086168d92826040516200055d919062001c42565b60405180910390a25050565b6200057f677deb9b0662fa700860c01b620017f8565b62000589620017fb565b6200059f670395644934101a8960c01b620017f8565b620005b567dbf9cde1c980362860c01b620017f8565b620005cb678bca07cb57bee20360c01b620017f8565b620005e16727c765f88962c33b60c01b620017f8565b620005f767cc1b61ed16a12a0660c01b620017f8565b6101f48111156200063f576040517f08c379a0000000000000000000000000000000000000000000000000000000008152600401620006369062001d32565b60405180910390fd5b62000655679ab68e487c439e4f60c01b620017f8565b6200066b672ce41a0453f8b31060c01b620017f8565b806006819055506200068867a43b47cbd2dfe82760c01b620017f8565b6200069e672d887c88d413b57160c01b620017f8565b7f45610d581145924dd7090a5017e5f2b1d6f42213bb2e95707ff86846bbfcb1ca81604051620006cf919062001b47565b60405180910390a150565b620006f06702e90cc11e8d5b4c60c01b620017f8565b620006fa620017fb565b6200071067e379f9e82758f05260c01b620017f8565b62000726675c123994088b452260c01b620017f8565b6200073c675a9eab0e36786e5c60c01b620017f8565b80600460006101000a81548173ffffffffffffffffffffffffffffffffffffffff021916908373ffffffffffffffffffffffffffffffffffffffff1602179055506200079367707c4fcd7aa3020360c01b620017f8565b620007a967b7c29929c738ed0760c01b620017f8565b8073ffffffffffffffffffffffffffffffffffffffff167f9f0c49ac6da1b1d3f7b753b41ba9cdc631d714821b72e79e413399440f87181360405160405180910390a250565b6101f481565b60006200080d67aef121f1749cbd7560c01b620017f8565b6200082367587d84497cac7b6760c01b620017f8565b620008396760fa940302825e1b60c01b620017f8565b6200084f674480d1a01417769260c01b620017f8565b600754821062000896576040517f08c379a00000000000000000000000000000000000000000000000000000000081526004016200088d9062001da4565b60405180910390fd5b620008ac67f418c887ae7b679760c01b620017f8565b620008c26745b1f43b280c4c3160c01b620017f8565b620008d8675c9c1527c627af3f60c01b620017f8565b6002600083815260200190815260200160002060009054906101000a900473ffffffffffffffffffffffffffffffffffffffff169050919050565b60006200092b674505036862c149ca60c01b620017f8565b6200094167c91639dd7a37d91460c01b620017f8565b6200095767203f9f1109f11a5860c01b620017f8565b600460009054906101000a900473ffffffffffffffffffffffffffffffffffffffff16905090565b600062000997679d621854b3f8dca560c01b620017f8565b620009ad67ecf3709c7d5c6b7560c01b620017f8565b620009c36747a9779fbdba35a760c01b620017f8565b600654905090565b620009d5620017fb565b620009e1600062001880565b565b6000620009fb670c88bd8c1390c7d760c01b620017f8565b62000a1167e21755f8e74a050260c01b620017f8565b62000a276756bd4a3fd3f916bd60c01b620017f8565b600560009054906101000a900473ffffffffffffffffffffffffffffffffffffffff16905090565b60008060009054906101000a900473ffffffffffffffffffffffffffffffffffffffff16905090565b60008062000a9167a0196719b514a85860c01b620017f8565b62000a9b62001944565b62000ab167bd7623b967d5ac7860c01b620017f8565b62000ac7678db80a26122ab64760c01b620017f8565b62000add67b0da91b23e68c78d60c01b620017f8565b62000af3676dd6a524a49f1c6e60c01b620017f8565b62000b096783d7cc583bf3bfa160c01b620017f8565b6003600084608001602081019062000b22919062001b06565b73ffffffffffffffffffffffffffffffffffffffff1673ffffffffffffffffffffffffffffffffffffffff16815260200190815260200160002060009054906101000a900460ff1662000bac576040517f08c379a000000000000000000000000000000000000000000000000000000000815260040162000ba39062001e16565b60405180910390fd5b62000bc26783d1851427722fc160c01b620017f8565b62000bd867aa05f64e8c90f3c860c01b620017f8565b62000bee67b807765e45efd63460c01b620017f8565b60008362000bfc906200218d565b905062000c14676d1d519df1a29afb60c01b620017f8565b62000c2a677be9ad2bcdab1cdf60c01b620017f8565b600073ffffffffffffffffffffffffffffffffffffffff16816040015173ffffffffffffffffffffffffffffffffffffffff160362000cef5762000c7967626863035a03bb7860c01b620017f8565b62000c8f67ebca88e2cc3676a060c01b620017f8565b600460009054906101000a900473ffffffffffffffffffffffffffffffffffffffff16816040019073ffffffffffffffffffffffffffffffffffffffff16908173ffffffffffffffffffffffffffffffffffffffff168152505062000d06565b62000d0567f0111aaad60d22b460c01b620017f8565b5b62000d1c6777aa25e7be2b8f0d60c01b620017f8565b62000d3267f98e80b528c1b0ea60c01b620017f8565b600073ffffffffffffffffffffffffffffffffffffffff16816060015173ffffffffffffffffffffffffffffffffffffffff160362000df75762000d81676144ef23483b274960c01b620017f8565b62000d976743a73e8de73de23560c01b620017f8565b600560009054906101000a900473ffffffffffffffffffffffffffffffffffffffff16816060019073ffffffffffffffffffffffffffffffffffffffff16908173ffffffffffffffffffffffffffffffffffffffff168152505062000e0e565b62000e0d674895fb6869ed9e0060c01b620017f8565b5b62000e2467389843c163b6e46a60c01b620017f8565b62000e3a67df579b04dd6a72b660c01b620017f8565b60008160e001510362000e855762000e5d67cadcd81bcbfcf2b260c01b620017f8565b62000e73672bce239e0ca13ed160c01b620017f8565b6006548160e001818152505062000e9c565b62000e9b674faa007d64024f2560c01b620017f8565b5b62000eb267a3bcbcd650fbcd6760c01b620017f8565b62000ec867c4c103da6fa9f4b360c01b620017f8565b60007f00000000000000000000000000000000000000000000000000000000000000008260e0015160405162000efe90620019a7565b62000f0b92919062001c04565b604051809103906000f08015801562000f28573d6000803e3d6000fd5b50905062000f4167938ce2f7399ca2e460c01b620017f8565b80935062000f5a67b073547e388e7d0360c01b620017f8565b62000f706718a1d79642ca32ca60c01b620017f8565b8073ffffffffffffffffffffffffffffffffffffffff16630ffb1d8b836080015160016040518363ffffffff1660e01b815260040162000fb2929190620021a2565b600060405180830381600087803b15801562000fcd57600080fd5b505af115801562000fe2573d6000803e3d6000fd5b5050505062000ffc6789ef5b331a6b94a760c01b620017f8565b620010126749ae6cd11597547e60c01b620017f8565b600073ffffffffffffffffffffffffffffffffffffffff16826040015173ffffffffffffffffffffffffffffffffffffffff1614620011795762001061678965d448801c6fb560c01b620017f8565b6200107767447298f9aefef83260c01b620017f8565b6200108d67361aab75b6395f8160c01b620017f8565b8073ffffffffffffffffffffffffffffffffffffffff16632f2ff15d8273ffffffffffffffffffffffffffffffffffffffff166322459e186040518163ffffffff1660e01b8152600401602060405180830381865afa158015620010f5573d6000803e3d6000fd5b505050506040513d601f19601f820116820180604052508101906200111b919062002200565b84604001516040518363ffffffff1660e01b81526004016200113f92919062002241565b600060405180830381600087803b1580156200115a57600080fd5b505af11580156200116f573d6000803e3d6000fd5b5050505062001190565b6200118f67f4db5203aeaf838860c01b620017f8565b5b620011a667490f16483d2cc67260c01b620017f8565b620011bc67fa8be9e8972f497c60c01b620017f8565b600073ffffffffffffffffffffffffffffffffffffffff16826060015173ffffffffffffffffffffffffffffffffffffffff161462001323576200120b675e8a9952575dc9d960c01b620017f8565b620012216798413f76b3672c5860c01b620017f8565b6200123767bbd3fe48e226d46d60c01b620017f8565b8073ffffffffffffffffffffffffffffffffffffffff16632f2ff15d8273ffffffffffffffffffffffffffffffffffffffff16634d104adf6040518163ffffffff1660e01b8152600401602060405180830381865afa1580156200129f573d6000803e3d6000fd5b505050506040513d601f19601f82011682018060405250810190620012c5919062002200565b84606001516040518363ffffffff1660e01b8152600401620012e992919062002241565b600060405180830381600087803b1580156200130457600080fd5b505af115801562001319573d6000803e3d6000fd5b505050506200133a565b6200133967df9b779499d43fa060c01b620017f8565b5b6200135067fef4ca1f9584471f60c01b620017f8565b8073ffffffffffffffffffffffffffffffffffffffff16639d5e0551836040518263ffffffff1660e01b81526004016200138b919062002479565b6020604051808303816000875af1158015620013ab573d6000803e3d6000fd5b505050506040513d601f19601f82011682018060405250810190620013d19190620024b4565b9250620013e9672f2f4824d30fcfcd60c01b620017f8565b8360026000600754815260200190815260200160002060006101000a81548173ffffffffffffffffffffffffffffffffffffffff021916908373ffffffffffffffffffffffffffffffffffffffff160217905550620014536758eff109bcf7893860c01b620017f8565b600760008154809291906200146890620024fa565b91905055506200148367344ed2f71f8a72f560c01b620017f8565b6200149967fefdd431ffbae8f260c01b620017f8565b823373ffffffffffffffffffffffffffffffffffffffff168573ffffffffffffffffffffffffffffffffffffffff167ff04881845615a90c5228ceb3942839403fea454de5e4b34dc7266a641c5839e760405160405180910390a46200150a67d6b428a8acae1f9560c01b620017f8565b6200152067536e03313c3e0ebd60c01b620017f8565b50506200152c62001996565b915091565b600062001549678adb6673214cec3560c01b620017f8565b6200155f67d73969a82871878460c01b620017f8565b6200157567163085003b9bbbc660c01b620017f8565b600754905090565b6000620015956708918758691b16e160c01b620017f8565b620015ab671a076d14ff6154d160c01b620017f8565b620015c167982d1dcb3d23a52860c01b620017f8565b600360008373ffffffffffffffffffffffffffffffffffffffff1673ffffffffffffffffffffffffffffffffffffffff16815260200190815260200160002060009054906101000a900460ff169050919050565b6200162b67cca073ac4eb4947f60c01b620017f8565b62001635620017fb565b6200164b67ee73ece15000ede560c01b620017f8565b6200166167e7927fe467e9ac3160c01b620017f8565b6200167767b0d170ae79b6b23b60c01b620017f8565b80600560006101000a81548173ffffffffffffffffffffffffffffffffffffffff021916908373ffffffffffffffffffffffffffffffffffffffff160217905550620016ce67f33ca055cf533e8860c01b620017f8565b620016e467fda440f461a84b3560c01b620017f8565b8073ffffffffffffffffffffffffffffffffffffffff167f2151be18e1a9ef97fad5998c8aa002234f4140b219f553eabf2dbdd21c23a39660405160405180910390a250565b60036020528060005260406000206000915054906101000a900460ff1681565b62001754620017fb565b600073ffffffffffffffffffffffffffffffffffffffff168173ffffffffffffffffffffffffffffffffffffffff1603620017c6576040517f08c379a0000000000000000000000000000000000000000000000000000000008152600401620017bd906200259e565b60405180910390fd5b620017d18162001880565b50565b7f000000000000000000000000000000000000000000000000000000000000000081565b50565b620018056200199f565b73ffffffffffffffffffffffffffffffffffffffff166200182562000a4f565b73ffffffffffffffffffffffffffffffffffffffff16146200187e576040517f08c379a0000000000000000000000000000000000000000000000000000000008152600401620018759062002610565b60405180910390fd5b565b60008060009054906101000a900473ffffffffffffffffffffffffffffffffffffffff169050816000806101000a81548173ffffffffffffffffffffffffffffffffffffffff021916908373ffffffffffffffffffffffffffffffffffffffff1602179055508173ffffffffffffffffffffffffffffffffffffffff168173ffffffffffffffffffffffffffffffffffffffff167f8be0079c531659141344cd1fd0a4f28419497f9722a3daafe3b4186f6b6457e060405160405180910390a35050565b6002600154036200198c576040517f08c379a0000000000000000000000000000000000000000000000000000000008152600401620019839062002682565b60405180910390fd5b6002600181905550565b60018081905550565b600033905090565b61a3e680620026a583390190565b6000604051905090565b600080fd5b600060018060a01b0382169050919050565b6000620019e382620019c4565b9050919050565b620019f581620019d6565b811462001a0157600080fd5b50565b60008135905062001a1581620019ea565b92915050565b60008115159050919050565b62001a328162001a1b565b811462001a3e57600080fd5b50565b60008135905062001a528162001a27565b92915050565b6000806040838503121562001a725762001a71620019bf565b5b62001a81846000850162001a04565b915062001a92846020850162001a41565b90509250929050565b6000819050919050565b62001ab08162001a9b565b811462001abc57600080fd5b50565b60008135905062001ad08162001aa5565b92915050565b60006020828403121562001aef5762001aee620019bf565b5b62001afe836000840162001abf565b905092915050565b60006020828403121562001b1f5762001b1e620019bf565b5b62001b2e836000840162001a04565b905092915050565b62001b418162001a9b565b82525050565b600060208201905062001b5e600083018462001b36565b92915050565b62001b6f81620019d6565b82525050565b600060208201905062001b8c600083018462001b64565b92915050565b6000610160828403121562001bac5762001bab620019bf565b5b81905092915050565b60006020828403121562001bce5762001bcd620019bf565b5b600082013560018060401b0381111562001bed5762001bec620019bf565b5b62001bfb8482850162001b92565b91505092915050565b600060408201905062001c1b600083018562001b64565b62001c2a602083018462001b36565b9392505050565b62001c3c8162001a1b565b82525050565b600060208201905062001c59600083018462001c31565b92915050565b818152600060208201905092915050565b7f496e76616c696420746f6b656e20616464726573730000000000000000000000600082015250565b62001ca660158262001c5f565b905062001cb38162001c70565b6000602082019050919050565b6000602082019050818103600083015262001cdb8162001c99565b9050919050565b7f46656520746f6f20686967680000000000000000000000000000000000000000600082015250565b62001d18600c8262001c5f565b905062001d258162001ce2565b6000602082019050919050565b6000602082019050818103600083015262001d4d8162001d0b565b9050919050565b7f496e76616c696420657363726f77204944000000000000000000000000000000600082015250565b62001d8a60118262001c5f565b905062001d978162001d54565b6000602082019050919050565b6000602082019050818103600083015262001dbf8162001d7d565b9050919050565b7f546f6b656e206e6f742077686974656c69737465640000000000000000000000600082015250565b62001dfc60158262001c5f565b905062001e098162001dc6565b6000602082019050919050565b6000602082019050818103600083015262001e318162001def565b9050919050565b6000601f19601f8301169050919050565b634e487b7160e01b600052604160045260246000fd5b62001e6a8262001e38565b810181811060018060401b038211171562001e8a5762001e8962001e49565b5b80604052505050565b600062001e9f620019b5565b905062001ead828262001e5f565b919050565b600060018060401b0382111562001ece5762001ecd62001e49565b5b62001ed98262001e38565b9050602081019050919050565b82818337506000828201525050565b600062001f0c62001f068462001eb2565b62001e93565b905082815283838301111562001f275762001f26620019bf565b5b62001f3783602083018462001ee6565b9392505050565b600082601f83011262001f565762001f55620019bf565b5b62001f678383356020850162001ef5565b905092915050565b600060a0828403121562001f885762001f87620019bf565b5b62001f9460a062001e93565b9050600082013560018060401b0381111562001fb55762001fb4620019bf565b5b62001fc38482850162001f3e565b600083015250602082013560018060401b0381111562001fe85762001fe7620019bf565b5b62001ff68482850162001f3e565b6020830152506200200b836040840162001abf565b6040820152606082013560018060401b038111156200202f576200202e620019bf565b5b6200203d8482850162001f3e565b60608301525062002052836080840162001a41565b608082015292915050565b60006101608284031215620020775762002076620019bf565b5b6200208461016062001e93565b905062002095836000840162001a04565b6000820152620020a9836020840162001a04565b6020820152620020bd836040840162001a04565b6040820152620020d1836060840162001a04565b6060820152620020e5836080840162001a04565b6080820152620020f98360a0840162001abf565b60a08201526200210d8360c0840162001abf565b60c0820152620021218360e0840162001abf565b60e082015261010082013560018060401b03811115620021465762002145620019bf565b5b620021548482850162001f6f565b610100830152506101206200216c8482850162001abf565b8183015250610140620021828482850162001abf565b818301525092915050565b60006200219b36836200205d565b9050919050565b6000604082019050620021b9600083018562001b64565b620021c8602083018462001c31565b9392505050565b620021da8162001a9b565b8114620021e657600080fd5b50565b600081519050620021fa81620021cf565b92915050565b600060208284031215620022195762002218620019bf565b5b620022288360008401620021e9565b905092915050565b6200223b8162001a9b565b82525050565b600060408201905062002258600083018562002230565b62002267602083018462001b64565b9392505050565b600081519050919050565b60005b83811015620022995780820151818401526020810190506200227c565b50600083830152505050565b6000620022b2826200226e565b620022be818562001c5f565b9350620022d081856020860162002279565b620022db8162001e38565b840191505092915050565b600060a0830160008301518482036000860152620023058282620022a5565b91505060208301518482036020860152620023218282620022a5565b915050604083015162002338604086018262001b36565b5060608301518482036060860152620023528282620022a5565b915050608083015162002369608086018262001c31565b508091505092915050565b6000610160830160008301516200238f600086018262001b64565b506020830151620023a4602086018262001b64565b506040830151620023b9604086018262001b64565b506060830151620023ce606086018262001b64565b506080830151620023e3608086018262001b64565b5060a0830151620023f860a086018262001b36565b5060c08301516200240d60c086018262001b36565b5060e08301516200242260e086018262001b36565b506101008301518482036101008601526200243e8282620022e6565b9150506101208301516200245761012086018262001b36565b506101408301516200246e61014086018262001b36565b508091505092915050565b6000602082019050818103600083015262002495818462002374565b905092915050565b600081519050620024ae8162001aa5565b92915050565b600060208284031215620024cd57620024cc620019bf565b5b620024dc83600084016200249d565b905092915050565b634e487b7160e01b600052601160045260246000fd5b620025058162001a9b565b90506000801982036200251d576200251c620024e4565b5b600182019050919050565b7f4f776e61626c653a206e6577206f776e657220697320746865207a65726f206160008201527f6464726573730000000000000000000000000000000000000000000000000000602082015250565b6200258460268262001c5f565b9050620025918162002528565b6000604082019050919050565b60006020820190508181036000830152620025b98162002577565b9050919050565b7f4f776e61626c653a2063616c6c6572206973206e6f7420746865206f776e6572600082015250565b620025f660208262001c5f565b90506200260381620025c0565b6000602082019050919050565b600060208201905081810360008301526200262b81620025e9565b9050919050565b7f5265656e7472616e637947756172643a207265656e7472616e742063616c6c00600082015250565b62002668601f8262001c5f565b9050620026758162002632565b6000602082019050919050565b600060208201905081810360008301526200269d816200265b565b905091905056fe60806040523480156200001157600080fd5b506040516200a3e63803806200a3e683398181016040528101906200003791906200054e565b60016000819055506000600160006101000a81548160ff0219169083151502179055506200007667525d3ec15eb8f39f60c01b6200034f60201b60201c565b620000926747a9883a72f63e2960c01b6200034f60201b60201c565b620000ae677831c96c3315b30260c01b6200034f60201b60201c565b620000ca67928af3b5eff7945c60c01b6200034f60201b60201c565b600073ffffffffffffffffffffffffffffffffffffffff168273ffffffffffffffffffffffffffffffffffffffff16036200013c576040517f08c379a00000000000000000000000000000000000000000000000000000000081526004016200013390620005f2565b60405180910390fd5b6200015867b375cfbc03fe8d8d60c01b6200034f60201b60201c565b6200017467e29d02586e31a8e960c01b6200034f60201b60201c565b6200019067aea2a551dc15174060c01b6200034f60201b60201c565b620001ac67333c33107a684cd460c01b6200034f60201b60201c565b6101f4811115620001f4576040517f08c379a0000000000000000000000000000000000000000000000000000000008152600401620001eb9062000664565b60405180910390fd5b6200021067d20e1def823f54b460c01b6200034f60201b60201c565b6200022c674dc281dac384204060c01b6200034f60201b60201c565b81600860006101000a81548173ffffffffffffffffffffffffffffffffffffffff021916908373ffffffffffffffffffffffffffffffffffffffff16021790555062000289675262411560b55f3560c01b6200034f60201b60201c565b80600781905550620002ac67fbb018ae8fe3b73e60c01b6200034f60201b60201c565b620002c86791c5d654bf20853d60c01b6200034f60201b60201c565b620002dd6000801b336200035260201b60201c565b620002f96777d1dfabe709b21960c01b6200034f60201b60201c565b62000315671404436f9cb9397360c01b6200034f60201b60201c565b620003477fa49807205ce4d355092ef5a8a18f56e8913cf4a201fbe287825b095693c21775336200035260201b60201c565b505062000686565b50565b6200036482826200044460201b60201c565b620004405760016002600084815260200190815260200160002060000160008373ffffffffffffffffffffffffffffffffffffffff1673ffffffffffffffffffffffffffffffffffffffff16815260200190815260200160002060006101000a81548160ff021916908315150217905550620003e5620004af60201b60201c565b73ffffffffffffffffffffffffffffffffffffffff168173ffffffffffffffffffffffffffffffffffffffff16837f2f8788117e7eff1d82e926ec794901d17c78024a50270940304540a733656f0d60405160405180910390a45b5050565b60006002600084815260200190815260200160002060000160008373ffffffffffffffffffffffffffffffffffffffff1673ffffffffffffffffffffffffffffffffffffffff16815260200190815260200160002060009054906101000a900460ff16905092915050565b600033905090565b600080fd5b600060018060a01b0382169050919050565b6000620004db82620004bc565b9050919050565b620004ed81620004ce565b8114620004f957600080fd5b50565b6000815190506200050d81620004e2565b92915050565b6000819050919050565b620005288162000513565b81146200053457600080fd5b50565b60008151905062000548816200051d565b92915050565b60008060408385031215620005685762000567620004b7565b5b620005778460008501620004fc565b915062000588846020850162000537565b90509250929050565b818152600060208201905092915050565b7f496e76616c696420706c6174666f726d2077616c6c6574000000000000000000600082015250565b620005d860178262000591565b9050620005e581620005a2565b6000602082019050919050565b600060208201905081810360008301526200060d81620005cb565b9050919050565b7f506c6174666f726d2066656520746f6f20686967680000000000000000000000600082015250565b6200064a60158262000591565b9050620006578162000614565b6000602082019050919050565b600060208201905081810360008301526200067f816200063d565b9050919050565b619d5080620006966000396000f3fe608060405234801561001057600080fd5b50600436106101a15760003560e01c806301ffc9a7146101a657806308b88af1146101d65780630ffb1d8b1461020657806312e8e2c3146102225780631e31a6dd1461023e57806322459e1814610248578063248a9ca3146102665780632840662d146102965780632f2ff15d146102b257806336568abe146102ce57806339292763146102ea5780633998a681146103065780633a49995b146103245780633b76594d146103545780633f4ba83a146103705780633f4dbda21461037a57806346b6cfd3146103985780634d104adf146103b45780634d68282f146103d25780635aef573c146103ee5780635c975abb1461040a57806375b238fc146104285780637d19e596146104465780638456cb591461047657806391d14854146104805780639d5e0551146104b0578063a217fddf146104e0578063b138821e146104fe578063b49b0cb31461051a578063cdd78cfc14610536578063d547741f14610554578063daf9c21014610570578063e0182436146105a0578063e1f1c4a7146105bc578063fa2af9da146105da575b600080fd5b6101c060048036038101906101bb9190617bd6565b6105f8565b6040516101cd9190617c1c565b60405180910390f35b6101f060048036038101906101eb9190617c6d565b610672565b6040516101fd9190617c1c565b60405180910390f35b610220600480360381019061021b9190617d14565b610dc6565b005b61023c60048036038101906102379190617c6d565b610e9c565b005b610246610fb6565b005b6102506115b1565b60405161025d9190617d5f565b60405180910390f35b610280600480360381019061027b9190617da6565b6115d5565b60405161028d9190617d5f565b60405180910390f35b6102b060048036038101906102ab9190617e25565b6115f5565b005b6102cc60048036038101906102c79190617e93565b611cdf565b005b6102e860048036038101906102e39190617e93565b611d00565b005b61030460048036038101906102ff9190617c6d565b611d83565b005b61030e611fd2565b60405161031b9190617ede565b60405180910390f35b61033e60048036038101906103399190617c6d565b611fd8565b60405161034b9190617f57565b60405180910390f35b61036e60048036038101906103699190617c6d565b612127565b005b6103786126ac565b005b610382612745565b60405161038f9190617ede565b60405180910390f35b6103b260048036038101906103ad9190617c6d565b61278b565b005b6103bc612d21565b6040516103c99190617d5f565b60405180910390f35b6103ec60048036038101906103e79190617c6d565b612d45565b005b61040860048036038101906104039190617f72565b613524565b005b610412614361565b60405161041f9190617c1c565b60405180910390f35b610430614378565b60405161043d9190617d5f565b60405180910390f35b610460600480360381019061045b9190617c6d565b61439c565b60405161046d919061827a565b60405180910390f35b61047e6149ed565b005b61049a60048036038101906104959190617e93565b614a86565b6040516104a79190617c1c565b60405180910390f35b6104ca60048036038101906104c591906182bc565b614af1565b6040516104d79190617ede565b60405180910390f35b6104e8615701565b6040516104f59190617d5f565b60405180910390f35b61051860048036038101906105139190617c6d565b615708565b005b610534600480360381019061052f9190618303565b615f7f565b005b61053e61603d565b60405161054b9190617ede565b60405180910390f35b61056e60048036038101906105699190617e93565b616043565b005b61058a6004803603810190610585919061833f565b616064565b6040516105979190617c1c565b60405180910390f35b6105ba60048036038101906105b59190617c6d565b616084565b005b6105c4616bf6565b6040516105d19190617ede565b60405180910390f35b6105e2616bfc565b6040516105ef919061836a565b60405180910390f35b60007f7965db0b000000000000000000000000000000000000000000000000000000007bffffffffffffffffffffffffffffffffffffffffffffffffffffffff1916827bffffffffffffffffffffffffffffffffffffffffffffffffffffffff1916148061066b575061066a82616c22565b5b9050919050565b60006106886709d5e42c910fcba060c01b616c8c565b8161069d677d57dec5f9150b3460c01b616c8c565b6106b16726010ffe836c44ab60c01b616c8c565b6106c56774cac189923e6f5960c01b616c8c565b6106d967dd8748dc1881bb0760c01b616c8c565b600654811061071d576040517f08c379a0000000000000000000000000000000000000000000000000000000008152600401610714906183d1565b60405180910390fd5b6107316787210bbac79840a260c01b616c8c565b61074567f09ab0a93bc2471b60c01b616c8c565b610759673e8a1355db60d8e560c01b616c8c565b61076d675a1999b3b4a7646960c01b616c8c565b610781675d9bdd90d212b46e60c01b616c8c565b61079567ceb392a7282f27ea60c01b616c8c565b60006003600085815260200190815260200160002060405180610240016040529081600082015481526020016001820160009054906101000a900473ffffffffffffffffffffffffffffffffffffffff1673ffffffffffffffffffffffffffffffffffffffff1673ffffffffffffffffffffffffffffffffffffffff1681526020016002820160009054906101000a900473ffffffffffffffffffffffffffffffffffffffff1673ffffffffffffffffffffffffffffffffffffffff1673ffffffffffffffffffffffffffffffffffffffff1681526020016003820160009054906101000a900473ffffffffffffffffffffffffffffffffffffffff1673ffffffffffffffffffffffffffffffffffffffff1673ffffffffffffffffffffffffffffffffffffffff1681526020016004820160009054906101000a900473ffffffffffffffffffffffffffffffffffffffff1673ffffffffffffffffffffffffffffffffffffffff1673ffffffffffffffffffffffffffffffffffffffff1681526020016005820160009054906101000a900473ffffffffffffffffffffffffffffffffffffffff1673ffffffffffffffffffffffffffffffffffffffff1673ffffffffffffffffffffffffffffffffffffffff1681526020016006820154815260200160078201548152602001600882015481526020016009820160009054906101000a900460ff1660068111156109b1576109b0617ef9565b5b60068111156109c3576109c2617ef9565b5b8152602001600a82016040518060a00160405290816000820180546109e790618407565b80601f0160208091040260200160405190810160405280929190818152602001828054610a1390618407565b8015610a605780601f10610a3557610100808354040283529160200191610a60565b820191906000526020600020905b815481529060010190602001808311610a4357829003601f168201915b50505050508152602001600182018054610a7990618407565b80601f0160208091040260200160405190810160405280929190818152602001828054610aa590618407565b8015610af25780601f10610ac757610100808354040283529160200191610af2565b820191906000526020600020905b815481529060010190602001808311610ad557829003601f168201915b5050505050815260200160028201548152602001600382018054610b1590618407565b80601f0160208091040260200160405190810160405280929190818152602001828054610b4190618407565b8015610b8e5780601f10610b6357610100808354040283529160200191610b8e565b820191906000526020600020905b815481529060010190602001808311610b7157829003601f168201915b505050505081526020016004820160009054906101000a900460ff1615151515815250508152602001600f820154815260200160108201548152602001601182015481526020016012820160009054906101000a900460ff161515151581526020016012820160019054906101000a900460ff161515151581526020016012820160029054906101000a900460ff16151515158152602001601382018054610c3590618407565b80601f0160208091040260200160405190810160405280929190818152602001828054610c6190618407565b8015610cae5780601f10610c8357610100808354040283529160200191610cae565b820191906000526020600020905b815481529060010190602001808311610c9157829003601f168201915b5050505050815250509050610ccd67056fe398b749c1b960c01b616c8c565b610ce1673c104d78f60c2f1c60c01b616c8c565b60026006811115610cf557610cf4617ef9565b5b8161012001516006811115610d0d57610d0c617ef9565b5b148015610d205750806101400151608001515b8015610d2e5750806101c001515b8015610d3c5750806101e001515b8015610dbd5750600073ffffffffffffffffffffffffffffffffffffffff16816060015173ffffffffffffffffffffffffffffffffffffffff16148015610d935750610d9267c85059c32a1df7ae60c01b616c8f565b5b80610dbc57508061020001518015610dbb5750610dba67781bd04a857936b260c01b616c8f565b5b5b5b92505050919050565b610dda67485e8617c8c5465760c01b616c8c565b7fa49807205ce4d355092ef5a8a18f56e8913cf4a201fbe287825b095693c21775610e0481616c9a565b610e1867582b0ad1e283471060c01b616c8c565b610e2c6766365f1e299fcf0d60c01b616c8c565b610e40677341de45dd9ae97360c01b616c8c565b81600560008573ffffffffffffffffffffffffffffffffffffffff1673ffffffffffffffffffffffffffffffffffffffff16815260200190815260200160002060006101000a81548160ff021916908315150217905550505050565b610eb067c7fd33bd56383d7b60c01b616c8c565b7fa49807205ce4d355092ef5a8a18f56e8913cf4a201fbe287825b095693c21775610eda81616c9a565b610eee67decefe1ad35430aa60c01b616c8c565b610f0267c1337d9eabaab63b60c01b616c8c565b610f1667283997ae042e1bb560c01b616c8c565b610f2a6777a8e4223f3048ac60c01b616c8c565b610f3e675a2e0711ed41189a60c01b616c8c565b6101f4821115610f83576040517f08c379a0000000000000000000000000000000000000000000000000000000008152600401610f7a90618484565b60405180910390fd5b610f9767854aaeb46b5f78e460c01b616c8c565b610fab67818ec3eb7fc63aad60c01b616c8c565b816007819055505050565b610fca67df9c8181b21a1f1860c01b616c8c565b610fde6708aa591d68258a1f60c01b616c8c565b610ff26726a3f4b13d77372460c01b616c8c565b600060036000808152602001908152602001600020905061101d67b236eb7e6a22045b60c01b616c8c565b61103167235c618bb2853b0360c01b616c8c565b600061104767fa8aa3f52d2767e060c01b616c8c565b61105b67dca6cd47616468d360c01b616c8c565b8160010160009054906101000a900473ffffffffffffffffffffffffffffffffffffffff1673ffffffffffffffffffffffffffffffffffffffff163373ffffffffffffffffffffffffffffffffffffffff16036111b6576110c6679c6ccf6403d8397060c01b616c8c565b6110da67c8a236e43044a52f60c01b616c8c565b6110ee67e04d1e79f868ab3b60c01b616c8c565b61110267acd1d3c1834bda9460c01b616c8c565b8160120160009054906101000a900460ff1615611154576040517f08c379a000000000000000000000000000000000000000000000000000000000815260040161114b906184f0565b60405180910390fd5b61116867b413923268ee1a8460c01b616c8c565b61117c67dccdb16f4333dd1460c01b616c8c565b60018260120160006101000a81548160ff0219169083151502179055506111ad6764d864a7eb01f2ef60c01b616c8c565b60009050611535565b6111ca677f03a72e6ed3fa2460c01b616c8c565b6111de671f20956fdf38822560c01b616c8c565b8160020160009054906101000a900473ffffffffffffffffffffffffffffffffffffffff1673ffffffffffffffffffffffffffffffffffffffff163373ffffffffffffffffffffffffffffffffffffffff160361133957611249673aa300cdc4ae713e60c01b616c8c565b61125d6773f8af15475556a160c01b616c8c565b611271670ccedc6cfd78f3a360c01b616c8c565b61128567fda8b9e933a4f69960c01b616c8c565b8160120160019054906101000a900460ff16156112d7576040517f08c379a00000000000000000000000000000000000000000000000000000000081526004016112ce9061855c565b60405180910390fd5b6112eb67fccb00de1e16a1dc60c01b616c8c565b6112ff67c88ed49b5ed76d7760c01b616c8c565b60018260120160016101000a81548160ff02191690831515021790555061133067634755476652fc6e60c01b616c8c565b60019050611534565b61134d6712f13cf0d13b40cc60c01b616c8c565b61136167fc19ace03a55832a60c01b616c8c565b8160030160009054906101000a900473ffffffffffffffffffffffffffffffffffffffff1673ffffffffffffffffffffffffffffffffffffffff163373ffffffffffffffffffffffffffffffffffffffff16036114bc576113cc6719e3dbc427bcd13c60c01b616c8c565b6113e06752991421361f8fa060c01b616c8c565b6113f467940cf156099edeb360c01b616c8c565b61140867a2c38be18cd9463860c01b616c8c565b8160120160029054906101000a900460ff161561145a576040517f08c379a0000000000000000000000000000000000000000000000000000000008152600401611451906185c8565b60405180910390fd5b61146e6794cc346d1be3b1a060c01b616c8c565b611482671d7d622b4d09e22960c01b616c8c565b60018260120160026101000a81548160ff0219169083151502179055506114b3671bf2ac93840c758760c01b616c8c565b60029050611533565b6114d067101d935008977fda60c01b616c8c565b6114e4679b041411ee0b6b9e60c01b616c8c565b6114f86735cdfb41da7e265560c01b616c8c565b6040517f08c379a000000000000000000000000000000000000000000000000000000000815260040161152a90618634565b60405180910390fd5b5b5b61154967220c12cc0dc98d2860c01b616c8c565b61155d67a656ab1ac6314eb160c01b616c8c565b3373ffffffffffffffffffffffffffffffffffffffff1660007f8c76bb4d0d0276699b16a2e9464b50cad045b0200b9bc632ae3a5d57077fa264836040516115a5919061869c565b60405180910390a35050565b7fcab5a0bfe0b79d2c4b1c2e02599fa044d115b7511f9659307cb427695096770981565b600060026000838152602001908152602001600020600101549050919050565b61160967b22275425c4a773760c01b616c8c565b611611616cae565b6116256774311aab085be79d60c01b616c8c565b61163967cc0fb212a8c26c6860c01b616c8c565b611641616cfd565b61165567ae199c3d711c863e60c01b616c8c565b61166967a88bb9c734c2e6c060c01b616c8c565b8361167e677d57dec5f9150b3460c01b616c8c565b6116926726010ffe836c44ab60c01b616c8c565b6116a66774cac189923e6f5960c01b616c8c565b6116ba67dd8748dc1881bb0760c01b616c8c565b60065481106116fe576040517f08c379a00000000000000000000000000000000000000000000000000000000081526004016116f5906183d1565b60405180910390fd5b6117126787210bbac79840a260c01b616c8c565b61172667f09ab0a93bc2471b60c01b616c8c565b61173a67a5338699351a51ad60c01b616c8c565b61174e6748833e7f77a40dbe60c01b616c8c565b84600461176567c93f2230ba8c625660c01b616c8c565b6117796732a30df3d232ac8360c01b616c8c565b61178d677475f200801517f760c01b616c8c565b6117a1678532520bd80e107860c01b616c8c565b8060068111156117b4576117b3617ef9565b5b6003600084815260200190815260200160002060090160009054906101000a900460ff1660068111156117ea576117e9617ef9565b5b1461182a576040517f08c379a000000000000000000000000000000000000000000000000000000000815260040161182190618703565b60405180910390fd5b61183e67f081accdc96c05ff60c01b616c8c565b611852671aba0ed9dc22e03c60c01b616c8c565b611866675fbd25bb53aa68b760c01b616c8c565b61187a671361e0e89f0cddd160c01b616c8c565b61188e674aeed61023c964d760c01b616c8c565b6118a166df111461f9e56f60c01b616c8c565b60006003600089815260200190815260200160002090506118cc6771a9255c3579bc0560c01b616c8c565b6118e067490fc0b80ace1ab060c01b616c8c565b6118f467920dd1d03c1cf27560c01b616c8c565b8060040160009054906101000a900473ffffffffffffffffffffffffffffffffffffffff1673ffffffffffffffffffffffffffffffffffffffff163373ffffffffffffffffffffffffffffffffffffffff16148015611963575061196267d8b5abf4f0e1d16c60c01b616c8f565b5b806119b057506119937fa49807205ce4d355092ef5a8a18f56e8913cf4a201fbe287825b095693c2177533614a86565b80156119af57506119ae6763848b86ed1db57660c01b616c8f565b5b5b6119ef576040517f08c379a00000000000000000000000000000000000000000000000000000000081526004016119e690618795565b60405180910390fd5b611a0367b579745a841f7e2a60c01b616c8c565b611a1767db01918c227e2c1460c01b616c8c565b611a2b676cc052a916614e4f60c01b616c8c565b6000600460008a81526020019081526020016000209050611a56676cfd8282c3f287df60c01b616c8c565b60018160030160006101000a81548160ff021916908315150217905550611a8767ec4b2a094c69da8060c01b616c8c565b338160030160016101000a81548173ffffffffffffffffffffffffffffffffffffffff021916908373ffffffffffffffffffffffffffffffffffffffff160217905550611ade67e1504f24431f95c060c01b616c8c565b8686826004019182611af1929190618950565b50611b0667937e6b99ad305cd260c01b616c8c565b611b1a677ab1a44b7436df0360c01b616c8c565b8715611b6a57611b3467ef0a8ae7f9a7b2e560c01b616c8c565b611b48678acf358b503b828760c01b616c8c565b611b5c679bfee6472bcb034560c01b616c8c565b611b6589616d47565b611c53565b611b7e67c457f87471ce9aa860c01b616c8c565b611b926728e39542caf1504560c01b616c8c565b60028260090160006101000a81548160ff02191690836006811115611bba57611bb9617ef9565b5b0217905550611bd367e89922cf4fbdc29760c01b616c8c565b60018260120160006101000a81548160ff021916908315150217905550611c0467fe2d9ecb45aec99f60c01b616c8c565b60018260120160016101000a81548160ff021916908315150217905550611c3567ebbce98f06a1250960c01b616c8c565b60018260120160026101000a81548160ff0219169083151502179055505b611c676730e91aa6183f429260c01b616c8c565b611c7b67cfb56b4ae2a7070b60c01b616c8c565b3373ffffffffffffffffffffffffffffffffffffffff16897f7b71d2e00379bd165b2750d54298da2414376699827edca2bce2a096c491d2e98989604051611cc4929190618a57565b60405180910390a35050505050611cd96170d5565b50505050565b611ce8826115d5565b611cf181616c9a565b611cfb83836170df565b505050565b611d086171c0565b73ffffffffffffffffffffffffffffffffffffffff168173ffffffffffffffffffffffffffffffffffffffff1614611d75576040517f08c379a0000000000000000000000000000000000000000000000000000000008152600401611d6c90618aed565b60405180910390fd5b611d7f82826171c8565b5050565b611d97678130be3fbf1d724060c01b616c8c565b611d9f616cae565b611db36713f3f8a3e06aa0c760c01b616c8c565b611dc767382e6472d41af50d60c01b616c8c565b611dcf616cfd565b611de367a39287dd31110fc660c01b616c8c565b611df7672e362803f13b00b860c01b616c8c565b80611e0c677d57dec5f9150b3460c01b616c8c565b611e206726010ffe836c44ab60c01b616c8c565b611e346774cac189923e6f5960c01b616c8c565b611e4867dd8748dc1881bb0760c01b616c8c565b6006548110611e8c576040517f08c379a0000000000000000000000000000000000000000000000000000000008152600401611e83906183d1565b60405180910390fd5b611ea06787210bbac79840a260c01b616c8c565b611eb467f09ab0a93bc2471b60c01b616c8c565b611ec867040c39713648b96060c01b616c8c565b611edc678ff9d79216a400c460c01b616c8c565b611ef06759fc234a69c73d0560c01b616c8c565b611f046764e4b71c836a49e360c01b616c8c565b611f18673dacd27fe424242d60c01b616c8c565b611f427fa49807205ce4d355092ef5a8a18f56e8913cf4a201fbe287825b095693c2177533614a86565b611f81576040517f08c379a0000000000000000000000000000000000000000000000000000000008152600401611f7890618b59565b60405180910390fd5b611f95679a955bad44581d9d60c01b616c8c565b611fa967a8f109fc6c22aa9d60c01b616c8c565b611fbd67d31fbecb3725313360c01b616c8c565b611fc682616d47565b50611fcf6170d5565b50565b6101f481565b6000611fee675c0c04f63d01652560c01b616c8c565b81612003677d57dec5f9150b3460c01b616c8c565b6120176726010ffe836c44ab60c01b616c8c565b61202b6774cac189923e6f5960c01b616c8c565b61203f67dd8748dc1881bb0760c01b616c8c565b6006548110612083576040517f08c379a000000000000000000000000000000000000000000000000000000000815260040161207a906183d1565b60405180910390fd5b6120976787210bbac79840a260c01b616c8c565b6120ab67f09ab0a93bc2471b60c01b616c8c565b6120bf67943384e0590bb95360c01b616c8c565b6120d3675ee5439ec2b30e6860c01b616c8c565b6120e767b4cd3154710ea7c760c01b616c8c565b6120fb672693e551c3a1228660c01b616c8c565b6003600084815260200190815260200160002060090160009054906101000a900460ff16915050919050565b61213b67f8acd80eef751fa360c01b616c8c565b612143616cae565b61215767f206087fcbca537760c01b616c8c565b61216b6745f2ed411641aebf60c01b616c8c565b612173616cfd565b61218767126ec11df86f166660c01b616c8c565b61219b673289e74b0a6e0dc060c01b616c8c565b806121b0677d57dec5f9150b3460c01b616c8c565b6121c46726010ffe836c44ab60c01b616c8c565b6121d86774cac189923e6f5960c01b616c8c565b6121ec67dd8748dc1881bb0760c01b616c8c565b6006548110612230576040517f08c379a0000000000000000000000000000000000000000000000000000000008152600401612227906183d1565b60405180910390fd5b6122446787210bbac79840a260c01b616c8c565b61225867f09ab0a93bc2471b60c01b616c8c565b61226c67b3740bbfd7a10d7360c01b616c8c565b61228067c6fb973b04ab992560c01b616c8c565b81600061229767c93f2230ba8c625660c01b616c8c565b6122ab6732a30df3d232ac8360c01b616c8c565b6122bf677475f200801517f760c01b616c8c565b6122d3678532520bd80e107860c01b616c8c565b8060068111156122e6576122e5617ef9565b5b6003600084815260200190815260200160002060090160009054906101000a900460ff16600681111561231c5761231b617ef9565b5b1461235c576040517f08c379a000000000000000000000000000000000000000000000000000000000815260040161235390618703565b60405180910390fd5b61237067f081accdc96c05ff60c01b616c8c565b612384671aba0ed9dc22e03c60c01b616c8c565b61239867c967c68de5ae955a60c01b616c8c565b6123ac674e5bcc9ccaa4e0d760c01b616c8c565b6123c067204369601a711e4360c01b616c8c565b6123d467ac53f27f36d5969c60c01b616c8c565b60006003600086815260200190815260200160002090506123ff6742be9ca61208c84e60c01b616c8c565b612413671c7c49df77440ff160c01b616c8c565b61242767ed4bf36e02024a4360c01b616c8c565b8060010160009054906101000a900473ffffffffffffffffffffffffffffffffffffffff1673ffffffffffffffffffffffffffffffffffffffff163373ffffffffffffffffffffffffffffffffffffffff16146124b9576040517f08c379a00000000000000000000000000000000000000000000000000000000081526004016124b090618bc5565b60405180910390fd5b6124cd67508ba46b03a3803360c01b616c8c565b6124e16726df611027fe233f60c01b616c8c565b6124f5672767523ae030e5e660c01b616c8c565b61250967bee37bfaa749ffe560c01b616c8c565b8060100154421115612550576040517f08c379a000000000000000000000000000000000000000000000000000000000815260040161254790618c31565b60405180910390fd5b6125646765fe58e89224975c60c01b616c8c565b612578671428020be655204760c01b616c8c565b61258c6748d418caeda0871c60c01b616c8c565b6125e1333083600601548460050160009054906101000a900473ffffffffffffffffffffffffffffffffffffffff1673ffffffffffffffffffffffffffffffffffffffff166172aa909392919063ffffffff16565b6125f567581378cece022b3460c01b616c8c565b60018160090160006101000a81548160ff0219169083600681111561261d5761261c617ef9565b5b0217905550612636671f3c2217774f264d60c01b616c8c565b61264a67c7b5171d323cb40560c01b616c8c565b3373ffffffffffffffffffffffffffffffffffffffff16857fe030e47e27825a2ad1b19e4cf2e70bfbfb3124af275c7727a82b114ba7b29a8583600601546040516126959190617ede565b60405180910390a3505050506126a96170d5565b50565b6126c067395e0abbd9eee56060c01b616c8c565b7fa49807205ce4d355092ef5a8a18f56e8913cf4a201fbe287825b095693c217756126ea81616c9a565b6126fe679b30b563fdc9c9ba60c01b616c8c565b612712677fa68a388228c4b260c01b616c8c565b6127266799ca0ac03fc1f23b60c01b616c8c565b61273a6701316d9eca46787760c01b616c8c565b612742617333565b50565b600061275b67f93d37455d44593c60c01b616c8c565b61276f67468fd5a01b47a99e60c01b616c8c565b61278367acfae6f17180d59560c01b616c8c565b600654905090565b61279f67204f9c18d5e1c44f60c01b616c8c565b6127a7616cae565b6127bb676801e5e34a3bdb0060c01b616c8c565b6127cf67f3cab9ae15592d0260c01b616c8c565b6127d7616cfd565b6127eb67104624a16936308060c01b616c8c565b6127ff678910ee78bb4bffd060c01b616c8c565b80612814677d57dec5f9150b3460c01b616c8c565b6128286726010ffe836c44ab60c01b616c8c565b61283c6774cac189923e6f5960c01b616c8c565b61285067dd8748dc1881bb0760c01b616c8c565b6006548110612894576040517f08c379a000000000000000000000000000000000000000000000000000000000815260040161288b906183d1565b60405180910390fd5b6128a86787210bbac79840a260c01b616c8c565b6128bc67f09ab0a93bc2471b60c01b616c8c565b6128d0676b6145f7a3d1253260c01b616c8c565b6128e467daddc39ef95b25c560c01b616c8c565b8160016128fb67c93f2230ba8c625660c01b616c8c565b61290f6732a30df3d232ac8360c01b616c8c565b612923677475f200801517f760c01b616c8c565b612937678532520bd80e107860c01b616c8c565b80600681111561294a57612949617ef9565b5b6003600084815260200190815260200160002060090160009054906101000a900460ff1660068111156129805761297f617ef9565b5b146129c0576040517f08c379a00000000000000000000000000000000000000000000000000000000081526004016129b790618703565b60405180910390fd5b6129d467f081accdc96c05ff60c01b616c8c565b6129e8671aba0ed9dc22e03c60c01b616c8c565b6129fc67fefdf22dde14890660c01b616c8c565b612a10676b8cb50e222689dc60c01b616c8c565b612a2467b74ac7848465036c60c01b616c8c565b612a38671ae725d474cc180f60c01b616c8c565b6000600360008681526020019081526020016000209050612a63674c6ac9cb5b68be4260c01b616c8c565b612a77678132d690e7b5bcb460c01b616c8c565b612a8b676a6eca830dae6ac260c01b616c8c565b8060030160009054906101000a900473ffffffffffffffffffffffffffffffffffffffff1673ffffffffffffffffffffffffffffffffffffffff163373ffffffffffffffffffffffffffffffffffffffff16148015612afa5750612af967ed8ee2249fbfc19760c01b616c8f565b5b80612b475750612b2a7fa49807205ce4d355092ef5a8a18f56e8913cf4a201fbe287825b095693c2177533614a86565b8015612b465750612b45676dfc1e12ee91613960c01b616c8f565b5b5b612b86576040517f08c379a0000000000000000000000000000000000000000000000000000000008152600401612b7d90618c9d565b60405180910390fd5b612b9a671325f2dd5ac0e70a60c01b616c8c565b612bae67061ee98625f3005760c01b616c8c565b612bc2671de6378278dc2bb360c01b616c8c565b612bd667d21a78bc2d695d9f60c01b616c8c565b8060110154421115612c1d576040517f08c379a0000000000000000000000000000000000000000000000000000000008152600401612c1490618d09565b60405180910390fd5b612c31671c173dba5b31ba7060c01b616c8c565b612c45674c3013d850d0163360c01b616c8c565b60028160090160006101000a81548160ff02191690836006811115612c6d57612c6c617ef9565b5b0217905550612c86676d933d40fb80144d60c01b616c8c565b600181600a0160040160006101000a81548160ff021916908315150217905550612cba67f4329a3d0a81790260c01b616c8c565b612cce670ca4ee32feab900b60c01b616c8c565b3373ffffffffffffffffffffffffffffffffffffffff16857f0229702661bd522f80cf22e71a80e376c2ac20ea2ecd8e680f1a8e8285738a1c60405160405180910390a350505050612d1e6170d5565b50565b7fbb08418a67729a078f87bbc8d02a770929bb68f5bfdf134ae2ead6ed38e2f4ae81565b612d59677df57dcdff9206ac60c01b616c8c565b612d61616cae565b612d7567e8fff7a29dd3e07a60c01b616c8c565b612d8967c8ff417d5c0e59df60c01b616c8c565b612d91616cfd565b612da567314611304628228c60c01b616c8c565b612db967b532332f37d0886860c01b616c8c565b80612dce677d57dec5f9150b3460c01b616c8c565b612de26726010ffe836c44ab60c01b616c8c565b612df66774cac189923e6f5960c01b616c8c565b612e0a67dd8748dc1881bb0760c01b616c8c565b6006548110612e4e576040517f08c379a0000000000000000000000000000000000000000000000000000000008152600401612e45906183d1565b60405180910390fd5b612e626787210bbac79840a260c01b616c8c565b612e7667f09ab0a93bc2471b60c01b616c8c565b612e8a67b3d477f2c2511e0b60c01b616c8c565b612e9e67dc7e8bad29ce40c860c01b616c8c565b816002612eb567c93f2230ba8c625660c01b616c8c565b612ec96732a30df3d232ac8360c01b616c8c565b612edd677475f200801517f760c01b616c8c565b612ef1678532520bd80e107860c01b616c8c565b806006811115612f0457612f03617ef9565b5b6003600084815260200190815260200160002060090160009054906101000a900460ff166006811115612f3a57612f39617ef9565b5b14612f7a576040517f08c379a0000000000000000000000000000000000000000000000000000000008152600401612f7190618703565b60405180910390fd5b612f8e67f081accdc96c05ff60c01b616c8c565b612fa2671aba0ed9dc22e03c60c01b616c8c565b612fb667f3a48bc8310b2f3460c01b616c8c565b612fca67a721803473d96fba60c01b616c8c565b612fde67db92bd69348c670860c01b616c8c565b612ff267049330bdcdb792ed60c01b616c8c565b61300667592933d2e0e1f73c60c01b616c8c565b61300f84610672565b61304e576040517f08c379a000000000000000000000000000000000000000000000000000000000815260040161304590618d75565b60405180910390fd5b61306267da8883de7c97846860c01b616c8c565b613076677133a693766bf75360c01b616c8c565b61308a67d9ca7883dfb0be0060c01b616c8c565b60006003600086815260200190815260200160002090506130b5672f37bbd2c9ac32a960c01b616c8c565b6130c9679499dccc93efcda960c01b616c8c565b6000612710826008015483600601546130e29190618dab565b6130ec9190618e01565b905061310267847e6695aab6adff60c01b616c8c565b61311667c004ca847a1facf760c01b616c8c565b600082600701549050613133678a5ec987438c5ccc60c01b616c8c565b61314767ab1f212f70a982f460c01b616c8c565b60008183856006015461315a9190618e32565b6131649190618e32565b905061317a675736ffb75c9279cb60c01b616c8c565b60038460090160006101000a81548160ff021916908360068111156131a2576131a1617ef9565b5b02179055506131bb67693a119f193193c860c01b616c8c565b6131cf674b76a1e612c6f71860c01b616c8c565b60008460050160009054906101000a900473ffffffffffffffffffffffffffffffffffffffff16905061320c67eb7b3d0fdb51005760c01b616c8c565b6132206744bc5abbecdf51d660c01b616c8c565b60008411156132b75761323d675bd4dd8ef80cb0bf60c01b616c8c565b61325167b0f1e0f8d81d124960c01b616c8c565b61326567486717966e395fb260c01b616c8c565b6132b2600860009054906101000a900473ffffffffffffffffffffffffffffffffffffffff16858373ffffffffffffffffffffffffffffffffffffffff166173969092919063ffffffff16565b6132cc565b6132cb674ecc486940aad5bc60c01b616c8c565b5b6132e067617d512790e2e02060c01b616c8c565b6132f4676d4a224bb9fc628160c01b616c8c565b6000831180156133555750600073ffffffffffffffffffffffffffffffffffffffff168560030160009054906101000a900473ffffffffffffffffffffffffffffffffffffffff1673ffffffffffffffffffffffffffffffffffffffff1614155b156133ea5761336e67fab6e9799acaae0e60c01b616c8c565b61338267169ec7d95214276160c01b616c8c565b61339667086a8b3a18e9140d60c01b616c8c565b6133e58560030160009054906101000a900473ffffffffffffffffffffffffffffffffffffffff16848373ffffffffffffffffffffffffffffffffffffffff166173969092919063ffffffff16565b6133ff565b6133fe67032826af9c9d832960c01b616c8c565b5b61341367bd46f25030fdb30160c01b616c8c565b6134276745082aec9f51bc5560c01b616c8c565b6134768560020160009054906101000a900473ffffffffffffffffffffffffffffffffffffffff16838373ffffffffffffffffffffffffffffffffffffffff166173969092919063ffffffff16565b61348a679830365eba5eca3960c01b616c8c565b61349e67a30557da61ebb18560c01b616c8c565b8460020160009054906101000a900473ffffffffffffffffffffffffffffffffffffffff1673ffffffffffffffffffffffffffffffffffffffff16897f6e3c6096795c8298a218b2cfb8bde42726ff7c9a3d27b4d3ba41ab7f74feb5fb846040516135099190617ede565b60405180910390a350505050505050506135216170d5565b50565b6135386717befa244bf3066860c01b616c8c565b613540616cae565b61355467b0ca47aae4688ff860c01b616c8c565b61356867605c87c84b85589960c01b616c8c565b613570616cfd565b613584678beb6f9677c581f060c01b616c8c565b61359867223c47f00dd54ffa60c01b616c8c565b826135ad677d57dec5f9150b3460c01b616c8c565b6135c16726010ffe836c44ab60c01b616c8c565b6135d56774cac189923e6f5960c01b616c8c565b6135e967dd8748dc1881bb0760c01b616c8c565b600654811061362d576040517f08c379a0000000000000000000000000000000000000000000000000000000008152600401613624906183d1565b60405180910390fd5b6136416787210bbac79840a260c01b616c8c565b61365567f09ab0a93bc2471b60c01b616c8c565b61366967c9e0343b70828a3460c01b616c8c565b61367d6774fce8243ceaac4f60c01b616c8c565b8361369267c362baef55bfd4f560c01b616c8c565b6136a667babec034d6ac2c9760c01b616c8c565b6136ba67371654452d7864fa60c01b616c8c565b60006003600083815260200190815260200160002060405180610240016040529081600082015481526020016001820160009054906101000a900473ffffffffffffffffffffffffffffffffffffffff1673ffffffffffffffffffffffffffffffffffffffff1673ffffffffffffffffffffffffffffffffffffffff1681526020016002820160009054906101000a900473ffffffffffffffffffffffffffffffffffffffff1673ffffffffffffffffffffffffffffffffffffffff1673ffffffffffffffffffffffffffffffffffffffff1681526020016003820160009054906101000a900473ffffffffffffffffffffffffffffffffffffffff1673ffffffffffffffffffffffffffffffffffffffff1673ffffffffffffffffffffffffffffffffffffffff1681526020016004820160009054906101000a900473ffffffffffffffffffffffffffffffffffffffff1673ffffffffffffffffffffffffffffffffffffffff1673ffffffffffffffffffffffffffffffffffffffff1681526020016005820160009054906101000a900473ffffffffffffffffffffffffffffffffffffffff1673ffffffffffffffffffffffffffffffffffffffff1673ffffffffffffffffffffffffffffffffffffffff1681526020016006820154815260200160078201548152602001600882015481526020016009820160009054906101000a900460ff1660068111156138d6576138d5617ef9565b5b60068111156138e8576138e7617ef9565b5b8152602001600a82016040518060a001604052908160008201805461390c90618407565b80601f016020809104026020016040519081016040528092919081815260200182805461393890618407565b80156139855780601f1061395a57610100808354040283529160200191613985565b820191906000526020600020905b81548152906001019060200180831161396857829003601f168201915b5050505050815260200160018201805461399e90618407565b80601f01602080910402602001604051908101604052809291908181526020018280546139ca90618407565b8015613a175780601f106139ec57610100808354040283529160200191613a17565b820191906000526020600020905b8154815290600101906020018083116139fa57829003601f168201915b5050505050815260200160028201548152602001600382018054613a3a90618407565b80601f0160208091040260200160405190810160405280929190818152602001828054613a6690618407565b8015613ab35780601f10613a8857610100808354040283529160200191613ab3565b820191906000526020600020905b815481529060010190602001808311613a9657829003601f168201915b505050505081526020016004820160009054906101000a900460ff1615151515815250508152602001600f820154815260200160108201548152602001601182015481526020016012820160009054906101000a900460ff161515151581526020016012820160019054906101000a900460ff161515151581526020016012820160029054906101000a900460ff16151515158152602001601382018054613b5a90618407565b80601f0160208091040260200160405190810160405280929190818152602001828054613b8690618407565b8015613bd35780601f10613ba857610100808354040283529160200191613bd3565b820191906000526020600020905b815481529060010190602001808311613bb657829003601f168201915b5050505050815250509050613bf2674b58a120a8e1852e60c01b616c8c565b613c066779526f99f126f69d60c01b616c8c565b613c1a67a5d77d50f63d0b8060c01b616c8c565b806020015173ffffffffffffffffffffffffffffffffffffffff163373ffffffffffffffffffffffffffffffffffffffff16148015613c695750613c68678af228676e050e4e60c01b616c8f565b5b80613cdb5750806040015173ffffffffffffffffffffffffffffffffffffffff163373ffffffffffffffffffffffffffffffffffffffff16148015613cbe5750613cbd67714163c201dfdfd360c01b616c8f565b5b8015613cda5750613cd967a56ad4055d78216960c01b616c8f565b5b5b80613d4d5750806060015173ffffffffffffffffffffffffffffffffffffffff163373ffffffffffffffffffffffffffffffffffffffff16148015613d305750613d2f67efe8509baf7e853a60c01b616c8f565b5b8015613d4c5750613d4b67d39eb3929914969760c01b616c8f565b5b5b80613dbf5750806080015173ffffffffffffffffffffffffffffffffffffffff163373ffffffffffffffffffffffffffffffffffffffff16148015613da25750613da167b2fe4baf9775d47b60c01b616c8f565b5b8015613dbe5750613dbd671796a977ae82768260c01b616c8f565b5b5b80613e0c5750613def7fa49807205ce4d355092ef5a8a18f56e8913cf4a201fbe287825b095693c2177533614a86565b8015613e0b5750613e0a67aa1f7d13dab5abe560c01b616c8f565b5b5b613e4b576040517f08c379a0000000000000000000000000000000000000000000000000000000008152600401613e4290618eb2565b60405180910390fd5b613e5f67898139d3532fbd1b60c01b616c8c565b613e736757c230282779988060c01b616c8c565b613e87674d5caafa862ecf5c60c01b616c8c565b613e9b675df640411b3a8d9260c01b616c8c565b613eaf676808812cfb68256e60c01b616c8c565b613ec367386774c70f3f272260c01b616c8c565b6000600360008881526020019081526020016000209050613eee67decbbefbc66522e660c01b616c8c565b613f02671c9e296ec852875360c01b616c8c565b613f16675a53401928fd3d4d60c01b616c8c565b60016006811115613f2a57613f29617ef9565b5b8160090160009054906101000a900460ff166006811115613f4e57613f4d617ef9565b5b148015613f6b5750613f6a6739d999fb5bdfef6b60c01b616c8f565b5b80613fc7575060026006811115613f8557613f84617ef9565b5b8160090160009054906101000a900460ff166006811115613fa957613fa8617ef9565b5b148015613fc65750613fc567414f61c8b92b3dfd60c01b616c8f565b5b5b614006576040517f08c379a0000000000000000000000000000000000000000000000000000000008152600401613ffd90618f1e565b60405180910390fd5b61401a676f56cf8ca96da3d560c01b616c8c565b61402e6717019bbc4a94720860c01b616c8c565b6140426705a85145878f56a160c01b616c8c565b614056678718086ae763f07c60c01b616c8c565b6000868690501161409c576040517f08c379a000000000000000000000000000000000000000000000000000000000815260040161409390618f8a565b60405180910390fd5b6140b067fff4e0a9c855909a60c01b616c8c565b6140c4670b78ee55f40e2dd760c01b616c8c565b60048160090160006101000a81548160ff021916908360068111156140ec576140eb617ef9565b5b021790555061410567860e6763798a6b0960c01b616c8c565b8585826013019182614118929190618950565b5061412d6741ee9234f6a8329d60c01b616c8c565b6040518060c001604052803373ffffffffffffffffffffffffffffffffffffffff16815260200187878080601f016020809104026020016040519081016040528093929190818152602001838380828437600081840152601f19601f820116905080830192505050505050508152602001428152602001600015158152602001600073ffffffffffffffffffffffffffffffffffffffff168152602001604051806020016040528060008152508152506004600089815260200190815260200160002060008201518160000160006101000a81548173ffffffffffffffffffffffffffffffffffffffff021916908373ffffffffffffffffffffffffffffffffffffffff160217905550602082015181600101908161424c9190618faa565b506040820151816002015560608201518160030160006101000a81548160ff02191690831515021790555060808201518160030160016101000a81548173ffffffffffffffffffffffffffffffffffffffff021916908373ffffffffffffffffffffffffffffffffffffffff16021790555060a08201518160040190816142d39190618faa565b509050506142eb672de0a2e2446f434e60c01b616c8c565b6142ff67c7345e058835379660c01b616c8c565b3373ffffffffffffffffffffffffffffffffffffffff16877f1b84372106d77c6daea0dda35bbc0229d10a83f58ec8990928849251936823418888604051614348929190618a57565b60405180910390a35050505061435c6170d5565b505050565b6000600160009054906101000a900460ff16905090565b7fa49807205ce4d355092ef5a8a18f56e8913cf4a201fbe287825b095693c2177581565b6143a4617a4a565b6143b86786bb892aac4cce1660c01b616c8c565b816143cd677d57dec5f9150b3460c01b616c8c565b6143e16726010ffe836c44ab60c01b616c8c565b6143f56774cac189923e6f5960c01b616c8c565b61440967dd8748dc1881bb0760c01b616c8c565b600654811061444d576040517f08c379a0000000000000000000000000000000000000000000000000000000008152600401614444906183d1565b60405180910390fd5b6144616787210bbac79840a260c01b616c8c565b61447567f09ab0a93bc2471b60c01b616c8c565b614489676eb500b5d281671660c01b616c8c565b61449d67a47b0800723cfedb60c01b616c8c565b6144b16736a1d777e199224160c01b616c8c565b6144c567e9cdbbb0cb3f620360c01b616c8c565b6003600084815260200190815260200160002060405180610240016040529081600082015481526020016001820160009054906101000a900473ffffffffffffffffffffffffffffffffffffffff1673ffffffffffffffffffffffffffffffffffffffff1673ffffffffffffffffffffffffffffffffffffffff1681526020016002820160009054906101000a900473ffffffffffffffffffffffffffffffffffffffff1673ffffffffffffffffffffffffffffffffffffffff1673ffffffffffffffffffffffffffffffffffffffff1681526020016003820160009054906101000a900473ffffffffffffffffffffffffffffffffffffffff1673ffffffffffffffffffffffffffffffffffffffff1673ffffffffffffffffffffffffffffffffffffffff1681526020016004820160009054906101000a900473ffffffffffffffffffffffffffffffffffffffff1673ffffffffffffffffffffffffffffffffffffffff1673ffffffffffffffffffffffffffffffffffffffff1681526020016005820160009054906101000a900473ffffffffffffffffffffffffffffffffffffffff1673ffffffffffffffffffffffffffffffffffffffff1673ffffffffffffffffffffffffffffffffffffffff1681526020016006820154815260200160078201548152602001600882015481526020016009820160009054906101000a900460ff1660068111156146df576146de617ef9565b5b60068111156146f1576146f0617ef9565b5b8152602001600a82016040518060a001604052908160008201805461471590618407565b80601f016020809104026020016040519081016040528092919081815260200182805461474190618407565b801561478e5780601f106147635761010080835404028352916020019161478e565b820191906000526020600020905b81548152906001019060200180831161477157829003601f168201915b505050505081526020016001820180546147a790618407565b80601f01602080910402602001604051908101604052809291908181526020018280546147d390618407565b80156148205780601f106147f557610100808354040283529160200191614820565b820191906000526020600020905b81548152906001019060200180831161480357829003601f168201915b505050505081526020016002820154815260200160038201805461484390618407565b80601f016020809104026020016040519081016040528092919081815260200182805461486f90618407565b80156148bc5780601f10614891576101008083540402835291602001916148bc565b820191906000526020600020905b81548152906001019060200180831161489f57829003601f168201915b505050505081526020016004820160009054906101000a900460ff1615151515815250508152602001600f820154815260200160108201548152602001601182015481526020016012820160009054906101000a900460ff161515151581526020016012820160019054906101000a900460ff161515151581526020016012820160029054906101000a900460ff1615151515815260200160138201805461496390618407565b80601f016020809104026020016040519081016040528092919081815260200182805461498f90618407565b80156149dc5780601f106149b1576101008083540402835291602001916149dc565b820191906000526020600020905b8154815290600101906020018083116149bf57829003601f168201915b505050505081525050915050919050565b614a0167362bf00bf828ba0b60c01b616c8c565b7fa49807205ce4d355092ef5a8a18f56e8913cf4a201fbe287825b095693c21775614a2b81616c9a565b614a3f677ab541234254eefe60c01b616c8c565b614a53678e35473e3dc53ad960c01b616c8c565b614a6767a44b733de9f68d4660c01b616c8c565b614a7b67f8632cf2b3412b6c60c01b616c8c565b614a8361741c565b50565b60006002600084815260200190815260200160002060000160008373ffffffffffffffffffffffffffffffffffffffff1673ffffffffffffffffffffffffffffffffffffffff16815260200190815260200160002060009054906101000a900460ff16905092915050565b6000614b07678ea563f7c150146560c01b616c8c565b614b0f616cae565b614b2367a7e761fe5ec88df860c01b616c8c565b614b37672f02dd51d9baa24460c01b616c8c565b614b3f616cfd565b614b53675c6afdd9ee1670d360c01b616c8c565b614b67673f5553caa6ee380460c01b616c8c565b614b7b67bcfe584fb5e71f4c60c01b616c8c565b614b8f67d49bb39f9f798af260c01b616c8c565b614ba3678c4c16ad36fb646b60c01b616c8c565b600073ffffffffffffffffffffffffffffffffffffffff16826000016020810190614bce919061833f565b73ffffffffffffffffffffffffffffffffffffffff1603614c24576040517f08c379a0000000000000000000000000000000000000000000000000000000008152600401614c1b906190c6565b60405180910390fd5b614c3867f828271789025c5c60c01b616c8c565b614c4c67b0f42a56cfb7956f60c01b616c8c565b614c6067dc55a9a15b31579d60c01b616c8c565b614c746706e138e913a8532360c01b616c8c565b600073ffffffffffffffffffffffffffffffffffffffff16826020016020810190614c9f919061833f565b73ffffffffffffffffffffffffffffffffffffffff1603614cf5576040517f08c379a0000000000000000000000000000000000000000000000000000000008152600401614cec90619132565b60405180910390fd5b614d0967259373f9788432e060c01b616c8c565b614d1d6726fa370acbcea56960c01b616c8c565b614d3167448435c0d02fe03e60c01b616c8c565b614d4567c176d571f516ced960c01b616c8c565b816020016020810190614d58919061833f565b73ffffffffffffffffffffffffffffffffffffffff16826000016020810190614d81919061833f565b73ffffffffffffffffffffffffffffffffffffffff1603614dd7576040517f08c379a0000000000000000000000000000000000000000000000000000000008152600401614dce906191c4565b60405180910390fd5b614deb67d7ec9c08a6dd4f1f60c01b616c8c565b614dff67aab91efa85e535d060c01b616c8c565b614e136728f5d32b12d49b1f60c01b616c8c565b614e276750f0ca48f139efae60c01b616c8c565b600073ffffffffffffffffffffffffffffffffffffffff16826080016020810190614e52919061833f565b73ffffffffffffffffffffffffffffffffffffffff1603614ea8576040517f08c379a0000000000000000000000000000000000000000000000000000000008152600401614e9f90619230565b60405180910390fd5b614ebc6747c9248489f3abbe60c01b616c8c565b614ed06770857eaee780356060c01b616c8c565b614ee467aca1e74e4a5ab5c660c01b616c8c565b614ef867ef90e55c350e6f3860c01b616c8c565b60056000836080016020810190614f0f919061833f565b73ffffffffffffffffffffffffffffffffffffffff1673ffffffffffffffffffffffffffffffffffffffff16815260200190815260200160002060009054906101000a900460ff16614f96576040517f08c379a0000000000000000000000000000000000000000000000000000000008152600401614f8d9061929c565b60405180910390fd5b614faa67753fc3095b10b32e60c01b616c8c565b614fbe675f83febc717d8b8560c01b616c8c565b614fd26785ae718742506ed360c01b616c8c565b614fe667bb5394172243e3da60c01b616c8c565b60008260a001351161502d576040517f08c379a000000000000000000000000000000000000000000000000000000000815260040161502490619308565b60405180910390fd5b61504167a766b5b3697b2aa460c01b616c8c565b61505567be985754e361291460c01b616c8c565b61506967ad5fb03be925d61a60c01b616c8c565b61507d6780d818881c6c093260c01b616c8c565b42826101200135116150c4576040517f08c379a00000000000000000000000000000000000000000000000000000000081526004016150bb90619374565b60405180910390fd5b6150d8672093099e015080f860c01b616c8c565b6150ec679fe2bf4f59b1b89a60c01b616c8c565b615100670a7b7ec43c7dcd6960c01b616c8c565b61511467793cc5f3a49f50ac60c01b616c8c565b81610120013582610140013511615160576040517f08c379a0000000000000000000000000000000000000000000000000000000008152600401615157906193e0565b60405180910390fd5b6151746736ef4f16ed6f44e860c01b616c8c565b6151886707b0216926ed85b660c01b616c8c565b61519c678bedfec1e19f5e6c60c01b616c8c565b6151b0671c9ce8bccd61fd7260c01b616c8c565b6000828061010001906151c39190619400565b80600001906151d29190619428565b905011615214576040517f08c379a000000000000000000000000000000000000000000000000000000000815260040161520b906194d5565b60405180910390fd5b615228672fa949f0c1f4adfa60c01b616c8c565b61523c677e2336706229083460c01b616c8c565b61525067bb045bac13979bbe60c01b616c8c565b600060066000815480929190615265906194f5565b91905055905061527f670fc3350849d69ac460c01b616c8c565b61529367de32ddf78941a39860c01b616c8c565b60006003600083815260200190815260200160002090506152be672cd41b1b891179f260c01b616c8c565b8181600001819055506152db6704c7dfa8c5f2f64760c01b616c8c565b8360000160208101906152ee919061833f565b8160010160006101000a81548173ffffffffffffffffffffffffffffffffffffffff021916908373ffffffffffffffffffffffffffffffffffffffff160217905550615344675622e8911412537060c01b616c8c565b836020016020810190615357919061833f565b8160020160006101000a81548173ffffffffffffffffffffffffffffffffffffffff021916908373ffffffffffffffffffffffffffffffffffffffff1602179055506153ad671060d15b7d94ba9e60c01b616c8c565b8360400160208101906153c0919061833f565b8160030160006101000a81548173ffffffffffffffffffffffffffffffffffffffff021916908373ffffffffffffffffffffffffffffffffffffffff160217905550615416676872dac89235d31160c01b616c8c565b836060016020810190615429919061833f565b8160040160006101000a81548173ffffffffffffffffffffffffffffffffffffffff021916908373ffffffffffffffffffffffffffffffffffffffff16021790555061547f677520262c019a254d60c01b616c8c565b836080016020810190615492919061833f565b8160050160006101000a81548173ffffffffffffffffffffffffffffffffffffffff021916908373ffffffffffffffffffffffffffffffffffffffff1602179055506154e867106938049c3e198160c01b616c8c565b8360a0013581600601819055506155096736770db5f46b071260c01b616c8c565b8360c00135816007018190555061552a67b3139cca3ea1ddca60c01b616c8c565b8360e00135816008018190555061554b67a746e5cce1d391fd60c01b616c8c565b60008160090160006101000a81548160ff0219169083600681111561557357615572617ef9565b5b021790555061558c675fcfb7e5835a344560c01b616c8c565b8380610100019061559d9190619400565b81600a0181816155ad919061969d565b9050506155c46727f67d3745cf7d3f60c01b616c8c565b4281600f01819055506155e16779b5f227e7e2927e60c01b616c8c565b83610120013581601001819055506156036780c82f61e4de853460c01b616c8c565b836101400135816011018190555061562567fbe28c1fde0c72d060c01b616c8c565b6156396786aff133918df36e60c01b616c8c565b83602001602081019061564c919061833f565b73ffffffffffffffffffffffffffffffffffffffff16846000016020810190615675919061833f565b73ffffffffffffffffffffffffffffffffffffffff16837f9405ad0a6208539879349284d71265479b1623846f70303da1f9890d6e8c10a78760a001356040516156bf9190617ede565b60405180910390a46156db67891394cf48c529e160c01b616c8c565b6156ef67c81018329ac917f860c01b616c8c565b81925050506156fc6170d5565b919050565b6000801b81565b61571c672b8bd6126cc34cfb60c01b616c8c565b615724616cae565b61573867ba55fd98427f7e2060c01b616c8c565b61574c67d96988ef6fe8a78560c01b616c8c565b615754616cfd565b61576867c9a1a21755872d5e60c01b616c8c565b61577c675523569106cd832660c01b616c8c565b80615791677d57dec5f9150b3460c01b616c8c565b6157a56726010ffe836c44ab60c01b616c8c565b6157b96774cac189923e6f5960c01b616c8c565b6157cd67dd8748dc1881bb0760c01b616c8c565b6006548110615811576040517f08c379a0000000000000000000000000000000000000000000000000000000008152600401615808906183d1565b60405180910390fd5b6158256787210bbac79840a260c01b616c8c565b61583967f09ab0a93bc2471b60c01b616c8c565b61584d670cc0ee08acaa76b460c01b616c8c565b6158616793c5e30cc707425860c01b616c8c565b81600261587867c93f2230ba8c625660c01b616c8c565b61588c6732a30df3d232ac8360c01b616c8c565b6158a0677475f200801517f760c01b616c8c565b6158b4678532520bd80e107860c01b616c8c565b8060068111156158c7576158c6617ef9565b5b6003600084815260200190815260200160002060090160009054906101000a900460ff1660068111156158fd576158fc617ef9565b5b1461593d576040517f08c379a000000000000000000000000000000000000000000000000000000000815260040161593490618703565b60405180910390fd5b61595167f081accdc96c05ff60c01b616c8c565b615965671aba0ed9dc22e03c60c01b616c8c565b6159796772998153ce0de16d60c01b616c8c565b61598d67e250abff1c0a537560c01b616c8c565b6159a16756daa7aa51e13e2960c01b616c8c565b6159b567126b2b3cb9a6f93b60c01b616c8c565b60006003600086815260200190815260200160002090506159e0671652662bb03a176660c01b616c8c565b6159f467b6a19f27a94dd5a860c01b616c8c565b6000615a0a678e438012454d156460c01b616c8c565b615a1e673f8203df503a39bb60c01b616c8c565b8160010160009054906101000a900473ffffffffffffffffffffffffffffffffffffffff1673ffffffffffffffffffffffffffffffffffffffff163373ffffffffffffffffffffffffffffffffffffffff1603615b7957615a8967b8404af0c5c077a660c01b616c8c565b615a9d6793667f50ac80162360c01b616c8c565b615ab1675a6ca0950ce7de6f60c01b616c8c565b615ac567820bb75ac1e2736660c01b616c8c565b8160120160009054906101000a900460ff1615615b17576040517f08c379a0000000000000000000000000000000000000000000000000000000008152600401615b0e906184f0565b60405180910390fd5b615b2b67522663b78052e66760c01b616c8c565b615b3f67a259bc2524640c0260c01b616c8c565b60018260120160006101000a81548160ff021916908315150217905550615b7067dfcd2861385d3b2860c01b616c8c565b60009050615ef8565b615b8d674c6940a64de0c6d960c01b616c8c565b615ba167602ba9c7de7ea36960c01b616c8c565b8160020160009054906101000a900473ffffffffffffffffffffffffffffffffffffffff1673ffffffffffffffffffffffffffffffffffffffff163373ffffffffffffffffffffffffffffffffffffffff1603615cfc57615c0c678918680463ca49e460c01b616c8c565b615c2067be9a3673c9112caa60c01b616c8c565b615c346757ae8a671b44fafa60c01b616c8c565b615c4867ba3931976c33627460c01b616c8c565b8160120160019054906101000a900460ff1615615c9a576040517f08c379a0000000000000000000000000000000000000000000000000000000008152600401615c919061855c565b60405180910390fd5b615cae67ae33a804ed213f7960c01b616c8c565b615cc2673ab202db419a63e060c01b616c8c565b60018260120160016101000a81548160ff021916908315150217905550615cf367e2faf10174bfe18460c01b616c8c565b60019050615ef7565b615d10672da58ec807fbf25060c01b616c8c565b615d2467e44b4bdd5f1696a360c01b616c8c565b8160030160009054906101000a900473ffffffffffffffffffffffffffffffffffffffff1673ffffffffffffffffffffffffffffffffffffffff163373ffffffffffffffffffffffffffffffffffffffff1603615e7f57615d8f676253f9da1d1dd52260c01b616c8c565b615da367ab881d72738082a760c01b616c8c565b615db76735b4cf43d34c539160c01b616c8c565b615dcb6765680dad34c20f0460c01b616c8c565b8160120160029054906101000a900460ff1615615e1d576040517f08c379a0000000000000000000000000000000000000000000000000000000008152600401615e14906185c8565b60405180910390fd5b615e3167cee1bdd0c530865e60c01b616c8c565b615e45676fa8473eeec4b95860c01b616c8c565b60018260120160026101000a81548160ff021916908315150217905550615e7667036b8a3abd92860d60c01b616c8c565b60029050615ef6565b615e9367133bc70981029f1c60c01b616c8c565b615ea767303754a603b03c9660c01b616c8c565b615ebb67899e154dffe66ecc60c01b616c8c565b6040517f08c379a0000000000000000000000000000000000000000000000000000000008152600401615eed90618634565b60405180910390fd5b5b5b615f0c67b272b9b7f1f12c1360c01b616c8c565b615f2067c6b2aeb113567e4360c01b616c8c565b3373ffffffffffffffffffffffffffffffffffffffff16867f8c76bb4d0d0276699b16a2e9464b50cad045b0200b9bc632ae3a5d57077fa26483604051615f67919061869c565b60405180910390a35050505050615f7c6170d5565b50565b615f93673e045c020303f41a60c01b616c8c565b7fa49807205ce4d355092ef5a8a18f56e8913cf4a201fbe287825b095693c21775615fbd81616c9a565b615fd1673f69ab222e2f3a1560c01b616c8c565b615fe567666031f96bccb90b60c01b616c8c565b615ff9677f928dedfc9d673160c01b616c8c565b61600d6760a878abb15a233760c01b616c8c565b61603833838573ffffffffffffffffffffffffffffffffffffffff166173969092919063ffffffff16565b505050565b60075481565b61604c826115d5565b61605581616c9a565b61605f83836171c8565b505050565b60056020528060005260406000206000915054906101000a900460ff1681565b6160986758411a712baf65d260c01b616c8c565b6160a0616cae565b6160b467b44dc743ac8577b060c01b616c8c565b6160c86760e619b6899154f560c01b616c8c565b6160d0616cfd565b6160e467e0f0728261e3032a60c01b616c8c565b6160f8672fa11a4ecc93076660c01b616c8c565b8061610d677d57dec5f9150b3460c01b616c8c565b6161216726010ffe836c44ab60c01b616c8c565b6161356774cac189923e6f5960c01b616c8c565b61614967dd8748dc1881bb0760c01b616c8c565b600654811061618d576040517f08c379a0000000000000000000000000000000000000000000000000000000008152600401616184906183d1565b60405180910390fd5b6161a16787210bbac79840a260c01b616c8c565b6161b567f09ab0a93bc2471b60c01b616c8c565b6161c967dcd3978c9ac8f26960c01b616c8c565b6161dd673b6aaaa1f91285fc60c01b616c8c565b8160006161f467c93f2230ba8c625660c01b616c8c565b6162086732a30df3d232ac8360c01b616c8c565b61621c677475f200801517f760c01b616c8c565b616230678532520bd80e107860c01b616c8c565b80600681111561624357616242617ef9565b5b6003600084815260200190815260200160002060090160009054906101000a900460ff16600681111561627957616278617ef9565b5b146162b9576040517f08c379a00000000000000000000000000000000000000000000000000000000081526004016162b090618703565b60405180910390fd5b6162cd67f081accdc96c05ff60c01b616c8c565b6162e1671aba0ed9dc22e03c60c01b616c8c565b6162f5679ccc97a1aefa6eff60c01b616c8c565b61630967aaf0c81cce25194f60c01b616c8c565b8361631e67c362baef55bfd4f560c01b616c8c565b61633267babec034d6ac2c9760c01b616c8c565b61634667371654452d7864fa60c01b616c8c565b60006003600083815260200190815260200160002060405180610240016040529081600082015481526020016001820160009054906101000a900473ffffffffffffffffffffffffffffffffffffffff1673ffffffffffffffffffffffffffffffffffffffff1673ffffffffffffffffffffffffffffffffffffffff1681526020016002820160009054906101000a900473ffffffffffffffffffffffffffffffffffffffff1673ffffffffffffffffffffffffffffffffffffffff1673ffffffffffffffffffffffffffffffffffffffff1681526020016003820160009054906101000a900473ffffffffffffffffffffffffffffffffffffffff1673ffffffffffffffffffffffffffffffffffffffff1673ffffffffffffffffffffffffffffffffffffffff1681526020016004820160009054906101000a900473ffffffffffffffffffffffffffffffffffffffff1673ffffffffffffffffffffffffffffffffffffffff1673ffffffffffffffffffffffffffffffffffffffff1681526020016005820160009054906101000a900473ffffffffffffffffffffffffffffffffffffffff1673ffffffffffffffffffffffffffffffffffffffff1673ffffffffffffffffffffffffffffffffffffffff1681526020016006820154815260200160078201548152602001600882015481526020016009820160009054906101000a900460ff16600681111561656257616561617ef9565b5b600681111561657457616573617ef9565b5b8152602001600a82016040518060a001604052908160008201805461659890618407565b80601f01602080910402602001604051908101604052809291908181526020018280546165c490618407565b80156166115780601f106165e657610100808354040283529160200191616611565b820191906000526020600020905b8154815290600101906020018083116165f457829003601f168201915b5050505050815260200160018201805461662a90618407565b80601f016020809104026020016040519081016040528092919081815260200182805461665690618407565b80156166a35780601f10616678576101008083540402835291602001916166a3565b820191906000526020600020905b81548152906001019060200180831161668657829003601f168201915b50505050508152602001600282015481526020016003820180546166c690618407565b80601f01602080910402602001604051908101604052809291908181526020018280546166f290618407565b801561673f5780601f106167145761010080835404028352916020019161673f565b820191906000526020600020905b81548152906001019060200180831161672257829003601f168201915b505050505081526020016004820160009054906101000a900460ff1615151515815250508152602001600f820154815260200160108201548152602001601182015481526020016012820160009054906101000a900460ff161515151581526020016012820160019054906101000a900460ff161515151581526020016012820160029054906101000a900460ff161515151581526020016013820180546167e690618407565b80601f016020809104026020016040519081016040528092919081815260200182805461681290618407565b801561685f5780601f106168345761010080835404028352916020019161685f565b820191906000526020600020905b81548152906001019060200180831161684257829003601f168201915b505050505081525050905061687e674b58a120a8e1852e60c01b616c8c565b6168926779526f99f126f69d60c01b616c8c565b6168a667a5d77d50f63d0b8060c01b616c8c565b806020015173ffffffffffffffffffffffffffffffffffffffff163373ffffffffffffffffffffffffffffffffffffffff161480156168f557506168f4678af228676e050e4e60c01b616c8f565b5b806169675750806040015173ffffffffffffffffffffffffffffffffffffffff163373ffffffffffffffffffffffffffffffffffffffff1614801561694a575061694967714163c201dfdfd360c01b616c8f565b5b8015616966575061696567a56ad4055d78216960c01b616c8f565b5b5b806169d95750806060015173ffffffffffffffffffffffffffffffffffffffff163373ffffffffffffffffffffffffffffffffffffffff161480156169bc57506169bb67efe8509baf7e853a60c01b616c8f565b5b80156169d857506169d767d39eb3929914969760c01b616c8f565b5b5b80616a4b5750806080015173ffffffffffffffffffffffffffffffffffffffff163373ffffffffffffffffffffffffffffffffffffffff16148015616a2e5750616a2d67b2fe4baf9775d47b60c01b616c8f565b5b8015616a4a5750616a49671796a977ae82768260c01b616c8f565b5b5b80616a985750616a7b7fa49807205ce4d355092ef5a8a18f56e8913cf4a201fbe287825b095693c2177533614a86565b8015616a975750616a9667aa1f7d13dab5abe560c01b616c8f565b5b5b616ad7576040517f08c379a0000000000000000000000000000000000000000000000000000000008152600401616ace90618eb2565b60405180910390fd5b616aeb67898139d3532fbd1b60c01b616c8c565b616aff6757c230282779988060c01b616c8c565b616b13670528abee41a9cc6960c01b616c8c565b616b276718de306c002734e960c01b616c8c565b616b3b674e7c2e3f38e1c94e60c01b616c8c565b60066003600088815260200190815260200160002060090160006101000a81548160ff02191690836006811115616b7557616b74617ef9565b5b0217905550616b8e67c1ffefeb1d54213860c01b616c8c565b616ba26709b1b364d721005160c01b616c8c565b3373ffffffffffffffffffffffffffffffffffffffff16867f6f44c80719cb2f74bdbd68b7af10147acb9b52e2675ad02f9c87f0985995993860405160405180910390a35050505050616bf36170d5565b50565b61271081565b600860009054906101000a900473ffffffffffffffffffffffffffffffffffffffff1681565b60007f01ffc9a7000000000000000000000000000000000000000000000000000000007bffffffffffffffffffffffffffffffffffffffffffffffffffffffff1916827bffffffffffffffffffffffffffffffffffffffffffffffffffffffff1916149050919050565b50565b600060019050919050565b616cab81616ca66171c0565b61747e565b50565b600260005403616cf3576040517f08c379a0000000000000000000000000000000000000000000000000000000008152600401616cea906196f7565b60405180910390fd5b6002600081905550565b616d05614361565b15616d45576040517f08c379a0000000000000000000000000000000000000000000000000000000008152600401616d3c90619763565b60405180910390fd5b565b616d5b67703f771119885b4d60c01b616c8c565b616d6f671130fe409ff9c7fd60c01b616c8c565b616d8367fdf1f3fc9b29e12360c01b616c8c565b6000600360008381526020019081526020016000209050616dae679092c03f6adda83260c01b616c8c565b616dc267c982a78a41f56aa060c01b616c8c565b616dd6678dc82c0f1e4ddc6960c01b616c8c565b60016006811115616dea57616de9617ef9565b5b8160090160009054906101000a900460ff166006811115616e0e57616e0d617ef9565b5b148015616e2b5750616e2a671a2254c61ed8863360c01b616c8f565b5b80616ea3575060046006811115616e4557616e44617ef9565b5b8160090160009054906101000a900460ff166006811115616e6957616e68617ef9565b5b148015616e865750616e85678497fba44f7f643d60c01b616c8f565b5b8015616ea25750616ea167ba12a4babf24764260c01b616c8f565b5b5b80616eff575060026006811115616ebd57616ebc617ef9565b5b8160090160009054906101000a900460ff166006811115616ee157616ee0617ef9565b5b148015616efe5750616efd672f4ab564947f015b60c01b616c8f565b5b5b616f3e576040517f08c379a0000000000000000000000000000000000000000000000000000000008152600401616f35906197cf565b60405180910390fd5b616f526745dc7e52084c494860c01b616c8c565b616f666790923933563244e660c01b616c8c565b60058160090160006101000a81548160ff02191690836006811115616f8e57616f8d617ef9565b5b0217905550616fa767c9b07b4cb1d62f7060c01b616c8c565b616fbb670af73fb49da0185660c01b616c8c565b6170328160010160009054906101000a900473ffffffffffffffffffffffffffffffffffffffff1682600601548360050160009054906101000a900473ffffffffffffffffffffffffffffffffffffffff1673ffffffffffffffffffffffffffffffffffffffff166173969092919063ffffffff16565b617046679489ca8ad740b24860c01b616c8c565b61705a67c4331081dfafbb7260c01b616c8c565b8060010160009054906101000a900473ffffffffffffffffffffffffffffffffffffffff1673ffffffffffffffffffffffffffffffffffffffff16827f80b577b4fc190ab86d963549e29f496afd079c5d81a2480d61217d4b5060a28c83600601546040516170c99190617ede565b60405180910390a35050565b6001600081905550565b6170e98282614a86565b6171bc5760016002600084815260200190815260200160002060000160008373ffffffffffffffffffffffffffffffffffffffff1673ffffffffffffffffffffffffffffffffffffffff16815260200190815260200160002060006101000a81548160ff0219169083151502179055506171616171c0565b73ffffffffffffffffffffffffffffffffffffffff168173ffffffffffffffffffffffffffffffffffffffff16837f2f8788117e7eff1d82e926ec794901d17c78024a50270940304540a733656f0d60405160405180910390a45b5050565b600033905090565b6171d28282614a86565b156172a65760006002600084815260200190815260200160002060000160008373ffffffffffffffffffffffffffffffffffffffff1673ffffffffffffffffffffffffffffffffffffffff16815260200190815260200160002060006101000a81548160ff02191690831515021790555061724b6171c0565b73ffffffffffffffffffffffffffffffffffffffff168173ffffffffffffffffffffffffffffffffffffffff16837ff6391f5c32d9c69d2a47ea670b442974b53935d1edc7fd64eb21e047a839171b60405160405180910390a45b5050565b61732d846323b872dd60e01b8585856040516024016172cb939291906197ef565b604051602081830303815290604052907bffffffffffffffffffffffffffffffffffffffffffffffffffffffff19166020820180517bffffffffffffffffffffffffffffffffffffffffffffffffffffffff8381831617835250505050617503565b50505050565b61733b6175cb565b6000600160006101000a81548160ff0219169083151502179055507f5db9ee0a495bf2e6ff9c91a7834c1ba4fdd244a5e8aa4e537bd38aeae4b073aa61737f6171c0565b60405161738c919061836a565b60405180910390a1565b6174178363a9059cbb60e01b84846040516024016173b5929190619826565b604051602081830303815290604052907bffffffffffffffffffffffffffffffffffffffffffffffffffffffff19166020820180517bffffffffffffffffffffffffffffffffffffffffffffffffffffffff8381831617835250505050617503565b505050565b617424616cfd565b60018060006101000a81548160ff0219169083151502179055507f62e78cea01bee320cd4e420270b5ea74000d11b0c9f74754ebdbfc544b05a2586174676171c0565b604051617474919061836a565b60405180910390a1565b6174888282614a86565b6174ff5761749581617614565b6174a38360001c6020617641565b6040516020016174b4929190619923565b6040516020818303038152906040526040517f08c379a00000000000000000000000000000000000000000000000000000000081526004016174f69190619996565b60405180910390fd5b5050565b6000617565826040518060400160405280602081526020017f5361666545524332303a206c6f772d6c6576656c2063616c6c206661696c65648152508573ffffffffffffffffffffffffffffffffffffffff1661787d9092919063ffffffff16565b905060008151148061758757508080602001905181019061758691906199cd565b5b6175c6576040517f08c379a00000000000000000000000000000000000000000000000000000000081526004016175bd90619a6a565b60405180910390fd5b505050565b6175d3614361565b617612576040517f08c379a000000000000000000000000000000000000000000000000000000000815260040161760990619ad6565b60405180910390fd5b565b606061763a8273ffffffffffffffffffffffffffffffffffffffff16601460ff16617641565b9050919050565b6060600060028360026176549190618dab565b61765e9190619af6565b67ffffffffffffffff811115617677576176766187c0565b5b6040519080825280601f01601f1916602001820160405280156176a95781602001600182028036833780820191505090505b5090507f3000000000000000000000000000000000000000000000000000000000000000816000815181106176e1576176e0619b2a565b5b60200101907effffffffffffffffffffffffffffffffffffffffffffffffffffffffffffff1916908160001a9053507f78000000000000000000000000000000000000000000000000000000000000008160018151811061774557617744619b2a565b5b60200101907effffffffffffffffffffffffffffffffffffffffffffffffffffffffffffff1916908160001a905350600060018460026177859190618dab565b61778f9190619af6565b90505b600181111561782f577f3031323334353637383961626364656600000000000000000000000000000000600f8616601081106177d1576177d0619b2a565b5b1a60f81b8282815181106177e8576177e7619b2a565b5b60200101907effffffffffffffffffffffffffffffffffffffffffffffffffffffffffffff1916908160001a905350600485901c94508061782890619b40565b9050617792565b5060008414617873576040517f08c379a000000000000000000000000000000000000000000000000000000000815260040161786a90619bb4565b60405180910390fd5b8091505092915050565b606061788c8484600085617895565b90509392505050565b6060824710156178da576040517f08c379a00000000000000000000000000000000000000000000000000000000081526004016178d190619c46565b60405180910390fd5b6000808673ffffffffffffffffffffffffffffffffffffffff1685876040516179039190619c97565b60006040518083038185875af1925050503d8060008114617940576040519150601f19603f3d011682016040523d82523d6000602084013e617945565b606091505b509150915061795687838387617962565b92505050949350505050565b606083156179c45760008351036179bc5761797c856179d7565b6179bb576040517f08c379a00000000000000000000000000000000000000000000000000000000081526004016179b290619cfa565b60405180910390fd5b5b8290506179cf565b6179ce83836179fa565b5b949350505050565b6000808273ffffffffffffffffffffffffffffffffffffffff163b119050919050565b600082511115617a0d5781518083602001fd5b806040517f08c379a0000000000000000000000000000000000000000000000000000000008152600401617a419190619996565b60405180910390fd5b60405180610240016040528060008152602001600073ffffffffffffffffffffffffffffffffffffffff168152602001600073ffffffffffffffffffffffffffffffffffffffff168152602001600073ffffffffffffffffffffffffffffffffffffffff168152602001600073ffffffffffffffffffffffffffffffffffffffff168152602001600073ffffffffffffffffffffffffffffffffffffffff16815260200160008152602001600081526020016000815260200160006006811115617b1757617b16617ef9565b5b8152602001617b24617b61565b8152602001600081526020016000815260200160008152602001600015158152602001600015158152602001600015158152602001606081525090565b6040518060a00160405280606081526020016060815260200160008152602001606081526020016000151581525090565b600080fd5b600063ffffffff60e01b82169050919050565b617bb381617b97565b8114617bbe57600080fd5b50565b600081359050617bd081617baa565b92915050565b600060208284031215617bec57617beb617b92565b5b617bf98360008401617bc1565b905092915050565b60008115159050919050565b617c1681617c01565b82525050565b6000602082019050617c316000830184617c0d565b92915050565b6000819050919050565b617c4a81617c37565b8114617c5557600080fd5b50565b600081359050617c6781617c41565b92915050565b600060208284031215617c8357617c82617b92565b5b617c908360008401617c58565b905092915050565b600060018060a01b0382169050919050565b6000617cb582617c98565b9050919050565b617cc581617caa565b8114617cd057600080fd5b50565b600081359050617ce281617cbc565b92915050565b617cf181617c01565b8114617cfc57600080fd5b50565b600081359050617d0e81617ce8565b92915050565b60008060408385031215617d2b57617d2a617b92565b5b617d388460008501617cd3565b9150617d478460208501617cff565b90509250929050565b617d5981617c37565b82525050565b6000602082019050617d746000830184617d50565b92915050565b617d8381617c37565b8114617d8e57600080fd5b50565b600081359050617da081617d7a565b92915050565b600060208284031215617dbc57617dbb617b92565b5b617dc98360008401617d91565b905092915050565b60008083601f840112617de757617de6617b92565b5b8235905060018060401b03811115617e0257617e01617b92565b5b602083019150836001820283011115617e1e57617e1d617b92565b5b9250929050565b60008060008060608587031215617e3f57617e3e617b92565b5b617e4c8660008701617c58565b9350617e5b8660208701617cff565b9250604085013560018060401b03811115617e7957617e78617b92565b5b617e8587828801617dd1565b925092505092959194509250565b60008060408385031215617eaa57617ea9617b92565b5b617eb78460008501617d91565b9150617ec68460208501617cd3565b90509250929050565b617ed881617c37565b82525050565b6000602082019050617ef36000830184617ecf565b92915050565b634e487b7160e01b600052602160045260246000fd5b60078110617f2057617f1f617ef9565b5b50565b6000819050617f3182617f0f565b919050565b6000617f4182617f23565b9050919050565b617f5181617f36565b82525050565b6000602082019050617f6c6000830184617f48565b92915050565b600080600060408486031215617f8b57617f8a617b92565b5b617f988560008601617c58565b9250602084013560018060401b03811115617fb657617fb5617b92565b5b617fc286828701617dd1565b92509250509250925092565b617fd781617caa565b82525050565b600081519050919050565b818152600060208201905092915050565b60005b83811015618017578082015181840152602081019050617ffc565b50600083830152505050565b6000601f19601f8301169050919050565b600061803f82617fdd565b6180498185617fe8565b9350618059818560208601617ff9565b61806281618023565b840191505092915050565b600060a083016000830151848203600086015261808a8282618034565b915050602083015184820360208601526180a48282618034565b91505060408301516180b96040860182617ecf565b50606083015184820360608601526180d18282618034565b91505060808301516180e66080860182617c0d565b508091505092915050565b60006102408301600083015161810a6000860182617ecf565b50602083015161811d6020860182617fce565b5060408301516181306040860182617fce565b5060608301516181436060860182617fce565b5060808301516181566080860182617fce565b5060a083015161816960a0860182617fce565b5060c083015161817c60c0860182617ecf565b5060e083015161818f60e0860182617ecf565b506101008301516181a4610100860182617ecf565b506101208301516181b9610120860182617f48565b506101408301518482036101408601526181d3828261806d565b9150506101608301516181ea610160860182617ecf565b506101808301516181ff610180860182617ecf565b506101a08301516182146101a0860182617ecf565b506101c08301516182296101c0860182617c0d565b506101e083015161823e6101e0860182617c0d565b50610200830151618253610200860182617c0d565b5061022083015184820361022086015261826d8282618034565b9150508091505092915050565b6000602082019050818103600083015261829481846180f1565b905092915050565b600061016082840312156182b3576182b2617b92565b5b81905092915050565b6000602082840312156182d2576182d1617b92565b5b600082013560018060401b038111156182ee576182ed617b92565b5b6182fa8482850161829c565b91505092915050565b6000806040838503121561831a57618319617b92565b5b6183278460008501617cd3565b91506183368460208501617c58565b90509250929050565b60006020828403121561835557618354617b92565b5b6183628360008401617cd3565b905092915050565b600060208201905061837f6000830184617fce565b92915050565b7f496e76616c696420657363726f77204944000000000000000000000000000000600082015250565b6183b9601182617fe8565b90506183c481618385565b6000602082019050919050565b600060208201905081810360008301526183ea816183ae565b9050919050565b634e487b7160e01b600052602260045260246000fd5b6000600282049050600182168061841f57607f821691505b602082108103618432576184316183f1565b5b50919050565b7f46656520746f6f20686967680000000000000000000000000000000000000000600082015250565b61846c600c82617fe8565b905061847781618438565b6000602082019050919050565b6000602082019050818103600083015261849d81618461565b9050919050565b7f427579657220616c726561647920617070726f76656400000000000000000000600082015250565b6184d8601682617fe8565b90506184e3816184a4565b6000602082019050919050565b60006020820190508181036000830152618509816184cd565b9050919050565b7f53656c6c657220616c726561647920617070726f766564000000000000000000600082015250565b618544601782617fe8565b905061854f81618510565b6000602082019050919050565b6000602082019050818103600083015261857581618539565b9050919050565b7f4167656e7420616c726561647920617070726f76656400000000000000000000600082015250565b6185b0601682617fe8565b90506185bb8161857c565b6000602082019050919050565b600060208201905081810360008301526185e1816185a5565b9050919050565b7f4e6f7420617574686f72697a656420746f20617070726f766500000000000000600082015250565b61861c601982617fe8565b9050618627816185e8565b6000602082019050919050565b6000602082019050818103600083015261864d81618611565b9050919050565b6005811061866557618664617ef9565b5b50565b600081905061867682618654565b919050565b600061868682618668565b9050919050565b6186968161867b565b82525050565b60006020820190506186b1600083018461868d565b92915050565b7f496e76616c696420657363726f77207374617465000000000000000000000000600082015250565b6186eb601482617fe8565b90506186f6816186b7565b6000602082019050919050565b6000602082019050818103600083015261871c816186e0565b9050919050565b7f4f6e6c792061726269746572206f722061646d696e2063616e207265736f6c7660008201527f6500000000000000000000000000000000000000000000000000000000000000602082015250565b61877d602182617fe8565b905061878881618723565b6000604082019050919050565b600060208201905081810360008301526187ae81618772565b9050919050565b506000819050919050565b634e487b7160e01b600052604160045260246000fd5b60008190508160005260206000209050919050565b60006020601f8301049050919050565b600082821b905092915050565b60006008830261881a600019826187fb565b61882486836187fb565b95508019841693508086168417925050509392505050565b600061885761885261884d84617c37565b617c37565b617c37565b9050919050565b6188678361883c565b61887b61887382617c37565b848454618808565b825550505050565b600090565b618890618883565b61889b81848461885e565b505050565b5b818110156188bf576188b4600082618888565b6001810190506188a1565b5050565b601f821115618904576188d5816187d6565b6188de846187eb565b810160208510156188ed578190505b6189016188f9856187eb565b8301826188a0565b50505b505050565b600082821c905092915050565b600061892760001984600802618909565b1980831691505092915050565b61893e8282618916565b90506000826002028217905092915050565b61895a83836187b5565b60018060401b03811115618971576189706187c0565b5b61897b8254618407565b6189868282856188c3565b506000601f8211600181146189b657600083156189a4578286013590505b6189ae8482618934565b855550618a13565b601f1983166189c4856187d6565b835b828110156189eb578488013582556001820191506020850194506020810190506189c6565b5084821015618a0757618a04601f861685890135618916565b81555b50506001600284020184555b505050505050565b82818337506000828201525050565b618a348284617fe8565b9250618a41828483618a1b565b506000618a4d82618023565b8301905092915050565b60006020820190508181036000830152618a72818486618a2a565b90509392505050565b7f416363657373436f6e74726f6c3a2063616e206f6e6c792072656e6f756e636560008201527f20726f6c657320666f722073656c660000000000000000000000000000000000602082015250565b618ad5602f82617fe8565b9050618ae081618a7b565b6000604082019050919050565b60006020820190508181036000830152618b0681618aca565b9050919050565b7f4f6e6c792061646d696e2063616e20726566756e640000000000000000000000600082015250565b618b41601582617fe8565b9050618b4c81618b0d565b6000602082019050919050565b60006020820190508181036000830152618b7281618b36565b9050919050565b7f4f6e6c792062757965722063616e206465706f73697400000000000000000000600082015250565b618bad601682617fe8565b9050618bb881618b79565b6000602082019050919050565b60006020820190508181036000830152618bde81618ba2565b9050919050565b7f4465706f73697420646561646c696e6520706173736564000000000000000000600082015250565b618c19601782617fe8565b9050618c2481618be5565b6000602082019050919050565b60006020820190508181036000830152618c4a81618c0e565b9050919050565b7f4f6e6c79206167656e74206f722061646d696e2063616e207665726966790000600082015250565b618c85601e82617fe8565b9050618c9081618c51565b6000602082019050919050565b60006020820190508181036000830152618cb681618c7a565b9050919050565b7f566572696669636174696f6e20646561646c696e652070617373656400000000600082015250565b618cf1601c82617fe8565b9050618cfc81618cbd565b6000602082019050919050565b60006020820190508181036000830152618d2281618ce6565b9050919050565b7f52656c6561736520636f6e646974696f6e73206e6f74206d6574000000000000600082015250565b618d5d601a82617fe8565b9050618d6881618d29565b6000602082019050919050565b60006020820190508181036000830152618d8e81618d52565b9050919050565b634e487b7160e01b600052601160045260246000fd5b618db481617c37565b9050618dbf82617c37565b91506000618dce838302617c37565b90508181048314821517618de557618de4618d95565b5b92915050565b634e487b7160e01b600052601260045260246000fd5b618e0a81617c37565b9050618e1582617c37565b9150600082618e2757618e26618deb565b5b828204905092915050565b618e3b81617c37565b9050618e4682617c37565b91506000828203905081811115618e6057618e5f618d95565b5b92915050565b7f4e6f7420617574686f72697a656420666f72207468697320657363726f770000600082015250565b618e9a601e82617fe8565b9050618ea581618e66565b6000602082019050919050565b60006020820190508181036000830152618ecb81618e8f565b9050919050565b7f43616e6e6f74206469737075746520696e2063757272656e7420737461746500600082015250565b618f06601f82617fe8565b9050618f1181618ed2565b6000602082019050919050565b60006020820190508181036000830152618f3781618efb565b9050919050565b7f4469737075746520726561736f6e207265717569726564000000000000000000600082015250565b618f72601782617fe8565b9050618f7d81618f3e565b6000602082019050919050565b60006020820190508181036000830152618fa381618f67565b9050919050565b618fb382617fdd565b60018060401b03811115618fca57618fc96187c0565b5b618fd48254618407565b618fdf8282856188c3565b50600060209050601f8211600181146190135760008315619001578286015190505b61900b8482618934565b855550619073565b601f198316619021856187d6565b60005b8281101561904957848801518255600182019150602085019450602081019050619024565b50848210156190675783870151619063601f871682618916565b8255505b50506001600284020184555b5050505050565b7f496e76616c696420627579657220616464726573730000000000000000000000600082015250565b6190ae601582617fe8565b90506190b98161907a565b6000602082019050919050565b600060208201905081810360008301526190df816190a3565b9050919050565b7f496e76616c69642073656c6c6572206164647265737300000000000000000000600082015250565b61911a601682617fe8565b9050619125816190e6565b6000602082019050919050565b6000602082019050818103600083015261914b8161910f565b9050919050565b7f427579657220616e642073656c6c6572206d757374206265206469666665726560008201527f6e74000000000000000000000000000000000000000000000000000000000000602082015250565b6191ac602282617fe8565b90506191b781619152565b6000604082019050919050565b600060208201905081810360008301526191dd816191a1565b9050919050565b7f496e76616c696420746f6b656e20616464726573730000000000000000000000600082015250565b619218601582617fe8565b9050619223816191e4565b6000602082019050919050565b600060208201905081810360008301526192498161920d565b9050919050565b7f546f6b656e206e6f742077686974656c69737465640000000000000000000000600082015250565b619284601582617fe8565b905061928f81619250565b6000602082019050919050565b600060208201905081810360008301526192b581619279565b9050919050565b7f4465706f73697420616d6f756e74206d75737420626520706f73697469766500600082015250565b6192f0601f82617fe8565b90506192fb816192bc565b6000602082019050919050565b60006020820190508181036000830152619321816192e5565b9050919050565b7f496e76616c6964206465706f73697420646561646c696e650000000000000000600082015250565b61935c601882617fe8565b905061936781619328565b6000602082019050919050565b6000602082019050818103600083015261938d81619351565b9050919050565b7f496e76616c696420766572696669636174696f6e20646561646c696e65000000600082015250565b6193c8601d82617fe8565b90506193d381619394565b6000602082019050919050565b600060208201905081810360008301526193f9816193bd565b9050919050565b60008235600160a00383360303811261941c5761941b617b92565b5b80830191505092915050565b6000808335600160200384360303811261944557619444617b92565b5b8084019250508135905060018060401b0381111561946657619465617b92565b5b60208201915060018102360382131561948257619481617b92565b5b9250929050565b7f50726f7065727479204944207265717569726564000000000000000000000000600082015250565b6194bd601482617fe8565b90506194c881619489565b6000602082019050919050565b600060208201905081810360008301526194ee816194b2565b9050919050565b6194fe81617c37565b905060008019820361951357619512618d95565b5b600182019050919050565b619529838383618950565b505050565b6000813561953b81617c41565b80915050919050565b60008160001b9050919050565b6000801961955e84619544565b9350801983169250808416831791505092915050565b61957d8261883c565b61959061958982617c37565b8354619551565b8255505050565b600081356195a481617ce8565b80915050919050565b6195b682619544565b915060ff1981169050600060ff83168217905092915050565b60006195da82617c01565b9050919050565b6195ea826195cf565b6195fd6195f682617c37565b83546195ad565b8255505050565b6196116000830183619428565b61961f81836000860161951e565b505061962e6020830183619428565b61963c81836001860161951e565b5050604082018061964c8261952e565b905061965b8160028501619574565b505061966a6060830183619428565b61967881836003860161951e565b5050608082018061968882619597565b905061969781600485016195e1565b50505050565b6196a78282619604565b5050565b7f5265656e7472616e637947756172643a207265656e7472616e742063616c6c00600082015250565b6196df601f82617fe8565b90506196ea816196ab565b6000602082019050919050565b60006020820190508181036000830152619710816196d4565b9050919050565b7f5061757361626c653a2070617573656400000000000000000000000000000000600082015250565b61974b601082617fe8565b905061975681619717565b6000602082019050919050565b6000602082019050818103600083015261977c81619740565b9050919050565b7f43616e6e6f7420726566756e6420696e2063757272656e742073746174650000600082015250565b6197b7601e82617fe8565b90506197c281619783565b6000602082019050919050565b600060208201905081810360008301526197e8816197ac565b9050919050565b60006060820190506198046000830186617fce565b6198116020830185617fce565b61981e6040830184617ecf565b949350505050565b600060408201905061983b6000830185617fce565b6198486020830184617ecf565b9392505050565b600081905092915050565b7f416363657373436f6e74726f6c3a206163636f756e7420000000000000000000600082015250565b61988e60178261984f565b90506198998161985a565b6000601782019050919050565b60006198b182617fdd565b6198bb818561984f565b93506198cb818560208601617ff9565b80840191505092915050565b7f206973206d697373696e6720726f6c6520000000000000000000000000000000600082015250565b61990b60118261984f565b9050619916816198d7565b6000601182019050919050565b61992c81619883565b905061993881846198a6565b905061994381619900565b905061994f81836198a6565b905060008190509392505050565b600061996882617fdd565b6199728185617fe8565b9350619982818560208601617ff9565b61998b81618023565b840191505092915050565b600060208201905081810360008301526199b0818461995d565b905092915050565b6000815190506199c781617ce8565b92915050565b6000602082840312156199e3576199e2617b92565b5b6199f083600084016199b8565b905092915050565b7f5361666545524332303a204552433230206f7065726174696f6e20646964206e60008201527f6f74207375636365656400000000000000000000000000000000000000000000602082015250565b619a52602a82617fe8565b9050619a5d816199f8565b6000604082019050919050565b60006020820190508181036000830152619a8381619a47565b9050919050565b7f5061757361626c653a206e6f7420706175736564000000000000000000000000600082015250565b619abe601482617fe8565b9050619ac981619a8a565b6000602082019050919050565b60006020820190508181036000830152619aef81619ab3565b9050919050565b619aff81617c37565b9050619b0a82617c37565b91506000828201905080821115619b2457619b23618d95565b5b92915050565b634e487b7160e01b600052603260045260246000fd5b619b4981617c37565b90506000808203619b5d57619b5c618d95565b5b600182039050919050565b7f537472696e67733a20686578206c656e67746820696e73756666696369656e74600082015250565b619b9c602082617fe8565b9050619ba781619b68565b6000602082019050919050565b60006020820190508181036000830152619bcd81619b91565b9050919050565b7f416464726573733a20696e73756666696369656e742062616c616e636520666f60008201527f722063616c6c0000000000000000000000000000000000000000000000000000602082015250565b619c2e602682617fe8565b9050619c3981619bd4565b6000604082019050919050565b60006020820190508181036000830152619c5f81619c23565b9050919050565b6000619c7182617fdd565b619c7b818561984f565b9350619c8b818560208601617ff9565b80840191505092915050565b619ca18183619c66565b9050600081905092915050565b7f416464726573733a2063616c6c20746f206e6f6e2d636f6e7472616374000000600082015250565b619ce2601d82617fe8565b9050619ced81619cae565b6000602082019050919050565b60006020820190508181036000830152619d1381619cd7565b905091905056fea26469706673582212208466e8c4f39df75e9241a2aff17efcda93ae93298f4cce5609d58f93bd2270aa64736f6c63430008160033a2646970667358221220f6cb5f20eea22198961a4e38064fc78527aeec7243d8457864433a313e781ef764736f6c63430008160033",
  "linkReferences": {},
  "deployedLinkReferences": {}
}