{
  "_format": "hh-sol-artifact-1",
  "contractName": "ERC20PaymentAdapter",
  "sourceName": "contracts/adapters/ERC20PaymentAdapter.sol",
  "abi": [
    {
      "inputs": [],
      "stateMutability": "nonpayable",
      "type": "constructor"
    },
    {
      "anonymous": false,
      "inputs": [
        {
          "indexed": true,
          "internalType": "address",
          "name": "previousOwner",
          "type": "address"
        },
        {
          "indexed": true,
          "internalType": "address",
          "name": "newOwner",
          "type": "address"
        }
      ],
      "name": "OwnershipTransferred",
      "type": "event"
    },
    {
      "anonymous": false,
      "inputs": [
        {
          "indexed": true,
          "internalType": "address",
          "name": "from",
          "type": "address"
        },
        {
          "indexed": true,
          "internalType": "address",
          "name": "to",
          "type": "address"
        },
        {
          "indexed": false,
          "internalType": "uint256",
          "name": "amount",
          "type": "uint256"
        },
        {
          "indexed": true,
          "internalType": "address",
          "name": "token",
          "type": "address"
        },
        {
          "indexed": false,
          "internalType": "bytes",
          "name": "metadata",
          "type": "bytes"
        }
      ],
      "name": "PaymentProcessed",
      "type": "event"
    },
    {
      "inputs": [
        {
          "internalType": "address",
          "name": "token",
          "type": "address"
        },
        {
          "internalType": "uint256",
          "name": "minimumAmount",
          "type": "uint256"
        }
      ],
      "name": "addSupportedToken",
      "outputs": [],
      "stateMutability": "nonpayable",
      "type": "function"
    },
    {
      "inputs": [],
      "name": "getAdapterInfo",
      "outputs": [
        {
          "internalType": "string",
          "name": "name",
          "type": "string"
        },
        {
          "internalType": "string",
          "name": "version",
          "type": "string"
        },
        {
          "internalType": "string[]",
          "name": "supportedFeatures",
          "type": "string[]"
        }
      ],
      "stateMutability": "pure",
      "type": "function"
    },
    {
      "inputs": [
        {
          "internalType": "address",
          "name": "token",
          "type": "address"
        }
      ],
      "name": "isTokenSupported",
      "outputs": [
        {
          "internalType": "bool",
          "name": "supported",
          "type": "bool"
        }
      ],
      "stateMutability": "view",
      "type": "function"
    },
    {
      "inputs": [
        {
          "internalType": "address",
          "name": "",
          "type": "address"
        }
      ],
      "name": "minimumAmounts",
      "outputs": [
        {
          "internalType": "uint256",
          "name": "",
          "type": "uint256"
        }
      ],
      "stateMutability": "view",
      "type": "function"
    },
    {
      "inputs": [],
      "name": "owner",
      "outputs": [
        {
          "internalType": "address",
          "name": "",
          "type": "address"
        }
      ],
      "stateMutability": "view",
      "type": "function"
    },
    {
      "inputs": [
        {
          "internalType": "address",
          "name": "from",
          "type": "address"
        },
        {
          "internalType": "address",
          "name": "to",
          "type": "address"
        },
        {
          "internalType": "uint256",
          "name": "amount",
          "type": "uint256"
        },
        {
          "internalType": "address",
          "name": "token",
          "type": "address"
        },
        {
          "internalType": "bytes",
          "name": "metadata",
          "type": "bytes"
        }
      ],
      "name": "processPayment",
      "outputs": [
        {
          "internalType": "bool",
          "name": "success",
          "type": "bool"
        }
      ],
      "stateMutability": "nonpayable",
      "type": "function"
    },
    {
      "inputs": [
        {
          "internalType": "address",
          "name": "token",
          "type": "address"
        }
      ],
      "name": "removeSupportedToken",
      "outputs": [],
      "stateMutability": "nonpayable",
      "type": "function"
    },
    {
      "inputs": [],
      "name": "renounceOwnership",
      "outputs": [],
      "stateMutability": "nonpayable",
      "type": "function"
    },
    {
      "inputs": [
        {
          "internalType": "address",
          "name": "",
          "type": "address"
        }
      ],
      "name": "supportedTokens",
      "outputs": [
        {
          "internalType": "bool",
          "name": "",
          "type": "bool"
        }
      ],
      "stateMutability": "view",
      "type": "function"
    },
    {
      "inputs": [
        {
          "internalType": "address",
          "name": "newOwner",
          "type": "address"
        }
      ],
      "name": "transferOwnership",
      "outputs": [],
      "stateMutability": "nonpayable",
      "type": "function"
    },
    {
      "inputs": [
        {
          "internalType": "address",
          "name": "from",
          "type": "address"
        },
        {
          "internalType": "address",
          "name": "to",
          "type": "address"
        },
        {
          "internalType": "uint256",
          "name": "amount",
          "type": "uint256"
        },
        {
          "internalType": "address",
          "name": "token",
          "type": "address"
        }
      ],
      "name": "validatePayment",
      "outputs": [
        {
          "internalType": "bool",
          "name": "isValid",
          "type": "bool"
        },
        {
          "internalType": "string",
          "name": "reason",
          "type": "string"
        }
      ],
      "stateMutability": "view",
      "type": "function"
    }
  ],
  "bytecode": "0x60806040523480156200001157600080fd5b5062000032620000266200005460201b60201c565b6200005c60201b60201c565b6200004e67369bbec53e36181260c01b6200012060201b60201c565b62000123565b600033905090565b60008060009054906101000a900473ffffffffffffffffffffffffffffffffffffffff169050816000806101000a81548173ffffffffffffffffffffffffffffffffffffffff021916908373ffffffffffffffffffffffffffffffffffffffff1602179055508173ffffffffffffffffffffffffffffffffffffffff168173ffffffffffffffffffffffffffffffffffffffff167f8be0079c531659141344cd1fd0a4f28419497f9722a3daafe3b4186f6b6457e060405160405180910390a35050565b50565b611e3080620001336000396000f3fe608060405234801561001057600080fd5b50600436106100995760003560e01c80630b7cf9b51461009e5780633afca64b146100ce5780634d8e3d3b146100fe57806357cdb6b51461011a57806368c4ac261461013a578063715018a61461016a57806375151b631461017457806376319190146101a45780638da5cb5b146101c0578063e56921fa146101de578063f2fde38b1461020f575b600080fd5b6100b860048036038101906100b391906115c6565b61022b565b6040516100c59190611671565b60405180910390f35b6100e860048036038101906100e3919061168c565b610445565b6040516100f591906116c6565b60405180910390f35b610118600480360381019061011391906116e1565b61045d565b005b610122610568565b6040516101319392919061188a565b60405180910390f35b610154600480360381019061014f919061168c565b6107da565b6040516101619190611671565b60405180910390f35b6101726107fa565b005b61018e6004803603810190610189919061168c565b61080e565b60405161019b9190611671565b60405180910390f35b6101be60048036038101906101b9919061168c565b6108a0565b005b6101c86109aa565b6040516101d591906118e5565b60405180910390f35b6101f860048036038101906101f39190611900565b6109d3565b60405161020692919061195f565b60405180910390f35b6102296004803603810190610224919061168c565b610a2c565b005b60006102416720a6de40cfcaaf0860c01b610aaf565b610255674b250a73b0ddf63b60c01b610aaf565b61026967c4ff7a7fe945b8f360c01b610aaf565b60008061027889898989610ab2565b9150915061029067eeae5b331e81200f60c01b610aaf565b6102a467aed1412fc21575cb60c01b610aaf565b6102b8676adc0e20c3c5843260c01b610aaf565b8181906102fb576040517f08c379a00000000000000000000000000000000000000000000000000000000081526004016102f2919061198f565b60405180910390fd5b5061031067dd985f257ab9ec6b60c01b610aaf565b610324678189bf93dda4524560c01b610aaf565b61033867436c0c8094f6571c60c01b610aaf565b6103658989898973ffffffffffffffffffffffffffffffffffffffff16611074909392919063ffffffff16565b61037967aeb6882397fc2a7c60c01b610aaf565b61038d67998909d752892ad560c01b610aaf565b8573ffffffffffffffffffffffffffffffffffffffff168873ffffffffffffffffffffffffffffffffffffffff168a73ffffffffffffffffffffffffffffffffffffffff167f3de34cac5441dc2dd43c510eacfe4b0a57a1cde29a360b813d87bf01ae118df78a8989604051610405939291906119ed565b60405180910390a461042167a228da5aa559537960c01b610aaf565b61043567b59710c48fa22acf60c01b610aaf565b6001925050509695505050505050565b60026020528060005260406000206000915090505481565b61047167946b8c56442aff9560c01b610aaf565b6104796110fd565b61048d6710cf41a02639649a60c01b610aaf565b6104a167c51d9d7e379c61a760c01b610aaf565b6104b5678e5532c25542f12160c01b610aaf565b60018060008473ffffffffffffffffffffffffffffffffffffffff1673ffffffffffffffffffffffffffffffffffffffff16815260200190815260200160002060006101000a81548160ff021916908315150217905550610520672985dc974ed56fc460c01b610aaf565b80600260008473ffffffffffffffffffffffffffffffffffffffff1673ffffffffffffffffffffffffffffffffffffffff168152602001908152602001600020819055505050565b606080606061058167585838aaa0e9f7ac60c01b610aaf565b6105956732ddf729940caaee60c01b610aaf565b6105a9677fbb9ed2d0c11aee60c01b610aaf565b6000600367ffffffffffffffff8111156105c6576105c5611a1f565b5b6040519080825280602002602001820160405280156105f957816020015b60608152602001906001900390816105e45790505b50905061061067208874275f6fa8a260c01b610aaf565b6040518060400160405280600f81526020017f45524332305f5452414e534645525300000000000000000000000000000000008152508160008151811061065a57610659611a35565b5b602002602001018190525061067967026293b23736bb8360c01b610aaf565b6040518060400160405280601281526020017f42414c414e43455f56414c49444154494f4e0000000000000000000000000000815250816001815181106106c3576106c2611a35565b5b60200260200101819052506106e2676b63f1425ed1c63260c01b610aaf565b6040518060400160405280600f81526020017f4d494e494d554d5f414d4f554e545300000000000000000000000000000000008152508160028151811061072c5761072b611a35565b5b602002602001018190525061074b67afbfaccdf30e912a60c01b610aaf565b61075f672ffb9c1268686d3560c01b610aaf565b806040518060400160405280601381526020017f45524332305061796d656e744164617074657200000000000000000000000000815250906040518060400160405280600581526020017f312e302e300000000000000000000000000000000000000000000000000000008152509093509350935050909192565b60016020528060005260406000206000915054906101000a900460ff1681565b6108026110fd565b61080c600061117b565b565b6000610824676a2befcd3a0c96a760c01b610aaf565b61083867ca7c83cd064ec73960c01b610aaf565b61084c67625e3305f2cc62b660c01b610aaf565b600160008373ffffffffffffffffffffffffffffffffffffffff1673ffffffffffffffffffffffffffffffffffffffff16815260200190815260200160002060009054906101000a900460ff169050919050565b6108b4673cf20755b1d7a1ba60c01b610aaf565b6108bc6110fd565b6108d067a18c5d5e77d5310f60c01b610aaf565b6108e46778dec47da6ede9f260c01b610aaf565b6108f867d2b85fd97f34127f60c01b610aaf565b6000600160008373ffffffffffffffffffffffffffffffffffffffff1673ffffffffffffffffffffffffffffffffffffffff16815260200190815260200160002060006101000a81548160ff02191690831515021790555061096467360f9ca31b142bb960c01b610aaf565b600260008273ffffffffffffffffffffffffffffffffffffffff1673ffffffffffffffffffffffffffffffffffffffff1681526020019081526020016000206000905550565b60008060009054906101000a900473ffffffffffffffffffffffffffffffffffffffff16905090565b600060606109eb671c045e1e1bacdbde60c01b610aaf565b6109ff6768cc10a493e269a660c01b610aaf565b610a1367f7d2678f7eb7c89660c01b610aaf565b610a1f86868686610ab2565b9150915094509492505050565b610a346110fd565b600073ffffffffffffffffffffffffffffffffffffffff168173ffffffffffffffffffffffffffffffffffffffff1603610aa3576040517f08c379a0000000000000000000000000000000000000000000000000000000008152600401610a9a90611abd565b60405180910390fd5b610aac8161117b565b50565b50565b60006060610aca678bd8d8f13c85c2e660c01b610aaf565b610ade675e34905f2aa8136d60c01b610aaf565b610af267781b48db02178edb60c01b610aaf565b600160008473ffffffffffffffffffffffffffffffffffffffff1673ffffffffffffffffffffffffffffffffffffffff16815260200190815260200160002060009054906101000a900460ff16610bc057610b5767619b3158fdf2959260c01b610aaf565b610b6b6768f1c921a589459860c01b610aaf565b610b7f679dee6924523dde9260c01b610aaf565b60006040518060400160405280601381526020017f546f6b656e206e6f7420737570706f72746564000000000000000000000000008152509150915061106b565b610bd46754ab616949033bda60c01b610aaf565b610be86764d2ad28a53c60d060c01b610aaf565b610bfc6750dc7d5b87eaa2e660c01b610aaf565b600073ffffffffffffffffffffffffffffffffffffffff168673ffffffffffffffffffffffffffffffffffffffff16148015610c485750610c4767fb0ab8acaf080baf60c01b61123f565b5b80610c9b5750600073ffffffffffffffffffffffffffffffffffffffff168573ffffffffffffffffffffffffffffffffffffffff16148015610c9a5750610c99670cdf74ef633c05c260c01b61123f565b5b5b15610d1d57610cb467e4a977f3c03e918260c01b610aaf565b610cc867c944688a83f08a0e60c01b610aaf565b610cdc67cd330a07362e063860c01b610aaf565b60006040518060400160405280601181526020017f496e76616c6964206164647265737365730000000000000000000000000000008152509150915061106b565b610d3167638aeb2b2ee5c7a160c01b610aaf565b610d4567a008bbdd2a8e7b0860c01b610aaf565b610d5967cc1ac216a73d2ff360c01b610aaf565b60008403610dde57610d756794178749b762f9f660c01b610aaf565b610d89676855829eeda27b4a60c01b610aaf565b610d9d67a02b48fad84d797560c01b610aaf565b60006040518060400160405280602081526020017f416d6f756e74206d7573742062652067726561746572207468616e207a65726f8152509150915061106b565b610df26759c61223c95baed560c01b610aaf565b610e06672dac3ffaacaea4d560c01b610aaf565b610e1a67c4c64df368fe748560c01b610aaf565b600260008473ffffffffffffffffffffffffffffffffffffffff1673ffffffffffffffffffffffffffffffffffffffff16815260200190815260200160002054841015610ede57610e75674fb90f20761c2f5e60c01b610aaf565b610e8967277d3541d71c497460c01b610aaf565b610e9d67e1735c8b2de79fc060c01b610aaf565b60006040518060400160405280601481526020017f416d6f756e742062656c6f77206d696e696d756d0000000000000000000000008152509150915061106b565b610ef267c2eccf595ee246a660c01b610aaf565b610f06679138f5f6314b555960c01b610aaf565b610f1a67c0bce32dfe40bfc560c01b610aaf565b838373ffffffffffffffffffffffffffffffffffffffff166370a08231886040518263ffffffff1660e01b8152600401610f5491906118e5565b602060405180830381865afa158015610f71573d6000803e3d6000fd5b505050506040513d601f19601f82011682018060405250810190610f959190611af2565b101561101857610faf676de9372d524301e060c01b610aaf565b610fc3670ccf041b2091100760c01b610aaf565b610fd76741cd06a0ce9ebec260c01b610aaf565b60006040518060400160405280601481526020017f496e73756666696369656e742062616c616e63650000000000000000000000008152509150915061106b565b61102c672c444449b4c2ff6460c01b610aaf565b611040677b81b073cc12781960c01b610aaf565b611054673766e901a0814a4960c01b610aaf565b600160405180602001604052806000815250915091505b94509492505050565b6110f7846323b872dd60e01b85858560405160240161109593929190611b1d565b604051602081830303815290604052907bffffffffffffffffffffffffffffffffffffffffffffffffffffffff19166020820180517bffffffffffffffffffffffffffffffffffffffffffffffffffffffff838183161783525050505061124a565b50505050565b611105611312565b73ffffffffffffffffffffffffffffffffffffffff166111236109aa565b73ffffffffffffffffffffffffffffffffffffffff1614611179576040517f08c379a000000000000000000000000000000000000000000000000000000000815260040161117090611ba0565b60405180910390fd5b565b60008060009054906101000a900473ffffffffffffffffffffffffffffffffffffffff169050816000806101000a81548173ffffffffffffffffffffffffffffffffffffffff021916908373ffffffffffffffffffffffffffffffffffffffff1602179055508173ffffffffffffffffffffffffffffffffffffffff168173ffffffffffffffffffffffffffffffffffffffff167f8be0079c531659141344cd1fd0a4f28419497f9722a3daafe3b4186f6b6457e060405160405180910390a35050565b600060019050919050565b60006112ac826040518060400160405280602081526020017f5361666545524332303a206c6f772d6c6576656c2063616c6c206661696c65648152508573ffffffffffffffffffffffffffffffffffffffff1661131a9092919063ffffffff16565b90506000815114806112ce5750808060200190518101906112cd9190611bec565b5b61130d576040517f08c379a000000000000000000000000000000000000000000000000000000000815260040161130490611c89565b60405180910390fd5b505050565b600033905090565b60606113298484600085611332565b90509392505050565b606082471015611377576040517f08c379a000000000000000000000000000000000000000000000000000000000815260040161136e90611d1b565b60405180910390fd5b6000808673ffffffffffffffffffffffffffffffffffffffff1685876040516113a09190611d77565b60006040518083038185875af1925050503d80600081146113dd576040519150601f19603f3d011682016040523d82523d6000602084013e6113e2565b606091505b50915091506113f3878383876113ff565b92505050949350505050565b606083156114615760008351036114595761141985611474565b611458576040517f08c379a000000000000000000000000000000000000000000000000000000000815260040161144f90611dda565b60405180910390fd5b5b82905061146c565b61146b8383611497565b5b949350505050565b6000808273ffffffffffffffffffffffffffffffffffffffff163b119050919050565b6000825111156114aa5781518083602001fd5b806040517f08c379a00000000000000000000000000000000000000000000000000000000081526004016114de919061198f565b60405180910390fd5b600080fd5b600060018060a01b0382169050919050565b6000611509826114ec565b9050919050565b611519816114fe565b811461152457600080fd5b50565b60008135905061153681611510565b92915050565b6000819050919050565b61154f8161153c565b811461155a57600080fd5b50565b60008135905061156c81611546565b92915050565b60008083601f840112611588576115876114e7565b5b8235905060018060401b038111156115a3576115a26114e7565b5b6020830191508360018202830111156115bf576115be6114e7565b5b9250929050565b60008060008060008060a087890312156115e3576115e26114e7565b5b6115f08860008901611527565b95506115ff8860208901611527565b945061160e886040890161155d565b935061161d8860608901611527565b9250608087013560018060401b0381111561163b5761163a6114e7565b5b61164789828a01611572565b92509250509295509295509295565b60008115159050919050565b61166b81611656565b82525050565b60006020820190506116866000830184611662565b92915050565b6000602082840312156116a2576116a16114e7565b5b6116af8360008401611527565b905092915050565b6116c08161153c565b82525050565b60006020820190506116db60008301846116b7565b92915050565b600080604083850312156116f8576116f76114e7565b5b6117058460008501611527565b9150611714846020850161155d565b90509250929050565b600081519050919050565b818152600060208201905092915050565b60005b8381101561175757808201518184015260208101905061173c565b50600083830152505050565b6000601f19601f8301169050919050565b600061177f8261171d565b6117898185611728565b9350611799818560208601611739565b6117a281611763565b840191505092915050565b6000819050602082019050919050565b60006117c88261171d565b6117d28185611728565b93506117e2818560208601611739565b6117eb81611763565b840191505092915050565b600061180283836117bd565b905092915050565b6000602082019050919050565b60006118228261171d565b61182c8185611728565b93508360208202850161183e856117ad565b60005b84811015611879578383038852815161185a84826117f6565b9350506118668261180a565b9150602088019750600181019050611841565b505080955080935050505092915050565b600060608201905081810360008301526118a48186611774565b905081810360208301526118b88185611774565b905081810360408301526118cc8184611817565b9050949350505050565b6118df816114fe565b82525050565b60006020820190506118fa60008301846118d6565b92915050565b6000806000806080858703121561191a576119196114e7565b5b6119278660008701611527565b93506119368660208701611527565b9250611945866040870161155d565b91506119548660608701611527565b905092959194509250565b60006040820190506119746000830185611662565b81810360208301526119868184611774565b90509392505050565b600060208201905081810360008301526119a98184611774565b905092915050565b82818337506000828201525050565b6119ca8284611728565b92506119d78284836119b1565b5060006119e382611763565b8301905092915050565b6000604082019050611a0260008301866116b7565b8181036020830152611a158184866119c0565b9050949350505050565b634e487b7160e01b600052604160045260246000fd5b634e487b7160e01b600052603260045260246000fd5b7f4f776e61626c653a206e6577206f776e657220697320746865207a65726f206160008201527f6464726573730000000000000000000000000000000000000000000000000000602082015250565b611aa5602682611728565b9050611ab081611a4b565b6000604082019050919050565b60006020820190508181036000830152611ad681611a9a565b9050919050565b600081519050611aec81611546565b92915050565b600060208284031215611b0857611b076114e7565b5b611b158360008401611add565b905092915050565b6000606082019050611b3260008301866118d6565b611b3f60208301856118d6565b611b4c60408301846116b7565b949350505050565b7f4f776e61626c653a2063616c6c6572206973206e6f7420746865206f776e6572600082015250565b611b88602082611728565b9050611b9381611b54565b6000602082019050919050565b60006020820190508181036000830152611bb981611b7d565b9050919050565b611bc981611656565b8114611bd457600080fd5b50565b600081519050611be681611bc0565b92915050565b600060208284031215611c0257611c016114e7565b5b611c0f8360008401611bd7565b905092915050565b7f5361666545524332303a204552433230206f7065726174696f6e20646964206e60008201527f6f74207375636365656400000000000000000000000000000000000000000000602082015250565b611c71602a82611728565b9050611c7c81611c17565b6000604082019050919050565b60006020820190508181036000830152611ca281611c66565b9050919050565b7f416464726573733a20696e73756666696369656e742062616c616e636520666f60008201527f722063616c6c0000000000000000000000000000000000000000000000000000602082015250565b611d03602682611728565b9050611d0e81611ca9565b6000604082019050919050565b60006020820190508181036000830152611d3481611cf8565b9050919050565b600081905092915050565b6000611d518261171d565b611d5b8185611d3b565b9350611d6b818560208601611739565b80840191505092915050565b611d818183611d46565b9050600081905092915050565b7f416464726573733a2063616c6c20746f206e6f6e2d636f6e7472616374000000600082015250565b611dc2601d82611728565b9050611dcd81611d8e565b6000602082019050919050565b60006020820190508181036000830152611df381611db7565b905091905056fea2646970667358221220cc9c5b2a9c2e36827995d903e855f965e29daf29df4568033f7f832c2b41f5d664736f6c63430008160033",
  "linkReferences": {},
  "deployedLinkReferences": {}
}