{
  "_format": "hh-sol-artifact-1",
  "contractName": "ERC20PaymentAdapter",
  "sourceName": "contracts/adapters/ERC20PaymentAdapter.sol",
  "abi": [
    {
      "inputs": [],
      "stateMutability": "nonpayable",
      "type": "constructor"
    },
    {
      "anonymous": false,
      "inputs": [
        {
          "indexed": true,
          "internalType": "address",
          "name": "previousOwner",
          "type": "address"
        },
        {
          "indexed": true,
          "internalType": "address",
          "name": "newOwner",
          "type": "address"
        }
      ],
      "name": "OwnershipTransferred",
      "type": "event"
    },
    {
      "anonymous": false,
      "inputs": [
        {
          "indexed": true,
          "internalType": "address",
          "name": "from",
          "type": "address"
        },
        {
          "indexed": true,
          "internalType": "address",
          "name": "to",
          "type": "address"
        },
        {
          "indexed": false,
          "internalType": "uint256",
          "name": "amount",
          "type": "uint256"
        },
        {
          "indexed": true,
          "internalType": "address",
          "name": "token",
          "type": "address"
        },
        {
          "indexed": false,
          "internalType": "bytes",
          "name": "metadata",
          "type": "bytes"
        }
      ],
      "name": "PaymentProcessed",
      "type": "event"
    },
    {
      "inputs": [
        {
          "internalType": "address",
          "name": "token",
          "type": "address"
        },
        {
          "internalType": "uint256",
          "name": "minimumAmount",
          "type": "uint256"
        }
      ],
      "name": "addSupportedToken",
      "outputs": [],
      "stateMutability": "nonpayable",
      "type": "function"
    },
    {
      "inputs": [],
      "name": "getAdapterInfo",
      "outputs": [
        {
          "internalType": "string",
          "name": "name",
          "type": "string"
        },
        {
          "internalType": "string",
          "name": "version",
          "type": "string"
        },
        {
          "internalType": "string[]",
          "name": "supportedFeatures",
          "type": "string[]"
        }
      ],
      "stateMutability": "pure",
      "type": "function"
    },
    {
      "inputs": [
        {
          "internalType": "address",
          "name": "token",
          "type": "address"
        }
      ],
      "name": "isTokenSupported",
      "outputs": [
        {
          "internalType": "bool",
          "name": "supported",
          "type": "bool"
        }
      ],
      "stateMutability": "view",
      "type": "function"
    },
    {
      "inputs": [
        {
          "internalType": "address",
          "name": "",
          "type": "address"
        }
      ],
      "name": "minimumAmounts",
      "outputs": [
        {
          "internalType": "uint256",
          "name": "",
          "type": "uint256"
        }
      ],
      "stateMutability": "view",
      "type": "function"
    },
    {
      "inputs": [],
      "name": "owner",
      "outputs": [
        {
          "internalType": "address",
          "name": "",
          "type": "address"
        }
      ],
      "stateMutability": "view",
      "type": "function"
    },
    {
      "inputs": [
        {
          "internalType": "address",
          "name": "from",
          "type": "address"
        },
        {
          "internalType": "address",
          "name": "to",
          "type": "address"
        },
        {
          "internalType": "uint256",
          "name": "amount",
          "type": "uint256"
        },
        {
          "internalType": "address",
          "name": "token",
          "type": "address"
        },
        {
          "internalType": "bytes",
          "name": "metadata",
          "type": "bytes"
        }
      ],
      "name": "processPayment",
      "outputs": [
        {
          "internalType": "bool",
          "name": "success",
          "type": "bool"
        }
      ],
      "stateMutability": "nonpayable",
      "type": "function"
    },
    {
      "inputs": [
        {
          "internalType": "address",
          "name": "token",
          "type": "address"
        }
      ],
      "name": "removeSupportedToken",
      "outputs": [],
      "stateMutability": "nonpayable",
      "type": "function"
    },
    {
      "inputs": [],
      "name": "renounceOwnership",
      "outputs": [],
      "stateMutability": "nonpayable",
      "type": "function"
    },
    {
      "inputs": [
        {
          "internalType": "address",
          "name": "",
          "type": "address"
        }
      ],
      "name": "supportedTokens",
      "outputs": [
        {
          "internalType": "bool",
          "name": "",
          "type": "bool"
        }
      ],
      "stateMutability": "view",
      "type": "function"
    },
    {
      "inputs": [
        {
          "internalType": "address",
          "name": "newOwner",
          "type": "address"
        }
      ],
      "name": "transferOwnership",
      "outputs": [],
      "stateMutability": "nonpayable",
      "type": "function"
    },
    {
      "inputs": [
        {
          "internalType": "address",
          "name": "from",
          "type": "address"
        },
        {
          "internalType": "address",
          "name": "to",
          "type": "address"
        },
        {
          "internalType": "uint256",
          "name": "amount",
          "type": "uint256"
        },
        {
          "internalType": "address",
          "name": "token",
          "type": "address"
        }
      ],
      "name": "validatePayment",
      "outputs": [
        {
          "internalType": "bool",
          "name": "isValid",
          "type": "bool"
        },
        {
          "internalType": "string",
          "name": "reason",
          "type": "string"
        }
      ],
      "stateMutability": "view",
      "type": "function"
    }
  ],
  "bytecode": "0x608060405234801561001057600080fd5b5061001a3361001f565b61006f565b600080546001600160a01b038381166001600160a01b0319831681178455604051919092169283917f8be0079c531659141344cd1fd0a4f28419497f9722a3daafe3b4186f6b6457e09190a35050565b610fb58061007e6000396000f3fe608060405234801561001057600080fd5b50600436106100995760003560e01c80630b7cf9b51461009e5780633afca64b146100c75780634d8e3d3b146100f457806357cdb6b51461010957806368c4ac2614610120578063715018a61461014357806375151b631461014b57806376319190146101775780638da5cb5b1461018a578063e56921fa1461019f578063f2fde38b146101c0575b600080fd5b6100b16100ac366004610a15565b6101d3565b6040516100be9190610aab565b60405180910390f35b6100e76100d5366004610ab9565b60026020526000908152604090205481565b6040516100be9190610ae5565b610107610102366004610af3565b61028f565b005b6101116102c8565b6040516100be93929190610c03565b6100b161012e366004610ab9565b60016020526000908152604090205460ff1681565b61010761042d565b6100b1610159366004610ab9565b6001600160a01b031660009081526001602052604090205460ff1690565b610107610185366004610ab9565b610441565b610192610475565b6040516100be9190610c4e565b6101b26101ad366004610c5c565b610484565b6040516100be929190610cb7565b6101076101ce366004610ab9565b6104a2565b60008060006101e4898989896104dc565b915091508181906102115760405162461bcd60e51b81526004016102089190610cd7565b60405180910390fd5b506102276001600160a01b0387168a8a8a6106ec565b856001600160a01b0316886001600160a01b03168a6001600160a01b03167f3de34cac5441dc2dd43c510eacfe4b0a57a1cde29a360b813d87bf01ae118df78a898960405161027893929190610d1d565b60405180910390a450600198975050505050505050565b61029761074a565b6001600160a01b039091166000908152600160208181526040808420805460ff191690931790925560029052902055565b604080516003808252608082019092526060918291829160009190816020015b60608152602001906001900390816102e85790505090506040518060400160405280600f81526020016e45524332305f5452414e534645525360881b8152508160008151811061033a5761033a610d3e565b6020026020010181905250604051806040016040528060128152602001712120a620a721a2afab20a624a220aa24a7a760711b8152508160018151811061038357610383610d3e565b60200260200101819052506040518060400160405280600f81526020016e4d494e494d554d5f414d4f554e545360881b815250816002815181106103c9576103c9610d3e565b6020026020010181905250806040518060400160405280601381526020017222a92199182830bcb6b2b73a20b230b83a32b960691b81525090604051806040016040528060058152602001640312e302e360dc1b8152509093509350935050909192565b61043561074a565b61043f6000610779565b565b61044961074a565b6001600160a01b03166000908152600160209081526040808320805460ff191690556002909152812055565b6000546001600160a01b031690565b60006060610494868686866104dc565b915091505b94509492505050565b6104aa61074a565b6001600160a01b0381166104d05760405162461bcd60e51b815260040161020890610d97565b6104d981610779565b50565b6001600160a01b03811660009081526001602052604081205460609060ff16610533575050604080518082019091526013815272151bdad95b881b9bdd081cdd5c1c1bdc9d1959606a1b6020820152600090610499565b6001600160a01b038616158061055057506001600160a01b038516155b15610587575050604080518082019091526011815270496e76616c69642061646472657373657360781b6020820152600090610499565b836000036105d05760006040518060400160405280602081526020017f416d6f756e74206d7573742062652067726561746572207468616e207a65726f81525091509150610499565b6001600160a01b038316600090815260026020526040902054841015610625575050604080518082019091526014815273416d6f756e742062656c6f77206d696e696d756d60601b6020820152600090610499565b6040516370a0823160e01b815284906001600160a01b038516906370a0823190610653908a90600401610c4e565b602060405180830381865afa158015610670573d6000803e3d6000fd5b505050506040513d601f19601f820116820180604052508101906106949190610db2565b10156106cf575050604080518082019091526014815273496e73756666696369656e742062616c616e636560601b6020820152600090610499565b505060408051602081019091526000815260019094509492505050565b610744846323b872dd60e01b85858560405160240161070d93929190610dd1565b60408051601f198184030181529190526020810180516001600160e01b03166001600160e01b0319909316929092179091526107c9565b50505050565b33610753610475565b6001600160a01b03161461043f5760405162461bcd60e51b815260040161020890610e29565b600080546001600160a01b038381166001600160a01b0319831681178455604051919092169283917f8be0079c531659141344cd1fd0a4f28419497f9722a3daafe3b4186f6b6457e09190a35050565b600061081e826040518060400160405280602081526020017f5361666545524332303a206c6f772d6c6576656c2063616c6c206661696c6564815250856001600160a01b03166108609092919063ffffffff16565b905080516000148061083f57508080602001905181019061083f9190610e4c565b61085b5760405162461bcd60e51b815260040161020890610eb0565b505050565b606061086f8484600085610877565b949350505050565b6060824710156108995760405162461bcd60e51b815260040161020890610f01565b600080866001600160a01b031685876040516108b59190610f33565b60006040518083038185875af1925050503d80600081146108f2576040519150601f19603f3d011682016040523d82523d6000602084013e6108f7565b606091505b509150915061090887838387610913565b979650505050505050565b6060831561095257825160000361094b576001600160a01b0385163b61094b5760405162461bcd60e51b815260040161020890610f6f565b508161086f565b61086f83838151156109675781518083602001fd5b8060405162461bcd60e51b81526004016102089190610cd7565b60006001600160a01b0382165b92915050565b61099d81610981565b81146104d957600080fd5b803561098e81610994565b8061099d565b803561098e816109b3565b60008083601f8401126109d9576109d9600080fd5b5081356001600160401b038111156109f3576109f3600080fd5b602083019150836001820283011115610a0e57610a0e600080fd5b9250929050565b60008060008060008060a08789031215610a3157610a31600080fd5b610a3b88886109a8565b9550610a4a88602089016109a8565b9450610a5988604089016109b9565b9350610a6888606089016109a8565b925060808701356001600160401b03811115610a8657610a86600080fd5b610a9289828a016109c4565b92509250509295509295509295565b8015155b82525050565b6020810161098e8284610aa1565b600060208284031215610ace57610ace600080fd5b610ad883836109a8565b9392505050565b80610aa5565b6020810161098e8284610adf565b60008060408385031215610b0957610b09600080fd5b610b1384846109a8565b9150610b2284602085016109b9565b90509250929050565b60005b83811015610b46578181015183820152602001610b2e565b50506000910152565b601f01601f191690565b6000610b63825190565b808452602084019350610b7a818560208601610b2b565b610b8381610b4f565b9093019392505050565b6000610ad88383610b59565b60200190565b6000610ba9825190565b80845260208401935083602082028501610bc38560200190565b60005b84811015610bf75783830388528151610bdf8482610b8d565b93505060208201602098909801979150600101610bc6565b50909695505050505050565b60608082528101610c148186610b59565b90508181036020830152610c288185610b59565b90508181036040830152610c3c8184610b9f565b95945050505050565b610aa581610981565b6020810161098e8284610c45565b60008060008060808587031215610c7557610c75600080fd5b610c7f86866109a8565b9350610c8e86602087016109a8565b9250610c9d86604087016109b9565b9150610cac86606087016109a8565b905092959194509250565b60408101610cc58285610aa1565b818103602083015261086f8184610b59565b60208082528101610ad88184610b59565b82818337506000910152565b818352602083019250610d08828483610ce8565b506000610d1482610b4f565b90920192915050565b60408101610d2b8286610adf565b8181036020830152610c3c818486610cf4565b634e487b7160e01b600052603260045260246000fd5b60268152602081017f4f776e61626c653a206e6577206f776e657220697320746865207a65726f206181526564647265737360d01b602082015290505b60400190565b6020808252810161098e81610d54565b805161098e816109b3565b600060208284031215610dc757610dc7600080fd5b610ad88383610da7565b60608101610ddf8286610c45565b610dec6020830185610c45565b61086f6040830184610adf565b60208082527f4f776e61626c653a2063616c6c6572206973206e6f7420746865206f776e65729101908152610b99565b6020808252810161098e81610df9565b80151561099d565b805161098e81610e39565b600060208284031215610e6157610e61600080fd5b610ad88383610e41565b602a8152602081017f5361666545524332303a204552433230206f7065726174696f6e20646964206e8152691bdd081cdd58d8d9595960b21b60208201529050610d91565b6020808252810161098e81610e6b565b60268152602081017f416464726573733a20696e73756666696369656e742062616c616e636520666f8152651c8818d85b1b60d21b60208201529050610d91565b6020808252810161098e81610ec0565b6000610f1b825190565b610f29818560208601610b2b565b9290920192915050565b61098e8183610f11565b601d8152602081017f416464726573733a2063616c6c20746f206e6f6e2d636f6e747261637400000081529050610b99565b6020808252810161098e81610f3d56fea2646970667358221220504bf5c16ca98f780659f3afcd67f3c3742677b4b7185013c7f1597d57bc3ee564736f6c63430008160033",
  "linkReferences": {},
  "deployedLinkReferences": {}
}