{
  "_format": "hh-sol-artifact-1",
  "contractName": "PaymentAdapterRegistry",
  "sourceName": "contracts/adapters/PaymentAdapterRegistry.sol",
  "abi": [
    {
      "anonymous": false,
      "inputs": [
        {
          "indexed": true,
          "internalType": "address",
          "name": "adapter",
          "type": "address"
        },
        {
          "indexed": false,
          "internalType": "bool",
          "name": "authorized",
          "type": "bool"
        }
      ],
      "name": "AdapterAuthorized",
      "type": "event"
    },
    {
      "anonymous": false,
      "inputs": [
        {
          "indexed": true,
          "internalType": "string",
          "name": "name",
          "type": "string"
        },
        {
          "indexed": true,
          "internalType": "address",
          "name": "adapter",
          "type": "address"
        }
      ],
      "name": "AdapterRegistered",
      "type": "event"
    },
    {
      "anonymous": false,
      "inputs": [
        {
          "indexed": true,
          "internalType": "string",
          "name": "name",
          "type": "string"
        },
        {
          "indexed": true,
          "internalType": "address",
          "name": "adapter",
          "type": "address"
        }
      ],
      "name": "AdapterRemoved",
      "type": "event"
    },
    {
      "anonymous": false,
      "inputs": [
        {
          "indexed": true,
          "internalType": "address",
          "name": "previousOwner",
          "type": "address"
        },
        {
          "indexed": true,
          "internalType": "address",
          "name": "newOwner",
          "type": "address"
        }
      ],
      "name": "OwnershipTransferred",
      "type": "event"
    },
    {
      "inputs": [
        {
          "internalType": "uint256",
          "name": "",
          "type": "uint256"
        }
      ],
      "name": "adapterNames",
      "outputs": [
        {
          "internalType": "string",
          "name": "",
          "type": "string"
        }
      ],
      "stateMutability": "view",
      "type": "function"
    },
    {
      "inputs": [
        {
          "internalType": "string",
          "name": "",
          "type": "string"
        }
      ],
      "name": "adapters",
      "outputs": [
        {
          "internalType": "address",
          "name": "",
          "type": "address"
        }
      ],
      "stateMutability": "view",
      "type": "function"
    },
    {
      "inputs": [
        {
          "internalType": "address",
          "name": "",
          "type": "address"
        }
      ],
      "name": "authorizedAdapters",
      "outputs": [
        {
          "internalType": "bool",
          "name": "",
          "type": "bool"
        }
      ],
      "stateMutability": "view",
      "type": "function"
    },
    {
      "inputs": [
        {
          "internalType": "string",
          "name": "name",
          "type": "string"
        }
      ],
      "name": "getAdapter",
      "outputs": [
        {
          "internalType": "address",
          "name": "",
          "type": "address"
        }
      ],
      "stateMutability": "view",
      "type": "function"
    },
    {
      "inputs": [],
      "name": "getAdapterCount",
      "outputs": [
        {
          "internalType": "uint256",
          "name": "",
          "type": "uint256"
        }
      ],
      "stateMutability": "view",
      "type": "function"
    },
    {
      "inputs": [],
      "name": "getAllAdapterNames",
      "outputs": [
        {
          "internalType": "string[]",
          "name": "",
          "type": "string[]"
        }
      ],
      "stateMutability": "view",
      "type": "function"
    },
    {
      "inputs": [
        {
          "internalType": "address",
          "name": "adapter",
          "type": "address"
        }
      ],
      "name": "isAuthorized",
      "outputs": [
        {
          "internalType": "bool",
          "name": "",
          "type": "bool"
        }
      ],
      "stateMutability": "view",
      "type": "function"
    },
    {
      "inputs": [],
      "name": "owner",
      "outputs": [
        {
          "internalType": "address",
          "name": "",
          "type": "address"
        }
      ],
      "stateMutability": "view",
      "type": "function"
    },
    {
      "inputs": [
        {
          "internalType": "string",
          "name": "name",
          "type": "string"
        },
        {
          "internalType": "address",
          "name": "adapter",
          "type": "address"
        }
      ],
      "name": "registerAdapter",
      "outputs": [],
      "stateMutability": "nonpayable",
      "type": "function"
    },
    {
      "inputs": [
        {
          "internalType": "string",
          "name": "name",
          "type": "string"
        }
      ],
      "name": "removeAdapter",
      "outputs": [],
      "stateMutability": "nonpayable",
      "type": "function"
    },
    {
      "inputs": [],
      "name": "renounceOwnership",
      "outputs": [],
      "stateMutability": "nonpayable",
      "type": "function"
    },
    {
      "inputs": [
        {
          "internalType": "address",
          "name": "newOwner",
          "type": "address"
        }
      ],
      "name": "transferOwnership",
      "outputs": [],
      "stateMutability": "nonpayable",
      "type": "function"
    }
  ],
  "bytecode": "0x608060405234801561001057600080fd5b5061002d61002261003260201b60201c565b61003a60201b60201c565b6100fe565b600033905090565b60008060009054906101000a900473ffffffffffffffffffffffffffffffffffffffff169050816000806101000a81548173ffffffffffffffffffffffffffffffffffffffff021916908373ffffffffffffffffffffffffffffffffffffffff1602179055508173ffffffffffffffffffffffffffffffffffffffff168173ffffffffffffffffffffffffffffffffffffffff167f8be0079c531659141344cd1fd0a4f28419497f9722a3daafe3b4186f6b6457e060405160405180910390a35050565b611d908061010d6000396000f3fe608060405234801561001057600080fd5b50600436106100a45760003560e01c80633ef11fd7146100a9578063645aea61146100c5578063715018a6146100f557806379be938d146100ff5780638a12fad91461011b5780638da5cb5b14610139578063b84f5d1e14610157578063bc4c221214610187578063e2dc12f7146101b7578063f2fde38b146101d5578063f5a4e0a3146101f1578063fe9fbb8014610221575b600080fd5b6100c360048036038101906100be9190611284565b610251565b005b6100df60048036038101906100da9190611301565b610731565b6040516100ec91906113ab565b60405180910390f35b6100fd6107dd565b005b6101196004803603810190610114919061141d565b6107f1565b005b610123610c27565b6040516101309190611484565b60405180910390f35b610141610c70565b60405161014e91906114ae565b60405180910390f35b610171600480360381019061016c9190611284565b610c99565b60405161017e91906114ae565b60405180910390f35b6101a1600480360381019061019c9190611284565b610ce2565b6040516101ae91906114ae565b60405180910390f35b6101bf610d66565b6040516101cc91906115a6565b60405180910390f35b6101ef60048036038101906101ea91906115c8565b610e7b565b005b61020b600480360381019061020691906115c8565b610efe565b604051610218919061160e565b60405180910390f35b61023b600480360381019061023691906115c8565b610f1e565b604051610248919061160e565b60405180910390f35b610265676cb1363aeb69544460c01b610fb0565b61026d610fb3565b610281671cdc1de0888d2ef060c01b610fb0565b61029567ba7bd3bc659f1e7e60c01b610fb0565b6102a967f14c3465df3b1c1360c01b610fb0565b6102bd67c7f24845c2047af260c01b610fb0565b60006001826040516102cf9190611665565b908152602001604051809103902060009054906101000a900473ffffffffffffffffffffffffffffffffffffffff16905061031467852919f611885d8860c01b610fb0565b610328673c36af9cedd4742860c01b610fb0565b61033c677dcd1b688651b5fe60c01b610fb0565b600073ffffffffffffffffffffffffffffffffffffffff168173ffffffffffffffffffffffffffffffffffffffff16036103ab576040517f08c379a00000000000000000000000000000000000000000000000000000000081526004016103a2906116c8565b60405180910390fd5b6103bf677fb3c822de330c0960c01b610fb0565b6103d3675e11bb6f269bd40f60c01b610fb0565b6001826040516103e39190611665565b908152602001604051809103902060006101000a81549073ffffffffffffffffffffffffffffffffffffffff021916905561042867d89f7b93e2dc406660c01b610fb0565b6000600260008373ffffffffffffffffffffffffffffffffffffffff1673ffffffffffffffffffffffffffffffffffffffff16815260200190815260200160002060006101000a81548160ff021916908315150217905550610494670177324a836b27a460c01b610fb0565b6104a867b2f41b6328bebecb60c01b610fb0565b60005b600380549050811015610634576104cc67ce3387ef1c68e4e960c01b610fb0565b6104e06722336ea7787bb34660c01b610fb0565b8280519060200120600382815481106104fc576104fb6116e8565b5b9060005260206000200160405161051391906117dd565b6040518091039020036106135761053467490b0f2f5377c54560c01b610fb0565b61054867137b63dcee8b7e0560c01b610fb0565b6003600160038054905061055c919061180a565b8154811061056d5761056c6116e8565b5b906000526020600020016003828154811061058b5761058a6116e8565b5b9060005260206000200190816105a191906119b9565b506105b6677b3e42457f4b708160c01b610fb0565b6105ca677a8b8078b84d828760c01b610fb0565b60038054806105dc576105db611a9e565b5b6001900381819060005260206000200160006105f891906110fd565b905561060e674bada63255f5d50b60c01b610fb0565b610634565b61062767c02c890302659efe60c01b610fb0565b80806001019150506104ab565b5061064967cf6dbb5030e3880660c01b610fb0565b61065d67e8234e8e0c27615560c01b610fb0565b8073ffffffffffffffffffffffffffffffffffffffff16826040516106829190611665565b60405180910390207ffe0915a7361ac4ac35bd55624eb527825606ade46276e28c8bd5497c5bb299a860405160405180910390a36106ca67336aa6d028a9523d60c01b610fb0565b6106de67a8ffcc17aa783e6e60c01b610fb0565b8073ffffffffffffffffffffffffffffffffffffffff167f8fc6e4a5571e5bf9b3d11332c56d2c2690eef70ae1a328bda2035657116f49886000604051610725919061160e565b60405180910390a25050565b6003818154811061074157600080fd5b90600052602060002001600091509050805461075c90611714565b80601f016020809104026020016040519081016040528092919081815260200182805461078890611714565b80156107d55780601f106107aa576101008083540402835291602001916107d5565b820191906000526020600020905b8154815290600101906020018083116107b857829003601f168201915b505050505081565b6107e5610fb3565b6107ef6000611031565b565b610805678f30e15eba9435d260c01b610fb0565b61080d610fb3565b61082167676f9e523b66397760c01b610fb0565b610835670a8e6eb017b7961560c01b610fb0565b610849670887f1552b783a5f60c01b610fb0565b61085d67871df04adf1f997c60c01b610fb0565b610871672519c15d2dba328260c01b610fb0565b600073ffffffffffffffffffffffffffffffffffffffff168173ffffffffffffffffffffffffffffffffffffffff16036108e0576040517f08c379a00000000000000000000000000000000000000000000000000000000081526004016108d790611b00565b60405180910390fd5b6108f4678f1a1a1ec6e718d460c01b610fb0565b61090867ce1af2d553ff1b6160c01b610fb0565b61091c67542088970c45dde360c01b610fb0565b610930674c499eeef3ec4a5560c01b610fb0565b600073ffffffffffffffffffffffffffffffffffffffff166001836040516109589190611665565b908152602001604051809103902060009054906101000a900473ffffffffffffffffffffffffffffffffffffffff1673ffffffffffffffffffffffffffffffffffffffff16146109dd576040517f08c379a00000000000000000000000000000000000000000000000000000000081526004016109d490611b6c565b60405180910390fd5b6109f167ef654d29a5c84a5560c01b610fb0565b610a05672f20d5dabe0cbbe460c01b610fb0565b80600183604051610a169190611665565b908152602001604051809103902060006101000a81548173ffffffffffffffffffffffffffffffffffffffff021916908373ffffffffffffffffffffffffffffffffffffffff160217905550610a76676ab2fa49a4270a5d60c01b610fb0565b6001600260008373ffffffffffffffffffffffffffffffffffffffff1673ffffffffffffffffffffffffffffffffffffffff16815260200190815260200160002060006101000a81548160ff021916908315150217905550610ae267d45cd1c877ef3d8460c01b610fb0565b610af667dc2cbfcb938241f760c01b610fb0565b600382908060018154018082558091505060019003906000526020600020016000909190919091509081610b2a9190611b8c565b50610b3f67d0cf6f731f88574e60c01b610fb0565b610b536784bc80b958a7df0660c01b610fb0565b8073ffffffffffffffffffffffffffffffffffffffff1682604051610b789190611665565b60405180910390207fb40573981f6088c2c6d55252227055ccde57ef96fdc623d5665bee381adf6c0960405160405180910390a3610bc067557c5f256d1a4ec160c01b610fb0565b610bd46792f740c18993260460c01b610fb0565b8073ffffffffffffffffffffffffffffffffffffffff167f8fc6e4a5571e5bf9b3d11332c56d2c2690eef70ae1a328bda2035657116f49886001604051610c1b919061160e565b60405180910390a25050565b6000610c3d6730681248a564c42260c01b610fb0565b610c51670abc3f51e65389c260c01b610fb0565b610c656777983f7b2b706a6560c01b610fb0565b600380549050905090565b60008060009054906101000a900473ffffffffffffffffffffffffffffffffffffffff16905090565b6001818051602081018201805184825260208301602085012081835280955050505050506000915054906101000a900473ffffffffffffffffffffffffffffffffffffffff1681565b6000610cf86760440e68305766c060c01b610fb0565b610d0c67b07f3c0331a9d42560c01b610fb0565b610d2067bc398bfcfdb372a960c01b610fb0565b600182604051610d309190611665565b908152602001604051809103902060009054906101000a900473ffffffffffffffffffffffffffffffffffffffff169050919050565b6060610d7c672188493a6326e29660c01b610fb0565b610d906719dea793ec5a4cc960c01b610fb0565b610da467ea4d04f51fcb480e60c01b610fb0565b6003805480602002602001604051908101604052809291908181526020016000905b82821015610e72578382906000526020600020018054610de590611714565b80601f0160208091040260200160405190810160405280929190818152602001828054610e1190611714565b8015610e5e5780601f10610e3357610100808354040283529160200191610e5e565b820191906000526020600020905b815481529060010190602001808311610e4157829003601f168201915b505050505081526020019060010190610dc6565b50505050905090565b610e83610fb3565b600073ffffffffffffffffffffffffffffffffffffffff168173ffffffffffffffffffffffffffffffffffffffff1603610ef2576040517f08c379a0000000000000000000000000000000000000000000000000000000008152600401610ee990611cce565b60405180910390fd5b610efb81611031565b50565b60026020528060005260406000206000915054906101000a900460ff1681565b6000610f3467fd75a915ef5f36a360c01b610fb0565b610f4867e8555868e5df23bf60c01b610fb0565b610f5c67ced1431db4d6ec9460c01b610fb0565b600260008373ffffffffffffffffffffffffffffffffffffffff1673ffffffffffffffffffffffffffffffffffffffff16815260200190815260200160002060009054906101000a900460ff169050919050565b50565b610fbb6110f5565b73ffffffffffffffffffffffffffffffffffffffff16610fd9610c70565b73ffffffffffffffffffffffffffffffffffffffff161461102f576040517f08c379a000000000000000000000000000000000000000000000000000000000815260040161102690611d3a565b60405180910390fd5b565b60008060009054906101000a900473ffffffffffffffffffffffffffffffffffffffff169050816000806101000a81548173ffffffffffffffffffffffffffffffffffffffff021916908373ffffffffffffffffffffffffffffffffffffffff1602179055508173ffffffffffffffffffffffffffffffffffffffff168173ffffffffffffffffffffffffffffffffffffffff167f8be0079c531659141344cd1fd0a4f28419497f9722a3daafe3b4186f6b6457e060405160405180910390a35050565b600033905090565b50805461110990611714565b6000825580601f1061111b575061113a565b601f016020900490600052602060002090810190611139919061113d565b5b50565b5b8082111561115657600081600090555060010161113e565b5090565b6000604051905090565b600080fd5b6000601f19601f8301169050919050565b634e487b7160e01b600052604160045260246000fd5b61119982611169565b810181811060018060401b03821117156111b6576111b561117a565b5b80604052505050565b60006111c961115a565b90506111d58282611190565b919050565b600060018060401b038211156111f3576111f261117a565b5b6111fc82611169565b9050602081019050919050565b82818337506000828201525050565b600061122b611226846111da565b6111bf565b905082815283838301111561124357611242611164565b5b611251836020830184611209565b9392505050565b600082601f83011261126d5761126c611164565b5b61127c83833560208501611218565b905092915050565b60006020828403121561129a57611299611164565b5b600082013560018060401b038111156112b6576112b5611164565b5b6112c284828501611258565b91505092915050565b6000819050919050565b6112de816112cb565b81146112e957600080fd5b50565b6000813590506112fb816112d5565b92915050565b60006020828403121561131757611316611164565b5b61132483600084016112ec565b905092915050565b600081519050919050565b818152600060208201905092915050565b60005b8381101561136657808201518184015260208101905061134b565b50600083830152505050565b600061137d8261132c565b6113878185611337565b9350611397818560208601611348565b6113a081611169565b840191505092915050565b600060208201905081810360008301526113c58184611372565b905092915050565b600060018060a01b0382169050919050565b60006113ea826113cd565b9050919050565b6113fa816113df565b811461140557600080fd5b50565b600081359050611417816113f1565b92915050565b6000806040838503121561143457611433611164565b5b600083013560018060401b038111156114505761144f611164565b5b61145c85828601611258565b92505061146c8460208501611408565b90509250929050565b61147e816112cb565b82525050565b60006020820190506114996000830184611475565b92915050565b6114a8816113df565b82525050565b60006020820190506114c3600083018461149f565b92915050565b6000819050602082019050919050565b60006114e48261132c565b6114ee8185611337565b93506114fe818560208601611348565b61150781611169565b840191505092915050565b600061151e83836114d9565b905092915050565b6000602082019050919050565b600061153e8261132c565b6115488185611337565b93508360208202850161155a856114c9565b60005b8481101561159557838303885281516115768482611512565b93505061158282611526565b915060208801975060018101905061155d565b505080955080935050505092915050565b600060208201905081810360008301526115c08184611533565b905092915050565b6000602082840312156115de576115dd611164565b5b6115eb8360008401611408565b905092915050565b60008115159050919050565b611608816115f3565b82525050565b600060208201905061162360008301846115ff565b92915050565b600081905092915050565b600061163f8261132c565b6116498185611629565b9350611659818560208601611348565b80840191505092915050565b61166f8183611634565b9050600081905092915050565b7f41646170746572206e6f7420666f756e64000000000000000000000000000000600082015250565b6116b0601182611337565b90506116bb8161167c565b6000602082019050919050565b600060208201905081810360008301526116e1816116a5565b9050919050565b634e487b7160e01b600052603260045260246000fd5b634e487b7160e01b600052602260045260246000fd5b6000600282049050600182168061172c57607f821691505b60208210810361173f5761173e6116fe565b5b50919050565b60008190508160005260206000209050919050565b6000815461176781611714565b6117718186611629565b9450600182166000811461178c57600181146117a1576117d4565b60ff19831686528115158202860193506117d4565b6117aa85611745565b60005b838110156117cc578154818901526001820191506020810190506117ad565b505081860193505b50505092915050565b6117e7818361175a565b9050600081905092915050565b634e487b7160e01b600052601160045260246000fd5b611813816112cb565b905061181e826112cb565b91506000828203905081811115611838576118376117f4565b5b92915050565b60008154905061184d81611714565b9050919050565b60006020601f8301049050919050565b600082821b905092915050565b60006008830261188360001982611864565b61188d8683611864565b95508019841693508086168417925050509392505050565b60006118c06118bb6118b6846112cb565b6112cb565b6112cb565b9050919050565b6118d0836118a5565b6118e46118dc826112cb565b848454611871565b825550505050565b600090565b6118f96118ec565b6119048184846118c7565b505050565b5b818110156119285761191d6000826118f1565b60018101905061190a565b5050565b601f82111561196d5761193e81611745565b61194784611854565b81016020851015611956578190505b61196a61196285611854565b830182611909565b50505b505050565b600082821c905092915050565b600061199060001984600802611972565b1980831691505092915050565b6119a7828261197f565b90506000826002028217905092915050565b8181036119c7575050611a9c565b6119d08261183e565b60018060401b038111156119e7576119e661117a565b5b6119f18254611714565b6119fc82828561192c565b506000601f821160018114611a2c5760008315611a1a578286015490505b611a24848261199d565b855550611a96565b601f198316611a3a86611745565b9550611a4585611745565b835b82811015611a6c57848801548255600182019150600185019450602081019050611a47565b5084821015611a8a5783870154611a86601f87168261197f565b8255505b50506001600284020184555b50505050505b565b634e487b7160e01b600052603160045260246000fd5b7f496e76616c696420616461707465722061646472657373000000000000000000600082015250565b611ae8601782611337565b9050611af381611ab4565b6000602082019050919050565b60006020820190508181036000830152611b1981611add565b9050919050565b7f4164617074657220616c72656164792072656769737465726564000000000000600082015250565b611b54601a82611337565b9050611b5f81611b20565b6000602082019050919050565b60006020820190508181036000830152611b8581611b49565b9050919050565b611b958261132c565b60018060401b03811115611bac57611bab61117a565b5b611bb68254611714565b611bc182828561192c565b50600060209050601f821160018114611bf55760008315611be3578286015190505b611bed848261199d565b855550611c55565b601f198316611c0385611745565b60005b82811015611c2b57848801518255600182019150602085019450602081019050611c06565b5084821015611c495783870151611c45601f87168261197f565b8255505b50506001600284020184555b5050505050565b7f4f776e61626c653a206e6577206f776e657220697320746865207a65726f206160008201527f6464726573730000000000000000000000000000000000000000000000000000602082015250565b611cb6602682611337565b9050611cc181611c5c565b6000604082019050919050565b60006020820190508181036000830152611ce781611cab565b9050919050565b7f4f776e61626c653a2063616c6c6572206973206e6f7420746865206f776e6572600082015250565b611d22602082611337565b9050611d2d81611cee565b6000602082019050919050565b60006020820190508181036000830152611d5381611d17565b905091905056fea26469706673582212206cd3ec8f12c23a5b77bcbdff247ef584c92f50de8d792c117c7b6d943878ee4a64736f6c63430008160033",
  "linkReferences": {},
  "deployedLinkReferences": {}
}