{
  "_format": "hh-sol-artifact-1",
  "contractName": "PaymentAdapterRegistry",
  "sourceName": "contracts/adapters/PaymentAdapterRegistry.sol",
  "abi": [
    {
      "anonymous": false,
      "inputs": [
        {
          "indexed": true,
          "internalType": "address",
          "name": "adapter",
          "type": "address"
        },
        {
          "indexed": false,
          "internalType": "bool",
          "name": "authorized",
          "type": "bool"
        }
      ],
      "name": "AdapterAuthorized",
      "type": "event"
    },
    {
      "anonymous": false,
      "inputs": [
        {
          "indexed": true,
          "internalType": "string",
          "name": "name",
          "type": "string"
        },
        {
          "indexed": true,
          "internalType": "address",
          "name": "adapter",
          "type": "address"
        }
      ],
      "name": "AdapterRegistered",
      "type": "event"
    },
    {
      "anonymous": false,
      "inputs": [
        {
          "indexed": true,
          "internalType": "string",
          "name": "name",
          "type": "string"
        },
        {
          "indexed": true,
          "internalType": "address",
          "name": "adapter",
          "type": "address"
        }
      ],
      "name": "AdapterRemoved",
      "type": "event"
    },
    {
      "anonymous": false,
      "inputs": [
        {
          "indexed": true,
          "internalType": "address",
          "name": "previousOwner",
          "type": "address"
        },
        {
          "indexed": true,
          "internalType": "address",
          "name": "newOwner",
          "type": "address"
        }
      ],
      "name": "OwnershipTransferred",
      "type": "event"
    },
    {
      "inputs": [
        {
          "internalType": "uint256",
          "name": "",
          "type": "uint256"
        }
      ],
      "name": "adapterNames",
      "outputs": [
        {
          "internalType": "string",
          "name": "",
          "type": "string"
        }
      ],
      "stateMutability": "view",
      "type": "function"
    },
    {
      "inputs": [
        {
          "internalType": "string",
          "name": "",
          "type": "string"
        }
      ],
      "name": "adapters",
      "outputs": [
        {
          "internalType": "address",
          "name": "",
          "type": "address"
        }
      ],
      "stateMutability": "view",
      "type": "function"
    },
    {
      "inputs": [
        {
          "internalType": "address",
          "name": "",
          "type": "address"
        }
      ],
      "name": "authorizedAdapters",
      "outputs": [
        {
          "internalType": "bool",
          "name": "",
          "type": "bool"
        }
      ],
      "stateMutability": "view",
      "type": "function"
    },
    {
      "inputs": [
        {
          "internalType": "string",
          "name": "name",
          "type": "string"
        }
      ],
      "name": "getAdapter",
      "outputs": [
        {
          "internalType": "address",
          "name": "",
          "type": "address"
        }
      ],
      "stateMutability": "view",
      "type": "function"
    },
    {
      "inputs": [],
      "name": "getAdapterCount",
      "outputs": [
        {
          "internalType": "uint256",
          "name": "",
          "type": "uint256"
        }
      ],
      "stateMutability": "view",
      "type": "function"
    },
    {
      "inputs": [],
      "name": "getAllAdapterNames",
      "outputs": [
        {
          "internalType": "string[]",
          "name": "",
          "type": "string[]"
        }
      ],
      "stateMutability": "view",
      "type": "function"
    },
    {
      "inputs": [
        {
          "internalType": "address",
          "name": "adapter",
          "type": "address"
        }
      ],
      "name": "isAuthorized",
      "outputs": [
        {
          "internalType": "bool",
          "name": "",
          "type": "bool"
        }
      ],
      "stateMutability": "view",
      "type": "function"
    },
    {
      "inputs": [],
      "name": "owner",
      "outputs": [
        {
          "internalType": "address",
          "name": "",
          "type": "address"
        }
      ],
      "stateMutability": "view",
      "type": "function"
    },
    {
      "inputs": [
        {
          "internalType": "string",
          "name": "name",
          "type": "string"
        },
        {
          "internalType": "address",
          "name": "adapter",
          "type": "address"
        }
      ],
      "name": "registerAdapter",
      "outputs": [],
      "stateMutability": "nonpayable",
      "type": "function"
    },
    {
      "inputs": [
        {
          "internalType": "string",
          "name": "name",
          "type": "string"
        }
      ],
      "name": "removeAdapter",
      "outputs": [],
      "stateMutability": "nonpayable",
      "type": "function"
    },
    {
      "inputs": [],
      "name": "renounceOwnership",
      "outputs": [],
      "stateMutability": "nonpayable",
      "type": "function"
    },
    {
      "inputs": [
        {
          "internalType": "address",
          "name": "newOwner",
          "type": "address"
        }
      ],
      "name": "transferOwnership",
      "outputs": [],
      "stateMutability": "nonpayable",
      "type": "function"
    }
  ],
  "bytecode": "0x608060405234801561001057600080fd5b5061001a3361001f565b61006f565b600080546001600160a01b038381166001600160a01b0319831681178455604051919092169283917f8be0079c531659141344cd1fd0a4f28419497f9722a3daafe3b4186f6b6457e09190a35050565b6110b88061007e6000396000f3fe608060405234801561001057600080fd5b50600436106100a45760003560e01c80633ef11fd7146100a9578063645aea61146100be578063715018a6146100e757806379be938d146100ef5780638a12fad9146101025780638da5cb5b14610112578063b84f5d1e14610127578063bc4c22121461015b578063e2dc12f71461016e578063f2fde38b14610183578063f5a4e0a314610196578063fe9fbb80146101c6575b600080fd5b6100bc6100b7366004610955565b6101f2565b005b6100d16100cc3660046109b5565b6103f1565b6040516100de9190610a2c565b60405180910390f35b6100bc61049d565b6100bc6100fd366004610a62565b6104b1565b6003546040516100de9190610abe565b61011a610633565b6040516100de9190610ad5565b61011a610135366004610955565b80516020818301810180516001825292820191909301209152546001600160a01b031681565b61011a610169366004610955565b610642565b610176610673565b6040516100de9190610b59565b6100bc610191366004610b6a565b61074c565b6101b96101a4366004610b6a565b60026020526000908152604090205460ff1681565b6040516100de9190610b91565b6101b96101d4366004610b6a565b6001600160a01b031660009081526002602052604090205460ff1690565b6101fa610786565b600060018260405161020c9190610bc1565b908152604051908190036020019020546001600160a01b031690508061024d5760405162461bcd60e51b815260040161024490610bf1565b60405180910390fd5b60018260405161025d9190610bc1565b908152604080516020928190038301902080546001600160a01b03191690556001600160a01b038316600090815260029092528120805460ff191690555b600354811015610374578280519060200120600382815481106102c0576102c0610c01565b906000526020600020016040516102d79190610ccb565b60405180910390200361036c57600380546102f490600190610ceb565b8154811061030457610304610c01565b906000526020600020016003828154811061032157610321610c01565b9060005260206000200190816103379190610dd6565b50600380548061034957610349610ea9565b6001900381819060005260206000200160006103659190610805565b9055610374565b60010161029b565b50806001600160a01b03168260405161038d9190610bc1565b604051908190038120907ffe0915a7361ac4ac35bd55624eb527825606ade46276e28c8bd5497c5bb299a890600090a3806001600160a01b031660008051602061106383398151915260006040516103e59190610b91565b60405180910390a25050565b6003818154811061040157600080fd5b90600052602060002001600091509050805461041c90610c2d565b80601f016020809104026020016040519081016040528092919081815260200182805461044890610c2d565b80156104955780601f1061046a57610100808354040283529160200191610495565b820191906000526020600020905b81548152906001019060200180831161047857829003601f168201915b505050505081565b6104a5610786565b6104af60006107b5565b565b6104b9610786565b6001600160a01b0381166104df5760405162461bcd60e51b815260040161024490610eeb565b60006001600160a01b03166001836040516104fa9190610bc1565b908152604051908190036020019020546001600160a01b0316146105305760405162461bcd60e51b815260040161024490610f2a565b806001836040516105419190610bc1565b908152604080516020928190038301902080546001600160a01b0319166001600160a01b0394851617905591831660009081526002909152908120805460ff191660019081179091556003805491820181559091527fc2575a0e9e593c00f959f8c92f12db2869c3395a3b0502d05e2516446f71f85b016105c28382610f3a565b50806001600160a01b0316826040516105db9190610bc1565b604051908190038120907fb40573981f6088c2c6d55252227055ccde57ef96fdc623d5665bee381adf6c0990600090a3806001600160a01b031660008051602061106383398151915260016040516103e59190610b91565b6000546001600160a01b031690565b60006001826040516106549190610bc1565b908152604051908190036020019020546001600160a01b031692915050565b60606003805480602002602001604051908101604052809291908181526020016000905b828210156107435783829060005260206000200180546106b690610c2d565b80601f01602080910402602001604051908101604052809291908181526020018280546106e290610c2d565b801561072f5780601f106107045761010080835404028352916020019161072f565b820191906000526020600020905b81548152906001019060200180831161071257829003601f168201915b505050505081526020019060010190610697565b50505050905090565b610754610786565b6001600160a01b03811661077a5760405162461bcd60e51b815260040161024490610fd8565b610783816107b5565b50565b3361078f610633565b6001600160a01b0316146104af5760405162461bcd60e51b815260040161024490611052565b600080546001600160a01b038381166001600160a01b0319831681178455604051919092169283917f8be0079c531659141344cd1fd0a4f28419497f9722a3daafe3b4186f6b6457e09190a35050565b50805461081190610c2d565b6000825580601f10610821575050565b601f01602090049060005260206000209081019061078391905b8082111561084f576000815560010161083b565b5090565b601f01601f191690565b634e487b7160e01b600052604160045260246000fd5b61087c82610853565b81016001600160401b03811182821017156108995761089961085d565b6040525050565b60006108ab60405190565b90506108b78282610873565b919050565b60006001600160401b038211156108d5576108d561085d565b6108de82610853565b60200192915050565b82818337506000910152565b6000610906610901846108bc565b6108a0565b905082815283838301111561091d5761091d600080fd5b61092b8360208301846108e7565b9392505050565b600082601f83011261094657610946600080fd5b61092b838335602085016108f3565b60006020828403121561096a5761096a600080fd5b81356001600160401b0381111561098357610983600080fd5b61098f84828501610932565b949350505050565b805b811461078357600080fd5b80356109af81610997565b92915050565b6000602082840312156109ca576109ca600080fd5b61092b83836109a4565b60005b838110156109ef5781810151838201526020016109d7565b50506000910152565b6000610a02825190565b808452602084019350610a198185602086016109d4565b610a2281610853565b9093019392505050565b6020808252810161092b81846109f8565b60006001600160a01b0382166109af565b61099981610a3d565b80356109af81610a4e565b60008060408385031215610a7857610a78600080fd5b82356001600160401b03811115610a9157610a91600080fd5b610a9d85828601610932565b925050610aad8460208501610a57565b90509250929050565b805b82525050565b602081016109af8284610ab6565b610ab881610a3d565b602081016109af8284610acc565b600061092b83836109f8565b60200190565b6000610aff825190565b80845260208401935083602082028501610b198560200190565b60005b84811015610b4d5783830388528151610b358482610ae3565b93505060208201602098909801979150600101610b1c565b50909695505050505050565b6020808252810161092b8184610af5565b600060208284031215610b7f57610b7f600080fd5b61092b8383610a57565b801515610ab8565b602081016109af8284610b89565b6000610ba9825190565b610bb78185602086016109d4565b9290920192915050565b6109af8183610b9f565b6011815260208101701059185c1d195c881b9bdd08199bdd5b99607a1b81529050610aef565b602080825281016109af81610bcb565b634e487b7160e01b600052603260045260246000fd5b634e487b7160e01b600052602260045260246000fd5b600281046001821680610c4157607f821691505b602082108103610c5357610c53610c17565b50919050565b60008154610c6681610c2d565b600182168015610c7d5760018114610c9257610cc2565b60ff1983168652811515820286019350610cc2565b60008581526020902060005b83811015610cba57815488820152600190910190602001610c9e565b505081860193505b50505092915050565b6109af8183610c59565b634e487b7160e01b600052601160045260246000fd5b818103818111156109af576109af610cd5565b80546109af81610c2d565b60006109af610d158381565b90565b610d2183610d09565b815460001960089490940293841b1916921b91909117905550565b6000610d49818484610d18565b505050565b81811015610d6957610d61600082610d3c565b600101610d4e565b5050565b601f821115610d49576000818152602090206020601f85010481016020851015610d945750805b610da66020601f860104830182610d4e565b5050505050565b6000196008929092029190911c191690565b610dc98282610dad565b6002909202909117919050565b818103610de1575050565b610dea82610cfe565b6001600160401b03811115610e0157610e0161085d565b610e0b8254610c2d565b610e16828285610d6d565b506000601f821160018114610e455760008315610e335750848201545b610e3d8482610dbf565b855550610da6565b600094855260208086208587529520601f19841690835b82811015610e7c5787850154825560019485019490910190602001610e5c565b5084821015610e9a5783870154610e96601f871682610dad565b8255505b50505050600202600101905550565b634e487b7160e01b600052603160045260246000fd5b601781526020810176496e76616c69642061646170746572206164647265737360481b81529050610aef565b602080825281016109af81610ebf565b601a815260208101791059185c1d195c88185b1c9958591e481c9959da5cdd195c995960321b81529050610aef565b602080825281016109af81610efb565b81516001600160401b03811115610f5357610f5361085d565b610f5d8254610c2d565b610f68828285610d6d565b506020601f821160018114610f8e5760008315610e33575084820151610e3d8482610dbf565b600084815260208120601f198516915b82811015610fbe5787850151825560209485019460019092019101610f9e565b5084821015610e9a5783870151610e96601f871682610dad565b602080825281016109af81602681527f4f776e61626c653a206e6577206f776e657220697320746865207a65726f206160208201526564647265737360d01b604082015260600190565b60208082527f4f776e61626c653a2063616c6c6572206973206e6f7420746865206f776e65729101908152610aef565b602080825281016109af8161102256fe8fc6e4a5571e5bf9b3d11332c56d2c2690eef70ae1a328bda2035657116f4988a2646970667358221220a64568fc8fdf4a7203d4289fb6cb2a63724d1b431872b38489a10fbc0f99b8cb64736f6c63430008160033",
  "linkReferences": {},
  "deployedLinkReferences": {}
}