{
  "_format": "hh-sol-artifact-1",
  "contractName": "MockERC20",
  "sourceName": "contracts/mocks/MockERC20.sol",
  "abi": [
    {
      "inputs": [
        {
          "internalType": "string",
          "name": "name",
          "type": "string"
        },
        {
          "internalType": "string",
          "name": "symbol",
          "type": "string"
        },
        {
          "internalType": "uint256",
          "name": "initialSupply",
          "type": "uint256"
        }
      ],
      "stateMutability": "nonpayable",
      "type": "constructor"
    },
    {
      "anonymous": false,
      "inputs": [
        {
          "indexed": true,
          "internalType": "address",
          "name": "owner",
          "type": "address"
        },
        {
          "indexed": true,
          "internalType": "address",
          "name": "spender",
          "type": "address"
        },
        {
          "indexed": false,
          "internalType": "uint256",
          "name": "value",
          "type": "uint256"
        }
      ],
      "name": "Approval",
      "type": "event"
    },
    {
      "anonymous": false,
      "inputs": [
        {
          "indexed": true,
          "internalType": "address",
          "name": "previousOwner",
          "type": "address"
        },
        {
          "indexed": true,
          "internalType": "address",
          "name": "newOwner",
          "type": "address"
        }
      ],
      "name": "OwnershipTransferred",
      "type": "event"
    },
    {
      "anonymous": false,
      "inputs": [
        {
          "indexed": true,
          "internalType": "address",
          "name": "from",
          "type": "address"
        },
        {
          "indexed": true,
          "internalType": "address",
          "name": "to",
          "type": "address"
        },
        {
          "indexed": false,
          "internalType": "uint256",
          "name": "value",
          "type": "uint256"
        }
      ],
      "name": "Transfer",
      "type": "event"
    },
    {
      "inputs": [
        {
          "internalType": "address",
          "name": "owner",
          "type": "address"
        },
        {
          "internalType": "address",
          "name": "spender",
          "type": "address"
        }
      ],
      "name": "allowance",
      "outputs": [
        {
          "internalType": "uint256",
          "name": "",
          "type": "uint256"
        }
      ],
      "stateMutability": "view",
      "type": "function"
    },
    {
      "inputs": [
        {
          "internalType": "address",
          "name": "spender",
          "type": "address"
        },
        {
          "internalType": "uint256",
          "name": "amount",
          "type": "uint256"
        }
      ],
      "name": "approve",
      "outputs": [
        {
          "internalType": "bool",
          "name": "",
          "type": "bool"
        }
      ],
      "stateMutability": "nonpayable",
      "type": "function"
    },
    {
      "inputs": [
        {
          "internalType": "address",
          "name": "account",
          "type": "address"
        }
      ],
      "name": "balanceOf",
      "outputs": [
        {
          "internalType": "uint256",
          "name": "",
          "type": "uint256"
        }
      ],
      "stateMutability": "view",
      "type": "function"
    },
    {
      "inputs": [
        {
          "internalType": "uint256",
          "name": "amount",
          "type": "uint256"
        }
      ],
      "name": "burn",
      "outputs": [],
      "stateMutability": "nonpayable",
      "type": "function"
    },
    {
      "inputs": [
        {
          "internalType": "address",
          "name": "account",
          "type": "address"
        },
        {
          "internalType": "uint256",
          "name": "amount",
          "type": "uint256"
        }
      ],
      "name": "burnFrom",
      "outputs": [],
      "stateMutability": "nonpayable",
      "type": "function"
    },
    {
      "inputs": [],
      "name": "decimals",
      "outputs": [
        {
          "internalType": "uint8",
          "name": "",
          "type": "uint8"
        }
      ],
      "stateMutability": "view",
      "type": "function"
    },
    {
      "inputs": [
        {
          "internalType": "address",
          "name": "spender",
          "type": "address"
        },
        {
          "internalType": "uint256",
          "name": "subtractedValue",
          "type": "uint256"
        }
      ],
      "name": "decreaseAllowance",
      "outputs": [
        {
          "internalType": "bool",
          "name": "",
          "type": "bool"
        }
      ],
      "stateMutability": "nonpayable",
      "type": "function"
    },
    {
      "inputs": [
        {
          "internalType": "address",
          "name": "spender",
          "type": "address"
        },
        {
          "internalType": "uint256",
          "name": "addedValue",
          "type": "uint256"
        }
      ],
      "name": "increaseAllowance",
      "outputs": [
        {
          "internalType": "bool",
          "name": "",
          "type": "bool"
        }
      ],
      "stateMutability": "nonpayable",
      "type": "function"
    },
    {
      "inputs": [
        {
          "internalType": "address",
          "name": "to",
          "type": "address"
        },
        {
          "internalType": "uint256",
          "name": "amount",
          "type": "uint256"
        }
      ],
      "name": "mint",
      "outputs": [],
      "stateMutability": "nonpayable",
      "type": "function"
    },
    {
      "inputs": [],
      "name": "name",
      "outputs": [
        {
          "internalType": "string",
          "name": "",
          "type": "string"
        }
      ],
      "stateMutability": "view",
      "type": "function"
    },
    {
      "inputs": [],
      "name": "owner",
      "outputs": [
        {
          "internalType": "address",
          "name": "",
          "type": "address"
        }
      ],
      "stateMutability": "view",
      "type": "function"
    },
    {
      "inputs": [],
      "name": "renounceOwnership",
      "outputs": [],
      "stateMutability": "nonpayable",
      "type": "function"
    },
    {
      "inputs": [],
      "name": "symbol",
      "outputs": [
        {
          "internalType": "string",
          "name": "",
          "type": "string"
        }
      ],
      "stateMutability": "view",
      "type": "function"
    },
    {
      "inputs": [],
      "name": "totalSupply",
      "outputs": [
        {
          "internalType": "uint256",
          "name": "",
          "type": "uint256"
        }
      ],
      "stateMutability": "view",
      "type": "function"
    },
    {
      "inputs": [
        {
          "internalType": "address",
          "name": "to",
          "type": "address"
        },
        {
          "internalType": "uint256",
          "name": "amount",
          "type": "uint256"
        }
      ],
      "name": "transfer",
      "outputs": [
        {
          "internalType": "bool",
          "name": "",
          "type": "bool"
        }
      ],
      "stateMutability": "nonpayable",
      "type": "function"
    },
    {
      "inputs": [
        {
          "internalType": "address",
          "name": "from",
          "type": "address"
        },
        {
          "internalType": "address",
          "name": "to",
          "type": "address"
        },
        {
          "internalType": "uint256",
          "name": "amount",
          "type": "uint256"
        }
      ],
      "name": "transferFrom",
      "outputs": [
        {
          "internalType": "bool",
          "name": "",
          "type": "bool"
        }
      ],
      "stateMutability": "nonpayable",
      "type": "function"
    },
    {
      "inputs": [
        {
          "internalType": "address",
          "name": "newOwner",
          "type": "address"
        }
      ],
      "name": "transferOwnership",
      "outputs": [],
      "stateMutability": "nonpayable",
      "type": "function"
    }
  ],
  "bytecode": "0x60806040523480156200001157600080fd5b50604051620013fb380380620013fb8339810160408190526200003491620002e1565b828260036200004483826200048a565b5060046200005382826200048a565b505050620000706200006a6200009860201b60201c565b6200009c565b6005805460ff60a01b1916600960a11b1790556200008f3382620000ee565b505050620005ca565b3390565b600580546001600160a01b038381166001600160a01b0319831681179093556040519116919082907f8be0079c531659141344cd1fd0a4f28419497f9722a3daafe3b4186f6b6457e090600090a35050565b6001600160a01b038216620001205760405162461bcd60e51b8152600401620001179062000555565b60405180910390fd5b8060026000828254620001349190620005a7565b90915550506001600160a01b038216600081815260208190526040808220805485019055517fddf252ad1be2c89b69c2b068fc378daa952ba7f163c4a11628f55a4df523b3ef9062000188908590620005bd565b60405180910390a35b5050565b505050565b601f01601f191690565b634e487b7160e01b600052604160045260246000fd5b620001c5826200019a565b81016001600160401b0381118282101715620001e557620001e5620001a4565b6040525050565b6000620001f860405190565b9050620002068282620001ba565b919050565b60006001600160401b03821115620002275762000227620001a4565b62000232826200019a565b60200192915050565b60005b83811015620002585781810151838201526020016200023e565b50506000910152565b60006200027862000272846200020b565b620001ec565b9050828152838383011115620002915762000291600080fd5b620002a18360208301846200023b565b9392505050565b600082601f830112620002be57620002be600080fd5b8151620002d084826020860162000261565b949350505050565b80515b92915050565b600080600060608486031215620002fb57620002fb600080fd5b83516001600160401b03811115620003165762000316600080fd5b6200032486828701620002a8565b602086015190945090506001600160401b03811115620003475762000347600080fd5b6200035586828701620002a8565b925050620003678560408601620002d8565b90509250925092565b634e487b7160e01b600052602260045260246000fd5b6002810460018216806200039b57607f821691505b602082108103620003b057620003b062000370565b50919050565b6000620002db620003c48381565b90565b620003d283620003b6565b815460001960089490940293841b1916921b91909117905550565b600062000195818484620003c7565b81811015620001915762000412600082620003ed565b600101620003fc565b601f82111562000195576000818152602090206020601f85010481016020851015620004445750805b620004586020601f860104830182620003fc565b5050505050565b6000196008929092029190911c191690565b6200047d82826200045f565b6002909202909117919050565b81516001600160401b03811115620004a657620004a6620001a4565b620004b2825462000386565b620004bf8282856200041b565b506020601f821160018114620004f35760008315620004de5750848201515b620004ea848262000471565b85555062000458565b600084815260208120601f198516915b8281101562000525578785015182556020948501946001909201910162000503565b508482101562000546578387015162000542601f8716826200045f565b8255505b50505050600202600101905550565b60208082528101620002db81601f81527f45524332303a206d696e7420746f20746865207a65726f206164647265737300602082015260400190565b634e487b7160e01b600052601160045260246000fd5b80820180821115620002db57620002db62000591565b81815260208101620002db565b610e2180620005da6000396000f3fe608060405234801561001057600080fd5b50600436106100db5760003560e01c806306fdde03146100e0578063095ea7b3146100fe57806318160ddd1461011e57806323b872dd1461012f578063313ce56714610142578063395093511461015c57806340c10f191461016f57806342966c681461018457806370a0823114610197578063715018a6146101c057806379cc6790146101c85780638da5cb5b146101db57806395d89b41146101f0578063a457c2d7146101f8578063a9059cbb1461020b578063dd62ed3e1461021e578063f2fde38b14610231575b600080fd5b6100e8610244565b6040516100f59190610832565b60405180910390f35b61011161010c36600461088b565b6102d6565b6040516100f591906108cd565b6002545b6040516100f591906108e1565b61011161013d3660046108ef565b6102f0565b600554600160a01b900460ff166040516100f59190610941565b61011161016a36600461088b565b610314565b61018261017d36600461088b565b610336565b005b61018261019236600461094f565b61034c565b6101226101a536600461096e565b6001600160a01b031660009081526020819052604090205490565b610182610359565b6101826101d636600461088b565b61036d565b6101e3610382565b6040516100f59190610996565b6100e8610391565b61011161020636600461088b565b6103a0565b61011161021936600461088b565b6103e6565b61012261022c3660046109a4565b6103f4565b61018261023f36600461096e565b61041f565b606060038054610253906109e9565b80601f016020809104026020016040519081016040528092919081815260200182805461027f906109e9565b80156102cc5780601f106102a1576101008083540402835291602001916102cc565b820191906000526020600020905b8154815290600101906020018083116102af57829003601f168201915b5050505050905090565b6000336102e4818585610456565b60019150505b92915050565b6000336102fe85828561050a565b610309858585610554565b506001949350505050565b6000336102e481858561032783836103f4565b6103319190610a2b565b610456565b61033e610632565b6103488282610661565b5050565b61035633826106e5565b50565b610361610632565b61036b600061078a565b565b61037882338361050a565b61034882826106e5565b6005546001600160a01b031690565b606060048054610253906109e9565b600033816103ae82866103f4565b9050838110156103d95760405162461bcd60e51b81526004016103d090610a80565b60405180910390fd5b6103098286868403610456565b6000336102e4818585610554565b6001600160a01b03918216600090815260016020908152604080832093909416825291909152205490565b610427610632565b6001600160a01b03811661044d5760405162461bcd60e51b81526004016103d090610ad1565b6103568161078a565b6001600160a01b03831661047c5760405162461bcd60e51b81526004016103d090610b20565b6001600160a01b0382166104a25760405162461bcd60e51b81526004016103d090610b6d565b6001600160a01b0380841660008181526001602090815260408083209487168084529490915290819020849055517f8c5be1e5ebec7d5bd14f71427d1e84f3dd0314c0f7b2291e5b200ac8c7c3b925906104fd9085906108e1565b60405180910390a3505050565b600061051684846103f4565b9050600019811461054e57818110156105415760405162461bcd60e51b81526004016103d090610bb1565b61054e8484848403610456565b50505050565b6001600160a01b03831661057a5760405162461bcd60e51b81526004016103d090610c01565b6001600160a01b0382166105a05760405162461bcd60e51b81526004016103d090610c4f565b6001600160a01b038316600090815260208190526040902054818110156105d95760405162461bcd60e51b81526004016103d090610ca0565b6001600160a01b038085166000818152602081905260408082208686039055928616808252908390208054860190559151600080516020610dcc833981519152906106259086906108e1565b60405180910390a361054e565b3361063b610382565b6001600160a01b03161461036b5760405162461bcd60e51b81526004016103d090610ce0565b6001600160a01b0382166106875760405162461bcd60e51b81526004016103d090610d22565b80600260008282546106999190610a2b565b90915550506001600160a01b03821660008181526020819052604080822080548501905551600080516020610dcc833981519152906106d99085906108e1565b60405180910390a35050565b6001600160a01b03821661070b5760405162461bcd60e51b81526004016103d090610d6e565b6001600160a01b038216600090815260208190526040902054818110156107445760405162461bcd60e51b81526004016103d090610dbb565b6001600160a01b038316600081815260208190526040808220858503905560028054869003905551909190600080516020610dcc833981519152906104fd9086906108e1565b600580546001600160a01b038381166001600160a01b0319831681179093556040519116919082907f8be0079c531659141344cd1fd0a4f28419497f9722a3daafe3b4186f6b6457e090600090a35050565b60005b838110156107f75781810151838201526020016107df565b50506000910152565b600061080a825190565b8084526020840193506108218185602086016107dc565b601f01601f19169290920192915050565b602080825281016108438184610800565b9392505050565b60006001600160a01b0382166102ea565b6108648161084a565b811461035657600080fd5b80356102ea8161085b565b80610864565b80356102ea8161087a565b600080604083850312156108a1576108a1600080fd5b6108ab848461086f565b91506108ba8460208501610880565b90509250929050565b8015155b82525050565b602081016102ea82846108c3565b806108c7565b602081016102ea82846108db565b60008060006060848603121561090757610907600080fd5b610911858561086f565b9250610920856020860161086f565b915061092f8560408601610880565b90509250925092565b60ff81166108c7565b602081016102ea8284610938565b60006020828403121561096457610964600080fd5b6108438383610880565b60006020828403121561098357610983600080fd5b610843838361086f565b6108c78161084a565b602081016102ea828461098d565b600080604083850312156109ba576109ba600080fd5b6109c4848461086f565b91506108ba846020850161086f565b634e487b7160e01b600052602260045260246000fd5b6002810460018216806109fd57607f821691505b602082108103610a0f57610a0f6109d3565b50919050565b634e487b7160e01b600052601160045260246000fd5b808201808211156102ea576102ea610a15565b60258152602081017f45524332303a2064656372656173656420616c6c6f77616e63652062656c6f77815264207a65726f60d81b602082015290505b60400190565b602080825281016102ea81610a3e565b60268152602081017f4f776e61626c653a206e6577206f776e657220697320746865207a65726f206181526564647265737360d01b60208201529050610a7a565b602080825281016102ea81610a90565b60248152602081017f45524332303a20617070726f76652066726f6d20746865207a65726f206164648152637265737360e01b60208201529050610a7a565b602080825281016102ea81610ae1565b60228152602081017f45524332303a20617070726f766520746f20746865207a65726f206164647265815261737360f01b60208201529050610a7a565b602080825281016102ea81610b30565b601d8152602081017f45524332303a20696e73756666696369656e7420616c6c6f77616e6365000000815290505b60200190565b602080825281016102ea81610b7d565b60258152602081017f45524332303a207472616e736665722066726f6d20746865207a65726f206164815264647265737360d81b60208201529050610a7a565b602080825281016102ea81610bc1565b60238152602081017f45524332303a207472616e7366657220746f20746865207a65726f206164647281526265737360e81b60208201529050610a7a565b602080825281016102ea81610c11565b60268152602081017f45524332303a207472616e7366657220616d6f756e7420657863656564732062815265616c616e636560d01b60208201529050610a7a565b602080825281016102ea81610c5f565b60208082527f4f776e61626c653a2063616c6c6572206973206e6f7420746865206f776e65729101908152610bab565b602080825281016102ea81610cb0565b601f8152602081017f45524332303a206d696e7420746f20746865207a65726f20616464726573730081529050610bab565b602080825281016102ea81610cf0565b60218152602081017f45524332303a206275726e2066726f6d20746865207a65726f206164647265738152607360f81b60208201529050610a7a565b602080825281016102ea81610d32565b60228152602081017f45524332303a206275726e20616d6f756e7420657863656564732062616c616e815261636560f01b60208201529050610a7a565b602080825281016102ea81610d7e56feddf252ad1be2c89b69c2b068fc378daa952ba7f163c4a11628f55a4df523b3efa2646970667358221220c1cec99ea3a3ed55c5f8f547784699798448b77ff663eacd1e3125cc52d4471964736f6c63430008160033",
  "linkReferences": {},
  "deployedLinkReferences": {}
}