{
  "_format": "hh-sol-artifact-1",
  "contractName": "EscrowFactory",
  "sourceName": "contracts/EscrowFactory.sol",
  "abi": [
    {
      "inputs": [
        {
          "internalType": "address",
          "name": "_platformWallet",
          "type": "address"
        },
        {
          "internalType": "uint256",
          "name": "_platformFee",
          "type": "uint256"
        },
        {
          "internalType": "address",
          "name": "_defaultAgent",
          "type": "address"
        },
        {
          "internalType": "address",
          "name": "_defaultArbiter",
          "type": "address"
        }
      ],
      "stateMutability": "nonpayable",
      "type": "constructor"
    },
    {
      "inputs": [
        {
          "internalType": "address",
          "name": "owner",
          "type": "address"
        }
      ],
      "name": "OwnableInvalidOwner",
      "type": "error"
    },
    {
      "inputs": [
        {
          "internalType": "address",
          "name": "account",
          "type": "address"
        }
      ],
      "name": "OwnableUnauthorizedAccount",
      "type": "error"
    },
    {
      "inputs": [],
      "name": "ReentrancyGuardReentrantCall",
      "type": "error"
    },
    {
      "anonymous": false,
      "inputs": [
        {
          "indexed": true,
          "internalType": "address",
          "name": "agent",
          "type": "address"
        }
      ],
      "name": "DefaultAgentSet",
      "type": "event"
    },
    {
      "anonymous": false,
      "inputs": [
        {
          "indexed": true,
          "internalType": "address",
          "name": "arbiter",
          "type": "address"
        }
      ],
      "name": "DefaultArbiterSet",
      "type": "event"
    },
    {
      "anonymous": false,
      "inputs": [
        {
          "indexed": true,
          "internalType": "address",
          "name": "escrowContract",
          "type": "address"
        },
        {
          "indexed": true,
          "internalType": "address",
          "name": "creator",
          "type": "address"
        },
        {
          "indexed": true,
          "internalType": "uint256",
          "name": "escrowId",
          "type": "uint256"
        }
      ],
      "name": "EscrowContractDeployed",
      "type": "event"
    },
    {
      "anonymous": false,
      "inputs": [
        {
          "indexed": true,
          "internalType": "address",
          "name": "previousOwner",
          "type": "address"
        },
        {
          "indexed": true,
          "internalType": "address",
          "name": "newOwner",
          "type": "address"
        }
      ],
      "name": "OwnershipTransferred",
      "type": "event"
    },
    {
      "anonymous": false,
      "inputs": [
        {
          "indexed": false,
          "internalType": "uint256",
          "name": "newFee",
          "type": "uint256"
        }
      ],
      "name": "PlatformFeeUpdated",
      "type": "event"
    },
    {
      "anonymous": false,
      "inputs": [
        {
          "indexed": true,
          "internalType": "address",
          "name": "token",
          "type": "address"
        },
        {
          "indexed": false,
          "internalType": "bool",
          "name": "whitelisted",
          "type": "bool"
        }
      ],
      "name": "TokenWhitelisted",
      "type": "event"
    },
    {
      "inputs": [],
      "name": "MAX_PLATFORM_FEE",
      "outputs": [
        {
          "internalType": "uint256",
          "name": "",
          "type": "uint256"
        }
      ],
      "stateMutability": "view",
      "type": "function"
    },
    {
      "inputs": [
        {
          "components": [
            {
              "internalType": "address",
              "name": "buyer",
              "type": "address"
            },
            {
              "internalType": "address",
              "name": "seller",
              "type": "address"
            },
            {
              "internalType": "address",
              "name": "agent",
              "type": "address"
            },
            {
              "internalType": "address",
              "name": "arbiter",
              "type": "address"
            },
            {
              "internalType": "address",
              "name": "tokenAddress",
              "type": "address"
            },
            {
              "internalType": "uint256",
              "name": "depositAmount",
              "type": "uint256"
            },
            {
              "internalType": "uint256",
              "name": "agentFee",
              "type": "uint256"
            },
            {
              "internalType": "uint256",
              "name": "platformFee",
              "type": "uint256"
            },
            {
              "components": [
                {
                  "internalType": "string",
                  "name": "propertyId",
                  "type": "string"
                },
                {
                  "internalType": "string",
                  "name": "description",
                  "type": "string"
                },
                {
                  "internalType": "uint256",
                  "name": "salePrice",
                  "type": "uint256"
                },
                {
                  "internalType": "string",
                  "name": "documentHash",
                  "type": "string"
                },
                {
                  "internalType": "bool",
                  "name": "verified",
                  "type": "bool"
                }
              ],
              "internalType": "struct EscrowStructs.Property",
              "name": "property",
              "type": "tuple"
            },
            {
              "internalType": "uint256",
              "name": "depositDeadline",
              "type": "uint256"
            },
            {
              "internalType": "uint256",
              "name": "verificationDeadline",
              "type": "uint256"
            }
          ],
          "internalType": "struct EscrowStructs.CreateEscrowParams",
          "name": "params",
          "type": "tuple"
        }
      ],
      "name": "createEscrow",
      "outputs": [
        {
          "internalType": "address",
          "name": "escrowContract",
          "type": "address"
        },
        {
          "internalType": "uint256",
          "name": "escrowId",
          "type": "uint256"
        }
      ],
      "stateMutability": "nonpayable",
      "type": "function"
    },
    {
      "inputs": [],
      "name": "getDefaultAgent",
      "outputs": [
        {
          "internalType": "address",
          "name": "",
          "type": "address"
        }
      ],
      "stateMutability": "view",
      "type": "function"
    },
    {
      "inputs": [],
      "name": "getDefaultArbiter",
      "outputs": [
        {
          "internalType": "address",
          "name": "",
          "type": "address"
        }
      ],
      "stateMutability": "view",
      "type": "function"
    },
    {
      "inputs": [
        {
          "internalType": "uint256",
          "name": "escrowId",
          "type": "uint256"
        }
      ],
      "name": "getEscrowContract",
      "outputs": [
        {
          "internalType": "address",
          "name": "",
          "type": "address"
        }
      ],
      "stateMutability": "view",
      "type": "function"
    },
    {
      "inputs": [],
      "name": "getPlatformFee",
      "outputs": [
        {
          "internalType": "uint256",
          "name": "",
          "type": "uint256"
        }
      ],
      "stateMutability": "view",
      "type": "function"
    },
    {
      "inputs": [],
      "name": "getTotalEscrowContracts",
      "outputs": [
        {
          "internalType": "uint256",
          "name": "",
          "type": "uint256"
        }
      ],
      "stateMutability": "view",
      "type": "function"
    },
    {
      "inputs": [
        {
          "internalType": "address",
          "name": "token",
          "type": "address"
        }
      ],
      "name": "isTokenWhitelisted",
      "outputs": [
        {
          "internalType": "bool",
          "name": "",
          "type": "bool"
        }
      ],
      "stateMutability": "view",
      "type": "function"
    },
    {
      "inputs": [],
      "name": "owner",
      "outputs": [
        {
          "internalType": "address",
          "name": "",
          "type": "address"
        }
      ],
      "stateMutability": "view",
      "type": "function"
    },
    {
      "inputs": [],
      "name": "platformWallet",
      "outputs": [
        {
          "internalType": "address",
          "name": "",
          "type": "address"
        }
      ],
      "stateMutability": "view",
      "type": "function"
    },
    {
      "inputs": [],
      "name": "renounceOwnership",
      "outputs": [],
      "stateMutability": "nonpayable",
      "type": "function"
    },
    {
      "inputs": [
        {
          "internalType": "address",
          "name": "agent",
          "type": "address"
        }
      ],
      "name": "setDefaultAgent",
      "outputs": [],
      "stateMutability": "nonpayable",
      "type": "function"
    },
    {
      "inputs": [
        {
          "internalType": "address",
          "name": "arbiter",
          "type": "address"
        }
      ],
      "name": "setDefaultArbiter",
      "outputs": [],
      "stateMutability": "nonpayable",
      "type": "function"
    },
    {
      "inputs": [
        {
          "internalType": "uint256",
          "name": "fee",
          "type": "uint256"
        }
      ],
      "name": "setPlatformFee",
      "outputs": [],
      "stateMutability": "nonpayable",
      "type": "function"
    },
    {
      "inputs": [
        {
          "internalType": "address",
          "name": "newOwner",
          "type": "address"
        }
      ],
      "name": "transferOwnership",
      "outputs": [],
      "stateMutability": "nonpayable",
      "type": "function"
    },
    {
      "inputs": [
        {
          "internalType": "address",
          "name": "token",
          "type": "address"
        },
        {
          "internalType": "bool",
          "name": "whitelisted",
          "type": "bool"
        }
      ],
      "name": "whitelistToken",
      "outputs": [],
      "stateMutability": "nonpayable",
      "type": "function"
    },
    {
      "inputs": [
        {
          "internalType": "address",
          "name": "",
          "type": "address"
        }
      ],
      "name": "whitelistedTokens",
      "outputs": [
        {
          "internalType": "bool",
          "name": "",
          "type": "bool"
        }
      ],
      "stateMutability": "view",
      "type": "function"
    }
  ],
  "bytecode": "0x60a06040523480156200001157600080fd5b5060405162004fb238038062004fb28339810160408190526200003491620001c2565b33806200005c57604051631e4fbdf760e01b8152600060048201526024015b60405180910390fd5b620000678162000155565b50600180556001600160a01b038416620000c45760405162461bcd60e51b815260206004820152601760248201527f496e76616c696420706c6174666f726d2077616c6c6574000000000000000000604482015260640162000053565b6101f4831115620001185760405162461bcd60e51b815260206004820152601560248201527f506c6174666f726d2066656520746f6f20686967680000000000000000000000604482015260640162000053565b6001600160a01b03938416608052600692909255600480549184166001600160a01b03199283161790556005805492909316911617905562000216565b600080546001600160a01b038381166001600160a01b0319831681178455604051919092169283917f8be0079c531659141344cd1fd0a4f28419497f9722a3daafe3b4186f6b6457e09190a35050565b80516001600160a01b0381168114620001bd57600080fd5b919050565b60008060008060808587031215620001d957600080fd5b620001e485620001a5565b935060208501519250620001fb60408601620001a5565b91506200020b60608601620001a5565b905092959194509250565b608051614d7962000239600039600081816102dd015261060f0152614d796000f3fe60806040523480156200001157600080fd5b5060043610620001215760003560e01c80637953eec911620000af578063b5af090f116200007a578063b5af090f1462000243578063bbdf72431462000283578063daf9c210146200029a578063f2fde38b14620002c0578063fa2af9da14620002d757600080fd5b80637953eec914620001df5780638da5cb5b14620001f15780639d5e05511462000203578063afa9545d146200023a57600080fd5b80634bad78db11620000f05780634bad78db146200018a578063603c50d514620001ba5780636ea8bc1014620001cc578063715018a614620001d557600080fd5b80630ffb1d8b146200012657806312e8e2c3146200013f5780632eb73a8814620001565780633998a681146200016d575b600080fd5b6200013d6200013736600462000b3f565b620002ff565b005b6200013d6200015036600462000b77565b620003bc565b6200013d6200016736600462000b91565b62000444565b620001776101f481565b6040519081526020015b60405180910390f35b620001a16200019b36600462000b77565b62000498565b6040516001600160a01b03909116815260200162000181565b6004546001600160a01b0316620001a1565b60065462000177565b6200013d620004fd565b6005546001600160a01b0316620001a1565b6000546001600160a01b0316620001a1565b6200021a6200021436600462000bb6565b62000515565b604080516001600160a01b03909316835260208301919091520162000181565b60075462000177565b620002726200025436600462000b91565b6001600160a01b031660009081526003602052604090205460ff1690565b604051901515815260200162000181565b6200013d6200029436600462000b91565b620009c1565b62000272620002ab36600462000b91565b60036020526000908152604090205460ff1681565b6200013d620002d136600462000b91565b62000a15565b620001a17f000000000000000000000000000000000000000000000000000000000000000081565b6200030962000a59565b6001600160a01b0382166200035d5760405162461bcd60e51b8152602060048201526015602482015274496e76616c696420746f6b656e206164647265737360581b60448201526064015b60405180910390fd5b6001600160a01b038216600081815260036020908152604091829020805460ff191685151590811790915591519182527fef81a9943b96c8df4ef243401c9bf5159146166211356898b52d382086168d92910160405180910390a25050565b620003c662000a59565b6101f4811115620004095760405162461bcd60e51b815260206004820152600c60248201526b08ccaca40e8dede40d0d2ced60a31b604482015260640162000354565b60068190556040518181527f45610d581145924dd7090a5017e5f2b1d6f42213bb2e95707ff86846bbfcb1ca9060200160405180910390a150565b6200044e62000a59565b600480546001600160a01b0319166001600160a01b0383169081179091556040517f9f0c49ac6da1b1d3f7b753b41ba9cdc631d714821b72e79e413399440f87181390600090a250565b60006007548210620004e15760405162461bcd60e51b8152602060048201526011602482015270125b9d985b1a5908195cd8dc9bddc81251607a1b604482015260640162000354565b506000908152600260205260409020546001600160a01b031690565b6200050762000a59565b62000513600062000a88565b565b6000806200052262000ad8565b600360006200053860a086016080870162000b91565b6001600160a01b0316815260208101919091526040016000205460ff166200059b5760405162461bcd60e51b8152602060048201526015602482015274151bdad95b881b9bdd081dda1a5d195b1a5cdd1959605a1b604482015260640162000354565b6000620005a88462000db0565b60408101519091506001600160a01b0316620005d0576004546001600160a01b031660408201525b60608101516001600160a01b0316620005f5576005546001600160a01b031660608201525b8060e001516000036200060b5760065460e08201525b60007f00000000000000000000000000000000000000000000000000000000000000008260e00151604051620006419062000b03565b6001600160a01b0390921682526020820152604001604051809103906000f08015801562000673573d6000803e3d6000fd5b506080830151604051630ffb1d8b60e01b81526001600160a01b03918216600482015260016024820152919550859250821690630ffb1d8b90604401600060405180830381600087803b158015620006ca57600080fd5b505af1158015620006df573d6000803e3d6000fd5b5050505060408201516001600160a01b031615620007d557806001600160a01b0316632f2ff15d826001600160a01b03166322459e186040518163ffffffff1660e01b8152600401602060405180830381865afa15801562000745573d6000803e3d6000fd5b505050506040513d601f19601f820116820180604052508101906200076b919062000e95565b84604001516040518363ffffffff1660e01b8152600401620007a09291909182526001600160a01b0316602082015260400190565b600060405180830381600087803b158015620007bb57600080fd5b505af1158015620007d0573d6000803e3d6000fd5b505050505b60608201516001600160a01b031615620008c457806001600160a01b0316632f2ff15d826001600160a01b0316634d104adf6040518163ffffffff1660e01b8152600401602060405180830381865afa15801562000837573d6000803e3d6000fd5b505050506040513d601f19601f820116820180604052508101906200085d919062000e95565b60608501516040516001600160e01b031960e085901b16815260048101929092526001600160a01b03166024820152604401600060405180830381600087803b158015620008aa57600080fd5b505af1158015620008bf573d6000803e3d6000fd5b505050505b604051639d5e055160e01b81526001600160a01b03821690639d5e055190620008f290859060040162000f68565b6020604051808303816000875af115801562000912573d6000803e3d6000fd5b505050506040513d601f19601f8201168201806040525081019062000938919062000e95565b60078054600090815260026020526040812080546001600160a01b0319166001600160a01b0389161790558154929550620009738362001042565b9091555050604051839033906001600160a01b038716907ff04881845615a90c5228ceb3942839403fea454de5e4b34dc7266a641c5839e790600090a45050620009bc60018055565b915091565b620009cb62000a59565b600580546001600160a01b0319166001600160a01b0383169081179091556040517f2151be18e1a9ef97fad5998c8aa002234f4140b219f553eabf2dbdd21c23a39690600090a250565b62000a1f62000a59565b6001600160a01b03811662000a4b57604051631e4fbdf760e01b81526000600482015260240162000354565b62000a568162000a88565b50565b6000546001600160a01b03163314620005135760405163118cdaa760e01b815233600482015260240162000354565b600080546001600160a01b038381166001600160a01b0319831681178455604051919092169283917f8be0079c531659141344cd1fd0a4f28419497f9722a3daafe3b4186f6b6457e09190a35050565b60026001540362000afc57604051633ee5aeb560e01b815260040160405180910390fd5b6002600155565b613cd9806200106b83390190565b80356001600160a01b038116811462000b2957600080fd5b919050565b8035801515811462000b2957600080fd5b6000806040838503121562000b5357600080fd5b62000b5e8362000b11565b915062000b6e6020840162000b2e565b90509250929050565b60006020828403121562000b8a57600080fd5b5035919050565b60006020828403121562000ba457600080fd5b62000baf8262000b11565b9392505050565b60006020828403121562000bc957600080fd5b813567ffffffffffffffff81111562000be157600080fd5b8201610160818503121562000baf57600080fd5b634e487b7160e01b600052604160045260246000fd5b60405160a0810167ffffffffffffffff8111828210171562000c315762000c3162000bf5565b60405290565b604051610160810167ffffffffffffffff8111828210171562000c315762000c3162000bf5565b600082601f83011262000c7057600080fd5b813567ffffffffffffffff8082111562000c8e5762000c8e62000bf5565b604051601f8301601f19908116603f0116810190828211818310171562000cb95762000cb962000bf5565b8160405283815286602085880101111562000cd357600080fd5b836020870160208301376000602085830101528094505050505092915050565b600060a0828403121562000d0657600080fd5b62000d1062000c0b565b9050813567ffffffffffffffff8082111562000d2b57600080fd5b62000d398583860162000c5e565b8352602084013591508082111562000d5057600080fd5b62000d5e8583860162000c5e565b602084015260408401356040840152606084013591508082111562000d8257600080fd5b5062000d918482850162000c5e565b60608301525062000da56080830162000b2e565b608082015292915050565b6000610160823603121562000dc457600080fd5b62000dce62000c37565b62000dd98362000b11565b815262000de96020840162000b11565b602082015262000dfc6040840162000b11565b604082015262000e0f6060840162000b11565b606082015262000e226080840162000b11565b608082015260a083013560a082015260c083013560c082015260e083013560e08201526101008084013567ffffffffffffffff81111562000e6257600080fd5b62000e703682870162000cf3565b9183019190915250610120838101359082015261014092830135928101929092525090565b60006020828403121562000ea857600080fd5b5051919050565b6000815180845260005b8181101562000ed75760208185018101518683018201520162000eb9565b506000602082860101526020601f19601f83011685010191505092915050565b6000815160a0845262000f0e60a085018262000eaf565b90506020830151848203602086015262000f29828262000eaf565b915050604083015160408501526060830151848203606086015262000f4f828262000eaf565b9150506080830151151560808501528091505092915050565b6020815262000f836020820183516001600160a01b03169052565b6000602083015162000fa060408401826001600160a01b03169052565b5060408301516001600160a01b03811660608401525060608301516001600160a01b03811660808401525060808301516001600160a01b03811660a08401525060a083015160c083015260c083015160e083015260e083015161010081818501528085015191505061016061012081818601526200102361018086018462000ef7565b9086015161014086810191909152909501519301929092525090919050565b6000600182016200106357634e487b7160e01b600052601160045260246000fd5b506001019056fe60806040523480156200001157600080fd5b5060405162003cd938038062003cd98339810160408190526200003491620001ff565b60016000556001600160a01b038216620000955760405162461bcd60e51b815260206004820152601760248201527f496e76616c696420706c6174666f726d2077616c6c657400000000000000000060448201526064015b60405180910390fd5b6101f4811115620000e95760405162461bcd60e51b815260206004820152601560248201527f506c6174666f726d2066656520746f6f2068696768000000000000000000000060448201526064016200008c565b600880546001600160a01b0319166001600160a01b0384161790556007819055620001166000336200014c565b50620001437fa49807205ce4d355092ef5a8a18f56e8913cf4a201fbe287825b095693c21775336200014c565b5050506200023b565b60008281526002602090815260408083206001600160a01b038516845290915281205460ff16620001f55760008381526002602090815260408083206001600160a01b03861684529091529020805460ff19166001179055620001ac3390565b6001600160a01b0316826001600160a01b0316847f2f8788117e7eff1d82e926ec794901d17c78024a50270940304540a733656f0d60405160405180910390a4506001620001f9565b5060005b92915050565b600080604083850312156200021357600080fd5b82516001600160a01b03811681146200022b57600080fd5b6020939093015192949293505050565b613a8e806200024b6000396000f3fe608060405234801561001057600080fd5b50600436106102065760003560e01c80634d68282f1161011a578063a217fddf116100ad578063d547741f1161007c578063d547741f14610463578063daf9c21014610476578063e018243614610499578063e1f1c4a7146104ac578063fa2af9da146104b557600080fd5b8063a217fddf1461042c578063b138821e14610434578063b49b0cb314610447578063cdd78cfc1461045a57600080fd5b80637d19e596116100e95780637d19e596146103de5780638456cb59146103fe57806391d14854146104065780639d5e05511461041957600080fd5b80634d68282f146103985780635aef573c146103ab5780635c975abb146103be57806375b238fc146103c957600080fd5b806336568abe1161019d5780633b76594d1161016c5780633b76594d1461033b5780633f4ba83a1461034e5780633f4dbda21461035657806346b6cfd31461035e5780634d104adf1461037157600080fd5b806336568abe146102ec57806339292763146102ff5780633998a681146103125780633a49995b1461031b57600080fd5b806322459e18116101d957806322459e181461026e578063248a9ca3146102a35780632840662d146102c65780632f2ff15d146102d957600080fd5b806301ffc9a71461020b57806308b88af1146102335780630ffb1d8b1461024657806312e8e2c31461025b575b600080fd5b61021e6102193660046130c8565b6104e0565b60405190151581526020015b60405180910390f35b61021e6102413660046130f9565b610517565b610259610254366004613137565b610950565b005b6102596102693660046130f9565b610994565b6102957fcab5a0bfe0b79d2c4b1c2e02599fa044d115b7511f9659307cb427695096770981565b60405190815260200161022a565b6102956102b13660046130f9565b60009081526002602052604090206001015490565b6102596102d43660046131b7565b6109f3565b6102596102e7366004613213565b610bcd565b6102596102fa366004613213565b610bf2565b61025961030d3660046130f9565b610c2a565b6102956101f481565b61032e6103293660046130f9565b610ccf565b60405161022a9190613269565b6102596103493660046130f9565b610d0d565b610259610eb9565b600654610295565b61025961036c3660046130f9565b610ed9565b6102957fbb08418a67729a078f87bbc8d02a770929bb68f5bfdf134ae2ead6ed38e2f4ae81565b6102596103a63660046130f9565b61108b565b6102596103b9366004613277565b6112a4565b60015460ff1661021e565b610295600080516020613a3983398151915281565b6103f16103ec3660046130f9565b6119b1565b60405161022a9190613374565b610259611d63565b61021e610414366004613213565b611d83565b6102956104273660046134d6565b611dae565b610295600081565b6102596104423660046130f9565b612340565b610259610455366004613512565b6125e6565b61029560075481565b610259610471366004613213565b612612565b61021e61048436600461353c565b60056020526000908152604090205460ff1681565b6102596104a73660046130f9565b612637565b61029561271081565b6008546104c8906001600160a01b031681565b6040516001600160a01b03909116815260200161022a565b60006001600160e01b03198216637965db0b60e01b148061051157506301ffc9a760e01b6001600160e01b03198316145b92915050565b60008160065481106105445760405162461bcd60e51b815260040161053b90613557565b60405180910390fd5b60008381526003602081815260408084208151610240810183528154815260018201546001600160a01b039081169482019490945260028201548416928101929092529283015482166060820152600483015482166080820152600583015490911660a082015260068083015460c0830152600783015460e08301526008830154610100830152600983015491929161012084019160ff909116908111156105ee576105ee61323f565b60068111156105ff576105ff61323f565b8152602001600a82016040518060a001604052908160008201805461062390613582565b80601f016020809104026020016040519081016040528092919081815260200182805461064f90613582565b801561069c5780601f106106715761010080835404028352916020019161069c565b820191906000526020600020905b81548152906001019060200180831161067f57829003601f168201915b505050505081526020016001820180546106b590613582565b80601f01602080910402602001604051908101604052809291908181526020018280546106e190613582565b801561072e5780601f106107035761010080835404028352916020019161072e565b820191906000526020600020905b81548152906001019060200180831161071157829003601f168201915b505050505081526020016002820154815260200160038201805461075190613582565b80601f016020809104026020016040519081016040528092919081815260200182805461077d90613582565b80156107ca5780601f1061079f576101008083540402835291602001916107ca565b820191906000526020600020905b8154815290600101906020018083116107ad57829003601f168201915b50505091835250506004919091015460ff9081161515602092830152918352600f84015490830152601083015460408301526011830154606083015260128301548082161515608084015261010081048216151560a084015262010000900416151560c082015260138201805460e09092019161084690613582565b80601f016020809104026020016040519081016040528092919081815260200182805461087290613582565b80156108bf5780601f10610894576101008083540402835291602001916108bf565b820191906000526020600020905b8154815290600101906020018083116108a257829003601f168201915b5050505050815250509050600260068111156108dd576108dd61323f565b81610120015160068111156108f4576108f461323f565b1480156109075750806101400151608001515b80156109155750806101c001515b80156109235750806101e001515b8015610946575060608101516001600160a01b0316158061094657508061020001515b9250505b50919050565b600080516020613a3983398151915261096881612b6d565b506001600160a01b03919091166000908152600560205260409020805460ff1916911515919091179055565b600080516020613a398339815191526109ac81612b6d565b6101f48211156109ed5760405162461bcd60e51b815260206004820152600c60248201526b08ccaca40e8dede40d0d2ced60a31b604482015260640161053b565b50600755565b6109fb612b77565b610a03612ba1565b836006548110610a255760405162461bcd60e51b815260040161053b90613557565b8460048060008381526003602052604090206009015460ff166006811115610a4f57610a4f61323f565b14610a6c5760405162461bcd60e51b815260040161053b906135b6565b600087815260036020526040902060048101546001600160a01b0316331480610aa85750610aa8600080516020613a3983398151915233611d83565b610afe5760405162461bcd60e51b815260206004820152602160248201527f4f6e6c792061726269746572206f722061646d696e2063616e207265736f6c766044820152606560f81b606482015260840161053b565b600088815260046020819052604090912060038101805433610100026001600160a81b0319909116176001179055908101610b3a87898361365d565b508715610b4f57610b4a89612bc7565b610b74565b60098201805460ff191660021790556012820180546201010162ffffff199091161790555b336001600160a01b0316897f7b71d2e00379bd165b2750d54298da2414376699827edca2bce2a096c491d2e98989604051610bb0929190613718565b60405180910390a35050505050610bc76001600055565b50505050565b600082815260026020526040902060010154610be881612b6d565b610bc78383612d0c565b6001600160a01b0381163314610c1b5760405163334bd91960e11b815260040160405180910390fd5b610c258282612da0565b505050565b610c32612b77565b610c3a612ba1565b806006548110610c5c5760405162461bcd60e51b815260040161053b90613557565b610c74600080516020613a3983398151915233611d83565b610cb85760405162461bcd60e51b815260206004820152601560248201527413db9b1e4818591b5a5b8818d85b881c99599d5b99605a1b604482015260640161053b565b610cc182612bc7565b50610ccc6001600055565b50565b6000816006548110610cf35760405162461bcd60e51b815260040161053b90613557565b505060009081526003602052604090206009015460ff1690565b610d15612b77565b610d1d612ba1565b806006548110610d3f5760405162461bcd60e51b815260040161053b90613557565b8160008060008381526003602052604090206009015460ff166006811115610d6957610d6961323f565b14610d865760405162461bcd60e51b815260040161053b906135b6565b600084815260036020526040902060018101546001600160a01b03163314610de95760405162461bcd60e51b815260206004820152601660248201527513db9b1e48189d5e595c8818d85b8819195c1bdcda5d60521b604482015260640161053b565b8060100154421115610e3d5760405162461bcd60e51b815260206004820152601760248201527f4465706f73697420646561646c696e6520706173736564000000000000000000604482015260640161053b565b60068101546005820154610e60916001600160a01b039091169033903090612e0d565b60098101805460ff191660011790556006810154604051908152339086907fe030e47e27825a2ad1b19e4cf2e70bfbfb3124af275c7727a82b114ba7b29a859060200160405180910390a350505050610ccc6001600055565b600080516020613a39833981519152610ed181612b6d565b610ccc612e74565b610ee1612b77565b610ee9612ba1565b806006548110610f0b5760405162461bcd60e51b815260040161053b90613557565b8160018060008381526003602052604090206009015460ff166006811115610f3557610f3561323f565b14610f525760405162461bcd60e51b815260040161053b906135b6565b6000848152600360208190526040909120908101546001600160a01b0316331480610f905750610f90600080516020613a3983398151915233611d83565b610fdc5760405162461bcd60e51b815260206004820152601e60248201527f4f6e6c79206167656e74206f722061646d696e2063616e207665726966790000604482015260640161053b565b80601101544211156110305760405162461bcd60e51b815260206004820152601c60248201527f566572696669636174696f6e20646561646c696e652070617373656400000000604482015260640161053b565b60098101805460ff19908116600217909155600e820180549091166001179055604051339086907f0229702661bd522f80cf22e71a80e376c2ac20ea2ecd8e680f1a8e8285738a1c90600090a350505050610ccc6001600055565b611093612b77565b61109b612ba1565b8060065481106110bd5760405162461bcd60e51b815260040161053b90613557565b8160028060008381526003602052604090206009015460ff1660068111156110e7576110e761323f565b146111045760405162461bcd60e51b815260040161053b906135b6565b61110d84610517565b6111595760405162461bcd60e51b815260206004820152601a60248201527f52656c6561736520636f6e646974696f6e73206e6f74206d6574000000000000604482015260640161053b565b600084815260036020526040812060088101546006820154919291612710916111819161375d565b61118b9190613774565b90506000826007015490506000818385600601546111a99190613796565b6111b39190613796565b60098501805460ff1916600317905560058501549091506001600160a01b031683156111f3576008546111f3906001600160a01b03838116911686612ec6565b60008311801561120f575060038501546001600160a01b031615155b15611230576003850154611230906001600160a01b03838116911685612ec6565b600285015461124c906001600160a01b03838116911684612ec6565b60028501546040518381526001600160a01b03909116908a907f6e3c6096795c8298a218b2cfb8bde42726ff7c9a3d27b4d3ba41ab7f74feb5fb9060200160405180910390a35050505050505050610ccc6001600055565b6112ac612b77565b6112b4612ba1565b8260065481106112d65760405162461bcd60e51b815260040161053b90613557565b60008481526003602081815260408084208151610240810183528154815260018201546001600160a01b039081169482019490945260028201548416928101929092529283015482166060820152600483015482166080820152600583015490911660a082015260068083015460c0830152600783015460e0830152600883015461010083015260098301548894939161012084019160ff169081111561137f5761137f61323f565b60068111156113905761139061323f565b8152602001600a82016040518060a00160405290816000820180546113b490613582565b80601f01602080910402602001604051908101604052809291908181526020018280546113e090613582565b801561142d5780601f106114025761010080835404028352916020019161142d565b820191906000526020600020905b81548152906001019060200180831161141057829003601f168201915b5050505050815260200160018201805461144690613582565b80601f016020809104026020016040519081016040528092919081815260200182805461147290613582565b80156114bf5780601f10611494576101008083540402835291602001916114bf565b820191906000526020600020905b8154815290600101906020018083116114a257829003601f168201915b50505050508152602001600282015481526020016003820180546114e290613582565b80601f016020809104026020016040519081016040528092919081815260200182805461150e90613582565b801561155b5780601f106115305761010080835404028352916020019161155b565b820191906000526020600020905b81548152906001019060200180831161153e57829003601f168201915b50505091835250506004919091015460ff9081161515602092830152918352600f84015490830152601083015460408301526011830154606083015260128301548082161515608084015261010081048216151560a084015262010000900416151560c082015260138201805460e0909201916115d790613582565b80601f016020809104026020016040519081016040528092919081815260200182805461160390613582565b80156116505780601f1061162557610100808354040283529160200191611650565b820191906000526020600020905b81548152906001019060200180831161163357829003601f168201915b505050505081525050905080602001516001600160a01b0316336001600160a01b03161480611694575080604001516001600160a01b0316336001600160a01b0316145b806116b4575080606001516001600160a01b0316336001600160a01b0316145b806116d4575080608001516001600160a01b0316336001600160a01b0316145b806116f257506116f2600080516020613a3983398151915233611d83565b61173e5760405162461bcd60e51b815260206004820152601e60248201527f4e6f7420617574686f72697a656420666f72207468697320657363726f770000604482015260640161053b565b60008681526003602052604090206001600982015460ff1660068111156117675761176761323f565b148061178b57506002600982015460ff1660068111156117895761178961323f565b145b6117d75760405162461bcd60e51b815260206004820152601f60248201527f43616e6e6f74206469737075746520696e2063757272656e7420737461746500604482015260640161053b565b846118245760405162461bcd60e51b815260206004820152601760248201527f4469737075746520726561736f6e207265717569726564000000000000000000604482015260640161053b565b60098101805460ff191660041790556013810161184286888361365d565b506040518060c00160405280336001600160a01b0316815260200187878080601f0160208091040260200160405190810160405280939291908181526020018383808284376000920182905250938552505042602080850191909152604080850184905260608501849052805180830182528481526080909501949094528b83526004815292909120835181546001600160a01b0319166001600160a01b03909116178155918301516001830191506118fb90826137a9565b5060408201516002820155606082015160038201805460808501516001600160a01b031661010002610100600160a81b0319931515939093166001600160a81b03199091161791909117905560a0820151600482019061195b90826137a9565b50905050336001600160a01b0316877f1b84372106d77c6daea0dda35bbc0229d10a83f58ec899092884925193682341888860405161199b929190613718565b60405180910390a350505050610c256001600055565b6119b9613003565b8160065481106119db5760405162461bcd60e51b815260040161053b90613557565b6000838152600360208181526040928390208351610240810185528154815260018201546001600160a01b03908116938201939093526002820154831694810194909452918201548116606084015260048201548116608084015260058201541660a083015260068082015460c0840152600782015460e08401526008820154610100840152600982015461012084019160ff90911690811115611a8157611a8161323f565b6006811115611a9257611a9261323f565b8152602001600a82016040518060a0016040529081600082018054611ab690613582565b80601f0160208091040260200160405190810160405280929190818152602001828054611ae290613582565b8015611b2f5780601f10611b0457610100808354040283529160200191611b2f565b820191906000526020600020905b815481529060010190602001808311611b1257829003601f168201915b50505050508152602001600182018054611b4890613582565b80601f0160208091040260200160405190810160405280929190818152602001828054611b7490613582565b8015611bc15780601f10611b9657610100808354040283529160200191611bc1565b820191906000526020600020905b815481529060010190602001808311611ba457829003601f168201915b5050505050815260200160028201548152602001600382018054611be490613582565b80601f0160208091040260200160405190810160405280929190818152602001828054611c1090613582565b8015611c5d5780601f10611c3257610100808354040283529160200191611c5d565b820191906000526020600020905b815481529060010190602001808311611c4057829003601f168201915b50505091835250506004919091015460ff9081161515602092830152918352600f84015490830152601083015460408301526011830154606083015260128301548082161515608084015261010081048216151560a084015262010000900416151560c082015260138201805460e090920191611cd990613582565b80601f0160208091040260200160405190810160405280929190818152602001828054611d0590613582565b8015611d525780601f10611d2757610100808354040283529160200191611d52565b820191906000526020600020905b815481529060010190602001808311611d3557829003601f168201915b505050505081525050915050919050565b600080516020613a39833981519152611d7b81612b6d565b610ccc612ef7565b60009182526002602090815260408084206001600160a01b0393909316845291905290205460ff1690565b6000611db8612b77565b611dc0612ba1565b6000611dcf602084018461353c565b6001600160a01b031603611e1d5760405162461bcd60e51b8152602060048201526015602482015274496e76616c6964206275796572206164647265737360581b604482015260640161053b565b6000611e2f604084016020850161353c565b6001600160a01b031603611e7e5760405162461bcd60e51b8152602060048201526016602482015275496e76616c69642073656c6c6572206164647265737360501b604482015260640161053b565b611e8e604083016020840161353c565b6001600160a01b0316611ea4602084018461353c565b6001600160a01b031603611f055760405162461bcd60e51b815260206004820152602260248201527f427579657220616e642073656c6c6572206d75737420626520646966666572656044820152611b9d60f21b606482015260840161053b565b6000611f1760a084016080850161353c565b6001600160a01b031603611f655760405162461bcd60e51b8152602060048201526015602482015274496e76616c696420746f6b656e206164647265737360581b604482015260640161053b565b60056000611f7960a085016080860161353c565b6001600160a01b0316815260208101919091526040016000205460ff16611fda5760405162461bcd60e51b8152602060048201526015602482015274151bdad95b881b9bdd081dda1a5d195b1a5cdd1959605a1b604482015260640161053b565b60008260a001351161202e5760405162461bcd60e51b815260206004820152601f60248201527f4465706f73697420616d6f756e74206d75737420626520706f73697469766500604482015260640161053b565b42826101200135116120825760405162461bcd60e51b815260206004820152601860248201527f496e76616c6964206465706f73697420646561646c696e650000000000000000604482015260640161053b565b816101200135826101400135116120db5760405162461bcd60e51b815260206004820152601d60248201527f496e76616c696420766572696669636174696f6e20646561646c696e65000000604482015260640161053b565b60006120eb610100840184613863565b6120f59080613883565b90501161213b5760405162461bcd60e51b8152602060048201526014602482015273141c9bdc195c9d1e481251081c995c5d5a5c995960621b604482015260640161053b565b600680546000918261214c836138ca565b9091555060008181526003602090815260409091208281559192506121739085018561353c565b6001820180546001600160a01b0319166001600160a01b03929092169190911790556121a5604085016020860161353c565b6002820180546001600160a01b0319166001600160a01b03929092169190911790556121d7606085016040860161353c565b6003820180546001600160a01b0319166001600160a01b0392909216919091179055612209608085016060860161353c565b6004820180546001600160a01b0319166001600160a01b039290921691909117905561223b60a085016080860161353c565b6005820180546001600160a01b0319166001600160a01b039290921691909117905560a0840135600682015560c0840135600782015560e0840135600882015560098101805460ff19169055612295610100850185613863565b600a82016122a382826138f0565b505042600f820155610120840135601082015561014084013560118201556122d1604085016020860161353c565b6001600160a01b03166122e7602086018661353c565b6001600160a01b0316837f9405ad0a6208539879349284d71265479b1623846f70303da1f9890d6e8c10a78760a0013560405161232691815260200190565b60405180910390a450905061233b6001600055565b919050565b612348612b77565b612350612ba1565b8060065481106123725760405162461bcd60e51b815260040161053b90613557565b8160028060008381526003602052604090206009015460ff16600681111561239c5761239c61323f565b146123b95760405162461bcd60e51b815260040161053b906135b6565b600084815260036020526040812060018101549091906001600160a01b0316330361244357601282015460ff161561242c5760405162461bcd60e51b8152602060048201526016602482015275109d5e595c88185b1c9958591e48185c1c1c9bdd995960521b604482015260640161053b565b5060128101805460ff191660011790556000612595565b60028201546001600160a01b031633036124ca576012820154610100900460ff16156124b15760405162461bcd60e51b815260206004820152601760248201527f53656c6c657220616c726561647920617070726f766564000000000000000000604482015260640161053b565b5060128101805461ff0019166101001790556001612595565b60038201546001600160a01b0316330361254d57601282015462010000900460ff16156125325760405162461bcd60e51b81526020600482015260166024820152751059d95b9d08185b1c9958591e48185c1c1c9bdd995960521b604482015260640161053b565b5060128101805462ff00001916620100001790556002612595565b60405162461bcd60e51b815260206004820152601960248201527f4e6f7420617574686f72697a656420746f20617070726f766500000000000000604482015260640161053b565b336001600160a01b0316867f8c76bb4d0d0276699b16a2e9464b50cad045b0200b9bc632ae3a5d57077fa264836040516125cf9190613a1e565b60405180910390a35050505050610ccc6001600055565b600080516020613a398339815191526125fe81612b6d565b610c256001600160a01b0384163384612ec6565b60008281526002602052604090206001015461262d81612b6d565b610bc78383612da0565b61263f612b77565b612647612ba1565b8060065481106126695760405162461bcd60e51b815260040161053b90613557565b8160008060008381526003602052604090206009015460ff1660068111156126935761269361323f565b146126b05760405162461bcd60e51b815260040161053b906135b6565b60008481526003602081815260408084208151610240810183528154815260018201546001600160a01b039081169482019490945260028201548416928101929092529283015482166060820152600483015482166080820152600583015490911660a082015260068083015460c0830152600783015460e0830152600883015461010083015260098301548894939161012084019160ff16908111156127595761275961323f565b600681111561276a5761276a61323f565b8152602001600a82016040518060a001604052908160008201805461278e90613582565b80601f01602080910402602001604051908101604052809291908181526020018280546127ba90613582565b80156128075780601f106127dc57610100808354040283529160200191612807565b820191906000526020600020905b8154815290600101906020018083116127ea57829003601f168201915b5050505050815260200160018201805461282090613582565b80601f016020809104026020016040519081016040528092919081815260200182805461284c90613582565b80156128995780601f1061286e57610100808354040283529160200191612899565b820191906000526020600020905b81548152906001019060200180831161287c57829003601f168201915b50505050508152602001600282015481526020016003820180546128bc90613582565b80601f01602080910402602001604051908101604052809291908181526020018280546128e890613582565b80156129355780601f1061290a57610100808354040283529160200191612935565b820191906000526020600020905b81548152906001019060200180831161291857829003601f168201915b50505091835250506004919091015460ff9081161515602092830152918352600f84015490830152601083015460408301526011830154606083015260128301548082161515608084015261010081048216151560a084015262010000900416151560c082015260138201805460e0909201916129b190613582565b80601f01602080910402602001604051908101604052809291908181526020018280546129dd90613582565b8015612a2a5780601f106129ff57610100808354040283529160200191612a2a565b820191906000526020600020905b815481529060010190602001808311612a0d57829003601f168201915b505050505081525050905080602001516001600160a01b0316336001600160a01b03161480612a6e575080604001516001600160a01b0316336001600160a01b0316145b80612a8e575080606001516001600160a01b0316336001600160a01b0316145b80612aae575080608001516001600160a01b0316336001600160a01b0316145b80612acc5750612acc600080516020613a3983398151915233611d83565b612b185760405162461bcd60e51b815260206004820152601e60248201527f4e6f7420617574686f72697a656420666f72207468697320657363726f770000604482015260640161053b565b600086815260036020526040808220600901805460ff1916600617905551339188917f6f44c80719cb2f74bdbd68b7af10147acb9b52e2675ad02f9c87f098599599389190a35050505050610ccc6001600055565b610ccc8133612f32565b600260005403612b9a57604051633ee5aeb560e01b815260040160405180910390fd5b6002600055565b60015460ff1615612bc55760405163d93c066560e01b815260040160405180910390fd5b565b60008181526003602052604090206001600982015460ff166006811115612bf057612bf061323f565b1480612c1457506004600982015460ff166006811115612c1257612c1261323f565b145b80612c3757506002600982015460ff166006811115612c3557612c3561323f565b145b612c835760405162461bcd60e51b815260206004820152601e60248201527f43616e6e6f7420726566756e6420696e2063757272656e742073746174650000604482015260640161053b565b60098101805460ff191660059081179091556001820154600683015491830154612cbd926001600160a01b03918216929190911690612ec6565b600181015460068201546040519081526001600160a01b039091169083907f80b577b4fc190ab86d963549e29f496afd079c5d81a2480d61217d4b5060a28c9060200160405180910390a35050565b6000612d188383611d83565b612d985760008381526002602090815260408083206001600160a01b03861684529091529020805460ff19166001179055612d503390565b6001600160a01b0316826001600160a01b0316847f2f8788117e7eff1d82e926ec794901d17c78024a50270940304540a733656f0d60405160405180910390a4506001610511565b506000610511565b6000612dac8383611d83565b15612d985760008381526002602090815260408083206001600160a01b0386168085529252808320805460ff1916905551339286917ff6391f5c32d9c69d2a47ea670b442974b53935d1edc7fd64eb21e047a839171b9190a4506001610511565b6040516001600160a01b038481166024830152838116604483015260648201839052610bc79186918216906323b872dd906084015b604051602081830303815290604052915060e01b6020820180516001600160e01b038381831617835250505050612f6f565b612e7c612fe0565b6001805460ff191690557f5db9ee0a495bf2e6ff9c91a7834c1ba4fdd244a5e8aa4e537bd38aeae4b073aa335b6040516001600160a01b03909116815260200160405180910390a1565b6040516001600160a01b03838116602483015260448201839052610c2591859182169063a9059cbb90606401612e42565b612eff612ba1565b6001805460ff1916811790557f62e78cea01bee320cd4e420270b5ea74000d11b0c9f74754ebdbfc544b05a25833612ea9565b612f3c8282611d83565b612f6b5760405163e2517d3f60e01b81526001600160a01b03821660048201526024810183905260440161053b565b5050565b600080602060008451602086016000885af180612f92576040513d6000823e3d81fd5b50506000513d91508115612faa578060011415612fb7565b6001600160a01b0384163b155b15610bc757604051635274afe760e01b81526001600160a01b038516600482015260240161053b565b60015460ff16612bc557604051638dfc202b60e01b815260040160405180910390fd5b6040805161024081018252600080825260208201819052918101829052606081018290526080810182905260a0810182905260c0810182905260e08101829052610100810182905290610120820190815260200161308b6040518060a00160405280606081526020016060815260200160008152602001606081526020016000151581525090565b8152602001600081526020016000815260200160008152602001600015158152602001600015158152602001600015158152602001606081525090565b6000602082840312156130da57600080fd5b81356001600160e01b0319811681146130f257600080fd5b9392505050565b60006020828403121561310b57600080fd5b5035919050565b80356001600160a01b038116811461233b57600080fd5b8015158114610ccc57600080fd5b6000806040838503121561314a57600080fd5b61315383613112565b9150602083013561316381613129565b809150509250929050565b60008083601f84011261318057600080fd5b50813567ffffffffffffffff81111561319857600080fd5b6020830191508360208285010111156131b057600080fd5b9250929050565b600080600080606085870312156131cd57600080fd5b8435935060208501356131df81613129565b9250604085013567ffffffffffffffff8111156131fb57600080fd5b6132078782880161316e565b95989497509550505050565b6000806040838503121561322657600080fd5b8235915061323660208401613112565b90509250929050565b634e487b7160e01b600052602160045260246000fd5b600781106132655761326561323f565b9052565b602081016105118284613255565b60008060006040848603121561328c57600080fd5b83359250602084013567ffffffffffffffff8111156132aa57600080fd5b6132b68682870161316e565b9497909650939450505050565b6000815180845260005b818110156132e9576020818501810151868301820152016132cd565b506000602082860101526020601f19601f83011685010191505092915050565b6000815160a0845261331e60a08501826132c3565b90506020830151848203602086015261333782826132c3565b915050604083015160408501526060830151848203606086015261335b82826132c3565b9150506080830151151560808501528091505092915050565b60208152815160208201526000602083015161339b60408401826001600160a01b03169052565b5060408301516001600160a01b03811660608401525060608301516001600160a01b03811660808401525060808301516001600160a01b03811660a08401525060a08301516001600160a01b03811660c08401525060c083015160e083810191909152830151610100808401919091528301516101208084019190915283015161014061342a81850183613255565b80850151915050610240610160818186015261344a610260860184613309565b90860151610180868101919091528601516101a0808701919091528601516101c0808701919091528601519092506101e06134888187018315159052565b860151905061020061349d8682018315159052565b86015190506102206134b28682018315159052565b860151858403601f19018387015290506134cc83826132c3565b9695505050505050565b6000602082840312156134e857600080fd5b813567ffffffffffffffff8111156134ff57600080fd5b820161016081850312156130f257600080fd5b6000806040838503121561352557600080fd5b61352e83613112565b946020939093013593505050565b60006020828403121561354e57600080fd5b6130f282613112565b602080825260119082015270125b9d985b1a5908195cd8dc9bddc81251607a1b604082015260600190565b600181811c9082168061359657607f821691505b60208210810361094a57634e487b7160e01b600052602260045260246000fd5b602080825260149082015273496e76616c696420657363726f7720737461746560601b604082015260600190565b634e487b7160e01b600052604160045260246000fd5b601f821115610c2557600081815260208120601f850160051c810160208610156136215750805b601f850160051c820191505b818110156136405782815560010161362d565b505050505050565b600019600383901b1c191660019190911b1790565b67ffffffffffffffff831115613675576136756135e4565b613689836136838354613582565b836135fa565b6000601f8411600181146136b757600085156136a55750838201355b6136af8682613648565b845550613711565b600083815260209020601f19861690835b828110156136e857868501358255602094850194600190920191016136c8565b50868210156137055760001960f88860031b161c19848701351681555b505060018560011b0183555b5050505050565b60208152816020820152818360408301376000818301604090810191909152601f909201601f19160101919050565b634e487b7160e01b600052601160045260246000fd5b808202811582820484141761051157610511613747565b60008261379157634e487b7160e01b600052601260045260246000fd5b500490565b8181038181111561051157610511613747565b815167ffffffffffffffff8111156137c3576137c36135e4565b6137d7816137d18454613582565b846135fa565b602080601f83116001811461380657600084156137f45750858301515b6137fe8582613648565b865550613640565b600085815260208120601f198616915b8281101561383557888601518255948401946001909101908401613816565b50858210156138535787850151600019600388901b60f8161c191681555b5050505050600190811b01905550565b60008235609e1983360301811261387957600080fd5b9190910192915050565b6000808335601e1984360301811261389a57600080fd5b83018035915067ffffffffffffffff8211156138b557600080fd5b6020019150368190038213156131b057600080fd5b6000600182016138dc576138dc613747565b5060010190565b6000813561051181613129565b6138fa8283613883565b67ffffffffffffffff811115613912576139126135e4565b613926816139208554613582565b856135fa565b6000601f82116001811461395457600083156139425750838201355b61394c8482613648565b8655506139ae565b600085815260209020601f19841690835b828110156139855786850135825560209485019460019092019101613965565b50848210156139a25760001960f88660031b161c19848701351681555b505060018360011b0185555b505050506139bf6020830183613883565b6139cd81836001860161365d565b5050604082013560028201556139e66060830183613883565b6139f481836003860161365d565b5050612f6b613a05608084016138e3565b6004830160ff1981541660ff8315151681178255505050565b6020810160058310613a3257613a3261323f565b9190529056fea49807205ce4d355092ef5a8a18f56e8913cf4a201fbe287825b095693c21775a2646970667358221220d5e57611dee5b25b31fef315ab14fb7cf38dc4ed1f85418263ac7a643d0b058364736f6c63430008140033a26469706673582212207c6ec11f2b3f23705268660e59fe1d463db431b759413d0f5903e251810dea3564736f6c63430008140033",
  "linkReferences": {},
  "deployedLinkReferences": {}
}