{
  "_format": "hh-sol-artifact-1",
  "contractName": "EscrowFactoryUpgradeable",
  "sourceName": "contracts/upgradeable/EscrowFactoryUpgradeable.sol",
  "abi": [
    {
      "inputs": [],
      "stateMutability": "nonpayable",
      "type": "constructor"
    },
    {
      "anonymous": false,
      "inputs": [
        {
          "indexed": false,
          "internalType": "address",
          "name": "previousAdmin",
          "type": "address"
        },
        {
          "indexed": false,
          "internalType": "address",
          "name": "newAdmin",
          "type": "address"
        }
      ],
      "name": "AdminChanged",
      "type": "event"
    },
    {
      "anonymous": false,
      "inputs": [
        {
          "indexed": true,
          "internalType": "address",
          "name": "beacon",
          "type": "address"
        }
      ],
      "name": "BeaconUpgraded",
      "type": "event"
    },
    {
      "anonymous": false,
      "inputs": [
        {
          "indexed": true,
          "internalType": "address",
          "name": "newManager",
          "type": "address"
        }
      ],
      "name": "ComplianceManagerUpdated",
      "type": "event"
    },
    {
      "anonymous": false,
      "inputs": [
        {
          "indexed": false,
          "internalType": "bool",
          "name": "enabled",
          "type": "bool"
        },
        {
          "indexed": false,
          "internalType": "uint256",
          "name": "threshold",
          "type": "uint256"
        }
      ],
      "name": "ComplianceSettingsUpdated",
      "type": "event"
    },
    {
      "anonymous": false,
      "inputs": [
        {
          "indexed": true,
          "internalType": "address",
          "name": "agent",
          "type": "address"
        }
      ],
      "name": "DefaultAgentSet",
      "type": "event"
    },
    {
      "anonymous": false,
      "inputs": [
        {
          "indexed": true,
          "internalType": "address",
          "name": "arbiter",
          "type": "address"
        }
      ],
      "name": "DefaultArbiterSet",
      "type": "event"
    },
    {
      "anonymous": false,
      "inputs": [
        {
          "indexed": true,
          "internalType": "uint256",
          "name": "escrowId",
          "type": "uint256"
        },
        {
          "indexed": true,
          "internalType": "address",
          "name": "buyer",
          "type": "address"
        },
        {
          "indexed": true,
          "internalType": "address",
          "name": "seller",
          "type": "address"
        },
        {
          "indexed": false,
          "internalType": "address",
          "name": "escrowContract",
          "type": "address"
        }
      ],
      "name": "EscrowCreated",
      "type": "event"
    },
    {
      "anonymous": false,
      "inputs": [
        {
          "indexed": false,
          "internalType": "uint8",
          "name": "version",
          "type": "uint8"
        }
      ],
      "name": "Initialized",
      "type": "event"
    },
    {
      "anonymous": false,
      "inputs": [
        {
          "indexed": true,
          "internalType": "address",
          "name": "previousOwner",
          "type": "address"
        },
        {
          "indexed": true,
          "internalType": "address",
          "name": "newOwner",
          "type": "address"
        }
      ],
      "name": "OwnershipTransferred",
      "type": "event"
    },
    {
      "anonymous": false,
      "inputs": [
        {
          "indexed": false,
          "internalType": "address",
          "name": "account",
          "type": "address"
        }
      ],
      "name": "Paused",
      "type": "event"
    },
    {
      "anonymous": false,
      "inputs": [
        {
          "indexed": false,
          "internalType": "uint256",
          "name": "newFee",
          "type": "uint256"
        }
      ],
      "name": "PlatformFeeUpdated",
      "type": "event"
    },
    {
      "anonymous": false,
      "inputs": [
        {
          "indexed": true,
          "internalType": "address",
          "name": "token",
          "type": "address"
        },
        {
          "indexed": false,
          "internalType": "bool",
          "name": "whitelisted",
          "type": "bool"
        }
      ],
      "name": "TokenWhitelisted",
      "type": "event"
    },
    {
      "anonymous": false,
      "inputs": [
        {
          "indexed": false,
          "internalType": "address",
          "name": "account",
          "type": "address"
        }
      ],
      "name": "Unpaused",
      "type": "event"
    },
    {
      "anonymous": false,
      "inputs": [
        {
          "indexed": true,
          "internalType": "address",
          "name": "implementation",
          "type": "address"
        }
      ],
      "name": "Upgraded",
      "type": "event"
    },
    {
      "inputs": [],
      "name": "complianceEnabled",
      "outputs": [
        {
          "internalType": "bool",
          "name": "",
          "type": "bool"
        }
      ],
      "stateMutability": "view",
      "type": "function"
    },
    {
      "inputs": [],
      "name": "complianceManager",
      "outputs": [
        {
          "internalType": "contract IComplianceManager",
          "name": "",
          "type": "address"
        }
      ],
      "stateMutability": "view",
      "type": "function"
    },
    {
      "inputs": [],
      "name": "complianceThreshold",
      "outputs": [
        {
          "internalType": "uint256",
          "name": "",
          "type": "uint256"
        }
      ],
      "stateMutability": "view",
      "type": "function"
    },
    {
      "inputs": [
        {
          "components": [
            {
              "internalType": "address",
              "name": "buyer",
              "type": "address"
            },
            {
              "internalType": "address",
              "name": "seller",
              "type": "address"
            },
            {
              "internalType": "address",
              "name": "agent",
              "type": "address"
            },
            {
              "internalType": "address",
              "name": "arbiter",
              "type": "address"
            },
            {
              "internalType": "address",
              "name": "tokenAddress",
              "type": "address"
            },
            {
              "internalType": "uint256",
              "name": "depositAmount",
              "type": "uint256"
            },
            {
              "internalType": "uint256",
              "name": "agentFee",
              "type": "uint256"
            },
            {
              "internalType": "uint256",
              "name": "platformFee",
              "type": "uint256"
            },
            {
              "components": [
                {
                  "internalType": "string",
                  "name": "propertyId",
                  "type": "string"
                },
                {
                  "internalType": "string",
                  "name": "description",
                  "type": "string"
                },
                {
                  "internalType": "uint256",
                  "name": "salePrice",
                  "type": "uint256"
                },
                {
                  "internalType": "string",
                  "name": "documentHash",
                  "type": "string"
                },
                {
                  "internalType": "bool",
                  "name": "verified",
                  "type": "bool"
                }
              ],
              "internalType": "struct EscrowStructs.Property",
              "name": "property",
              "type": "tuple"
            },
            {
              "internalType": "uint256",
              "name": "depositDeadline",
              "type": "uint256"
            },
            {
              "internalType": "uint256",
              "name": "verificationDeadline",
              "type": "uint256"
            }
          ],
          "internalType": "struct EscrowStructs.CreateEscrowParams",
          "name": "params",
          "type": "tuple"
        }
      ],
      "name": "createEscrow",
      "outputs": [
        {
          "internalType": "address",
          "name": "escrowContract",
          "type": "address"
        },
        {
          "internalType": "uint256",
          "name": "escrowId",
          "type": "uint256"
        }
      ],
      "stateMutability": "nonpayable",
      "type": "function"
    },
    {
      "inputs": [],
      "name": "defaultAgent",
      "outputs": [
        {
          "internalType": "address",
          "name": "",
          "type": "address"
        }
      ],
      "stateMutability": "view",
      "type": "function"
    },
    {
      "inputs": [],
      "name": "defaultArbiter",
      "outputs": [
        {
          "internalType": "address",
          "name": "",
          "type": "address"
        }
      ],
      "stateMutability": "view",
      "type": "function"
    },
    {
      "inputs": [
        {
          "internalType": "uint256",
          "name": "",
          "type": "uint256"
        }
      ],
      "name": "escrowContracts",
      "outputs": [
        {
          "internalType": "address",
          "name": "",
          "type": "address"
        }
      ],
      "stateMutability": "view",
      "type": "function"
    },
    {
      "inputs": [],
      "name": "escrowCounter",
      "outputs": [
        {
          "internalType": "uint256",
          "name": "",
          "type": "uint256"
        }
      ],
      "stateMutability": "view",
      "type": "function"
    },
    {
      "inputs": [],
      "name": "getDefaultAgent",
      "outputs": [
        {
          "internalType": "address",
          "name": "",
          "type": "address"
        }
      ],
      "stateMutability": "view",
      "type": "function"
    },
    {
      "inputs": [],
      "name": "getDefaultArbiter",
      "outputs": [
        {
          "internalType": "address",
          "name": "",
          "type": "address"
        }
      ],
      "stateMutability": "view",
      "type": "function"
    },
    {
      "inputs": [
        {
          "internalType": "uint256",
          "name": "escrowId",
          "type": "uint256"
        }
      ],
      "name": "getEscrowContract",
      "outputs": [
        {
          "internalType": "address",
          "name": "",
          "type": "address"
        }
      ],
      "stateMutability": "view",
      "type": "function"
    },
    {
      "inputs": [],
      "name": "getVersion",
      "outputs": [
        {
          "internalType": "string",
          "name": "",
          "type": "string"
        }
      ],
      "stateMutability": "pure",
      "type": "function"
    },
    {
      "inputs": [
        {
          "internalType": "address",
          "name": "_platformWallet",
          "type": "address"
        },
        {
          "internalType": "uint256",
          "name": "_platformFee",
          "type": "uint256"
        },
        {
          "internalType": "address",
          "name": "_defaultAgent",
          "type": "address"
        },
        {
          "internalType": "address",
          "name": "_defaultArbiter",
          "type": "address"
        },
        {
          "internalType": "address",
          "name": "_complianceManager",
          "type": "address"
        }
      ],
      "name": "initialize",
      "outputs": [],
      "stateMutability": "nonpayable",
      "type": "function"
    },
    {
      "inputs": [
        {
          "internalType": "address",
          "name": "token",
          "type": "address"
        }
      ],
      "name": "isTokenWhitelisted",
      "outputs": [
        {
          "internalType": "bool",
          "name": "",
          "type": "bool"
        }
      ],
      "stateMutability": "view",
      "type": "function"
    },
    {
      "inputs": [],
      "name": "owner",
      "outputs": [
        {
          "internalType": "address",
          "name": "",
          "type": "address"
        }
      ],
      "stateMutability": "view",
      "type": "function"
    },
    {
      "inputs": [],
      "name": "pause",
      "outputs": [],
      "stateMutability": "nonpayable",
      "type": "function"
    },
    {
      "inputs": [],
      "name": "paused",
      "outputs": [
        {
          "internalType": "bool",
          "name": "",
          "type": "bool"
        }
      ],
      "stateMutability": "view",
      "type": "function"
    },
    {
      "inputs": [],
      "name": "platformFee",
      "outputs": [
        {
          "internalType": "uint256",
          "name": "",
          "type": "uint256"
        }
      ],
      "stateMutability": "view",
      "type": "function"
    },
    {
      "inputs": [],
      "name": "platformWallet",
      "outputs": [
        {
          "internalType": "address",
          "name": "",
          "type": "address"
        }
      ],
      "stateMutability": "view",
      "type": "function"
    },
    {
      "inputs": [],
      "name": "proxiableUUID",
      "outputs": [
        {
          "internalType": "bytes32",
          "name": "",
          "type": "bytes32"
        }
      ],
      "stateMutability": "view",
      "type": "function"
    },
    {
      "inputs": [],
      "name": "renounceOwnership",
      "outputs": [],
      "stateMutability": "nonpayable",
      "type": "function"
    },
    {
      "inputs": [
        {
          "internalType": "address",
          "name": "_complianceManager",
          "type": "address"
        }
      ],
      "name": "setComplianceManager",
      "outputs": [],
      "stateMutability": "nonpayable",
      "type": "function"
    },
    {
      "inputs": [
        {
          "internalType": "address",
          "name": "agent",
          "type": "address"
        }
      ],
      "name": "setDefaultAgent",
      "outputs": [],
      "stateMutability": "nonpayable",
      "type": "function"
    },
    {
      "inputs": [
        {
          "internalType": "address",
          "name": "arbiter",
          "type": "address"
        }
      ],
      "name": "setDefaultArbiter",
      "outputs": [],
      "stateMutability": "nonpayable",
      "type": "function"
    },
    {
      "inputs": [
        {
          "internalType": "uint256",
          "name": "fee",
          "type": "uint256"
        }
      ],
      "name": "setPlatformFee",
      "outputs": [],
      "stateMutability": "nonpayable",
      "type": "function"
    },
    {
      "inputs": [
        {
          "internalType": "address",
          "name": "newOwner",
          "type": "address"
        }
      ],
      "name": "transferOwnership",
      "outputs": [],
      "stateMutability": "nonpayable",
      "type": "function"
    },
    {
      "inputs": [],
      "name": "unpause",
      "outputs": [],
      "stateMutability": "nonpayable",
      "type": "function"
    },
    {
      "inputs": [
        {
          "internalType": "bool",
          "name": "_enabled",
          "type": "bool"
        },
        {
          "internalType": "uint256",
          "name": "_threshold",
          "type": "uint256"
        }
      ],
      "name": "updateComplianceSettings",
      "outputs": [],
      "stateMutability": "nonpayable",
      "type": "function"
    },
    {
      "inputs": [
        {
          "internalType": "address",
          "name": "newImplementation",
          "type": "address"
        }
      ],
      "name": "upgradeTo",
      "outputs": [],
      "stateMutability": "nonpayable",
      "type": "function"
    },
    {
      "inputs": [
        {
          "internalType": "address",
          "name": "newImplementation",
          "type": "address"
        },
        {
          "internalType": "bytes",
          "name": "data",
          "type": "bytes"
        }
      ],
      "name": "upgradeToAndCall",
      "outputs": [],
      "stateMutability": "payable",
      "type": "function"
    },
    {
      "inputs": [
        {
          "internalType": "address",
          "name": "token",
          "type": "address"
        },
        {
          "internalType": "bool",
          "name": "whitelisted",
          "type": "bool"
        }
      ],
      "name": "whitelistToken",
      "outputs": [],
      "stateMutability": "nonpayable",
      "type": "function"
    },
    {
      "inputs": [
        {
          "internalType": "address",
          "name": "",
          "type": "address"
        }
      ],
      "name": "whitelistedTokens",
      "outputs": [
        {
          "internalType": "bool",
          "name": "",
          "type": "bool"
        }
      ],
      "stateMutability": "view",
      "type": "function"
    }
  ],
  "bytecode": "0x60a06040523073ffffffffffffffffffffffffffffffffffffffff1660809073ffffffffffffffffffffffffffffffffffffffff168152503480156200004457600080fd5b50620000556200005b60201b60201c565b62000205565b600060019054906101000a900460ff1615620000ae576040517f08c379a0000000000000000000000000000000000000000000000000000000008152600401620000a590620001a8565b60405180910390fd5b60ff801660008054906101000a900460ff1660ff16146200011f5760ff6000806101000a81548160ff021916908360ff1602179055507f7f26b83ff96e1f2b6a682f133852f6798a09c465da95921460cefb384740249860ff604051620001169190620001e8565b60405180910390a15b565b600082825260208201905092915050565b7f496e697469616c697a61626c653a20636f6e747261637420697320696e69746960008201527f616c697a696e6700000000000000000000000000000000000000000000000000602082015250565b60006200019060278362000121565b91506200019d8262000132565b604082019050919050565b60006020820190508181036000830152620001c38162000181565b9050919050565b600060ff82169050919050565b620001e281620001ca565b82525050565b6000602082019050620001ff6000830184620001d7565b92915050565b60805161c2a66200023d60003960008181610b2701528181610bb801528181610d5b01528181610dec0152610ea5015261c2a66000f3fe608060405260043610620002125760003560e01c80638da5cb5b116200011b578063c732926e11620000a3578063daf9c210116200006d578063daf9c2101462000746578063f2fde38b146200078a578063fa2af9da14620007b8578063ff7bce2314620007e85762000212565b8063c732926e1462000674578063c7ceafea14620006a2578063d0e2dfba14620006d2578063d83c827014620007165762000212565b8063b5af090f11620000e5578063b5af090f14620005a2578063b67a263714620005e6578063bbdf72431462000616578063c6f9aa0014620006445762000212565b80638da5cb5b14620004d15780639d5e05511462000501578063a01ef25f1462000546578063a576b5da14620005745762000212565b80634bad78db116200019f578063603c50d51162000169578063603c50d5146200043d578063715018a6146200046d5780637953eec914620004875780638456cb5914620004b75762000212565b80634bad78db14620003795780634f1ef28614620003bd57806352d1902d14620003dd5780635c975abb146200040d5762000212565b8063298ff68111620001e1578063298ff68114620002d35780632eb73a8814620003035780633659cfe614620003315780633f4ba83a146200035f5762000212565b80630d8e6e2c14620002175780630ffb1d8b146200024757806312e8e2c3146200027557806326232a2e14620002a3575b600080fd5b3480156200022457600080fd5b506200022f62000818565b6040516200023e919062002ce5565b60405180910390f35b3480156200025457600080fd5b506200027360048036038101906200026d919062002dbf565b62000855565b005b3480156200028257600080fd5b50620002a160048036038101906200029b919062002e41565b6200097d565b005b348015620002b057600080fd5b50620002bb62000a13565b604051620002ca919062002e84565b60405180910390f35b348015620002e057600080fd5b50620002eb62000a1a565b604051620002fa919062002e84565b60405180910390f35b3480156200031057600080fd5b506200032f600480360381019062000329919062002ea1565b62000a21565b005b3480156200033e57600080fd5b506200035d600480360381019062000357919062002ea1565b62000b25565b005b3480156200036c57600080fd5b506200037762000cbd565b005b3480156200038657600080fd5b50620003a560048036038101906200039f919062002e41565b62000cd3565b604051620003b4919062002ee4565b60405180910390f35b620003db6004803603810190620003d5919062003052565b62000d59565b005b348015620003ea57600080fd5b50620003f562000ea1565b604051620004049190620030d3565b60405180910390f35b3480156200041a57600080fd5b506200042562000f5d565b60405162000434919062003101565b60405180910390f35b3480156200044a57600080fd5b506200045562000f74565b60405162000464919062002ee4565b60405180910390f35b3480156200047a57600080fd5b506200048562000f9f565b005b3480156200049457600080fd5b506200049f62000fb7565b604051620004ae919062002ee4565b60405180910390f35b348015620004c457600080fd5b50620004cf62000fe2565b005b348015620004de57600080fd5b50620004e962000ff8565b604051620004f8919062002ee4565b60405180910390f35b3480156200050e57600080fd5b506200052d600480360381019062000527919062003146565b62001022565b6040516200053d92919062003197565b60405180910390f35b3480156200055357600080fd5b506200057260048036038101906200056c9190620031c4565b62001922565b005b3480156200058157600080fd5b50620005a060048036038101906200059a919062002ea1565b62001da2565b005b348015620005af57600080fd5b50620005ce6004803603810190620005c8919062002ea1565b62001e34565b604051620005dd919062003101565b60405180910390f35b348015620005f357600080fd5b50620005fe62001e8b565b6040516200060d919062002ee4565b60405180910390f35b3480156200062357600080fd5b506200064260048036038101906200063c919062002ea1565b62001eb2565b005b3480156200065157600080fd5b506200065c62001fb6565b6040516200066b919062002ee4565b60405180910390f35b3480156200068157600080fd5b50620006a060048036038101906200069a91906200324c565b62001fdd565b005b348015620006af57600080fd5b50620006ba62002049565b604051620006c9919062002e84565b60405180910390f35b348015620006df57600080fd5b50620006fe6004803603810190620006f8919062002e41565b62002050565b6040516200070d919062002ee4565b60405180910390f35b3480156200072357600080fd5b506200072e62002084565b6040516200073d919062003101565b60405180910390f35b3480156200075357600080fd5b506200077260048036038101906200076c919062002ea1565b62002098565b60405162000781919062003101565b60405180910390f35b3480156200079757600080fd5b50620007b66004803603810190620007b0919062002ea1565b620020b9565b005b348015620007c557600080fd5b50620007d062002143565b604051620007df919062002ee4565b60405180910390f35b348015620007f557600080fd5b50620008006200216a565b6040516200080f9190620032fe565b60405180910390f35b60606040518060400160405280600581526020017f312e302e30000000000000000000000000000000000000000000000000000000815250905090565b6200085f62002191565b600073ffffffffffffffffffffffffffffffffffffffff168273ffffffffffffffffffffffffffffffffffffffff1603620008d1576040517f08c379a0000000000000000000000000000000000000000000000000000000008152600401620008c8906200336b565b60405180910390fd5b8061013460008473ffffffffffffffffffffffffffffffffffffffff1673ffffffffffffffffffffffffffffffffffffffff16815260200190815260200160002060006101000a81548160ff0219169083151502179055508173ffffffffffffffffffffffffffffffffffffffff167fef81a9943b96c8df4ef243401c9bf5159146166211356898b52d382086168d928260405162000971919062003101565b60405180910390a25050565b6200098762002191565b6103e8811115620009cf576040517f08c379a0000000000000000000000000000000000000000000000000000000008152600401620009c690620033dd565b60405180910390fd5b8061012e819055507f45610d581145924dd7090a5017e5f2b1d6f42213bb2e95707ff86846bbfcb1ca8160405162000a08919062002e84565b60405180910390a150565b61012e5481565b6101365481565b62000a2b62002191565b600073ffffffffffffffffffffffffffffffffffffffff168173ffffffffffffffffffffffffffffffffffffffff160362000a9d576040517f08c379a000000000000000000000000000000000000000000000000000000000815260040162000a94906200344f565b60405180910390fd5b8061012f60006101000a81548173ffffffffffffffffffffffffffffffffffffffff021916908373ffffffffffffffffffffffffffffffffffffffff1602179055508073ffffffffffffffffffffffffffffffffffffffff167f9f0c49ac6da1b1d3f7b753b41ba9cdc631d714821b72e79e413399440f87181360405160405180910390a250565b7f000000000000000000000000000000000000000000000000000000000000000073ffffffffffffffffffffffffffffffffffffffff163073ffffffffffffffffffffffffffffffffffffffff160362000bb6576040517f08c379a000000000000000000000000000000000000000000000000000000000815260040162000bad90620034e7565b60405180910390fd5b7f000000000000000000000000000000000000000000000000000000000000000073ffffffffffffffffffffffffffffffffffffffff1662000bf762002216565b73ffffffffffffffffffffffffffffffffffffffff161462000c50576040517f08c379a000000000000000000000000000000000000000000000000000000000815260040162000c47906200357f565b60405180910390fd5b62000c5b816200226f565b62000cba81600067ffffffffffffffff81111562000c7e5762000c7d62002f0b565b5b6040519080825280601f01601f19166020018201604052801562000cb15781602001600182028036833780820191505090505b5060006200227c565b50565b62000cc762002191565b62000cd1620023fb565b565b600061013254821062000d1d576040517f08c379a000000000000000000000000000000000000000000000000000000000815260040162000d1490620035f1565b60405180910390fd5b610133600083815260200190815260200160002060009054906101000a900473ffffffffffffffffffffffffffffffffffffffff169050919050565b7f000000000000000000000000000000000000000000000000000000000000000073ffffffffffffffffffffffffffffffffffffffff163073ffffffffffffffffffffffffffffffffffffffff160362000dea576040517f08c379a000000000000000000000000000000000000000000000000000000000815260040162000de190620034e7565b60405180910390fd5b7f000000000000000000000000000000000000000000000000000000000000000073ffffffffffffffffffffffffffffffffffffffff1662000e2b62002216565b73ffffffffffffffffffffffffffffffffffffffff161462000e84576040517f08c379a000000000000000000000000000000000000000000000000000000000815260040162000e7b906200357f565b60405180910390fd5b62000e8f826200226f565b62000e9d828260016200227c565b5050565b60007f000000000000000000000000000000000000000000000000000000000000000073ffffffffffffffffffffffffffffffffffffffff163073ffffffffffffffffffffffffffffffffffffffff161462000f34576040517f08c379a000000000000000000000000000000000000000000000000000000000815260040162000f2b9062003689565b60405180910390fd5b7f360894a13ba1a3210667c828492db98dca3e2076cc3735a920a3ca505d382bbc60001b905090565b6000606560009054906101000a900460ff16905090565b600061012f60009054906101000a900473ffffffffffffffffffffffffffffffffffffffff16905090565b62000fa962002191565b62000fb5600062002464565b565b600061013060009054906101000a900473ffffffffffffffffffffffffffffffffffffffff16905090565b62000fec62002191565b62000ff66200252a565b565b6000603360009054906101000a900473ffffffffffffffffffffffffffffffffffffffff16905090565b6000806200102f62002593565b62001039620025e5565b600073ffffffffffffffffffffffffffffffffffffffff1683600001602081019062001066919062002ea1565b73ffffffffffffffffffffffffffffffffffffffff1603620010bf576040517f08c379a0000000000000000000000000000000000000000000000000000000008152600401620010b690620036fb565b60405180910390fd5b600073ffffffffffffffffffffffffffffffffffffffff16836020016020810190620010ec919062002ea1565b73ffffffffffffffffffffffffffffffffffffffff160362001145576040517f08c379a00000000000000000000000000000000000000000000000000000000081526004016200113c906200376d565b60405180910390fd5b600073ffffffffffffffffffffffffffffffffffffffff1683608001602081019062001172919062002ea1565b73ffffffffffffffffffffffffffffffffffffffff1603620011cb576040517f08c379a0000000000000000000000000000000000000000000000000000000008152600401620011c2906200336b565b60405180910390fd5b60008360a001351162001215576040517f08c379a00000000000000000000000000000000000000000000000000000000081526004016200120c90620037df565b60405180910390fd5b61013460008460800160208101906200122f919062002ea1565b73ffffffffffffffffffffffffffffffffffffffff1673ffffffffffffffffffffffffffffffffffffffff16815260200190815260200160002060009054906101000a900460ff16620012b9576040517f08c379a0000000000000000000000000000000000000000000000000000000008152600401620012b09062003851565b60405180910390fd5b428361012001351162001303576040517f08c379a0000000000000000000000000000000000000000000000000000000008152600401620012fa90620038c3565b60405180910390fd5b8261012001358361014001351162001352576040517f08c379a0000000000000000000000000000000000000000000000000000000008152600401620013499062003935565b60405180910390fd5b61013560009054906101000a900460ff168015620013775750610136548360a0013510155b156200172a57600073ffffffffffffffffffffffffffffffffffffffff1661013160009054906101000a900473ffffffffffffffffffffffffffffffffffffffff1673ffffffffffffffffffffffffffffffffffffffff160362001412576040517f08c379a00000000000000000000000000000000000000000000000000000000081526004016200140990620039a7565b60405180910390fd5b61013160009054906101000a900473ffffffffffffffffffffffffffffffffffffffff1673ffffffffffffffffffffffffffffffffffffffff1663a200e5d084600001602081019062001466919062002ea1565b6040518263ffffffff1660e01b815260040162001484919062002ee4565b602060405180830381865afa158015620014a2573d6000803e3d6000fd5b505050506040513d601f19601f82011682018060405250810190620014c89190620039e0565b6200150a576040517f08c379a0000000000000000000000000000000000000000000000000000000008152600401620015019062003a62565b60405180910390fd5b61013160009054906101000a900473ffffffffffffffffffffffffffffffffffffffff1673ffffffffffffffffffffffffffffffffffffffff1663a200e5d08460200160208101906200155e919062002ea1565b6040518263ffffffff1660e01b81526004016200157c919062002ee4565b602060405180830381865afa1580156200159a573d6000803e3d6000fd5b505050506040513d601f19601f82011682018060405250810190620015c09190620039e0565b62001602576040517f08c379a0000000000000000000000000000000000000000000000000000000008152600401620015f99062003ad4565b60405180910390fd5b60008061013160009054906101000a900473ffffffffffffffffffffffffffffffffffffffff1673ffffffffffffffffffffffffffffffffffffffff1663c22397ff86600001602081019062001659919062002ea1565b8760200160208101906200166e919062002ea1565b8860a001356040518463ffffffff1660e01b8152600401620016939392919062003af6565b600060405180830381865afa158015620016b1573d6000803e3d6000fd5b505050506040513d6000823e3d601f19601f82011682018060405250810190620016dc919062003be7565b9150915081819062001726576040517f08c379a00000000000000000000000000000000000000000000000000000000081526004016200171d919062002ce5565b60405180910390fd5b5050505b61013254905061012d60009054906101000a900473ffffffffffffffffffffffffffffffffffffffff1661012e54604051620017669062002c3d565b6200177392919062003197565b604051809103906000f08015801562001790573d6000803e3d6000fd5b5091508173ffffffffffffffffffffffffffffffffffffffff16639d5e0551846040518263ffffffff1660e01b8152600401620017ce919062003fee565b6020604051808303816000875af1158015620017ee573d6000803e3d6000fd5b505050506040513d601f19601f8201168201806040525081019062001814919062004029565b5081610133600083815260200190815260200160002060006101000a81548173ffffffffffffffffffffffffffffffffffffffff021916908373ffffffffffffffffffffffffffffffffffffffff16021790555061013260008154809291906200187e906200408a565b919050555082602001602081019062001898919062002ea1565b73ffffffffffffffffffffffffffffffffffffffff16836000016020810190620018c3919062002ea1565b73ffffffffffffffffffffffffffffffffffffffff16827fccab83b228b9f11d0f002db0d115fe84ab0bacbe475d1c28666963a66c20c436856040516200190b919062002ee4565b60405180910390a46200191d62002634565b915091565b60008060019054906101000a900460ff16159050808015620019545750600160008054906101000a900460ff1660ff16105b8062001985575062001966306200263e565b158015620019845750600160008054906101000a900460ff1660ff16145b5b620019c7576040517f08c379a0000000000000000000000000000000000000000000000000000000008152600401620019be906200414d565b60405180910390fd5b60016000806101000a81548160ff021916908360ff160217905550801562001a05576001600060016101000a81548160ff0219169083151502179055505b62001a0f62002661565b62001a19620026bf565b62001a236200271d565b62001a2d6200277b565b600073ffffffffffffffffffffffffffffffffffffffff168673ffffffffffffffffffffffffffffffffffffffff160362001a9f576040517f08c379a000000000000000000000000000000000000000000000000000000000815260040162001a9690620041bf565b60405180910390fd5b600073ffffffffffffffffffffffffffffffffffffffff168473ffffffffffffffffffffffffffffffffffffffff160362001b11576040517f08c379a000000000000000000000000000000000000000000000000000000000815260040162001b089062004231565b60405180910390fd5b600073ffffffffffffffffffffffffffffffffffffffff168373ffffffffffffffffffffffffffffffffffffffff160362001b83576040517f08c379a000000000000000000000000000000000000000000000000000000000815260040162001b7a90620042a3565b60405180910390fd5b6103e885111562001bcb576040517f08c379a000000000000000000000000000000000000000000000000000000000815260040162001bc29062004315565b60405180910390fd5b8561012d60006101000a81548173ffffffffffffffffffffffffffffffffffffffff021916908373ffffffffffffffffffffffffffffffffffffffff1602179055508461012e819055508361012f60006101000a81548173ffffffffffffffffffffffffffffffffffffffff021916908373ffffffffffffffffffffffffffffffffffffffff1602179055508261013060006101000a81548173ffffffffffffffffffffffffffffffffffffffff021916908373ffffffffffffffffffffffffffffffffffffffff160217905550600073ffffffffffffffffffffffffffffffffffffffff168273ffffffffffffffffffffffffffffffffffffffff161462001d3e578161013160006101000a81548173ffffffffffffffffffffffffffffffffffffffff021916908373ffffffffffffffffffffffffffffffffffffffff160217905550600161013560006101000a81548160ff021916908315150217905550683635c9adc5dea00000610136819055505b801562001d9a5760008060016101000a81548160ff0219169083151502179055507f7f26b83ff96e1f2b6a682f133852f6798a09c465da95921460cefb3847402498600160405162001d91919062004387565b60405180910390a15b505050505050565b62001dac62002191565b8061013160006101000a81548173ffffffffffffffffffffffffffffffffffffffff021916908373ffffffffffffffffffffffffffffffffffffffff1602179055508073ffffffffffffffffffffffffffffffffffffffff167f3421a65f9ff530aa124bb3050d3c5f0ae1bcc9fe20a0d39b644c615625848dc860405160405180910390a250565b600061013460008373ffffffffffffffffffffffffffffffffffffffff1673ffffffffffffffffffffffffffffffffffffffff16815260200190815260200160002060009054906101000a900460ff169050919050565b61013060009054906101000a900473ffffffffffffffffffffffffffffffffffffffff1681565b62001ebc62002191565b600073ffffffffffffffffffffffffffffffffffffffff168173ffffffffffffffffffffffffffffffffffffffff160362001f2e576040517f08c379a000000000000000000000000000000000000000000000000000000000815260040162001f2590620043f4565b60405180910390fd5b8061013060006101000a81548173ffffffffffffffffffffffffffffffffffffffff021916908373ffffffffffffffffffffffffffffffffffffffff1602179055508073ffffffffffffffffffffffffffffffffffffffff167f2151be18e1a9ef97fad5998c8aa002234f4140b219f553eabf2dbdd21c23a39660405160405180910390a250565b61012f60009054906101000a900473ffffffffffffffffffffffffffffffffffffffff1681565b62001fe762002191565b8161013560006101000a81548160ff02191690831515021790555080610136819055507f18a67f4d2788748b80e1de8118f99432a17d3ad5debaf6cd7d86c079a5b9604582826040516200203d92919062004416565b60405180910390a15050565b6101325481565b6101336020528060005260406000206000915054906101000a900473ffffffffffffffffffffffffffffffffffffffff1681565b61013560009054906101000a900460ff1681565b6101346020528060005260406000206000915054906101000a900460ff1681565b620020c362002191565b600073ffffffffffffffffffffffffffffffffffffffff168173ffffffffffffffffffffffffffffffffffffffff160362002135576040517f08c379a00000000000000000000000000000000000000000000000000000000081526004016200212c90620044b9565b60405180910390fd5b620021408162002464565b50565b61012d60009054906101000a900473ffffffffffffffffffffffffffffffffffffffff1681565b61013160009054906101000a900473ffffffffffffffffffffffffffffffffffffffff1681565b6200219b620027cf565b73ffffffffffffffffffffffffffffffffffffffff16620021bb62000ff8565b73ffffffffffffffffffffffffffffffffffffffff161462002214576040517f08c379a00000000000000000000000000000000000000000000000000000000081526004016200220b906200452b565b60405180910390fd5b565b6000620022467f360894a13ba1a3210667c828492db98dca3e2076cc3735a920a3ca505d382bbc60001b620027d7565b60000160009054906101000a900473ffffffffffffffffffffffffffffffffffffffff16905090565b6200227962002191565b50565b620022aa7f4910fdfa16fed3260ed0e7147f7cc6da11a60208b5b9406d12a635614ffd914360001b620027e1565b60000160009054906101000a900460ff1615620022d257620022cc83620027eb565b620023f6565b8273ffffffffffffffffffffffffffffffffffffffff166352d1902d6040518163ffffffff1660e01b8152600401602060405180830381865afa9250505080156200233d57506040513d601f19601f820116820180604052508101906200233a91906200457e565b60015b6200237f576040517f08c379a0000000000000000000000000000000000000000000000000000000008152600401620023769062004626565b60405180910390fd5b7f360894a13ba1a3210667c828492db98dca3e2076cc3735a920a3ca505d382bbc60001b8114620023e7576040517f08c379a0000000000000000000000000000000000000000000000000000000008152600401620023de90620046be565b60405180910390fd5b50620023f5838383620028ab565b5b505050565b62002405620028dd565b6000606560006101000a81548160ff0219169083151502179055507f5db9ee0a495bf2e6ff9c91a7834c1ba4fdd244a5e8aa4e537bd38aeae4b073aa6200244b620027cf565b6040516200245a919062002ee4565b60405180910390a1565b6000603360009054906101000a900473ffffffffffffffffffffffffffffffffffffffff16905081603360006101000a81548173ffffffffffffffffffffffffffffffffffffffff021916908373ffffffffffffffffffffffffffffffffffffffff1602179055508173ffffffffffffffffffffffffffffffffffffffff168173ffffffffffffffffffffffffffffffffffffffff167f8be0079c531659141344cd1fd0a4f28419497f9722a3daafe3b4186f6b6457e060405160405180910390a35050565b62002534620025e5565b6001606560006101000a81548160ff0219169083151502179055507f62e78cea01bee320cd4e420270b5ea74000d11b0c9f74754ebdbfc544b05a2586200257a620027cf565b60405162002589919062002ee4565b60405180910390a1565b600260975403620025db576040517f08c379a0000000000000000000000000000000000000000000000000000000008152600401620025d29062004730565b60405180910390fd5b6002609781905550565b620025ef62000f5d565b1562002632576040517f08c379a00000000000000000000000000000000000000000000000000000000081526004016200262990620047a2565b60405180910390fd5b565b6001609781905550565b6000808273ffffffffffffffffffffffffffffffffffffffff163b119050919050565b600060019054906101000a900460ff16620026b3576040517f08c379a0000000000000000000000000000000000000000000000000000000008152600401620026aa906200483a565b60405180910390fd5b620026bd6200292b565b565b600060019054906101000a900460ff1662002711576040517f08c379a000000000000000000000000000000000000000000000000000000000815260040162002708906200483a565b60405180910390fd5b6200271b62002993565b565b600060019054906101000a900460ff166200276f576040517f08c379a000000000000000000000000000000000000000000000000000000000815260040162002766906200483a565b60405180910390fd5b6200277962002a02565b565b600060019054906101000a900460ff16620027cd576040517f08c379a0000000000000000000000000000000000000000000000000000000008152600401620027c4906200483a565b60405180910390fd5b565b600033905090565b6000819050919050565b6000819050919050565b620027f6816200263e565b62002838576040517f08c379a00000000000000000000000000000000000000000000000000000000081526004016200282f90620048d2565b60405180910390fd5b80620028677f360894a13ba1a3210667c828492db98dca3e2076cc3735a920a3ca505d382bbc60001b620027d7565b60000160006101000a81548173ffffffffffffffffffffffffffffffffffffffff021916908373ffffffffffffffffffffffffffffffffffffffff16021790555050565b620028b68362002a5e565b600082511180620028c45750805b15620028d857620028d6838362002aaf565b505b505050565b620028e762000f5d565b62002929576040517f08c379a0000000000000000000000000000000000000000000000000000000008152600401620029209062004944565b60405180910390fd5b565b600060019054906101000a900460ff166200297d576040517f08c379a000000000000000000000000000000000000000000000000000000000815260040162002974906200483a565b60405180910390fd5b620029916200298b620027cf565b62002464565b565b600060019054906101000a900460ff16620029e5576040517f08c379a0000000000000000000000000000000000000000000000000000000008152600401620029dc906200483a565b60405180910390fd5b6000606560006101000a81548160ff021916908315150217905550565b600060019054906101000a900460ff1662002a54576040517f08c379a000000000000000000000000000000000000000000000000000000000815260040162002a4b906200483a565b60405180910390fd5b6001609781905550565b62002a6981620027eb565b8073ffffffffffffffffffffffffffffffffffffffff167fbc7cd75a20ee27fd9adebab32041f755214dbc6bffa90cc0225b39da2e5c2d3b60405160405180910390a250565b606062002ad783836040518060600160405280602781526020016200c24a6027913962002adf565b905092915050565b60606000808573ffffffffffffffffffffffffffffffffffffffff168560405162002b0b9190620049b3565b600060405180830381855af49150503d806000811462002b48576040519150601f19603f3d011682016040523d82523d6000602084013e62002b4d565b606091505b509150915062002b608683838762002b6b565b925050509392505050565b6060831562002bd557600083510362002bcc5762002b89856200263e565b62002bcb576040517f08c379a000000000000000000000000000000000000000000000000000000000815260040162002bc29062004a1c565b60405180910390fd5b5b82905062002be2565b62002be1838362002bea565b5b949350505050565b60008251111562002bfe5781518083602001fd5b806040517f08c379a000000000000000000000000000000000000000000000000000000000815260040162002c34919062002ce5565b60405180910390fd5b61780b8062004a3f83390190565b600081519050919050565b600082825260208201905092915050565b60005b8381101562002c8757808201518184015260208101905062002c6a565b60008484015250505050565b6000601f19601f8301169050919050565b600062002cb18262002c4b565b62002cbd818562002c56565b935062002ccf81856020860162002c67565b62002cda8162002c93565b840191505092915050565b6000602082019050818103600083015262002d01818462002ca4565b905092915050565b6000604051905090565b600080fd5b600080fd5b600073ffffffffffffffffffffffffffffffffffffffff82169050919050565b600062002d4a8262002d1d565b9050919050565b62002d5c8162002d3d565b811462002d6857600080fd5b50565b60008135905062002d7c8162002d51565b92915050565b60008115159050919050565b62002d998162002d82565b811462002da557600080fd5b50565b60008135905062002db98162002d8e565b92915050565b6000806040838503121562002dd95762002dd862002d13565b5b600062002de98582860162002d6b565b925050602062002dfc8582860162002da8565b9150509250929050565b6000819050919050565b62002e1b8162002e06565b811462002e2757600080fd5b50565b60008135905062002e3b8162002e10565b92915050565b60006020828403121562002e5a5762002e5962002d13565b5b600062002e6a8482850162002e2a565b91505092915050565b62002e7e8162002e06565b82525050565b600060208201905062002e9b600083018462002e73565b92915050565b60006020828403121562002eba5762002eb962002d13565b5b600062002eca8482850162002d6b565b91505092915050565b62002ede8162002d3d565b82525050565b600060208201905062002efb600083018462002ed3565b92915050565b600080fd5b600080fd5b7f4e487b7100000000000000000000000000000000000000000000000000000000600052604160045260246000fd5b62002f458262002c93565b810181811067ffffffffffffffff8211171562002f675762002f6662002f0b565b5b80604052505050565b600062002f7c62002d09565b905062002f8a828262002f3a565b919050565b600067ffffffffffffffff82111562002fad5762002fac62002f0b565b5b62002fb88262002c93565b9050602081019050919050565b82818337600083830152505050565b600062002feb62002fe58462002f8f565b62002f70565b9050828152602081018484840111156200300a576200300962002f06565b5b6200301784828562002fc5565b509392505050565b600082601f83011262003037576200303662002f01565b5b81356200304984826020860162002fd4565b91505092915050565b600080604083850312156200306c576200306b62002d13565b5b60006200307c8582860162002d6b565b925050602083013567ffffffffffffffff811115620030a0576200309f62002d18565b5b620030ae858286016200301f565b9150509250929050565b6000819050919050565b620030cd81620030b8565b82525050565b6000602082019050620030ea6000830184620030c2565b92915050565b620030fb8162002d82565b82525050565b6000602082019050620031186000830184620030f0565b92915050565b600080fd5b600061016082840312156200313d576200313c6200311e565b5b81905092915050565b6000602082840312156200315f576200315e62002d13565b5b600082013567ffffffffffffffff81111562003180576200317f62002d18565b5b6200318e8482850162003123565b91505092915050565b6000604082019050620031ae600083018562002ed3565b620031bd602083018462002e73565b9392505050565b600080600080600060a08688031215620031e357620031e262002d13565b5b6000620031f38882890162002d6b565b9550506020620032068882890162002e2a565b9450506040620032198882890162002d6b565b93505060606200322c8882890162002d6b565b92505060806200323f8882890162002d6b565b9150509295509295909350565b6000806040838503121562003266576200326562002d13565b5b6000620032768582860162002da8565b9250506020620032898582860162002e2a565b9150509250929050565b6000819050919050565b6000620032be620032b8620032b28462002d1d565b62003293565b62002d1d565b9050919050565b6000620032d2826200329d565b9050919050565b6000620032e682620032c5565b9050919050565b620032f881620032d9565b82525050565b6000602082019050620033156000830184620032ed565b92915050565b7f496e76616c696420746f6b656e20616464726573730000000000000000000000600082015250565b60006200335360158362002c56565b915062003360826200331b565b602082019050919050565b60006020820190508181036000830152620033868162003344565b9050919050565b7f46656520746f6f20686967680000000000000000000000000000000000000000600082015250565b6000620033c5600c8362002c56565b9150620033d2826200338d565b602082019050919050565b60006020820190508181036000830152620033f881620033b6565b9050919050565b7f496e76616c6964206167656e7420616464726573730000000000000000000000600082015250565b60006200343760158362002c56565b91506200344482620033ff565b602082019050919050565b600060208201905081810360008301526200346a8162003428565b9050919050565b7f46756e6374696f6e206d7573742062652063616c6c6564207468726f7567682060008201527f64656c656761746563616c6c0000000000000000000000000000000000000000602082015250565b6000620034cf602c8362002c56565b9150620034dc8262003471565b604082019050919050565b600060208201905081810360008301526200350281620034c0565b9050919050565b7f46756e6374696f6e206d7573742062652063616c6c6564207468726f7567682060008201527f6163746976652070726f78790000000000000000000000000000000000000000602082015250565b600062003567602c8362002c56565b9150620035748262003509565b604082019050919050565b600060208201905081810360008301526200359a8162003558565b9050919050565b7f496e76616c696420657363726f77204944000000000000000000000000000000600082015250565b6000620035d960118362002c56565b9150620035e682620035a1565b602082019050919050565b600060208201905081810360008301526200360c81620035ca565b9050919050565b7f555550535570677261646561626c653a206d757374206e6f742062652063616c60008201527f6c6564207468726f7567682064656c656761746563616c6c0000000000000000602082015250565b60006200367160388362002c56565b91506200367e8262003613565b604082019050919050565b60006020820190508181036000830152620036a48162003662565b9050919050565b7f496e76616c696420627579657220616464726573730000000000000000000000600082015250565b6000620036e360158362002c56565b9150620036f082620036ab565b602082019050919050565b600060208201905081810360008301526200371681620036d4565b9050919050565b7f496e76616c69642073656c6c6572206164647265737300000000000000000000600082015250565b60006200375560168362002c56565b915062003762826200371d565b602082019050919050565b60006020820190508181036000830152620037888162003746565b9050919050565b7f496e76616c6964206465706f73697420616d6f756e7400000000000000000000600082015250565b6000620037c760168362002c56565b9150620037d4826200378f565b602082019050919050565b60006020820190508181036000830152620037fa81620037b8565b9050919050565b7f546f6b656e206e6f742077686974656c69737465640000000000000000000000600082015250565b60006200383960158362002c56565b9150620038468262003801565b602082019050919050565b600060208201905081810360008301526200386c816200382a565b9050919050565b7f496e76616c6964206465706f73697420646561646c696e650000000000000000600082015250565b6000620038ab60188362002c56565b9150620038b88262003873565b602082019050919050565b60006020820190508181036000830152620038de816200389c565b9050919050565b7f496e76616c696420766572696669636174696f6e20646561646c696e65000000600082015250565b60006200391d601d8362002c56565b91506200392a82620038e5565b602082019050919050565b6000602082019050818103600083015262003950816200390e565b9050919050565b7f436f6d706c69616e6365206d616e61676572206e6f7420736574000000000000600082015250565b60006200398f601a8362002c56565b91506200399c8262003957565b602082019050919050565b60006020820190508181036000830152620039c28162003980565b9050919050565b600081519050620039da8162002d8e565b92915050565b600060208284031215620039f957620039f862002d13565b5b600062003a0984828501620039c9565b91505092915050565b7f4275796572206e6f7420636f6d706c69616e7400000000000000000000000000600082015250565b600062003a4a60138362002c56565b915062003a578262003a12565b602082019050919050565b6000602082019050818103600083015262003a7d8162003a3b565b9050919050565b7f53656c6c6572206e6f7420636f6d706c69616e74000000000000000000000000600082015250565b600062003abc60148362002c56565b915062003ac98262003a84565b602082019050919050565b6000602082019050818103600083015262003aef8162003aad565b9050919050565b600060608201905062003b0d600083018662002ed3565b62003b1c602083018562002ed3565b62003b2b604083018462002e73565b949350505050565b600067ffffffffffffffff82111562003b515762003b5062002f0b565b5b62003b5c8262002c93565b9050602081019050919050565b600062003b8062003b7a8462003b33565b62002f70565b90508281526020810184848401111562003b9f5762003b9e62002f06565b5b62003bac84828562002c67565b509392505050565b600082601f83011262003bcc5762003bcb62002f01565b5b815162003bde84826020860162003b69565b91505092915050565b6000806040838503121562003c015762003c0062002d13565b5b600062003c1185828601620039c9565b925050602083015167ffffffffffffffff81111562003c355762003c3462002d18565b5b62003c438582860162003bb4565b9150509250929050565b600062003c5e602084018462002d6b565b905092915050565b62003c718162002d3d565b82525050565b600062003c88602084018462002e2a565b905092915050565b62003c9b8162002e06565b82525050565b600080fd5b60008235600160a00383360303811262003cc55762003cc462003ca1565b5b82810191505092915050565b600080fd5b600080fd5b6000808335600160200384360303811262003cfb5762003cfa62003ca1565b5b83810192508235915060208301925067ffffffffffffffff82111562003d265762003d2562003cd1565b5b60018202360383131562003d3f5762003d3e62003cd6565b5b509250929050565b600082825260208201905092915050565b600062003d66838562003d47565b935062003d7583858462002fc5565b62003d808362002c93565b840190509392505050565b600062003d9c602084018462002da8565b905092915050565b62003daf8162002d82565b82525050565b600060a0830162003dca600084018462003cdb565b858303600087015262003ddf83828462003d58565b9250505062003df2602084018462003cdb565b858303602087015262003e0783828462003d58565b9250505062003e1a604084018462003c77565b62003e29604086018262003c90565b5062003e39606084018462003cdb565b858303606087015262003e4e83828462003d58565b9250505062003e61608084018462003d8b565b62003e70608086018262003da4565b508091505092915050565b6000610160830162003e91600084018462003c4d565b62003ea0600086018262003c66565b5062003eb0602084018462003c4d565b62003ebf602086018262003c66565b5062003ecf604084018462003c4d565b62003ede604086018262003c66565b5062003eee606084018462003c4d565b62003efd606086018262003c66565b5062003f0d608084018462003c4d565b62003f1c608086018262003c66565b5062003f2c60a084018462003c77565b62003f3b60a086018262003c90565b5062003f4b60c084018462003c77565b62003f5a60c086018262003c90565b5062003f6a60e084018462003c77565b62003f7960e086018262003c90565b5062003f8a61010084018462003ca6565b84820361010086015262003f9f828262003db5565b91505062003fb261012084018462003c77565b62003fc261012086018262003c90565b5062003fd361014084018462003c77565b62003fe361014086018262003c90565b508091505092915050565b600060208201905081810360008301526200400a818462003e7b565b905092915050565b600081519050620040238162002e10565b92915050565b60006020828403121562004042576200404162002d13565b5b6000620040528482850162004012565b91505092915050565b7f4e487b7100000000000000000000000000000000000000000000000000000000600052601160045260246000fd5b6000620040978262002e06565b91507fffffffffffffffffffffffffffffffffffffffffffffffffffffffffffffffff8203620040cc57620040cb6200405b565b5b600182019050919050565b7f496e697469616c697a61626c653a20636f6e747261637420697320616c72656160008201527f647920696e697469616c697a6564000000000000000000000000000000000000602082015250565b600062004135602e8362002c56565b91506200414282620040d7565b604082019050919050565b60006020820190508181036000830152620041688162004126565b9050919050565b7f496e76616c696420706c6174666f726d2077616c6c6574000000000000000000600082015250565b6000620041a760178362002c56565b9150620041b4826200416f565b602082019050919050565b60006020820190508181036000830152620041da8162004198565b9050919050565b7f496e76616c69642064656661756c74206167656e740000000000000000000000600082015250565b60006200421960158362002c56565b91506200422682620041e1565b602082019050919050565b600060208201905081810360008301526200424c816200420a565b9050919050565b7f496e76616c69642064656661756c742061726269746572000000000000000000600082015250565b60006200428b60178362002c56565b9150620042988262004253565b602082019050919050565b60006020820190508181036000830152620042be816200427c565b9050919050565b7f506c6174666f726d2066656520746f6f20686967680000000000000000000000600082015250565b6000620042fd60158362002c56565b91506200430a82620042c5565b602082019050919050565b600060208201905081810360008301526200433081620042ee565b9050919050565b6000819050919050565b600060ff82169050919050565b60006200436f62004369620043638462004337565b62003293565b62004341565b9050919050565b62004381816200434e565b82525050565b60006020820190506200439e600083018462004376565b92915050565b7f496e76616c696420617262697465722061646472657373000000000000000000600082015250565b6000620043dc60178362002c56565b9150620043e982620043a4565b602082019050919050565b600060208201905081810360008301526200440f81620043cd565b9050919050565b60006040820190506200442d6000830185620030f0565b6200443c602083018462002e73565b9392505050565b7f4f776e61626c653a206e6577206f776e657220697320746865207a65726f206160008201527f6464726573730000000000000000000000000000000000000000000000000000602082015250565b6000620044a160268362002c56565b9150620044ae8262004443565b604082019050919050565b60006020820190508181036000830152620044d48162004492565b9050919050565b7f4f776e61626c653a2063616c6c6572206973206e6f7420746865206f776e6572600082015250565b60006200451360208362002c56565b91506200452082620044db565b602082019050919050565b60006020820190508181036000830152620045468162004504565b9050919050565b6200455881620030b8565b81146200456457600080fd5b50565b60008151905062004578816200454d565b92915050565b60006020828403121562004597576200459662002d13565b5b6000620045a78482850162004567565b91505092915050565b7f45524331393637557067726164653a206e657720696d706c656d656e7461746960008201527f6f6e206973206e6f742055555053000000000000000000000000000000000000602082015250565b60006200460e602e8362002c56565b91506200461b82620045b0565b604082019050919050565b600060208201905081810360008301526200464181620045ff565b9050919050565b7f45524331393637557067726164653a20756e737570706f727465642070726f7860008201527f6961626c65555549440000000000000000000000000000000000000000000000602082015250565b6000620046a660298362002c56565b9150620046b38262004648565b604082019050919050565b60006020820190508181036000830152620046d98162004697565b9050919050565b7f5265656e7472616e637947756172643a207265656e7472616e742063616c6c00600082015250565b600062004718601f8362002c56565b91506200472582620046e0565b602082019050919050565b600060208201905081810360008301526200474b8162004709565b9050919050565b7f5061757361626c653a2070617573656400000000000000000000000000000000600082015250565b60006200478a60108362002c56565b9150620047978262004752565b602082019050919050565b60006020820190508181036000830152620047bd816200477b565b9050919050565b7f496e697469616c697a61626c653a20636f6e7472616374206973206e6f74206960008201527f6e697469616c697a696e67000000000000000000000000000000000000000000602082015250565b600062004822602b8362002c56565b91506200482f82620047c4565b604082019050919050565b60006020820190508181036000830152620048558162004813565b9050919050565b7f455243313936373a206e657720696d706c656d656e746174696f6e206973206e60008201527f6f74206120636f6e747261637400000000000000000000000000000000000000602082015250565b6000620048ba602d8362002c56565b9150620048c7826200485c565b604082019050919050565b60006020820190508181036000830152620048ed81620048ab565b9050919050565b7f5061757361626c653a206e6f7420706175736564000000000000000000000000600082015250565b60006200492c60148362002c56565b91506200493982620048f4565b602082019050919050565b600060208201905081810360008301526200495f816200491d565b9050919050565b600081519050919050565b600081905092915050565b6000620049898262004966565b62004995818562004971565b9350620049a781856020860162002c67565b80840191505092915050565b6000620049c182846200497c565b915081905092915050565b7f416464726573733a2063616c6c20746f206e6f6e2d636f6e7472616374000000600082015250565b600062004a04601d8362002c56565b915062004a1182620049cc565b602082019050919050565b6000602082019050818103600083015262004a3781620049f5565b905091905056fe60806040523480156200001157600080fd5b506040516200780b3803806200780b8339818101604052810190620000379190620003b5565b60016000819055506000600160006101000a81548160ff021916908315150217905550600073ffffffffffffffffffffffffffffffffffffffff168273ffffffffffffffffffffffffffffffffffffffff1603620000cc576040517f08c379a0000000000000000000000000000000000000000000000000000000008152600401620000c3906200045d565b60405180910390fd5b6101f481111562000114576040517f08c379a00000000000000000000000000000000000000000000000000000000081526004016200010b90620004cf565b60405180910390fd5b81600860006101000a81548173ffffffffffffffffffffffffffffffffffffffff021916908373ffffffffffffffffffffffffffffffffffffffff16021790555080600781905550620001716000801b33620001ab60201b60201c565b620001a37fa49807205ce4d355092ef5a8a18f56e8913cf4a201fbe287825b095693c2177533620001ab60201b60201c565b5050620004f1565b620001bd82826200029d60201b60201c565b620002995760016002600084815260200190815260200160002060000160008373ffffffffffffffffffffffffffffffffffffffff1673ffffffffffffffffffffffffffffffffffffffff16815260200190815260200160002060006101000a81548160ff0219169083151502179055506200023e6200030860201b60201c565b73ffffffffffffffffffffffffffffffffffffffff168173ffffffffffffffffffffffffffffffffffffffff16837f2f8788117e7eff1d82e926ec794901d17c78024a50270940304540a733656f0d60405160405180910390a45b5050565b60006002600084815260200190815260200160002060000160008373ffffffffffffffffffffffffffffffffffffffff1673ffffffffffffffffffffffffffffffffffffffff16815260200190815260200160002060009054906101000a900460ff16905092915050565b600033905090565b600080fd5b600073ffffffffffffffffffffffffffffffffffffffff82169050919050565b6000620003428262000315565b9050919050565b620003548162000335565b81146200036057600080fd5b50565b600081519050620003748162000349565b92915050565b6000819050919050565b6200038f816200037a565b81146200039b57600080fd5b50565b600081519050620003af8162000384565b92915050565b60008060408385031215620003cf57620003ce62000310565b5b6000620003df8582860162000363565b9250506020620003f2858286016200039e565b9150509250929050565b600082825260208201905092915050565b7f496e76616c696420706c6174666f726d2077616c6c6574000000000000000000600082015250565b600062000445601783620003fc565b915062000452826200040d565b602082019050919050565b60006020820190508181036000830152620004788162000436565b9050919050565b7f506c6174666f726d2066656520746f6f20686967680000000000000000000000600082015250565b6000620004b7601583620003fc565b9150620004c4826200047f565b602082019050919050565b60006020820190508181036000830152620004ea81620004a8565b9050919050565b61730a80620005016000396000f3fe608060405234801561001057600080fd5b50600436106102065760003560e01c80634d68282f1161011a578063a217fddf116100ad578063d547741f1161007c578063d547741f146105af578063daf9c210146105cb578063e0182436146105fb578063e1f1c4a714610617578063fa2af9da1461063557610206565b8063a217fddf1461053b578063b138821e14610559578063b49b0cb314610575578063cdd78cfc1461059157610206565b80637d19e596116100e95780637d19e596146104a15780638456cb59146104d157806391d14854146104db5780639d5e05511461050b57610206565b80634d68282f1461042d5780635aef573c146104495780635c975abb1461046557806375b238fc1461048357610206565b806336568abe1161019d5780633b76594d1161016c5780633b76594d146103af5780633f4ba83a146103cb5780633f4dbda2146103d557806346b6cfd3146103f35780634d104adf1461040f57610206565b806336568abe1461032957806339292763146103455780633998a681146103615780633a49995b1461037f57610206565b806322459e18116101d957806322459e18146102a3578063248a9ca3146102c15780632840662d146102f15780632f2ff15d1461030d57610206565b806301ffc9a71461020b57806308b88af11461023b5780630ffb1d8b1461026b57806312e8e2c314610287575b600080fd5b61022560048036038101906102209190614fa1565b610653565b6040516102329190614fe9565b60405180910390f35b6102556004803603810190610250919061503a565b6106cd565b6040516102629190614fe9565b60405180910390f35b610285600480360381019061028091906150f1565b610ce5565b005b6102a1600480360381019061029c919061503a565b610d6b565b005b6102ab610de5565b6040516102b8919061514a565b60405180910390f35b6102db60048036038101906102d69190615191565b610e09565b6040516102e8919061514a565b60405180910390f35b61030b60048036038101906103069190615223565b610e29565b005b61032760048036038101906103229190615297565b61116c565b005b610343600480360381019061033e9190615297565b61118d565b005b61035f600480360381019061035a919061503a565b611210565b005b6103696112e3565b60405161037691906152e6565b60405180910390f35b6103996004803603810190610394919061503a565b6112e9565b6040516103a69190615378565b60405180910390f35b6103c960048036038101906103c4919061503a565b61135c565b005b6103d3611611565b005b6103dd611646565b6040516103ea91906152e6565b60405180910390f35b61040d6004803603810190610408919061503a565b611650565b005b6104176118f2565b604051610424919061514a565b60405180910390f35b6104476004803603810190610442919061503a565b611916565b005b610463600480360381019061045e9190615393565b611cdb565b005b61046d612708565b60405161047a9190614fe9565b60405180910390f35b61048b61271f565b604051610498919061514a565b60405180910390f35b6104bb60048036038101906104b6919061503a565b612743565b6040516104c891906156cc565b60405180910390f35b6104d9612cb8565b005b6104f560048036038101906104f09190615297565b612ced565b6040516105029190614fe9565b60405180910390f35b61052560048036038101906105209190615713565b612d58565b60405161053291906152e6565b60405180910390f35b61054361347c565b604051610550919061514a565b60405180910390f35b610573600480360381019061056e919061503a565b613483565b005b61058f600480360381019061058a919061575c565b613886565b005b6105996138e0565b6040516105a691906152e6565b60405180910390f35b6105c960048036038101906105c49190615297565b6138e6565b005b6105e560048036038101906105e0919061579c565b613907565b6040516105f29190614fe9565b60405180910390f35b6106156004803603810190610610919061503a565b613927565b005b61061f614111565b60405161062c91906152e6565b60405180910390f35b61063d614117565b60405161064a91906157d8565b60405180910390f35b60007f7965db0b000000000000000000000000000000000000000000000000000000007bffffffffffffffffffffffffffffffffffffffffffffffffffffffff1916827bffffffffffffffffffffffffffffffffffffffffffffffffffffffff191614806106c657506106c58261413d565b5b9050919050565b6000816006548110610714576040517f08c379a000000000000000000000000000000000000000000000000000000000815260040161070b90615850565b60405180910390fd5b60006003600085815260200190815260200160002060405180610240016040529081600082015481526020016001820160009054906101000a900473ffffffffffffffffffffffffffffffffffffffff1673ffffffffffffffffffffffffffffffffffffffff1673ffffffffffffffffffffffffffffffffffffffff1681526020016002820160009054906101000a900473ffffffffffffffffffffffffffffffffffffffff1673ffffffffffffffffffffffffffffffffffffffff1673ffffffffffffffffffffffffffffffffffffffff1681526020016003820160009054906101000a900473ffffffffffffffffffffffffffffffffffffffff1673ffffffffffffffffffffffffffffffffffffffff1673ffffffffffffffffffffffffffffffffffffffff1681526020016004820160009054906101000a900473ffffffffffffffffffffffffffffffffffffffff1673ffffffffffffffffffffffffffffffffffffffff1673ffffffffffffffffffffffffffffffffffffffff1681526020016005820160009054906101000a900473ffffffffffffffffffffffffffffffffffffffff1673ffffffffffffffffffffffffffffffffffffffff1673ffffffffffffffffffffffffffffffffffffffff1681526020016006820154815260200160078201548152602001600882015481526020016009820160009054906101000a900460ff1660068111156109305761092f615301565b5b600681111561094257610941615301565b5b8152602001600a82016040518060a00160405290816000820180546109669061589f565b80601f01602080910402602001604051908101604052809291908181526020018280546109929061589f565b80156109df5780601f106109b4576101008083540402835291602001916109df565b820191906000526020600020905b8154815290600101906020018083116109c257829003601f168201915b505050505081526020016001820180546109f89061589f565b80601f0160208091040260200160405190810160405280929190818152602001828054610a249061589f565b8015610a715780601f10610a4657610100808354040283529160200191610a71565b820191906000526020600020905b815481529060010190602001808311610a5457829003601f168201915b5050505050815260200160028201548152602001600382018054610a949061589f565b80601f0160208091040260200160405190810160405280929190818152602001828054610ac09061589f565b8015610b0d5780601f10610ae257610100808354040283529160200191610b0d565b820191906000526020600020905b815481529060010190602001808311610af057829003601f168201915b505050505081526020016004820160009054906101000a900460ff1615151515815250508152602001600f820154815260200160108201548152602001601182015481526020016012820160009054906101000a900460ff161515151581526020016012820160019054906101000a900460ff161515151581526020016012820160029054906101000a900460ff16151515158152602001601382018054610bb49061589f565b80601f0160208091040260200160405190810160405280929190818152602001828054610be09061589f565b8015610c2d5780601f10610c0257610100808354040283529160200191610c2d565b820191906000526020600020905b815481529060010190602001808311610c1057829003601f168201915b505050505081525050905060026006811115610c4c57610c4b615301565b5b8161012001516006811115610c6457610c63615301565b5b148015610c775750806101400151608001515b8015610c855750806101c001515b8015610c935750806101e001515b8015610cdc5750600073ffffffffffffffffffffffffffffffffffffffff16816060015173ffffffffffffffffffffffffffffffffffffffff161480610cdb57508061020001515b5b92505050919050565b7fa49807205ce4d355092ef5a8a18f56e8913cf4a201fbe287825b095693c21775610d0f816141a7565b81600560008573ffffffffffffffffffffffffffffffffffffffff1673ffffffffffffffffffffffffffffffffffffffff16815260200190815260200160002060006101000a81548160ff021916908315150217905550505050565b7fa49807205ce4d355092ef5a8a18f56e8913cf4a201fbe287825b095693c21775610d95816141a7565b6101f4821115610dda576040517f08c379a0000000000000000000000000000000000000000000000000000000008152600401610dd19061591c565b60405180910390fd5b816007819055505050565b7fcab5a0bfe0b79d2c4b1c2e02599fa044d115b7511f9659307cb427695096770981565b600060026000838152602001908152602001600020600101549050919050565b610e316141bb565b610e3961420a565b836006548110610e7e576040517f08c379a0000000000000000000000000000000000000000000000000000000008152600401610e7590615850565b60405180910390fd5b846004806006811115610e9457610e93615301565b5b6003600084815260200190815260200160002060090160009054906101000a900460ff166006811115610eca57610ec9615301565b5b14610f0a576040517f08c379a0000000000000000000000000000000000000000000000000000000008152600401610f0190615988565b60405180910390fd5b60006003600089815260200190815260200160002090508060040160009054906101000a900473ffffffffffffffffffffffffffffffffffffffff1673ffffffffffffffffffffffffffffffffffffffff163373ffffffffffffffffffffffffffffffffffffffff161480610fa55750610fa47fa49807205ce4d355092ef5a8a18f56e8913cf4a201fbe287825b095693c2177533612ced565b5b610fe4576040517f08c379a0000000000000000000000000000000000000000000000000000000008152600401610fdb90615a1a565b60405180910390fd5b6000600460008a8152602001908152602001600020905060018160030160006101000a81548160ff021916908315150217905550338160030160016101000a81548173ffffffffffffffffffffffffffffffffffffffff021916908373ffffffffffffffffffffffffffffffffffffffff160217905550868682600401918261106e929190615c20565b5087156110835761107e89614254565b611108565b60028260090160006101000a81548160ff021916908360068111156110ab576110aa615301565b5b021790555060018260120160006101000a81548160ff02191690831515021790555060018260120160016101000a81548160ff02191690831515021790555060018260120160026101000a81548160ff0219169083151502179055505b3373ffffffffffffffffffffffffffffffffffffffff16897f7b71d2e00379bd165b2750d54298da2414376699827edca2bce2a096c491d2e98989604051611151929190615d2c565b60405180910390a35050505050611166614482565b50505050565b61117582610e09565b61117e816141a7565b611188838361448c565b505050565b61119561456d565b73ffffffffffffffffffffffffffffffffffffffff168173ffffffffffffffffffffffffffffffffffffffff1614611202576040517f08c379a00000000000000000000000000000000000000000000000000000000081526004016111f990615dc2565b60405180910390fd5b61120c8282614575565b5050565b6112186141bb565b61122061420a565b806006548110611265576040517f08c379a000000000000000000000000000000000000000000000000000000000815260040161125c90615850565b60405180910390fd5b61128f7fa49807205ce4d355092ef5a8a18f56e8913cf4a201fbe287825b095693c2177533612ced565b6112ce576040517f08c379a00000000000000000000000000000000000000000000000000000000081526004016112c590615e2e565b60405180910390fd5b6112d782614254565b506112e0614482565b50565b6101f481565b6000816006548110611330576040517f08c379a000000000000000000000000000000000000000000000000000000000815260040161132790615850565b60405180910390fd5b6003600084815260200190815260200160002060090160009054906101000a900460ff16915050919050565b6113646141bb565b61136c61420a565b8060065481106113b1576040517f08c379a00000000000000000000000000000000000000000000000000000000081526004016113a890615850565b60405180910390fd5b8160008060068111156113c7576113c6615301565b5b6003600084815260200190815260200160002060090160009054906101000a900460ff1660068111156113fd576113fc615301565b5b1461143d576040517f08c379a000000000000000000000000000000000000000000000000000000000815260040161143490615988565b60405180910390fd5b60006003600086815260200190815260200160002090508060010160009054906101000a900473ffffffffffffffffffffffffffffffffffffffff1673ffffffffffffffffffffffffffffffffffffffff163373ffffffffffffffffffffffffffffffffffffffff16146114e6576040517f08c379a00000000000000000000000000000000000000000000000000000000081526004016114dd90615e9a565b60405180910390fd5b806010015442111561152d576040517f08c379a000000000000000000000000000000000000000000000000000000000815260040161152490615f06565b60405180910390fd5b611582333083600601548460050160009054906101000a900473ffffffffffffffffffffffffffffffffffffffff1673ffffffffffffffffffffffffffffffffffffffff16614657909392919063ffffffff16565b60018160090160006101000a81548160ff021916908360068111156115aa576115a9615301565b5b02179055503373ffffffffffffffffffffffffffffffffffffffff16857fe030e47e27825a2ad1b19e4cf2e70bfbfb3124af275c7727a82b114ba7b29a8583600601546040516115fa91906152e6565b60405180910390a35050505061160e614482565b50565b7fa49807205ce4d355092ef5a8a18f56e8913cf4a201fbe287825b095693c2177561163b816141a7565b6116436146e0565b50565b6000600654905090565b6116586141bb565b61166061420a565b8060065481106116a5576040517f08c379a000000000000000000000000000000000000000000000000000000000815260040161169c90615850565b60405180910390fd5b8160018060068111156116bb576116ba615301565b5b6003600084815260200190815260200160002060090160009054906101000a900460ff1660068111156116f1576116f0615301565b5b14611731576040517f08c379a000000000000000000000000000000000000000000000000000000000815260040161172890615988565b60405180910390fd5b60006003600086815260200190815260200160002090508060030160009054906101000a900473ffffffffffffffffffffffffffffffffffffffff1673ffffffffffffffffffffffffffffffffffffffff163373ffffffffffffffffffffffffffffffffffffffff1614806117cc57506117cb7fa49807205ce4d355092ef5a8a18f56e8913cf4a201fbe287825b095693c2177533612ced565b5b61180b576040517f08c379a000000000000000000000000000000000000000000000000000000000815260040161180290615f72565b60405180910390fd5b8060110154421115611852576040517f08c379a000000000000000000000000000000000000000000000000000000000815260040161184990615fde565b60405180910390fd5b60028160090160006101000a81548160ff0219169083600681111561187a57611879615301565b5b0217905550600181600a0160040160006101000a81548160ff0219169083151502179055503373ffffffffffffffffffffffffffffffffffffffff16857f0229702661bd522f80cf22e71a80e376c2ac20ea2ecd8e680f1a8e8285738a1c60405160405180910390a3505050506118ef614482565b50565b7fbb08418a67729a078f87bbc8d02a770929bb68f5bfdf134ae2ead6ed38e2f4ae81565b61191e6141bb565b61192661420a565b80600654811061196b576040517f08c379a000000000000000000000000000000000000000000000000000000000815260040161196290615850565b60405180910390fd5b81600280600681111561198157611980615301565b5b6003600084815260200190815260200160002060090160009054906101000a900460ff1660068111156119b7576119b6615301565b5b146119f7576040517f08c379a00000000000000000000000000000000000000000000000000000000081526004016119ee90615988565b60405180910390fd5b611a00846106cd565b611a3f576040517f08c379a0000000000000000000000000000000000000000000000000000000008152600401611a369061604a565b60405180910390fd5b6000600360008681526020019081526020016000209050600061271082600801548360060154611a6f9190616099565b611a79919061610a565b9050600082600701549050600081838560060154611a97919061613b565b611aa1919061613b565b905060038460090160006101000a81548160ff02191690836006811115611acb57611aca615301565b5b021790555060008460050160009054906101000a900473ffffffffffffffffffffffffffffffffffffffff1690506000841115611b5057611b4f600860009054906101000a900473ffffffffffffffffffffffffffffffffffffffff16858373ffffffffffffffffffffffffffffffffffffffff166147439092919063ffffffff16565b5b600083118015611bb15750600073ffffffffffffffffffffffffffffffffffffffff168560030160009054906101000a900473ffffffffffffffffffffffffffffffffffffffff1673ffffffffffffffffffffffffffffffffffffffff1614155b15611c0657611c058560030160009054906101000a900473ffffffffffffffffffffffffffffffffffffffff16848373ffffffffffffffffffffffffffffffffffffffff166147439092919063ffffffff16565b5b611c558560020160009054906101000a900473ffffffffffffffffffffffffffffffffffffffff16838373ffffffffffffffffffffffffffffffffffffffff166147439092919063ffffffff16565b8460020160009054906101000a900473ffffffffffffffffffffffffffffffffffffffff1673ffffffffffffffffffffffffffffffffffffffff16897f6e3c6096795c8298a218b2cfb8bde42726ff7c9a3d27b4d3ba41ab7f74feb5fb84604051611cc091906152e6565b60405180910390a35050505050505050611cd8614482565b50565b611ce36141bb565b611ceb61420a565b826006548110611d30576040517f08c379a0000000000000000000000000000000000000000000000000000000008152600401611d2790615850565b60405180910390fd5b8360006003600083815260200190815260200160002060405180610240016040529081600082015481526020016001820160009054906101000a900473ffffffffffffffffffffffffffffffffffffffff1673ffffffffffffffffffffffffffffffffffffffff1673ffffffffffffffffffffffffffffffffffffffff1681526020016002820160009054906101000a900473ffffffffffffffffffffffffffffffffffffffff1673ffffffffffffffffffffffffffffffffffffffff1673ffffffffffffffffffffffffffffffffffffffff1681526020016003820160009054906101000a900473ffffffffffffffffffffffffffffffffffffffff1673ffffffffffffffffffffffffffffffffffffffff1673ffffffffffffffffffffffffffffffffffffffff1681526020016004820160009054906101000a900473ffffffffffffffffffffffffffffffffffffffff1673ffffffffffffffffffffffffffffffffffffffff1673ffffffffffffffffffffffffffffffffffffffff1681526020016005820160009054906101000a900473ffffffffffffffffffffffffffffffffffffffff1673ffffffffffffffffffffffffffffffffffffffff1673ffffffffffffffffffffffffffffffffffffffff1681526020016006820154815260200160078201548152602001600882015481526020016009820160009054906101000a900460ff166006811115611f4d57611f4c615301565b5b6006811115611f5f57611f5e615301565b5b8152602001600a82016040518060a0016040529081600082018054611f839061589f565b80601f0160208091040260200160405190810160405280929190818152602001828054611faf9061589f565b8015611ffc5780601f10611fd157610100808354040283529160200191611ffc565b820191906000526020600020905b815481529060010190602001808311611fdf57829003601f168201915b505050505081526020016001820180546120159061589f565b80601f01602080910402602001604051908101604052809291908181526020018280546120419061589f565b801561208e5780601f106120635761010080835404028352916020019161208e565b820191906000526020600020905b81548152906001019060200180831161207157829003601f168201915b50505050508152602001600282015481526020016003820180546120b19061589f565b80601f01602080910402602001604051908101604052809291908181526020018280546120dd9061589f565b801561212a5780601f106120ff5761010080835404028352916020019161212a565b820191906000526020600020905b81548152906001019060200180831161210d57829003601f168201915b505050505081526020016004820160009054906101000a900460ff1615151515815250508152602001600f820154815260200160108201548152602001601182015481526020016012820160009054906101000a900460ff161515151581526020016012820160019054906101000a900460ff161515151581526020016012820160029054906101000a900460ff161515151581526020016013820180546121d19061589f565b80601f01602080910402602001604051908101604052809291908181526020018280546121fd9061589f565b801561224a5780601f1061221f5761010080835404028352916020019161224a565b820191906000526020600020905b81548152906001019060200180831161222d57829003601f168201915b5050505050815250509050806020015173ffffffffffffffffffffffffffffffffffffffff163373ffffffffffffffffffffffffffffffffffffffff1614806122c25750806040015173ffffffffffffffffffffffffffffffffffffffff163373ffffffffffffffffffffffffffffffffffffffff16145b806122fc5750806060015173ffffffffffffffffffffffffffffffffffffffff163373ffffffffffffffffffffffffffffffffffffffff16145b806123365750806080015173ffffffffffffffffffffffffffffffffffffffff163373ffffffffffffffffffffffffffffffffffffffff16145b8061236757506123667fa49807205ce4d355092ef5a8a18f56e8913cf4a201fbe287825b095693c2177533612ced565b5b6123a6576040517f08c379a000000000000000000000000000000000000000000000000000000000815260040161239d906161bb565b60405180910390fd5b6000600360008881526020019081526020016000209050600160068111156123d1576123d0615301565b5b8160090160009054906101000a900460ff1660068111156123f5576123f4615301565b5b14806124365750600260068111156124105761240f615301565b5b8160090160009054906101000a900460ff16600681111561243457612433615301565b5b145b612475576040517f08c379a000000000000000000000000000000000000000000000000000000000815260040161246c90616227565b60405180910390fd5b600086869050116124bb576040517f08c379a00000000000000000000000000000000000000000000000000000000081526004016124b290616293565b60405180910390fd5b60048160090160006101000a81548160ff021916908360068111156124e3576124e2615301565b5b021790555085858260130191826124fb929190615c20565b506040518060c001604052803373ffffffffffffffffffffffffffffffffffffffff16815260200187878080601f016020809104026020016040519081016040528093929190818152602001838380828437600081840152601f19601f820116905080830192505050505050508152602001428152602001600015158152602001600073ffffffffffffffffffffffffffffffffffffffff168152602001604051806020016040528060008152508152506004600089815260200190815260200160002060008201518160000160006101000a81548173ffffffffffffffffffffffffffffffffffffffff021916908373ffffffffffffffffffffffffffffffffffffffff160217905550602082015181600101908161261b91906162b3565b506040820151816002015560608201518160030160006101000a81548160ff02191690831515021790555060808201518160030160016101000a81548173ffffffffffffffffffffffffffffffffffffffff021916908373ffffffffffffffffffffffffffffffffffffffff16021790555060a08201518160040190816126a291906162b3565b509050503373ffffffffffffffffffffffffffffffffffffffff16877f1b84372106d77c6daea0dda35bbc0229d10a83f58ec89909288492519368234188886040516126ef929190615d2c565b60405180910390a350505050612703614482565b505050565b6000600160009054906101000a900460ff16905090565b7fa49807205ce4d355092ef5a8a18f56e8913cf4a201fbe287825b095693c2177581565b61274b614df7565b816006548110612790576040517f08c379a000000000000000000000000000000000000000000000000000000000815260040161278790615850565b60405180910390fd5b6003600084815260200190815260200160002060405180610240016040529081600082015481526020016001820160009054906101000a900473ffffffffffffffffffffffffffffffffffffffff1673ffffffffffffffffffffffffffffffffffffffff1673ffffffffffffffffffffffffffffffffffffffff1681526020016002820160009054906101000a900473ffffffffffffffffffffffffffffffffffffffff1673ffffffffffffffffffffffffffffffffffffffff1673ffffffffffffffffffffffffffffffffffffffff1681526020016003820160009054906101000a900473ffffffffffffffffffffffffffffffffffffffff1673ffffffffffffffffffffffffffffffffffffffff1673ffffffffffffffffffffffffffffffffffffffff1681526020016004820160009054906101000a900473ffffffffffffffffffffffffffffffffffffffff1673ffffffffffffffffffffffffffffffffffffffff1673ffffffffffffffffffffffffffffffffffffffff1681526020016005820160009054906101000a900473ffffffffffffffffffffffffffffffffffffffff1673ffffffffffffffffffffffffffffffffffffffff1673ffffffffffffffffffffffffffffffffffffffff1681526020016006820154815260200160078201548152602001600882015481526020016009820160009054906101000a900460ff1660068111156129aa576129a9615301565b5b60068111156129bc576129bb615301565b5b8152602001600a82016040518060a00160405290816000820180546129e09061589f565b80601f0160208091040260200160405190810160405280929190818152602001828054612a0c9061589f565b8015612a595780601f10612a2e57610100808354040283529160200191612a59565b820191906000526020600020905b815481529060010190602001808311612a3c57829003601f168201915b50505050508152602001600182018054612a729061589f565b80601f0160208091040260200160405190810160405280929190818152602001828054612a9e9061589f565b8015612aeb5780601f10612ac057610100808354040283529160200191612aeb565b820191906000526020600020905b815481529060010190602001808311612ace57829003601f168201915b5050505050815260200160028201548152602001600382018054612b0e9061589f565b80601f0160208091040260200160405190810160405280929190818152602001828054612b3a9061589f565b8015612b875780601f10612b5c57610100808354040283529160200191612b87565b820191906000526020600020905b815481529060010190602001808311612b6a57829003601f168201915b505050505081526020016004820160009054906101000a900460ff1615151515815250508152602001600f820154815260200160108201548152602001601182015481526020016012820160009054906101000a900460ff161515151581526020016012820160019054906101000a900460ff161515151581526020016012820160029054906101000a900460ff16151515158152602001601382018054612c2e9061589f565b80601f0160208091040260200160405190810160405280929190818152602001828054612c5a9061589f565b8015612ca75780601f10612c7c57610100808354040283529160200191612ca7565b820191906000526020600020905b815481529060010190602001808311612c8a57829003601f168201915b505050505081525050915050919050565b7fa49807205ce4d355092ef5a8a18f56e8913cf4a201fbe287825b095693c21775612ce2816141a7565b612cea6147c9565b50565b60006002600084815260200190815260200160002060000160008373ffffffffffffffffffffffffffffffffffffffff1673ffffffffffffffffffffffffffffffffffffffff16815260200190815260200160002060009054906101000a900460ff16905092915050565b6000612d626141bb565b612d6a61420a565b600073ffffffffffffffffffffffffffffffffffffffff16826000016020810190612d95919061579c565b73ffffffffffffffffffffffffffffffffffffffff1603612deb576040517f08c379a0000000000000000000000000000000000000000000000000000000008152600401612de2906163d1565b60405180910390fd5b600073ffffffffffffffffffffffffffffffffffffffff16826020016020810190612e16919061579c565b73ffffffffffffffffffffffffffffffffffffffff1603612e6c576040517f08c379a0000000000000000000000000000000000000000000000000000000008152600401612e639061643d565b60405180910390fd5b816020016020810190612e7f919061579c565b73ffffffffffffffffffffffffffffffffffffffff16826000016020810190612ea8919061579c565b73ffffffffffffffffffffffffffffffffffffffff1603612efe576040517f08c379a0000000000000000000000000000000000000000000000000000000008152600401612ef5906164cf565b60405180910390fd5b600073ffffffffffffffffffffffffffffffffffffffff16826080016020810190612f29919061579c565b73ffffffffffffffffffffffffffffffffffffffff1603612f7f576040517f08c379a0000000000000000000000000000000000000000000000000000000008152600401612f769061653b565b60405180910390fd5b60056000836080016020810190612f96919061579c565b73ffffffffffffffffffffffffffffffffffffffff1673ffffffffffffffffffffffffffffffffffffffff16815260200190815260200160002060009054906101000a900460ff1661301d576040517f08c379a0000000000000000000000000000000000000000000000000000000008152600401613014906165a7565b60405180910390fd5b60008260a0013511613064576040517f08c379a000000000000000000000000000000000000000000000000000000000815260040161305b90616613565b60405180910390fd5b42826101200135116130ab576040517f08c379a00000000000000000000000000000000000000000000000000000000081526004016130a29061667f565b60405180910390fd5b816101200135826101400135116130f7576040517f08c379a00000000000000000000000000000000000000000000000000000000081526004016130ee906166eb565b60405180910390fd5b60008280610100019061310a919061671a565b80600001906131199190616742565b90501161315b576040517f08c379a0000000000000000000000000000000000000000000000000000000008152600401613152906167f1565b60405180910390fd5b60006006600081548092919061317090616811565b91905055905060006003600083815260200190815260200160002090508181600001819055508360000160208101906131a9919061579c565b8160010160006101000a81548173ffffffffffffffffffffffffffffffffffffffff021916908373ffffffffffffffffffffffffffffffffffffffff1602179055508360200160208101906131fe919061579c565b8160020160006101000a81548173ffffffffffffffffffffffffffffffffffffffff021916908373ffffffffffffffffffffffffffffffffffffffff160217905550836040016020810190613253919061579c565b8160030160006101000a81548173ffffffffffffffffffffffffffffffffffffffff021916908373ffffffffffffffffffffffffffffffffffffffff1602179055508360600160208101906132a8919061579c565b8160040160006101000a81548173ffffffffffffffffffffffffffffffffffffffff021916908373ffffffffffffffffffffffffffffffffffffffff1602179055508360800160208101906132fd919061579c565b8160050160006101000a81548173ffffffffffffffffffffffffffffffffffffffff021916908373ffffffffffffffffffffffffffffffffffffffff1602179055508360a0013581600601819055508360c0013581600701819055508360e00135816008018190555060008160090160006101000a81548160ff0219169083600681111561338e5761338d615301565b5b0217905550838061010001906133a4919061671a565b81600a0181816133b49190616a12565b9050504281600f0181905550836101200135816010018190555083610140013581601101819055508360200160208101906133ef919061579c565b73ffffffffffffffffffffffffffffffffffffffff16846000016020810190613418919061579c565b73ffffffffffffffffffffffffffffffffffffffff16837f9405ad0a6208539879349284d71265479b1623846f70303da1f9890d6e8c10a78760a0013560405161346291906152e6565b60405180910390a48192505050613477614482565b919050565b6000801b81565b61348b6141bb565b61349361420a565b8060065481106134d8576040517f08c379a00000000000000000000000000000000000000000000000000000000081526004016134cf90615850565b60405180910390fd5b8160028060068111156134ee576134ed615301565b5b6003600084815260200190815260200160002060090160009054906101000a900460ff16600681111561352457613523615301565b5b14613564576040517f08c379a000000000000000000000000000000000000000000000000000000000815260040161355b90615988565b60405180910390fd5b600060036000868152602001908152602001600020905060008160010160009054906101000a900473ffffffffffffffffffffffffffffffffffffffff1673ffffffffffffffffffffffffffffffffffffffff163373ffffffffffffffffffffffffffffffffffffffff160361364c578160120160009054906101000a900460ff1615613626576040517f08c379a000000000000000000000000000000000000000000000000000000000815260040161361d90616a6c565b60405180910390fd5b60018260120160006101000a81548160ff02191690831515021790555060009050613827565b8160020160009054906101000a900473ffffffffffffffffffffffffffffffffffffffff1673ffffffffffffffffffffffffffffffffffffffff163373ffffffffffffffffffffffffffffffffffffffff160361371b578160120160019054906101000a900460ff16156136f5576040517f08c379a00000000000000000000000000000000000000000000000000000000081526004016136ec90616ad8565b60405180910390fd5b60018260120160016101000a81548160ff02191690831515021790555060019050613826565b8160030160009054906101000a900473ffffffffffffffffffffffffffffffffffffffff1673ffffffffffffffffffffffffffffffffffffffff163373ffffffffffffffffffffffffffffffffffffffff16036137ea578160120160029054906101000a900460ff16156137c4576040517f08c379a00000000000000000000000000000000000000000000000000000000081526004016137bb90616b44565b60405180910390fd5b60018260120160026101000a81548160ff02191690831515021790555060029050613825565b6040517f08c379a000000000000000000000000000000000000000000000000000000000815260040161381c90616bb0565b60405180910390fd5b5b5b3373ffffffffffffffffffffffffffffffffffffffff16867f8c76bb4d0d0276699b16a2e9464b50cad045b0200b9bc632ae3a5d57077fa2648360405161386e9190616c18565b60405180910390a35050505050613883614482565b50565b7fa49807205ce4d355092ef5a8a18f56e8913cf4a201fbe287825b095693c217756138b0816141a7565b6138db33838573ffffffffffffffffffffffffffffffffffffffff166147439092919063ffffffff16565b505050565b60075481565b6138ef82610e09565b6138f8816141a7565b6139028383614575565b505050565b60056020528060005260406000206000915054906101000a900460ff1681565b61392f6141bb565b61393761420a565b80600654811061397c576040517f08c379a000000000000000000000000000000000000000000000000000000000815260040161397390615850565b60405180910390fd5b81600080600681111561399257613991615301565b5b6003600084815260200190815260200160002060090160009054906101000a900460ff1660068111156139c8576139c7615301565b5b14613a08576040517f08c379a00000000000000000000000000000000000000000000000000000000081526004016139ff90615988565b60405180910390fd5b8360006003600083815260200190815260200160002060405180610240016040529081600082015481526020016001820160009054906101000a900473ffffffffffffffffffffffffffffffffffffffff1673ffffffffffffffffffffffffffffffffffffffff1673ffffffffffffffffffffffffffffffffffffffff1681526020016002820160009054906101000a900473ffffffffffffffffffffffffffffffffffffffff1673ffffffffffffffffffffffffffffffffffffffff1673ffffffffffffffffffffffffffffffffffffffff1681526020016003820160009054906101000a900473ffffffffffffffffffffffffffffffffffffffff1673ffffffffffffffffffffffffffffffffffffffff1673ffffffffffffffffffffffffffffffffffffffff1681526020016004820160009054906101000a900473ffffffffffffffffffffffffffffffffffffffff1673ffffffffffffffffffffffffffffffffffffffff1673ffffffffffffffffffffffffffffffffffffffff1681526020016005820160009054906101000a900473ffffffffffffffffffffffffffffffffffffffff1673ffffffffffffffffffffffffffffffffffffffff1673ffffffffffffffffffffffffffffffffffffffff1681526020016006820154815260200160078201548152602001600882015481526020016009820160009054906101000a900460ff166006811115613c2557613c24615301565b5b6006811115613c3757613c36615301565b5b8152602001600a82016040518060a0016040529081600082018054613c5b9061589f565b80601f0160208091040260200160405190810160405280929190818152602001828054613c879061589f565b8015613cd45780601f10613ca957610100808354040283529160200191613cd4565b820191906000526020600020905b815481529060010190602001808311613cb757829003601f168201915b50505050508152602001600182018054613ced9061589f565b80601f0160208091040260200160405190810160405280929190818152602001828054613d199061589f565b8015613d665780601f10613d3b57610100808354040283529160200191613d66565b820191906000526020600020905b815481529060010190602001808311613d4957829003601f168201915b5050505050815260200160028201548152602001600382018054613d899061589f565b80601f0160208091040260200160405190810160405280929190818152602001828054613db59061589f565b8015613e025780601f10613dd757610100808354040283529160200191613e02565b820191906000526020600020905b815481529060010190602001808311613de557829003601f168201915b505050505081526020016004820160009054906101000a900460ff1615151515815250508152602001600f820154815260200160108201548152602001601182015481526020016012820160009054906101000a900460ff161515151581526020016012820160019054906101000a900460ff161515151581526020016012820160029054906101000a900460ff16151515158152602001601382018054613ea99061589f565b80601f0160208091040260200160405190810160405280929190818152602001828054613ed59061589f565b8015613f225780601f10613ef757610100808354040283529160200191613f22565b820191906000526020600020905b815481529060010190602001808311613f0557829003601f168201915b5050505050815250509050806020015173ffffffffffffffffffffffffffffffffffffffff163373ffffffffffffffffffffffffffffffffffffffff161480613f9a5750806040015173ffffffffffffffffffffffffffffffffffffffff163373ffffffffffffffffffffffffffffffffffffffff16145b80613fd45750806060015173ffffffffffffffffffffffffffffffffffffffff163373ffffffffffffffffffffffffffffffffffffffff16145b8061400e5750806080015173ffffffffffffffffffffffffffffffffffffffff163373ffffffffffffffffffffffffffffffffffffffff16145b8061403f575061403e7fa49807205ce4d355092ef5a8a18f56e8913cf4a201fbe287825b095693c2177533612ced565b5b61407e576040517f08c379a0000000000000000000000000000000000000000000000000000000008152600401614075906161bb565b60405180910390fd5b60066003600088815260200190815260200160002060090160006101000a81548160ff021916908360068111156140b8576140b7615301565b5b02179055503373ffffffffffffffffffffffffffffffffffffffff16867f6f44c80719cb2f74bdbd68b7af10147acb9b52e2675ad02f9c87f0985995993860405160405180910390a3505050505061410e614482565b50565b61271081565b600860009054906101000a900473ffffffffffffffffffffffffffffffffffffffff1681565b60007f01ffc9a7000000000000000000000000000000000000000000000000000000007bffffffffffffffffffffffffffffffffffffffffffffffffffffffff1916827bffffffffffffffffffffffffffffffffffffffffffffffffffffffff1916149050919050565b6141b8816141b361456d565b61482b565b50565b600260005403614200576040517f08c379a00000000000000000000000000000000000000000000000000000000081526004016141f790616c7f565b60405180910390fd5b6002600081905550565b614212612708565b15614252576040517f08c379a000000000000000000000000000000000000000000000000000000000815260040161424990616ceb565b60405180910390fd5b565b60006003600083815260200190815260200160002090506001600681111561427f5761427e615301565b5b8160090160009054906101000a900460ff1660068111156142a3576142a2615301565b5b14806142e45750600460068111156142be576142bd615301565b5b8160090160009054906101000a900460ff1660068111156142e2576142e1615301565b5b145b806143245750600260068111156142fe576142fd615301565b5b8160090160009054906101000a900460ff16600681111561432257614321615301565b5b145b614363576040517f08c379a000000000000000000000000000000000000000000000000000000000815260040161435a90616d57565b60405180910390fd5b60058160090160006101000a81548160ff0219169083600681111561438b5761438a615301565b5b02179055506144078160010160009054906101000a900473ffffffffffffffffffffffffffffffffffffffff1682600601548360050160009054906101000a900473ffffffffffffffffffffffffffffffffffffffff1673ffffffffffffffffffffffffffffffffffffffff166147439092919063ffffffff16565b8060010160009054906101000a900473ffffffffffffffffffffffffffffffffffffffff1673ffffffffffffffffffffffffffffffffffffffff16827f80b577b4fc190ab86d963549e29f496afd079c5d81a2480d61217d4b5060a28c836006015460405161447691906152e6565b60405180910390a35050565b6001600081905550565b6144968282612ced565b6145695760016002600084815260200190815260200160002060000160008373ffffffffffffffffffffffffffffffffffffffff1673ffffffffffffffffffffffffffffffffffffffff16815260200190815260200160002060006101000a81548160ff02191690831515021790555061450e61456d565b73ffffffffffffffffffffffffffffffffffffffff168173ffffffffffffffffffffffffffffffffffffffff16837f2f8788117e7eff1d82e926ec794901d17c78024a50270940304540a733656f0d60405160405180910390a45b5050565b600033905090565b61457f8282612ced565b156146535760006002600084815260200190815260200160002060000160008373ffffffffffffffffffffffffffffffffffffffff1673ffffffffffffffffffffffffffffffffffffffff16815260200190815260200160002060006101000a81548160ff0219169083151502179055506145f861456d565b73ffffffffffffffffffffffffffffffffffffffff168173ffffffffffffffffffffffffffffffffffffffff16837ff6391f5c32d9c69d2a47ea670b442974b53935d1edc7fd64eb21e047a839171b60405160405180910390a45b5050565b6146da846323b872dd60e01b85858560405160240161467893929190616d77565b604051602081830303815290604052907bffffffffffffffffffffffffffffffffffffffffffffffffffffffff19166020820180517bffffffffffffffffffffffffffffffffffffffffffffffffffffffff83818316178352505050506148b0565b50505050565b6146e8614978565b6000600160006101000a81548160ff0219169083151502179055507f5db9ee0a495bf2e6ff9c91a7834c1ba4fdd244a5e8aa4e537bd38aeae4b073aa61472c61456d565b60405161473991906157d8565b60405180910390a1565b6147c48363a9059cbb60e01b8484604051602401614762929190616dae565b604051602081830303815290604052907bffffffffffffffffffffffffffffffffffffffffffffffffffffffff19166020820180517bffffffffffffffffffffffffffffffffffffffffffffffffffffffff83818316178352505050506148b0565b505050565b6147d161420a565b60018060006101000a81548160ff0219169083151502179055507f62e78cea01bee320cd4e420270b5ea74000d11b0c9f74754ebdbfc544b05a25861481461456d565b60405161482191906157d8565b60405180910390a1565b6148358282612ced565b6148ac57614842816149c1565b6148508360001c60206149ee565b604051602001614861929190616eab565b6040516020818303038152906040526040517f08c379a00000000000000000000000000000000000000000000000000000000081526004016148a39190616f1e565b60405180910390fd5b5050565b6000614912826040518060400160405280602081526020017f5361666545524332303a206c6f772d6c6576656c2063616c6c206661696c65648152508573ffffffffffffffffffffffffffffffffffffffff16614c2a9092919063ffffffff16565b90506000815114806149345750808060200190518101906149339190616f55565b5b614973576040517f08c379a000000000000000000000000000000000000000000000000000000000815260040161496a90616ff4565b60405180910390fd5b505050565b614980612708565b6149bf576040517f08c379a00000000000000000000000000000000000000000000000000000000081526004016149b690617060565b60405180910390fd5b565b60606149e78273ffffffffffffffffffffffffffffffffffffffff16601460ff166149ee565b9050919050565b606060006002836002614a019190616099565b614a0b9190617080565b67ffffffffffffffff811115614a2457614a23615a45565b5b6040519080825280601f01601f191660200182016040528015614a565781602001600182028036833780820191505090505b5090507f300000000000000000000000000000000000000000000000000000000000000081600081518110614a8e57614a8d6170b4565b5b60200101907effffffffffffffffffffffffffffffffffffffffffffffffffffffffffffff1916908160001a9053507f780000000000000000000000000000000000000000000000000000000000000081600181518110614af257614af16170b4565b5b60200101907effffffffffffffffffffffffffffffffffffffffffffffffffffffffffffff1916908160001a90535060006001846002614b329190616099565b614b3c9190617080565b90505b6001811115614bdc577f3031323334353637383961626364656600000000000000000000000000000000600f861660108110614b7e57614b7d6170b4565b5b1a60f81b828281518110614b9557614b946170b4565b5b60200101907effffffffffffffffffffffffffffffffffffffffffffffffffffffffffffff1916908160001a905350600485901c945080614bd5906170e3565b9050614b3f565b5060008414614c20576040517f08c379a0000000000000000000000000000000000000000000000000000000008152600401614c1790617158565b60405180910390fd5b8091505092915050565b6060614c398484600085614c42565b90509392505050565b606082471015614c87576040517f08c379a0000000000000000000000000000000000000000000000000000000008152600401614c7e906171ea565b60405180910390fd5b6000808673ffffffffffffffffffffffffffffffffffffffff168587604051614cb09190617251565b60006040518083038185875af1925050503d8060008114614ced576040519150601f19603f3d011682016040523d82523d6000602084013e614cf2565b606091505b5091509150614d0387838387614d0f565b92505050949350505050565b60608315614d71576000835103614d6957614d2985614d84565b614d68576040517f08c379a0000000000000000000000000000000000000000000000000000000008152600401614d5f906172b4565b60405180910390fd5b5b829050614d7c565b614d7b8383614da7565b5b949350505050565b6000808273ffffffffffffffffffffffffffffffffffffffff163b119050919050565b600082511115614dba5781518083602001fd5b806040517f08c379a0000000000000000000000000000000000000000000000000000000008152600401614dee9190616f1e565b60405180910390fd5b60405180610240016040528060008152602001600073ffffffffffffffffffffffffffffffffffffffff168152602001600073ffffffffffffffffffffffffffffffffffffffff168152602001600073ffffffffffffffffffffffffffffffffffffffff168152602001600073ffffffffffffffffffffffffffffffffffffffff168152602001600073ffffffffffffffffffffffffffffffffffffffff16815260200160008152602001600081526020016000815260200160006006811115614ec457614ec3615301565b5b8152602001614ed1614f0e565b8152602001600081526020016000815260200160008152602001600015158152602001600015158152602001600015158152602001606081525090565b6040518060a00160405280606081526020016060815260200160008152602001606081526020016000151581525090565b600080fd5b600080fd5b60007fffffffff0000000000000000000000000000000000000000000000000000000082169050919050565b614f7e81614f49565b8114614f8957600080fd5b50565b600081359050614f9b81614f75565b92915050565b600060208284031215614fb757614fb6614f3f565b5b6000614fc584828501614f8c565b91505092915050565b60008115159050919050565b614fe381614fce565b82525050565b6000602082019050614ffe6000830184614fda565b92915050565b6000819050919050565b61501781615004565b811461502257600080fd5b50565b6000813590506150348161500e565b92915050565b6000602082840312156150505761504f614f3f565b5b600061505e84828501615025565b91505092915050565b600073ffffffffffffffffffffffffffffffffffffffff82169050919050565b600061509282615067565b9050919050565b6150a281615087565b81146150ad57600080fd5b50565b6000813590506150bf81615099565b92915050565b6150ce81614fce565b81146150d957600080fd5b50565b6000813590506150eb816150c5565b92915050565b6000806040838503121561510857615107614f3f565b5b6000615116858286016150b0565b9250506020615127858286016150dc565b9150509250929050565b6000819050919050565b61514481615131565b82525050565b600060208201905061515f600083018461513b565b92915050565b61516e81615131565b811461517957600080fd5b50565b60008135905061518b81615165565b92915050565b6000602082840312156151a7576151a6614f3f565b5b60006151b58482850161517c565b91505092915050565b600080fd5b600080fd5b600080fd5b60008083601f8401126151e3576151e26151be565b5b8235905067ffffffffffffffff811115615200576151ff6151c3565b5b60208301915083600182028301111561521c5761521b6151c8565b5b9250929050565b6000806000806060858703121561523d5761523c614f3f565b5b600061524b87828801615025565b945050602061525c878288016150dc565b935050604085013567ffffffffffffffff81111561527d5761527c614f44565b5b615289878288016151cd565b925092505092959194509250565b600080604083850312156152ae576152ad614f3f565b5b60006152bc8582860161517c565b92505060206152cd858286016150b0565b9150509250929050565b6152e081615004565b82525050565b60006020820190506152fb60008301846152d7565b92915050565b7f4e487b7100000000000000000000000000000000000000000000000000000000600052602160045260246000fd5b6007811061534157615340615301565b5b50565b600081905061535282615330565b919050565b600061536282615344565b9050919050565b61537281615357565b82525050565b600060208201905061538d6000830184615369565b92915050565b6000806000604084860312156153ac576153ab614f3f565b5b60006153ba86828701615025565b935050602084013567ffffffffffffffff8111156153db576153da614f44565b5b6153e7868287016151cd565b92509250509250925092565b6153fc81615004565b82525050565b61540b81615087565b82525050565b61541a81615357565b82525050565b600081519050919050565b600082825260208201905092915050565b60005b8381101561545a57808201518184015260208101905061543f565b60008484015250505050565b6000601f19601f8301169050919050565b600061548282615420565b61548c818561542b565b935061549c81856020860161543c565b6154a581615466565b840191505092915050565b6154b981614fce565b82525050565b600060a08301600083015184820360008601526154dc8282615477565b915050602083015184820360208601526154f68282615477565b915050604083015161550b60408601826153f3565b50606083015184820360608601526155238282615477565b915050608083015161553860808601826154b0565b508091505092915050565b60006102408301600083015161555c60008601826153f3565b50602083015161556f6020860182615402565b5060408301516155826040860182615402565b5060608301516155956060860182615402565b5060808301516155a86080860182615402565b5060a08301516155bb60a0860182615402565b5060c08301516155ce60c08601826153f3565b5060e08301516155e160e08601826153f3565b506101008301516155f66101008601826153f3565b5061012083015161560b610120860182615411565b5061014083015184820361014086015261562582826154bf565b91505061016083015161563c6101608601826153f3565b506101808301516156516101808601826153f3565b506101a08301516156666101a08601826153f3565b506101c083015161567b6101c08601826154b0565b506101e08301516156906101e08601826154b0565b506102008301516156a56102008601826154b0565b506102208301518482036102208601526156bf8282615477565b9150508091505092915050565b600060208201905081810360008301526156e68184615543565b905092915050565b600080fd5b6000610160828403121561570a576157096156ee565b5b81905092915050565b60006020828403121561572957615728614f3f565b5b600082013567ffffffffffffffff81111561574757615746614f44565b5b615753848285016156f3565b91505092915050565b6000806040838503121561577357615772614f3f565b5b6000615781858286016150b0565b925050602061579285828601615025565b9150509250929050565b6000602082840312156157b2576157b1614f3f565b5b60006157c0848285016150b0565b91505092915050565b6157d281615087565b82525050565b60006020820190506157ed60008301846157c9565b92915050565b600082825260208201905092915050565b7f496e76616c696420657363726f77204944000000000000000000000000000000600082015250565b600061583a6011836157f3565b915061584582615804565b602082019050919050565b600060208201905081810360008301526158698161582d565b9050919050565b7f4e487b7100000000000000000000000000000000000000000000000000000000600052602260045260246000fd5b600060028204905060018216806158b757607f821691505b6020821081036158ca576158c9615870565b5b50919050565b7f46656520746f6f20686967680000000000000000000000000000000000000000600082015250565b6000615906600c836157f3565b9150615911826158d0565b602082019050919050565b60006020820190508181036000830152615935816158f9565b9050919050565b7f496e76616c696420657363726f77207374617465000000000000000000000000600082015250565b60006159726014836157f3565b915061597d8261593c565b602082019050919050565b600060208201905081810360008301526159a181615965565b9050919050565b7f4f6e6c792061726269746572206f722061646d696e2063616e207265736f6c7660008201527f6500000000000000000000000000000000000000000000000000000000000000602082015250565b6000615a046021836157f3565b9150615a0f826159a8565b604082019050919050565b60006020820190508181036000830152615a33816159f7565b9050919050565b600082905092915050565b7f4e487b7100000000000000000000000000000000000000000000000000000000600052604160045260246000fd5b60008190508160005260206000209050919050565b60006020601f8301049050919050565b600082821b905092915050565b600060088302615ad67fffffffffffffffffffffffffffffffffffffffffffffffffffffffffffffffff82615a99565b615ae08683615a99565b95508019841693508086168417925050509392505050565b6000819050919050565b6000615b1d615b18615b1384615004565b615af8565b615004565b9050919050565b6000819050919050565b615b3783615b02565b615b4b615b4382615b24565b848454615aa6565b825550505050565b600090565b615b60615b53565b615b6b818484615b2e565b505050565b5b81811015615b8f57615b84600082615b58565b600181019050615b71565b5050565b601f821115615bd457615ba581615a74565b615bae84615a89565b81016020851015615bbd578190505b615bd1615bc985615a89565b830182615b70565b50505b505050565b600082821c905092915050565b6000615bf760001984600802615bd9565b1980831691505092915050565b6000615c108383615be6565b9150826002028217905092915050565b615c2a8383615a3a565b67ffffffffffffffff811115615c4357615c42615a45565b5b615c4d825461589f565b615c58828285615b93565b6000601f831160018114615c875760008415615c75578287013590505b615c7f8582615c04565b865550615ce7565b601f198416615c9586615a74565b60005b82811015615cbd57848901358255600182019150602085019450602081019050615c98565b86831015615cda5784890135615cd6601f891682615be6565b8355505b6001600288020188555050505b50505050505050565b82818337600083830152505050565b6000615d0b83856157f3565b9350615d18838584615cf0565b615d2183615466565b840190509392505050565b60006020820190508181036000830152615d47818486615cff565b90509392505050565b7f416363657373436f6e74726f6c3a2063616e206f6e6c792072656e6f756e636560008201527f20726f6c657320666f722073656c660000000000000000000000000000000000602082015250565b6000615dac602f836157f3565b9150615db782615d50565b604082019050919050565b60006020820190508181036000830152615ddb81615d9f565b9050919050565b7f4f6e6c792061646d696e2063616e20726566756e640000000000000000000000600082015250565b6000615e186015836157f3565b9150615e2382615de2565b602082019050919050565b60006020820190508181036000830152615e4781615e0b565b9050919050565b7f4f6e6c792062757965722063616e206465706f73697400000000000000000000600082015250565b6000615e846016836157f3565b9150615e8f82615e4e565b602082019050919050565b60006020820190508181036000830152615eb381615e77565b9050919050565b7f4465706f73697420646561646c696e6520706173736564000000000000000000600082015250565b6000615ef06017836157f3565b9150615efb82615eba565b602082019050919050565b60006020820190508181036000830152615f1f81615ee3565b9050919050565b7f4f6e6c79206167656e74206f722061646d696e2063616e207665726966790000600082015250565b6000615f5c601e836157f3565b9150615f6782615f26565b602082019050919050565b60006020820190508181036000830152615f8b81615f4f565b9050919050565b7f566572696669636174696f6e20646561646c696e652070617373656400000000600082015250565b6000615fc8601c836157f3565b9150615fd382615f92565b602082019050919050565b60006020820190508181036000830152615ff781615fbb565b9050919050565b7f52656c6561736520636f6e646974696f6e73206e6f74206d6574000000000000600082015250565b6000616034601a836157f3565b915061603f82615ffe565b602082019050919050565b6000602082019050818103600083015261606381616027565b9050919050565b7f4e487b7100000000000000000000000000000000000000000000000000000000600052601160045260246000fd5b60006160a482615004565b91506160af83615004565b92508282026160bd81615004565b915082820484148315176160d4576160d361606a565b5b5092915050565b7f4e487b7100000000000000000000000000000000000000000000000000000000600052601260045260246000fd5b600061611582615004565b915061612083615004565b9250826161305761612f6160db565b5b828204905092915050565b600061614682615004565b915061615183615004565b92508282039050818111156161695761616861606a565b5b92915050565b7f4e6f7420617574686f72697a656420666f72207468697320657363726f770000600082015250565b60006161a5601e836157f3565b91506161b08261616f565b602082019050919050565b600060208201905081810360008301526161d481616198565b9050919050565b7f43616e6e6f74206469737075746520696e2063757272656e7420737461746500600082015250565b6000616211601f836157f3565b915061621c826161db565b602082019050919050565b6000602082019050818103600083015261624081616204565b9050919050565b7f4469737075746520726561736f6e207265717569726564000000000000000000600082015250565b600061627d6017836157f3565b915061628882616247565b602082019050919050565b600060208201905081810360008301526162ac81616270565b9050919050565b6162bc82615420565b67ffffffffffffffff8111156162d5576162d4615a45565b5b6162df825461589f565b6162ea828285615b93565b600060209050601f83116001811461631d576000841561630b578287015190505b6163158582615c04565b86555061637d565b601f19841661632b86615a74565b60005b828110156163535784890151825560018201915060208501945060208101905061632e565b86831015616370578489015161636c601f891682615be6565b8355505b6001600288020188555050505b505050505050565b7f496e76616c696420627579657220616464726573730000000000000000000000600082015250565b60006163bb6015836157f3565b91506163c682616385565b602082019050919050565b600060208201905081810360008301526163ea816163ae565b9050919050565b7f496e76616c69642073656c6c6572206164647265737300000000000000000000600082015250565b60006164276016836157f3565b9150616432826163f1565b602082019050919050565b600060208201905081810360008301526164568161641a565b9050919050565b7f427579657220616e642073656c6c6572206d757374206265206469666665726560008201527f6e74000000000000000000000000000000000000000000000000000000000000602082015250565b60006164b96022836157f3565b91506164c48261645d565b604082019050919050565b600060208201905081810360008301526164e8816164ac565b9050919050565b7f496e76616c696420746f6b656e20616464726573730000000000000000000000600082015250565b60006165256015836157f3565b9150616530826164ef565b602082019050919050565b6000602082019050818103600083015261655481616518565b9050919050565b7f546f6b656e206e6f742077686974656c69737465640000000000000000000000600082015250565b60006165916015836157f3565b915061659c8261655b565b602082019050919050565b600060208201905081810360008301526165c081616584565b9050919050565b7f4465706f73697420616d6f756e74206d75737420626520706f73697469766500600082015250565b60006165fd601f836157f3565b9150616608826165c7565b602082019050919050565b6000602082019050818103600083015261662c816165f0565b9050919050565b7f496e76616c6964206465706f73697420646561646c696e650000000000000000600082015250565b60006166696018836157f3565b915061667482616633565b602082019050919050565b600060208201905081810360008301526166988161665c565b9050919050565b7f496e76616c696420766572696669636174696f6e20646561646c696e65000000600082015250565b60006166d5601d836157f3565b91506166e08261669f565b602082019050919050565b60006020820190508181036000830152616704816166c8565b9050919050565b600080fd5b600080fd5b600080fd5b60008235600160a0038336030381126167365761673561670b565b5b80830191505092915050565b6000808335600160200384360303811261675f5761675e61670b565b5b80840192508235915067ffffffffffffffff82111561678157616780616710565b5b60208301925060018202360383131561679d5761679c616715565b5b509250929050565b7f50726f7065727479204944207265717569726564000000000000000000000000600082015250565b60006167db6014836157f3565b91506167e6826167a5565b602082019050919050565b6000602082019050818103600083015261680a816167ce565b9050919050565b600061681c82615004565b91507fffffffffffffffffffffffffffffffffffffffffffffffffffffffffffffffff820361684e5761684d61606a565b5b600182019050919050565b616864838383615c20565b505050565b600081356168768161500e565b80915050919050565b60008160001b9050919050565b60007fffffffffffffffffffffffffffffffffffffffffffffffffffffffffffffffff6168b88461687f565b9350801983169250808416831791505092915050565b6168d782615b02565b6168ea6168e382615b24565b835461688c565b8255505050565b600081356168fe816150c5565b80915050919050565b600060ff6169148461687f565b9350801983169250808416831791505092915050565b600061693582614fce565b9050919050565b6000819050919050565b61694f8261692a565b61696261695b8261693c565b8354616907565b8255505050565b600081016000830161697b8185616742565b616986818386616859565b50505050600181016020830161699c8185616742565b6169a7818386616859565b505050506002810160408301806169bd81616869565b90506169c981846168ce565b50505060038101606083016169de8185616742565b6169e9818386616859565b505050506004810160808301806169ff816168f1565b9050616a0b8184616946565b5050505050565b616a1c8282616969565b5050565b7f427579657220616c726561647920617070726f76656400000000000000000000600082015250565b6000616a566016836157f3565b9150616a6182616a20565b602082019050919050565b60006020820190508181036000830152616a8581616a49565b9050919050565b7f53656c6c657220616c726561647920617070726f766564000000000000000000600082015250565b6000616ac26017836157f3565b9150616acd82616a8c565b602082019050919050565b60006020820190508181036000830152616af181616ab5565b9050919050565b7f4167656e7420616c726561647920617070726f76656400000000000000000000600082015250565b6000616b2e6016836157f3565b9150616b3982616af8565b602082019050919050565b60006020820190508181036000830152616b5d81616b21565b9050919050565b7f4e6f7420617574686f72697a656420746f20617070726f766500000000000000600082015250565b6000616b9a6019836157f3565b9150616ba582616b64565b602082019050919050565b60006020820190508181036000830152616bc981616b8d565b9050919050565b60058110616be157616be0615301565b5b50565b6000819050616bf282616bd0565b919050565b6000616c0282616be4565b9050919050565b616c1281616bf7565b82525050565b6000602082019050616c2d6000830184616c09565b92915050565b7f5265656e7472616e637947756172643a207265656e7472616e742063616c6c00600082015250565b6000616c69601f836157f3565b9150616c7482616c33565b602082019050919050565b60006020820190508181036000830152616c9881616c5c565b9050919050565b7f5061757361626c653a2070617573656400000000000000000000000000000000600082015250565b6000616cd56010836157f3565b9150616ce082616c9f565b602082019050919050565b60006020820190508181036000830152616d0481616cc8565b9050919050565b7f43616e6e6f7420726566756e6420696e2063757272656e742073746174650000600082015250565b6000616d41601e836157f3565b9150616d4c82616d0b565b602082019050919050565b60006020820190508181036000830152616d7081616d34565b9050919050565b6000606082019050616d8c60008301866157c9565b616d9960208301856157c9565b616da660408301846152d7565b949350505050565b6000604082019050616dc360008301856157c9565b616dd060208301846152d7565b9392505050565b600081905092915050565b7f416363657373436f6e74726f6c3a206163636f756e7420000000000000000000600082015250565b6000616e18601783616dd7565b9150616e2382616de2565b601782019050919050565b6000616e3982615420565b616e438185616dd7565b9350616e5381856020860161543c565b80840191505092915050565b7f206973206d697373696e6720726f6c6520000000000000000000000000000000600082015250565b6000616e95601183616dd7565b9150616ea082616e5f565b601182019050919050565b6000616eb682616e0b565b9150616ec28285616e2e565b9150616ecd82616e88565b9150616ed98284616e2e565b91508190509392505050565b6000616ef082615420565b616efa81856157f3565b9350616f0a81856020860161543c565b616f1381615466565b840191505092915050565b60006020820190508181036000830152616f388184616ee5565b905092915050565b600081519050616f4f816150c5565b92915050565b600060208284031215616f6b57616f6a614f3f565b5b6000616f7984828501616f40565b91505092915050565b7f5361666545524332303a204552433230206f7065726174696f6e20646964206e60008201527f6f74207375636365656400000000000000000000000000000000000000000000602082015250565b6000616fde602a836157f3565b9150616fe982616f82565b604082019050919050565b6000602082019050818103600083015261700d81616fd1565b9050919050565b7f5061757361626c653a206e6f7420706175736564000000000000000000000000600082015250565b600061704a6014836157f3565b915061705582617014565b602082019050919050565b600060208201905081810360008301526170798161703d565b9050919050565b600061708b82615004565b915061709683615004565b92508282019050808211156170ae576170ad61606a565b5b92915050565b7f4e487b7100000000000000000000000000000000000000000000000000000000600052603260045260246000fd5b60006170ee82615004565b9150600082036171015761710061606a565b5b600182039050919050565b7f537472696e67733a20686578206c656e67746820696e73756666696369656e74600082015250565b60006171426020836157f3565b915061714d8261710c565b602082019050919050565b6000602082019050818103600083015261717181617135565b9050919050565b7f416464726573733a20696e73756666696369656e742062616c616e636520666f60008201527f722063616c6c0000000000000000000000000000000000000000000000000000602082015250565b60006171d46026836157f3565b91506171df82617178565b604082019050919050565b60006020820190508181036000830152617203816171c7565b9050919050565b600081519050919050565b600081905092915050565b600061722b8261720a565b6172358185617215565b935061724581856020860161543c565b80840191505092915050565b600061725d8284617220565b915081905092915050565b7f416464726573733a2063616c6c20746f206e6f6e2d636f6e7472616374000000600082015250565b600061729e601d836157f3565b91506172a982617268565b602082019050919050565b600060208201905081810360008301526172cd81617291565b905091905056fea264697066735822122099b60e61a850ba35b1872794f7b6e73dd02da01f50bb9df494e0f94fe86ed42a64736f6c63430008160033416464726573733a206c6f772d6c6576656c2064656c65676174652063616c6c206661696c6564a264697066735822122084a89e5a62b77a0a0966ffb5a878e7e40fdfcfca06429092646cfa5270e995f964736f6c63430008160033",
  "linkReferences": {},
  "deployedLinkReferences": {}
}