{
  "_format": "hh-sol-artifact-1",
  "contractName": "ComplianceManager",
  "sourceName": "contracts/compliance/ComplianceManager.sol",
  "abi": [
    {
      "inputs": [
        {
          "internalType": "address",
          "name": "admin",
          "type": "address"
        }
      ],
      "stateMutability": "nonpayable",
      "type": "constructor"
    },
    {
      "anonymous": false,
      "inputs": [
        {
          "indexed": false,
          "internalType": "uint256",
          "name": "kycExpiryPeriod",
          "type": "uint256"
        },
        {
          "indexed": false,
          "internalType": "uint256",
          "name": "amlExpiryPeriod",
          "type": "uint256"
        },
        {
          "indexed": false,
          "internalType": "uint256",
          "name": "minimumKYCLevel",
          "type": "uint256"
        }
      ],
      "name": "ComplianceConfigUpdated",
      "type": "event"
    },
    {
      "anonymous": false,
      "inputs": [
        {
          "indexed": true,
          "internalType": "address",
          "name": "user",
          "type": "address"
        },
        {
          "indexed": false,
          "internalType": "enum ComplianceManager.KYCLevel",
          "name": "kycLevel",
          "type": "uint8"
        },
        {
          "indexed": false,
          "internalType": "enum ComplianceManager.AMLRisk",
          "name": "amlRisk",
          "type": "uint8"
        },
        {
          "indexed": false,
          "internalType": "string",
          "name": "jurisdiction",
          "type": "string"
        }
      ],
      "name": "ComplianceRecordCreated",
      "type": "event"
    },
    {
      "anonymous": false,
      "inputs": [
        {
          "indexed": true,
          "internalType": "address",
          "name": "user",
          "type": "address"
        },
        {
          "indexed": false,
          "internalType": "enum ComplianceManager.ComplianceStatus",
          "name": "oldStatus",
          "type": "uint8"
        },
        {
          "indexed": false,
          "internalType": "enum ComplianceManager.ComplianceStatus",
          "name": "newStatus",
          "type": "uint8"
        }
      ],
      "name": "ComplianceStatusUpdated",
      "type": "event"
    },
    {
      "anonymous": false,
      "inputs": [
        {
          "indexed": true,
          "internalType": "address",
          "name": "user",
          "type": "address"
        },
        {
          "indexed": false,
          "internalType": "string",
          "name": "reason",
          "type": "string"
        },
        {
          "indexed": false,
          "internalType": "uint256",
          "name": "timestamp",
          "type": "uint256"
        }
      ],
      "name": "ComplianceViolation",
      "type": "event"
    },
    {
      "anonymous": false,
      "inputs": [
        {
          "indexed": true,
          "internalType": "string",
          "name": "jurisdiction",
          "type": "string"
        },
        {
          "indexed": false,
          "internalType": "bool",
          "name": "approved",
          "type": "bool"
        }
      ],
      "name": "JurisdictionUpdated",
      "type": "event"
    },
    {
      "anonymous": false,
      "inputs": [
        {
          "indexed": false,
          "internalType": "address",
          "name": "account",
          "type": "address"
        }
      ],
      "name": "Paused",
      "type": "event"
    },
    {
      "anonymous": false,
      "inputs": [
        {
          "indexed": true,
          "internalType": "bytes32",
          "name": "role",
          "type": "bytes32"
        },
        {
          "indexed": true,
          "internalType": "bytes32",
          "name": "previousAdminRole",
          "type": "bytes32"
        },
        {
          "indexed": true,
          "internalType": "bytes32",
          "name": "newAdminRole",
          "type": "bytes32"
        }
      ],
      "name": "RoleAdminChanged",
      "type": "event"
    },
    {
      "anonymous": false,
      "inputs": [
        {
          "indexed": true,
          "internalType": "bytes32",
          "name": "role",
          "type": "bytes32"
        },
        {
          "indexed": true,
          "internalType": "address",
          "name": "account",
          "type": "address"
        },
        {
          "indexed": true,
          "internalType": "address",
          "name": "sender",
          "type": "address"
        }
      ],
      "name": "RoleGranted",
      "type": "event"
    },
    {
      "anonymous": false,
      "inputs": [
        {
          "indexed": true,
          "internalType": "bytes32",
          "name": "role",
          "type": "bytes32"
        },
        {
          "indexed": true,
          "internalType": "address",
          "name": "account",
          "type": "address"
        },
        {
          "indexed": true,
          "internalType": "address",
          "name": "sender",
          "type": "address"
        }
      ],
      "name": "RoleRevoked",
      "type": "event"
    },
    {
      "anonymous": false,
      "inputs": [
        {
          "indexed": false,
          "internalType": "address",
          "name": "account",
          "type": "address"
        }
      ],
      "name": "Unpaused",
      "type": "event"
    },
    {
      "inputs": [],
      "name": "AML_PROVIDER_ROLE",
      "outputs": [
        {
          "internalType": "bytes32",
          "name": "",
          "type": "bytes32"
        }
      ],
      "stateMutability": "view",
      "type": "function"
    },
    {
      "inputs": [],
      "name": "COMPLIANCE_OFFICER_ROLE",
      "outputs": [
        {
          "internalType": "bytes32",
          "name": "",
          "type": "bytes32"
        }
      ],
      "stateMutability": "view",
      "type": "function"
    },
    {
      "inputs": [],
      "name": "DEFAULT_ADMIN_ROLE",
      "outputs": [
        {
          "internalType": "bytes32",
          "name": "",
          "type": "bytes32"
        }
      ],
      "stateMutability": "view",
      "type": "function"
    },
    {
      "inputs": [],
      "name": "KYC_PROVIDER_ROLE",
      "outputs": [
        {
          "internalType": "bytes32",
          "name": "",
          "type": "bytes32"
        }
      ],
      "stateMutability": "view",
      "type": "function"
    },
    {
      "inputs": [],
      "name": "amlExpiryPeriod",
      "outputs": [
        {
          "internalType": "uint256",
          "name": "",
          "type": "uint256"
        }
      ],
      "stateMutability": "view",
      "type": "function"
    },
    {
      "inputs": [
        {
          "internalType": "string",
          "name": "",
          "type": "string"
        }
      ],
      "name": "approvedJurisdictions",
      "outputs": [
        {
          "internalType": "bool",
          "name": "",
          "type": "bool"
        }
      ],
      "stateMutability": "view",
      "type": "function"
    },
    {
      "inputs": [
        {
          "internalType": "address",
          "name": "",
          "type": "address"
        }
      ],
      "name": "complianceRecords",
      "outputs": [
        {
          "internalType": "address",
          "name": "user",
          "type": "address"
        },
        {
          "internalType": "enum ComplianceManager.KYCLevel",
          "name": "kycLevel",
          "type": "uint8"
        },
        {
          "internalType": "enum ComplianceManager.AMLRisk",
          "name": "amlRisk",
          "type": "uint8"
        },
        {
          "internalType": "enum ComplianceManager.ComplianceStatus",
          "name": "status",
          "type": "uint8"
        },
        {
          "internalType": "uint256",
          "name": "approvedAt",
          "type": "uint256"
        },
        {
          "internalType": "uint256",
          "name": "expiresAt",
          "type": "uint256"
        },
        {
          "internalType": "string",
          "name": "jurisdiction",
          "type": "string"
        },
        {
          "internalType": "string",
          "name": "providerRef",
          "type": "string"
        },
        {
          "internalType": "bool",
          "name": "sanctionsCheck",
          "type": "bool"
        },
        {
          "internalType": "bool",
          "name": "pepCheck",
          "type": "bool"
        }
      ],
      "stateMutability": "view",
      "type": "function"
    },
    {
      "inputs": [],
      "name": "complianceRequired",
      "outputs": [
        {
          "internalType": "bool",
          "name": "",
          "type": "bool"
        }
      ],
      "stateMutability": "view",
      "type": "function"
    },
    {
      "inputs": [
        {
          "internalType": "address",
          "name": "user",
          "type": "address"
        },
        {
          "internalType": "enum ComplianceManager.KYCLevel",
          "name": "kycLevel",
          "type": "uint8"
        },
        {
          "internalType": "enum ComplianceManager.AMLRisk",
          "name": "amlRisk",
          "type": "uint8"
        },
        {
          "internalType": "string",
          "name": "jurisdiction",
          "type": "string"
        },
        {
          "internalType": "string",
          "name": "providerRef",
          "type": "string"
        },
        {
          "internalType": "bool",
          "name": "sanctionsCheck",
          "type": "bool"
        },
        {
          "internalType": "bool",
          "name": "pepCheck",
          "type": "bool"
        }
      ],
      "name": "createComplianceRecord",
      "outputs": [],
      "stateMutability": "nonpayable",
      "type": "function"
    },
    {
      "inputs": [
        {
          "internalType": "bytes32",
          "name": "role",
          "type": "bytes32"
        }
      ],
      "name": "getRoleAdmin",
      "outputs": [
        {
          "internalType": "bytes32",
          "name": "",
          "type": "bytes32"
        }
      ],
      "stateMutability": "view",
      "type": "function"
    },
    {
      "inputs": [
        {
          "internalType": "bytes32",
          "name": "role",
          "type": "bytes32"
        },
        {
          "internalType": "address",
          "name": "account",
          "type": "address"
        }
      ],
      "name": "grantRole",
      "outputs": [],
      "stateMutability": "nonpayable",
      "type": "function"
    },
    {
      "inputs": [
        {
          "internalType": "bytes32",
          "name": "role",
          "type": "bytes32"
        },
        {
          "internalType": "address",
          "name": "account",
          "type": "address"
        }
      ],
      "name": "hasRole",
      "outputs": [
        {
          "internalType": "bool",
          "name": "",
          "type": "bool"
        }
      ],
      "stateMutability": "view",
      "type": "function"
    },
    {
      "inputs": [
        {
          "internalType": "address",
          "name": "user",
          "type": "address"
        }
      ],
      "name": "isCompliant",
      "outputs": [
        {
          "internalType": "bool",
          "name": "",
          "type": "bool"
        }
      ],
      "stateMutability": "view",
      "type": "function"
    },
    {
      "inputs": [],
      "name": "kycExpiryPeriod",
      "outputs": [
        {
          "internalType": "uint256",
          "name": "",
          "type": "uint256"
        }
      ],
      "stateMutability": "view",
      "type": "function"
    },
    {
      "inputs": [],
      "name": "minimumKYCLevel",
      "outputs": [
        {
          "internalType": "uint256",
          "name": "",
          "type": "uint256"
        }
      ],
      "stateMutability": "view",
      "type": "function"
    },
    {
      "inputs": [],
      "name": "paused",
      "outputs": [
        {
          "internalType": "bool",
          "name": "",
          "type": "bool"
        }
      ],
      "stateMutability": "view",
      "type": "function"
    },
    {
      "inputs": [
        {
          "internalType": "bytes32",
          "name": "role",
          "type": "bytes32"
        },
        {
          "internalType": "address",
          "name": "account",
          "type": "address"
        }
      ],
      "name": "renounceRole",
      "outputs": [],
      "stateMutability": "nonpayable",
      "type": "function"
    },
    {
      "inputs": [
        {
          "internalType": "string",
          "name": "",
          "type": "string"
        }
      ],
      "name": "restrictedJurisdictions",
      "outputs": [
        {
          "internalType": "bool",
          "name": "",
          "type": "bool"
        }
      ],
      "stateMutability": "view",
      "type": "function"
    },
    {
      "inputs": [
        {
          "internalType": "bytes32",
          "name": "role",
          "type": "bytes32"
        },
        {
          "internalType": "address",
          "name": "account",
          "type": "address"
        }
      ],
      "name": "revokeRole",
      "outputs": [],
      "stateMutability": "nonpayable",
      "type": "function"
    },
    {
      "inputs": [
        {
          "internalType": "bytes4",
          "name": "interfaceId",
          "type": "bytes4"
        }
      ],
      "name": "supportsInterface",
      "outputs": [
        {
          "internalType": "bool",
          "name": "",
          "type": "bool"
        }
      ],
      "stateMutability": "view",
      "type": "function"
    },
    {
      "inputs": [
        {
          "internalType": "address",
          "name": "user",
          "type": "address"
        },
        {
          "internalType": "enum ComplianceManager.ComplianceStatus",
          "name": "newStatus",
          "type": "uint8"
        },
        {
          "internalType": "string",
          "name": "reason",
          "type": "string"
        }
      ],
      "name": "updateComplianceStatus",
      "outputs": [],
      "stateMutability": "nonpayable",
      "type": "function"
    },
    {
      "inputs": [
        {
          "internalType": "address",
          "name": "buyer",
          "type": "address"
        },
        {
          "internalType": "address",
          "name": "seller",
          "type": "address"
        },
        {
          "internalType": "uint256",
          "name": "amount",
          "type": "uint256"
        }
      ],
      "name": "validateTransaction",
      "outputs": [
        {
          "internalType": "bool",
          "name": "valid",
          "type": "bool"
        },
        {
          "internalType": "string",
          "name": "reason",
          "type": "string"
        }
      ],
      "stateMutability": "view",
      "type": "function"
    }
  ],
  "bytecode": "0x60806040526301e133806006556276a70060075560016008556009805460ff191660011790553480156200003257600080fd5b5060405162001e6e38038062001e6e833981016040819052620000559162000207565b6001805460ff191681556002556200006f60008262000166565b6200009b7fb6f0283bd1ed00c6aa7e988a7516070240f3610a34d167391359b648eb37cefc8262000166565b60016004604051620000b59061555360f01b815260020190565b90815260408051918290036020018220805493151560ff1994851617905561554b60f01b8252600460028084018290528251938490036022908101852080548716600190811790915561455560f01b865285830184905284519586900382018620805488168217905561434160f01b865285830184905284519586900382018620805488168217905561415560f01b8652918501929092529151928390030190912080549092161790555062000239565b6000828152602081815260408083206001600160a01b038516845290915290205460ff1662000203576000828152602081815260408083206001600160a01b03851684529091529020805460ff19166001179055620001c23390565b6001600160a01b0316816001600160a01b0316837f2f8788117e7eff1d82e926ec794901d17c78024a50270940304540a733656f0d60405160405180910390a45b5050565b6000602082840312156200021a57600080fd5b81516001600160a01b03811681146200023257600080fd5b9392505050565b611c2580620002496000396000f3fe608060405234801561001057600080fd5b50600436106101425760003560e01c80635c975abb116100b8578063b0b04e331161007c578063b0b04e33146102e9578063c22397ff14610310578063c3bb386114610331578063d547741f1461033a578063d9e1063d1461034d578063dc2b50601461037457600080fd5b80635c975abb146102a757806391d14854146102b2578063a200e5d0146102c5578063a217fddf146102d8578063a250d107146102e057600080fd5b8063248a9ca31161010a578063248a9ca3146101d95780632b85fc99146101fc5780632f2ff15d1461022557806336568abe146102385780633f454a961461024b578063551bece61461027957600080fd5b806301ffc9a714610147578063186458311461016f578063198596b5146101845780631be3ef2d146101b957806321af2540146101c6575b600080fd5b61015a610155366004611449565b61037d565b60405190151581526020015b60405180910390f35b61018261017d3660046114d8565b6103b4565b005b6101ab7fb6f0283bd1ed00c6aa7e988a7516070240f3610a34d167391359b648eb37cefc81565b604051908152602001610166565b60095461015a9060ff1681565b6101826101d436600461155a565b610546565b6101ab6101e7366004611625565b60009081526020819052604090206001015490565b61020f61020a36600461163e565b6108a4565b6040516101669a999897969594939291906116e3565b610182610233366004611772565b610a24565b610182610246366004611772565b610a4e565b61015a6102593660046117b4565b805160208183018101805160048252928201919093012091525460ff1681565b61015a6102873660046117b4565b805160208183018101805160058252928201919093012091525460ff1681565b60015460ff1661015a565b61015a6102c0366004611772565b610acc565b61015a6102d336600461163e565b610af5565b6101ab600081565b6101ab60085481565b6101ab7f33e26563bb47f6c58011d77bcac0c19f2fbb8ba8738a01d2a759e466fa0d916a81565b61032361031e366004611865565b610de1565b6040516101669291906118a1565b6101ab60065481565b610182610348366004611772565b610ff0565b6101ab7f6c4079fcac94e7142d8c209744c998efe53a188aadb7e55958f7ad3ea8a1d65281565b6101ab60075481565b60006001600160e01b03198216637965db0b60e01b14806103ae57506301ffc9a760e01b6001600160e01b03198316145b92915050565b7fb6f0283bd1ed00c6aa7e988a7516070240f3610a34d167391359b648eb37cefc6103de81611015565b6001600160a01b038086166000908152600360205260409020805490911661044d5760405162461bcd60e51b815260206004820152601b60248201527f436f6d706c69616e6365207265636f7264206e6f7420666f756e64000000000060448201526064015b60405180910390fd5b8054600160b01b80820460ff16918791849160ff60b01b19169083600481111561047957610479611659565b0217905550866001600160a01b03167f0649951c1b4f143bec0c7f26bb14f3a2e6b0b0157e47e9f8c647e29b852022e682886040516104b99291906118bc565b60405180910390a260028660048111156104d5576104d5611659565b14806104f2575060048660048111156104f0576104f0611659565b145b1561053d57866001600160a01b03167fe9aec22c81d6532fbe3b197ee399a3c37023ba155f7477efb8a88f2153eb066686864260405161053493929190611900565b60405180910390a25b50505050505050565b7fb6f0283bd1ed00c6aa7e988a7516070240f3610a34d167391359b648eb37cefc61057081611015565b6001600160a01b038a166105bd5760405162461bcd60e51b8152602060048201526014602482015273496e76616c69642075736572206164647265737360601b6044820152606401610444565b600487876040516105cf929190611924565b9081526040519081900360200190205460ff1661062e5760405162461bcd60e51b815260206004820152601960248201527f4a7572697364696374696f6e206e6f7420617070726f766564000000000000006044820152606401610444565b60058787604051610640929190611924565b9081526040519081900360200190205460ff16156106a05760405162461bcd60e51b815260206004820152601760248201527f4a7572697364696374696f6e20726573747269637465640000000000000000006044820152606401610444565b6001600160a01b038a16600081815260036020819052604090912080546001600160a01b0319811684178255909260ff600160b01b8304169242928e9286926001600160a81b03199092161790600160a01b90849081111561070457610704611659565b021790555082548b90849060ff60a81b1916600160a81b83600381111561072d5761072d611659565b021790555061073e8c8c8888611022565b8354849060ff60b01b1916600160b01b83600481111561076057610760611659565b0217905550600183018190556107768c8c6110c6565b610780908261194a565b6002840155600383016107948a8c836119e7565b50600483016107a4888a836119e7565b5060058301805461ffff191687151561ff00191617610100871515021790556040516001600160a01b038e16907f83a3249343aaf012ccb591e1438c530837d255b80cb6747a658a5aa12ca8544990610804908f908f908f908f90611aa8565b60405180910390a28254600160b01b900460ff16600481111561082957610829611659565b82600481111561083b5761083b611659565b14610895578c6001600160a01b03167f0649951c1b4f143bec0c7f26bb14f3a2e6b0b0157e47e9f8c647e29b852022e6838560000160169054906101000a900460ff1660405161088c9291906118bc565b60405180910390a25b50505050505050505050505050565b600360208190526000918252604090912080546001820154600283015493830180546001600160a01b0384169560ff600160a01b8604811696600160a81b8704821696600160b01b9004909116949391929091906109019061195d565b80601f016020809104026020016040519081016040528092919081815260200182805461092d9061195d565b801561097a5780601f1061094f5761010080835404028352916020019161097a565b820191906000526020600020905b81548152906001019060200180831161095d57829003601f168201915b50505050509080600401805461098f9061195d565b80601f01602080910402602001604051908101604052809291908181526020018280546109bb9061195d565b8015610a085780601f106109dd57610100808354040283529160200191610a08565b820191906000526020600020905b8154815290600101906020018083116109eb57829003601f168201915b5050506005909301549192505060ff808216916101009004168a565b600082815260208190526040902060010154610a3f81611015565b610a498383611159565b505050565b6001600160a01b0381163314610abe5760405162461bcd60e51b815260206004820152602f60248201527f416363657373436f6e74726f6c3a2063616e206f6e6c792072656e6f756e636560448201526e103937b632b9903337b91039b2b63360891b6064820152608401610444565b610ac882826111dd565b5050565b6000918252602082815260408084206001600160a01b0393909316845291905290205460ff1690565b60095460009060ff16610b0a57506001919050565b6001600160a01b0382811660009081526003602081815260408084208151610140810190925280549586168252939490939291840191600160a01b90910460ff1690811115610b5b57610b5b611659565b6003811115610b6c57610b6c611659565b81528154602090910190600160a81b900460ff166003811115610b9157610b91611659565b6003811115610ba257610ba2611659565b81528154602090910190600160b01b900460ff166004811115610bc757610bc7611659565b6004811115610bd857610bd8611659565b81526020016001820154815260200160028201548152602001600382018054610c009061195d565b80601f0160208091040260200160405190810160405280929190818152602001828054610c2c9061195d565b8015610c795780601f10610c4e57610100808354040283529160200191610c79565b820191906000526020600020905b815481529060010190602001808311610c5c57829003601f168201915b50505050508152602001600482018054610c929061195d565b80601f0160208091040260200160405190810160405280929190818152602001828054610cbe9061195d565b8015610d0b5780601f10610ce057610100808354040283529160200191610d0b565b820191906000526020600020905b815481529060010190602001808311610cee57829003601f168201915b50505091835250506005919091015460ff8082161515602084015261010090910416151560409091015280519091506001600160a01b0316610d505750600092915050565b600181606001516004811115610d6857610d68611659565b14610d765750600092915050565b428160a0015111610d8a5750600092915050565b60085481602001516003811115610da357610da3611659565b1015610db25750600092915050565b600381604001516003811115610dca57610dca611659565b03610dd85750600092915050565b50600192915050565b60095460009060609060ff16610e2f57505060408051808201909152601781527f436f6d706c69616e6365206e6f742072657175697265640000000000000000006020820152600190610fe8565b82600003610e7557505060408051808201909152601a81527f496e76616c6964207472616e73616374696f6e20616d6f756e740000000000006020820152600090610fe8565b604051630a200e5d60e41b81526001600160a01b0386166004820152309063a200e5d090602401602060405180830381865afa158015610eb9573d6000803e3d6000fd5b505050506040513d601f19601f82011682018060405250810190610edd9190611ae4565b610f15575050604080518082019091526013815272109d5e595c881b9bdd0818dbdb5c1b1a585b9d606a1b6020820152600090610fe8565b604051630a200e5d60e41b81526001600160a01b0385166004820152309063a200e5d090602401602060405180830381865afa158015610f59573d6000803e3d6000fd5b505050506040513d601f19601f82011682018060405250810190610f7d9190611ae4565b610fb657505060408051808201909152601481527314d95b1b195c881b9bdd0818dbdb5c1b1a585b9d60621b6020820152600090610fe8565b5050604080518082019091526015815274151c985b9cd858dd1a5bdb8818dbdb5c1b1a585b9d605a1b60208201526001905b935093915050565b60008281526020819052604090206001015461100b81611015565b610a4983836111dd565b61101f8133611242565b50565b6000600384600381111561103857611038611659565b1480611042575082155b1561104f575060026110be565b600284600381111561106357611063611659565b148061106c5750815b15611079575060006110be565b600185600381111561108d5761108d611659565b101580156110ad575060018460038111156110aa576110aa611659565b11155b156110ba575060016110be565b5060005b949350505050565b600060028260038111156110dc576110dc611659565b036110f75760026007546110f09190611b01565b90506103ae565b600283600381111561110b5761110b611659565b14806111285750600383600381111561112657611126611659565b145b1561113657506006546103ae565b6002600754600654611148919061194a565b6111529190611b01565b9392505050565b6111638282610acc565b610ac8576000828152602081815260408083206001600160a01b03851684529091529020805460ff191660011790556111993390565b6001600160a01b0316816001600160a01b0316837f2f8788117e7eff1d82e926ec794901d17c78024a50270940304540a733656f0d60405160405180910390a45050565b6111e78282610acc565b15610ac8576000828152602081815260408083206001600160a01b0385168085529252808320805460ff1916905551339285917ff6391f5c32d9c69d2a47ea670b442974b53935d1edc7fd64eb21e047a839171b9190a45050565b61124c8282610acc565b610ac8576112598161129b565b6112648360206112ad565b604051602001611275929190611b23565b60408051601f198184030181529082905262461bcd60e51b825261044491600401611b98565b60606103ae6001600160a01b03831660145b606060006112bc836002611bab565b6112c790600261194a565b67ffffffffffffffff8111156112df576112df61179e565b6040519080825280601f01601f191660200182016040528015611309576020820181803683370190505b509050600360fc1b8160008151811061132457611324611bc2565b60200101906001600160f81b031916908160001a905350600f60fb1b8160018151811061135357611353611bc2565b60200101906001600160f81b031916908160001a9053506000611377846002611bab565b61138290600161194a565b90505b60018111156113fa576f181899199a1a9b1b9c1cb0b131b232b360811b85600f16601081106113b6576113b6611bc2565b1a60f81b8282815181106113cc576113cc611bc2565b60200101906001600160f81b031916908160001a90535060049490941c936113f381611bd8565b9050611385565b5083156111525760405162461bcd60e51b815260206004820181905260248201527f537472696e67733a20686578206c656e67746820696e73756666696369656e746044820152606401610444565b60006020828403121561145b57600080fd5b81356001600160e01b03198116811461115257600080fd5b80356001600160a01b038116811461148a57600080fd5b919050565b60008083601f8401126114a157600080fd5b50813567ffffffffffffffff8111156114b957600080fd5b6020830191508360208285010111156114d157600080fd5b9250929050565b600080600080606085870312156114ee57600080fd5b6114f785611473565b935060208501356005811061150b57600080fd5b9250604085013567ffffffffffffffff81111561152757600080fd5b6115338782880161148f565b95989497509550505050565b6004811061101f57600080fd5b801515811461101f57600080fd5b600080600080600080600080600060e08a8c03121561157857600080fd5b6115818a611473565b985060208a01356115918161153f565b975060408a01356115a18161153f565b965060608a013567ffffffffffffffff808211156115be57600080fd5b6115ca8d838e0161148f565b909850965060808c01359150808211156115e357600080fd5b506115f08c828d0161148f565b90955093505060a08a01356116048161154c565b915060c08a01356116148161154c565b809150509295985092959850929598565b60006020828403121561163757600080fd5b5035919050565b60006020828403121561165057600080fd5b61115282611473565b634e487b7160e01b600052602160045260246000fd5b6004811061101f5761101f611659565b6005811061168f5761168f611659565b9052565b60005b838110156116ae578181015183820152602001611696565b50506000910152565b600081518084526116cf816020860160208601611693565b601f01601f19169290920160200192915050565b6001600160a01b038b16815260006101406116fd8c61166f565b8b602084015261170c8b61166f565b8a604084015261171f606084018b61167f565b8860808401528760a08401528060c084015261173d818401886116b7565b905082810360e084015261175181876116b7565b94151561010084015250509015156101209091015298975050505050505050565b6000806040838503121561178557600080fd5b8235915061179560208401611473565b90509250929050565b634e487b7160e01b600052604160045260246000fd5b6000602082840312156117c657600080fd5b813567ffffffffffffffff808211156117de57600080fd5b818401915084601f8301126117f257600080fd5b8135818111156118045761180461179e565b604051601f8201601f19908116603f0116810190838211818310171561182c5761182c61179e565b8160405282815287602084870101111561184557600080fd5b826020860160208301376000928101602001929092525095945050505050565b60008060006060848603121561187a57600080fd5b61188384611473565b925061189160208501611473565b9150604084013590509250925092565b82151581526040602082015260006110be60408301846116b7565b604081016118ca828561167f565b611152602083018461167f565b81835281816020850137506000828201602090810191909152601f909101601f19169091010190565b6040815260006119146040830185876118d7565b9050826020830152949350505050565b8183823760009101908152919050565b634e487b7160e01b600052601160045260246000fd5b808201808211156103ae576103ae611934565b600181811c9082168061197157607f821691505b60208210810361199157634e487b7160e01b600052602260045260246000fd5b50919050565b601f821115610a49576000816000526020600020601f850160051c810160208610156119c05750805b601f850160051c820191505b818110156119df578281556001016119cc565b505050505050565b67ffffffffffffffff8311156119ff576119ff61179e565b611a1383611a0d835461195d565b83611997565b6000601f841160018114611a475760008515611a2f5750838201355b600019600387901b1c1916600186901b178355611aa1565b600083815260209020601f19861690835b82811015611a785786850135825560209485019460019092019101611a58565b5086821015611a955760001960f88860031b161c19848701351681555b505060018560011b0183555b5050505050565b611ab18561166f565b848152611abd8461166f565b836020820152606060408201526000611ada6060830184866118d7565b9695505050505050565b600060208284031215611af657600080fd5b81516111528161154c565b600082611b1e57634e487b7160e01b600052601260045260246000fd5b500490565b7f416363657373436f6e74726f6c3a206163636f756e7420000000000000000000815260008351611b5b816017850160208801611693565b7001034b99036b4b9b9b4b733903937b6329607d1b6017918401918201528351611b8c816028840160208801611693565b01602801949350505050565b60208152600061115260208301846116b7565b80820281158282048414176103ae576103ae611934565b634e487b7160e01b600052603260045260246000fd5b600081611be757611be7611934565b50600019019056fea2646970667358221220bdac68bf317d31dd989b1011850448b1b8731baa13b03c06b8b32f1195c809c764736f6c63430008160033",
  "linkReferences": {},
  "deployedLinkReferences": {}
}