{
  "_format": "hh-sol-artifact-1",
  "contractName": "ComplianceManager",
  "sourceName": "contracts/compliance/ComplianceManager.sol",
  "abi": [
    {
      "inputs": [
        {
          "internalType": "address",
          "name": "admin",
          "type": "address"
        }
      ],
      "stateMutability": "nonpayable",
      "type": "constructor"
    },
    {
      "anonymous": false,
      "inputs": [
        {
          "indexed": false,
          "internalType": "uint256",
          "name": "kycExpiryPeriod",
          "type": "uint256"
        },
        {
          "indexed": false,
          "internalType": "uint256",
          "name": "amlExpiryPeriod",
          "type": "uint256"
        },
        {
          "indexed": false,
          "internalType": "uint256",
          "name": "minimumKYCLevel",
          "type": "uint256"
        }
      ],
      "name": "ComplianceConfigUpdated",
      "type": "event"
    },
    {
      "anonymous": false,
      "inputs": [
        {
          "indexed": true,
          "internalType": "address",
          "name": "user",
          "type": "address"
        },
        {
          "indexed": false,
          "internalType": "enum ComplianceManager.KYCLevel",
          "name": "kycLevel",
          "type": "uint8"
        },
        {
          "indexed": false,
          "internalType": "enum ComplianceManager.AMLRisk",
          "name": "amlRisk",
          "type": "uint8"
        },
        {
          "indexed": false,
          "internalType": "string",
          "name": "jurisdiction",
          "type": "string"
        }
      ],
      "name": "ComplianceRecordCreated",
      "type": "event"
    },
    {
      "anonymous": false,
      "inputs": [
        {
          "indexed": true,
          "internalType": "address",
          "name": "user",
          "type": "address"
        },
        {
          "indexed": false,
          "internalType": "enum ComplianceManager.ComplianceStatus",
          "name": "oldStatus",
          "type": "uint8"
        },
        {
          "indexed": false,
          "internalType": "enum ComplianceManager.ComplianceStatus",
          "name": "newStatus",
          "type": "uint8"
        }
      ],
      "name": "ComplianceStatusUpdated",
      "type": "event"
    },
    {
      "anonymous": false,
      "inputs": [
        {
          "indexed": true,
          "internalType": "address",
          "name": "user",
          "type": "address"
        },
        {
          "indexed": false,
          "internalType": "string",
          "name": "reason",
          "type": "string"
        },
        {
          "indexed": false,
          "internalType": "uint256",
          "name": "timestamp",
          "type": "uint256"
        }
      ],
      "name": "ComplianceViolation",
      "type": "event"
    },
    {
      "anonymous": false,
      "inputs": [
        {
          "indexed": true,
          "internalType": "string",
          "name": "jurisdiction",
          "type": "string"
        },
        {
          "indexed": false,
          "internalType": "bool",
          "name": "approved",
          "type": "bool"
        }
      ],
      "name": "JurisdictionUpdated",
      "type": "event"
    },
    {
      "anonymous": false,
      "inputs": [
        {
          "indexed": false,
          "internalType": "address",
          "name": "account",
          "type": "address"
        }
      ],
      "name": "Paused",
      "type": "event"
    },
    {
      "anonymous": false,
      "inputs": [
        {
          "indexed": true,
          "internalType": "bytes32",
          "name": "role",
          "type": "bytes32"
        },
        {
          "indexed": true,
          "internalType": "bytes32",
          "name": "previousAdminRole",
          "type": "bytes32"
        },
        {
          "indexed": true,
          "internalType": "bytes32",
          "name": "newAdminRole",
          "type": "bytes32"
        }
      ],
      "name": "RoleAdminChanged",
      "type": "event"
    },
    {
      "anonymous": false,
      "inputs": [
        {
          "indexed": true,
          "internalType": "bytes32",
          "name": "role",
          "type": "bytes32"
        },
        {
          "indexed": true,
          "internalType": "address",
          "name": "account",
          "type": "address"
        },
        {
          "indexed": true,
          "internalType": "address",
          "name": "sender",
          "type": "address"
        }
      ],
      "name": "RoleGranted",
      "type": "event"
    },
    {
      "anonymous": false,
      "inputs": [
        {
          "indexed": true,
          "internalType": "bytes32",
          "name": "role",
          "type": "bytes32"
        },
        {
          "indexed": true,
          "internalType": "address",
          "name": "account",
          "type": "address"
        },
        {
          "indexed": true,
          "internalType": "address",
          "name": "sender",
          "type": "address"
        }
      ],
      "name": "RoleRevoked",
      "type": "event"
    },
    {
      "anonymous": false,
      "inputs": [
        {
          "indexed": false,
          "internalType": "address",
          "name": "account",
          "type": "address"
        }
      ],
      "name": "Unpaused",
      "type": "event"
    },
    {
      "inputs": [],
      "name": "AML_PROVIDER_ROLE",
      "outputs": [
        {
          "internalType": "bytes32",
          "name": "",
          "type": "bytes32"
        }
      ],
      "stateMutability": "view",
      "type": "function"
    },
    {
      "inputs": [],
      "name": "COMPLIANCE_OFFICER_ROLE",
      "outputs": [
        {
          "internalType": "bytes32",
          "name": "",
          "type": "bytes32"
        }
      ],
      "stateMutability": "view",
      "type": "function"
    },
    {
      "inputs": [],
      "name": "DEFAULT_ADMIN_ROLE",
      "outputs": [
        {
          "internalType": "bytes32",
          "name": "",
          "type": "bytes32"
        }
      ],
      "stateMutability": "view",
      "type": "function"
    },
    {
      "inputs": [],
      "name": "KYC_PROVIDER_ROLE",
      "outputs": [
        {
          "internalType": "bytes32",
          "name": "",
          "type": "bytes32"
        }
      ],
      "stateMutability": "view",
      "type": "function"
    },
    {
      "inputs": [],
      "name": "amlExpiryPeriod",
      "outputs": [
        {
          "internalType": "uint256",
          "name": "",
          "type": "uint256"
        }
      ],
      "stateMutability": "view",
      "type": "function"
    },
    {
      "inputs": [
        {
          "internalType": "string",
          "name": "",
          "type": "string"
        }
      ],
      "name": "approvedJurisdictions",
      "outputs": [
        {
          "internalType": "bool",
          "name": "",
          "type": "bool"
        }
      ],
      "stateMutability": "view",
      "type": "function"
    },
    {
      "inputs": [
        {
          "internalType": "address",
          "name": "",
          "type": "address"
        }
      ],
      "name": "complianceRecords",
      "outputs": [
        {
          "internalType": "address",
          "name": "user",
          "type": "address"
        },
        {
          "internalType": "enum ComplianceManager.KYCLevel",
          "name": "kycLevel",
          "type": "uint8"
        },
        {
          "internalType": "enum ComplianceManager.AMLRisk",
          "name": "amlRisk",
          "type": "uint8"
        },
        {
          "internalType": "enum ComplianceManager.ComplianceStatus",
          "name": "status",
          "type": "uint8"
        },
        {
          "internalType": "uint256",
          "name": "approvedAt",
          "type": "uint256"
        },
        {
          "internalType": "uint256",
          "name": "expiresAt",
          "type": "uint256"
        },
        {
          "internalType": "string",
          "name": "jurisdiction",
          "type": "string"
        },
        {
          "internalType": "string",
          "name": "providerRef",
          "type": "string"
        },
        {
          "internalType": "bool",
          "name": "sanctionsCheck",
          "type": "bool"
        },
        {
          "internalType": "bool",
          "name": "pepCheck",
          "type": "bool"
        }
      ],
      "stateMutability": "view",
      "type": "function"
    },
    {
      "inputs": [],
      "name": "complianceRequired",
      "outputs": [
        {
          "internalType": "bool",
          "name": "",
          "type": "bool"
        }
      ],
      "stateMutability": "view",
      "type": "function"
    },
    {
      "inputs": [
        {
          "internalType": "address",
          "name": "user",
          "type": "address"
        },
        {
          "internalType": "enum ComplianceManager.KYCLevel",
          "name": "kycLevel",
          "type": "uint8"
        },
        {
          "internalType": "enum ComplianceManager.AMLRisk",
          "name": "amlRisk",
          "type": "uint8"
        },
        {
          "internalType": "string",
          "name": "jurisdiction",
          "type": "string"
        },
        {
          "internalType": "string",
          "name": "providerRef",
          "type": "string"
        },
        {
          "internalType": "bool",
          "name": "sanctionsCheck",
          "type": "bool"
        },
        {
          "internalType": "bool",
          "name": "pepCheck",
          "type": "bool"
        }
      ],
      "name": "createComplianceRecord",
      "outputs": [],
      "stateMutability": "nonpayable",
      "type": "function"
    },
    {
      "inputs": [
        {
          "internalType": "bytes32",
          "name": "role",
          "type": "bytes32"
        }
      ],
      "name": "getRoleAdmin",
      "outputs": [
        {
          "internalType": "bytes32",
          "name": "",
          "type": "bytes32"
        }
      ],
      "stateMutability": "view",
      "type": "function"
    },
    {
      "inputs": [
        {
          "internalType": "bytes32",
          "name": "role",
          "type": "bytes32"
        },
        {
          "internalType": "address",
          "name": "account",
          "type": "address"
        }
      ],
      "name": "grantRole",
      "outputs": [],
      "stateMutability": "nonpayable",
      "type": "function"
    },
    {
      "inputs": [
        {
          "internalType": "bytes32",
          "name": "role",
          "type": "bytes32"
        },
        {
          "internalType": "address",
          "name": "account",
          "type": "address"
        }
      ],
      "name": "hasRole",
      "outputs": [
        {
          "internalType": "bool",
          "name": "",
          "type": "bool"
        }
      ],
      "stateMutability": "view",
      "type": "function"
    },
    {
      "inputs": [
        {
          "internalType": "address",
          "name": "user",
          "type": "address"
        }
      ],
      "name": "isCompliant",
      "outputs": [
        {
          "internalType": "bool",
          "name": "",
          "type": "bool"
        }
      ],
      "stateMutability": "view",
      "type": "function"
    },
    {
      "inputs": [],
      "name": "kycExpiryPeriod",
      "outputs": [
        {
          "internalType": "uint256",
          "name": "",
          "type": "uint256"
        }
      ],
      "stateMutability": "view",
      "type": "function"
    },
    {
      "inputs": [],
      "name": "minimumKYCLevel",
      "outputs": [
        {
          "internalType": "uint256",
          "name": "",
          "type": "uint256"
        }
      ],
      "stateMutability": "view",
      "type": "function"
    },
    {
      "inputs": [],
      "name": "paused",
      "outputs": [
        {
          "internalType": "bool",
          "name": "",
          "type": "bool"
        }
      ],
      "stateMutability": "view",
      "type": "function"
    },
    {
      "inputs": [
        {
          "internalType": "bytes32",
          "name": "role",
          "type": "bytes32"
        },
        {
          "internalType": "address",
          "name": "account",
          "type": "address"
        }
      ],
      "name": "renounceRole",
      "outputs": [],
      "stateMutability": "nonpayable",
      "type": "function"
    },
    {
      "inputs": [
        {
          "internalType": "string",
          "name": "",
          "type": "string"
        }
      ],
      "name": "restrictedJurisdictions",
      "outputs": [
        {
          "internalType": "bool",
          "name": "",
          "type": "bool"
        }
      ],
      "stateMutability": "view",
      "type": "function"
    },
    {
      "inputs": [
        {
          "internalType": "bytes32",
          "name": "role",
          "type": "bytes32"
        },
        {
          "internalType": "address",
          "name": "account",
          "type": "address"
        }
      ],
      "name": "revokeRole",
      "outputs": [],
      "stateMutability": "nonpayable",
      "type": "function"
    },
    {
      "inputs": [
        {
          "internalType": "bytes4",
          "name": "interfaceId",
          "type": "bytes4"
        }
      ],
      "name": "supportsInterface",
      "outputs": [
        {
          "internalType": "bool",
          "name": "",
          "type": "bool"
        }
      ],
      "stateMutability": "view",
      "type": "function"
    },
    {
      "inputs": [
        {
          "internalType": "address",
          "name": "user",
          "type": "address"
        },
        {
          "internalType": "enum ComplianceManager.ComplianceStatus",
          "name": "newStatus",
          "type": "uint8"
        },
        {
          "internalType": "string",
          "name": "reason",
          "type": "string"
        }
      ],
      "name": "updateComplianceStatus",
      "outputs": [],
      "stateMutability": "nonpayable",
      "type": "function"
    },
    {
      "inputs": [
        {
          "internalType": "address",
          "name": "buyer",
          "type": "address"
        },
        {
          "internalType": "address",
          "name": "seller",
          "type": "address"
        },
        {
          "internalType": "uint256",
          "name": "amount",
          "type": "uint256"
        }
      ],
      "name": "validateTransaction",
      "outputs": [
        {
          "internalType": "bool",
          "name": "valid",
          "type": "bool"
        },
        {
          "internalType": "string",
          "name": "reason",
          "type": "string"
        }
      ],
      "stateMutability": "view",
      "type": "function"
    }
  ],
  "bytecode": "0x60806040526301e133806006556276a700600755600160038111156200002a57620000296200047d565b5b6008556001600960006101000a81548160ff0219169083151502179055503480156200005557600080fd5b50604051620042f9380380620042f983398181016040528101906200007b9190620004ef565b6000600160006101000a81548160ff0219169083151502179055506001600281905550620000ba67b29f1e709c270ff560c01b6200031760201b60201c565b620000d667828e9a59c7375ced60c01b6200031760201b60201c565b620000f267c4443352e49fc78660c01b6200031760201b60201c565b620001076000801b826200031a60201b60201c565b6200012367938228143fb0972360c01b6200031760201b60201c565b6200013f676f9791be6314ba3f60c01b6200031760201b60201c565b620001717fb6f0283bd1ed00c6aa7e988a7516070240f3610a34d167391359b648eb37cefc826200031a60201b60201c565b6200018d676a4fad88b4d64a9e60c01b6200031760201b60201c565b600160046040516200019f906200057a565b908152602001604051809103902060006101000a81548160ff021916908315150217905550620001e067d2f4a2cb29e43ca560c01b6200031760201b60201c565b60016004604051620001f290620005e1565b908152602001604051809103902060006101000a81548160ff0219169083151502179055506200023367e4841330df23976160c01b6200031760201b60201c565b60016004604051620002459062000648565b908152602001604051809103902060006101000a81548160ff0219169083151502179055506200028667a0dee271cd397b2560c01b6200031760201b60201c565b600160046040516200029890620006af565b908152602001604051809103902060006101000a81548160ff021916908315150217905550620002d967318ce9c9b802902660c01b6200031760201b60201c565b60016004604051620002eb9062000716565b908152602001604051809103902060006101000a81548160ff021916908315150217905550506200072d565b50565b6200032c82826200040b60201b60201c565b6200040757600160008084815260200190815260200160002060000160008373ffffffffffffffffffffffffffffffffffffffff1673ffffffffffffffffffffffffffffffffffffffff16815260200190815260200160002060006101000a81548160ff021916908315150217905550620003ac6200047560201b60201c565b73ffffffffffffffffffffffffffffffffffffffff168173ffffffffffffffffffffffffffffffffffffffff16837f2f8788117e7eff1d82e926ec794901d17c78024a50270940304540a733656f0d60405160405180910390a45b5050565b600080600084815260200190815260200160002060000160008373ffffffffffffffffffffffffffffffffffffffff1673ffffffffffffffffffffffffffffffffffffffff16815260200190815260200160002060009054906101000a900460ff16905092915050565b600033905090565b634e487b7160e01b600052602160045260246000fd5b600080fd5b600060018060a01b0382169050919050565b6000620004b78262000498565b9050919050565b620004c981620004aa565b8114620004d557600080fd5b50565b600081519050620004e981620004be565b92915050565b60006020828403121562000508576200050762000493565b5b620005178360008401620004d8565b905092915050565b600081905092915050565b7f5553000000000000000000000000000000000000000000000000000000000000600082015250565b620005606002826200051f565b90506200056d816200052a565b6000600282019050919050565b620005858162000553565b90506000819050919050565b7f554b000000000000000000000000000000000000000000000000000000000000600082015250565b620005c76002826200051f565b9050620005d48162000591565b6000600282019050919050565b620005ec81620005ba565b90506000819050919050565b7f4555000000000000000000000000000000000000000000000000000000000000600082015250565b6200062e6002826200051f565b90506200063b81620005f8565b6000600282019050919050565b620006538162000621565b90506000819050919050565b7f4341000000000000000000000000000000000000000000000000000000000000600082015250565b620006956002826200051f565b9050620006a2816200065f565b6000600282019050919050565b620006ba8162000688565b90506000819050919050565b7f4155000000000000000000000000000000000000000000000000000000000000600082015250565b620006fc6002826200051f565b90506200070981620006c6565b6000600282019050919050565b6200072181620006ef565b90506000819050919050565b613bbc806200073d6000396000f3fe608060405234801561001057600080fd5b50600436106101125760003560e01c806301ffc9a7146101175780631864583114610147578063198596b5146101635780631be3ef2d1461018157806321af25401461019f578063248a9ca3146101bb5780632b85fc99146101eb5780632f2ff15d1461022457806336568abe146102405780633f454a961461025c578063551bece61461028c5780635c975abb146102bc57806391d14854146102da578063a200e5d01461030a578063a217fddf1461033a578063a250d10714610358578063b0b04e3314610376578063c22397ff14610394578063c3bb3861146103c5578063d547741f146103e3578063d9e1063d146103ff578063dc2b50601461041d575b600080fd5b610131600480360381019061012c9190612a96565b61043b565b60405161013e9190612adc565b60405180910390f35b610161600480360381019061015c9190612bc0565b6104b5565b005b61016b6108cb565b6040516101789190612c47565b60405180910390f35b6101896108ef565b6040516101969190612adc565b60405180910390f35b6101b960048036038101906101b49190612cc8565b610902565b005b6101d560048036038101906101d09190612dc8565b61103e565b6040516101e29190612c47565b60405180910390f35b61020560048036038101906102009190612df3565b61105d565b60405161021b9a99989796959493929190612fa6565b60405180910390f35b61023e60048036038101906102399190613050565b611222565b005b61025a60048036038101906102559190613050565b611243565b005b61027660048036038101906102719190613196565b6112c6565b6040516102839190612adc565b60405180910390f35b6102a660048036038101906102a19190613196565b6112fc565b6040516102b39190612adc565b60405180910390f35b6102c4611332565b6040516102d19190612adc565b60405180910390f35b6102f460048036038101906102ef9190613050565b611349565b6040516103019190612adc565b60405180910390f35b610324600480360381019061031f9190612df3565b6113b3565b6040516103319190612adc565b60405180910390f35b610342611ac9565b60405161034f9190612c47565b60405180910390f35b610360611ad0565b60405161036d91906131dd565b60405180910390f35b61037e611ad6565b60405161038b9190612c47565b60405180910390f35b6103ae60048036038101906103a99190613224565b611afa565b6040516103bc929190613271565b60405180910390f35b6103cd611f7b565b6040516103da91906131dd565b60405180910390f35b6103fd60048036038101906103f89190613050565b611f81565b005b610407611fa2565b6040516104149190612c47565b60405180910390f35b610425611fc6565b60405161043291906131dd565b60405180910390f35b60007f7965db0b000000000000000000000000000000000000000000000000000000007bffffffffffffffffffffffffffffffffffffffffffffffffffffffff1916827bffffffffffffffffffffffffffffffffffffffffffffffffffffffff191614806104ae57506104ad82611fcc565b5b9050919050565b6104c967a2417f3c52b19d9060c01b612036565b7fb6f0283bd1ed00c6aa7e988a7516070240f3610a34d167391359b648eb37cefc6104f381612039565b61050767d11aac6898966d1b60c01b612036565b61051b677f86635741beb60360c01b612036565b61052f675e1573b671d9eb3a60c01b612036565b610543670aa7ddb00512f22460c01b612036565b6000600360008773ffffffffffffffffffffffffffffffffffffffff1673ffffffffffffffffffffffffffffffffffffffff168152602001908152602001600020905061059a67fb7f72bcbb5b14cf60c01b612036565b6105ae67d4aa5ae36553956660c01b612036565b6105c267ba945203b62dc4ea60c01b612036565b600073ffffffffffffffffffffffffffffffffffffffff168160000160009054906101000a900473ffffffffffffffffffffffffffffffffffffffff1673ffffffffffffffffffffffffffffffffffffffff1603610655576040517f08c379a000000000000000000000000000000000000000000000000000000000815260040161064c906132ed565b60405180910390fd5b61066967be88f1f6c53132b360c01b612036565b61067d6709c2df1c27823e0460c01b612036565b61069167d6040c314c9dcecf60c01b612036565b60008160000160169054906101000a900460ff1690506106bb67a3e2423db6f00feb60c01b612036565b858260000160166101000a81548160ff021916908360048111156106e2576106e1612e2d565b5b02179055506106fb67c26f315f00fe7a7660c01b612036565b61070f67b6b78aebf43781a360c01b612036565b8673ffffffffffffffffffffffffffffffffffffffff167f0649951c1b4f143bec0c7f26bb14f3a2e6b0b0157e47e9f8c647e29b852022e6828860405161075792919061330d565b60405180910390a261077367656c5289586000ef60c01b612036565b61078767e4b2ae6686f0834a60c01b612036565b6002600481111561079b5761079a612e2d565b5b8660048111156107ae576107ad612e2d565b5b1480156107cb57506107ca67172355716262dec960c01b61204d565b5b8061081557506004808111156107e4576107e3612e2d565b5b8660048111156107f7576107f6612e2d565b5b1480156108145750610813671b479e78b3cffbd360c01b61204d565b5b5b156108ad5761082e6751325258546df43660c01b612036565b610842679ab6b6781d11656760c01b612036565b6108566742768d54b7e0c88b60c01b612036565b8673ffffffffffffffffffffffffffffffffffffffff167fe9aec22c81d6532fbe3b197ee399a3c37023ba155f7477efb8a88f2153eb06668686426040516108a093929190613363565b60405180910390a26108c2565b6108c167c6d48e676d53d82860c01b612036565b5b50505050505050565b7fb6f0283bd1ed00c6aa7e988a7516070240f3610a34d167391359b648eb37cefc81565b600960009054906101000a900460ff1681565b61091667e4b67cc58dd73c3d60c01b612036565b7fb6f0283bd1ed00c6aa7e988a7516070240f3610a34d167391359b648eb37cefc61094081612039565b610954678c221b5e5de8fef560c01b612036565b6109686736f7b6459a8489c860c01b612036565b61097c67ca16f88eadb52b5460c01b612036565b610990670d1316b8bd71094460c01b612036565b6109a46760f37ce3900969c660c01b612036565b600073ffffffffffffffffffffffffffffffffffffffff168a73ffffffffffffffffffffffffffffffffffffffff1603610a13576040517f08c379a0000000000000000000000000000000000000000000000000000000008152600401610a0a906133e1565b60405180910390fd5b610a27679ec54e9a7c76235660c01b612036565b610a3b676c1db034fdded6e660c01b612036565b610a4f6773221b7b483de95f60c01b612036565b610a636704c8aec80244813660c01b612036565b60048787604051610a75929190613431565b908152602001604051809103902060009054906101000a900460ff16610ad0576040517f08c379a0000000000000000000000000000000000000000000000000000000008152600401610ac790613496565b60405180910390fd5b610ae467d6d09ad9e8f0f23560c01b612036565b610af86741be46482ae0a79c60c01b612036565b610b0c673a9d9d33f7772b0860c01b612036565b610b2067b628543f842c594a60c01b612036565b60058787604051610b32929190613431565b908152602001604051809103902060009054906101000a900460ff1615610b8e576040517f08c379a0000000000000000000000000000000000000000000000000000000008152600401610b8590613502565b60405180910390fd5b610ba2673c2345bbef55c6dc60c01b612036565b610bb667b421a6e6f8a1aa0d60c01b612036565b610bca67778fdafddb2858f560c01b612036565b6000600360008c73ffffffffffffffffffffffffffffffffffffffff1673ffffffffffffffffffffffffffffffffffffffff1681526020019081526020016000209050610c216733a418be0e0ac0d560c01b612036565b610c356719ca8ac91754b7ab60c01b612036565b60008160000160169054906101000a900460ff169050610c5f67b9f55677484a8dac60c01b612036565b610c7367c0ce85e24aa9ce5f60c01b612036565b6000429050610c8c6724267e400179da8b60c01b612036565b8c8360000160006101000a81548173ffffffffffffffffffffffffffffffffffffffff021916908373ffffffffffffffffffffffffffffffffffffffff160217905550610ce367319e1524814120f460c01b612036565b8b8360000160146101000a81548160ff02191690836003811115610d0a57610d09612e2d565b5b0217905550610d23674c1e98050064f09060c01b612036565b8a8360000160156101000a81548160ff02191690836003811115610d4a57610d49612e2d565b5b0217905550610d6367b1f88cd9421f4b6f60c01b612036565b610d6f8c8c8888612058565b8360000160166101000a81548160ff02191690836004811115610d9557610d94612e2d565b5b0217905550610dae677c15b9b91c34b15260c01b612036565b808360010181905550610dcb670a17a1f492f71d6960c01b612036565b610dd58c8c61235f565b81610de09190613538565b8360020181905550610dfc67bb165a558b582d6360c01b612036565b8989846003019182610e0f929190613738565b50610e2467a33b08d11819237660c01b612036565b8787846004019182610e37929190613738565b50610e4c67ebdc778fbac57ec860c01b612036565b858360050160006101000a81548160ff021916908315150217905550610e7c67977b7585b51c3edd60c01b612036565b848360050160016101000a81548160ff021916908315150217905550610eac672c80e1930235225e60c01b612036565b610ec0671fb37f305313b39a60c01b612036565b8c73ffffffffffffffffffffffffffffffffffffffff167f83a3249343aaf012ccb591e1438c530837d255b80cb6747a658a5aa12ca854498d8d8d8d604051610f0c9493929190613803565b60405180910390a2610f28674a9aa2e23363197f60c01b612036565b610f3c672ab532009e31d19260c01b612036565b8260000160169054906101000a900460ff166004811115610f6057610f5f612e2d565b5b826004811115610f7357610f72612e2d565b5b1461101a57610f8c67c1f273285303dd6d60c01b612036565b610fa067372e735796ae1c3c60c01b612036565b610fb4677dbb60d00b1d906f60c01b612036565b8c73ffffffffffffffffffffffffffffffffffffffff167f0649951c1b4f143bec0c7f26bb14f3a2e6b0b0157e47e9f8c647e29b852022e6838560000160169054906101000a900460ff1660405161100d92919061330d565b60405180910390a261102f565b61102e67fb7231be50dbed8360c01b612036565b5b50505050505050505050505050565b6000806000838152602001908152602001600020600101549050919050565b60036020528060005260406000206000915090508060000160009054906101000a900473ffffffffffffffffffffffffffffffffffffffff16908060000160149054906101000a900460ff16908060000160159054906101000a900460ff16908060000160169054906101000a900460ff16908060010154908060020154908060030180546110eb9061358d565b80601f01602080910402602001604051908101604052809291908181526020018280546111179061358d565b80156111645780601f1061113957610100808354040283529160200191611164565b820191906000526020600020905b81548152906001019060200180831161114757829003601f168201915b5050505050908060040180546111799061358d565b80601f01602080910402602001604051908101604052809291908181526020018280546111a59061358d565b80156111f25780601f106111c7576101008083540402835291602001916111f2565b820191906000526020600020905b8154815290600101906020018083116111d557829003601f168201915b5050505050908060050160009054906101000a900460ff16908060050160019054906101000a900460ff1690508a565b61122b8261103e565b61123481612039565b61123e8383612591565b505050565b61124b612671565b73ffffffffffffffffffffffffffffffffffffffff168173ffffffffffffffffffffffffffffffffffffffff16146112b8576040517f08c379a00000000000000000000000000000000000000000000000000000000081526004016112af906138b5565b60405180910390fd5b6112c28282612679565b5050565b6004818051602081018201805184825260208301602085012081835280955050505050506000915054906101000a900460ff1681565b6005818051602081018201805184825260208301602085012081835280955050505050506000915054906101000a900460ff1681565b6000600160009054906101000a900460ff16905090565b600080600084815260200190815260200160002060000160008373ffffffffffffffffffffffffffffffffffffffff1673ffffffffffffffffffffffffffffffffffffffff16815260200190815260200160002060009054906101000a900460ff16905092915050565b60006113c9676d44b8b62646413660c01b612036565b6113dd67187f59bc90160b8360c01b612036565b6113f1677d002f3d8cfa6a6460c01b612036565b600960009054906101000a900460ff1661144a5761141967e8e1024da18eb5eb60c01b612036565b61142d675cdd5f7b84fb760560c01b612036565b611441678733cb6d1f2f8b1360c01b612036565b60019050611ac4565b61145e67b57bcd539c28d62060c01b612036565b61147267925a0e4a2e5400bf60c01b612036565b61148667bd36beac7173957560c01b612036565b6000600360008473ffffffffffffffffffffffffffffffffffffffff1673ffffffffffffffffffffffffffffffffffffffff168152602001908152602001600020604051806101400160405290816000820160009054906101000a900473ffffffffffffffffffffffffffffffffffffffff1673ffffffffffffffffffffffffffffffffffffffff1673ffffffffffffffffffffffffffffffffffffffff1681526020016000820160149054906101000a900460ff16600381111561154e5761154d612e2d565b5b60038111156115605761155f612e2d565b5b81526020016000820160159054906101000a900460ff16600381111561158957611588612e2d565b5b600381111561159b5761159a612e2d565b5b81526020016000820160169054906101000a900460ff1660048111156115c4576115c3612e2d565b5b60048111156115d6576115d5612e2d565b5b815260200160018201548152602001600282015481526020016003820180546115fe9061358d565b80601f016020809104026020016040519081016040528092919081815260200182805461162a9061358d565b80156116775780601f1061164c57610100808354040283529160200191611677565b820191906000526020600020905b81548152906001019060200180831161165a57829003601f168201915b505050505081526020016004820180546116909061358d565b80601f01602080910402602001604051908101604052809291908181526020018280546116bc9061358d565b80156117095780601f106116de57610100808354040283529160200191611709565b820191906000526020600020905b8154815290600101906020018083116116ec57829003601f168201915b505050505081526020016005820160009054906101000a900460ff161515151581526020016005820160019054906101000a900460ff161515151581525050905061175e67d787a6a5b00efc7c60c01b612036565b611772673c1cb0a7f668743860c01b612036565b600073ffffffffffffffffffffffffffffffffffffffff16816000015173ffffffffffffffffffffffffffffffffffffffff16036117f0576117be67f21d5c1590e710c460c01b612036565b6117d26761093e0d99719f7360c01b612036565b6117e6670ecf6ff909f4db9860c01b612036565b6000915050611ac4565b611804678b6158584c9e358960c01b612036565b611818674c7d7e55bf168fd360c01b612036565b61182c67cc859ea9b89fcf7e60c01b612036565b600160048111156118405761183f612e2d565b5b8160600151600481111561185757611856612e2d565b5b146118a2576118706762c72a5cb232e60a60c01b612036565b611884678d591ef8e21882bb60c01b612036565b61189867811a231f105baa3a60c01b612036565b6000915050611ac4565b6118b667a16dc64ee5b2fb4060c01b612036565b6118ca676232b79959d23c6060c01b612036565b6118de67d26fecba35a197f560c01b612036565b428160a001511161192f576118fd674668e02d50d64ac460c01b612036565b61191167f1292136a2af675460c01b612036565b61192567555e02d2e257815860c01b612036565b6000915050611ac4565b611943672c3eff25bb122e2160c01b612036565b6119576784c6492c6086134f60c01b612036565b61196b67a323924cd946f7f360c01b612036565b6008548160200151600381111561198557611984612e2d565b5b10156119d15761199f67e77b4f29a924e0d560c01b612036565b6119b3678f95b0d9d5016e2460c01b612036565b6119c76733a16961ff895d2860c01b612036565b6000915050611ac4565b6119e567c3ab460f089e64b660c01b612036565b6119f9679ccabec84cbf4df360c01b612036565b611a0d6797c3f73cc55761a360c01b612036565b600380811115611a2057611a1f612e2d565b5b81604001516003811115611a3757611a36612e2d565b5b03611a8257611a5067bdc56b16547b809360c01b612036565b611a64670dbf2ac4c9e9d59960c01b612036565b611a78675e6d0fef022377c460c01b612036565b6000915050611ac4565b611a966764b5afce1ec4c34660c01b612036565b611aaa6737dd4dd2241e710360c01b612036565b611abe672b464d76202154db60c01b612036565b60019150505b919050565b6000801b81565b60085481565b7f33e26563bb47f6c58011d77bcac0c19f2fbb8ba8738a01d2a759e466fa0d916a81565b60006060611b12677519224657f277b160c01b612036565b611b266793800bd7f1a11b8e60c01b612036565b611b3a676bfacaaebd04183260c01b612036565b600960009054906101000a900460ff16611bcb57611b6267b1eba08e57077b0c60c01b612036565b611b7667e5e0d1e2abd3086e60c01b612036565b611b8a672ef39409539b514e60c01b612036565b60016040518060400160405280601781526020017f436f6d706c69616e6365206e6f7420726571756972656400000000000000000081525091509150611f73565b611bdf675a6cce7079fd80a060c01b612036565b611bf36753e86526cbb63fdf60c01b612036565b611c07676ca9e1621b4f1d4a60c01b612036565b60008303611c8c57611c23672eff40b311b003e460c01b612036565b611c3767798d3c244225521e60c01b612036565b611c4b676fe955e455b29db060c01b612036565b60006040518060400160405280601a81526020017f496e76616c6964207472616e73616374696f6e20616d6f756e7400000000000081525091509150611f73565b611ca067dc4f36b02d0964e860c01b612036565b611cb4670f9a251cf9cfb99a60c01b612036565b611cc8673ea29e8c79ee51eb60c01b612036565b3073ffffffffffffffffffffffffffffffffffffffff1663a200e5d0866040518263ffffffff1660e01b8152600401611d0191906138d5565b602060405180830381865afa158015611d1e573d6000803e3d6000fd5b505050506040513d601f19601f82011682018060405250810190611d429190613905565b611dc357611d5a67ba18d3d1299df56c60c01b612036565b611d6e67db1d3cda78db1e8360c01b612036565b611d826757df64fe6adbbb5360c01b612036565b60006040518060400160405280601381526020017f4275796572206e6f7420636f6d706c69616e740000000000000000000000000081525091509150611f73565b611dd767fbcb68bf84c56b8b60c01b612036565b611deb6785b56504d9e7795860c01b612036565b611dff67b24ec1a1cb78f7c960c01b612036565b3073ffffffffffffffffffffffffffffffffffffffff1663a200e5d0856040518263ffffffff1660e01b8152600401611e3891906138d5565b602060405180830381865afa158015611e55573d6000803e3d6000fd5b505050506040513d601f19601f82011682018060405250810190611e799190613905565b611efa57611e9167c0e0d209a1f5c2ec60c01b612036565b611ea5673d2116df6675686c60c01b612036565b611eb9675eaeb71f5bfa8fff60c01b612036565b60006040518060400160405280601481526020017f53656c6c6572206e6f7420636f6d706c69616e7400000000000000000000000081525091509150611f73565b611f0e67d4e79aeb43040ae960c01b612036565b611f22676a02d3f7122edcf860c01b612036565b611f3667e1d55afcaac6bd9d60c01b612036565b60016040518060400160405280601581526020017f5472616e73616374696f6e20636f6d706c69616e740000000000000000000000815250915091505b935093915050565b60065481565b611f8a8261103e565b611f9381612039565b611f9d8383612679565b505050565b7f6c4079fcac94e7142d8c209744c998efe53a188aadb7e55958f7ad3ea8a1d65281565b60075481565b60007f01ffc9a7000000000000000000000000000000000000000000000000000000007bffffffffffffffffffffffffffffffffffffffffffffffffffffffff1916827bffffffffffffffffffffffffffffffffffffffffffffffffffffffff1916149050919050565b50565b61204a81612045612671565b61275a565b50565b600060019050919050565b600061206e670a9286419e8086cf60c01b612036565b612082670b941b4cdfdb5e6960c01b612036565b612096674ecf388fc83d347860c01b612036565b6003808111156120a9576120a8612e2d565b5b8460038111156120bc576120bb612e2d565b5b1480156120d957506120d867c7e66f03ff9d1acf60c01b61204d565b5b806120fe5750821580156120fd57506120fc67fb1154553520cef460c01b61204d565b5b5b156121485761211767c451509b0f24eda660c01b612036565b61212b67e1dccc47cdf1df9860c01b612036565b61213f6727e46ca16190dd7060c01b612036565b60029050612357565b61215c676ab84bd6df1614d360c01b612036565b6121706720465410fa42c19160c01b612036565b61218467a9536e018048aca760c01b612036565b6002600381111561219857612197612e2d565b5b8460038111156121ab576121aa612e2d565b5b1480156121c857506121c76795cf2720f9faaa3060c01b61204d565b5b806121ec57508180156121eb57506121ea676c0c9d15019207f860c01b61204d565b5b5b156122365761220567461664056a05aed660c01b612036565b61221967c6fd24242626033a60c01b612036565b61222d676e50109e087eced060c01b612036565b60009050612357565b61224a67142ea5c9d9f0efae60c01b612036565b61225e67ea67db7604551fc560c01b612036565b612272670f8240680ad7452f60c01b612036565b6001600381111561228657612285612e2d565b5b85600381111561229957612298612e2d565b5b101580156122cc5750600160038111156122b6576122b5612e2d565b5b8460038111156122c9576122c8612e2d565b5b11155b15612316576122e5672d791e267c5e3f0e60c01b612036565b6122f967be81de7ed021a04060c01b612036565b61230d67c93c3ba99da88f9a60c01b612036565b60019050612357565b61232a6788b9a98b74ed1deb60c01b612036565b61233e6704fd8e3b3abe3bf560c01b612036565b612352676628101dbeff770e60c01b612036565b600090505b949350505050565b600061237567e5d5c49bec5a51b960c01b612036565b61238967a28447a3c2d3e84660c01b612036565b61239d67c45f1939df58c9a860c01b612036565b600260038111156123b1576123b0612e2d565b5b8260038111156123c4576123c3612e2d565b5b0361241b576123dd67d183e1cdf37d9a6160c01b612036565b6123f167faa76953e683f1f460c01b612036565b61240567dffa1009ef2c48d260c01b612036565b60026007546124149190613946565b905061258b565b61242f67e09ffd3c9fb7f1da60c01b612036565b612443671351abfdc9fdf87d60c01b612036565b61245767026a0d914f7ff88060c01b612036565b6002600381111561246b5761246a612e2d565b5b83600381111561247e5761247d612e2d565b5b14801561249b575061249a67b7551221c0828c6960c01b61204d565b5b806124e557506003808111156124b4576124b3612e2d565b5b8360038111156124c7576124c6612e2d565b5b1480156124e457506124e36798b3200168f3435b60c01b61204d565b5b5b15612530576124fe678c91979db6a11ee560c01b612036565b612512679bd1f9bf08d5091160c01b612036565b61252667c888de3a0520180a60c01b612036565b600654905061258b565b61254467d13c0d3e32db138160c01b612036565b6125586776687963032cac8260c01b612036565b61256c6761a91ef7aed6a5d060c01b612036565b600260075460065461257e9190613538565b6125889190613946565b90505b92915050565b61259b8282611349565b61266d57600160008084815260200190815260200160002060000160008373ffffffffffffffffffffffffffffffffffffffff1673ffffffffffffffffffffffffffffffffffffffff16815260200190815260200160002060006101000a81548160ff021916908315150217905550612612612671565b73ffffffffffffffffffffffffffffffffffffffff168173ffffffffffffffffffffffffffffffffffffffff16837f2f8788117e7eff1d82e926ec794901d17c78024a50270940304540a733656f0d60405160405180910390a45b5050565b600033905090565b6126838282611349565b1561275657600080600084815260200190815260200160002060000160008373ffffffffffffffffffffffffffffffffffffffff1673ffffffffffffffffffffffffffffffffffffffff16815260200190815260200160002060006101000a81548160ff0219169083151502179055506126fb612671565b73ffffffffffffffffffffffffffffffffffffffff168173ffffffffffffffffffffffffffffffffffffffff16837ff6391f5c32d9c69d2a47ea670b442974b53935d1edc7fd64eb21e047a839171b60405160405180910390a45b5050565b6127648282611349565b6127db57612771816127df565b61277f8360001c602061280c565b604051602001612790929190613a40565b6040516020818303038152906040526040517f08c379a00000000000000000000000000000000000000000000000000000000081526004016127d29190613a7a565b60405180910390fd5b5050565b60606128058273ffffffffffffffffffffffffffffffffffffffff16601460ff1661280c565b9050919050565b60606000600283600261281f9190613a9c565b6128299190613538565b67ffffffffffffffff8111156128425761284161308c565b5b6040519080825280601f01601f1916602001820160405280156128745781602001600182028036833780820191505090505b5090507f3000000000000000000000000000000000000000000000000000000000000000816000815181106128ac576128ab613adc565b5b60200101907effffffffffffffffffffffffffffffffffffffffffffffffffffffffffffff1916908160001a9053507f7800000000000000000000000000000000000000000000000000000000000000816001815181106129105761290f613adc565b5b60200101907effffffffffffffffffffffffffffffffffffffffffffffffffffffffffffff1916908160001a905350600060018460026129509190613a9c565b61295a9190613538565b90505b60018111156129fa577f3031323334353637383961626364656600000000000000000000000000000000600f86166010811061299c5761299b613adc565b5b1a60f81b8282815181106129b3576129b2613adc565b5b60200101907effffffffffffffffffffffffffffffffffffffffffffffffffffffffffffff1916908160001a905350600485901c9450806129f390613af2565b905061295d565b5060008414612a3e576040517f08c379a0000000000000000000000000000000000000000000000000000000008152600401612a3590613b66565b60405180910390fd5b8091505092915050565b6000604051905090565b600080fd5b600063ffffffff60e01b82169050919050565b612a7381612a57565b8114612a7e57600080fd5b50565b600081359050612a9081612a6a565b92915050565b600060208284031215612aac57612aab612a52565b5b612ab98360008401612a81565b905092915050565b60008115159050919050565b612ad681612ac1565b82525050565b6000602082019050612af16000830184612acd565b92915050565b600060018060a01b0382169050919050565b6000612b1482612af7565b9050919050565b612b2481612b09565b8114612b2f57600080fd5b50565b600081359050612b4181612b1b565b92915050565b60058110612b5457600080fd5b50565b600081359050612b6681612b47565b92915050565b60008083601f840112612b8257612b81612a52565b5b8235905060018060401b03811115612b9d57612b9c612a52565b5b602083019150836001820283011115612bb957612bb8612a52565b5b9250929050565b60008060008060608587031215612bda57612bd9612a52565b5b612be78660008701612b32565b9350612bf68660208701612b57565b9250604085013560018060401b03811115612c1457612c13612a52565b5b612c2087828801612b6c565b925092505092959194509250565b6000819050919050565b612c4181612c2e565b82525050565b6000602082019050612c5c6000830184612c38565b92915050565b60048110612c6f57600080fd5b50565b600081359050612c8181612c62565b92915050565b600081359050612c9681612c62565b92915050565b612ca581612ac1565b8114612cb057600080fd5b50565b600081359050612cc281612c9c565b92915050565b600080600080600080600080600060e08a8c031215612cea57612ce9612a52565b5b612cf78b60008c01612b32565b9850612d068b60208c01612c72565b9750612d158b60408c01612c87565b965060608a013560018060401b03811115612d3357612d32612a52565b5b612d3f8c828d01612b6c565b965096505060808a013560018060401b03811115612d6057612d5f612a52565b5b612d6c8c828d01612b6c565b9450945050612d7e8b60a08c01612cb3565b9150612d8d8b60c08c01612cb3565b90509295985092959850929598565b612da581612c2e565b8114612db057600080fd5b50565b600081359050612dc281612d9c565b92915050565b600060208284031215612dde57612ddd612a52565b5b612deb8360008401612db3565b905092915050565b600060208284031215612e0957612e08612a52565b5b612e168360008401612b32565b905092915050565b612e2781612b09565b82525050565b634e487b7160e01b600052602160045260246000fd5b60048110612e5457612e53612e2d565b5b50565b6000819050612e6582612e43565b919050565b6000612e7582612e57565b9050919050565b612e8581612e6a565b82525050565b6000819050612e9982612e43565b919050565b6000612ea982612e8b565b9050919050565b612eb981612e9e565b82525050565b60058110612ed057612ecf612e2d565b5b50565b6000819050612ee182612ebf565b919050565b6000612ef182612ed3565b9050919050565b612f0181612ee6565b82525050565b612f1081612c2e565b82525050565b600081519050919050565b818152600060208201905092915050565b60005b83811015612f50578082015181840152602081019050612f35565b50600083830152505050565b6000601f19601f8301169050919050565b6000612f7882612f16565b612f828185612f21565b9350612f92818560208601612f32565b612f9b81612f5c565b840191505092915050565b600061014082019050612fbc600083018d612e1e565b612fc9602083018c612e7c565b612fd6604083018b612eb0565b612fe3606083018a612ef8565b612ff06080830189612f07565b612ffd60a0830188612f07565b81810360c083015261300f8187612f6d565b905081810360e08301526130238186612f6d565b9050613033610100830185612acd565b613041610120830184612acd565b9b9a5050505050505050505050565b6000806040838503121561306757613066612a52565b5b6130748460008501612db3565b91506130838460208501612b32565b90509250929050565b634e487b7160e01b600052604160045260246000fd5b6130ab82612f5c565b810181811060018060401b03821117156130c8576130c761308c565b5b80604052505050565b60006130db612a48565b90506130e782826130a2565b919050565b600060018060401b038211156131055761310461308c565b5b61310e82612f5c565b9050602081019050919050565b82818337506000828201525050565b600061313d613138846130ec565b6130d1565b905082815283838301111561315557613154612a52565b5b61316383602083018461311b565b9392505050565b600082601f83011261317f5761317e612a52565b5b61318e8383356020850161312a565b905092915050565b6000602082840312156131ac576131ab612a52565b5b600082013560018060401b038111156131c8576131c7612a52565b5b6131d48482850161316a565b91505092915050565b60006020820190506131f26000830184612f07565b92915050565b61320181612c2e565b811461320c57600080fd5b50565b60008135905061321e816131f8565b92915050565b60008060006060848603121561323d5761323c612a52565b5b61324a8560008601612b32565b92506132598560208601612b32565b9150613268856040860161320f565b90509250925092565b60006040820190506132866000830185612acd565b81810360208301526132988184612f6d565b90509392505050565b7f436f6d706c69616e6365207265636f7264206e6f7420666f756e640000000000600082015250565b6132d5601b82612f21565b90506132e0816132a1565b6000602082019050919050565b60006020820190508181036000830152613306816132ca565b9050919050565b60006040820190506133226000830185612ef8565b61332f6020830184612ef8565b9392505050565b6133408284612f21565b925061334d82848361311b565b50600061335982612f5c565b8301905092915050565b6000604082019050818103600083015261337e818587613336565b905061338d6020830184612f07565b949350505050565b7f496e76616c696420757365722061646472657373000000000000000000000000600082015250565b6133c9601482612f21565b90506133d481613395565b6000602082019050919050565b600060208201905081810360008301526133fa816133be565b9050919050565b600081905092915050565b6134168284613401565b925061342382848361311b565b506000818301905092915050565b61343c81838561340c565b905060008190509392505050565b7f4a7572697364696374696f6e206e6f7420617070726f76656400000000000000600082015250565b61347e601982612f21565b90506134898161344a565b6000602082019050919050565b600060208201905081810360008301526134af81613473565b9050919050565b7f4a7572697364696374696f6e2072657374726963746564000000000000000000600082015250565b6134ea601782612f21565b90506134f5816134b6565b6000602082019050919050565b6000602082019050818103600083015261351b816134df565b9050919050565b634e487b7160e01b600052601160045260246000fd5b61354181612c2e565b905061354c82612c2e565b9150600082820190508082111561356657613565613522565b5b92915050565b506000819050919050565b634e487b7160e01b600052602260045260246000fd5b600060028204905060018216806135a557607f821691505b6020821081036135b8576135b7613577565b5b50919050565b60008190508160005260206000209050919050565b60006020601f8301049050919050565b600082821b905092915050565b600060088302613602600019826135e3565b61360c86836135e3565b95508019841693508086168417925050509392505050565b600061363f61363a61363584612c2e565b612c2e565b612c2e565b9050919050565b61364f83613624565b61366361365b82612c2e565b8484546135f0565b825550505050565b600090565b61367861366b565b613683818484613646565b505050565b5b818110156136a75761369c600082613670565b600181019050613689565b5050565b601f8211156136ec576136bd816135be565b6136c6846135d3565b810160208510156136d5578190505b6136e96136e1856135d3565b830182613688565b50505b505050565b600082821c905092915050565b600061370f600019846008026136f1565b1980831691505092915050565b61372682826136fe565b90506000826002028217905092915050565b613742838361356c565b60018060401b038111156137595761375861308c565b5b613763825461358d565b61376e8282856136ab565b506000601f82116001811461379e576000831561378c578286013590505b613796848261371c565b8555506137fb565b601f1983166137ac856135be565b835b828110156137d3578488013582556001820191506020850194506020810190506137ae565b50848210156137ef576137ec601f8616858901356136fe565b81555b50506001600284020184555b505050505050565b60006060820190506138186000830187612e7c565b6138256020830186612eb0565b8181036040830152613838818486613336565b905095945050505050565b7f416363657373436f6e74726f6c3a2063616e206f6e6c792072656e6f756e636560008201527f20726f6c657320666f722073656c660000000000000000000000000000000000602082015250565b61389d602f82612f21565b90506138a881613843565b6000604082019050919050565b600060208201905081810360008301526138ce81613892565b9050919050565b60006020820190506138ea6000830184612e1e565b92915050565b6000815190506138ff81612c9c565b92915050565b60006020828403121561391b5761391a612a52565b5b61392883600084016138f0565b905092915050565b634e487b7160e01b600052601260045260246000fd5b61394f81612c2e565b905061395a82612c2e565b915060008261396c5761396b613930565b5b828204905092915050565b7f416363657373436f6e74726f6c3a206163636f756e7420000000000000000000600082015250565b6139ab601782613401565b90506139b681613977565b6000601782019050919050565b60006139ce82612f16565b6139d88185613401565b93506139e8818560208601612f32565b80840191505092915050565b7f206973206d697373696e6720726f6c6520000000000000000000000000000000600082015250565b613a28601182613401565b9050613a33816139f4565b6000601182019050919050565b613a49816139a0565b9050613a5581846139c3565b9050613a6081613a1d565b9050613a6c81836139c3565b905060008190509392505050565b60006020820190508181036000830152613a948184612f6d565b905092915050565b613aa581612c2e565b9050613ab082612c2e565b91506000613abf838302612c2e565b90508181048314821517613ad657613ad5613522565b5b92915050565b634e487b7160e01b600052603260045260246000fd5b613afb81612c2e565b90506000808203613b0f57613b0e613522565b5b600182039050919050565b7f537472696e67733a20686578206c656e67746820696e73756666696369656e74600082015250565b613b4e602082612f21565b9050613b5981613b1a565b6000602082019050919050565b60006020820190508181036000830152613b7f81613b43565b905091905056fea26469706673582212202da4aab007ea70fdc5e37e2962eb0345f555cb7ff1614c10d02b556295f81d4464736f6c63430008160033",
  "linkReferences": {},
  "deployedLinkReferences": {}
}